{
  "contractName": "BaseNFTCertificateModule",
  "abi": [
    {
      "inputs": [
        {
          "internalType": "address",
          "name": "hub",
          "type": "address"
        },
        {
          "internalType": "string",
          "name": "tokenuri",
          "type": "string"
        }
      ],
      "stateMutability": "nonpayable",
      "type": "constructor"
    },
    {
      "inputs": [],
      "name": "CertificateIsAlreadyClaimedByProfile",
      "type": "error"
    },
    {
      "inputs": [],
      "name": "CourseIsNotCompletedByProfile",
      "type": "error"
    },
    {
      "inputs": [],
      "name": "NotHub",
      "type": "error"
    },
    {
      "inputs": [],
      "name": "TokenTransferIsBlock",
      "type": "error"
    },
    {
      "anonymous": false,
      "inputs": [
        {
          "indexed": true,
          "internalType": "address",
          "name": "owner",
          "type": "address"
        },
        {
          "indexed": true,
          "internalType": "address",
          "name": "approved",
          "type": "address"
        },
        {
          "indexed": true,
          "internalType": "uint256",
          "name": "tokenId",
          "type": "uint256"
        }
      ],
      "name": "Approval",
      "type": "event"
    },
    {
      "anonymous": false,
      "inputs": [
        {
          "indexed": true,
          "internalType": "address",
          "name": "owner",
          "type": "address"
        },
        {
          "indexed": true,
          "internalType": "address",
          "name": "operator",
          "type": "address"
        },
        {
          "indexed": false,
          "internalType": "bool",
          "name": "approved",
          "type": "bool"
        }
      ],
      "name": "ApprovalForAll",
      "type": "event"
    },
    {
      "anonymous": false,
      "inputs": [
        {
          "indexed": true,
          "internalType": "address",
          "name": "transactionExecutor",
          "type": "address"
        },
        {
          "indexed": true,
          "internalType": "uint256",
          "name": "profileId",
          "type": "uint256"
        },
        {
          "indexed": true,
          "internalType": "uint256",
          "name": "tokenId",
          "type": "uint256"
        },
        {
          "indexed": false,
          "internalType": "uint256",
          "name": "pointedPublication",
          "type": "uint256"
        },
        {
          "indexed": false,
          "internalType": "address",
          "name": "certificateNFTContract",
          "type": "address"
        },
        {
          "indexed": false,
          "internalType": "uint256",
          "name": "timestamp",
          "type": "uint256"
        }
      ],
      "name": "CertificateIssuedToProfile",
      "type": "event"
    },
    {
      "anonymous": false,
      "inputs": [
        {
          "indexed": true,
          "internalType": "address",
          "name": "transactionExecutor",
          "type": "address"
        },
        {
          "indexed": true,
          "internalType": "uint256",
          "name": "profileId",
          "type": "uint256"
        },
        {
          "indexed": true,
          "internalType": "uint256",
          "name": "pointedPublication",
          "type": "uint256"
        },
        {
          "indexed": false,
          "internalType": "uint256",
          "name": "pointedProfileId",
          "type": "uint256"
        },
        {
          "indexed": false,
          "internalType": "uint256",
          "name": "timestamp",
          "type": "uint256"
        }
      ],
      "name": "CourseCompletedByProfile",
      "type": "event"
    },
    {
      "anonymous": false,
      "inputs": [
        {
          "indexed": true,
          "internalType": "address",
          "name": "from",
          "type": "address"
        },
        {
          "indexed": true,
          "internalType": "address",
          "name": "to",
          "type": "address"
        },
        {
          "indexed": true,
          "internalType": "uint256",
          "name": "tokenId",
          "type": "uint256"
        }
      ],
      "name": "Transfer",
      "type": "event"
    },
    {
      "inputs": [
        {
          "internalType": "address",
          "name": "to",
          "type": "address"
        },
        {
          "internalType": "uint256",
          "name": "tokenId",
          "type": "uint256"
        }
      ],
      "name": "approve",
      "outputs": [],
      "stateMutability": "nonpayable",
      "type": "function"
    },
    {
      "inputs": [
        {
          "internalType": "address",
          "name": "owner",
          "type": "address"
        }
      ],
      "name": "balanceOf",
      "outputs": [
        {
          "internalType": "uint256",
          "name": "",
          "type": "uint256"
        }
      ],
      "stateMutability": "view",
      "type": "function"
    },
    {
      "inputs": [
        {
          "internalType": "uint256",
          "name": "tokenId",
          "type": "uint256"
        }
      ],
      "name": "getApproved",
      "outputs": [
        {
          "internalType": "address",
          "name": "",
          "type": "address"
        }
      ],
      "stateMutability": "view",
      "type": "function"
    },
    {
      "inputs": [
        {
          "internalType": "address",
          "name": "owner",
          "type": "address"
        },
        {
          "internalType": "address",
          "name": "operator",
          "type": "address"
        }
      ],
      "name": "isApprovedForAll",
      "outputs": [
        {
          "internalType": "bool",
          "name": "",
          "type": "bool"
        }
      ],
      "stateMutability": "view",
      "type": "function"
    },
    {
      "inputs": [],
      "name": "name",
      "outputs": [
        {
          "internalType": "string",
          "name": "",
          "type": "string"
        }
      ],
      "stateMutability": "view",
      "type": "function"
    },
    {
      "inputs": [
        {
          "internalType": "uint256",
          "name": "tokenId",
          "type": "uint256"
        }
      ],
      "name": "ownerOf",
      "outputs": [
        {
          "internalType": "address",
          "name": "",
          "type": "address"
        }
      ],
      "stateMutability": "view",
      "type": "function"
    },
    {
      "inputs": [
        {
          "internalType": "address",
          "name": "from",
          "type": "address"
        },
        {
          "internalType": "address",
          "name": "to",
          "type": "address"
        },
        {
          "internalType": "uint256",
          "name": "tokenId",
          "type": "uint256"
        }
      ],
      "name": "safeTransferFrom",
      "outputs": [],
      "stateMutability": "nonpayable",
      "type": "function"
    },
    {
      "inputs": [
        {
          "internalType": "address",
          "name": "from",
          "type": "address"
        },
        {
          "internalType": "address",
          "name": "to",
          "type": "address"
        },
        {
          "internalType": "uint256",
          "name": "tokenId",
          "type": "uint256"
        },
        {
          "internalType": "bytes",
          "name": "data",
          "type": "bytes"
        }
      ],
      "name": "safeTransferFrom",
      "outputs": [],
      "stateMutability": "nonpayable",
      "type": "function"
    },
    {
      "inputs": [
        {
          "internalType": "address",
          "name": "operator",
          "type": "address"
        },
        {
          "internalType": "bool",
          "name": "approved",
          "type": "bool"
        }
      ],
      "name": "setApprovalForAll",
      "outputs": [],
      "stateMutability": "nonpayable",
      "type": "function"
    },
    {
      "inputs": [
        {
          "internalType": "bytes4",
          "name": "interfaceId",
          "type": "bytes4"
        }
      ],
      "name": "supportsInterface",
      "outputs": [
        {
          "internalType": "bool",
          "name": "",
          "type": "bool"
        }
      ],
      "stateMutability": "view",
      "type": "function"
    },
    {
      "inputs": [],
      "name": "symbol",
      "outputs": [
        {
          "internalType": "string",
          "name": "",
          "type": "string"
        }
      ],
      "stateMutability": "view",
      "type": "function"
    },
    {
      "inputs": [
        {
          "internalType": "address",
          "name": "from",
          "type": "address"
        },
        {
          "internalType": "address",
          "name": "to",
          "type": "address"
        },
        {
          "internalType": "uint256",
          "name": "tokenId",
          "type": "uint256"
        }
      ],
      "name": "transferFrom",
      "outputs": [],
      "stateMutability": "nonpayable",
      "type": "function"
    },
    {
      "inputs": [
        {
          "internalType": "uint256",
          "name": "profileId",
          "type": "uint256"
        },
        {
          "internalType": "uint256",
          "name": "pointedProfileId",
          "type": "uint256"
        },
        {
          "internalType": "uint256",
          "name": "pointedPublication",
          "type": "uint256"
        },
        {
          "internalType": "address",
          "name": "transactionExecutor",
          "type": "address"
        }
      ],
      "name": "claimCertificate",
      "outputs": [
        {
          "internalType": "uint256",
          "name": "",
          "type": "uint256"
        }
      ],
      "stateMutability": "nonpayable",
      "type": "function"
    },
    {
      "inputs": [
        {
          "internalType": "uint256",
          "name": "tokenId",
          "type": "uint256"
        }
      ],
      "name": "tokenURI",
      "outputs": [
        {
          "internalType": "string",
          "name": "",
          "type": "string"
        }
      ],
      "stateMutability": "view",
      "type": "function"
    }
  ],
  "bytecode": "0x60a060405234801562000010575f80fd5b50604051620035b6380380620035b68339818101604052810190620000369190620002fb565b6040518060400160405280601081526020017f45647578204365727469666963617465000000000000000000000000000000008152506040518060400160405280600581526020017f4544555854000000000000000000000000000000000000000000000000000000815250815f9081620000b2919062000596565b508060019081620000c4919062000596565b5050508173ffffffffffffffffffffffffffffffffffffffff1660808173ffffffffffffffffffffffffffffffffffffffff168152505080600890816200010c919062000596565b5050506200067a565b5f604051905090565b5f80fd5b5f80fd5b5f73ffffffffffffffffffffffffffffffffffffffff82169050919050565b5f620001518262000126565b9050919050565b620001638162000145565b81146200016e575f80fd5b50565b5f81519050620001818162000158565b92915050565b5f80fd5b5f80fd5b5f601f19601f8301169050919050565b7f4e487b71000000000000000000000000000000000000000000000000000000005f52604160045260245ffd5b620001d7826200018f565b810181811067ffffffffffffffff82111715620001f957620001f86200019f565b5b80604052505050565b5f6200020d62000115565b90506200021b8282620001cc565b919050565b5f67ffffffffffffffff8211156200023d576200023c6200019f565b5b62000248826200018f565b9050602081019050919050565b5f5b838110156200027457808201518184015260208101905062000257565b5f8484015250505050565b5f620002956200028f8462000220565b62000202565b905082815260208101848484011115620002b457620002b36200018b565b5b620002c184828562000255565b509392505050565b5f82601f830112620002e057620002df62000187565b5b8151620002f28482602086016200027f565b91505092915050565b5f80604083850312156200031457620003136200011e565b5b5f620003238582860162000171565b925050602083015167ffffffffffffffff81111562000347576200034662000122565b5b6200035585828601620002c9565b9150509250929050565b5f81519050919050565b7f4e487b71000000000000000000000000000000000000000000000000000000005f52602260045260245ffd5b5f6002820490506001821680620003ae57607f821691505b602082108103620003c457620003c362000369565b5b50919050565b5f819050815f5260205f209050919050565b5f6020601f8301049050919050565b5f82821b905092915050565b5f60088302620004287fffffffffffffffffffffffffffffffffffffffffffffffffffffffffffffffff82620003eb565b620004348683620003eb565b95508019841693508086168417925050509392505050565b5f819050919050565b5f819050919050565b5f6200047e6200047862000472846200044c565b62000455565b6200044c565b9050919050565b5f819050919050565b62000499836200045e565b620004b1620004a88262000485565b848454620003f7565b825550505050565b5f90565b620004c7620004b9565b620004d48184846200048e565b505050565b5b81811015620004fb57620004ef5f82620004bd565b600181019050620004da565b5050565b601f8211156200054a576200051481620003ca565b6200051f84620003dc565b810160208510156200052f578190505b620005476200053e85620003dc565b830182620004d9565b50505b505050565b5f82821c905092915050565b5f6200056c5f19846008026200054f565b1980831691505092915050565b5f6200058683836200055b565b9150826002028217905092915050565b620005a1826200035f565b67ffffffffffffffff811115620005bd57620005bc6200019f565b5b620005c9825462000396565b620005d6828285620004ff565b5f60209050601f8311600181146200060c575f8415620005f7578287015190505b62000603858262000579565b86555062000672565b601f1984166200061c86620003ca565b5f5b8281101562000645578489015182556001820191506020850194506020810190506200061e565b8683101562000665578489015162000661601f8916826200055b565b8355505b6001600288020188555050505b505050505050565b608051612f1c6200069a5f395f8181610786015261080c0152612f1c5ff3fe608060405234801561000f575f80fd5b50600436106100e8575f3560e01c806370a082311161008a578063a22cb46511610064578063a22cb4651461026c578063b88d4fde14610288578063c87b56dd146102a4578063e985e9c5146102d4576100e8565b806370a08231146101ee57806370dc48fa1461021e57806395d89b411461024e576100e8565b8063095ea7b3116100c6578063095ea7b31461016a57806323b872dd1461018657806342842e0e146101a25780636352211e146101be576100e8565b806301ffc9a7146100ec57806306fdde031461011c578063081812fc1461013a575b5f80fd5b61010660048036038101906101019190611dc6565b610304565b6040516101139190611e0b565b60405180910390f35b6101246103e5565b6040516101319190611eae565b60405180910390f35b610154600480360381019061014f9190611f01565b610474565b6040516101619190611f6b565b60405180910390f35b610184600480360381019061017f9190611fae565b6104b6565b005b6101a0600480360381019061019b9190611fec565b6105cc565b005b6101bc60048036038101906101b79190611fec565b61062c565b005b6101d860048036038101906101d39190611f01565b61064b565b6040516101e59190611f6b565b60405180910390f35b6102086004803603810190610203919061203c565b6106cf565b6040516102159190612076565b60405180910390f35b6102386004803603810190610233919061208f565b610783565b6040516102459190612076565b60405180910390f35b6102566109da565b6040516102639190611eae565b60405180910390f35b6102866004803603810190610281919061211d565b610a6a565b005b6102a2600480360381019061029d9190612287565b610a80565b005b6102be60048036038101906102b99190611f01565b610ae2565b6040516102cb9190611eae565b60405180910390f35b6102ee60048036038101906102e99190612307565b610af4565b6040516102fb9190611e0b565b60405180910390f35b5f7f80ac58cd000000000000000000000000000000000000000000000000000000007bffffffffffffffffffffffffffffffffffffffffffffffffffffffff1916827bffffffffffffffffffffffffffffffffffffffffffffffffffffffff191614806103ce57507f5b5e139f000000000000000000000000000000000000000000000000000000007bffffffffffffffffffffffffffffffffffffffffffffffffffffffff1916827bffffffffffffffffffffffffffffffffffffffffffffffffffffffff1916145b806103de57506103dd82610b82565b5b9050919050565b60605f80546103f390612372565b80601f016020809104026020016040519081016040528092919081815260200182805461041f90612372565b801561046a5780601f106104415761010080835404028352916020019161046a565b820191905f5260205f20905b81548152906001019060200180831161044d57829003601f168201915b5050505050905090565b5f61047e82610beb565b60045f8381526020019081526020015f205f9054906101000a900473ffffffffffffffffffffffffffffffffffffffff169050919050565b5f6104c08261064b565b90508073ffffffffffffffffffffffffffffffffffffffff168373ffffffffffffffffffffffffffffffffffffffff1603610530576040517f08c379a000000000000000000000000000000000000000000000000000000000815260040161052790612412565b60405180910390fd5b8073ffffffffffffffffffffffffffffffffffffffff1661054f610c36565b73ffffffffffffffffffffffffffffffffffffffff16148061057e575061057d81610578610c36565b610af4565b5b6105bd576040517f08c379a00000000000000000000000000000000000000000000000000000000081526004016105b4906124a0565b60405180910390fd5b6105c78383610c3d565b505050565b6105dd6105d7610c36565b82610cf3565b61061c576040517f08c379a00000000000000000000000000000000000000000000000000000000081526004016106139061252e565b60405180910390fd5b610627838383610d87565b505050565b61064683838360405180602001604052805f815250610a80565b505050565b5f8061065683611073565b90505f73ffffffffffffffffffffffffffffffffffffffff168173ffffffffffffffffffffffffffffffffffffffff16036106c6576040517f08c379a00000000000000000000000000000000000000000000000000000000081526004016106bd90612596565b60405180910390fd5b80915050919050565b5f8073ffffffffffffffffffffffffffffffffffffffff168273ffffffffffffffffffffffffffffffffffffffff160361073e576040517f08c379a000000000000000000000000000000000000000000000000000000000815260040161073590612624565b60405180910390fd5b60035f8373ffffffffffffffffffffffffffffffffffffffff1673ffffffffffffffffffffffffffffffffffffffff1681526020019081526020015f20549050919050565b5f7f000000000000000000000000000000000000000000000000000000000000000073ffffffffffffffffffffffffffffffffffffffff163373ffffffffffffffffffffffffffffffffffffffff1614610809576040517f9de9741800000000000000000000000000000000000000000000000000000000815260040160405180910390fd5b5f7f000000000000000000000000000000000000000000000000000000000000000073ffffffffffffffffffffffffffffffffffffffff16633fdbc3c78787876040518463ffffffff1660e01b815260040161086793929190612642565b602060405180830381865afa158015610882573d5f803e3d5ffd5b505050506040513d601f19601f820116820180604052508101906108a6919061268b565b6108dc576040517f7d2c7eb600000000000000000000000000000000000000000000000000000000815260040160405180910390fd5b5f6108e6846106cf565b1461091d576040517f5b35b54400000000000000000000000000000000000000000000000000000000815260040160405180910390fd5b610926836110ac565b905083868473ffffffffffffffffffffffffffffffffffffffff167fa23030c663fb4fca8a0acf2fddb32d26ac3720f0b65181bfda99229ee489997588426040516109729291906126b6565b60405180910390a480868473ffffffffffffffffffffffffffffffffffffffff167f184f407992795b6445a6dab6db328918c3c4a4aaea5926c7675e617ece8842968730426040516109c6939291906126dd565b60405180910390a480915050949350505050565b6060600180546109e990612372565b80601f0160208091040260200160405190810160405280929190818152602001828054610a1590612372565b8015610a605780601f10610a3757610100808354040283529160200191610a60565b820191905f5260205f20905b815481529060010190602001808311610a4357829003601f168201915b5050505050905090565b610a7c610a75610c36565b8383611169565b5050565b610a91610a8b610c36565b83610cf3565b610ad0576040517f08c379a0000000000000000000000000000000000000000000000000000000008152600401610ac79061252e565b60405180910390fd5b610adc848484846112d0565b50505050565b6060610aed8261132c565b9050919050565b5f60055f8473ffffffffffffffffffffffffffffffffffffffff1673ffffffffffffffffffffffffffffffffffffffff1681526020019081526020015f205f8373ffffffffffffffffffffffffffffffffffffffff1673ffffffffffffffffffffffffffffffffffffffff1681526020019081526020015f205f9054906101000a900460ff16905092915050565b5f7f01ffc9a7000000000000000000000000000000000000000000000000000000007bffffffffffffffffffffffffffffffffffffffffffffffffffffffff1916827bffffffffffffffffffffffffffffffffffffffffffffffffffffffff1916149050919050565b610bf481611436565b610c33576040517f08c379a0000000000000000000000000000000000000000000000000000000008152600401610c2a90612596565b60405180910390fd5b50565b5f33905090565b8160045f8381526020019081526020015f205f6101000a81548173ffffffffffffffffffffffffffffffffffffffff021916908373ffffffffffffffffffffffffffffffffffffffff160217905550808273ffffffffffffffffffffffffffffffffffffffff16610cad8361064b565b73ffffffffffffffffffffffffffffffffffffffff167f8c5be1e5ebec7d5bd14f71427d1e84f3dd0314c0f7b2291e5b200ac8c7c3b92560405160405180910390a45050565b5f80610cfe8361064b565b90508073ffffffffffffffffffffffffffffffffffffffff168473ffffffffffffffffffffffffffffffffffffffff161480610d405750610d3f8185610af4565b5b80610d7e57508373ffffffffffffffffffffffffffffffffffffffff16610d6684610474565b73ffffffffffffffffffffffffffffffffffffffff16145b91505092915050565b8273ffffffffffffffffffffffffffffffffffffffff16610da78261064b565b73ffffffffffffffffffffffffffffffffffffffff1614610dfd576040517f08c379a0000000000000000000000000000000000000000000000000000000008152600401610df490612782565b60405180910390fd5b5f73ffffffffffffffffffffffffffffffffffffffff168273ffffffffffffffffffffffffffffffffffffffff1603610e6b576040517f08c379a0000000000000000000000000000000000000000000000000000000008152600401610e6290612810565b60405180910390fd5b610e788383836001611476565b8273ffffffffffffffffffffffffffffffffffffffff16610e988261064b565b73ffffffffffffffffffffffffffffffffffffffff1614610eee576040517f08c379a0000000000000000000000000000000000000000000000000000000008152600401610ee590612782565b60405180910390fd5b60045f8281526020019081526020015f205f6101000a81549073ffffffffffffffffffffffffffffffffffffffff0219169055600160035f8573ffffffffffffffffffffffffffffffffffffffff1673ffffffffffffffffffffffffffffffffffffffff1681526020019081526020015f205f8282540392505081905550600160035f8473ffffffffffffffffffffffffffffffffffffffff1673ffffffffffffffffffffffffffffffffffffffff1681526020019081526020015f205f82825401925050819055508160025f8381526020019081526020015f205f6101000a81548173ffffffffffffffffffffffffffffffffffffffff021916908373ffffffffffffffffffffffffffffffffffffffff160217905550808273ffffffffffffffffffffffffffffffffffffffff168473ffffffffffffffffffffffffffffffffffffffff167fddf252ad1be2c89b69c2b068fc378daa952ba7f163c4a11628f55a4df523b3ef60405160405180910390a461106e83838360016114ed565b505050565b5f60025f8381526020019081526020015f205f9054906101000a900473ffffffffffffffffffffffffffffffffffffffff169050919050565b5f806110b860076114f3565b90506110c460076114ff565b6110ce8382611513565b61116081600880546110df90612372565b80601f016020809104026020016040519081016040528092919081815260200182805461110b90612372565b80156111565780601f1061112d57610100808354040283529160200191611156565b820191905f5260205f20905b81548152906001019060200180831161113957829003601f168201915b5050505050611530565b80915050919050565b8173ffffffffffffffffffffffffffffffffffffffff168373ffffffffffffffffffffffffffffffffffffffff16036111d7576040517f08c379a00000000000000000000000000000000000000000000000000000000081526004016111ce90612878565b60405180910390fd5b8060055f8573ffffffffffffffffffffffffffffffffffffffff1673ffffffffffffffffffffffffffffffffffffffff1681526020019081526020015f205f8473ffffffffffffffffffffffffffffffffffffffff1673ffffffffffffffffffffffffffffffffffffffff1681526020019081526020015f205f6101000a81548160ff0219169083151502179055508173ffffffffffffffffffffffffffffffffffffffff168373ffffffffffffffffffffffffffffffffffffffff167f17307eab39ab6107e8899845ad3d59bd9653f200f220920489ca2b5937696c31836040516112c39190611e0b565b60405180910390a3505050565b6112db848484610d87565b6112e78484848461159b565b611326576040517f08c379a000000000000000000000000000000000000000000000000000000000815260040161131d90612906565b60405180910390fd5b50505050565b606061133782610beb565b5f60065f8481526020019081526020015f20805461135490612372565b80601f016020809104026020016040519081016040528092919081815260200182805461138090612372565b80156113cb5780601f106113a2576101008083540402835291602001916113cb565b820191905f5260205f20905b8154815290600101906020018083116113ae57829003601f168201915b505050505090505f6113db61171d565b90505f8151036113ef578192505050611431565b5f8251111561142357808260405160200161140b92919061295e565b60405160208183030381529060405292505050611431565b61142c84611733565b925050505b919050565b5f8073ffffffffffffffffffffffffffffffffffffffff1661145783611073565b73ffffffffffffffffffffffffffffffffffffffff1614159050919050565b5f73ffffffffffffffffffffffffffffffffffffffff168473ffffffffffffffffffffffffffffffffffffffff16146114db576040517fa6e99f8500000000000000000000000000000000000000000000000000000000815260040160405180910390fd5b6114e784848484611798565b50505050565b50505050565b5f815f01549050919050565b6001815f015f828254019250508190555050565b61152c828260405180602001604052805f8152506118b6565b5050565b61153982611436565b611578576040517f08c379a000000000000000000000000000000000000000000000000000000000815260040161156f906129f1565b60405180910390fd5b8060065f8481526020019081526020015f2090816115969190612bac565b505050565b5f6115bb8473ffffffffffffffffffffffffffffffffffffffff16611910565b15611710578373ffffffffffffffffffffffffffffffffffffffff1663150b7a026115e4610c36565b8786866040518563ffffffff1660e01b81526004016116069493929190612ccd565b6020604051808303815f875af192505050801561164157506040513d601f19601f8201168201806040525081019061163e9190612d2b565b60015b6116c0573d805f811461166f576040519150601f19603f3d011682016040523d82523d5f602084013e611674565b606091505b505f8151036116b8576040517f08c379a00000000000000000000000000000000000000000000000000000000081526004016116af90612906565b60405180910390fd5b805181602001fd5b63150b7a0260e01b7bffffffffffffffffffffffffffffffffffffffffffffffffffffffff1916817bffffffffffffffffffffffffffffffffffffffffffffffffffffffff191614915050611715565b600190505b949350505050565b606060405180602001604052805f815250905090565b606061173e82610beb565b5f61174761171d565b90505f8151116117655760405180602001604052805f815250611790565b8061176f84611932565b60405160200161178092919061295e565b6040516020818303038152906040525b915050919050565b60018111156118b0575f73ffffffffffffffffffffffffffffffffffffffff168473ffffffffffffffffffffffffffffffffffffffff1614611828578060035f8673ffffffffffffffffffffffffffffffffffffffff1673ffffffffffffffffffffffffffffffffffffffff1681526020019081526020015f205f8282546118209190612d83565b925050819055505b5f73ffffffffffffffffffffffffffffffffffffffff168373ffffffffffffffffffffffffffffffffffffffff16146118af578060035f8573ffffffffffffffffffffffffffffffffffffffff1673ffffffffffffffffffffffffffffffffffffffff1681526020019081526020015f205f8282546118a79190612db6565b925050819055505b5b50505050565b6118c083836119fc565b6118cc5f84848461159b565b61190b576040517f08c379a000000000000000000000000000000000000000000000000000000000815260040161190290612906565b60405180910390fd5b505050565b5f808273ffffffffffffffffffffffffffffffffffffffff163b119050919050565b60605f600161194084611c0f565b0190505f8167ffffffffffffffff81111561195e5761195d612163565b5b6040519080825280601f01601f1916602001820160405280156119905781602001600182028036833780820191505090505b5090505f82602001820190505b6001156119f1578080600190039150507f3031323334353637383961626364656600000000000000000000000000000000600a86061a8153600a85816119e6576119e5612de9565b5b0494505f850361199d575b819350505050919050565b5f73ffffffffffffffffffffffffffffffffffffffff168273ffffffffffffffffffffffffffffffffffffffff1603611a6a576040517f08c379a0000000000000000000000000000000000000000000000000000000008152600401611a6190612e60565b60405180910390fd5b611a7381611436565b15611ab3576040517f08c379a0000000000000000000000000000000000000000000000000000000008152600401611aaa90612ec8565b60405180910390fd5b611ac05f83836001611476565b611ac981611436565b15611b09576040517f08c379a0000000000000000000000000000000000000000000000000000000008152600401611b0090612ec8565b60405180910390fd5b600160035f8473ffffffffffffffffffffffffffffffffffffffff1673ffffffffffffffffffffffffffffffffffffffff1681526020019081526020015f205f82825401925050819055508160025f8381526020019081526020015f205f6101000a81548173ffffffffffffffffffffffffffffffffffffffff021916908373ffffffffffffffffffffffffffffffffffffffff160217905550808273ffffffffffffffffffffffffffffffffffffffff165f73ffffffffffffffffffffffffffffffffffffffff167fddf252ad1be2c89b69c2b068fc378daa952ba7f163c4a11628f55a4df523b3ef60405160405180910390a4611c0b5f838360016114ed565b5050565b5f805f90507a184f03e93ff9f4daa797ed6e38ed64bf6a1f0100000000000000008310611c6b577a184f03e93ff9f4daa797ed6e38ed64bf6a1f0100000000000000008381611c6157611c60612de9565b5b0492506040810190505b6d04ee2d6d415b85acef81000000008310611ca8576d04ee2d6d415b85acef81000000008381611c9e57611c9d612de9565b5b0492506020810190505b662386f26fc100008310611cd757662386f26fc100008381611ccd57611ccc612de9565b5b0492506010810190505b6305f5e1008310611d00576305f5e1008381611cf657611cf5612de9565b5b0492506008810190505b6127108310611d25576127108381611d1b57611d1a612de9565b5b0492506004810190505b60648310611d485760648381611d3e57611d3d612de9565b5b0492506002810190505b600a8310611d57576001810190505b80915050919050565b5f604051905090565b5f80fd5b5f80fd5b5f7fffffffff0000000000000000000000000000000000000000000000000000000082169050919050565b611da581611d71565b8114611daf575f80fd5b50565b5f81359050611dc081611d9c565b92915050565b5f60208284031215611ddb57611dda611d69565b5b5f611de884828501611db2565b91505092915050565b5f8115159050919050565b611e0581611df1565b82525050565b5f602082019050611e1e5f830184611dfc565b92915050565b5f81519050919050565b5f82825260208201905092915050565b5f5b83811015611e5b578082015181840152602081019050611e40565b5f8484015250505050565b5f601f19601f8301169050919050565b5f611e8082611e24565b611e8a8185611e2e565b9350611e9a818560208601611e3e565b611ea381611e66565b840191505092915050565b5f6020820190508181035f830152611ec68184611e76565b905092915050565b5f819050919050565b611ee081611ece565b8114611eea575f80fd5b50565b5f81359050611efb81611ed7565b92915050565b5f60208284031215611f1657611f15611d69565b5b5f611f2384828501611eed565b91505092915050565b5f73ffffffffffffffffffffffffffffffffffffffff82169050919050565b5f611f5582611f2c565b9050919050565b611f6581611f4b565b82525050565b5f602082019050611f7e5f830184611f5c565b92915050565b611f8d81611f4b565b8114611f97575f80fd5b50565b5f81359050611fa881611f84565b92915050565b5f8060408385031215611fc457611fc3611d69565b5b5f611fd185828601611f9a565b9250506020611fe285828601611eed565b9150509250929050565b5f805f6060848603121561200357612002611d69565b5b5f61201086828701611f9a565b935050602061202186828701611f9a565b925050604061203286828701611eed565b9150509250925092565b5f6020828403121561205157612050611d69565b5b5f61205e84828501611f9a565b91505092915050565b61207081611ece565b82525050565b5f6020820190506120895f830184612067565b92915050565b5f805f80608085870312156120a7576120a6611d69565b5b5f6120b487828801611eed565b94505060206120c587828801611eed565b93505060406120d687828801611eed565b92505060606120e787828801611f9a565b91505092959194509250565b6120fc81611df1565b8114612106575f80fd5b50565b5f81359050612117816120f3565b92915050565b5f806040838503121561213357612132611d69565b5b5f61214085828601611f9a565b925050602061215185828601612109565b9150509250929050565b5f80fd5b5f80fd5b7f4e487b71000000000000000000000000000000000000000000000000000000005f52604160045260245ffd5b61219982611e66565b810181811067ffffffffffffffff821117156121b8576121b7612163565b5b80604052505050565b5f6121ca611d60565b90506121d68282612190565b919050565b5f67ffffffffffffffff8211156121f5576121f4612163565b5b6121fe82611e66565b9050602081019050919050565b828183375f83830152505050565b5f61222b612226846121db565b6121c1565b9050828152602081018484840111156122475761224661215f565b5b61225284828561220b565b509392505050565b5f82601f83011261226e5761226d61215b565b5b813561227e848260208601612219565b91505092915050565b5f805f806080858703121561229f5761229e611d69565b5b5f6122ac87828801611f9a565b94505060206122bd87828801611f9a565b93505060406122ce87828801611eed565b925050606085013567ffffffffffffffff8111156122ef576122ee611d6d565b5b6122fb8782880161225a565b91505092959194509250565b5f806040838503121561231d5761231c611d69565b5b5f61232a85828601611f9a565b925050602061233b85828601611f9a565b9150509250929050565b7f4e487b71000000000000000000000000000000000000000000000000000000005f52602260045260245ffd5b5f600282049050600182168061238957607f821691505b60208210810361239c5761239b612345565b5b50919050565b7f4552433732313a20617070726f76616c20746f2063757272656e74206f776e655f8201527f7200000000000000000000000000000000000000000000000000000000000000602082015250565b5f6123fc602183611e2e565b9150612407826123a2565b604082019050919050565b5f6020820190508181035f830152612429816123f0565b9050919050565b7f4552433732313a20617070726f76652063616c6c6572206973206e6f7420746f5f8201527f6b656e206f776e6572206f7220617070726f76656420666f7220616c6c000000602082015250565b5f61248a603d83611e2e565b915061249582612430565b604082019050919050565b5f6020820190508181035f8301526124b78161247e565b9050919050565b7f4552433732313a2063616c6c6572206973206e6f7420746f6b656e206f776e655f8201527f72206f7220617070726f76656400000000000000000000000000000000000000602082015250565b5f612518602d83611e2e565b9150612523826124be565b604082019050919050565b5f6020820190508181035f8301526125458161250c565b9050919050565b7f4552433732313a20696e76616c696420746f6b656e20494400000000000000005f82015250565b5f612580601883611e2e565b915061258b8261254c565b602082019050919050565b5f6020820190508181035f8301526125ad81612574565b9050919050565b7f4552433732313a2061646472657373207a65726f206973206e6f7420612076615f8201527f6c6964206f776e65720000000000000000000000000000000000000000000000602082015250565b5f61260e602983611e2e565b9150612619826125b4565b604082019050919050565b5f6020820190508181035f83015261263b81612602565b9050919050565b5f6060820190506126555f830186612067565b6126626020830185612067565b61266f6040830184612067565b949350505050565b5f81519050612685816120f3565b92915050565b5f602082840312156126a05761269f611d69565b5b5f6126ad84828501612677565b91505092915050565b5f6040820190506126c95f830185612067565b6126d66020830184612067565b9392505050565b5f6060820190506126f05f830186612067565b6126fd6020830185611f5c565b61270a6040830184612067565b949350505050565b7f4552433732313a207472616e736665722066726f6d20696e636f7272656374205f8201527f6f776e6572000000000000000000000000000000000000000000000000000000602082015250565b5f61276c602583611e2e565b915061277782612712565b604082019050919050565b5f6020820190508181035f83015261279981612760565b9050919050565b7f4552433732313a207472616e7366657220746f20746865207a65726f206164645f8201527f7265737300000000000000000000000000000000000000000000000000000000602082015250565b5f6127fa602483611e2e565b9150612805826127a0565b604082019050919050565b5f6020820190508181035f830152612827816127ee565b9050919050565b7f4552433732313a20617070726f766520746f2063616c6c6572000000000000005f82015250565b5f612862601983611e2e565b915061286d8261282e565b602082019050919050565b5f6020820190508181035f83015261288f81612856565b9050919050565b7f4552433732313a207472616e7366657220746f206e6f6e2045524337323152655f8201527f63656976657220696d706c656d656e7465720000000000000000000000000000602082015250565b5f6128f0603283611e2e565b91506128fb82612896565b604082019050919050565b5f6020820190508181035f83015261291d816128e4565b9050919050565b5f81905092915050565b5f61293882611e24565b6129428185612924565b9350612952818560208601611e3e565b80840191505092915050565b5f612969828561292e565b9150612975828461292e565b91508190509392505050565b7f45524337323155524953746f726167653a2055524920736574206f66206e6f6e5f8201527f6578697374656e7420746f6b656e000000000000000000000000000000000000602082015250565b5f6129db602e83611e2e565b91506129e682612981565b604082019050919050565b5f6020820190508181035f830152612a08816129cf565b9050919050565b5f819050815f5260205f209050919050565b5f6020601f8301049050919050565b5f82821b905092915050565b5f60088302612a6b7fffffffffffffffffffffffffffffffffffffffffffffffffffffffffffffffff82612a30565b612a758683612a30565b95508019841693508086168417925050509392505050565b5f819050919050565b5f612ab0612aab612aa684611ece565b612a8d565b611ece565b9050919050565b5f819050919050565b612ac983612a96565b612add612ad582612ab7565b848454612a3c565b825550505050565b5f90565b612af1612ae5565b612afc818484612ac0565b505050565b5b81811015612b1f57612b145f82612ae9565b600181019050612b02565b5050565b601f821115612b6457612b3581612a0f565b612b3e84612a21565b81016020851015612b4d578190505b612b61612b5985612a21565b830182612b01565b50505b505050565b5f82821c905092915050565b5f612b845f1984600802612b69565b1980831691505092915050565b5f612b9c8383612b75565b9150826002028217905092915050565b612bb582611e24565b67ffffffffffffffff811115612bce57612bcd612163565b5b612bd88254612372565b612be3828285612b23565b5f60209050601f831160018114612c14575f8415612c02578287015190505b612c0c8582612b91565b865550612c73565b601f198416612c2286612a0f565b5f5b82811015612c4957848901518255600182019150602085019450602081019050612c24565b86831015612c665784890151612c62601f891682612b75565b8355505b6001600288020188555050505b505050505050565b5f81519050919050565b5f82825260208201905092915050565b5f612c9f82612c7b565b612ca98185612c85565b9350612cb9818560208601611e3e565b612cc281611e66565b840191505092915050565b5f608082019050612ce05f830187611f5c565b612ced6020830186611f5c565b612cfa6040830185612067565b8181036060830152612d0c8184612c95565b905095945050505050565b5f81519050612d2581611d9c565b92915050565b5f60208284031215612d4057612d3f611d69565b5b5f612d4d84828501612d17565b91505092915050565b7f4e487b71000000000000000000000000000000000000000000000000000000005f52601160045260245ffd5b5f612d8d82611ece565b9150612d9883611ece565b9250828203905081811115612db057612daf612d56565b5b92915050565b5f612dc082611ece565b9150612dcb83611ece565b9250828201905080821115612de357612de2612d56565b5b92915050565b7f4e487b71000000000000000000000000000000000000000000000000000000005f52601260045260245ffd5b7f4552433732313a206d696e7420746f20746865207a65726f20616464726573735f82015250565b5f612e4a602083611e2e565b9150612e5582612e16565b602082019050919050565b5f6020820190508181035f830152612e7781612e3e565b9050919050565b7f4552433732313a20746f6b656e20616c7265616479206d696e746564000000005f82015250565b5f612eb2601c83611e2e565b9150612ebd82612e7e565b602082019050919050565b5f6020820190508181035f830152612edf81612ea6565b905091905056fea264697066735822122044cc23319cff6250d4fc292c0ff1961f8a1530b19bccac9711a6ea460329944064736f6c63430008140033",
  "immutableReferences": {
    "20328": [
      {
        "length": 32,
        "start": 1926
      },
      {
        "length": 32,
        "start": 2060
      }
    ]
  },
  "source": "// SPDX-License-Identifier: MIT\r\npragma solidity ^0.8.19;\r\n\r\nimport {ModuleTypes} from '../libraries/constants/ModuleTypes.sol';\r\nimport {ModuleErrors} from '../libraries/constants/ModuleErrors.sol';\r\nimport {ModuleEvents} from '../libraries/constants/ModuleEvents.sol';\r\nimport {IEduxHub} from '../../interfaces/IEduxHub.sol';\r\nimport {INFTCertificate} from '../../interfaces/INFTCertificate.sol';\r\nimport {ERC721} from '@openzeppelin/contracts/token/ERC721/ERC721.sol';\r\nimport {ERC721URIStorage} from '@openzeppelin/contracts/token/ERC721/extensions/ERC721URIStorage.sol';\r\nimport {Ownable} from '@openzeppelin/contracts/access/Ownable.sol';\r\nimport {Counters} from '@openzeppelin/contracts/utils/Counters.sol';\r\n\r\n/**\r\n * @title BaseNFTCertificateModule\r\n * @dev BaseNFTCertificate Module give you basic idea for creating NFT Certificate Contract.\r\n */\r\ncontract BaseNFTCertificateModule is ERC721, ERC721URIStorage, INFTCertificate\r\n{\r\n    using Counters for Counters.Counter;\r\n    address immutable HUB;\r\n    Counters.Counter private _tokenIdCounter;\r\n    string private _tokenURI;\r\n\r\n    modifier onlyHub() {\r\n        if (msg.sender != HUB) {\r\n            revert ModuleErrors.NotHub();\r\n        }\r\n        _;\r\n    }\r\n\r\n    /**\r\n     * @dev Initializes the BaseNFTCertificateModule contract.\r\n     * @param hub Address of the EduxHub contract.\r\n     * @param tokenuri URI of the NFT Token.\r\n     */\r\n    constructor(\r\n        address hub,\r\n        string memory tokenuri\r\n    )\r\n        ERC721('Edux Certificate', \"EDUXT\")\r\n    {\r\n        HUB = hub;\r\n        _tokenURI = tokenuri;\r\n        \r\n    }\r\n\r\n        /**\r\n     * @notice claimCertificate for completed course with the specified parameters.\r\n     * You can claim Certificate for completed course publication.\r\n     *\r\n     * @param profileId The token ID of the profile.\r\n     *\r\n     * @param pointedProfileId The token ID of the publication's profile.\r\n     *\r\n     * @param pointedPublication The course publication id.\r\n     *\r\n     * @return uint256 TokenId for received NFT certificate\r\n     */\r\n    function claimCertificate(uint256 profileId, uint256 pointedProfileId, uint256 pointedPublication, address transactionExecutor) \r\n    external  \r\n    override \r\n    onlyHub\r\n    returns (uint256) {\r\n        uint256 tokenId;\r\n        if(!IEduxHub(HUB).isCourseCompleted(profileId, pointedProfileId, pointedPublication))\r\n        {\r\n            revert ModuleErrors.CourseIsNotCompletedByProfile();    \r\n        } \r\n        if(balanceOf(transactionExecutor) != 0){\r\n            revert ModuleErrors.CertificateIsAlreadyClaimedByProfile();\r\n        }\r\n        \r\n        tokenId = safeMint(transactionExecutor);\r\n\r\n        emit ModuleEvents.CourseCompletedByProfile(\r\n                transactionExecutor,\r\n                profileId,\r\n                pointedPublication,\r\n                pointedProfileId,\r\n                block.timestamp\r\n            );\r\n        \r\n        emit ModuleEvents.CertificateIssuedToProfile(\r\n                transactionExecutor,\r\n                profileId,\r\n                tokenId,\r\n                pointedPublication,\r\n                address(this),\r\n                block.timestamp\r\n            );\r\n\r\n            return tokenId;\r\n\r\n    }\r\n\r\n\r\n    function safeMint(address to) internal returns(uint256){\r\n        uint256 tokenId = _tokenIdCounter.current();\r\n        _tokenIdCounter.increment();\r\n        _safeMint(to, tokenId);\r\n        _setTokenURI(tokenId, _tokenURI);\r\n\r\n        return tokenId;\r\n    }\r\n\r\n    function _beforeTokenTransfer(\r\n    address from, \r\n    address to, \r\n    uint256 tokenId,\r\n    uint256 batchSize\r\n    ) internal override virtual { \r\n\r\n    if( from != address(0) ) {\r\n        revert ModuleErrors.TokenTransferIsBlock();\r\n    }\r\n    super._beforeTokenTransfer(from, to, tokenId, batchSize);  \r\n    }\r\n\r\n    // The following functions are overrides required by Solidity.\r\n\r\n    function _burn(uint256 tokenId) internal override(ERC721, ERC721URIStorage) {\r\n        super._burn(tokenId);\r\n    }\r\n\r\n    function tokenURI(uint256 tokenId)\r\n        public\r\n        view\r\n        override(ERC721, ERC721URIStorage)\r\n        returns (string memory)\r\n    {\r\n        return super.tokenURI(tokenId);\r\n    }\r\n}",
  "sourcePath": "E:\\Blockchain\\EDUIndex\\EduxContract\\contracts\\modules\\certificate\\BaseNFTCertificateModule.sol",
  "compiler": {
    "name": "solc",
    "version": "0.8.20+commit.a1b79de6.Emscripten.clang"
  },
  "schemaVersion": "3.4.3",
  "updatedAt": "2024-08-25T13:13:22.251Z",
  "devdoc": {
    "details": "BaseNFTCertificate Module give you basic idea for creating NFT Certificate Contract.",
    "events": {
      "Approval(address,address,uint256)": {
        "details": "Emitted when `owner` enables `approved` to manage the `tokenId` token."
      },
      "ApprovalForAll(address,address,bool)": {
        "details": "Emitted when `owner` enables or disables (`approved`) `operator` to manage all of its assets."
      },
      "Transfer(address,address,uint256)": {
        "details": "Emitted when `tokenId` token is transferred from `from` to `to`."
      }
    },
    "kind": "dev",
    "methods": {
      "approve(address,uint256)": {
        "details": "See {IERC721-approve}."
      },
      "balanceOf(address)": {
        "details": "See {IERC721-balanceOf}."
      },
      "claimCertificate(uint256,uint256,uint256,address)": {
        "params": {
          "pointedProfileId": "The token ID of the publication's profile.",
          "pointedPublication": "The course publication id.",
          "profileId": "The token ID of the profile."
        },
        "returns": {
          "_0": "uint256 TokenId for received NFT certificate"
        }
      },
      "constructor": {
        "details": "Initializes the BaseNFTCertificateModule contract.",
        "params": {
          "hub": "Address of the EduxHub contract.",
          "tokenuri": "URI of the NFT Token."
        }
      },
      "getApproved(uint256)": {
        "details": "See {IERC721-getApproved}."
      },
      "isApprovedForAll(address,address)": {
        "details": "See {IERC721-isApprovedForAll}."
      },
      "name()": {
        "details": "See {IERC721Metadata-name}."
      },
      "ownerOf(uint256)": {
        "details": "See {IERC721-ownerOf}."
      },
      "safeTransferFrom(address,address,uint256)": {
        "details": "See {IERC721-safeTransferFrom}."
      },
      "safeTransferFrom(address,address,uint256,bytes)": {
        "details": "See {IERC721-safeTransferFrom}."
      },
      "setApprovalForAll(address,bool)": {
        "details": "See {IERC721-setApprovalForAll}."
      },
      "supportsInterface(bytes4)": {
        "details": "See {IERC165-supportsInterface}."
      },
      "symbol()": {
        "details": "See {IERC721Metadata-symbol}."
      },
      "transferFrom(address,address,uint256)": {
        "details": "See {IERC721-transferFrom}."
      }
    },
    "title": "BaseNFTCertificateModule",
    "version": 1
  },
  "userdoc": {
    "kind": "user",
    "methods": {
      "claimCertificate(uint256,uint256,uint256,address)": {
        "notice": "claimCertificate for completed course with the specified parameters. You can claim Certificate for completed course publication."
      }
    },
    "version": 1
  }
}