{
  "contractName": "BodyHoodie",
  "abi": [
    {
      "inputs": [
        {
          "internalType": "enum Hands.HandsVariants",
          "name": "handsVariant",
          "type": "Hands.HandsVariants"
        }
      ],
      "name": "getBody",
      "outputs": [
        {
          "internalType": "string",
          "name": "",
          "type": "string"
        }
      ],
      "stateMutability": "pure",
      "type": "function"
    }
  ],
  "bytecode": "0x61211161004e600b8282823980515f1a607314610042577f4e487b71000000000000000000000000000000000000000000000000000000005f525f60045260245ffd5b305f52607381538281f3fe7300000000000000000000000000000000000000003014608060405260043610610034575f3560e01c80638b80ee8d14610038575b5f80fd5b610052600480360381019061004d9190610185565b610068565b60405161005f919061023a565b60405180910390f35b60605f600281111561007d5761007c61025a565b5b8260028111156100905761008f61025a565b5b036100b85760405180610b400160405280610b1081526020016115cc610b1091399050610159565b600160028111156100cc576100cb61025a565b5b8260028111156100df576100de61025a565b5b0361010757604051806108e001604052806108a48152602001610d286108a491399050610159565b60028081111561011a5761011961025a565b5b82600281111561012d5761012c61025a565b5b036101555760405180610ac00160405280610aa08152602001610288610aa091399050610159565b5f80fd5b919050565b5f80fd5b6003811061016e575f80fd5b50565b5f8135905061017f81610162565b92915050565b5f6020828403121561019a5761019961015e565b5b5f6101a784828501610171565b91505092915050565b5f81519050919050565b5f82825260208201905092915050565b5f5b838110156101e75780820151818401526020810190506101cc565b5f8484015250505050565b5f601f19601f8301169050919050565b5f61020c826101b0565b61021681856101ba565b93506102268185602086016101ca565b61022f816101f2565b840191505092915050565b5f6020820190508181035f8301526102528184610202565b905092915050565b7f4e487b71000000000000000000000000000000000000000000000000000000005f52602160045260245ffdfe3c7061746820636c6173733d2268616e6473436f6c6f722220643d226d35352e39203230392e322031332e3920362e372d342e352031372e3820322031322d3320352e382d382e3420312e344834342e346c2d392e342d372e3220312e352d31332e342031302e342d362e3820392d31362e335a222f3e3c7061746820636c6173733d22625374723122207374726f6b652d77696474683d22342220643d224d35352e39203230392e34632d322e3620342e332d352e3120382e362d372e372031332e356131362e322031362e322030203020312d3620352e382031352031352030203020302d372031302e312031332e362031332e3620302030203020372e342031342e3163342e32203220392e3520312e342031332e332d312e32222f3e3c7061746820636c6173733d22625374723122207374726f6b652d77696474683d22322220643d224d35372e38203234372e366131312e322031312e322030203020312d3520342e38222f3e3c7061746820636c6173733d22625374723122207374726f6b652d77696474683d22342220643d224d3536203235312e376138203820302030203020372e39203020372e3120372e3120302030203020332e372d362e35222f3e3c7061746820636c6173733d22626f6479436f6c6f72312220643d226d36382e38203138372e362032302e352d352e366832392e356c32302e3520352e3620313020382e322035203720352e352031312e38203520342d312e3320332e382d372036682d31312e386c2e372031332d3520352e372d382e3820342e322d31312e3920342e362d31322e3920312e364839374c38342e32203235346c2d31332e362d372d362e352d352e37563233336c2d31342e322d332e362d362e362d362e3220352e352d372e3620352e332d392e3420382e352d31332e3320362e322d352e335a222f3e3c7061746820636c6173733d22625374723222207374726f6b652d77696474683d22332220643d226d36342e38203233332e3520362e372d32342e36222f3e3c7061746820636c6173733d22625374723222207374726f6b652d77696474683d22342220643d224d3136312e35203231362e31632d332e342d352d352e352d31302e382d382e352d31362e312d332d352e332d372d31302e342d31322e372d31322e32203020302d342e352d362e332d33352e342d362e332d333120302d33352e3520362e332d33352e3520362e332d352e3620312e382d392e3720362e392d31322e372031322e322d3320352e332d352031312e312d382e352031362e316131302e342031302e342030203020302d342e3920372e3363352e3320352e3720313320392e312032312e3120392e322d2e3720332d312e352036203020382e3620312e3520322e36203420342e3420362e3520352e396136372e342036372e342030203020302033342031302e346331312e3720302032332e382d342e322033342d31302e3461313820313820302030203020362e342d352e3963312e352d322e362d312e342d31322e382d322d31352e38222f3e3c7061746820636c6173733d22625374723222207374726f6b652d77696474683d22332220643d226d313435203233332e352d362e382d32342e36222f3e3c7061746820636c6173733d2262537472332220643d224d35322e33203231392e3573322e3320322034203363312e38203120352e35203220352e352032222f3e3c706174682066696c6c3d2223666666222066696c6c2d6f7061636974793d222e352220636c6173733d22625374723222207374726f6b652d77696474683d22332220643d224d39332e33203138322e35682d362e35732d322e3720392e392d342e342032332e336c2d322031362e34682e356c2d2e3220322e316132203220302030203020312e3720322e326c312e352e326132203220302030203020322e322d312e386c2e322d32202e352e3120322d31372e32613133362031333620302030203120342e352d32332e335a222f3e3c7061746820636c6173733d2262537472332220643d226d38302e332032323120362e352e35222f3e3c706174682066696c6c3d2223666666222066696c6c2d6f7061636974793d222e352220636c6173733d22625374723222207374726f6b652d77696474683d22332220643d224d3131362e33203138322e3568362e3573322e3820392e3920342e342032332e336c322e312031362e34682d2e356c2e3220322e31613220322030203020312d312e3820322e326c2d312e352e32613220322030203020312d322e322d312e386c2d2e322d322d2e352e312d322d31372e32613132392e35203132392e352030203020302d342e352d32332e335a222f3e3c7061746820636c6173733d2262537472332220643d226d3132392e33203232312d362e352e356d33342d32732d322e3320322d342033632d312e3820312d352e3520322d352e352032222f3e3c706174682066696c6c3d2223666666222066696c6c2d6f7061636974793d222e352220643d224d3130352e34203233352e376136382036382030203020302031342e362d322e3563312d2e3220322e312e3120322e37203120312e3420322e3220322e3620352e3220332e352038202e3420312e352d2e3220332d312e3520332e376133392e372033392e372030203020312d31392e3320342e356d302d31342e376136392036392030203020312d31342e372d322e35632d312d2e322d322e322e312d322e3820316133362e312033362e312030203020302d332e3420382033203320302030203020312e3420332e372034302034302030203020302031392e3520342e35222f3e3c7061746820636c6173733d22625374723222207374726f6b652d77696474683d22332220643d224d3130352e34203233352e376136382036382030203020302031342e362d322e3563312d2e3220322e312e3120322e37203120312e3420322e3220322e3620352e3220332e352038202e3420312e352d2e3220332d312e3520332e376133392e372033392e372030203020312d31392e3320342e356d302d31342e376136392036392030203020312d31342e372d322e35632d312d2e322d322e322e312d322e3820316133362e312033362e312030203020302d332e3420382033203320302030203020312e3420332e372034302034302030203020302031392e3520342e35222f3e3c7061746820636c6173733d2262537472332220643d224d38372e37203234352e34732e342d332e3220312e312d352e31632e372d322e3120322e342d352e3120322e342d352e316d33312e382031302e32732d2e352d332e322d312e322d352e31632d2e372d322e312d322e342d352e312d322e342d352e31222f3e3c7061746820636c6173733d22625374723222207374726f6b652d77696474683d22332220643d224d3130352e34203233352e376136382036382030203020302031342e362d322e3563312d2e3220322e312e3120322e37203120312e3420322e3220322e3620352e3220332e352038202e3420312e352d2e3220332d312e3520332e376133392e372033392e372030203020312d31392e3320342e356d302d31342e376136392036392030203020312d31342e372d322e35632d312d2e322d322e322e312d322e3820316133362e312033362e312030203020302d332e3420382033203320302030203020312e3420332e372034302034302030203020302031392e3520342e35222f3e3c2f7376673e3c7061746820636c6173733d22626f6479436f6c6f72312220643d226d36382e38203138372e362032302e352d352e366832392e356c32302e3520352e3620313020382e322035203720352e352031312e38203520342d312e3320332e382d372036682d31312e386c2e372031332d3520352e372d382e3820342e322d31312e3920342e362d31322e3920312e364839374c38342e32203235346c2d31332e362d372d362e352d352e3720312e322d31332e31682d31326c2d382d352e3220332e352d372e3520352e332d392e3420382e352d31332e3320362e322d352e335a222f3e3c7061746820636c6173733d22625374723222207374726f6b652d77696474683d22332220643d226d36342e38203233332e3520362e372d32342e36222f3e3c7061746820636c6173733d22625374723222207374726f6b652d77696474683d22342220643d224d34382e32203231362e3163332e342d3520352e362d31302e3820382e352d31362e3120332d352e3320372e312d31302e342031322e372d31322e322030203020342e352d362e332033352e352d362e337333352e3420362e332033352e3420362e3363352e3620312e3820392e3720362e392031322e372031322e32203320352e3320352031312e3120382e352031362e316d2d393520392e33632d2e3820332d332e362031332e322d322031352e3820312e3420322e36203420342e3420362e3420352e396136372e342036372e342030203020302033342031302e346331312e3720302032332e382d342e322033342d31302e3461313820313820302030203020362e342d352e3963312e352d322e362d312e342d31322e382d322d31352e38222f3e3c7061746820636c6173733d22625374723222207374726f6b652d77696474683d22332220643d226d313435203233332e352d362e382d32342e36222f3e3c7061746820636c6173733d2262537472332220643d224d35322e33203231392e3573322e3320322034203363312e38203120352e35203220352e352032222f3e3c706174682066696c6c3d2223666666222066696c6c2d6f7061636974793d222e352220636c6173733d22625374723222207374726f6b652d77696474683d22332220643d224d39332e33203138322e35682d362e35732d322e3720392e392d342e342032332e336c2d322031362e34682e356c2d2e3220322e316132203220302030203020312e3720322e326c312e352e326132203220302030203020322e322d312e386c2e322d32202e352e3120322d31372e32613133362031333620302030203120342e352d32332e335a222f3e3c7061746820636c6173733d2262537472332220643d226d38302e332032323120362e352e35222f3e3c706174682066696c6c3d2223666666222066696c6c2d6f7061636974793d222e352220636c6173733d22625374723222207374726f6b652d77696474683d22332220643d224d3131362e33203138322e3568362e3573322e3820392e3920342e342032332e336c322e312031362e34682d2e356c2e3220322e31613220322030203020312d312e3820322e326c2d312e352e32613220322030203020312d322e322d312e386c2d2e322d322d2e352e312d322d31372e32613132392e35203132392e352030203020302d342e352d32332e335a222f3e3c7061746820636c6173733d2262537472332220643d226d3132392e33203232312d362e352e356d33342d32732d322e3320322d342033632d312e3820312d352e3520322d352e352032222f3e3c706174682066696c6c3d2223666666222066696c6c2d6f7061636974793d222e352220643d224d3130352e34203233352e376136382036382030203020302031342e362d322e3563312d2e3220322e312e3120322e37203161343220343220302030203120332e352038632e3420312e352d2e3220332d312e3520332e376133392e372033392e372030203020312d31392e3320342e356d302d31342e376136392036392030203020312d31342e372d322e35632d312d2e322d322e322e312d322e3820316133362e312033362e312030203020302d332e3420382033203320302030203020312e3420332e372034302034302030203020302031392e3520342e35222f3e3c7061746820636c6173733d22625374723222207374726f6b652d77696474683d22332220643d224d3130352e34203233352e376136382036382030203020302031342e362d322e3563312d2e3220322e312e3120322e37203161343220343220302030203120332e352038632e3420312e352d2e3220332d312e3520332e376133392e372033392e372030203020312d31392e3320342e356d302d31342e376136392036392030203020312d31342e372d322e35632d312d2e322d322e322e312d322e3820316133362e312033362e312030203020302d332e3420382033203320302030203020312e3420332e372034302034302030203020302031392e3520342e35222f3e3c7061746820636c6173733d2262537472332220643d224d38372e37203234352e34732e342d332e3220312e312d352e31632e372d322e3120322e342d352e3120322e342d352e316d33312e382031302e32732d2e352d332e322d312e322d352e31632d2e372d322e312d322e342d352e312d322e342d352e31222f3e3c7061746820636c6173733d22625374723222207374726f6b652d77696474683d22332220643d224d3130352e34203233352e376136382036382030203020302031342e362d322e3563312d2e3220322e312e3120322e37203161343220343220302030203120332e352038632e3420312e352d2e3220332d312e3520332e376133392e372033392e372030203020312d31392e3320342e356d302d31342e376136392036392030203020312d31342e372d322e35632d312d2e322d322e322e312d322e3820316133362e312033362e312030203020302d332e3420382033203320302030203020312e3420332e372034302034302030203020302031392e3520342e35222f3e3c2f7376673e3c7061746820636c6173733d2268616e6473436f6c6f722220643d226d35352e39203230392e322031332e3920362e372d342e352031372e3820322031322d3320352e382d382e3420312e344834342e346c2d392e342d372e3220312e352d31332e342031302e342d362e3820392d31362e335a4d3135342e32203231302e326c2d313420362e3720342e352031372e382d32203132203320342e3820382e3520322e346831312e346c392e342d372e322d312e352d31332e352d31302e342d362e372d392d31362e335a222f3e3c7061746820636c6173733d22625374723122207374726f6b652d77696474683d22342220643d224d35352e39203230392e34632d322e3620342e332d352e3120382e362d372e372031332e356131362e322031362e322030203020312d3620352e382031352031352030203020302d372031302e312031332e362031332e3620302030203020372e342031342e3163342e32203220392e3520312e342031332e332d312e32222f3e3c7061746820636c6173733d22625374723122207374726f6b652d77696474683d22322220643d224d35372e38203234372e366131312e322031312e322030203020312d3520342e384d3135322e32203234372e3663312e3520322e3420322e3420332e34203520342e38222f3e3c7061746820636c6173733d22625374723122207374726f6b652d77696474683d22342220643d224d3536203235312e376138203820302030203020372e39203020372e3120372e3120302030203020332e372d362e354d313534203230392e3463322e3520342e33203520382e3620372e362031332e3520312e3320322e3520332e3720342e3320362e3120352e3861313520313520302030203120372031302e31632e3920352e362d322e322031312e362d372e342031342e312d342e3220322d392e3620312e342d31332e332d312e324d3135332e38203235312e37613820382030203020312d372e382030632d322e342d312e342d332e392d332e332d332e382d36222f3e3c7061746820636c6173733d22626f6479436f6c6f72312220643d226d36382e38203138372e362032302e352d352e366832392e356c32302e3520352e3620313020382e322035203720352e352031312e3820332e3720342e3220322e3920342e372d372e3720362e322d31332e3320332e3876386c2d3520352e362d382e3820342e322d31312e3920342e362d31322e3920312e364839374c38342e32203235346c2d31332e362d372d362e352d352e37563233336c2d31342e322d332e362d362e362d362e3220352e352d372e3620352e332d392e3420382e352d31332e3320362e322d352e335a222f3e3c7061746820636c6173733d22625374723222207374726f6b652d77696474683d22332220643d226d36342e38203233332e3520362e372d32342e36222f3e3c7061746820636c6173733d22625374723222207374726f6b652d77696474683d22342220643d224d36392e34203138372e38632d352e3620312e382d392e3720362e392d31322e372031322e322d3320352e332d352031312e312d382e352031362e316131302e342031302e342030203020302d342e3920372e3363352e3320352e3720313320392e312032312e3120392e322d2e3720332d312e352036203020382e3620312e3520322e36203420342e3420362e3520352e396136372e342036372e342030203020302033342031302e34222f3e3c7061746820636c6173733d22625374723222207374726f6b652d77696474683d22342220643d224d3134302e33203138372e3863352e3620312e3820392e3720362e392031322e372031322e32203320352e3320352031312e3120382e352031362e3120322e3620312e3620342e3420342e33203520372e332d352e3320352e372d31332e3120392e312d32312e3220392e322e37203320312e352036203020382e362d312e3520322e362d3420342e342d362e3520352e396136362e382036362e382030203020312d33342031302e34222f3e3c7061746820636c6173733d22625374723222207374726f6b652d77696474683d22332220643d226d313435203233332e352d362e382d32342e36222f3e3c7061746820636c6173733d2262537472332220643d224d35322e33203231392e3573322e3320322034203363312e38203120352e35203220352e352032222f3e3c706174682066696c6c3d2223666666222066696c6c2d6f7061636974793d222e352220636c6173733d22625374723222207374726f6b652d77696474683d22332220643d224d39332e33203138322e35682d362e35732d322e3720392e392d342e342032332e336c2d322031362e34682e356c2d2e3220322e316132203220302030203020312e3720322e326c312e352e326132203220302030203020322e322d312e386c2e322d32202e352e3120322d31372e32613133362031333620302030203120342e352d32332e335a222f3e3c7061746820636c6173733d2262537472332220643d226d38302e332032323120362e352e35222f3e3c706174682066696c6c3d2223666666222066696c6c2d6f7061636974793d222e352220636c6173733d22625374723222207374726f6b652d77696474683d22332220643d224d3131362e33203138322e3568362e3573322e3820392e3920342e342032332e336c322e312031362e34682d2e356c2e3220322e31613220322030203020312d312e3820322e326c2d312e352e32613220322030203020312d322e322d312e386c2d2e322d322d2e352e312d322d31372e32632d312e382d31352e322d342e352d32332e332d342e352d32332e335a222f3e3c7061746820636c6173733d2262537472332220643d226d3132392e33203232312d362e352e354d3135362e38203231392e35732d322e3320322d342033632d312e3820312d352e3520322d352e352032222f3e3c706174682066696c6c3d2223666666222066696c6c2d6f7061636974793d222e352220643d224d3130352e34203233352e376136382036382030203020302031342e362d322e3563312d2e3220322e312e3120322e37203120312e3420322e3220322e3620352e3220332e352038202e3420312e352d2e3220332d312e3520332e376133392e372033392e372030203020312d31392e3320342e354d3130352e34203233352e376136392036392030203020312d31342e372d322e35632d312d2e322d322e322e312d322e3820316133362e312033362e312030203020302d332e342038632d2e3520312e352e31203320312e3420332e376134302034302030203020302031392e3520342e35222f3e3c7061746820636c6173733d2262537472332220643d224d38372e37203234352e34732e342d332e3220312e312d352e31632e372d322e3120322e342d352e3120322e342d352e314d313233203234352e34732d2e352d332e322d312e322d352e31632d2e372d322e312d322e342d352e312d322e342d352e31222f3e3c7061746820636c6173733d22625374723222207374726f6b652d77696474683d22332220643d224d3130352e34203233352e376136382036382030203020302031342e362d322e3563312d2e3220322e312e3120322e37203120312e3420322e3220322e3620352e3220332e352038202e3420312e352d2e3220332d312e3520332e376133392e372033392e372030203020312d31392e3320342e354d3130352e34203233352e376136392036392030203020312d31342e372d322e35632d312d2e322d322e322e312d322e3820316133362e312033362e312030203020302d332e342038632d2e3520312e352e31203320312e3420332e376134302034302030203020302031392e3520342e35222f3e3c2f7376673ea2646970667358221220dbf918e64365d27cbff644f0faf00ef00a07687d7bc7ec0e41342dc44be2276c64736f6c63430008140033",
  "immutableReferences": {},
  "source": "// SPDX-License-Identifier: MIT\npragma solidity ^0.8.0;\n\nimport {Hands} from '../Hands.sol';\n\nlibrary BodyHoodie {\n    function getBody(Hands.HandsVariants handsVariant) public pure returns (string memory) {\n        if (handsVariant == Hands.HandsVariants.HANDSDOWN) {\n            return\n                '<path class=\"handsColor\" d=\"m55.9 209.2 13.9 6.7-4.5 17.8 2 12-3 5.8-8.4 1.4H44.4l-9.4-7.2 1.5-13.4 10.4-6.8 9-16.3ZM154.2 210.2l-14 6.7 4.5 17.8-2 12 3 4.8 8.5 2.4h11.4l9.4-7.2-1.5-13.5-10.4-6.7-9-16.3Z\"/><path class=\"bStr1\" stroke-width=\"4\" d=\"M55.9 209.4c-2.6 4.3-5.1 8.6-7.7 13.5a16.2 16.2 0 0 1-6 5.8 15 15 0 0 0-7 10.1 13.6 13.6 0 0 0 7.4 14.1c4.2 2 9.5 1.4 13.3-1.2\"/><path class=\"bStr1\" stroke-width=\"2\" d=\"M57.8 247.6a11.2 11.2 0 0 1-5 4.8M152.2 247.6c1.5 2.4 2.4 3.4 5 4.8\"/><path class=\"bStr1\" stroke-width=\"4\" d=\"M56 251.7a8 8 0 0 0 7.9 0 7.1 7.1 0 0 0 3.7-6.5M154 209.4c2.5 4.3 5 8.6 7.6 13.5 1.3 2.5 3.7 4.3 6.1 5.8a15 15 0 0 1 7 10.1c.9 5.6-2.2 11.6-7.4 14.1-4.2 2-9.6 1.4-13.3-1.2M153.8 251.7a8 8 0 0 1-7.8 0c-2.4-1.4-3.9-3.3-3.8-6\"/><path class=\"bodyColor1\" d=\"m68.8 187.6 20.5-5.6h29.5l20.5 5.6 10 8.2 5 7 5.5 11.8 3.7 4.2 2.9 4.7-7.7 6.2-13.3 3.8v8l-5 5.6-8.8 4.2-11.9 4.6-12.9 1.6H97L84.2 254l-13.6-7-6.5-5.7V233l-14.2-3.6-6.6-6.2 5.5-7.6 5.3-9.4 8.5-13.3 6.2-5.3Z\"/><path class=\"bStr2\" stroke-width=\"3\" d=\"m64.8 233.5 6.7-24.6\"/><path class=\"bStr2\" stroke-width=\"4\" d=\"M69.4 187.8c-5.6 1.8-9.7 6.9-12.7 12.2-3 5.3-5 11.1-8.5 16.1a10.4 10.4 0 0 0-4.9 7.3c5.3 5.7 13 9.1 21.1 9.2-.7 3-1.5 6 0 8.6 1.5 2.6 4 4.4 6.5 5.9a67.4 67.4 0 0 0 34 10.4\"/><path class=\"bStr2\" stroke-width=\"4\" d=\"M140.3 187.8c5.6 1.8 9.7 6.9 12.7 12.2 3 5.3 5 11.1 8.5 16.1 2.6 1.6 4.4 4.3 5 7.3-5.3 5.7-13.1 9.1-21.2 9.2.7 3 1.5 6 0 8.6-1.5 2.6-4 4.4-6.5 5.9a66.8 66.8 0 0 1-34 10.4\"/><path class=\"bStr2\" stroke-width=\"3\" d=\"m145 233.5-6.8-24.6\"/><path class=\"bStr3\" d=\"M52.3 219.5s2.3 2 4 3c1.8 1 5.5 2 5.5 2\"/><path fill=\"#fff\" fill-opacity=\".5\" class=\"bStr2\" stroke-width=\"3\" d=\"M93.3 182.5h-6.5s-2.7 9.9-4.4 23.3l-2 16.4h.5l-.2 2.1a2 2 0 0 0 1.7 2.2l1.5.2a2 2 0 0 0 2.2-1.8l.2-2 .5.1 2-17.2a136 136 0 0 1 4.5-23.3Z\"/><path class=\"bStr3\" d=\"m80.3 221 6.5.5\"/><path fill=\"#fff\" fill-opacity=\".5\" class=\"bStr2\" stroke-width=\"3\" d=\"M116.3 182.5h6.5s2.8 9.9 4.4 23.3l2.1 16.4h-.5l.2 2.1a2 2 0 0 1-1.8 2.2l-1.5.2a2 2 0 0 1-2.2-1.8l-.2-2-.5.1-2-17.2c-1.8-15.2-4.5-23.3-4.5-23.3Z\"/><path class=\"bStr3\" d=\"m129.3 221-6.5.5M156.8 219.5s-2.3 2-4 3c-1.8 1-5.5 2-5.5 2\"/><path fill=\"#fff\" fill-opacity=\".5\" d=\"M105.4 235.7a68 68 0 0 0 14.6-2.5c1-.2 2.1.1 2.7 1 1.4 2.2 2.6 5.2 3.5 8 .4 1.5-.2 3-1.5 3.7a39.7 39.7 0 0 1-19.3 4.5M105.4 235.7a69 69 0 0 1-14.7-2.5c-1-.2-2.2.1-2.8 1a36.1 36.1 0 0 0-3.4 8c-.5 1.5.1 3 1.4 3.7a40 40 0 0 0 19.5 4.5\"/><path class=\"bStr3\" d=\"M87.7 245.4s.4-3.2 1.1-5.1c.7-2.1 2.4-5.1 2.4-5.1M123 245.4s-.5-3.2-1.2-5.1c-.7-2.1-2.4-5.1-2.4-5.1\"/><path class=\"bStr2\" stroke-width=\"3\" d=\"M105.4 235.7a68 68 0 0 0 14.6-2.5c1-.2 2.1.1 2.7 1 1.4 2.2 2.6 5.2 3.5 8 .4 1.5-.2 3-1.5 3.7a39.7 39.7 0 0 1-19.3 4.5M105.4 235.7a69 69 0 0 1-14.7-2.5c-1-.2-2.2.1-2.8 1a36.1 36.1 0 0 0-3.4 8c-.5 1.5.1 3 1.4 3.7a40 40 0 0 0 19.5 4.5\"/></svg>';\n        } else if (handsVariant == Hands.HandsVariants.PEACEDOUBLE) {\n            return\n                '<path class=\"bodyColor1\" d=\"m68.8 187.6 20.5-5.6h29.5l20.5 5.6 10 8.2 5 7 5.5 11.8 5 4-1.3 3.8-7 6h-11.8l.7 13-5 5.7-8.8 4.2-11.9 4.6-12.9 1.6H97L84.2 254l-13.6-7-6.5-5.7 1.2-13.1h-12l-8-5.2 3.5-7.5 5.3-9.4 8.5-13.3 6.2-5.3Z\"/><path class=\"bStr2\" stroke-width=\"3\" d=\"m64.8 233.5 6.7-24.6\"/><path class=\"bStr2\" stroke-width=\"4\" d=\"M48.2 216.1c3.4-5 5.6-10.8 8.5-16.1 3-5.3 7.1-10.4 12.7-12.2 0 0 4.5-6.3 35.5-6.3s35.4 6.3 35.4 6.3c5.6 1.8 9.7 6.9 12.7 12.2 3 5.3 5 11.1 8.5 16.1m-95 9.3c-.8 3-3.6 13.2-2 15.8 1.4 2.6 4 4.4 6.4 5.9a67.4 67.4 0 0 0 34 10.4c11.7 0 23.8-4.2 34-10.4a18 18 0 0 0 6.4-5.9c1.5-2.6-1.4-12.8-2-15.8\"/><path class=\"bStr2\" stroke-width=\"3\" d=\"m145 233.5-6.8-24.6\"/><path class=\"bStr3\" d=\"M52.3 219.5s2.3 2 4 3c1.8 1 5.5 2 5.5 2\"/><path fill=\"#fff\" fill-opacity=\".5\" class=\"bStr2\" stroke-width=\"3\" d=\"M93.3 182.5h-6.5s-2.7 9.9-4.4 23.3l-2 16.4h.5l-.2 2.1a2 2 0 0 0 1.7 2.2l1.5.2a2 2 0 0 0 2.2-1.8l.2-2 .5.1 2-17.2a136 136 0 0 1 4.5-23.3Z\"/><path class=\"bStr3\" d=\"m80.3 221 6.5.5\"/><path fill=\"#fff\" fill-opacity=\".5\" class=\"bStr2\" stroke-width=\"3\" d=\"M116.3 182.5h6.5s2.8 9.9 4.4 23.3l2.1 16.4h-.5l.2 2.1a2 2 0 0 1-1.8 2.2l-1.5.2a2 2 0 0 1-2.2-1.8l-.2-2-.5.1-2-17.2a129.5 129.5 0 0 0-4.5-23.3Z\"/><path class=\"bStr3\" d=\"m129.3 221-6.5.5m34-2s-2.3 2-4 3c-1.8 1-5.5 2-5.5 2\"/><path fill=\"#fff\" fill-opacity=\".5\" d=\"M105.4 235.7a68 68 0 0 0 14.6-2.5c1-.2 2.1.1 2.7 1a42 42 0 0 1 3.5 8c.4 1.5-.2 3-1.5 3.7a39.7 39.7 0 0 1-19.3 4.5m0-14.7a69 69 0 0 1-14.7-2.5c-1-.2-2.2.1-2.8 1a36.1 36.1 0 0 0-3.4 8 3 3 0 0 0 1.4 3.7 40 40 0 0 0 19.5 4.5\"/><path class=\"bStr2\" stroke-width=\"3\" d=\"M105.4 235.7a68 68 0 0 0 14.6-2.5c1-.2 2.1.1 2.7 1a42 42 0 0 1 3.5 8c.4 1.5-.2 3-1.5 3.7a39.7 39.7 0 0 1-19.3 4.5m0-14.7a69 69 0 0 1-14.7-2.5c-1-.2-2.2.1-2.8 1a36.1 36.1 0 0 0-3.4 8 3 3 0 0 0 1.4 3.7 40 40 0 0 0 19.5 4.5\"/><path class=\"bStr3\" d=\"M87.7 245.4s.4-3.2 1.1-5.1c.7-2.1 2.4-5.1 2.4-5.1m31.8 10.2s-.5-3.2-1.2-5.1c-.7-2.1-2.4-5.1-2.4-5.1\"/><path class=\"bStr2\" stroke-width=\"3\" d=\"M105.4 235.7a68 68 0 0 0 14.6-2.5c1-.2 2.1.1 2.7 1a42 42 0 0 1 3.5 8c.4 1.5-.2 3-1.5 3.7a39.7 39.7 0 0 1-19.3 4.5m0-14.7a69 69 0 0 1-14.7-2.5c-1-.2-2.2.1-2.8 1a36.1 36.1 0 0 0-3.4 8 3 3 0 0 0 1.4 3.7 40 40 0 0 0 19.5 4.5\"/></svg>';\n        } else if (handsVariant == Hands.HandsVariants.PEACESINGLE) {\n            return\n                '<path class=\"handsColor\" d=\"m55.9 209.2 13.9 6.7-4.5 17.8 2 12-3 5.8-8.4 1.4H44.4l-9.4-7.2 1.5-13.4 10.4-6.8 9-16.3Z\"/><path class=\"bStr1\" stroke-width=\"4\" d=\"M55.9 209.4c-2.6 4.3-5.1 8.6-7.7 13.5a16.2 16.2 0 0 1-6 5.8 15 15 0 0 0-7 10.1 13.6 13.6 0 0 0 7.4 14.1c4.2 2 9.5 1.4 13.3-1.2\"/><path class=\"bStr1\" stroke-width=\"2\" d=\"M57.8 247.6a11.2 11.2 0 0 1-5 4.8\"/><path class=\"bStr1\" stroke-width=\"4\" d=\"M56 251.7a8 8 0 0 0 7.9 0 7.1 7.1 0 0 0 3.7-6.5\"/><path class=\"bodyColor1\" d=\"m68.8 187.6 20.5-5.6h29.5l20.5 5.6 10 8.2 5 7 5.5 11.8 5 4-1.3 3.8-7 6h-11.8l.7 13-5 5.7-8.8 4.2-11.9 4.6-12.9 1.6H97L84.2 254l-13.6-7-6.5-5.7V233l-14.2-3.6-6.6-6.2 5.5-7.6 5.3-9.4 8.5-13.3 6.2-5.3Z\"/><path class=\"bStr2\" stroke-width=\"3\" d=\"m64.8 233.5 6.7-24.6\"/><path class=\"bStr2\" stroke-width=\"4\" d=\"M161.5 216.1c-3.4-5-5.5-10.8-8.5-16.1-3-5.3-7-10.4-12.7-12.2 0 0-4.5-6.3-35.4-6.3-31 0-35.5 6.3-35.5 6.3-5.6 1.8-9.7 6.9-12.7 12.2-3 5.3-5 11.1-8.5 16.1a10.4 10.4 0 0 0-4.9 7.3c5.3 5.7 13 9.1 21.1 9.2-.7 3-1.5 6 0 8.6 1.5 2.6 4 4.4 6.5 5.9a67.4 67.4 0 0 0 34 10.4c11.7 0 23.8-4.2 34-10.4a18 18 0 0 0 6.4-5.9c1.5-2.6-1.4-12.8-2-15.8\"/><path class=\"bStr2\" stroke-width=\"3\" d=\"m145 233.5-6.8-24.6\"/><path class=\"bStr3\" d=\"M52.3 219.5s2.3 2 4 3c1.8 1 5.5 2 5.5 2\"/><path fill=\"#fff\" fill-opacity=\".5\" class=\"bStr2\" stroke-width=\"3\" d=\"M93.3 182.5h-6.5s-2.7 9.9-4.4 23.3l-2 16.4h.5l-.2 2.1a2 2 0 0 0 1.7 2.2l1.5.2a2 2 0 0 0 2.2-1.8l.2-2 .5.1 2-17.2a136 136 0 0 1 4.5-23.3Z\"/><path class=\"bStr3\" d=\"m80.3 221 6.5.5\"/><path fill=\"#fff\" fill-opacity=\".5\" class=\"bStr2\" stroke-width=\"3\" d=\"M116.3 182.5h6.5s2.8 9.9 4.4 23.3l2.1 16.4h-.5l.2 2.1a2 2 0 0 1-1.8 2.2l-1.5.2a2 2 0 0 1-2.2-1.8l-.2-2-.5.1-2-17.2a129.5 129.5 0 0 0-4.5-23.3Z\"/><path class=\"bStr3\" d=\"m129.3 221-6.5.5m34-2s-2.3 2-4 3c-1.8 1-5.5 2-5.5 2\"/><path fill=\"#fff\" fill-opacity=\".5\" d=\"M105.4 235.7a68 68 0 0 0 14.6-2.5c1-.2 2.1.1 2.7 1 1.4 2.2 2.6 5.2 3.5 8 .4 1.5-.2 3-1.5 3.7a39.7 39.7 0 0 1-19.3 4.5m0-14.7a69 69 0 0 1-14.7-2.5c-1-.2-2.2.1-2.8 1a36.1 36.1 0 0 0-3.4 8 3 3 0 0 0 1.4 3.7 40 40 0 0 0 19.5 4.5\"/><path class=\"bStr2\" stroke-width=\"3\" d=\"M105.4 235.7a68 68 0 0 0 14.6-2.5c1-.2 2.1.1 2.7 1 1.4 2.2 2.6 5.2 3.5 8 .4 1.5-.2 3-1.5 3.7a39.7 39.7 0 0 1-19.3 4.5m0-14.7a69 69 0 0 1-14.7-2.5c-1-.2-2.2.1-2.8 1a36.1 36.1 0 0 0-3.4 8 3 3 0 0 0 1.4 3.7 40 40 0 0 0 19.5 4.5\"/><path class=\"bStr3\" d=\"M87.7 245.4s.4-3.2 1.1-5.1c.7-2.1 2.4-5.1 2.4-5.1m31.8 10.2s-.5-3.2-1.2-5.1c-.7-2.1-2.4-5.1-2.4-5.1\"/><path class=\"bStr2\" stroke-width=\"3\" d=\"M105.4 235.7a68 68 0 0 0 14.6-2.5c1-.2 2.1.1 2.7 1 1.4 2.2 2.6 5.2 3.5 8 .4 1.5-.2 3-1.5 3.7a39.7 39.7 0 0 1-19.3 4.5m0-14.7a69 69 0 0 1-14.7-2.5c-1-.2-2.2.1-2.8 1a36.1 36.1 0 0 0-3.4 8 3 3 0 0 0 1.4 3.7 40 40 0 0 0 19.5 4.5\"/></svg>';\n        } else {\n            revert(); // Avoid warnings.\n        }\n    }\n}\n",
  "sourcePath": "E:\\Blockchain\\EDUIndex\\EduxContract\\contracts\\libraries\\svgs\\Profile\\Body\\BodyHoodie.sol",
  "compiler": {
    "name": "solc",
    "version": "0.8.20+commit.a1b79de6.Emscripten.clang"
  },
  "schemaVersion": "3.4.3",
  "updatedAt": "2024-08-25T13:13:21.553Z",
  "devdoc": {
    "kind": "dev",
    "methods": {},
    "version": 1
  },
  "userdoc": {
    "kind": "user",
    "methods": {},
    "version": 1
  }
}