{
  "contractName": "BodyTanktop",
  "abi": [
    {
      "inputs": [
        {
          "internalType": "enum Hands.HandsVariants",
          "name": "handsVariant",
          "type": "Hands.HandsVariants"
        }
      ],
      "name": "getBody",
      "outputs": [
        {
          "internalType": "string",
          "name": "",
          "type": "string"
        }
      ],
      "stateMutability": "pure",
      "type": "function"
    }
  ],
  "bytecode": "0x61138561004e600b8282823980515f1a607314610042577f4e487b71000000000000000000000000000000000000000000000000000000005f525f60045260245ffd5b305f52607381538281f3fe7300000000000000000000000000000000000000003014608060405260043610610034575f3560e01c80638b80ee8d14610038575b5f80fd5b610052600480360381019061004d9190610185565b610068565b60405161005f919061023a565b60405180910390f35b60605f600281111561007d5761007c61025a565b5b8260028111156100905761008f61025a565b5b036100b857604051806107e001604052806107a78152602001610ba96107a791399050610159565b600160028111156100cc576100cb61025a565b5b8260028111156100df576100de61025a565b5b0361010757604051806103c0016040528061039d815260200161080c61039d91399050610159565b60028081111561011a5761011961025a565b5b82600281111561012d5761012c61025a565b5b0361015557604051806105c00160405280610584815260200161028861058491399050610159565b5f80fd5b919050565b5f80fd5b6003811061016e575f80fd5b50565b5f8135905061017f81610162565b92915050565b5f6020828403121561019a5761019961015e565b5b5f6101a784828501610171565b91505092915050565b5f81519050919050565b5f82825260208201905092915050565b5f5b838110156101e75780820151818401526020810190506101cc565b5f8484015250505050565b5f601f19601f8301169050919050565b5f61020c826101b0565b61021681856101ba565b93506102268185602086016101ca565b61022f816101f2565b840191505092915050565b5f6020820190508181035f8301526102528184610202565b905092915050565b7f4e487b71000000000000000000000000000000000000000000000000000000005f52602160045260245ffdfe3c7061746820636c6173733d2268616e6473436f6c6f722220643d226d33342e36203234352e3720312e352d31332e342031302e342d362e382031332e322d323520372e322d392e3820332e3620362e37203220392d372e362032372e3320322031322d3320352e382d382e3420312e344834346c2d392e352d372e325a222f3e3c7061746820636c6173733d22626f6479436f6c6f72312220643d224d37332e34203138362e317331382e382d342e312033312e322d342e316331322e3520302033312e3320342e312033312e3320342e316c372e3120352e312d322e3320313720332e362033342e362d382e3420382e372d31352e3420342e382d31352e3920312e342d31352e392d312e342d31352e332d342e382d382e352d382e3720342e362d33382d322d31332e3620352e392d355a222f3e3c7061746820636c6173733d2268616e6473436f6c6f722220643d224d3132362e35203138392e38632d322e3220372e352d31302e332031342d32312031342d31302e3620302d32322d362e322d32322d313420302d322e332d322e322d352e372d322e322d352e3753393820313832203130352e352031383263382e38203020323320322e3820323320322e38732d2e3820332e352d3220355a222f3e3c7061746820636c6173733d22625374723122207374726f6b652d77696474683d22342220643d224d35352e35203235312e376131332e372031332e372030203020312d31332e3320312e322031332e362031332e362030203020312d372e342d313420313520313520302030203120372d31302e3220313620313620302030203020362d352e3863322e352d342e3820352d3920372e372d31332e3520332e342d352e3820342e342d31332e322031312e392d3139222f3e3c7061746820636c6173733d22625374723122207374726f6b652d77696474683d22322220643d224d35372e35203234372e366131312e322031312e322030203020312d3520342e38222f3e3c7061746820636c6173733d22625374723122207374726f6b652d77696474683d22342220643d224d35352e36203235312e376138203820302030203020372e39203020372e3120372e3120302030203020332e372d362e35222f3e3c7061746820636c6173733d22625374723122207374726f6b652d77696474683d22332220643d224d36372e34203234352e336135352e332035352e332030203020302033362e372031322e346d33382e352d31322e346135352e332035352e332030203020312d33362e372031322e34222f3e3c7061746820636c6173733d22625374723122207374726f6b652d77696474683d22342220643d226d38302e31203138332e352032352d2e352032342e382e35222f3e3c7061746820636c6173733d22625374723222207374726f6b652d77696474683d22342220643d224d3830203138332e36732d322e342d2e332d362e3820312e39632d342e3320322e312d362e3220342e382d362e3220342e38733220392e3520322e342031352e3663312031332e362d352e382032382d342033342e3720322e3620392e332032322e322031372e312034302031372e316d32342e352d37342e3173322e342d2e3320362e3820312e3963342e3420322e3120362e3220342e3820362e3220342e38732d3220392e352d322e342031352e36632d312031332e3620352e3820323820342033342e372d322e3620392e332d32322e322031372e312d34302031372e31222f3e3c7061746820636c6173733d22625374723222207374726f6b652d77696474683d22332220643d224d3830203138332e36733420372e3620362e342031302e38633520372031312e3420382e392031382e3620382e396132312032312030203020302031382e352d382e39203134332031343320302030203020362e342d31302e38222f3e3c2f7376673e3c7061746820636c6173733d22626f6479436f6c6f72312220643d224d37332e34203138362e317331382e382d342e312033312e322d342e3161313836203138362030203020312033312e3320342e316c372e3120352e312d322e3320313720332e362033342e362d382e3420382e372d31352e3420342e382d31352e3920312e342d31352e392d312e342d31352e332d342e382d382e352d382e3720342e362d33382d322d31332e3620352e392d355a222f3e3c7061746820636c6173733d2268616e6473436f6c6f722220643d224d3132362e35203138392e38632d322e3220372e352d31302e332031342d32312031342d31302e3620302d32322d362e322d32322d313420302d322e332d322e322d352e372d322e322d352e3753393820313832203130352e352031383263382e38203020323320322e3820323320322e38732d2e3820332e352d3220355a222f3e3c7061746820636c6173733d22625374723122207374726f6b652d77696474683d22332220643d224d3134322e36203234352e336135352e332035352e332030203020312d33362e372031322e34222f3e3c7061746820636c6173733d22625374723122207374726f6b652d77696474683d22342220643d226d38302e31203138332e352032352d2e352032342e382e35222f3e3c7061746820636c6173733d22625374723222207374726f6b652d77696474683d22342220643d224d313035203235372e396331372e3820302033362e392d382033392e352d31372e3320312e382d362e362d352d32312d342d33342e372e342d362e3120322e342d31352e3620322e342d31352e36732d312e382d322e372d362e322d342e38632d342e332d322e322d362e382d322d362e382d324d313035203235372e39632d31372e3820302d33362e392d382d33392e342d31372e332d312e392d362e3620342e392d323120342d33342e372d2e352d362e312d322e352d31352e362d322e352d31352e3673312e392d322e3720362e322d342e3863342e342d322e3220362e392d3220362e392d32222f3e3c7061746820636c6173733d22625374723222207374726f6b652d77696474683d22332220643d224d313035203230332e336132312032312030203020302031382e352d382e39203134332031343320302030203020362e342d31302e384d313035203230332e33632d372e3220302d31332e352d322d31382e342d382e392d322e342d332e322d362e342d31302e382d362e342d31302e38222f3e3c2f7376673e3c7061746820636c6173733d2268616e6473436f6c6f722220643d226d33342e36203234352e3720312e352d31332e342031302e342d362e382031332e322d323520372e322d392e3820332e3620362e37203220392d372e362032372e3320322031322d3320352e382d382e3420312e344834346c2d392e352d372e325a222f3e3c7061746820636c6173733d22626f6479436f6c6f72312220643d224d37332e34203138362e317331382e382d342e312033312e322d342e316331322e3520302033312e3320342e312033312e3320342e316c372e3120352e312d322e3320313720332e362033342e362d382e3420382e372d31352e3420342e382d31352e3920312e342d31352e392d312e342d31352e332d342e382d382e352d382e3720342e362d33382d322d31332e3620352e392d355a222f3e3c7061746820636c6173733d2268616e6473436f6c6f722220643d224d3132362e35203138392e38632d322e3220372e352d31302e332031342d32312031342d31302e3620302d32322d362e322d32322d313420302d322e332d322e322d352e372d322e322d352e3753393820313832203130352e352031383263382e38203020323320322e3820323320322e38732d2e3820332e352d3220355a222f3e3c7061746820636c6173733d22625374723122207374726f6b652d77696474683d22342220643d224d35352e35203235312e37632d332e3720322e362d392e3120332e322d31332e3320312e326131332e362031332e362030203020312d372e342d313420313520313520302030203120372d31302e3263322e342d312e3520342e372d332e3320362d352e3820322e352d342e3820352d3920372e372d31332e3520332e342d352e3820342e342d31332e322031312e392d3139222f3e3c7061746820636c6173733d22625374723122207374726f6b652d77696474683d22322220643d224d35372e35203234372e366131312e322031312e322030203020312d3520342e38222f3e3c7061746820636c6173733d22625374723122207374726f6b652d77696474683d22342220643d224d35352e36203235312e376138203820302030203020372e39203020372e3120372e3120302030203020332e372d362e35222f3e3c7061746820636c6173733d22625374723122207374726f6b652d77696474683d22332220643d224d36372e34203234352e336135352e332035352e332030203020302033362e372031322e34222f3e3c7061746820636c6173733d2268616e6473436f6c6f722220643d226d3137352e34203234352e372d312e352d31332e342d31302e342d362e382d31332e322d32352d372e322d392e382d3220362e362d312e3620382e3820352e362032372e362d32203132203320352e3820382e3420312e34483136366c392e352d372e325a222f3e3c7061746820636c6173733d22625374723122207374726f6b652d77696474683d22342220643d224d3135342e35203235312e3763332e3720322e3620392e3120332e322031332e3320312e3220352e322d322e3520382e332d382e3520372e342d31346131352031352030203020302d372d31302e322031362e322031362e322030203020312d362d352e38632d322e352d342e382d352d392d372e372d31332e352d332e342d352e382d342e342d31332e322d31312e392d3139222f3e3c7061746820636c6173733d22625374723122207374726f6b652d77696474683d22322220643d224d3135322e35203234372e3663312e3520322e3420322e3520332e34203520342e38222f3e3c7061746820636c6173733d22625374723122207374726f6b652d77696474683d22342220643d224d3135342e34203235312e37613820382030203020312d372e39203020372e3120372e312030203020312d332e372d362e35222f3e3c7061746820636c6173733d22625374723122207374726f6b652d77696474683d22332220643d224d3134322e36203234352e336135352e332035352e332030203020312d33362e372031322e34222f3e3c7061746820636c6173733d22625374723122207374726f6b652d77696474683d22342220643d226d38302e31203138332e352032352d2e352032342e382e35222f3e3c7061746820636c6173733d22625374723222207374726f6b652d77696474683d22342220643d224d3830203138332e36732d322e342d2e332d362e3820312e39632d342e3320322e312d362e3220342e382d362e3220342e38733220392e3520322e342031352e3663312031332e362d352e382032382d342033342e3720322e3620392e332032322e322031372e312034302031372e316d32342e352d37342e3173322e342d2e3320362e3820312e3963342e3420322e3120362e3220342e3820362e3220342e38732d3220392e352d322e342031352e36632d312031332e3620352e3820323820342033342e372d322e3620392e332d32322e322031372e312d34302031372e31222f3e3c7061746820636c6173733d22625374723222207374726f6b652d77696474683d22332220643d224d3830203138332e36733420372e3620362e342031302e38633520372031312e3420382e392031382e3620382e3920372e3220302031332e352d322031382e352d382e3920322e332d332e3220362e342d31302e3820362e342d31302e38222f3e3c2f7376673ea26469706673582212200d7eddd4ef875333735b1fe5443b3d23ee48b1a1bb3e3bc9223e69491639e0d464736f6c63430008140033",
  "immutableReferences": {},
  "source": "// SPDX-License-Identifier: MIT\npragma solidity ^0.8.0;\n\nimport {Hands} from '../Hands.sol';\n\nlibrary BodyTanktop {\n    function getBody(Hands.HandsVariants handsVariant) public pure returns (string memory) {\n        if (handsVariant == Hands.HandsVariants.HANDSDOWN) {\n            return\n                '<path class=\"handsColor\" d=\"m34.6 245.7 1.5-13.4 10.4-6.8 13.2-25 7.2-9.8 3.6 6.7 2 9-7.6 27.3 2 12-3 5.8-8.4 1.4H44l-9.5-7.2Z\"/><path class=\"bodyColor1\" d=\"M73.4 186.1s18.8-4.1 31.2-4.1c12.5 0 31.3 4.1 31.3 4.1l7.1 5.1-2.3 17 3.6 34.6-8.4 8.7-15.4 4.8-15.9 1.4-15.9-1.4-15.3-4.8-8.5-8.7 4.6-38-2-13.6 5.9-5Z\"/><path class=\"handsColor\" d=\"M126.5 189.8c-2.2 7.5-10.3 14-21 14-10.6 0-22-6.2-22-14 0-2.3-2.2-5.7-2.2-5.7S98 182 105.5 182c8.8 0 23 2.8 23 2.8s-.8 3.5-2 5Z\"/><path class=\"bStr1\" stroke-width=\"4\" d=\"M55.5 251.7c-3.7 2.6-9.1 3.2-13.3 1.2a13.6 13.6 0 0 1-7.4-14 15 15 0 0 1 7-10.2c2.4-1.5 4.7-3.3 6-5.8 2.5-4.8 5-9 7.7-13.5 3.4-5.8 4.4-13.2 11.9-19\"/><path class=\"bStr1\" stroke-width=\"2\" d=\"M57.5 247.6a11.2 11.2 0 0 1-5 4.8\"/><path class=\"bStr1\" stroke-width=\"4\" d=\"M55.6 251.7a8 8 0 0 0 7.9 0 7.1 7.1 0 0 0 3.7-6.5\"/><path class=\"bStr1\" stroke-width=\"3\" d=\"M67.4 245.3a55.3 55.3 0 0 0 36.7 12.4\"/><path class=\"handsColor\" d=\"m175.4 245.7-1.5-13.4-10.4-6.8-13.2-25-7.2-9.8-2 6.6-1.6 8.8 5.6 27.6-2 12 3 5.8 8.4 1.4H166l9.5-7.2Z\"/><path class=\"bStr1\" stroke-width=\"4\" d=\"M154.5 251.7c3.7 2.6 9.1 3.2 13.3 1.2 5.2-2.5 8.3-8.5 7.4-14a15 15 0 0 0-7-10.2 16.2 16.2 0 0 1-6-5.8c-2.5-4.8-5-9-7.7-13.5-3.4-5.8-4.4-13.2-11.9-19\"/><path class=\"bStr1\" stroke-width=\"2\" d=\"M152.5 247.6c1.5 2.4 2.5 3.4 5 4.8\"/><path class=\"bStr1\" stroke-width=\"4\" d=\"M154.4 251.7a8 8 0 0 1-7.9 0 7.1 7.1 0 0 1-3.7-6.5\"/><path class=\"bStr1\" stroke-width=\"3\" d=\"M142.6 245.3a55.3 55.3 0 0 1-36.7 12.4\"/><path class=\"bStr1\" stroke-width=\"4\" d=\"m80.1 183.5 25-.5 24.8.5\"/><path class=\"bStr2\" stroke-width=\"4\" d=\"M80 183.6s-2.4-.3-6.8 1.9c-4.3 2.1-6.2 4.8-6.2 4.8s2 9.5 2.4 15.6c1 13.6-5.8 28-4 34.7 2.6 9.3 22.2 17.1 40 17.1m24.5-74.1s2.4-.3 6.8 1.9c4.4 2.1 6.2 4.8 6.2 4.8s-2 9.5-2.4 15.6c-1 13.6 5.8 28 4 34.7-2.6 9.3-22.2 17.1-40 17.1\"/><path class=\"bStr2\" stroke-width=\"3\" d=\"M80 183.6s4 7.6 6.4 10.8c5 7 11.4 8.9 18.6 8.9 7.2 0 13.5-2 18.5-8.9 2.3-3.2 6.4-10.8 6.4-10.8\"/></svg>';\n        } else if (handsVariant == Hands.HandsVariants.PEACEDOUBLE) {\n            return\n                '<path class=\"bodyColor1\" d=\"M73.4 186.1s18.8-4.1 31.2-4.1a186 186 0 0 1 31.3 4.1l7.1 5.1-2.3 17 3.6 34.6-8.4 8.7-15.4 4.8-15.9 1.4-15.9-1.4-15.3-4.8-8.5-8.7 4.6-38-2-13.6 5.9-5Z\"/><path class=\"handsColor\" d=\"M126.5 189.8c-2.2 7.5-10.3 14-21 14-10.6 0-22-6.2-22-14 0-2.3-2.2-5.7-2.2-5.7S98 182 105.5 182c8.8 0 23 2.8 23 2.8s-.8 3.5-2 5Z\"/><path class=\"bStr1\" stroke-width=\"3\" d=\"M142.6 245.3a55.3 55.3 0 0 1-36.7 12.4\"/><path class=\"bStr1\" stroke-width=\"4\" d=\"m80.1 183.5 25-.5 24.8.5\"/><path class=\"bStr2\" stroke-width=\"4\" d=\"M105 257.9c17.8 0 36.9-8 39.5-17.3 1.8-6.6-5-21-4-34.7.4-6.1 2.4-15.6 2.4-15.6s-1.8-2.7-6.2-4.8c-4.3-2.2-6.8-2-6.8-2M105 257.9c-17.8 0-36.9-8-39.4-17.3-1.9-6.6 4.9-21 4-34.7-.5-6.1-2.5-15.6-2.5-15.6s1.9-2.7 6.2-4.8c4.4-2.2 6.9-2 6.9-2\"/><path class=\"bStr2\" stroke-width=\"3\" d=\"M105 203.3a21 21 0 0 0 18.5-8.9 143 143 0 0 0 6.4-10.8M105 203.3c-7.2 0-13.5-2-18.4-8.9-2.4-3.2-6.4-10.8-6.4-10.8\"/></svg>';\n        } else if (handsVariant == Hands.HandsVariants.PEACESINGLE) {\n            return\n                '<path class=\"handsColor\" d=\"m34.6 245.7 1.5-13.4 10.4-6.8 13.2-25 7.2-9.8 3.6 6.7 2 9-7.6 27.3 2 12-3 5.8-8.4 1.4H44l-9.5-7.2Z\"/><path class=\"bodyColor1\" d=\"M73.4 186.1s18.8-4.1 31.2-4.1c12.5 0 31.3 4.1 31.3 4.1l7.1 5.1-2.3 17 3.6 34.6-8.4 8.7-15.4 4.8-15.9 1.4-15.9-1.4-15.3-4.8-8.5-8.7 4.6-38-2-13.6 5.9-5Z\"/><path class=\"handsColor\" d=\"M126.5 189.8c-2.2 7.5-10.3 14-21 14-10.6 0-22-6.2-22-14 0-2.3-2.2-5.7-2.2-5.7S98 182 105.5 182c8.8 0 23 2.8 23 2.8s-.8 3.5-2 5Z\"/><path class=\"bStr1\" stroke-width=\"4\" d=\"M55.5 251.7a13.7 13.7 0 0 1-13.3 1.2 13.6 13.6 0 0 1-7.4-14 15 15 0 0 1 7-10.2 16 16 0 0 0 6-5.8c2.5-4.8 5-9 7.7-13.5 3.4-5.8 4.4-13.2 11.9-19\"/><path class=\"bStr1\" stroke-width=\"2\" d=\"M57.5 247.6a11.2 11.2 0 0 1-5 4.8\"/><path class=\"bStr1\" stroke-width=\"4\" d=\"M55.6 251.7a8 8 0 0 0 7.9 0 7.1 7.1 0 0 0 3.7-6.5\"/><path class=\"bStr1\" stroke-width=\"3\" d=\"M67.4 245.3a55.3 55.3 0 0 0 36.7 12.4m38.5-12.4a55.3 55.3 0 0 1-36.7 12.4\"/><path class=\"bStr1\" stroke-width=\"4\" d=\"m80.1 183.5 25-.5 24.8.5\"/><path class=\"bStr2\" stroke-width=\"4\" d=\"M80 183.6s-2.4-.3-6.8 1.9c-4.3 2.1-6.2 4.8-6.2 4.8s2 9.5 2.4 15.6c1 13.6-5.8 28-4 34.7 2.6 9.3 22.2 17.1 40 17.1m24.5-74.1s2.4-.3 6.8 1.9c4.4 2.1 6.2 4.8 6.2 4.8s-2 9.5-2.4 15.6c-1 13.6 5.8 28 4 34.7-2.6 9.3-22.2 17.1-40 17.1\"/><path class=\"bStr2\" stroke-width=\"3\" d=\"M80 183.6s4 7.6 6.4 10.8c5 7 11.4 8.9 18.6 8.9a21 21 0 0 0 18.5-8.9 143 143 0 0 0 6.4-10.8\"/></svg>';\n        } else {\n            revert(); // Avoid warnings.\n        }\n    }\n}\n",
  "sourcePath": "E:\\Blockchain\\EDUIndex\\EduxContract\\contracts\\libraries\\svgs\\Profile\\Body\\BodyTanktop.sol",
  "compiler": {
    "name": "solc",
    "version": "0.8.20+commit.a1b79de6.Emscripten.clang"
  },
  "schemaVersion": "3.4.3",
  "updatedAt": "2024-08-25T13:13:21.578Z",
  "devdoc": {
    "kind": "dev",
    "methods": {},
    "version": 1
  },
  "userdoc": {
    "kind": "user",
    "methods": {},
    "version": 1
  }
}