{
  "contractName": "Body",
  "abi": [
    {
      "inputs": [
        {
          "internalType": "enum Body.BodyVariants",
          "name": "bodyVariant",
          "type": "Body.BodyVariants"
        },
        {
          "internalType": "enum Body.BodyColors",
          "name": "bodyColor",
          "type": "Body.BodyColors"
        },
        {
          "internalType": "enum Hands.HandsVariants",
          "name": "handsVariant",
          "type": "Hands.HandsVariants"
        },
        {
          "internalType": "enum Hands.HandsColors",
          "name": "handsColor",
          "type": "Hands.HandsColors"
        }
      ],
      "name": "getBody",
      "outputs": [
        {
          "internalType": "string",
          "name": "",
          "type": "string"
        }
      ],
      "stateMutability": "pure",
      "type": "function"
    },
    {
      "inputs": [
        {
          "internalType": "enum Body.BodyVariants",
          "name": "bodyVariant",
          "type": "Body.BodyVariants"
        },
        {
          "internalType": "enum Body.BodyColors",
          "name": "bodyColor",
          "type": "Body.BodyColors"
        }
      ],
      "name": "getPrimaryBodyColor",
      "outputs": [
        {
          "internalType": "string",
          "name": "",
          "type": "string"
        }
      ],
      "stateMutability": "pure",
      "type": "function"
    },
    {
      "inputs": [
        {
          "internalType": "enum Body.BodyVariants",
          "name": "bodyVariant",
          "type": "Body.BodyVariants"
        },
        {
          "internalType": "enum Body.BodyColors",
          "name": "bodyColor",
          "type": "Body.BodyColors"
        }
      ],
      "name": "getSecondaryBodyColor",
      "outputs": [
        {
          "internalType": "string",
          "name": "",
          "type": "string"
        }
      ],
      "stateMutability": "pure",
      "type": "function"
    }
  ],
  "bytecode": "0x61160c61004e600b8282823980515f1a607314610042577f4e487b71000000000000000000000000000000000000000000000000000000005f525f60045260245ffd5b305f52607381538281f3fe730000000000000000000000000000000000000000301460806040526004361061004a575f3560e01c80630fc1a3131461004e578063b7def7161461007e578063c0e7f7e6146100ae575b5f80fd5b61006860048036038101906100639190610f51565b6100de565b604051610075919061103f565b60405180910390f35b6100986004803603810190610093919061105f565b61011f565b6040516100a5919061103f565b60405180910390f35b6100c860048036038101906100c3919061105f565b610470565b6040516100d5919061103f565b60405180910390f35b60606100eb85858461082a565b6100f58685610938565b60405160200161010692919061116d565b6040516020818303038152906040529050949350505050565b60605f60068111156101345761013361119b565b5b8260068111156101475761014661119b565b5b03610189576040518060400160405280600781526020017f2339334139374400000000000000000000000000000000000000000000000000815250905061046a565b6001600681111561019d5761019c61119b565b5b8260068111156101b0576101af61119b565b5b0361025a576004808111156101c8576101c761119b565b5b8360048111156101db576101da61119b565b5b0361021d576040518060400160405280600781526020017f2344424442444200000000000000000000000000000000000000000000000000815250905061046a565b6040518060400160405280600781526020017f2345414541454100000000000000000000000000000000000000000000000000815250905061046a565b6002600681111561026e5761026d61119b565b5b8260068111156102815761028061119b565b5b036102c3576040518060400160405280600781526020017f2335373537353700000000000000000000000000000000000000000000000000815250905061046a565b600560068111156102d7576102d661119b565b5b8260068111156102ea576102e961119b565b5b0361032c576040518060400160405280600781526020017f2345414145433700000000000000000000000000000000000000000000000000815250905061046a565b600360068111156103405761033f61119b565b5b8260068111156103535761035261119b565b5b03610395576040518060400160405280600781526020017f2343334233443500000000000000000000000000000000000000000000000000815250905061046a565b600460068111156103a9576103a861119b565b5b8260068111156103bc576103bb61119b565b5b036103fe576040518060400160405280600781526020017f2341434235444400000000000000000000000000000000000000000000000000815250905061046a565b6006808111156104115761041061119b565b5b8260068111156104245761042361119b565b5b03610466576040518060400160405280600781526020017f2346384339343400000000000000000000000000000000000000000000000000815250905061046a565b5f80fd5b92915050565b60605f60068111156104855761048461119b565b5b8260068111156104985761049761119b565b5b036104da576040518060400160405280600781526020017f23463446464443000000000000000000000000000000000000000000000000008152509050610824565b600160068111156104ee576104ed61119b565b5b8260068111156105015761050061119b565b5b03610543576040518060400160405280600481526020017f23464646000000000000000000000000000000000000000000000000000000008152509050610824565b600260068111156105575761055661119b565b5b82600681111561056a5761056961119b565b5b0361067d57600160048111156105835761058261119b565b5b8360048111156105965761059561119b565b5b036105d8576040518060400160405280600781526020017f23454145414541000000000000000000000000000000000000000000000000008152509050610824565b6004808111156105eb576105ea61119b565b5b8360048111156105fe576105fd61119b565b5b03610640576040518060400160405280600781526020017f23444244424442000000000000000000000000000000000000000000000000008152509050610824565b6040518060400160405280600781526020017f23353735373537000000000000000000000000000000000000000000000000008152509050610824565b600360068111156106915761069061119b565b5b8260068111156106a4576106a361119b565b5b036106e6576040518060400160405280600781526020017f23463345414646000000000000000000000000000000000000000000000000008152509050610824565b600460068111156106fa576106f961119b565b5b82600681111561070d5761070c61119b565b5b0361074f576040518060400160405280600781526020017f23454346304646000000000000000000000000000000000000000000000000008152509050610824565b600560068111156107635761076261119b565b5b8260068111156107765761077561119b565b5b036107b8576040518060400160405280600781526020017f23464645374630000000000000000000000000000000000000000000000000008152509050610824565b6006808111156107cb576107ca61119b565b5b8260068111156107de576107dd61119b565b5b03610820576040518060400160405280600781526020017f23464645453933000000000000000000000000000000000000000000000000008152509050610824565b5f80fd5b92915050565b60606108368484610470565b610840858561011f565b6108708460048111156108565761085561119b565b5b60ff16600481111561086b5761086a61119b565b5b610c9e565b6006808111156108835761088261119b565b5b8660068111156108965761089561119b565b5b146108d6576040518060400160405280600481526020017f234646460000000000000000000000000000000000000000000000000000000081525061090d565b6040518060400160405280600781526020017f23464645453933000000000000000000000000000000000000000000000000008152505b604051602001610920949392919061138e565b60405160208183030381529060405290509392505050565b60605f600481111561094d5761094c61119b565b5b8360048111156109605761095f61119b565b5b036109e55773__BodyHoodie____________________________638b80ee8d836040518263ffffffff1660e01b815260040161099c9190611458565b5f60405180830381865af41580156109b6573d5f803e3d5ffd5b505050506040513d5f823e3d601f19601f820116820180604052508101906109de919061158f565b9050610c98565b600160048111156109f9576109f861119b565b5b836004811115610a0c57610a0b61119b565b5b03610a915773__BodyJacket____________________________638b80ee8d836040518263ffffffff1660e01b8152600401610a489190611458565b5f60405180830381865af4158015610a62573d5f803e3d5ffd5b505050506040513d5f823e3d601f19601f82011682018060405250810190610a8a919061158f565b9050610c98565b60026004811115610aa557610aa461119b565b5b836004811115610ab857610ab761119b565b5b03610b3d5773__BodyTanktop___________________________638b80ee8d836040518263ffffffff1660e01b8152600401610af49190611458565b5f60405180830381865af4158015610b0e573d5f803e3d5ffd5b505050506040513d5f823e3d601f19601f82011682018060405250810190610b36919061158f565b9050610c98565b60036004811115610b5157610b5061119b565b5b836004811115610b6457610b6361119b565b5b03610be95773__BodyTShirt____________________________638b80ee8d836040518263ffffffff1660e01b8152600401610ba09190611458565b5f60405180830381865af4158015610bba573d5f803e3d5ffd5b505050506040513d5f823e3d601f19601f82011682018060405250810190610be2919061158f565b9050610c98565b600480811115610bfc57610bfb61119b565b5b836004811115610c0f57610c0e61119b565b5b03610c945773__BodyShibuya___________________________638b80ee8d836040518263ffffffff1660e01b8152600401610c4b9190611458565b5f60405180830381865af4158015610c65573d5f803e3d5ffd5b505050506040513d5f823e3d601f19601f82011682018060405250810190610c8d919061158f565b9050610c98565b5f80fd5b92915050565b60605f6004811115610cb357610cb261119b565b5b826004811115610cc657610cc561119b565b5b03610d08576040518060400160405280600781526020017f23413044313730000000000000000000000000000000000000000000000000008152509050610eaf565b60016004811115610d1c57610d1b61119b565b5b826004811115610d2f57610d2e61119b565b5b03610d71576040518060400160405280600781526020017f23464644324444000000000000000000000000000000000000000000000000008152509050610eaf565b60026004811115610d8557610d8461119b565b5b826004811115610d9857610d9761119b565b5b03610dda576040518060400160405280600781526020017f23454144374646000000000000000000000000000000000000000000000000008152509050610eaf565b60036004811115610dee57610ded61119b565b5b826004811115610e0157610e0061119b565b5b03610e43576040518060400160405280600781526020017f23443945304646000000000000000000000000000000000000000000000000008152509050610eaf565b600480811115610e5657610e5561119b565b5b826004811115610e6957610e6861119b565b5b03610eab576040518060400160405280600781526020017f23463843393434000000000000000000000000000000000000000000000000008152509050610eaf565b5f80fd5b919050565b5f604051905090565b5f80fd5b5f80fd5b60058110610ed1575f80fd5b50565b5f81359050610ee281610ec5565b92915050565b60078110610ef4575f80fd5b50565b5f81359050610f0581610ee8565b92915050565b60038110610f17575f80fd5b50565b5f81359050610f2881610f0b565b92915050565b60058110610f3a575f80fd5b50565b5f81359050610f4b81610f2e565b92915050565b5f805f8060808587031215610f6957610f68610ebd565b5b5f610f7687828801610ed4565b9450506020610f8787828801610ef7565b9350506040610f9887828801610f1a565b9250506060610fa987828801610f3d565b91505092959194509250565b5f81519050919050565b5f82825260208201905092915050565b5f5b83811015610fec578082015181840152602081019050610fd1565b5f8484015250505050565b5f601f19601f8301169050919050565b5f61101182610fb5565b61101b8185610fbf565b935061102b818560208601610fcf565b61103481610ff7565b840191505092915050565b5f6020820190508181035f8301526110578184611007565b905092915050565b5f806040838503121561107557611074610ebd565b5b5f61108285828601610ed4565b925050602061109385828601610ef7565b9150509250929050565b5f81905092915050565b7f3c73766720786d6c6e733d22687474703a2f2f7777772e77332e6f72672f32305f8201527f30302f737667222077696474683d2232313022206865696768743d223333352260208201527f2066696c6c3d226e6f6e65223e00000000000000000000000000000000000000604082015250565b5f611127604d8361109d565b9150611132826110a7565b604d82019050919050565b5f61114782610fb5565b611151818561109d565b9350611161818560208601610fcf565b80840191505092915050565b5f6111778261111b565b9150611183828561113d565b915061118f828461113d565b91508190509392505050565b7f4e487b71000000000000000000000000000000000000000000000000000000005f52602160045260245ffd5b7f3c7374796c653e2e626f6479436f6c6f7231207b66696c6c3a20000000000000815250565b7f7d2e626f6479436f6c6f7232207b66696c6c3a20000000000000000000000000815250565b7f7d2e68616e6473436f6c6f72207b66696c6c3a20000000000000000000000000815250565b7f7d2e6a61636b65745368697274207b66696c6c3a200000000000000000000000815250565b7f7d2e6253747231207b7374726f6b653a20233030303b7374726f6b652d6c696e5f8201527f656361703a20726f756e643b7374726f6b652d6d697465726c696d69743a203160208201527f303b7d2e6253747232207b7374726f6b653a20233030303b7374726f6b652d6c60408201527f696e656361703a20726f756e643b7374726f6b652d6c696e656a6f696e3a207260608201527f6f756e643b7d2e6253747233207b7374726f6b653a20233030303b7374726f6b60808201527f652d6c696e656361703a20726f756e643b7374726f6b652d6f7061636974793a60a08201527f202e313b7374726f6b652d77696474683a20323b7d3c2f7374796c653e00000060c082015250565b5f61137860dd8361109d565b915061138382611260565b60dd82019050919050565b5f611398826111c8565b601a820191506113a8828761113d565b91506113b3826111ee565b6014820191506113c3828661113d565b91506113ce82611214565b6014820191506113de828561113d565b91506113e98261123a565b6015820191506113f9828461113d565b91506114048261136c565b915081905095945050505050565b600381106114235761142261119b565b5b50565b5f81905061143382611412565b919050565b5f61144282611426565b9050919050565b61145281611438565b82525050565b5f60208201905061146b5f830184611449565b92915050565b5f80fd5b5f80fd5b7f4e487b71000000000000000000000000000000000000000000000000000000005f52604160045260245ffd5b6114af82610ff7565b810181811067ffffffffffffffff821117156114ce576114cd611479565b5b80604052505050565b5f6114e0610eb4565b90506114ec82826114a6565b919050565b5f67ffffffffffffffff82111561150b5761150a611479565b5b61151482610ff7565b9050602081019050919050565b5f61153361152e846114f1565b6114d7565b90508281526020810184848401111561154f5761154e611475565b5b61155a848285610fcf565b509392505050565b5f82601f83011261157657611575611471565b5b8151611586848260208601611521565b91505092915050565b5f602082840312156115a4576115a3610ebd565b5b5f82015167ffffffffffffffff8111156115c1576115c0610ec1565b5b6115cd84828501611562565b9150509291505056fea2646970667358221220ce36756d67f69e508bd0cb4fccb73ef1fcc506c1b0b0e50a474bcd9251c4401164736f6c63430008140033",
  "immutableReferences": {},
  "source": "// SPDX-License-Identifier: MIT\npragma solidity ^0.8.0;\n\nimport {Hands} from './Hands.sol';\nimport {Skin} from './Helpers.sol';\nimport {BodyJacket} from './Body/BodyJacket.sol';\nimport {BodyHoodie} from './Body/BodyHoodie.sol';\nimport {BodyTanktop} from './Body/BodyTanktop.sol';\nimport {BodyTShirt} from './Body/BodyTShirt.sol';\nimport {BodyShibuya} from './Body/BodyShibuya.sol';\n\nimport {EduxColors} from './EduxColors.sol';\n\nlibrary Body {\n    enum BodyVariants {\n        HOODIE,\n        JACKET,\n        TANKTOP,\n        TSHIRT,\n        SHIBUYA\n    }\n\n    enum BodyColors {\n        GREEN,\n        LIGHT,\n        DARK,\n        PURPLE,\n        BLUE,\n        PINK,\n        GOLD\n    }\n\n    function getBody(\n        BodyVariants bodyVariant,\n        BodyColors bodyColor,\n        Hands.HandsVariants handsVariant,\n        Hands.HandsColors handsColor\n    ) public pure returns (string memory) {\n        return\n            string.concat(\n                '<svg xmlns=\"http://www.w3.org/2000/svg\" width=\"210\" height=\"335\" fill=\"none\">',\n                _getStyleTag(bodyVariant, bodyColor, handsColor),\n                _getBody(bodyVariant, handsVariant)\n            );\n    }\n\n    function _getBody(\n        BodyVariants bodyVariant,\n        Hands.HandsVariants handsVariant\n    ) internal pure returns (string memory) {\n        if (bodyVariant == BodyVariants.HOODIE) {\n            return BodyHoodie.getBody(handsVariant);\n        } else if (bodyVariant == BodyVariants.JACKET) {\n            return BodyJacket.getBody(handsVariant);\n        } else if (bodyVariant == BodyVariants.TANKTOP) {\n            return BodyTanktop.getBody(handsVariant);\n        } else if (bodyVariant == BodyVariants.TSHIRT) {\n            return BodyTShirt.getBody(handsVariant);\n        } else if (bodyVariant == BodyVariants.SHIBUYA) {\n            return BodyShibuya.getBody(handsVariant);\n        } else {\n            revert(); // Avoid warnings.\n        }\n    }\n\n    function _getStyleTag(\n        BodyVariants bodyVariant,\n        BodyColors bodyColor,\n        Hands.HandsColors handsColor\n    ) internal pure returns (string memory) {\n        return\n            string.concat(\n                '<style>.bodyColor1 {fill: ',\n                getPrimaryBodyColor(bodyVariant, bodyColor),\n                '}.bodyColor2 {fill: ',\n                getSecondaryBodyColor(bodyVariant, bodyColor),\n                '}.handsColor {fill: ',\n                Skin.getSkinColor(Skin.SkinColors(uint8(handsColor))),\n                '}.jacketShirt {fill: ',\n                bodyColor == BodyColors.GOLD ? EduxColors.lightGold : EduxColors.white,\n                '}.bStr1 {stroke: #000;stroke-linecap: round;stroke-miterlimit: 10;}.bStr2 {stroke: #000;stroke-linecap: round;stroke-linejoin: round;}.bStr3 {stroke: #000;stroke-linecap: round;stroke-opacity: .1;stroke-width: 2;}</style>'\n            );\n    }\n\n    function getPrimaryBodyColor(BodyVariants bodyVariant, BodyColors bodyColor) public pure returns (string memory) {\n        if (bodyColor == BodyColors.GREEN) {\n            return EduxColors.lightGreen;\n        } else if (bodyColor == BodyColors.LIGHT) {\n            return EduxColors.white;\n        } else if (bodyColor == BodyColors.DARK) {\n            if (bodyVariant == BodyVariants.JACKET) {\n                return EduxColors.lightGray;\n            } else if (bodyVariant == BodyVariants.SHIBUYA) {\n                return EduxColors.gray;\n            } else {\n                return EduxColors.dark;\n            }\n        } else if (bodyColor == BodyColors.PURPLE) {\n            return EduxColors.lightPurple;\n        } else if (bodyColor == BodyColors.BLUE) {\n            return EduxColors.lightBlue;\n        } else if (bodyColor == BodyColors.PINK) {\n            return EduxColors.lightPink;\n        } else if (bodyColor == BodyColors.GOLD) {\n            return EduxColors.lightGold;\n        } else {\n            revert(); // Avoid warnings.\n        }\n    }\n\n    // We don't need variant because this is only used in Jacket\n    function getSecondaryBodyColor(BodyVariants bodyVariant, BodyColors bodyColor) public pure returns (string memory) {\n        if (bodyColor == BodyColors.GREEN) {\n            return EduxColors.darkGreen;\n        } else if (bodyColor == BodyColors.LIGHT) {\n            if (bodyVariant == BodyVariants.SHIBUYA) {\n                return EduxColors.gray;\n            } else {\n                return EduxColors.lightGray;\n            }\n        } else if (bodyColor == BodyColors.DARK) {\n            return EduxColors.dark;\n        } else if (bodyColor == BodyColors.PINK) {\n            return EduxColors.darkPink;\n        } else if (bodyColor == BodyColors.PURPLE) {\n            return EduxColors.darkPurple;\n        } else if (bodyColor == BodyColors.BLUE) {\n            return EduxColors.darkBlue;\n        } else if (bodyColor == BodyColors.GOLD) {\n            return EduxColors.baseGold;\n        } else {\n            revert(); // Avoid warnings.\n        }\n    }\n}\n",
  "sourcePath": "E:\\Blockchain\\EDUIndex\\EduxContract\\contracts\\libraries\\svgs\\Profile\\Body.sol",
  "compiler": {
    "name": "solc",
    "version": "0.8.20+commit.a1b79de6.Emscripten.clang"
  },
  "schemaVersion": "3.4.3",
  "updatedAt": "2024-08-25T13:13:21.543Z",
  "devdoc": {
    "kind": "dev",
    "methods": {},
    "version": 1
  },
  "userdoc": {
    "kind": "user",
    "methods": {},
    "version": 1
  }
}