{
  "contractName": "EduxModuleMetadata",
  "abi": [
    {
      "inputs": [
        {
          "internalType": "address",
          "name": "owner_",
          "type": "address"
        }
      ],
      "stateMutability": "nonpayable",
      "type": "constructor"
    },
    {
      "anonymous": false,
      "inputs": [
        {
          "indexed": true,
          "internalType": "address",
          "name": "previousOwner",
          "type": "address"
        },
        {
          "indexed": true,
          "internalType": "address",
          "name": "newOwner",
          "type": "address"
        }
      ],
      "name": "OwnershipTransferred",
      "type": "event"
    },
    {
      "inputs": [],
      "name": "metadataURI",
      "outputs": [
        {
          "internalType": "string",
          "name": "",
          "type": "string"
        }
      ],
      "stateMutability": "view",
      "type": "function"
    },
    {
      "inputs": [],
      "name": "owner",
      "outputs": [
        {
          "internalType": "address",
          "name": "",
          "type": "address"
        }
      ],
      "stateMutability": "view",
      "type": "function"
    },
    {
      "inputs": [],
      "name": "renounceOwnership",
      "outputs": [],
      "stateMutability": "nonpayable",
      "type": "function"
    },
    {
      "inputs": [
        {
          "internalType": "bytes4",
          "name": "interfaceID",
          "type": "bytes4"
        }
      ],
      "name": "supportsInterface",
      "outputs": [
        {
          "internalType": "bool",
          "name": "",
          "type": "bool"
        }
      ],
      "stateMutability": "pure",
      "type": "function"
    },
    {
      "inputs": [
        {
          "internalType": "address",
          "name": "newOwner",
          "type": "address"
        }
      ],
      "name": "transferOwnership",
      "outputs": [],
      "stateMutability": "nonpayable",
      "type": "function"
    },
    {
      "inputs": [
        {
          "internalType": "string",
          "name": "_metadataURI",
          "type": "string"
        }
      ],
      "name": "setModuleMetadataURI",
      "outputs": [],
      "stateMutability": "nonpayable",
      "type": "function"
    },
    {
      "inputs": [],
      "name": "getModuleMetadataURI",
      "outputs": [
        {
          "internalType": "string",
          "name": "",
          "type": "string"
        }
      ],
      "stateMutability": "view",
      "type": "function"
    }
  ],
  "bytecode": "0x608060405234801562000010575f80fd5b5060405162000ebe38038062000ebe83398181016040528101906200003691906200019b565b620000566200004a6200006e60201b60201c565b6200007560201b60201c565b62000067816200007560201b60201c565b50620001cb565b5f33905090565b5f805f9054906101000a900473ffffffffffffffffffffffffffffffffffffffff169050815f806101000a81548173ffffffffffffffffffffffffffffffffffffffff021916908373ffffffffffffffffffffffffffffffffffffffff1602179055508173ffffffffffffffffffffffffffffffffffffffff168173ffffffffffffffffffffffffffffffffffffffff167f8be0079c531659141344cd1fd0a4f28419497f9722a3daafe3b4186f6b6457e060405160405180910390a35050565b5f80fd5b5f73ffffffffffffffffffffffffffffffffffffffff82169050919050565b5f62000165826200013a565b9050919050565b620001778162000159565b811462000182575f80fd5b50565b5f8151905062000195816200016c565b92915050565b5f60208284031215620001b357620001b262000136565b5b5f620001c28482850162000185565b91505092915050565b610ce580620001d95f395ff3fe608060405234801561000f575f80fd5b506004361061007b575f3560e01c8063715018a611610059578063715018a6146100e95780638da5cb5b146100f3578063ce90d52e14610111578063f2fde38b1461012f5761007b565b806301ffc9a71461007f57806303ee438c146100af578063681591c1146100cd575b5f80fd5b61009960048036038101906100949190610557565b61014b565b6040516100a6919061059c565b60405180910390f35b6100b76101b8565b6040516100c4919061063f565b60405180910390f35b6100e760048036038101906100e2919061078b565b610244565b005b6100f161025f565b005b6100fb610272565b6040516101089190610811565b60405180910390f35b610119610299565b604051610126919061063f565b60405180910390f35b61014960048036038101906101449190610854565b610329565b005b5f60405160200161015b906108d3565b604051602081830303815290604052805190602001207bffffffffffffffffffffffffffffffffffffffffffffffffffffffff1916827bffffffffffffffffffffffffffffffffffffffffffffffffffffffff1916149050919050565b600180546101c590610914565b80601f01602080910402602001604051908101604052809291908181526020018280546101f190610914565b801561023c5780601f106102135761010080835404028352916020019161023c565b820191905f5260205f20905b81548152906001019060200180831161021f57829003601f168201915b505050505081565b61024c6103ab565b806001908161025b9190610aea565b5050565b6102676103ab565b6102705f610429565b565b5f805f9054906101000a900473ffffffffffffffffffffffffffffffffffffffff16905090565b6060600180546102a890610914565b80601f01602080910402602001604051908101604052809291908181526020018280546102d490610914565b801561031f5780601f106102f65761010080835404028352916020019161031f565b820191905f5260205f20905b81548152906001019060200180831161030257829003601f168201915b5050505050905090565b6103316103ab565b5f73ffffffffffffffffffffffffffffffffffffffff168173ffffffffffffffffffffffffffffffffffffffff160361039f576040517f08c379a000000000000000000000000000000000000000000000000000000000815260040161039690610c29565b60405180910390fd5b6103a881610429565b50565b6103b36104ea565b73ffffffffffffffffffffffffffffffffffffffff166103d1610272565b73ffffffffffffffffffffffffffffffffffffffff1614610427576040517f08c379a000000000000000000000000000000000000000000000000000000000815260040161041e90610c91565b60405180910390fd5b565b5f805f9054906101000a900473ffffffffffffffffffffffffffffffffffffffff169050815f806101000a81548173ffffffffffffffffffffffffffffffffffffffff021916908373ffffffffffffffffffffffffffffffffffffffff1602179055508173ffffffffffffffffffffffffffffffffffffffff168173ffffffffffffffffffffffffffffffffffffffff167f8be0079c531659141344cd1fd0a4f28419497f9722a3daafe3b4186f6b6457e060405160405180910390a35050565b5f33905090565b5f604051905090565b5f80fd5b5f80fd5b5f7fffffffff0000000000000000000000000000000000000000000000000000000082169050919050565b61053681610502565b8114610540575f80fd5b50565b5f813590506105518161052d565b92915050565b5f6020828403121561056c5761056b6104fa565b5b5f61057984828501610543565b91505092915050565b5f8115159050919050565b61059681610582565b82525050565b5f6020820190506105af5f83018461058d565b92915050565b5f81519050919050565b5f82825260208201905092915050565b5f5b838110156105ec5780820151818401526020810190506105d1565b5f8484015250505050565b5f601f19601f8301169050919050565b5f610611826105b5565b61061b81856105bf565b935061062b8185602086016105cf565b610634816105f7565b840191505092915050565b5f6020820190508181035f8301526106578184610607565b905092915050565b5f80fd5b5f80fd5b7f4e487b71000000000000000000000000000000000000000000000000000000005f52604160045260245ffd5b61069d826105f7565b810181811067ffffffffffffffff821117156106bc576106bb610667565b5b80604052505050565b5f6106ce6104f1565b90506106da8282610694565b919050565b5f67ffffffffffffffff8211156106f9576106f8610667565b5b610702826105f7565b9050602081019050919050565b828183375f83830152505050565b5f61072f61072a846106df565b6106c5565b90508281526020810184848401111561074b5761074a610663565b5b61075684828561070f565b509392505050565b5f82601f8301126107725761077161065f565b5b813561078284826020860161071d565b91505092915050565b5f602082840312156107a05761079f6104fa565b5b5f82013567ffffffffffffffff8111156107bd576107bc6104fe565b5b6107c98482850161075e565b91505092915050565b5f73ffffffffffffffffffffffffffffffffffffffff82169050919050565b5f6107fb826107d2565b9050919050565b61080b816107f1565b82525050565b5f6020820190506108245f830184610802565b92915050565b610833816107f1565b811461083d575f80fd5b50565b5f8135905061084e8161082a565b92915050565b5f60208284031215610869576108686104fa565b5b5f61087684828501610840565b91505092915050565b5f81905092915050565b7f456475785f4d4f44554c450000000000000000000000000000000000000000005f82015250565b5f6108bd600b8361087f565b91506108c882610889565b600b82019050919050565b5f6108dd826108b1565b9150819050919050565b7f4e487b71000000000000000000000000000000000000000000000000000000005f52602260045260245ffd5b5f600282049050600182168061092b57607f821691505b60208210810361093e5761093d6108e7565b5b50919050565b5f819050815f5260205f209050919050565b5f6020601f8301049050919050565b5f82821b905092915050565b5f600883026109a07fffffffffffffffffffffffffffffffffffffffffffffffffffffffffffffffff82610965565b6109aa8683610965565b95508019841693508086168417925050509392505050565b5f819050919050565b5f819050919050565b5f6109ee6109e96109e4846109c2565b6109cb565b6109c2565b9050919050565b5f819050919050565b610a07836109d4565b610a1b610a13826109f5565b848454610971565b825550505050565b5f90565b610a2f610a23565b610a3a8184846109fe565b505050565b5b81811015610a5d57610a525f82610a27565b600181019050610a40565b5050565b601f821115610aa257610a7381610944565b610a7c84610956565b81016020851015610a8b578190505b610a9f610a9785610956565b830182610a3f565b50505b505050565b5f82821c905092915050565b5f610ac25f1984600802610aa7565b1980831691505092915050565b5f610ada8383610ab3565b9150826002028217905092915050565b610af3826105b5565b67ffffffffffffffff811115610b0c57610b0b610667565b5b610b168254610914565b610b21828285610a61565b5f60209050601f831160018114610b52575f8415610b40578287015190505b610b4a8582610acf565b865550610bb1565b601f198416610b6086610944565b5f5b82811015610b8757848901518255600182019150602085019450602081019050610b62565b86831015610ba45784890151610ba0601f891682610ab3565b8355505b6001600288020188555050505b505050505050565b7f4f776e61626c653a206e6577206f776e657220697320746865207a65726f20615f8201527f6464726573730000000000000000000000000000000000000000000000000000602082015250565b5f610c136026836105bf565b9150610c1e82610bb9565b604082019050919050565b5f6020820190508181035f830152610c4081610c07565b9050919050565b7f4f776e61626c653a2063616c6c6572206973206e6f7420746865206f776e65725f82015250565b5f610c7b6020836105bf565b9150610c8682610c47565b602082019050919050565b5f6020820190508181035f830152610ca881610c6f565b905091905056fea264697066735822122014c784478eb8a5088f91d366abf6bb3b628009f93dc40b84c5ca07351c5dad0564736f6c63430008140033",
  "immutableReferences": {},
  "source": "// SPDX-License-Identifier: MIT\r\npragma solidity ^0.8.18;\r\n\r\nimport {Ownable} from '@openzeppelin/contracts/access/Ownable.sol';\r\nimport {EduxModule} from './EduxModule.sol';\r\n\r\ncontract EduxModuleMetadata is EduxModule, Ownable {\r\n    string public metadataURI;\r\n\r\n    constructor(address owner_) Ownable() {\r\n        _transferOwnership(owner_);\r\n    }\r\n\r\n    function setModuleMetadataURI(string memory _metadataURI) external onlyOwner {\r\n        metadataURI = _metadataURI;\r\n    }\r\n\r\n    function getModuleMetadataURI() external view returns (string memory) {\r\n        return metadataURI;\r\n    }\r\n}",
  "sourcePath": "E:\\Blockchain\\EDUIndex\\EduxContract\\contracts\\modules\\EduxModuleMetadata.sol",
  "compiler": {
    "name": "solc",
    "version": "0.8.20+commit.a1b79de6.Emscripten.clang"
  },
  "schemaVersion": "3.4.3",
  "updatedAt": "2024-08-25T13:13:22.203Z",
  "devdoc": {
    "kind": "dev",
    "methods": {
      "owner()": {
        "details": "Returns the address of the current owner."
      },
      "renounceOwnership()": {
        "details": "Leaves the contract without owner. It will not be possible to call `onlyOwner` functions anymore. Can only be called by the current owner. NOTE: Renouncing ownership will leave the contract without an owner, thereby removing any functionality that is only available to the owner."
      },
      "supportsInterface(bytes4)": {
        "details": "for now we check for keccak('EDUX_MODULE'); Override this and add the type(IModuleInterface).interfaceId for corresponding module type"
      },
      "transferOwnership(address)": {
        "details": "Transfers ownership of the contract to a new account (`newOwner`). Can only be called by the current owner."
      }
    },
    "version": 1
  },
  "userdoc": {
    "kind": "user",
    "methods": {
      "getModuleMetadataURI()": {
        "notice": "Human-readable description of the module"
      }
    },
    "version": 1
  }
}