{
  "contractName": "EduxHub",
  "abi": [
    {
      "inputs": [
        {
          "internalType": "address",
          "name": "moduleRegistry",
          "type": "address"
        },
        {
          "internalType": "address",
          "name": "newGovernance",
          "type": "address"
        },
        {
          "internalType": "string",
          "name": "name",
          "type": "string"
        },
        {
          "internalType": "string",
          "name": "symbol",
          "type": "string"
        }
      ],
      "stateMutability": "nonpayable",
      "type": "constructor"
    },
    {
      "inputs": [],
      "name": "InitParamsInvalid",
      "type": "error"
    },
    {
      "inputs": [],
      "name": "InvalidOwner",
      "type": "error"
    },
    {
      "inputs": [],
      "name": "InvalidParameter",
      "type": "error"
    },
    {
      "inputs": [],
      "name": "NonERC721ReceiverImplementer",
      "type": "error"
    },
    {
      "inputs": [],
      "name": "NotAllowed",
      "type": "error"
    },
    {
      "inputs": [],
      "name": "NotGovernance",
      "type": "error"
    },
    {
      "inputs": [],
      "name": "NotOwnerOrApproved",
      "type": "error"
    },
    {
      "inputs": [],
      "name": "NotProfileOwner",
      "type": "error"
    },
    {
      "inputs": [],
      "name": "NotWhitelisted",
      "type": "error"
    },
    {
      "inputs": [],
      "name": "Paused",
      "type": "error"
    },
    {
      "inputs": [],
      "name": "ProtocolFeeIsNotCorrect",
      "type": "error"
    },
    {
      "inputs": [],
      "name": "PublishingPaused",
      "type": "error"
    },
    {
      "inputs": [],
      "name": "TokenDoesNotExist",
      "type": "error"
    },
    {
      "anonymous": false,
      "inputs": [
        {
          "indexed": true,
          "internalType": "address",
          "name": "owner",
          "type": "address"
        },
        {
          "indexed": true,
          "internalType": "address",
          "name": "approved",
          "type": "address"
        },
        {
          "indexed": true,
          "internalType": "uint256",
          "name": "tokenId",
          "type": "uint256"
        }
      ],
      "name": "Approval",
      "type": "event"
    },
    {
      "anonymous": false,
      "inputs": [
        {
          "indexed": true,
          "internalType": "address",
          "name": "owner",
          "type": "address"
        },
        {
          "indexed": true,
          "internalType": "address",
          "name": "operator",
          "type": "address"
        },
        {
          "indexed": false,
          "internalType": "bool",
          "name": "approved",
          "type": "bool"
        }
      ],
      "name": "ApprovalForAll",
      "type": "event"
    },
    {
      "anonymous": false,
      "inputs": [
        {
          "indexed": false,
          "internalType": "uint256",
          "name": "fromTokenId",
          "type": "uint256"
        },
        {
          "indexed": false,
          "internalType": "uint256",
          "name": "toTokenId",
          "type": "uint256"
        }
      ],
      "name": "BatchMetadataUpdate",
      "type": "event"
    },
    {
      "anonymous": false,
      "inputs": [
        {
          "indexed": true,
          "internalType": "address",
          "name": "from",
          "type": "address"
        },
        {
          "indexed": true,
          "internalType": "address",
          "name": "to",
          "type": "address"
        },
        {
          "indexed": true,
          "internalType": "uint256",
          "name": "tokenId",
          "type": "uint256"
        }
      ],
      "name": "Transfer",
      "type": "event"
    },
    {
      "anonymous": false,
      "inputs": [
        {
          "indexed": true,
          "internalType": "uint256",
          "name": "prevTreasuryFee",
          "type": "uint256"
        },
        {
          "indexed": true,
          "internalType": "uint256",
          "name": "newTreasuryFee",
          "type": "uint256"
        },
        {
          "indexed": true,
          "internalType": "address",
          "name": "currency",
          "type": "address"
        },
        {
          "indexed": false,
          "internalType": "uint256",
          "name": "timestamp",
          "type": "uint256"
        }
      ],
      "name": "TreasuryFeeSet",
      "type": "event"
    },
    {
      "anonymous": false,
      "inputs": [
        {
          "indexed": true,
          "internalType": "uint16",
          "name": "prevTreasuryFee",
          "type": "uint16"
        },
        {
          "indexed": true,
          "internalType": "uint16",
          "name": "newTreasuryFee",
          "type": "uint16"
        },
        {
          "indexed": false,
          "internalType": "uint256",
          "name": "timestamp",
          "type": "uint256"
        }
      ],
      "name": "TreasuryFeeSetBPS",
      "type": "event"
    },
    {
      "anonymous": false,
      "inputs": [
        {
          "indexed": true,
          "internalType": "address",
          "name": "prevTreasury",
          "type": "address"
        },
        {
          "indexed": true,
          "internalType": "address",
          "name": "newTreasury",
          "type": "address"
        },
        {
          "indexed": false,
          "internalType": "uint256",
          "name": "timestamp",
          "type": "uint256"
        }
      ],
      "name": "TreasurySet",
      "type": "event"
    },
    {
      "inputs": [
        {
          "internalType": "address",
          "name": "to",
          "type": "address"
        },
        {
          "internalType": "uint256",
          "name": "tokenId",
          "type": "uint256"
        }
      ],
      "name": "approve",
      "outputs": [],
      "stateMutability": "nonpayable",
      "type": "function"
    },
    {
      "inputs": [
        {
          "internalType": "address",
          "name": "owner",
          "type": "address"
        }
      ],
      "name": "balanceOf",
      "outputs": [
        {
          "internalType": "uint256",
          "name": "",
          "type": "uint256"
        }
      ],
      "stateMutability": "view",
      "type": "function",
      "constant": true
    },
    {
      "inputs": [
        {
          "internalType": "uint256",
          "name": "tokenId",
          "type": "uint256"
        }
      ],
      "name": "burn",
      "outputs": [],
      "stateMutability": "nonpayable",
      "type": "function"
    },
    {
      "inputs": [
        {
          "internalType": "uint256",
          "name": "tokenId",
          "type": "uint256"
        }
      ],
      "name": "exists",
      "outputs": [
        {
          "internalType": "bool",
          "name": "",
          "type": "bool"
        }
      ],
      "stateMutability": "view",
      "type": "function",
      "constant": true
    },
    {
      "inputs": [
        {
          "internalType": "uint256",
          "name": "tokenId",
          "type": "uint256"
        }
      ],
      "name": "getApproved",
      "outputs": [
        {
          "internalType": "address",
          "name": "",
          "type": "address"
        }
      ],
      "stateMutability": "view",
      "type": "function",
      "constant": true
    },
    {
      "inputs": [],
      "name": "getGovernance",
      "outputs": [
        {
          "internalType": "address",
          "name": "",
          "type": "address"
        }
      ],
      "stateMutability": "view",
      "type": "function",
      "constant": true
    },
    {
      "inputs": [],
      "name": "getProfileTokenURIContract",
      "outputs": [
        {
          "internalType": "address",
          "name": "",
          "type": "address"
        }
      ],
      "stateMutability": "view",
      "type": "function",
      "constant": true
    },
    {
      "inputs": [],
      "name": "getState",
      "outputs": [
        {
          "internalType": "enum Types.ProtocolState",
          "name": "",
          "type": "uint8"
        }
      ],
      "stateMutability": "view",
      "type": "function",
      "constant": true
    },
    {
      "inputs": [],
      "name": "getTreasury",
      "outputs": [
        {
          "internalType": "address",
          "name": "",
          "type": "address"
        }
      ],
      "stateMutability": "view",
      "type": "function",
      "constant": true
    },
    {
      "inputs": [],
      "name": "getTreasuryData",
      "outputs": [
        {
          "internalType": "address",
          "name": "",
          "type": "address"
        },
        {
          "internalType": "uint16",
          "name": "",
          "type": "uint16"
        }
      ],
      "stateMutability": "view",
      "type": "function",
      "constant": true
    },
    {
      "inputs": [
        {
          "internalType": "address",
          "name": "currency",
          "type": "address"
        }
      ],
      "name": "getTreasuryFee",
      "outputs": [
        {
          "internalType": "uint256",
          "name": "",
          "type": "uint256"
        }
      ],
      "stateMutability": "view",
      "type": "function",
      "constant": true
    },
    {
      "inputs": [],
      "name": "getTreasuryFeeBPS",
      "outputs": [
        {
          "internalType": "uint16",
          "name": "",
          "type": "uint16"
        }
      ],
      "stateMutability": "view",
      "type": "function",
      "constant": true
    },
    {
      "inputs": [
        {
          "internalType": "address",
          "name": "owner",
          "type": "address"
        },
        {
          "internalType": "address",
          "name": "operator",
          "type": "address"
        }
      ],
      "name": "isApprovedForAll",
      "outputs": [
        {
          "internalType": "bool",
          "name": "",
          "type": "bool"
        }
      ],
      "stateMutability": "view",
      "type": "function",
      "constant": true
    },
    {
      "inputs": [
        {
          "internalType": "address",
          "name": "profileCreator",
          "type": "address"
        }
      ],
      "name": "isProfileCreatorWhitelisted",
      "outputs": [
        {
          "internalType": "bool",
          "name": "",
          "type": "bool"
        }
      ],
      "stateMutability": "view",
      "type": "function",
      "constant": true
    },
    {
      "inputs": [
        {
          "internalType": "uint256",
          "name": "tokenId",
          "type": "uint256"
        }
      ],
      "name": "mintTimestampOf",
      "outputs": [
        {
          "internalType": "uint96",
          "name": "",
          "type": "uint96"
        }
      ],
      "stateMutability": "view",
      "type": "function",
      "constant": true
    },
    {
      "inputs": [],
      "name": "name",
      "outputs": [
        {
          "internalType": "string",
          "name": "",
          "type": "string"
        }
      ],
      "stateMutability": "view",
      "type": "function",
      "constant": true
    },
    {
      "inputs": [
        {
          "internalType": "uint256",
          "name": "tokenId",
          "type": "uint256"
        }
      ],
      "name": "ownerOf",
      "outputs": [
        {
          "internalType": "address",
          "name": "",
          "type": "address"
        }
      ],
      "stateMutability": "view",
      "type": "function",
      "constant": true
    },
    {
      "inputs": [
        {
          "internalType": "address",
          "name": "from",
          "type": "address"
        },
        {
          "internalType": "address",
          "name": "to",
          "type": "address"
        },
        {
          "internalType": "uint256",
          "name": "tokenId",
          "type": "uint256"
        }
      ],
      "name": "safeTransferFrom",
      "outputs": [],
      "stateMutability": "nonpayable",
      "type": "function"
    },
    {
      "inputs": [
        {
          "internalType": "address",
          "name": "from",
          "type": "address"
        },
        {
          "internalType": "address",
          "name": "to",
          "type": "address"
        },
        {
          "internalType": "uint256",
          "name": "tokenId",
          "type": "uint256"
        },
        {
          "internalType": "bytes",
          "name": "_data",
          "type": "bytes"
        }
      ],
      "name": "safeTransferFrom",
      "outputs": [],
      "stateMutability": "nonpayable",
      "type": "function"
    },
    {
      "inputs": [
        {
          "internalType": "address",
          "name": "operator",
          "type": "address"
        },
        {
          "internalType": "bool",
          "name": "approved",
          "type": "bool"
        }
      ],
      "name": "setApprovalForAll",
      "outputs": [],
      "stateMutability": "nonpayable",
      "type": "function"
    },
    {
      "inputs": [
        {
          "internalType": "address",
          "name": "newEmergencyAdmin",
          "type": "address"
        }
      ],
      "name": "setEmergencyAdmin",
      "outputs": [],
      "stateMutability": "nonpayable",
      "type": "function"
    },
    {
      "inputs": [
        {
          "internalType": "address",
          "name": "newGovernance",
          "type": "address"
        }
      ],
      "name": "setGovernance",
      "outputs": [],
      "stateMutability": "nonpayable",
      "type": "function"
    },
    {
      "inputs": [
        {
          "internalType": "address",
          "name": "profileTokenURIContract",
          "type": "address"
        }
      ],
      "name": "setProfileTokenURIContract",
      "outputs": [],
      "stateMutability": "nonpayable",
      "type": "function"
    },
    {
      "inputs": [
        {
          "internalType": "enum Types.ProtocolState",
          "name": "newState",
          "type": "uint8"
        }
      ],
      "name": "setState",
      "outputs": [],
      "stateMutability": "nonpayable",
      "type": "function"
    },
    {
      "inputs": [
        {
          "internalType": "address",
          "name": "newTreasury",
          "type": "address"
        }
      ],
      "name": "setTreasury",
      "outputs": [],
      "stateMutability": "nonpayable",
      "type": "function"
    },
    {
      "inputs": [
        {
          "internalType": "uint256",
          "name": "newTreasuryFee",
          "type": "uint256"
        },
        {
          "internalType": "address",
          "name": "currency",
          "type": "address"
        }
      ],
      "name": "setTreasuryFee",
      "outputs": [],
      "stateMutability": "nonpayable",
      "type": "function"
    },
    {
      "inputs": [
        {
          "internalType": "uint16",
          "name": "newTreasuryFee",
          "type": "uint16"
        }
      ],
      "name": "setTreasuryFeeBPS",
      "outputs": [],
      "stateMutability": "nonpayable",
      "type": "function"
    },
    {
      "inputs": [
        {
          "internalType": "bytes4",
          "name": "interfaceId",
          "type": "bytes4"
        }
      ],
      "name": "supportsInterface",
      "outputs": [
        {
          "internalType": "bool",
          "name": "",
          "type": "bool"
        }
      ],
      "stateMutability": "view",
      "type": "function",
      "constant": true
    },
    {
      "inputs": [],
      "name": "symbol",
      "outputs": [
        {
          "internalType": "string",
          "name": "",
          "type": "string"
        }
      ],
      "stateMutability": "view",
      "type": "function",
      "constant": true
    },
    {
      "inputs": [
        {
          "internalType": "uint256",
          "name": "tokenId",
          "type": "uint256"
        }
      ],
      "name": "tokenDataOf",
      "outputs": [
        {
          "components": [
            {
              "internalType": "address",
              "name": "owner",
              "type": "address"
            },
            {
              "internalType": "uint96",
              "name": "mintTimestamp",
              "type": "uint96"
            }
          ],
          "internalType": "struct Types.TokenData",
          "name": "",
          "type": "tuple"
        }
      ],
      "stateMutability": "view",
      "type": "function",
      "constant": true
    },
    {
      "inputs": [
        {
          "internalType": "uint256",
          "name": "tokenId",
          "type": "uint256"
        }
      ],
      "name": "tokenURI",
      "outputs": [
        {
          "internalType": "string",
          "name": "",
          "type": "string"
        }
      ],
      "stateMutability": "view",
      "type": "function",
      "constant": true
    },
    {
      "inputs": [],
      "name": "totalSupply",
      "outputs": [
        {
          "internalType": "uint256",
          "name": "",
          "type": "uint256"
        }
      ],
      "stateMutability": "view",
      "type": "function",
      "constant": true
    },
    {
      "inputs": [
        {
          "internalType": "address",
          "name": "from",
          "type": "address"
        },
        {
          "internalType": "address",
          "name": "to",
          "type": "address"
        },
        {
          "internalType": "uint256",
          "name": "tokenId",
          "type": "uint256"
        }
      ],
      "name": "transferFrom",
      "outputs": [],
      "stateMutability": "nonpayable",
      "type": "function"
    },
    {
      "inputs": [
        {
          "internalType": "address",
          "name": "from",
          "type": "address"
        },
        {
          "internalType": "address",
          "name": "to",
          "type": "address"
        },
        {
          "internalType": "uint256",
          "name": "tokenId",
          "type": "uint256"
        }
      ],
      "name": "transferProfile",
      "outputs": [],
      "stateMutability": "nonpayable",
      "type": "function"
    },
    {
      "inputs": [
        {
          "internalType": "address",
          "name": "profileCreator",
          "type": "address"
        },
        {
          "internalType": "bool",
          "name": "whitelist",
          "type": "bool"
        }
      ],
      "name": "whitelistProfileCreator",
      "outputs": [],
      "stateMutability": "nonpayable",
      "type": "function"
    },
    {
      "inputs": [
        {
          "components": [
            {
              "internalType": "address",
              "name": "to",
              "type": "address"
            }
          ],
          "internalType": "struct Types.CreateProfileParams",
          "name": "createProfileParams",
          "type": "tuple"
        }
      ],
      "name": "createProfile",
      "outputs": [
        {
          "internalType": "uint256",
          "name": "",
          "type": "uint256"
        }
      ],
      "stateMutability": "nonpayable",
      "type": "function"
    },
    {
      "inputs": [
        {
          "internalType": "uint256",
          "name": "profileId",
          "type": "uint256"
        },
        {
          "internalType": "string",
          "name": "metadataURI",
          "type": "string"
        }
      ],
      "name": "setProfileMetadataURI",
      "outputs": [],
      "stateMutability": "nonpayable",
      "type": "function"
    },
    {
      "inputs": [
        {
          "components": [
            {
              "internalType": "uint256",
              "name": "profileId",
              "type": "uint256"
            },
            {
              "internalType": "string",
              "name": "contentURI",
              "type": "string"
            },
            {
              "internalType": "address",
              "name": "certificateModule",
              "type": "address"
            },
            {
              "internalType": "address",
              "name": "collectModule",
              "type": "address"
            },
            {
              "internalType": "bytes",
              "name": "collectModulesInitData",
              "type": "bytes"
            }
          ],
          "internalType": "struct Types.CourseParams",
          "name": "courseParams",
          "type": "tuple"
        }
      ],
      "name": "course",
      "outputs": [
        {
          "internalType": "uint256",
          "name": "",
          "type": "uint256"
        }
      ],
      "stateMutability": "nonpayable",
      "type": "function"
    },
    {
      "inputs": [
        {
          "components": [
            {
              "internalType": "uint256",
              "name": "profileId",
              "type": "uint256"
            },
            {
              "internalType": "string",
              "name": "contentURI",
              "type": "string"
            },
            {
              "internalType": "uint256",
              "name": "pointedProfileId",
              "type": "uint256"
            },
            {
              "internalType": "uint256",
              "name": "pointedPubId",
              "type": "uint256"
            },
            {
              "internalType": "address[]",
              "name": "actionModules",
              "type": "address[]"
            },
            {
              "internalType": "bytes[]",
              "name": "actionModulesInitDatas",
              "type": "bytes[]"
            }
          ],
          "internalType": "struct Types.LessonParams",
          "name": "lessonParams",
          "type": "tuple"
        }
      ],
      "name": "lesson",
      "outputs": [
        {
          "internalType": "uint256",
          "name": "",
          "type": "uint256"
        }
      ],
      "stateMutability": "nonpayable",
      "type": "function"
    },
    {
      "inputs": [
        {
          "components": [
            {
              "internalType": "uint256",
              "name": "profileId",
              "type": "uint256"
            },
            {
              "internalType": "string",
              "name": "contentURI",
              "type": "string"
            },
            {
              "internalType": "uint256",
              "name": "pointedProfileId",
              "type": "uint256"
            },
            {
              "internalType": "uint256",
              "name": "pointedPubId",
              "type": "uint256"
            }
          ],
          "internalType": "struct Types.RatingParams",
          "name": "ratingParams",
          "type": "tuple"
        }
      ],
      "name": "rating",
      "outputs": [
        {
          "internalType": "uint256",
          "name": "",
          "type": "uint256"
        }
      ],
      "stateMutability": "nonpayable",
      "type": "function"
    },
    {
      "inputs": [
        {
          "components": [
            {
              "internalType": "uint256",
              "name": "profileId",
              "type": "uint256"
            },
            {
              "internalType": "string",
              "name": "metadataURI",
              "type": "string"
            },
            {
              "internalType": "uint256",
              "name": "pointedProfileId",
              "type": "uint256"
            },
            {
              "internalType": "uint256",
              "name": "pointedPubId",
              "type": "uint256"
            }
          ],
          "internalType": "struct Types.ProgressParams[]",
          "name": "progressParams",
          "type": "tuple[]"
        }
      ],
      "name": "bulkprogress",
      "outputs": [
        {
          "internalType": "uint256[]",
          "name": "",
          "type": "uint256[]"
        }
      ],
      "stateMutability": "nonpayable",
      "type": "function"
    },
    {
      "inputs": [
        {
          "components": [
            {
              "internalType": "uint256",
              "name": "publicationCollectedProfileId",
              "type": "uint256"
            },
            {
              "internalType": "uint256",
              "name": "publicationCollectedId",
              "type": "uint256"
            },
            {
              "internalType": "uint256",
              "name": "collectorProfileId",
              "type": "uint256"
            },
            {
              "internalType": "address",
              "name": "currency",
              "type": "address"
            },
            {
              "internalType": "address",
              "name": "collectModuleAddress",
              "type": "address"
            },
            {
              "internalType": "bytes",
              "name": "collectModuleData",
              "type": "bytes"
            }
          ],
          "internalType": "struct Types.PublicationCollectParams",
          "name": "publicationCollectParams",
          "type": "tuple"
        }
      ],
      "name": "collect",
      "outputs": [
        {
          "internalType": "bytes",
          "name": "",
          "type": "bytes"
        }
      ],
      "stateMutability": "payable",
      "type": "function",
      "payable": true
    },
    {
      "inputs": [
        {
          "internalType": "uint256",
          "name": "profileId",
          "type": "uint256"
        },
        {
          "internalType": "uint256",
          "name": "pointedProfileId",
          "type": "uint256"
        },
        {
          "internalType": "uint256",
          "name": "pointedPublication",
          "type": "uint256"
        }
      ],
      "name": "completeCourse",
      "outputs": [
        {
          "internalType": "uint256",
          "name": "",
          "type": "uint256"
        }
      ],
      "stateMutability": "nonpayable",
      "type": "function"
    },
    {
      "inputs": [
        {
          "components": [
            {
              "internalType": "uint256",
              "name": "publicationActedProfileId",
              "type": "uint256"
            },
            {
              "internalType": "uint256",
              "name": "publicationActedId",
              "type": "uint256"
            },
            {
              "internalType": "uint256",
              "name": "actorProfileId",
              "type": "uint256"
            },
            {
              "internalType": "address",
              "name": "actionModuleAddress",
              "type": "address"
            },
            {
              "internalType": "bytes",
              "name": "actionModuleData",
              "type": "bytes"
            }
          ],
          "internalType": "struct Types.PublicationActionParams",
          "name": "publicationActionParams",
          "type": "tuple"
        }
      ],
      "name": "act",
      "outputs": [
        {
          "internalType": "bytes",
          "name": "",
          "type": "bytes"
        }
      ],
      "stateMutability": "nonpayable",
      "type": "function"
    },
    {
      "inputs": [
        {
          "internalType": "uint256",
          "name": "profileId",
          "type": "uint256"
        },
        {
          "internalType": "uint256",
          "name": "pubId",
          "type": "uint256"
        }
      ],
      "name": "getContentURI",
      "outputs": [
        {
          "internalType": "string",
          "name": "",
          "type": "string"
        }
      ],
      "stateMutability": "view",
      "type": "function",
      "constant": true
    },
    {
      "inputs": [
        {
          "internalType": "uint256",
          "name": "profileId",
          "type": "uint256"
        },
        {
          "internalType": "uint256",
          "name": "pointedPubId",
          "type": "uint256"
        }
      ],
      "name": "isLessonCompleted",
      "outputs": [
        {
          "internalType": "bool",
          "name": "",
          "type": "bool"
        }
      ],
      "stateMutability": "view",
      "type": "function",
      "constant": true
    },
    {
      "inputs": [
        {
          "internalType": "uint256",
          "name": "profileId",
          "type": "uint256"
        },
        {
          "internalType": "uint256",
          "name": "pointedProfile",
          "type": "uint256"
        },
        {
          "internalType": "uint256",
          "name": "pointedPubId",
          "type": "uint256"
        }
      ],
      "name": "isCourseCompleted",
      "outputs": [
        {
          "internalType": "bool",
          "name": "",
          "type": "bool"
        }
      ],
      "stateMutability": "view",
      "type": "function",
      "constant": true
    },
    {
      "inputs": [
        {
          "internalType": "uint256",
          "name": "profileId",
          "type": "uint256"
        }
      ],
      "name": "getProfile",
      "outputs": [
        {
          "components": [
            {
              "internalType": "uint256",
              "name": "pubCount",
              "type": "uint256"
            },
            {
              "internalType": "string",
              "name": "metadataURI",
              "type": "string"
            }
          ],
          "internalType": "struct Types.ProfileMemory",
          "name": "",
          "type": "tuple"
        }
      ],
      "stateMutability": "view",
      "type": "function",
      "constant": true
    },
    {
      "inputs": [
        {
          "internalType": "uint256",
          "name": "profileId",
          "type": "uint256"
        },
        {
          "internalType": "uint256",
          "name": "pubId",
          "type": "uint256"
        }
      ],
      "name": "getPublication",
      "outputs": [
        {
          "components": [
            {
              "internalType": "uint256",
              "name": "pointedProfileId",
              "type": "uint256"
            },
            {
              "internalType": "uint256",
              "name": "pointedPubId",
              "type": "uint256"
            },
            {
              "internalType": "uint256",
              "name": "totalLesson",
              "type": "uint256"
            },
            {
              "internalType": "string",
              "name": "contentURI",
              "type": "string"
            },
            {
              "internalType": "enum Types.PublicationType",
              "name": "pubType",
              "type": "uint8"
            },
            {
              "internalType": "uint256",
              "name": "rootProfileId",
              "type": "uint256"
            },
            {
              "internalType": "uint256",
              "name": "rootPubId",
              "type": "uint256"
            },
            {
              "internalType": "address",
              "name": "collectModule",
              "type": "address"
            },
            {
              "internalType": "address",
              "name": "certificateModule",
              "type": "address"
            }
          ],
          "internalType": "struct Types.PublicationMemory",
          "name": "",
          "type": "tuple"
        }
      ],
      "stateMutability": "pure",
      "type": "function",
      "constant": true
    },
    {
      "inputs": [
        {
          "internalType": "uint256",
          "name": "profileId",
          "type": "uint256"
        },
        {
          "internalType": "uint256",
          "name": "pubId",
          "type": "uint256"
        },
        {
          "internalType": "address",
          "name": "module",
          "type": "address"
        }
      ],
      "name": "isActionModuleEnabledInPublication",
      "outputs": [
        {
          "internalType": "bool",
          "name": "",
          "type": "bool"
        }
      ],
      "stateMutability": "view",
      "type": "function",
      "constant": true
    },
    {
      "inputs": [
        {
          "internalType": "uint256",
          "name": "profileId",
          "type": "uint256"
        },
        {
          "internalType": "uint256",
          "name": "pubId",
          "type": "uint256"
        }
      ],
      "name": "getPublicationType",
      "outputs": [
        {
          "internalType": "enum Types.PublicationType",
          "name": "",
          "type": "uint8"
        }
      ],
      "stateMutability": "view",
      "type": "function",
      "constant": true
    },
    {
      "inputs": [],
      "name": "getModuleRegistry",
      "outputs": [
        {
          "internalType": "address",
          "name": "",
          "type": "address"
        }
      ],
      "stateMutability": "view",
      "type": "function",
      "constant": true
    }
  ],
  "bytecode": "0x60a060405234801562000010575f80fd5b506040516200678c3803806200678c833981810160405281019062000036919062000362565b8373ffffffffffffffffffffffffffffffffffffffff1660808173ffffffffffffffffffffffffffffffffffffffff168152505073__GovernanceLib_________________________6320aaec1660026040518263ffffffff1660e01b8152600401620000a491906200048b565b5f6040518083038186803b158015620000bb575f80fd5b505af4158015620000ce573d5f803e3d5ffd5b5050505073__GovernanceLib_________________________63ab033ea9846040518263ffffffff1660e01b81526004016200010b9190620004b7565b5f6040518083038186803b15801562000122575f80fd5b505af415801562000135573d5f803e3d5ffd5b505050506200014b82826200015560201b60201c565b50505050620007ed565b815f908162000165919062000709565b50806001908162000177919062000709565b505050565b5f604051905090565b5f80fd5b5f80fd5b5f73ffffffffffffffffffffffffffffffffffffffff82169050919050565b5f620001b8826200018d565b9050919050565b620001ca81620001ac565b8114620001d5575f80fd5b50565b5f81519050620001e881620001bf565b92915050565b5f80fd5b5f80fd5b5f601f19601f8301169050919050565b7f4e487b71000000000000000000000000000000000000000000000000000000005f52604160045260245ffd5b6200023e82620001f6565b810181811067ffffffffffffffff8211171562000260576200025f62000206565b5b80604052505050565b5f620002746200017c565b905062000282828262000233565b919050565b5f67ffffffffffffffff821115620002a457620002a362000206565b5b620002af82620001f6565b9050602081019050919050565b5f5b83811015620002db578082015181840152602081019050620002be565b5f8484015250505050565b5f620002fc620002f68462000287565b62000269565b9050828152602081018484840111156200031b576200031a620001f2565b5b62000328848285620002bc565b509392505050565b5f82601f830112620003475762000346620001ee565b5b815162000359848260208601620002e6565b91505092915050565b5f805f80608085870312156200037d576200037c62000185565b5b5f6200038c87828801620001d8565b94505060206200039f87828801620001d8565b935050604085015167ffffffffffffffff811115620003c357620003c262000189565b5b620003d18782880162000330565b925050606085015167ffffffffffffffff811115620003f557620003f462000189565b5b620004038782880162000330565b91505092959194509250565b7f4e487b71000000000000000000000000000000000000000000000000000000005f52602160045260245ffd5b6003811062000450576200044f6200040f565b5b50565b5f81905062000462826200043c565b919050565b5f620004738262000453565b9050919050565b620004858162000467565b82525050565b5f602082019050620004a05f8301846200047a565b92915050565b620004b181620001ac565b82525050565b5f602082019050620004cc5f830184620004a6565b92915050565b5f81519050919050565b7f4e487b71000000000000000000000000000000000000000000000000000000005f52602260045260245ffd5b5f60028204905060018216806200052157607f821691505b602082108103620005375762000536620004dc565b5b50919050565b5f819050815f5260205f209050919050565b5f6020601f8301049050919050565b5f82821b905092915050565b5f600883026200059b7fffffffffffffffffffffffffffffffffffffffffffffffffffffffffffffffff826200055e565b620005a786836200055e565b95508019841693508086168417925050509392505050565b5f819050919050565b5f819050919050565b5f620005f1620005eb620005e584620005bf565b620005c8565b620005bf565b9050919050565b5f819050919050565b6200060c83620005d1565b620006246200061b82620005f8565b8484546200056a565b825550505050565b5f90565b6200063a6200062c565b6200064781848462000601565b505050565b5b818110156200066e57620006625f8262000630565b6001810190506200064d565b5050565b601f821115620006bd5762000687816200053d565b62000692846200054f565b81016020851015620006a2578190505b620006ba620006b1856200054f565b8301826200064c565b50505b505050565b5f82821c905092915050565b5f620006df5f1984600802620006c2565b1980831691505092915050565b5f620006f98383620006ce565b9150826002028217905092915050565b6200071482620004d2565b67ffffffffffffffff81111562000730576200072f62000206565b5b6200073c825462000509565b6200074982828562000672565b5f60209050601f8311600181146200077f575f84156200076a578287015190505b620007768582620006ec565b865550620007e5565b601f1984166200078f866200053d565b5f5b82811015620007b85784890151825560018201915060208501945060208101905062000791565b86831015620007d85784890151620007d4601f891682620006ce565b8355505b6001600288020188555050505b505050505050565b608051615f86620008065f395f6125bc0152615f865ff3fe6080604052600436106102fd575f3560e01c806370a082311161018f578063c0da9bcd116100db578063e985e9c511610094578063efe4fd831161006e578063efe4fd8314610c6a578063f08f4f6414610c92578063f0f4426014610cce578063fa2e4aa214610cf6576102fd565b8063e985e9c514610bc8578063edec795214610c04578063eed083a914610c2e576102fd565b8063c0da9bcd14610a92578063c510822414610ace578063c87b56dd14610afe578063d8da568914610b3a578063dc27696814610b62578063dfc38cdf14610b8c576102fd565b8063a22cb46511610148578063abb9683c11610122578063abb9683c146109ca578063af05dd22146109f2578063b5a3149614610a2e578063b88d4fde14610a6a576102fd565b8063a22cb4651461093e578063a42f9bf414610966578063ab033ea9146109a2576102fd565b806370a082311461080d5780637385ebc914610849578063884b46181461088557806395d89b41146108c157806397f48f13146108eb57806398f965d114610913576102fd565b80633b19e84a1161024e5780634bde5ec41161020757806356de96db116101e157806356de96db146107315780635d398de4146107595780636352211e146107955780636dbb179c146107d1576102fd565b80634bde5ec41461067d5780634f558e79146106b957806350ddf35c146106f5576102fd565b80633b19e84a1461054f5780633fdbc3c71461057957806342842e0e146105b557806342966c68146105dd5780634943b8a1146106055780634998011c14610641576102fd565b806317ab7dd3116102bb578063209055061161029557806320905506146104ad57806323b872dd146104d5578063289b3c0d146104fd57806335da339414610527576102fd565b806317ab7dd31461043157806318160ddd146104595780631865c57d14610483576102fd565b806292890e1461030157806301ffc9a71461032b57806306fdde0314610367578063081812fc1461039157806308ed395c146103cd578063095ea7b314610409575b5f80fd5b34801561030c575f80fd5b50610315610d32565b6040516103229190613f99565b60405180910390f35b348015610336575f80fd5b50610351600480360381019061034c9190614018565b610d40565b60405161035e919061405d565b60405180910390f35b348015610372575f80fd5b5061037b610ef1565b6040516103889190614100565b60405180910390f35b34801561039c575f80fd5b506103b760048036038101906103b29190614153565b610f80565b6040516103c49190613f99565b60405180910390f35b3480156103d8575f80fd5b506103f360048036038101906103ee919061417e565b610ff8565b604051610400919061422f565b60405180910390f35b348015610414575f80fd5b5061042f600480360381019061042a9190614272565b61100b565b005b34801561043c575f80fd5b50610457600480360381019061045291906142b0565b611019565b005b348015610464575f80fd5b5061046d611310565b60405161047a919061430f565b60405180910390f35b34801561048e575f80fd5b50610497611319565b6040516104a4919061436e565b60405180910390f35b3480156104b8575f80fd5b506104d360048036038101906104ce91906143b1565b611327565b005b3480156104e0575f80fd5b506104fb60048036038101906104f691906142b0565b611398565b005b348015610508575f80fd5b506105116113e8565b60405161051e9190613f99565b60405180910390f35b348015610532575f80fd5b5061054d600480360381019061054891906143ef565b6113f6565b005b34801561055a575f80fd5b50610563611464565b6040516105709190613f99565b60405180910390f35b348015610584575f80fd5b5061059f600480360381019061059a919061441a565b611494565b6040516105ac919061405d565b60405180910390f35b3480156105c0575f80fd5b506105db60048036038101906105d691906142b0565b611518565b005b3480156105e8575f80fd5b5061060360048036038101906105fe9190614153565b611537565b005b348015610610575f80fd5b5061062b600480360381019061062691906143ef565b6115b5565b604051610638919061430f565b60405180910390f35b34801561064c575f80fd5b506106676004803603810190610662919061448c565b611604565b604051610674919061430f565b60405180910390f35b348015610688575f80fd5b506106a3600480360381019061069e91906144b7565b61170c565b6040516106b0919061405d565b60405180910390f35b3480156106c4575f80fd5b506106df60048036038101906106da9190614153565b61176b565b6040516106ec919061405d565b60405180910390f35b348015610700575f80fd5b5061071b60048036038101906107169190614153565b61177c565b604051610728919061452d565b60405180910390f35b34801561073c575f80fd5b5061075760048036038101906107529190614569565b6117fc565b005b348015610764575f80fd5b5061077f600480360381019061077a919061441a565b611862565b60405161078c919061430f565b60405180910390f35b3480156107a0575f80fd5b506107bb60048036038101906107b69190614153565b61195a565b6040516107c89190613f99565b60405180910390f35b3480156107dc575f80fd5b506107f760048036038101906107f291906145b2565b6119ff565b604051610804919061430f565b60405180910390f35b348015610818575f80fd5b50610833600480360381019061082e91906143ef565b611af4565b604051610840919061430f565b60405180910390f35b348015610854575f80fd5b5061086f600480360381019061086a919061417e565b611b9f565b60405161087c9190614730565b60405180910390f35b348015610890575f80fd5b506108ab60048036038101906108a691906147b1565b611bb9565b6040516108b891906148a4565b60405180910390f35b3480156108cc575f80fd5b506108d5611ca4565b6040516108e29190614100565b60405180910390f35b3480156108f6575f80fd5b50610911600480360381019061090c91906143ef565b611d34565b005b34801561091e575f80fd5b50610927611dfb565b6040516109359291906148e0565b60405180910390f35b348015610949575f80fd5b50610964600480360381019061095f91906143b1565b611e46565b005b348015610971575f80fd5b5061098c60048036038101906109879190614925565b611e54565b604051610999919061430f565b60405180910390f35b3480156109ad575f80fd5b506109c860048036038101906109c391906143ef565b611f49565b005b3480156109d5575f80fd5b506109f060048036038101906109eb919061496c565b611fb7565b005b3480156109fd575f80fd5b50610a186004803603810190610a1391906143ef565b611fcd565b604051610a25919061405d565b60405180910390f35b348015610a39575f80fd5b50610a546004803603810190610a4f919061417e565b612025565b604051610a619190614100565b60405180910390f35b348015610a75575f80fd5b50610a906004803603810190610a8b9190614ad2565b6120aa565b005b348015610a9d575f80fd5b50610ab86004803603810190610ab39190614153565b6120fc565b604051610ac59190614b8e565b60405180910390f35b610ae86004803603810190610ae39190614bc5565b6121f7565b604051610af59190614c5e565b60405180910390f35b348015610b09575f80fd5b50610b246004803603810190610b1f9190614153565b612375565b604051610b319190614100565b60405180910390f35b348015610b45575f80fd5b50610b606004803603810190610b5b9190614ca8565b612477565b005b348015610b6d575f80fd5b50610b7661248b565b604051610b839190614cd3565b60405180910390f35b348015610b97575f80fd5b50610bb26004803603810190610bad919061417e565b6124aa565b604051610bbf919061405d565b60405180910390f35b348015610bd3575f80fd5b50610bee6004803603810190610be99190614cec565b61252b565b604051610bfb919061405d565b60405180910390f35b348015610c0f575f80fd5b50610c186125b9565b604051610c259190613f99565b60405180910390f35b348015610c39575f80fd5b50610c546004803603810190610c4f9190614d48565b6125e0565b604051610c61919061430f565b60405180910390f35b348015610c75575f80fd5b50610c906004803603810190610c8b9190614de4565b6126d5565b005b348015610c9d575f80fd5b50610cb86004803603810190610cb39190614153565b6127b5565b604051610cc59190614e7b565b60405180910390f35b348015610cd9575f80fd5b50610cf46004803603810190610cef91906143ef565b612879565b005b348015610d01575f80fd5b50610d1c6004803603810190610d179190614eb9565b61288d565b604051610d299190614c5e565b60405180910390f35b5f610d3b612995565b905090565b5f7f80ac58cd000000000000000000000000000000000000000000000000000000007bffffffffffffffffffffffffffffffffffffffffffffffffffffffff1916827bffffffffffffffffffffffffffffffffffffffffffffffffffffffff19161480610e0a57507fc744eb35000000000000000000000000000000000000000000000000000000007bffffffffffffffffffffffffffffffffffffffffffffffffffffffff1916827bffffffffffffffffffffffffffffffffffffffffffffffffffffffff1916145b80610e7257507f42966c68000000000000000000000000000000000000000000000000000000007bffffffffffffffffffffffffffffffffffffffffffffffffffffffff1916827bffffffffffffffffffffffffffffffffffffffffffffffffffffffff1916145b80610eda57507f5b5e139f000000000000000000000000000000000000000000000000000000007bffffffffffffffffffffffffffffffffffffffffffffffffffffffff1916827bffffffffffffffffffffffffffffffffffffffffffffffffffffffff1916145b80610eea5750610ee98261299e565b5b9050919050565b60605f8054610eff90614f2d565b80601f0160208091040260200160405190810160405280929190818152602001828054610f2b90614f2d565b8015610f765780601f10610f4d57610100808354040283529160200191610f76565b820191905f5260205f20905b815481529060010190602001808311610f5957829003601f168201915b5050505050905090565b5f610f8a82612a07565b610fc0576040517fceea21b600000000000000000000000000000000000000000000000000000000815260040160405180910390fd5b60045f8381526020019081526020015f205f9054906101000a900473ffffffffffffffffffffffffffffffffffffffff169050919050565b5f6110038383612a71565b905092915050565b6110158282612a9e565b5050565b6110233382612b98565b611059576040517fdb1453ce00000000000000000000000000000000000000000000000000000000815260040160405180910390fd5b611061612c2c565b5f3373ffffffffffffffffffffffffffffffffffffffff1673ffffffffffffffffffffffffffffffffffffffff1681526020019081526020015f205f9054906101000a900460ff166110df576040517f3d693ada00000000000000000000000000000000000000000000000000000000815260040160405180910390fd5b8273ffffffffffffffffffffffffffffffffffffffff166110ff8261195a565b73ffffffffffffffffffffffffffffffffffffffff161461114c576040517f49e27cff00000000000000000000000000000000000000000000000000000000815260040160405180910390fd5b5f73ffffffffffffffffffffffffffffffffffffffff168273ffffffffffffffffffffffffffffffffffffffff16036111b1576040517f613970e000000000000000000000000000000000000000000000000000000000815260040160405180910390fd5b6111bc838383612c34565b6111c65f82612c39565b6111ce612cef565b5f8473ffffffffffffffffffffffffffffffffffffffff1673ffffffffffffffffffffffffffffffffffffffff1681526020019081526020015f205f8154600190039190508190555061121f612cef565b5f8373ffffffffffffffffffffffffffffffffffffffff1673ffffffffffffffffffffffffffffffffffffffff1681526020019081526020015f205f8154600101919050819055508161127182612cf7565b5f015f6101000a81548173ffffffffffffffffffffffffffffffffffffffff021916908373ffffffffffffffffffffffffffffffffffffffff160217905550808273ffffffffffffffffffffffffffffffffffffffff168473ffffffffffffffffffffffffffffffffffffffff167fddf252ad1be2c89b69c2b068fc378daa952ba7f163c4a11628f55a4df523b3ef60405160405180910390a4505050565b5f600654905090565b5f611322612d0b565b905090565b61132f612d14565b73__GovernanceLib_________________________632090550683836040518363ffffffff1660e01b8152600401611368929190614f7b565b5f6040518083038186803b15801561137e575f80fd5b505af4158015611390573d5f803e3d5ffd5b505050505050565b6113a23382612b98565b6113d8576040517fdb1453ce00000000000000000000000000000000000000000000000000000000815260040160405180910390fd5b6113e3838383612d82565b505050565b5f6113f1612faf565b905090565b6113fe612d14565b73__GovernanceLib_________________________6335da3394826040518263ffffffff1660e01b81526004016114359190614fa2565b5f6040518083038186803b15801561144b575f80fd5b505af415801561145d573d5f803e3d5ffd5b5050505050565b5f61146d612fb8565b5f015f9054906101000a900473ffffffffffffffffffffffffffffffffffffffff16905090565b5f73__PublicationLib________________________633fdbc3c78585856040518463ffffffff1660e01b81526004016114d093929190614fca565b602060405180830381865af41580156114eb573d5f803e3d5ffd5b505050506040513d601f19601f8201168201806040525081019061150f9190615013565b90509392505050565b61153283838360405180602001604052805f8152506120aa565b505050565b60028081111561154a576115496141bc565b5b611552612d0b565b6002811115611564576115636141bc565b5b0361159b576040517f9e87fac800000000000000000000000000000000000000000000000000000000815260040160405180910390fd5b33816115a78282612fc0565b6115b083613031565b505050565b5f6115be612fb8565b6001015f8373ffffffffffffffffffffffffffffffffffffffff1673ffffffffffffffffffffffffffffffffffffffff1681526020019081526020015f20549050919050565b5f600280811115611618576116176141bc565b5b611620612d0b565b6002811115611632576116316141bc565b5b03611669576040517f9e87fac800000000000000000000000000000000000000000000000000000000815260040160405180910390fd5b61167233613163565b5f600c5f8154600101919050819055905061169e835f01602081019061169891906143ef565b826131ec565b73__ProfileLib____________________________63c814e32584836040518363ffffffff1660e01b81526004016116d7929190615085565b5f6040518083038186803b1580156116ed575f80fd5b505af41580156116ff573d5f803e3d5ffd5b5050505080915050919050565b5f6117178484613336565b6009015f8373ffffffffffffffffffffffffffffffffffffffff1673ffffffffffffffffffffffffffffffffffffffff1681526020019081526020015f205f9054906101000a900460ff1690509392505050565b5f61177582612a07565b9050919050565b5f8060025f8481526020019081526020015f205f0160149054906101000a90046bffffffffffffffffffffffff1690505f816bffffffffffffffffffffffff16036117f3576040517fceea21b600000000000000000000000000000000000000000000000000000000815260040160405180910390fd5b80915050919050565b73__GovernanceLib_________________________639c75de28826040518263ffffffff1660e01b815260040161183391906150bb565b5f6040518083038186803b158015611849575f80fd5b505af415801561185b573d5f803e3d5ffd5b5050505050565b5f600280811115611876576118756141bc565b5b61187e612d0b565b60028111156118905761188f6141bc565b5b036118c7576040517f9e87fac800000000000000000000000000000000000000000000000000000000815260040160405180910390fd5b33846118d38282612fc0565b73__PublicationLib________________________637cc38c87878787336040518563ffffffff1660e01b815260040161191094939291906150d4565b602060405180830381865af415801561192b573d5f803e3d5ffd5b505050506040513d601f19601f8201168201806040525081019061194f919061512b565b925050509392505050565b5f8060025f8481526020019081526020015f205f015f9054906101000a900473ffffffffffffffffffffffffffffffffffffffff1690505f73ffffffffffffffffffffffffffffffffffffffff168173ffffffffffffffffffffffffffffffffffffffff16036119f6576040517fceea21b600000000000000000000000000000000000000000000000000000000815260040160405180910390fd5b80915050919050565b5f806002811115611a1357611a126141bc565b5b611a1b612d0b565b6002811115611a2d57611a2c6141bc565b5b14611a64576040517f79c951d800000000000000000000000000000000000000000000000000000000815260040160405180910390fd5b33825f0135611a738282612fc0565b73__PublicationLib________________________632d2d826c85336040518363ffffffff1660e01b8152600401611aac929190615596565b602060405180830381865af4158015611ac7573d5f803e3d5ffd5b505050506040513d601f19601f82011682018060405250810190611aeb919061512b565b92505050919050565b5f8073ffffffffffffffffffffffffffffffffffffffff168273ffffffffffffffffffffffffffffffffffffffff1603611b5a576040517f613970e000000000000000000000000000000000000000000000000000000000815260040160405180910390fd5b60035f8373ffffffffffffffffffffffffffffffffffffffff1673ffffffffffffffffffffffffffffffffffffffff1681526020019081526020015f20549050919050565b611ba7613e83565b611bb18383613355565b905092915050565b60605f6002811115611bce57611bcd6141bc565b5b611bd6612d0b565b6002811115611be857611be76141bc565b5b14611c1f576040517f79c951d800000000000000000000000000000000000000000000000000000000815260040160405180910390fd5b73__PublicationLib________________________6356748b528484336040518463ffffffff1660e01b8152600401611c5a93929190615717565b5f60405180830381865af4158015611c74573d5f803e3d5ffd5b505050506040513d5f823e3d601f19601f82011682018060405250810190611c9c9190615807565b905092915050565b606060018054611cb390614f2d565b80601f0160208091040260200160405190810160405280929190818152602001828054611cdf90614f2d565b8015611d2a5780601f10611d0157610100808354040283529160200191611d2a565b820191905f5260205f20905b815481529060010190602001808311611d0d57829003601f168201915b5050505050905090565b611d3c612d14565b73__GovernanceLib_________________________6397f48f13826040518263ffffffff1660e01b8152600401611d739190614fa2565b5f6040518083038186803b158015611d89575f80fd5b505af4158015611d9b573d5f803e3d5ffd5b505050507f6bd5c950a8d8df17f772f5af37cb3655737899cbf903264b9795592da439661c5f7fffffffffffffffffffffffffffffffffffffffffffffffffffffffffffffffff604051611df0929190615890565b60405180910390a150565b5f805f611e06612fb8565b9050805f015f9054906101000a900473ffffffffffffffffffffffffffffffffffffffff16815f0160149054906101000a900461ffff1692509250509091565b611e50828261353d565b5050565b5f806002811115611e6857611e676141bc565b5b611e70612d0b565b6002811115611e8257611e816141bc565b5b14611eb9576040517f79c951d800000000000000000000000000000000000000000000000000000000815260040160405180910390fd5b33825f0135611ec88282612fc0565b73__PublicationLib________________________63e57901ad85336040518363ffffffff1660e01b8152600401611f01929190615939565b602060405180830381865af4158015611f1c573d5f803e3d5ffd5b505050506040513d601f19601f82011682018060405250810190611f40919061512b565b92505050919050565b611f51612d14565b73__GovernanceLib_________________________63ab033ea9826040518263ffffffff1660e01b8152600401611f889190614fa2565b5f6040518083038186803b158015611f9e575f80fd5b505af4158015611fb0573d5f803e3d5ffd5b5050505050565b611fbf612d14565b611fc982826135b1565b5050565b5f611fd6612c2c565b5f8373ffffffffffffffffffffffffffffffffffffffff1673ffffffffffffffffffffffffffffffffffffffff1681526020019081526020015f205f9054906101000a900460ff169050919050565b606073__PublicationLib________________________63b5a3149684846040518363ffffffff1660e01b8152600401612060929190615967565b5f60405180830381865af415801561207a573d5f803e3d5ffd5b505050506040513d5f823e3d601f19601f820116820180604052508101906120a29190615a2c565b905092915050565b6120b43383612b98565b6120ea576040517fdb1453ce00000000000000000000000000000000000000000000000000000000815260040160405180910390fd5b6120f684848484613699565b50505050565b612104613f05565b61210d82612a07565b612143576040517fceea21b600000000000000000000000000000000000000000000000000000000815260040160405180910390fd5b60025f8381526020019081526020015f206040518060400160405290815f82015f9054906101000a900473ffffffffffffffffffffffffffffffffffffffff1673ffffffffffffffffffffffffffffffffffffffff1673ffffffffffffffffffffffffffffffffffffffff1681526020015f820160149054906101000a90046bffffffffffffffffffffffff166bffffffffffffffffffffffff166bffffffffffffffffffffffff16815250509050919050565b606060028081111561220c5761220b6141bc565b5b612214612d0b565b6002811115612226576122256141bc565b5b0361225d576040517f9e87fac800000000000000000000000000000000000000000000000000000000815260040160405180910390fd5b33826040013561226d8282612fc0565b612276346136ec565b61227e612fb8565b5f015f9054906101000a900473ffffffffffffffffffffffffffffffffffffffff1673ffffffffffffffffffffffffffffffffffffffff166108fc3490811502906040515f60405180830381858888f193505050501580156122e2573d5f803e3d5ffd5b5073__CollectLib____________________________63c52a1c40853361230c886040013561195a565b6040518463ffffffff1660e01b815260040161232a93929190615b2b565b5f60405180830381865af4158015612344573d5f803e3d5ffd5b505050506040513d5f823e3d601f19601f8201168201806040525081019061236c9190615bd5565b92505050919050565b606061238082612a07565b6123b6576040517fceea21b600000000000000000000000000000000000000000000000000000000815260040160405180910390fd5b5f6123c083612cf7565b5f0160149054906101000a90046bffffffffffffffffffffffff166bffffffffffffffffffffffff1690506123f3612995565b73ffffffffffffffffffffffffffffffffffffffff1663ad22a3f284836040518363ffffffff1660e01b815260040161242d929190615c1c565b5f60405180830381865afa158015612447573d5f803e3d5ffd5b505050506040513d5f823e3d601f19601f8201168201806040525081019061246f9190615a2c565b915050919050565b61247f612d14565b61248881613779565b50565b5f612494612fb8565b5f0160149054906101000a900461ffff16905090565b5f73__PublicationLib________________________63dfc38cdf84846040518363ffffffff1660e01b81526004016124e4929190615967565b602060405180830381865af41580156124ff573d5f803e3d5ffd5b505050506040513d601f19601f820116820180604052508101906125239190615013565b905092915050565b5f60055f8473ffffffffffffffffffffffffffffffffffffffff1673ffffffffffffffffffffffffffffffffffffffff1681526020019081526020015f205f8373ffffffffffffffffffffffffffffffffffffffff1673ffffffffffffffffffffffffffffffffffffffff1681526020019081526020015f205f9054906101000a900460ff16905092915050565b5f7f0000000000000000000000000000000000000000000000000000000000000000905090565b5f8060028111156125f4576125f36141bc565b5b6125fc612d0b565b600281111561260e5761260d6141bc565b5b14612645576040517f79c951d800000000000000000000000000000000000000000000000000000000815260040160405180910390fd5b33825f01356126548282612fc0565b73__PublicationLib________________________63261398da85336040518363ffffffff1660e01b815260040161268d929190615ce9565b602060405180830381865af41580156126a8573d5f803e3d5ffd5b505050506040513d601f19601f820116820180604052508101906126cc919061512b565b92505050919050565b6002808111156126e8576126e76141bc565b5b6126f0612d0b565b6002811115612702576127016141bc565b5b03612739576040517f9e87fac800000000000000000000000000000000000000000000000000000000815260040160405180910390fd5b33836127458282612fc0565b73__ProfileLib____________________________63f67311d7868686336040518563ffffffff1660e01b81526004016127829493929190615d53565b5f6040518083038186803b158015612798575f80fd5b505af41580156127aa573d5f803e3d5ffd5b505050505050505050565b6127bd613f41565b600a5f8381526020019081526020015f206040518060400160405290815f82015481526020016001820180546127f290614f2d565b80601f016020809104026020016040519081016040528092919081815260200182805461281e90614f2d565b80156128695780601f1061284057610100808354040283529160200191612869565b820191905f5260205f20905b81548152906001019060200180831161284c57829003601f168201915b5050505050815250509050919050565b612881612d14565b61288a8161384c565b50565b60606002808111156128a2576128a16141bc565b5b6128aa612d0b565b60028111156128bc576128bb6141bc565b5b036128f3576040517f9e87fac800000000000000000000000000000000000000000000000000000000815260040160405180910390fd5b3382604001356129038282612fc0565b73__ActionLib_____________________________63596fecad853361292c886040013561195a565b6040518463ffffffff1660e01b815260040161294a93929190615e2e565b5f60405180830381865af4158015612964573d5f803e3d5ffd5b505050506040513d5f823e3d601f19601f8201168201806040525081019061298c9190615bd5565b92505050919050565b5f600a54905090565b5f7f01ffc9a7000000000000000000000000000000000000000000000000000000007bffffffffffffffffffffffffffffffffffffffffffffffffffffffff1916827bffffffffffffffffffffffffffffffffffffffffffffffffffffffff1916149050919050565b5f8073ffffffffffffffffffffffffffffffffffffffff1660025f8481526020019081526020015f205f015f9054906101000a900473ffffffffffffffffffffffffffffffffffffffff1673ffffffffffffffffffffffffffffffffffffffff1614159050919050565b5f80612a7d8484613336565b90505f816004015f9054906101000a900460ff169050809250505092915050565b5f612aa88261195a565b90508073ffffffffffffffffffffffffffffffffffffffff168373ffffffffffffffffffffffffffffffffffffffff1603612b0f576040517f613970e000000000000000000000000000000000000000000000000000000000815260040160405180910390fd5b8073ffffffffffffffffffffffffffffffffffffffff163373ffffffffffffffffffffffffffffffffffffffff1614158015612b525750612b50813361252b565b155b15612b89576040517fdb1453ce00000000000000000000000000000000000000000000000000000000815260040160405180910390fd5b612b938383612c39565b505050565b5f80612ba38361195a565b90508073ffffffffffffffffffffffffffffffffffffffff168473ffffffffffffffffffffffffffffffffffffffff161480612c1257508373ffffffffffffffffffffffffffffffffffffffff16612bfa84610f80565b73ffffffffffffffffffffffffffffffffffffffff16145b80612c235750612c22818561252b565b5b91505092915050565b5f6004905090565b505050565b8160045f8381526020019081526020015f205f6101000a81548173ffffffffffffffffffffffffffffffffffffffff021916908373ffffffffffffffffffffffffffffffffffffffff160217905550808273ffffffffffffffffffffffffffffffffffffffff16612ca98361195a565b73ffffffffffffffffffffffffffffffffffffffff167f8c5be1e5ebec7d5bd14f71427d1e84f3dd0314c0f7b2291e5b200ac8c7c3b92560405160405180910390a45050565b5f6002905090565b5f815f52600160205260405f209050919050565b5f600354905090565b612d1c612faf565b73ffffffffffffffffffffffffffffffffffffffff163373ffffffffffffffffffffffffffffffffffffffff1614612d80576040517fb56f932c00000000000000000000000000000000000000000000000000000000815260040160405180910390fd5b565b8273ffffffffffffffffffffffffffffffffffffffff16612da28261195a565b73ffffffffffffffffffffffffffffffffffffffff1614612def576040517f49e27cff00000000000000000000000000000000000000000000000000000000815260040160405180910390fd5b5f73ffffffffffffffffffffffffffffffffffffffff168273ffffffffffffffffffffffffffffffffffffffff1603612e54576040517f613970e000000000000000000000000000000000000000000000000000000000815260040160405180910390fd5b612e5f838383612c34565b612e695f82612c39565b60035f8473ffffffffffffffffffffffffffffffffffffffff1673ffffffffffffffffffffffffffffffffffffffff1681526020019081526020015f205f8154600190039190508190555060035f8373ffffffffffffffffffffffffffffffffffffffff1673ffffffffffffffffffffffffffffffffffffffff1681526020019081526020015f205f8154600101919050819055508160025f8381526020019081526020015f205f015f6101000a81548173ffffffffffffffffffffffffffffffffffffffff021916908373ffffffffffffffffffffffffffffffffffffffff160217905550808273ffffffffffffffffffffffffffffffffffffffff168473ffffffffffffffffffffffffffffffffffffffff167fddf252ad1be2c89b69c2b068fc378daa952ba7f163c4a11628f55a4df523b3ef60405160405180910390a4505050565b5f600854905090565b5f600b905090565b612fc98161398d565b73ffffffffffffffffffffffffffffffffffffffff168273ffffffffffffffffffffffffffffffffffffffff161461302d576040517ff194fae500000000000000000000000000000000000000000000000000000000815260040160405180910390fd5b5050565b5f61303b8261195a565b9050613048815f84612c34565b6130525f83612c39565b60035f8273ffffffffffffffffffffffffffffffffffffffff1673ffffffffffffffffffffffffffffffffffffffff1681526020019081526020015f205f8154600190039190508190555060065f8154600190039190508190555060025f8381526020019081526020015f205f8082015f6101000a81549073ffffffffffffffffffffffffffffffffffffffff02191690555f820160146101000a8154906bffffffffffffffffffffffff02191690555050815f73ffffffffffffffffffffffffffffffffffffffff168273ffffffffffffffffffffffffffffffffffffffff167fddf252ad1be2c89b69c2b068fc378daa952ba7f163c4a11628f55a4df523b3ef60405160405180910390a45050565b61316b612c2c565b5f8273ffffffffffffffffffffffffffffffffffffffff1673ffffffffffffffffffffffffffffffffffffffff1681526020019081526020015f205f9054906101000a900460ff166131e9576040517f584a793800000000000000000000000000000000000000000000000000000000815260040160405180910390fd5b50565b6002808111156131ff576131fe6141bc565b5b613207612d0b565b6002811115613219576132186141bc565b5b03613250576040517f9e87fac800000000000000000000000000000000000000000000000000000000815260040160405180910390fd5b61325a8282613a2a565b613262612cef565b5f8373ffffffffffffffffffffffffffffffffffffffff1673ffffffffffffffffffffffffffffffffffffffff1681526020019081526020015f205f8154600101919050819055505f6132b482612cf7565b905082815f015f6101000a81548173ffffffffffffffffffffffffffffffffffffffff021916908373ffffffffffffffffffffffffffffffffffffffff1602179055506133008261177c565b815f0160146101000a8154816bffffffffffffffffffffffff02191690836bffffffffffffffffffffffff160217905550505050565b5f825f52600660205260405f20602052815f5260405f20905092915050565b61335d613e83565b5f835f52600660205260405f20602052825f5260405f20905061337e613e83565b81604051806101200160405290815f820154815260200160018201548152602001600282015481526020016003820180546133b890614f2d565b80601f01602080910402602001604051908101604052809291908181526020018280546133e490614f2d565b801561342f5780601f106134065761010080835404028352916020019161342f565b820191905f5260205f20905b81548152906001019060200180831161341257829003601f168201915b50505050508152602001600482015f9054906101000a900460ff16600481111561345c5761345b6141bc565b5b600481111561346e5761346d6141bc565b5b81526020016005820154815260200160068201548152602001600782015f9054906101000a900473ffffffffffffffffffffffffffffffffffffffff1673ffffffffffffffffffffffffffffffffffffffff1673ffffffffffffffffffffffffffffffffffffffff168152602001600882015f9054906101000a900473ffffffffffffffffffffffffffffffffffffffff1673ffffffffffffffffffffffffffffffffffffffff1673ffffffffffffffffffffffffffffffffffffffff16815250509050809250505092915050565b3373ffffffffffffffffffffffffffffffffffffffff168273ffffffffffffffffffffffffffffffffffffffff16036135a2576040517f613970e000000000000000000000000000000000000000000000000000000000815260040160405180910390fd5b6135ad338383613bf6565b5050565b5f6135ba612fb8565b90505f816001015f8473ffffffffffffffffffffffffffffffffffffffff1673ffffffffffffffffffffffffffffffffffffffff1681526020019081526020015f2054905083826001015f8573ffffffffffffffffffffffffffffffffffffffff1673ffffffffffffffffffffffffffffffffffffffff1681526020019081526020015f20819055508273ffffffffffffffffffffffffffffffffffffffff1684827f26e2aed1c8e5db7e89acb10da87aa301515acab213e9dcfba88bf2e96a23ff5b4260405161368b919061430f565b60405180910390a450505050565b6136a4848484612d82565b6136b084848484613cef565b6136e6576040517f85d5821e00000000000000000000000000000000000000000000000000000000815260040160405180910390fd5b50505050565b5f6136f5612fb8565b90505f816001015f8073ffffffffffffffffffffffffffffffffffffffff1673ffffffffffffffffffffffffffffffffffffffff1681526020019081526020015f2054905080831015613774576040517fb7e09e9a00000000000000000000000000000000000000000000000000000000815260040160405180910390fd5b505050565b60026127106137889190615e97565b61ffff168161ffff16106137c8576040517f48be0eb300000000000000000000000000000000000000000000000000000000815260040160405180910390fd5b5f6137d1612fb8565b90505f815f0160149054906101000a900461ffff16905082825f0160146101000a81548161ffff021916908361ffff1602179055508261ffff168161ffff167f25f48e61f754f5187cd9694b6ad1e7009a4e660274c16affcdccfb24f85cd86a4260405161383f919061430f565b60405180910390a3505050565b5f73ffffffffffffffffffffffffffffffffffffffff168173ffffffffffffffffffffffffffffffffffffffff16036138b1576040517f48be0eb300000000000000000000000000000000000000000000000000000000815260040160405180910390fd5b5f6138ba612fb8565b90505f815f015f9054906101000a900473ffffffffffffffffffffffffffffffffffffffff16905082825f015f6101000a81548173ffffffffffffffffffffffffffffffffffffffff021916908373ffffffffffffffffffffffffffffffffffffffff1602179055508273ffffffffffffffffffffffffffffffffffffffff168173ffffffffffffffffffffffffffffffffffffffff167f8df20312a19939ae72e29e4500356a05238ef5e6794a3323c184d97bb615d4fe42604051613980919061430f565b60405180910390a3505050565b5f8061399883612cf7565b5f015f9054906101000a900473ffffffffffffffffffffffffffffffffffffffff1690505f73ffffffffffffffffffffffffffffffffffffffff168173ffffffffffffffffffffffffffffffffffffffff1603613a21576040517fceea21b600000000000000000000000000000000000000000000000000000000815260040160405180910390fd5b80915050919050565b5f73ffffffffffffffffffffffffffffffffffffffff168273ffffffffffffffffffffffffffffffffffffffff161480613a695750613a6881612a07565b5b15613aa0576040517f613970e000000000000000000000000000000000000000000000000000000000815260040160405180910390fd5b613aab5f8383612c34565b60035f8373ffffffffffffffffffffffffffffffffffffffff1673ffffffffffffffffffffffffffffffffffffffff1681526020019081526020015f205f81546001019190508190555060065f8154600101919050819055508160025f8381526020019081526020015f205f015f6101000a81548173ffffffffffffffffffffffffffffffffffffffff021916908373ffffffffffffffffffffffffffffffffffffffff1602179055504260025f8381526020019081526020015f205f0160146101000a8154816bffffffffffffffffffffffff02191690836bffffffffffffffffffffffff160217905550808273ffffffffffffffffffffffffffffffffffffffff165f73ffffffffffffffffffffffffffffffffffffffff167fddf252ad1be2c89b69c2b068fc378daa952ba7f163c4a11628f55a4df523b3ef60405160405180910390a45050565b8060055f8573ffffffffffffffffffffffffffffffffffffffff1673ffffffffffffffffffffffffffffffffffffffff1681526020019081526020015f205f8473ffffffffffffffffffffffffffffffffffffffff1673ffffffffffffffffffffffffffffffffffffffff1681526020019081526020015f205f6101000a81548160ff0219169083151502179055508173ffffffffffffffffffffffffffffffffffffffff168373ffffffffffffffffffffffffffffffffffffffff167f17307eab39ab6107e8899845ad3d59bd9653f200f220920489ca2b5937696c3183604051613ce2919061405d565b60405180910390a3505050565b5f613d0f8473ffffffffffffffffffffffffffffffffffffffff16613e61565b15613e54578373ffffffffffffffffffffffffffffffffffffffff1663150b7a02338786866040518563ffffffff1660e01b8152600401613d539493929190615ec7565b6020604051808303815f875af1925050508015613d8e57506040513d601f19601f82011682018060405250810190613d8b9190615f25565b60015b613e04573d805f8114613dbc576040519150601f19603f3d011682016040523d82523d5f602084013e613dc1565b606091505b505f815103613dfc576040517f85d5821e00000000000000000000000000000000000000000000000000000000815260040160405180910390fd5b805181602001fd5b63150b7a0260e01b7bffffffffffffffffffffffffffffffffffffffffffffffffffffffff1916817bffffffffffffffffffffffffffffffffffffffffffffffffffffffff191614915050613e59565b600190505b949350505050565b5f808273ffffffffffffffffffffffffffffffffffffffff163b119050919050565b6040518061012001604052805f81526020015f81526020015f8152602001606081526020015f6004811115613ebb57613eba6141bc565b5b81526020015f81526020015f81526020015f73ffffffffffffffffffffffffffffffffffffffff1681526020015f73ffffffffffffffffffffffffffffffffffffffff1681525090565b60405180604001604052805f73ffffffffffffffffffffffffffffffffffffffff1681526020015f6bffffffffffffffffffffffff1681525090565b60405180604001604052805f8152602001606081525090565b5f73ffffffffffffffffffffffffffffffffffffffff82169050919050565b5f613f8382613f5a565b9050919050565b613f9381613f79565b82525050565b5f602082019050613fac5f830184613f8a565b92915050565b5f604051905090565b5f80fd5b5f80fd5b5f7fffffffff0000000000000000000000000000000000000000000000000000000082169050919050565b613ff781613fc3565b8114614001575f80fd5b50565b5f8135905061401281613fee565b92915050565b5f6020828403121561402d5761402c613fbb565b5b5f61403a84828501614004565b91505092915050565b5f8115159050919050565b61405781614043565b82525050565b5f6020820190506140705f83018461404e565b92915050565b5f81519050919050565b5f82825260208201905092915050565b5f5b838110156140ad578082015181840152602081019050614092565b5f8484015250505050565b5f601f19601f8301169050919050565b5f6140d282614076565b6140dc8185614080565b93506140ec818560208601614090565b6140f5816140b8565b840191505092915050565b5f6020820190508181035f83015261411881846140c8565b905092915050565b5f819050919050565b61413281614120565b811461413c575f80fd5b50565b5f8135905061414d81614129565b92915050565b5f6020828403121561416857614167613fbb565b5b5f6141758482850161413f565b91505092915050565b5f806040838503121561419457614193613fbb565b5b5f6141a18582860161413f565b92505060206141b28582860161413f565b9150509250929050565b7f4e487b71000000000000000000000000000000000000000000000000000000005f52602160045260245ffd5b600581106141fa576141f96141bc565b5b50565b5f81905061420a826141e9565b919050565b5f614219826141fd565b9050919050565b6142298161420f565b82525050565b5f6020820190506142425f830184614220565b92915050565b61425181613f79565b811461425b575f80fd5b50565b5f8135905061426c81614248565b92915050565b5f806040838503121561428857614287613fbb565b5b5f6142958582860161425e565b92505060206142a68582860161413f565b9150509250929050565b5f805f606084860312156142c7576142c6613fbb565b5b5f6142d48682870161425e565b93505060206142e58682870161425e565b92505060406142f68682870161413f565b9150509250925092565b61430981614120565b82525050565b5f6020820190506143225f830184614300565b92915050565b60038110614339576143386141bc565b5b50565b5f81905061434982614328565b919050565b5f6143588261433c565b9050919050565b6143688161434e565b82525050565b5f6020820190506143815f83018461435f565b92915050565b61439081614043565b811461439a575f80fd5b50565b5f813590506143ab81614387565b92915050565b5f80604083850312156143c7576143c6613fbb565b5b5f6143d48582860161425e565b92505060206143e58582860161439d565b9150509250929050565b5f6020828403121561440457614403613fbb565b5b5f6144118482850161425e565b91505092915050565b5f805f6060848603121561443157614430613fbb565b5b5f61443e8682870161413f565b935050602061444f8682870161413f565b92505060406144608682870161413f565b9150509250925092565b5f80fd5b5f602082840312156144835761448261446a565b5b81905092915050565b5f602082840312156144a1576144a0613fbb565b5b5f6144ae8482850161446e565b91505092915050565b5f805f606084860312156144ce576144cd613fbb565b5b5f6144db8682870161413f565b93505060206144ec8682870161413f565b92505060406144fd8682870161425e565b9150509250925092565b5f6bffffffffffffffffffffffff82169050919050565b61452781614507565b82525050565b5f6020820190506145405f83018461451e565b92915050565b60038110614552575f80fd5b50565b5f8135905061456381614546565b92915050565b5f6020828403121561457e5761457d613fbb565b5b5f61458b84828501614555565b91505092915050565b5f60c082840312156145a9576145a861446a565b5b81905092915050565b5f602082840312156145c7576145c6613fbb565b5b5f82013567ffffffffffffffff8111156145e4576145e3613fbf565b5b6145f084828501614594565b91505092915050565b61460281614120565b82525050565b5f82825260208201905092915050565b5f61462282614076565b61462c8185614608565b935061463c818560208601614090565b614645816140b8565b840191505092915050565b6146598161420f565b82525050565b61466881613f79565b82525050565b5f61012083015f8301516146845f8601826145f9565b50602083015161469760208601826145f9565b5060408301516146aa60408601826145f9565b50606083015184820360608601526146c28282614618565b91505060808301516146d76080860182614650565b5060a08301516146ea60a08601826145f9565b5060c08301516146fd60c08601826145f9565b5060e083015161471060e086018261465f565b5061010083015161472561010086018261465f565b508091505092915050565b5f6020820190508181035f830152614748818461466e565b905092915050565b5f80fd5b5f80fd5b5f80fd5b5f8083601f84011261477157614770614750565b5b8235905067ffffffffffffffff81111561478e5761478d614754565b5b6020830191508360208202830111156147aa576147a9614758565b5b9250929050565b5f80602083850312156147c7576147c6613fbb565b5b5f83013567ffffffffffffffff8111156147e4576147e3613fbf565b5b6147f08582860161475c565b92509250509250929050565b5f81519050919050565b5f82825260208201905092915050565b5f819050602082019050919050565b5f61483083836145f9565b60208301905092915050565b5f602082019050919050565b5f614852826147fc565b61485c8185614806565b935061486783614816565b805f5b8381101561489757815161487e8882614825565b97506148898361483c565b92505060018101905061486a565b5085935050505092915050565b5f6020820190508181035f8301526148bc8184614848565b905092915050565b5f61ffff82169050919050565b6148da816148c4565b82525050565b5f6040820190506148f35f830185613f8a565b61490060208301846148d1565b9392505050565b5f6080828403121561491c5761491b61446a565b5b81905092915050565b5f6020828403121561493a57614939613fbb565b5b5f82013567ffffffffffffffff81111561495757614956613fbf565b5b61496384828501614907565b91505092915050565b5f806040838503121561498257614981613fbb565b5b5f61498f8582860161413f565b92505060206149a08582860161425e565b9150509250929050565b5f80fd5b7f4e487b71000000000000000000000000000000000000000000000000000000005f52604160045260245ffd5b6149e4826140b8565b810181811067ffffffffffffffff82111715614a0357614a026149ae565b5b80604052505050565b5f614a15613fb2565b9050614a2182826149db565b919050565b5f67ffffffffffffffff821115614a4057614a3f6149ae565b5b614a49826140b8565b9050602081019050919050565b828183375f83830152505050565b5f614a76614a7184614a26565b614a0c565b905082815260208101848484011115614a9257614a916149aa565b5b614a9d848285614a56565b509392505050565b5f82601f830112614ab957614ab8614750565b5b8135614ac9848260208601614a64565b91505092915050565b5f805f8060808587031215614aea57614ae9613fbb565b5b5f614af78782880161425e565b9450506020614b088782880161425e565b9350506040614b198782880161413f565b925050606085013567ffffffffffffffff811115614b3a57614b39613fbf565b5b614b4687828801614aa5565b91505092959194509250565b614b5b81614507565b82525050565b604082015f820151614b755f85018261465f565b506020820151614b886020850182614b52565b50505050565b5f604082019050614ba15f830184614b61565b92915050565b5f60c08284031215614bbc57614bbb61446a565b5b81905092915050565b5f60208284031215614bda57614bd9613fbb565b5b5f82013567ffffffffffffffff811115614bf757614bf6613fbf565b5b614c0384828501614ba7565b91505092915050565b5f81519050919050565b5f82825260208201905092915050565b5f614c3082614c0c565b614c3a8185614c16565b9350614c4a818560208601614090565b614c53816140b8565b840191505092915050565b5f6020820190508181035f830152614c768184614c26565b905092915050565b614c87816148c4565b8114614c91575f80fd5b50565b5f81359050614ca281614c7e565b92915050565b5f60208284031215614cbd57614cbc613fbb565b5b5f614cca84828501614c94565b91505092915050565b5f602082019050614ce65f8301846148d1565b92915050565b5f8060408385031215614d0257614d01613fbb565b5b5f614d0f8582860161425e565b9250506020614d208582860161425e565b9150509250929050565b5f60a08284031215614d3f57614d3e61446a565b5b81905092915050565b5f60208284031215614d5d57614d5c613fbb565b5b5f82013567ffffffffffffffff811115614d7a57614d79613fbf565b5b614d8684828501614d2a565b91505092915050565b5f8083601f840112614da457614da3614750565b5b8235905067ffffffffffffffff811115614dc157614dc0614754565b5b602083019150836001820283011115614ddd57614ddc614758565b5b9250929050565b5f805f60408486031215614dfb57614dfa613fbb565b5b5f614e088682870161413f565b935050602084013567ffffffffffffffff811115614e2957614e28613fbf565b5b614e3586828701614d8f565b92509250509250925092565b5f604083015f830151614e565f8601826145f9565b5060208301518482036020860152614e6e8282614618565b9150508091505092915050565b5f6020820190508181035f830152614e938184614e41565b905092915050565b5f60a08284031215614eb057614eaf61446a565b5b81905092915050565b5f60208284031215614ece57614ecd613fbb565b5b5f82013567ffffffffffffffff811115614eeb57614eea613fbf565b5b614ef784828501614e9b565b91505092915050565b7f4e487b71000000000000000000000000000000000000000000000000000000005f52602260045260245ffd5b5f6002820490506001821680614f4457607f821691505b602082108103614f5757614f56614f00565b5b50919050565b614f6681613f79565b82525050565b614f7581614043565b82525050565b5f604082019050614f8e5f830185614f5d565b614f9b6020830184614f6c565b9392505050565b5f602082019050614fb55f830184614f5d565b92915050565b614fc481614120565b82525050565b5f606082019050614fdd5f830186614fbb565b614fea6020830185614fbb565b614ff76040830184614fbb565b949350505050565b5f8151905061500d81614387565b92915050565b5f6020828403121561502857615027613fbb565b5b5f61503584828501614fff565b91505092915050565b5f61504c602084018461425e565b905092915050565b61505d81613f79565b82525050565b602082016150735f83018361503e565b61507f5f850182615054565b50505050565b5f6040820190506150985f830185615063565b6150a56020830184614fbb565b9392505050565b6150b58161434e565b82525050565b5f6020820190506150ce5f8301846150ac565b92915050565b5f6080820190506150e75f830187614fbb565b6150f46020830186614fbb565b6151016040830185614fbb565b61510e6060830184614f5d565b95945050505050565b5f8151905061512581614129565b92915050565b5f602082840312156151405761513f613fbb565b5b5f61514d84828501615117565b91505092915050565b5f615164602084018461413f565b905092915050565b61517581614120565b82525050565b5f80fd5b5f80fd5b5f80fd5b5f80833560016020038436030381126151a3576151a2615183565b5b83810192508235915060208301925067ffffffffffffffff8211156151cb576151ca61517b565b5b6001820236038313156151e1576151e061517f565b5b509250929050565b5f82825260208201905092915050565b5f61520483856151e9565b9350615211838584614a56565b61521a836140b8565b840190509392505050565b5f808335600160200384360303811261524157615240615183565b5b83810192508235915060208301925067ffffffffffffffff8211156152695761526861517b565b5b60208202360383131561527f5761527e61517f565b5b509250929050565b5f82825260208201905092915050565b5f819050919050565b5f6152ab8383615054565b60208301905092915050565b5f602082019050919050565b5f6152ce8385615287565b93506152d982615297565b805f5b85811015615311576152ee828461503e565b6152f888826152a0565b9750615303836152b7565b9250506001810190506152dc565b5085925050509392505050565b5f808335600160200384360303811261533a57615339615183565b5b83810192508235915060208301925067ffffffffffffffff8211156153625761536161517b565b5b6020820236038313156153785761537761517f565b5b509250929050565b5f82825260208201905092915050565b5f819050919050565b5f82825260208201905092915050565b5f6153b48385615399565b93506153c1838584614a56565b6153ca836140b8565b840190509392505050565b5f6153e18484846153a9565b90509392505050565b5f808335600160200384360303811261540657615405615183565b5b83810192508235915060208301925067ffffffffffffffff82111561542e5761542d61517b565b5b6001820236038313156154445761544361517f565b5b509250929050565b5f602082019050919050565b5f6154638385615380565b93508360208402850161547584615390565b805f5b878110156154ba57848403895261548f82846153ea565b61549a8682846153d5565b95506154a58461544c565b935060208b019a505050600181019050615478565b50829750879450505050509392505050565b5f60c083016154dd5f840184615156565b6154e95f86018261516c565b506154f76020840184615187565b858303602087015261550a8382846151f9565b9250505061551b6040840184615156565b615528604086018261516c565b506155366060840184615156565b615543606086018261516c565b506155516080840184615225565b85830360808701526155648382846152c3565b9250505061557560a084018461531e565b85830360a0870152615588838284615458565b925050508091505092915050565b5f6040820190508181035f8301526155ae81856154cc565b90506155bd6020830184614f5d565b9392505050565b5f82825260208201905092915050565b5f819050919050565b5f608083016155ee5f840184615156565b6155fa5f86018261516c565b506156086020840184615187565b858303602087015261561b8382846151f9565b9250505061562c6040840184615156565b615639604086018261516c565b506156476060840184615156565b615654606086018261516c565b508091505092915050565b5f61566a83836155dd565b905092915050565b5f8235600160800383360303811261568d5761568c615183565b5b82810191505092915050565b5f602082019050919050565b5f6156b083856155c4565b9350836020840285016156c2846155d4565b805f5b878110156157055784840389526156dc8284615672565b6156e6858261565f565b94506156f183615699565b925060208a019950506001810190506156c5565b50829750879450505050509392505050565b5f6040820190508181035f8301526157308185876156a5565b905061573f6020830184614f5d565b949350505050565b5f67ffffffffffffffff821115615761576157606149ae565b5b602082029050602081019050919050565b5f61578461577f84615747565b614a0c565b905080838252602082019050602084028301858111156157a7576157a6614758565b5b835b818110156157d057806157bc8882615117565b8452602084019350506020810190506157a9565b5050509392505050565b5f82601f8301126157ee576157ed614750565b5b81516157fe848260208601615772565b91505092915050565b5f6020828403121561581c5761581b613fbb565b5b5f82015167ffffffffffffffff81111561583957615838613fbf565b5b615845848285016157da565b91505092915050565b5f819050919050565b5f819050919050565b5f61587a6158756158708461584e565b615857565b614120565b9050919050565b61588a81615860565b82525050565b5f6040820190506158a35f830185615881565b6158b06020830184614300565b9392505050565b5f608083016158c85f840184615156565b6158d45f86018261516c565b506158e26020840184615187565b85830360208701526158f58382846151f9565b925050506159066040840184615156565b615913604086018261516c565b506159216060840184615156565b61592e606086018261516c565b508091505092915050565b5f6040820190508181035f83015261595181856158b7565b90506159606020830184614f5d565b9392505050565b5f60408201905061597a5f830185614fbb565b6159876020830184614fbb565b9392505050565b5f67ffffffffffffffff8211156159a8576159a76149ae565b5b6159b1826140b8565b9050602081019050919050565b5f6159d06159cb8461598e565b614a0c565b9050828152602081018484840111156159ec576159eb6149aa565b5b6159f7848285614090565b509392505050565b5f82601f830112615a1357615a12614750565b5b8151615a238482602086016159be565b91505092915050565b5f60208284031215615a4157615a40613fbb565b5b5f82015167ffffffffffffffff811115615a5e57615a5d613fbf565b5b615a6a848285016159ff565b91505092915050565b5f60c08301615a845f840184615156565b615a905f86018261516c565b50615a9e6020840184615156565b615aab602086018261516c565b50615ab96040840184615156565b615ac6604086018261516c565b50615ad4606084018461503e565b615ae16060860182615054565b50615aef608084018461503e565b615afc6080860182615054565b50615b0a60a08401846153ea565b85830360a0870152615b1d8382846153a9565b925050508091505092915050565b5f6060820190508181035f830152615b438186615a73565b9050615b526020830185614f5d565b615b5f6040830184614f5d565b949350505050565b5f615b79615b7484614a26565b614a0c565b905082815260208101848484011115615b9557615b946149aa565b5b615ba0848285614090565b509392505050565b5f82601f830112615bbc57615bbb614750565b5b8151615bcc848260208601615b67565b91505092915050565b5f60208284031215615bea57615be9613fbb565b5b5f82015167ffffffffffffffff811115615c0757615c06613fbf565b5b615c1384828501615ba8565b91505092915050565b5f604082019050615c2f5f830185614300565b615c3c6020830184614300565b9392505050565b5f60a08301615c545f840184615156565b615c605f86018261516c565b50615c6e6020840184615187565b8583036020870152615c818382846151f9565b92505050615c92604084018461503e565b615c9f6040860182615054565b50615cad606084018461503e565b615cba6060860182615054565b50615cc860808401846153ea565b8583036080870152615cdb8382846153a9565b925050508091505092915050565b5f6040820190508181035f830152615d018185615c43565b9050615d106020830184614f5d565b9392505050565b5f82825260208201905092915050565b5f615d328385615d17565b9350615d3f838584614a56565b615d48836140b8565b840190509392505050565b5f606082019050615d665f830187614fbb565b8181036020830152615d79818587615d27565b9050615d886040830184614f5d565b95945050505050565b5f60a08301615da25f840184615156565b615dae5f86018261516c565b50615dbc6020840184615156565b615dc9602086018261516c565b50615dd76040840184615156565b615de4604086018261516c565b50615df2606084018461503e565b615dff6060860182615054565b50615e0d60808401846153ea565b8583036080870152615e208382846153a9565b925050508091505092915050565b5f6060820190508181035f830152615e468186615d91565b9050615e556020830185614f5d565b615e626040830184614f5d565b949350505050565b7f4e487b71000000000000000000000000000000000000000000000000000000005f52601260045260245ffd5b5f615ea1826148c4565b9150615eac836148c4565b925082615ebc57615ebb615e6a565b5b828204905092915050565b5f608082019050615eda5f830187613f8a565b615ee76020830186613f8a565b615ef46040830185614300565b8181036060830152615f068184614c26565b905095945050505050565b5f81519050615f1f81613fee565b92915050565b5f60208284031215615f3a57615f39613fbb565b5b5f615f4784828501615f11565b9150509291505056fea2646970667358221220fc9d1e4c08d16e204c85d1b2464d40ee4369a3deac0ebf345b1d1249c91ae41d64736f6c63430008140033",
  "immutableReferences": {
    "3938": [
      {
        "length": 32,
        "start": 9660
      }
    ]
  },
  "source": "// SPDX-License-Identifier: MIT\r\n\r\npragma solidity ^0.8.15;\r\n\r\n// Interfaces\r\nimport {IEduxProtocol} from './interfaces/IEduxProtocol.sol';\r\n\r\n// Constants\r\nimport {Types} from './libraries/constants/Types.sol';\r\nimport {Errors} from './libraries/constants/Errors.sol';\r\n\r\n// Edux Hub Components\r\nimport {EduxHubStorage} from './base/EduxHubStorage.sol';\r\nimport {EduxGovernable} from './base/EduxGovernable.sol';\r\nimport {EduxProfiles} from './base/EduxProfiles.sol';\r\n\r\n// Libraries\r\nimport {ActionLib} from './libraries/ActionLib.sol';\r\nimport {CollectLib} from './libraries/CollectLib.sol';\r\nimport {ProfileLib} from './libraries/ProfileLib.sol';\r\nimport {PublicationLib} from './libraries/PublicationLib.sol';\r\nimport {StorageLib} from './libraries/StorageLib.sol';\r\nimport {ValidationLib} from './libraries/ValidationLib.sol';\r\nimport {GovernanceLib} from './libraries/GovernanceLib.sol';\r\n\r\n/**\r\n * @title EduxHub\r\n * @author Edux Protocol\r\n *\r\n * @notice This is the main entry point of the Edux Protocol. It contains governance functionality as well as\r\n * publishing and profile interaction functionality.\r\n *\r\n * NOTE: The Edux Protocol is unique in that frontend operators need to track a potentially overwhelming\r\n * number of NFT contracts and interactions at once. For that reason, we've made two quirky design decisions:\r\n *      1. Both Follow & Collect NFTs invoke a EduxHub callback on transfer with the sole purpose of emitting an event.\r\n *      2. Almost every event in the protocol emits the current block timestamp, reducing the need to fetch it manually.\r\n *\r\n * @custom:upgradeable Transparent upgradeable proxy. In this version, without initializer.\r\n * See `../misc/EduxHubInitializable.sol` for the initializable version.\r\n */\r\ncontract EduxHub is\r\n    EduxProfiles,\r\n    EduxGovernable,\r\n    EduxHubStorage,\r\n    IEduxProtocol\r\n{\r\n    address internal immutable MODULE_REGISTRY;\r\n    modifier onlyOwnerOfProfile(address expectedOwner, uint256 profileId) {\r\n        ValidationLib.validateAddressIsProfileOwner(expectedOwner, profileId);\r\n        _;\r\n    }\r\n\r\n    modifier whenPublishingEnabled() {\r\n        if (StorageLib.getState() != Types.ProtocolState.Unpaused) {\r\n            revert Errors.PublishingPaused();\r\n        }\r\n        _;\r\n    }\r\n\r\n    constructor(\r\n        address moduleRegistry,\r\n        address newGovernance,\r\n        string memory name, \r\n        string memory symbol\r\n    )\r\n        EduxProfiles()\r\n        // EduxImplGetters(moduleRegistry,newGovernance)\r\n    {\r\n        MODULE_REGISTRY = moduleRegistry;\r\n        GovernanceLib.initState(Types.ProtocolState.Paused);\r\n        GovernanceLib.setGovernance(newGovernance);\r\n        _initialize(name,symbol);\r\n    }\r\n\r\n    /// @inheritdoc IEduxProtocol\r\n    function createProfile(\r\n        Types.CreateProfileParams calldata createProfileParams\r\n    ) external override whenNotPaused returns (uint256) {\r\n        ValidationLib.validateProfileCreatorWhitelisted(msg.sender);\r\n        unchecked {\r\n            uint256 profileId = ++_profileCounter;\r\n            mint(createProfileParams.to, profileId);\r\n            ProfileLib.createProfile(createProfileParams, profileId);\r\n            return profileId;\r\n        }\r\n    }\r\n\r\n    ///////////////////////////////////////////\r\n    ///        PROFILE OWNER FUNCTIONS      ///\r\n    ///////////////////////////////////////////\r\n\r\n    /// @inheritdoc IEduxProtocol\r\n    function setProfileMetadataURI(\r\n        uint256 profileId,\r\n        string calldata metadataURI\r\n    ) external override whenNotPaused onlyOwnerOfProfile(msg.sender, profileId) {\r\n        ProfileLib.setProfileMetadataURI(profileId, metadataURI, msg.sender);\r\n    }\r\n\r\n    ////////////////////////////////////////\r\n    ///        PUBLISHING FUNCTIONS      ///\r\n    ////////////////////////////////////////\r\n\r\n    /// @inheritdoc IEduxProtocol\r\n    function course(\r\n        Types.CourseParams calldata courseParams\r\n    )\r\n        external\r\n        override\r\n        whenPublishingEnabled\r\n        onlyOwnerOfProfile(msg.sender, courseParams.profileId)\r\n        returns (uint256)\r\n    {\r\n        return PublicationLib.course({courseParams: courseParams, transactionExecutor: msg.sender});\r\n    }\r\n\r\n    /// @inheritdoc IEduxProtocol\r\n    function lesson(\r\n        Types.LessonParams calldata lessonParams\r\n    )\r\n        external\r\n        override\r\n        whenPublishingEnabled\r\n        onlyOwnerOfProfile(msg.sender, lessonParams.profileId)\r\n        returns (uint256)\r\n    {\r\n        return PublicationLib.lesson({lessonParams: lessonParams, transactionExecutor: msg.sender});\r\n    }\r\n\r\n    /// @inheritdoc IEduxProtocol\r\n    function rating(\r\n        Types.RatingParams calldata ratingParams\r\n    )\r\n        external\r\n        override\r\n        whenPublishingEnabled\r\n        onlyOwnerOfProfile(msg.sender, ratingParams.profileId)\r\n        returns (uint256)\r\n    {\r\n        return PublicationLib.rating({ratingParams: ratingParams, transactionExecutor: msg.sender});\r\n    }\r\n\r\n    /// @inheritdoc IEduxProtocol\r\n    function bulkprogress(\r\n        Types.ProgressParams[] calldata progressParams\r\n    )\r\n        external\r\n        override\r\n        whenPublishingEnabled\r\n        returns (uint256[] memory)\r\n    {   \r\n        return PublicationLib.bulkprogress({progressParams: progressParams, transactionExecutor: msg.sender});\r\n    }\r\n\r\n\r\n    /////////////////////////////////////////////////\r\n    ///        PROFILE INTERACTION FUNCTIONS      ///\r\n    /////////////////////////////////////////////////\r\n\r\n    /// @inheritdoc IEduxProtocol\r\n    function collect(\r\n        Types.PublicationCollectParams calldata publicationCollectParams\r\n    )\r\n        external\r\n        payable\r\n        override\r\n        whenNotPaused\r\n        onlyOwnerOfProfile(msg.sender, publicationCollectParams.collectorProfileId)\r\n        returns (bytes memory)\r\n    {   \r\n        ValidationLib.validateProtocolFeeIsCorrect(msg.value);\r\n        payable(StorageLib.getTreasuryData().treasury).transfer(msg.value);\r\n\r\n        return\r\n            CollectLib.collect({\r\n                publicationCollectParams: publicationCollectParams,\r\n                transactionExecutor: msg.sender,\r\n                collectorProfileOwner: ownerOf(publicationCollectParams.collectorProfileId)\r\n            });\r\n    }\r\n\r\n    /// @inheritdoc IEduxProtocol\r\n    function completeCourse(uint256 profileId, uint256 pointedProfileId, uint256 pointedPublication) \r\n    external\r\n    override\r\n    whenNotPaused\r\n    onlyOwnerOfProfile(msg.sender, profileId)\r\n    returns (uint256)\r\n    {\r\n        return \r\n            PublicationLib.completeCourse({\r\n                profileId: profileId, \r\n                pointedProfileId: pointedProfileId, \r\n                pointedPublication: pointedPublication,\r\n                transactionExecutor: msg.sender\r\n            });\r\n    }\r\n\r\n    /// @inheritdoc IEduxProtocol\r\n    function act(\r\n        Types.PublicationActionParams calldata publicationActionParams\r\n    )\r\n        external\r\n        override\r\n        whenNotPaused\r\n        onlyOwnerOfProfile(msg.sender, publicationActionParams.actorProfileId)\r\n        returns (bytes memory)\r\n    {\r\n        return\r\n            ActionLib.act({\r\n                publicationActionParams: publicationActionParams,\r\n                transactionExecutor: msg.sender,\r\n                actorProfileOwner: ownerOf(publicationActionParams.actorProfileId)\r\n            });\r\n    }\r\n\r\n\r\n    ///////////////////////////////////////////\r\n    ///        EXTERNAL VIEW FUNCTIONS      ///\r\n    ///////////////////////////////////////////\r\n\r\n    /// @inheritdoc IEduxProtocol\r\n    function getContentURI(uint256 profileId, uint256 pubId) external view override returns (string memory) {\r\n        // This function is used by the Collect NFTs' tokenURI function.\r\n        return PublicationLib.getContentURI(profileId, pubId);\r\n    }\r\n\r\n    /// @inheritdoc IEduxProtocol\r\n    function isLessonCompleted(uint256 profileId, uint256 pointedPubId) external view override returns (bool) {\r\n        return PublicationLib.isLessonCompleted(profileId, pointedPubId);\r\n    }\r\n\r\n    /// @inheritdoc IEduxProtocol\r\n    function isCourseCompleted(uint256 profileId, uint256 pointedProfile, uint256 pointedPubId) external view override returns (bool) {\r\n        return PublicationLib.isCourseCompleted(profileId, pointedProfile, pointedPubId);\r\n    }\r\n\r\n    /// @inheritdoc IEduxProtocol\r\n    function getProfile(uint256 profileId) external view override returns (Types.ProfileMemory memory) {\r\n        return _profiles[profileId];\r\n    }\r\n\r\n    /// @inheritdoc IEduxProtocol\r\n    function getPublication(\r\n        uint256 profileId,\r\n        uint256 pubId\r\n    ) external pure override returns (Types.PublicationMemory memory) {\r\n        return StorageLib.getPublicationMemory(profileId, pubId);\r\n    }\r\n\r\n    /// @inheritdoc IEduxProtocol\r\n    function isActionModuleEnabledInPublication(\r\n        uint256 profileId,\r\n        uint256 pubId,\r\n        address module\r\n    ) external view returns (bool) {\r\n        return StorageLib.getPublication(profileId, pubId).actionModuleEnabled[module];\r\n    }\r\n\r\n    /// @inheritdoc IEduxProtocol\r\n    function getPublicationType(\r\n        uint256 profileId,\r\n        uint256 pubId\r\n    ) external view override returns (Types.PublicationType) {\r\n        return PublicationLib.getPublicationType(profileId, pubId);\r\n    }\r\n\r\n    /// @inheritdoc IEduxProtocol\r\n    function getModuleRegistry() external view override returns (address) {\r\n        return MODULE_REGISTRY;\r\n    }\r\n}",
  "sourcePath": "E:\\Blockchain\\EDUIndex\\EduxContract\\contracts\\EduxHub.sol",
  "compiler": {
    "name": "solc",
    "version": "0.8.20+commit.a1b79de6.Emscripten.clang"
  },
  "schemaVersion": "3.4.3",
  "updatedAt": "2024-08-25T13:14:53.540Z",
  "networkType": "ethereum",
  "devdoc": {
    "author": "Edux Protocol",
    "custom:upgradeable": "Transparent upgradeable proxy. In this version, without initializer. See `../misc/EduxHubInitializable.sol` for the initializable version.",
    "events": {
      "Approval(address,address,uint256)": {
        "details": "Emitted when `owner` enables `approved` to manage the `tokenId` token."
      },
      "ApprovalForAll(address,address,bool)": {
        "details": "Emitted when `owner` enables or disables (`approved`) `operator` to manage all of its assets."
      },
      "BatchMetadataUpdate(uint256,uint256)": {
        "details": "Emitted when a collection's token URI is updated.",
        "params": {
          "fromTokenId": "The ID of the smallest token that requires its token URI to be refreshed.",
          "toTokenId": "The ID of the biggest token that requires its token URI to be refreshed. Max uint256 to refresh all of them."
        }
      },
      "Transfer(address,address,uint256)": {
        "details": "Emitted when `tokenId` token is transferred from `from` to `to`."
      },
      "TreasuryFeeSetBPS(uint16,uint16,uint256)": {
        "params": {
          "newTreasuryFee": "The new treasury fee in BPS.",
          "prevTreasuryFee": "The previous treasury fee in BPS.",
          "timestamp": "The current block timestamp."
        }
      },
      "TreasurySet(address,address,uint256)": {
        "params": {
          "newTreasury": "The new treasury address set.",
          "prevTreasury": "The previous treasury address.",
          "timestamp": "The current block timestamp."
        }
      }
    },
    "kind": "dev",
    "methods": {
      "act((uint256,uint256,uint256,address,bytes))": {
        "params": {
          "publicationActionParams": "A PublicationActionParams struct containing the parameters."
        },
        "returns": {
          "_0": "bytes Arbitrary data the action module returns."
        }
      },
      "approve(address,uint256)": {
        "details": "See {IERC721-approve}."
      },
      "balanceOf(address)": {
        "details": "See {IERC721-balanceOf}."
      },
      "bulkprogress((uint256,string,uint256,uint256)[])": {
        "params": {
          "progressParams": "A ProgressParams struct containing the needed parameters."
        },
        "returns": {
          "_0": "uint256 An integer representing the progress's publication ID."
        }
      },
      "collect((uint256,uint256,uint256,address,address,bytes))": {
        "params": {
          "publicationCollectParams": "A PublicationCollectParams struct containing the parameters."
        },
        "returns": {
          "_0": "bytes Arbitrary data the action module returns."
        }
      },
      "completeCourse(uint256,uint256,uint256)": {
        "params": {
          "pointedProfileId": "The token ID of the publication's profile.",
          "pointedPublication": "The course publication id.",
          "profileId": "The token ID of the profile."
        },
        "returns": {
          "_0": "uint256 TokenId for received NFT certificate"
        }
      },
      "course((uint256,string,address,address,bytes))": {
        "params": {
          "courseParams": "A CourseParams struct containing the needed parameters."
        },
        "returns": {
          "_0": "uint256 An integer representing the course's publication ID."
        }
      },
      "createProfile((address))": {
        "params": {
          "createProfileParams": "A CreateProfileParams struct containing the needed params."
        }
      },
      "exists(uint256)": {
        "details": "See {IERC721Timestamped-exists}"
      },
      "getApproved(uint256)": {
        "details": "See {IERC721-getApproved}."
      },
      "getContentURI(uint256,uint256)": {
        "params": {
          "profileId": "The token ID of the profile that published the publication to query.",
          "pubId": "The publication ID of the publication to query."
        },
        "returns": {
          "_0": "string The URI associated with a given publication."
        }
      },
      "getGovernance()": {
        "returns": {
          "_0": "address The address of the currently configured governance."
        }
      },
      "getModuleRegistry()": {
        "returns": {
          "_0": "address The address of the Module Registry contract."
        }
      },
      "getProfile(uint256)": {
        "params": {
          "profileId": "The token ID of the profile to query."
        },
        "returns": {
          "_0": "Profile The profile struct of the given profile."
        }
      },
      "getProfileTokenURIContract()": {
        "returns": {
          "_0": "address The profile token URI contract."
        }
      },
      "getPublication(uint256,uint256)": {
        "params": {
          "profileId": "The token ID of the profile that published the publication to query.",
          "pubId": "The publication ID of the publication to query."
        },
        "returns": {
          "_0": "Publication The publication struct associated with the queried publication."
        }
      },
      "getPublicationType(uint256,uint256)": {
        "params": {
          "profileId": "The token ID of the profile that published the publication to query.",
          "pubId": "The publication ID of the publication to query."
        },
        "returns": {
          "_0": "PublicationType The publication type of the queried publication."
        }
      },
      "getState()": {
        "returns": {
          "_0": "ProtocolState The Protocol state, an enum, where:      0: Unpaused      1: PublishingPaused      2: Paused"
        }
      },
      "getTreasury()": {
        "returns": {
          "_0": "address The treasury address."
        }
      },
      "getTreasuryData()": {
        "returns": {
          "_0": "tuple First, the treasury address, second, the treasury fee."
        }
      },
      "getTreasuryFee(address)": {
        "params": {
          "currency": "the address of the currency."
        },
        "returns": {
          "_0": "uint16 The treasury fee.*"
        }
      },
      "getTreasuryFeeBPS()": {
        "returns": {
          "_0": "uint16 The treasury fee.*"
        }
      },
      "isActionModuleEnabledInPublication(uint256,uint256,address)": {
        "params": {
          "module": "The address of the Action Module to query.",
          "profileId": "The token ID of the profile that published the publication to query.",
          "pubId": "The publication ID of the publication to query."
        },
        "returns": {
          "_0": "bool True if the Action Module is enabled for the queried publication, false if not."
        }
      },
      "isApprovedForAll(address,address)": {
        "details": "See {IERC721-isApprovedForAll}."
      },
      "isCourseCompleted(uint256,uint256,uint256)": {
        "params": {
          "pointedProfile": "The token ID of the publication's profile to query.",
          "pointedPubId": "The course publication id to query.",
          "profileId": "The token ID of the profile to query."
        },
        "returns": {
          "_0": "true if course is completed by profile."
        }
      },
      "isLessonCompleted(uint256,uint256)": {
        "params": {
          "pointedPubId": "The lesson publication id to query.",
          "profileId": "The token ID of the profile to query."
        },
        "returns": {
          "_0": "true if lesson is completed by profile."
        }
      },
      "isProfileCreatorWhitelisted(address)": {
        "params": {
          "profileCreator": "The address of the profile creator to check."
        },
        "returns": {
          "_0": "bool True if the profile creator is whitelisted, false otherwise."
        }
      },
      "lesson((uint256,string,uint256,uint256,address[],bytes[]))": {
        "params": {
          "lessonParams": "A LessonParams struct containing the needed parameters."
        },
        "returns": {
          "_0": "uint256 An integer representing the lesson's publication ID."
        }
      },
      "mintTimestampOf(uint256)": {
        "details": "See {IERC721Timestamped-mintTimestampOf}"
      },
      "name()": {
        "details": "See {IERC721Metadata-name}."
      },
      "ownerOf(uint256)": {
        "details": "See {IERC721-ownerOf}."
      },
      "rating((uint256,string,uint256,uint256))": {
        "params": {
          "ratingParams": "A RatingParams struct containing the necessary parameters."
        },
        "returns": {
          "_0": "uint256 An integer representing the rating's publication ID."
        }
      },
      "safeTransferFrom(address,address,uint256)": {
        "details": "See {IERC721-safeTransferFrom}."
      },
      "safeTransferFrom(address,address,uint256,bytes)": {
        "details": "See {IERC721-safeTransferFrom}."
      },
      "setApprovalForAll(address,bool)": {
        "details": "See {IERC721-setApprovalForAll}."
      },
      "setEmergencyAdmin(address)": {
        "params": {
          "newEmergencyAdmin": "The new emergency admin address to set."
        }
      },
      "setGovernance(address)": {
        "params": {
          "newGovernance": "The new governance address to set."
        }
      },
      "setProfileMetadataURI(uint256,string)": {
        "params": {
          "metadataURI": "The metadata URI to set for the given profile.",
          "profileId": "The token ID of the profile to set the metadata URI for."
        }
      },
      "setProfileTokenURIContract(address)": {
        "params": {
          "profileTokenURIContract": "The profile token URI contract to set."
        }
      },
      "setState(uint8)": {
        "params": {
          "newState": "The state to set. It can be one of the following:  - Unpaused: The protocol is fully operational.  - PublishingPaused: The protocol is paused for publishing, but it is still operational for others operations.  - Paused: The protocol is paused for all operations."
        }
      },
      "setTreasury(address)": {
        "params": {
          "newTreasury": "The new treasury address to set."
        }
      },
      "setTreasuryFee(uint256,address)": {
        "params": {
          "currency": "The currency for the fee to set",
          "newTreasuryFee": "The new treasury fee to set."
        }
      },
      "setTreasuryFeeBPS(uint16)": {
        "params": {
          "newTreasuryFee": "The new treasury fee to set."
        }
      },
      "supportsInterface(bytes4)": {
        "details": "See {IERC165-supportsInterface}."
      },
      "symbol()": {
        "details": "See {IERC721Metadata-symbol}."
      },
      "tokenDataOf(uint256)": {
        "details": "See {IERC721Timestamped-tokenDataOf}"
      },
      "tokenURI(uint256)": {
        "details": "Overrides the ERC721 tokenURI function to return the associated URI with a given profile."
      },
      "totalSupply()": {
        "returns": {
          "_0": "uint256 The current total supply of tokens."
        }
      },
      "transferFrom(address,address,uint256)": {
        "details": "See {IERC721-transferFrom}."
      },
      "whitelistProfileCreator(address,bool)": {
        "params": {
          "profileCreator": "The profile creator address to add or remove from the whitelist.",
          "whitelist": "Whether or not the profile creator should be whitelisted."
        }
      }
    },
    "title": "EduxHub",
    "version": 1
  },
  "userdoc": {
    "events": {
      "TreasuryFeeSetBPS(uint16,uint16,uint256)": {
        "notice": "Emitted when the treasury fee is set."
      },
      "TreasurySet(address,address,uint256)": {
        "notice": "Emitted when the treasury address is set."
      }
    },
    "kind": "user",
    "methods": {
      "act((uint256,uint256,uint256,address,bytes))": {
        "notice": "Acts on a given publication with the specified parameters. You can act on a lesson publication (if it has at least one action module initialized)."
      },
      "bulkprogress((uint256,string,uint256,uint256)[])": {
        "notice": "Publishes a progress of the lesson publication. Progress is a type of reference publication that points to lesson publication You can only submit the progress on the lesson once."
      },
      "burn(uint256)": {
        "notice": "Burns a profile, this maintains the profile data struct."
      },
      "collect((uint256,uint256,uint256,address,address,bytes))": {
        "notice": "Collect on a given publication with the specified parameters. You can collect course publication."
      },
      "completeCourse(uint256,uint256,uint256)": {
        "notice": "completeCourse for completed course with the specified parameters."
      },
      "course((uint256,string,address,address,bytes))": {
        "notice": "Publishes a course. Course is the most basic publication type, and can be used to publish any kind of content. Course can have these types of modules initialized:  - Collect modules: Only One collect module based for collection of the course (Collecting by paying fee, or token gated etc)"
      },
      "createProfile((address))": {
        "notice": "Creates a profile with the specified parameters, minting a Profile NFT to the given recipient."
      },
      "getContentURI(uint256,uint256)": {
        "notice": "Returns the URI associated with a given publication. This is used to store the publication's metadata, e.g.: content, images, etc."
      },
      "getGovernance()": {
        "notice": "Returns the currently configured governance address."
      },
      "getModuleRegistry()": {
        "notice": "Returns the address of the registry that stores all modules that are used by the Edux Protocol."
      },
      "getProfile(uint256)": {
        "notice": "Returns the full profile struct associated with a given profile token ID."
      },
      "getProfileTokenURIContract()": {
        "notice": "Gets the profile token URI contract."
      },
      "getPublication(uint256,uint256)": {
        "notice": "Returns the full publication struct for a given publication."
      },
      "getPublicationType(uint256,uint256)": {
        "notice": "Returns the type of a given publication. The type can be one of the following (see PublicationType enum): - Nonexistent - Course - Lesson - Rating - Progress"
      },
      "getState()": {
        "notice": "Returns the current protocol state."
      },
      "getTreasury()": {
        "notice": "Returns the treasury address."
      },
      "getTreasuryData()": {
        "notice": "Returns the treasury address and treasury fee in a single call."
      },
      "getTreasuryFee(address)": {
        "notice": "Returns the treasury fee."
      },
      "getTreasuryFeeBPS()": {
        "notice": "Returns the treasury fee."
      },
      "isActionModuleEnabledInPublication(uint256,uint256,address)": {
        "notice": "Returns wether a given Action Module is enabled for a given publication."
      },
      "isCourseCompleted(uint256,uint256,uint256)": {
        "notice": "Returns true if course is completed by profile on given course publication."
      },
      "isLessonCompleted(uint256,uint256)": {
        "notice": "Returns true if lesson is completed by profile on given lesson publication."
      },
      "isProfileCreatorWhitelisted(address)": {
        "notice": "Returns whether or not a profile creator is whitelisted."
      },
      "lesson((uint256,string,uint256,uint256,address[],bytes[]))": {
        "notice": "Publishes a lesson on the given course publication. Lesson is a type of reference publication that points to another publication. Lesson can have these types of modules initialized:  - Action modules: any number of publication actions (e.g. token rewards, milestione base reward etc.)"
      },
      "rating((uint256,string,uint256,uint256))": {
        "notice": "Publishes a rating of the given course publication. Rating is a type of reference publication that points to another publication course Rating don't have any modules initialized. You can only rate the course once."
      },
      "setEmergencyAdmin(address)": {
        "notice": "Sets the emergency admin, which is a permissioned role able to set the protocol state."
      },
      "setGovernance(address)": {
        "notice": "Sets the privileged governance role."
      },
      "setProfileMetadataURI(uint256,string)": {
        "notice": "Sets the metadata URI for the given profile."
      },
      "setProfileTokenURIContract(address)": {
        "notice": "Sets the profile token URI contract."
      },
      "setState(uint8)": {
        "notice": "Sets the protocol state to either a global pause, a publishing pause or an unpaused state."
      },
      "setTreasury(address)": {
        "notice": "Sets the treasury address."
      },
      "setTreasuryFee(uint256,address)": {
        "notice": "Sets the treasury fee."
      },
      "setTreasuryFeeBPS(uint16)": {
        "notice": "Sets the treasury fee BPS."
      },
      "totalSupply()": {
        "notice": "Returns the amount of tokens in circulation."
      },
      "whitelistProfileCreator(address,bool)": {
        "notice": "Adds or removes a profile creator from the whitelist."
      }
    },
    "notice": "This is the main entry point of the Edux Protocol. It contains governance functionality as well as publishing and profile interaction functionality. NOTE: The Edux Protocol is unique in that frontend operators need to track a potentially overwhelming number of NFT contracts and interactions at once. For that reason, we've made two quirky design decisions:      1. Both Follow & Collect NFTs invoke a EduxHub callback on transfer with the sole purpose of emitting an event.      2. Almost every event in the protocol emits the current block timestamp, reducing the need to fetch it manually.",
    "version": 1
  }
}