{
  "contractName": "Face2",
  "abi": [
    {
      "inputs": [
        {
          "internalType": "enum Face.FaceVariants",
          "name": "faceVariant",
          "type": "Face.FaceVariants"
        }
      ],
      "name": "getFaceVariant",
      "outputs": [
        {
          "internalType": "string",
          "name": "",
          "type": "string"
        }
      ],
      "stateMutability": "pure",
      "type": "function"
    }
  ],
  "bytecode": "0x613af161004e600b8282823980515f1a607314610042577f4e487b71000000000000000000000000000000000000000000000000000000005f525f60045260245ffd5b305f52607381538281f3fe7300000000000000000000000000000000000000003014608060405260043610610034575f3560e01c8063b75928cc14610038575b5f80fd5b610052600480360381019061004d91906102c2565b610068565b60405161005f9190610377565b60405180910390f35b6060600c601281111561007e5761007d610397565b5b82601281111561009157610090610397565b5b036100b957604051806109600160405280610939815260200161318361093991399050610296565b600d60128111156100cd576100cc610397565b5b8260128111156100e0576100df610397565b5b0361010857604051806108c0016040528061089781526020016103c561089791399050610296565b600e601281111561011c5761011b610397565b5b82601281111561012f5761012e610397565b5b036101575760405180610940016040528061090f8152602001611df261090f91399050610296565b600f601281111561016b5761016a610397565b5b82601281111561017e5761017d610397565b5b036101a657604051806107c0016040528061078281526020016114b061078291399050610296565b601060128111156101ba576101b9610397565b5b8260128111156101cd576101cc610397565b5b036101f55760405180610ac00160405280610a828152602001612701610a8291399050610296565b6011601281111561020957610208610397565b5b82601281111561021c5761021b610397565b5b0361024457604051806101e001604052806101c08152602001611c326101c091399050610296565b60128081111561025757610256610397565b5b82601281111561026a57610269610397565b5b03610292576040518061088001604052806108548152602001610c5c61085491399050610296565b5f80fd5b919050565b5f80fd5b601381106102ab575f80fd5b50565b5f813590506102bc8161029f565b92915050565b5f602082840312156102d7576102d661029b565b5b5f6102e4848285016102ae565b91505092915050565b5f81519050919050565b5f82825260208201905092915050565b5f5b83811015610324578082015181840152602081019050610309565b5f8484015250505050565b5f601f19601f8301169050919050565b5f610349826102ed565b61035381856102f7565b9350610363818560208601610307565b61036c8161032f565b840191505092915050565b5f6020820190508181035f83015261038f818461033f565b905092915050565b7f4e487b71000000000000000000000000000000000000000000000000000000005f52602160045260245ffdfe3c7061746820636c6173733d226661636546696c6c436f6c6f72222066696c6c2d6f7061636974793d222e31322220643d224d37342e37203135342e3261312e3520312e352030203120312d322e352d312e3520312e3520312e3520302030203120322e3520312e355a6d352e31203361312e3520312e352030203120312d322e352d312e3520312e3520312e3520302030203120322e3520312e345a6d2d342e3520312e3961312e3520312e352030203120312d322e352d312e3520312e3520312e3520302030203120322e3520312e355a6d35352e342d332e3461312e3520312e352030203120312d322e3520312e3420312e3520312e3520302030203120322e352d312e345a6d352e312d3361312e3520312e352030203120312d322e3520312e3520312e3520312e3520302030203120322e352d312e355a6d2d2e3620342e3961312e3520312e352030203120312d322e3520312e3520312e3520312e3520302030203120322e352d312e355a222f3e3c656c6c6970736520636c6173733d226661636546696c6c436f6c6f72222063783d2238362e383235222063793d223134302e323938222072783d22392e383235222072793d2231312e323938222f3e3c706174682066696c6c3d2223666666222066696c6c2d72756c653d226576656e6f64642220643d224d38382e39203133332e33612e362e3620302030203120312e3120306c312e3220322e37612e362e36203020302030202e332e346c312e342e36612e362e36203020302031203020312e326c2d312e342e37612e362e362030203020302d2e332e334c393020313432612e362e362030203020312d312e3120306c2d312e322d322e37612e362e362030203020302d2e332d2e336c2d312e342d2e37612e362e3620302030203120302d312e326c312e342d2e36612e362e36203020302030202e332d2e346c312e322d322e375a4d383420313431612e342e34203020302031202e3720306c2e3720312e38612e342e34203020302030202e322e326c31202e34632e332e322e332e362030202e386c2d31202e34612e342e342030203020302d2e322e326c2d2e3720312e38612e342e342030203020312d2e3720306c2d2e382d312e38612e342e342030203020302d2e322d2e326c2d312d2e34612e342e3420302030203120302d2e386c312d2e34612e342e34203020302030202e322d2e326c2e382d312e385a6d2d332e332d342e38612e342e34203020302031202e3820306c2e322e362e322e33682e32612e342e342030203020312030202e38483832612e342e342030203020302d2e322e336c2d2e322e36612e342e342030203020312d2e3820306c2d2e322d2e36612e342e342030203020302d2e322d2e326c2d2e322d2e31612e342e3420302030203120302d2e38682e32612e342e34203020302030202e322d2e336c2e322d2e365a2220636c69702d72756c653d226576656e6f6464222f3e3c656c6c6970736520636c6173733d226661636546696c6c436f6c6f72222063783d22392e383235222063793d2231312e323938222072783d22392e383235222072793d2231312e32393822207472616e73666f726d3d226d6174726978282d31203020302031203133332031323929222f3e3c706174682066696c6c3d2223666666222066696c6c2d72756c653d226576656e6f64642220643d224d3132312e31203133332e33612e362e362030203020302d312e3120306c2d312e3220322e37612e362e362030203020312d2e332e346c2d312e342e36612e362e36203020302030203020312e326c312e342e37612e362e36203020302031202e332e336c312e3220322e37612e362e3620302030203020312e3120306c312e322d322e37612e362e36203020302031202e332d2e336c312e342d2e37612e362e3620302030203020302d312e326c2d312e342d2e36612e362e362030203020312d2e332d2e346c2d312e322d322e375a6d342e3820372e36612e342e342030203020302d2e3720306c2d2e3720312e38612e342e342030203020312d2e322e326c2d31202e34612e342e342030203020302030202e386c31202e34612e342e34203020302031202e322e326c2e3720312e38632e312e332e362e332e3720306c2e382d312e38612e342e34203020302031202e322d2e326c312d2e34612e342e3420302030203020302d2e386c2d312d2e34612e342e342030203020312d2e322d2e326c2d2e382d312e385a6d332e332d342e38612e342e342030203020302d2e3820306c2d2e322e36612e342e342030203020312d2e322e33682d2e32612e342e342030203020302030202e38682e32612e342e34203020302031202e322e336c2e322e36632e322e332e362e332e3820306c2e322d2e36612e342e34203020302031202e322d2e326c2e322d2e31612e342e3420302030203020302d2e38682d2e32612e342e342030203020312d2e322d2e336c2d2e322d2e365a2220636c69702d72756c653d226576656e6f6464222f3e3c7061746820636c6173733d226661636546696c6c436f6c6f722220643d224d31313420313630633020332d3420342e322d3920342e32732d392d312e322d392d342e3163302d3320342d362e3520392d362e35733920332e36203920362e355a222f3e3c706174682066696c6c3d22236666662220643d224d3938203135342e3668313476312e39633020312e322d3120322e312d322e3120322e314831303061322e3120322e312030203020312d322e312d322e31762d312e395a222f3e3c7061746820636c6173733d22666163655374726f6b65436f6c6f7222207374726f6b652d6c696e656361703d22726f756e6422207374726f6b652d6c696e656a6f696e3d22726f756e6422207374726f6b652d77696474683d22332e3137362220643d224d31313420313630633020332d3420342e322d3920342e32732d392d312e322d392d342e3163302d3320342d362e3520392d362e35733920332e36203920362e355a222f3e3c2f7376673e3c706174682066696c6c3d2223666666222066696c6c2d6f7061636974793d222e352220643d224d3133382e37203133372e32632d2e372033203220362e3220362e3220372e3220342e31203120382d2e3620382e382d332e352e372d332d322e312d362e322d362e322d372e322d342e322d312d382e312e362d382e3820332e355a6d2d36372e342030632e3720332d3220362e322d362e3220372e322d342e3120312d382d2e362d382e382d332e352d2e372d3320322e312d362e3220362e322d372e3220342e322d3120382e312e3620382e3820332e355a222f3e3c7061746820636c6173733d22666163655374726f6b65436f6c6f7222207374726f6b652d6c696e656361703d22726f756e6422207374726f6b652d77696474683d22332e352220643d224d37372031333373322e352d342e3220382e372d342e35413131203131203020302031203935203133326d33382031732d322e352d342e322d382e372d342e356131312031312030203020302d392e3320332e36222f3e3c7061746820636c6173733d22736b696e436f6c6f72426173652220643d224d3130352e34203134322e34632d342e3620302d31302e312d322e322d31342e382d322e342d342e372d2e322d392e362e352d31332e3520322e366131342e372031342e372030203020302d372e372031362e3563312e3620362e3120372e312031312e332031332e392031342e3320362e3820332031332e3720342e332032312e3520342e33222f3e3c7061746820636c6173733d22736b696e436f6c6f72426173652220643d224d3130352e34203134322e3463342e38203020392e332d322e322031342d322e3420342e372d2e3220392e362e352031332e3520322e366131342e372031342e3720302030203120372e372031362e35632d312e3620362e312d372e312031312e332d31332e392031342e336135342035342030203020312d323220342e33222f3e3c7061746820636c6173733d226d6f7574684f7665726c6179222066696c6c2d6f7061636974793d222e362220643d224d3130352e34203134322e34632d342e3620302d31302e312d322e322d31342e382d322e342d342e372d2e322d392e362e352d31332e3520322e366131342e372031342e372030203020302d372e372031362e3563312e3620362e3120372e312031312e332031332e392031342e3320362e3820332031332e3720342e332032312e3520342e33222f3e3c7061746820636c6173733d226d6f7574684f7665726c6179222066696c6c2d6f7061636974793d222e362220643d224d3130352e34203134322e3463342e38203020392e332d322e322031342d322e3420342e372d2e3220392e362e352031332e3520322e366131342e372031342e3720302030203120372e372031362e35632d312e3620362e312d372e312031312e332d31332e392031342e336135342035342030203020312d323220342e33222f3e3c706174682066696c6c3d22236666662220636c6173733d22666163655374726f6b65436f6c6f7222207374726f6b652d6c696e656a6f696e3d22726f756e6422207374726f6b652d77696474683d22322220643d226d3739203134312e3920382e342d322e327331322e3920322e3220313820322e322031382e352d322e322031382e352d322e326c372e3120322e3261372037203020302031203220352e39632d2e3520312e372d3120332e342d3220356c2d3120312e3661312e3820312e382030203020312d332e3220306c2d322e392d35632d352e382e332d31332e322e362d31382e392e362d352e3720302d31332e312d2e332d31392d2e366c2d322e38203561312e3820312e382030203020312d332e3220306c2d312d312e37632d312d312e352d312e352d332e322d312e392d3541372037203020302031203739203134325a222f3e3c706174682066696c6c3d22234646444645372220636c6173733d22666163655374726f6b65436f6c6f7222207374726f6b652d77696474683d22322220643d224d313237203137322e37633020312e392d392e3920342e312d323220342e316136342036342030203020312d32322d3463302d332e3720392e392d392032322d3973323220352e3320323220395a222f3e3c7061746820636c6173733d22666163655374726f6b65436f6c6f7222207374726f6b652d6c696e656361703d22726f756e6422207374726f6b652d6c696e656a6f696e3d22726f756e6422207374726f6b652d77696474683d22332220643d224d3130352e34203134322e34632d342e3620302d31302e312d322e322d31342e382d322e342d342e372d2e322d392e362e352d31332e3520322e366131342e372031342e372030203020302d372e372031362e3563312e3620362e3120372e312031312e332031332e392031342e3320362e3820332031332e3720342e332032312e3520342e33222f3e3c7061746820636c6173733d22666163655374726f6b65436f6c6f7222207374726f6b652d6c696e656361703d22726f756e6422207374726f6b652d6c696e656a6f696e3d22726f756e6422207374726f6b652d77696474683d22332220643d224d3130352e34203134322e3463342e38203020392e332d322e322031342d322e3420342e372d2e3220392e362e352031332e3520322e366131342e372031342e3720302030203120372e372031362e35632d312e3620362e312d372e312031312e332d31332e392031342e336135342035342030203020312d323220342e33222f3e3c7061746820636c6173733d22666163655374726f6b65436f6c6f7222207374726f6b652d6c696e656361703d22726f756e6422207374726f6b652d6f7061636974793d222e3122207374726f6b652d77696474683d22322220643d224d313035203136332e3776362e33222f3e3c2f7376673e3c7061746820636c6173733d226661636546696c6c436f6c6f722220643d224d3131342e33203133382e3363312e38203020332e33203220332e3320342e36203020322e362d312e3520342e362d332e3320342e362d312e3820302d332e332d322d332e332d342e3620302d322e3520312e352d342e3620332e332d342e365a6d2d31382e35203063312e38203020332e32203220332e3220342e36203020322e362d312e3420342e362d332e3220342e362d312e3920302d332e332d322d332e332d342e3620302d322e3520312e342d342e3620332e332d342e365a222f3e3c706174682066696c6c3d22236666662220643d224d3133362e39203133392e35633220372e342d2e342031352d372e322031392e332d372e3520342e372d32302e3220342e352d32342e362d332e38682d2e31632d342e3420382e332d31372e3120382e352d32342e3620332e386131372031372030203020312d372e322d31392e332031372031372030203020312031352d313363382d312031362e3820342e372031362e382031312e3720302d3720392d31322e372031362e382d31312e376131372031372030203020312031352031335a6d2d31392e3320332e3463302d322e352d312e352d342e362d332e332d342e362d312e3820302d332e3320322d332e3320342e36203020322e3620312e3520342e3620332e3320342e3620312e38203020332e332d3220332e332d342e365a4d39392031343363302d322e352d312e342d342e362d332e322d342e362d312e3920302d332e3320322d332e3320342e36203020322e3620312e3420342e3620332e3320342e3620312e38203020332e322d3220332e322d342e365a222f3e3c7061746820636c6173733d22666163655374726f6b65436f6c6f7222207374726f6b652d6c696e656361703d22726f756e6422207374726f6b652d6c696e656a6f696e3d22726f756e6422207374726f6b652d77696474683d22332220643d224d313035203133382e3163302d372d392d31322e362d31362e382d31312e376131372031372030203020302d3135203133632d3220372e352e3320313520372e312031392e3320372e3520342e382032302e3220342e362032342e362d332e38222f3e3c7061746820636c6173733d22666163655374726f6b65436f6c6f7222207374726f6b652d6c696e656361703d22726f756e6422207374726f6b652d6c696e656a6f696e3d22726f756e6422207374726f6b652d77696474683d22312e382220643d224d39322e34203134322e3963302d322e3620312e352d342e3620332e332d342e3620312e38203020332e33203220332e3320342e36203020322e352d312e3520342e362d332e3320342e362d312e3820302d332e332d322d332e332d342e365a222f3e3c7061746820636c6173733d22666163655374726f6b65436f6c6f7222207374726f6b652d6c696e656361703d22726f756e6422207374726f6b652d6c696e656a6f696e3d22726f756e6422207374726f6b652d77696474683d22332220643d224d313035203133382e3163302d3720382e392d31322e362031362e382d31312e37613137203137203020302031203135203133633220372e352d2e342031352d372e312031392e332d372e3520342e382d32302e3220342e362d32342e362d332e38222f3e3c7061746820636c6173733d22666163655374726f6b65436f6c6f7222207374726f6b652d6c696e656361703d22726f756e6422207374726f6b652d6c696e656a6f696e3d22726f756e6422207374726f6b652d77696474683d22312e382220643d224d3131372e36203134322e3963302d322e362d312e352d342e362d332e332d342e362d312e3820302d332e3320322d332e3320342e36203020322e3520312e3520342e3620332e3320342e3620312e38203020332e332d3220332e332d342e365a222f3e3c7061746820636c6173733d22666163655374726f6b65436f6c6f7222207374726f6b652d6c696e656361703d22726f756e6422207374726f6b652d77696474683d22322e352220643d226d38372e3920313232202e3520346d2d382e372d2e36203220322e376d31352e322d332e382d312e3620336d32362e382d352e332d2e3520346d382e382d2e362d3220322e376d2d31352e322d332e3820312e362033222f3e3c706174682066696c6c3d2223666666222066696c6c2d6f7061636974793d222e352220643d224d3830203136372e32632d2e3720332d342e3620342e362d382e3720332e372d342e322d312d372d342d362e342d37202e372d3320342e362d342e3720382e382d332e3720342e312e392037203420362e3320375a6d35302030632e37203320342e3620342e3620382e3720332e3720342e322d3120372d3420362e342d372d2e372d332d342e362d342e372d382e382d332e372d342e312e392d3720342d362e3320375a222f3e3c7061746820636c6173733d22666163655374726f6b65436f6c6f7222207374726f6b652d6c696e656361703d22726f756e6422207374726f6b652d77696474683d22332220643d224d39302e35203136372e3773342e3520352e312031342e3620352e3163313020302031342e352d352e312031342e352d352e31222f3e3c2f7376673e3c7061746820636c6173733d22666163655374726f6b65436f6c6f7222207374726f6b652d6c696e656361703d22726f756e6422207374726f6b652d77696474683d22332220643d224d3933203135342e3573332e3720352e3220313220352e322031322d352e322031322d352e32222f3e3c636972636c6520636c6173733d226661636546696c6c436f6c6f72222063783d2238372e36222063793d223134322e342220723d22342e36222f3e3c636972636c6520636c6173733d226661636546696c6c436f6c6f72222063783d223132322e34222063793d223134322e342220723d22342e36222f3e3c706174682066696c6c3d2223666666222066696c6c2d6f7061636974793d222e352220643d224d3738203135362e32632d2e3720332d342e3620342e362d382e3820332e372d342e312d312d372d342d362e332d37202e372d3320342e362d342e3720382e372d332e3720342e322e392037203420362e3420375a6d35342030632e37203320342e3620342e3620382e3720332e3720342e322d3120372d3420362e332d372d2e362d332d342e352d342e372d382e372d332e372d342e312e392d3720342d362e3320375a222f3e3c2f7376673e3c706174682066696c6c3d22236666662220643d224d313133203136312e3963312e392032203320342e36203320372e366131312031312030203020312d3232202e31762d2e316131312031312030203020312031312d313163332e322030203620312e33203820332e345a6d2d322e3320372e3663302d312d2e322d322d2e362d322e382d312d312e392d332d332e312d352e312d332e3161352e3820352e382030203020302d352e3720352e39633020332e3220322e3520352e3820352e3720352e3873352e372d322e3620352e372d352e385a222f3e3c7061746820636c6173733d22736b696e436f6c6f724461726b2220643d224d3130392e362031363761382e3820382e382030203020312d392e3320306c2d2e352d2e3163312d3220332d332e3320352e322d332e3320322e332030203420312e32203520336c2d2e342e335a4d3937203136312e396c2d2e322d312e3841382e3220382e3220302031203120313133203136326131312031312030203020302d313620305a222f3e3c7061746820636c6173733d22736b696e436f6c6f724c696768742220643d224d39362e38203136302e316330202e36203020312e322e3220312e386131312031312030203020302d3320372e37682d316131342e382031342e382030203020312d372e332d382e35632d312d332e362d2e342d372e3920322d31302e3861313420313420302030203120382e352d342e3463332e322d2e3620352d2e3720382e382d2e3720332e38203020352e36203020382e382e3620332e322e3620362e33203220382e3420342e3420322e35203320332e3220372e3220322031302e396131342e382031342e382030203020312d372e3220382e35682d31762d2e3163302d332d312e312d352e362d332d372e366c2e322d312e3861382e3220382e322030203120302d31362e3420305a222f3e3c7061746820636c6173733d22666163655374726f6b65436f6c6f7222207374726f6b652d6c696e656361703d22726f756e6422207374726f6b652d6c696e656a6f696e3d22726f756e6422207374726f6b652d77696474683d22332220643d224d3130392e362031363661382e3820382e382030203020312d392e332030222f3e3c7061746820636c6173733d22666163655374726f6b65436f6c6f7222207374726f6b652d6c696e656361703d22726f756e6422207374726f6b652d6c696e656a6f696e3d22726f756e6422207374726f6b652d77696474683d22322e352220643d226d3937203136312e392d2e322d312e3841382e3220382e322030203120312031313320313632222f3e3c7061746820636c6173733d22666163655374726f6b65436f6c6f7222207374726f6b652d6c696e656361703d22726f756e6422207374726f6b652d6c696e656a6f696e3d22726f756e6422207374726f6b652d77696474683d22332220643d224d3934203136392e36762d2e316131312031312030203020312031312d313120313120313120302030203120313120313176306131312031312030203020312d3232202e315a222f3e3c7061746820636c6173733d22666163655374726f6b65436f6c6f7222207374726f6b652d6c696e656361703d22726f756e6422207374726f6b652d6c696e656a6f696e3d22726f756e6422207374726f6b652d77696474683d22332220643d224d313130203136362e37632e352e382e3720312e382e3720322e38203020332e322d322e3520352e382d352e3720352e3861352e3820352e382030203020312d352e372d352e3820352e3820352e3820302030203120352e372d352e3963322e332030203420312e32203520335a6d2d313720336131342e382031342e382030203020312d372e332d382e36632d312d332e362d2e342d372e3920322d31302e3861313420313420302030203120382e352d342e3463332e322d2e3620352d2e3720382e382d2e37222f3e3c7061746820636c6173733d22666163655374726f6b65436f6c6f7222207374726f6b652d6c696e656361703d22726f756e6422207374726f6b652d6c696e656a6f696e3d22726f756e6422207374726f6b652d77696474683d22322220643d224d3130312e32203137322e3763312e322e372036202e3620382030222f3e3c7061746820636c6173733d22666163655374726f6b65436f6c6f7222207374726f6b652d6c696e656361703d22726f756e6422207374726f6b652d6c696e656a6f696e3d22726f756e6422207374726f6b652d77696474683d22332220643d224d313137203136392e3661313520313520302030203020372e332d382e3563312d332e372e342d382d322d31302e396131342031342030203020302d382e352d342e342034382034382030203020302d382e382d2e36222f3e3c7061746820636c6173733d22736b696e436f6c6f724c696768742220643d224d39392e35203135372e3668313176372e39682d31317a222f3e3c7061746820636c6173733d22666163655374726f6b65436f6c6f7222207374726f6b652d6c696e656361703d22726f756e6422207374726f6b652d6c696e656a6f696e3d22726f756e6422207374726f6b652d77696474683d22322e352220643d224d39382e37203136312e366134203420302030203120342d3468342e3661342034203020302031203420347630613420342030203020312d342034682d342e36613420342030203020312d342d3476305a222f3e3c636972636c6520636c6173733d226661636546696c6c436f6c6f72222063783d2238372e33222063793d223133352e352220723d22342e37222f3e3c636972636c6520636c6173733d226661636546696c6c436f6c6f72222063783d223132322e37222063793d223133352e352220723d22342e37222f3e3c706174682066696c6c3d2223666666222066696c6c2d6f7061636974793d222e352220643d224d3738203135382e32632d2e3720332d342e3620342e362d382e3820332e372d342e312d312d372d342d362e332d37202e372d3320342e362d342e3720382e372d332e3720342e322e392037203420362e3420375a6d35342030632e37203320342e3620342e3620382e3720332e3720342e322d3120372d3420362e332d372d2e362d332d342e352d342e372d382e372d332e372d342e312e392d3720342d362e3320375a222f3e3c2f7376673e3c706174682066696c6c3d2223666666222066696c6c2d6f7061636974793d222e332220643d224d313035203132312e34632d362e3420302d31342e332d342d32312d342e332d362e362d2e342d31332e352e392d31392e3120342e366132392e332032392e332030203020302d31312032392e382033392e382033392e382030203020302031392e382032352e372035392e382035392e382030203020302033302e3520372e38222f3e3c706174682066696c6c3d2223666666222066696c6c2d6f7061636974793d222e332220643d224d313035203132312e34633720302031332e342d342032302d342e3320362e372d2e342031332e362e392031392e3220342e366132392e332032392e332030203020312031312032392e382033392e382033392e382030203020312d31392e382032352e372036322e312036322e312030203020312d33312e3220372e38222f3e3c7061746820636c6173733d22666163655374726f6b65436f6c6f7222207374726f6b652d77696474683d22322e382220643d224d313035203132312e34632d362e3420302d31342e332d342d32312d342e332d362e362d2e342d31332e352e392d31392e3120342e366132392e332032392e332030203020302d31312032392e382033392e382033392e382030203020302031392e382032352e372035392e382035392e382030203020302033302e3520372e38222f3e3c7061746820636c6173733d22666163655374726f6b65436f6c6f7222207374726f6b652d77696474683d22322e382220643d224d313035203132312e34633720302031332e342d342032302d342e3320362e372d2e342031332e362e392031392e3220342e366132392e332032392e332030203020312031312032392e382033392e382033392e382030203020312d31392e382032352e372036322e312036322e312030203020312d33312e3220372e38222f3e3c7061746820636c6173733d22666163655374726f6b65436f6c6f7222207374726f6b652d6c696e656361703d22726f756e6422207374726f6b652d6c696e656a6f696e3d22726f756e6422207374726f6b652d77696474683d22332220643d224d313035203132312e34632d362e3420302d31342e332d342d32312d342e332d362e362d2e342d31332e352e392d31392e3120342e366132392e332032392e332030203020302d31312032392e382033392e382033392e382030203020302031392e382032352e372035392e382035392e382030203020302033302e3520372e38222f3e3c7061746820636c6173733d22666163655374726f6b65436f6c6f7222207374726f6b652d6c696e656361703d22726f756e6422207374726f6b652d6c696e656a6f696e3d22726f756e6422207374726f6b652d77696474683d22332220643d224d313035203132312e34633720302031332e342d342032302d342e3320362e372d2e342031332e362e392031392e3220342e366132392e332032392e332030203020312031312032392e382033392e382033392e382030203020312d31392e382032352e372036322e312036322e312030203020312d33312e3220372e38222f3e3c7061746820636c6173733d226661636546696c6c436f6c6f72222066696c6c2d6f7061636974793d222e352220643d224d37312e39203135382e3768322e3276322e32682d322e327a6d3020322e3268322e3276322e32682d322e327a6d2d322e3220322e3268322e3276322e32682d322e327a6d322e32203068322e3276322e32682d322e327a222f3e3c7061746820636c6173733d226661636546696c6c436f6c6f72222066696c6c2d6f7061636974793d222e352220643d224d37342e31203136332e3168322e3276322e32682d322e327a6d2d342e342d342e3468322e3276322e32682d322e327a6d3020322e3268322e3276322e32682d322e327a6d342e34203068322e3276322e32682d322e327a6d2d362e36203068322e3276322e32682d322e327a6d362e362d322e3268322e3276322e32682d322e327a6d322e3220322e3268322e3276322e32682d322e327a6d35382e312d322e3268322e3276322e32682d322e327a6d3020322e3268322e3276322e32682d322e327a6d2d322e3220322e3268322e3276322e32682d322e327a6d322e32203068322e3276322e32682d322e327a6d322e32203068322e3276322e32682d322e327a6d2d342e342d342e3468322e3276322e32682d322e327a6d3020322e3268322e3276322e32682d322e327a6d342e34203068322e3276322e32682d322e327a6d2d362e36203068322e3276322e32483133307a6d362e362d322e3268322e3276322e32682d322e327a6d322e3220322e3268322e3276322e32682d322e327a222f3e3c7061746820636c6173733d226661636546696c6c436f6c6f722220643d224d3936203135382e3768322e3276322e324839367a6d322e32203068322e3276322e32682d322e327a6d322e3220322e3268322e3276322e32682d322e327a222f3e3c7061746820636c6173733d226661636546696c6c436f6c6f722220643d224d3130322e36203136302e3968322e3276322e32682d322e327a6d322e32203068322e3276322e32682d322e327a6d322e32203068322e3276322e32483130377a6d322e322d322e3268322e3276322e32682d322e327a6d322e32203068322e3276322e32682d322e327a6d2d32332d352e3568322e3276322e32682d322e327a6d2d322e322d313168322e3276322e32682d322e327a6d2d322e3220332e3368322e3276322e324838347a6d3020322e3268322e3276322e324838347a6d382e38203048393576322e32682d322e327a6d2d382e3820322e3268322e3276322e324838347a6d382e38203048393576322e32682d322e327a6d2d362e362d352e3568362e3676332e33682d362e367a222f3e3c7061746820636c6173733d226661636546696c6c436f6c6f722220643d224d38362e32203134372e3768362e3676322e32682d362e367a6d3020322e3268362e3676332e33682d362e367a6d362e362d342e3448393576322e32682d322e327a6d2d342e342d332e3368322e3276322e32682d322e327a6d322e32203068322e3276322e32682d322e327a6d2d342e3420313168322e3276322e32682d322e327a6d342e34203068322e3276322e32682d322e327a6d32382e35203068322e3276322e32682d322e327a6d2d322e322d313168322e3276322e32682d322e327a6d2d322e3220332e3368322e3276322e32682d322e327a6d3020322e3268322e3276322e32682d322e327a6d382e38203068322e3276322e32682d322e327a6d2d382e3820322e3268322e3276322e32682d322e327a6d382e38203068322e3276322e32682d322e327a6d2d362e362d352e3568362e3676332e33682d362e367a222f3e3c7061746820636c6173733d226661636546696c6c436f6c6f722220643d224d3131362e39203134372e3768362e3676322e32682d362e367a6d3020322e3268362e3676332e33682d362e367a6d362e362d342e3468322e3276322e32682d322e327a6d2d342e342d332e3368322e3276322e32682d322e327a6d322e32203068322e3276322e32682d322e327a6d2d342e3420313168322e3276322e32682d322e327a6d342e34203068322e3276322e32682d322e327a222f3e3c2f7376673e3c7061746820636c6173733d226661636546696c6c436f6c6f72222066696c6c2d6f7061636974793d222e31322220643d224d37342e37203135342e3261312e3520312e352030203120312d322e352d312e3520312e3520312e3520302030203120322e3520312e355a6d352e31203361312e3520312e352030203120312d322e352d312e3520312e3520312e3520302030203120322e3520312e345a6d2d342e3520312e3961312e3520312e352030203120312d322e352d312e3520312e3520312e3520302030203120322e3520312e355a6d35352e342d332e3461312e3520312e352030203120312d322e3520312e3420312e3520312e3520302030203120322e352d312e345a6d352e312d3361312e3520312e352030203120312d322e3520312e3520312e3520312e3520302030203120322e352d312e355a6d2d2e3620342e3961312e3520312e352030203120312d322e3520312e3520312e3520312e3520302030203120322e352d312e355a222f3e3c656c6c6970736520636c6173733d226661636546696c6c436f6c6f72222063783d2238362e383235222063793d223134302e323938222072783d22392e383235222072793d2231312e323938222f3e3c706174682066696c6c3d2223666666222066696c6c2d72756c653d226576656e6f64642220643d224d38382e39203133332e33612e362e3620302030203120312e3120306c312e3220322e37612e362e36203020302030202e332e346c312e342e36612e362e36203020302031203020312e326c2d312e342e37612e362e362030203020302d2e332e334c393020313432612e362e362030203020312d312e3120306c2d312e322d322e37612e362e362030203020302d2e332d2e336c2d312e342d2e37612e362e3620302030203120302d312e326c312e342d2e36612e362e36203020302030202e332d2e346c312e322d322e375a4d383420313431612e342e34203020302031202e3720306c2e3720312e38612e342e34203020302030202e322e326c31202e34632e332e322e332e362030202e386c2d31202e34612e342e342030203020302d2e322e326c2d2e3720312e38612e342e342030203020312d2e3720306c2d2e382d312e38612e342e342030203020302d2e322d2e326c2d312d2e34612e342e3420302030203120302d2e386c312d2e34612e342e34203020302030202e322d2e326c2e382d312e385a6d2d332e332d342e38612e342e34203020302031202e3820306c2e322e362e322e33682e32612e342e342030203020312030202e38483832612e342e342030203020302d2e322e336c2d2e322e36612e342e342030203020312d2e3820306c2d2e322d2e36612e342e342030203020302d2e322d2e326c2d2e322d2e31612e342e3420302030203120302d2e38682e32612e342e34203020302030202e322d2e336c2e322d2e365a2220636c69702d72756c653d226576656e6f6464222f3e3c656c6c6970736520636c6173733d226661636546696c6c436f6c6f72222063783d22392e383235222063793d2231312e323938222072783d22392e383235222072793d2231312e32393822207472616e73666f726d3d226d6174726978282d31203020302031203133332031323929222f3e3c706174682066696c6c3d2223666666222066696c6c2d72756c653d226576656e6f64642220643d224d3132312e31203133332e33612e362e362030203020302d312e3120306c2d312e3220322e37612e362e362030203020312d2e332e346c2d312e342e36612e362e36203020302030203020312e326c312e342e37612e362e36203020302031202e332e336c312e3220322e37612e362e3620302030203020312e3120306c312e322d322e37612e362e36203020302031202e332d2e336c312e342d2e37612e362e3620302030203020302d312e326c2d312e342d2e36612e362e362030203020312d2e332d2e346c2d312e322d322e375a6d342e3820372e36612e342e342030203020302d2e3720306c2d2e3720312e38612e342e342030203020312d2e322e326c2d31202e34612e342e342030203020302030202e386c31202e34612e342e34203020302031202e322e326c2e3720312e38632e312e332e362e332e3720306c2e382d312e38612e342e34203020302031202e322d2e326c312d2e34612e342e3420302030203020302d2e386c2d312d2e34612e342e342030203020312d2e322d2e326c2d2e382d312e385a6d332e332d342e38612e342e342030203020302d2e3820306c2d2e322e36612e342e342030203020312d2e322e33682d2e32612e342e342030203020302030202e38682e32612e342e34203020302031202e322e336c2e322e36632e322e332e362e332e3820306c2e322d2e36612e342e34203020302031202e322d2e326c2e322d2e31612e342e3420302030203020302d2e38682d2e32612e342e342030203020312d2e322d2e336c2d2e322d2e365a2220636c69702d72756c653d226576656e6f6464222f3e3c7061746820636c6173733d226661636546696c6c436f6c6f722220643d224d31303520313732632d313520302d32302e362d382d31382e362d31332e3620312e342d342e3120362d362e342031302e342d3561333520333520302030203020382e3220312e3663322e33203020362e332d3120382e322d312e3620342e332d312e342039202e392031302e342035203220352e352d332e362031332e362d31382e362031332e365a222f3e3c7061746820636c6173733d22666163655374726f6b65436f6c6f72222066696c6c3d222346464446453722207374726f6b652d77696474683d22322e37352220643d224d39382e37203136312e3468312e336c312e372e342031202e332e382e3220312e352e3220312e352d2e322e392d2e322e392d2e336132312e332032312e3320302030203120312e382d2e336c312e322d2e3163322e322e3320332e3620312e3320342e3420322e3661382038203020302031202e3720352e322031312e312031312e312030203020312d31312e3420392e342031312e312031312e312030203020312d31312e342d392e34632d2e342d322d2e312d332e382e372d352e322e382d312e3320322e322d322e3320342e342d322e365a222f3e3c706174682066696c6c3d22234635433844342220643d224d313036203136332e387637613120312030203020312d322030762d376c31202e3220312d2e325a222f3e3c2f7376673ea2646970667358221220850d0a9ac5af6e768ee81a1a330b18fd28222fe4317375ccf54ac38cc3cda99c64736f6c63430008140033",
  "immutableReferences": {},
  "source": "// SPDX-License-Identifier: MIT\npragma solidity ^0.8.0;\n\nimport {EduxColors} from './EduxColors.sol';\nimport {Skin} from './Helpers.sol';\n\nlibrary Face {\n    enum FaceVariants {\n        // Face.sol\n        BUBBLEGUM, // 0\n        GRIN_TONGUE, // 1\n        GRIN, // 2\n        LAUGH, // 3\n        LOVE, // 4\n        OOPS, // 5\n        SLEEPY, // 6\n        SMILE_TEETH, // 7\n        SMILE, // 8\n        SMIRK, // 9\n        TONGUE, // 10\n        WINK, // 11\n        // Face2.sol\n        WOW_TONGUE, // 12\n        WOW, // 13\n        BABY, // 14\n        KAWAII, // 15\n        PIXIE, // 16\n        TODDLER, // 17\n        VAMP // 18\n    }\n\n    enum FaceColors {\n        NORMAL,\n        GOLD\n    }\n\n    function getFace(\n        FaceVariants faceVariant,\n        FaceColors faceColor,\n        Skin.SkinColors skinColor\n    ) external pure returns (string memory) {\n        string memory faceSvgStart = string.concat(\n            '<svg xmlns=\"http://www.w3.org/2000/svg\" width=\"210\" height=\"335\" fill=\"none\">',\n            _getStyleTag(faceColor, skinColor)\n        );\n        return string.concat(faceSvgStart, getFaceVariant(faceVariant));\n    }\n\n    function getFaceVariant(FaceVariants faceVariant) internal pure returns (string memory) {\n        if (faceVariant == FaceVariants.BUBBLEGUM) {\n            // bubblegum\n            return\n                '<path class=\"faceFillColor\" fill-rule=\"evenodd\" d=\"M94.1 139c.7-.4 1-1.1.8-1.8-1.4-3.7-4.5-6.2-8-6.2-5 0-8.9 4.7-8.9 10.4s4 10.4 8.8 10.4c3.5 0 6.5-2.4 8-5.8.3-.7-.1-1.5-.8-1.8l-3.6-1.5c-1-.4-1-1.8 0-2.2l3.7-1.6Zm20.8 2.4c0-5.7 4-10.4 8.8-10.4 3.7 0 7 2.7 8.2 6.5.3.7-.1 1.4-.8 1.7l-3 1.3c-1 .4-1 1.8 0 2.2l2.9 1.2c.7.3 1 1 .8 1.8-1.4 3.6-4.5 6.1-8 6.1-5 0-8.9-4.7-8.9-10.4Z\" clip-rule=\"evenodd\"/><path class=\"faceFillColor\" fill-opacity=\".12\" d=\"M74.7 154.2a1.5 1.5 0 1 1-2.5-1.5 1.5 1.5 0 0 1 2.5 1.5Zm5.1 3a1.5 1.5 0 1 1-2.5-1.5 1.5 1.5 0 0 1 2.5 1.4Zm-4.5 1.9a1.5 1.5 0 1 1-2.5-1.5 1.5 1.5 0 0 1 2.5 1.5Zm55.4-3.4a1.5 1.5 0 1 1-2.5 1.4 1.5 1.5 0 0 1 2.5-1.4Zm5.1-3a1.5 1.5 0 1 1-2.5 1.5 1.5 1.5 0 0 1 2.5-1.5Zm-.6 4.9a1.5 1.5 0 1 1-2.5 1.5 1.5 1.5 0 0 1 2.5-1.5Z\"/><circle cx=\"105\" cy=\"161.581\" r=\"3.466\" class=\"faceFillColor\"/><path class=\"faceStrokeColor\" stroke-linecap=\"round\" stroke-width=\"2.5\" d=\"M99 166s1.7 3.2 6 3.2 6-3.2 6-3.2m0-8.8s-1.7-3.2-6-3.2-6 3.2-6 3.2\"/><path fill=\"#FFCFEC\" fill-opacity=\".8\" class=\"faceStrokeColor\" stroke-width=\"2.75\" d=\"M94.3 144.7A32 32 0 0 0 34.5 161 32 32 0 0 0 94 178l2.3-3.8a310 310 0 0 1 4-6.6l3-4a3.4 3.4 0 0 0 0-4l-2.2-3.2a51 51 0 0 1-3.4-5.7l-.9-1.7c-.8-1.4-1.5-2.9-2.4-4.3Z\"/><circle cx=\"-1.289\" cy=\"11.289\" r=\"3.289\" fill=\"#fff\" fill-opacity=\".45\" transform=\"scale(-1 1) rotate(5 -1761 -904)\"/><path fill=\"#fff\" fill-opacity=\".45\" d=\"M87.3 150.8a4 4 0 0 1-7.4 3.4 14.7 14.7 0 0 0-7.3-8l-1.4-.8A2.5 2.5 0 0 1 70 142l.1-.3c.6-1.1 0-2.6-1.3-2.8-1.5-.2-2.8-.3-4.1-.2a1.5 1.5 0 0 1-.4-2.9 19.4 19.4 0 0 1 13.7 4c1 .5 1.8 1.2 2.8 2 2 1.8 3.7 4 4.7 5.7a34.4 34.4 0 0 1 1.6 3v.1h.1v.1\"/></svg>';\n        } else if (faceVariant == FaceVariants.GRIN_TONGUE) {\n            // grin-tongue\n            return\n                '<path class=\"faceFillColor\" fill-opacity=\".12\" d=\"M74.7 154.2a1.5 1.5 0 1 1-2.5-1.5 1.5 1.5 0 0 1 2.5 1.5Zm5.1 3a1.5 1.5 0 1 1-2.5-1.5 1.5 1.5 0 0 1 2.5 1.4Zm-4.5 1.9a1.5 1.5 0 1 1-2.5-1.5 1.5 1.5 0 0 1 2.5 1.5Zm55.4-3.4a1.5 1.5 0 1 1-2.5 1.4 1.5 1.5 0 0 1 2.5-1.4Zm5.1-3a1.5 1.5 0 1 1-2.5 1.5 1.5 1.5 0 0 1 2.5-1.5Zm-.6 4.9a1.5 1.5 0 1 1-2.5 1.5 1.5 1.5 0 0 1 2.5-1.5Z\"/><path class=\"faceStrokeColor\" stroke-linecap=\"round\" stroke-width=\"3.5\" d=\"M130.8 145.9s-2.1-4.2-7.4-4.5a8.8 8.8 0 0 0-7.8 3.7m-36.4.8s2.1-4.2 7.4-4.5a8.8 8.8 0 0 1 7.8 3.7\"/><path class=\"faceFillColor\" d=\"M105 172c-15 0-20.6-8-18.6-13.6 1.4-4.1 6-6.4 10.4-5a35 35 0 0 0 8.2 1.6c2.3 0 6.3-1 8.2-1.6 4.3-1.4 9 .9 10.4 5 2 5.5-3.6 13.6-18.6 13.6Z\"/><path class=\"faceStrokeColor\" fill=\"#FFDFE7\" stroke-width=\"2.75\" d=\"M98.7 161.4h1.3l1.7.4 1 .3.8.2 1.5.2 1.5-.2.9-.2.9-.3a21.3 21.3 0 0 1 1.8-.3l1.2-.1c2.2.3 3.6 1.3 4.4 2.6a8 8 0 0 1 .7 5.2 11.1 11.1 0 0 1-11.4 9.4 11.1 11.1 0 0 1-11.4-9.4c-.4-2-.1-3.8.7-5.2.8-1.3 2.2-2.3 4.4-2.6Z\"/><path fill=\"#F5C8D4\" d=\"M106 163.8v7a1 1 0 0 1-2 0v-7l1 .2 1-.2Z\"/></svg>';\n        } else if (faceVariant == FaceVariants.GRIN) {\n            // grin\n            return\n                '<path class=\"faceFillColor\" fill-opacity=\".12\" d=\"M74.7 154.2a1.5 1.5 0 1 1-2.5-1.5 1.5 1.5 0 0 1 2.5 1.5Zm5.1 3a1.5 1.5 0 1 1-2.5-1.5 1.5 1.5 0 0 1 2.5 1.4Zm-4.5 1.9a1.5 1.5 0 1 1-2.5-1.5 1.5 1.5 0 0 1 2.5 1.5Zm55.4-3.4a1.5 1.5 0 1 1-2.5 1.4 1.5 1.5 0 0 1 2.5-1.4Zm5.1-3a1.5 1.5 0 1 1-2.5 1.5 1.5 1.5 0 0 1 2.5-1.5Zm-.6 4.9a1.5 1.5 0 1 1-2.5 1.5 1.5 1.5 0 0 1 2.5-1.5Z\"/><path class=\"faceStrokeColor\" stroke-linecap=\"round\" stroke-width=\"3\" d=\"M91 159s4.3 6 14 6 14-6 14-6\"/><path class=\"faceStrokeColor\" stroke-linecap=\"round\" stroke-linejoin=\"round\" stroke-width=\"2.5\" d=\"M89 159c.8-.4 1.5-1 2-2m30 2c-.8-.4-1.5-1-2-2\"/><path class=\"faceStrokeColor\" stroke-linecap=\"round\" stroke-width=\"3.5\" d=\"M130.8 145.9s-2.1-4.2-7.4-4.5a8.8 8.8 0 0 0-7.8 3.7m-36.4.8s2.1-4.2 7.4-4.5a8.8 8.8 0 0 1 7.8 3.7\"/></svg>';\n        } else if (faceVariant == FaceVariants.LAUGH) {\n            // laugh\n            return\n                '<path class=\"faceStrokeColor\" stroke-linecap=\"round\" stroke-width=\"3.5\" d=\"M130.8 143.9s-2.1-4.2-7.4-4.5a8.8 8.8 0 0 0-7.8 3.7m-36.4.8s2.1-4.2 7.4-4.5a8.8 8.8 0 0 1 7.8 3.7\"/><path class=\"faceFillColor\" d=\"M91 157.3c0-4.3 2-6 14-6s14 1.7 14 6-6.3 9.5-14 9.5-14-5.2-14-9.5Z\"/><ellipse cx=\"105\" cy=\"161.607\" fill=\"#FFDFE7\" rx=\"11.15\" ry=\"3.626\"/><path class=\"faceStrokeColor\" stroke-linecap=\"round\" stroke-linejoin=\"round\" stroke-width=\"3.176\" d=\"M91 157c0-4.3 0-6 14-6s14 1.7 14 6c0 5.2-6.3 9.4-14 9.4s-14-4.2-14-9.4Z\"/><path fill=\"#E3F7FF\" d=\"M70.2 149.5c-2.5 1.1-5.6 1.3-7.6 3.3a5.5 5.5 0 1 0 7.8 7.8c2-2 2.2-5 3.3-7.6l1.4-3.3c.4-1-.6-2-1.6-1.6l-3.3 1.4Z\"/><path class=\"faceStrokeColor\" stroke-opacity=\".1\" stroke-width=\"2.5\" d=\"M61.7 151.9a6.8 6.8 0 1 0 9.6 9.6 10 10 0 0 0 2.3-4.1l.4-1.5.8-2.4 1.5-3.3c.8-2-1.2-4.1-3.3-3.2l-3.3 1.4-2.4.8-1.5.4a9.5 9.5 0 0 0-4 2.3Z\"/><path fill=\"#E3F7FF\" d=\"M139.8 149.5c2.5 1.1 5.6 1.3 7.6 3.3a5.5 5.5 0 1 1-7.8 7.8c-2-2-2.2-5-3.3-7.6l-1.4-3.3c-.4-1 .6-2 1.6-1.6l3.3 1.4Z\"/><path class=\"faceStrokeColor\" stroke-opacity=\".1\" stroke-width=\"2.5\" d=\"M148.3 151.9a6.8 6.8 0 0 1-9.6 9.6 10 10 0 0 1-2.3-4.1 50.4 50.4 0 0 1-.4-1.5l-.8-2.4-1.5-3.3c-.8-2 1.2-4.1 3.3-3.2l3.3 1.4 2.4.8 1.5.4c1.4.5 2.9 1.1 4 2.3Z\"/></svg>';\n        } else if (faceVariant == FaceVariants.LOVE) {\n            // love\n            return\n                '<path class=\"faceFillColor\" d=\"M91 160.3c0-4.3 2-6 14-6s14 1.7 14 6-6.3 9.5-14 9.5-14-5.2-14-9.5Z\"/><ellipse cx=\"105\" cy=\"164.607\" fill=\"#FFDFE7\" rx=\"11.15\" ry=\"3.626\"/><path class=\"faceStrokeColor\" stroke-linecap=\"round\" stroke-linejoin=\"round\" stroke-width=\"3.176\" d=\"M91 160c0-4.3 0-6 14-6s14 1.7 14 6c0 5.2-6.3 9.4-14 9.4s-14-4.2-14-9.4Z\"/><path class=\"faceStrokeColor\" fill=\"#FF88A5\" stroke-width=\"3\" d=\"M94.2 130.8a7.7 7.7 0 0 0-2.7-1.3 7.6 7.6 0 0 0-5.8.7 7.7 7.7 0 0 0-2.2 1.9 7.7 7.7 0 0 0-2.7-1.3 7.6 7.6 0 0 0-3-.2 7.6 7.6 0 0 0-2.7.9 7.7 7.7 0 0 0-2.3 2 7.6 7.6 0 0 0-1 1.7 7.2 7.2 0 0 0-.5 1.9 7.3 7.3 0 0 0 1.4 5.5A7.3 7.3 0 0 0 74 144l9.3 7.1a3.5 3.5 0 0 0 4.9-.6l7.2-9.2a7.2 7.2 0 0 0 1.6-5.6 7.4 7.4 0 0 0-.5-1.8 7.8 7.8 0 0 0-1-1.7 7.3 7.3 0 0 0-1.4-1.5Zm43.3 2.6a7.6 7.6 0 0 0-5.1-2.8 7.6 7.6 0 0 0-3 .2 7.7 7.7 0 0 0-2.6 1.3 7.7 7.7 0 0 0-2.3-2 7.6 7.6 0 0 0-2.8-.8 7.6 7.6 0 0 0-3 .2 7.7 7.7 0 0 0-2.6 1.3 7.6 7.6 0 0 0-1.5 1.4 7.2 7.2 0 0 0-1 1.8 7.8 7.8 0 0 0-.4 1.9 7.8 7.8 0 0 0 .5 3.8 7.3 7.3 0 0 0 1 1.7l7.3 9.2a3.5 3.5 0 0 0 4.9.6l9.3-7.1a7.6 7.6 0 0 0 1.4-1.5 7.2 7.2 0 0 0 1-1.7 7.8 7.8 0 0 0 .4-1.9 7.4 7.4 0 0 0 0-2 7.8 7.8 0 0 0-.5-1.8 7.3 7.3 0 0 0-1-1.8Z\"/><path class=\"faceFillColor\" fill-opacity=\".12\" d=\"M74.7 154.2a1.5 1.5 0 1 1-2.5-1.5 1.5 1.5 0 0 1 2.5 1.5Zm5.1 3a1.5 1.5 0 1 1-2.5-1.5 1.5 1.5 0 0 1 2.5 1.4Zm-4.5 1.9a1.5 1.5 0 1 1-2.5-1.5 1.5 1.5 0 0 1 2.5 1.5Zm55.4-3.4a1.5 1.5 0 1 1-2.5 1.4 1.5 1.5 0 0 1 2.5-1.4Zm5.1-3a1.5 1.5 0 1 1-2.5 1.5 1.5 1.5 0 0 1 2.5-1.5Zm-.6 4.9a1.5 1.5 0 1 1-2.5 1.5 1.5 1.5 0 0 1 2.5-1.5Z\"/><path fill=\"#E3F7FF\" d=\"M54.9 135.7c1 2.7 3.1 5.1 3.1 8a5.7 5.7 0 0 1-11.3 0c0-2.9 2-5.3 3.1-8l1.4-3.4c.4-1 1.9-1 2.3 0l1.4 3.4Z\"/><path class=\"faceStrokeColor\" stroke-opacity=\".1\" stroke-width=\"2.5\" d=\"M52.4 150.6a7 7 0 0 0 6.9-7c0-1.7-.7-3.2-1.3-4.5a51 51 0 0 0-.8-1.5l-1.2-2.3-1.3-3.5a2.5 2.5 0 0 0-4.7 0l-1.3 3.5-1.2 2.3a51 51 0 0 0-.8 1.5c-.6 1.3-1.3 2.8-1.3 4.6a7 7 0 0 0 7 6.9Z\"/></svg>';\n        } else if (faceVariant == FaceVariants.OOPS) {\n            // oops\n            return\n                '<ellipse cx=\"86.917\" cy=\"142.271\" fill=\"#fff\" rx=\"9.917\" ry=\"10.271\"/><ellipse class=\"faceFillColor\" cx=\"86.917\" cy=\"142.272\" rx=\"6.43\" ry=\"6.66\"/><ellipse cx=\"123.083\" cy=\"142.271\" fill=\"#fff\" rx=\"9.917\" ry=\"10.271\"/><ellipse class=\"faceFillColor\" cx=\"123.083\" cy=\"142.272\" rx=\"6.43\" ry=\"6.66\"/><path class=\"faceStrokeColor\" stroke-linecap=\"round\" stroke-linejoin=\"round\" stroke-width=\"3\" d=\"M96 158h18\"/><ellipse cx=\"9\" cy=\"7.271\" fill=\"#fff\" fill-opacity=\".45\" rx=\"9\" ry=\"7.271\" transform=\"matrix(-1 0 0 1 86 149)\"/><ellipse cx=\"9\" cy=\"7.271\" fill=\"#fff\" fill-opacity=\".45\" rx=\"9\" ry=\"7.271\" transform=\"matrix(-1 0 0 1 142 149)\"/></svg>';\n        } else if (faceVariant == FaceVariants.SLEEPY) {\n            // sleepy\n            return\n                '<path class=\"faceFillColor\" fill-opacity=\".12\" d=\"M74.7 154.2a1.5 1.5 0 1 1-2.5-1.5 1.5 1.5 0 0 1 2.5 1.5Zm5.1 3a1.5 1.5 0 1 1-2.5-1.5 1.5 1.5 0 0 1 2.5 1.4Zm-4.5 1.9a1.5 1.5 0 1 1-2.5-1.5 1.5 1.5 0 0 1 2.5 1.5Zm55.4-3.4a1.5 1.5 0 1 1-2.5 1.4 1.5 1.5 0 0 1 2.5-1.4Zm5.1-3a1.5 1.5 0 1 1-2.5 1.5 1.5 1.5 0 0 1 2.5-1.5Zm-.6 4.9a1.5 1.5 0 1 1-2.5 1.5 1.5 1.5 0 0 1 2.5-1.5Z\"/><path class=\"faceFillColor faceStrokeColor\" stroke-width=\".105\" d=\"M126.4 154.4h-6a1.1 1.1 0 0 0 0 2.3h3c.2 0 .3.3.2.4l-4.3 5.2a1.4 1.4 0 0 0 1 2.3h6.6a1.1 1.1 0 0 0 0-2.3h-3.7a.3.3 0 0 1-.2-.4l4.4-5.2a1.4 1.4 0 0 0-1-2.3Z\"/><path class=\"faceFillColor faceStrokeColor\" stroke-width=\".211\" d=\"m134.4 149.2-4.5 1a1 1 0 0 0 .4 1.8l2-.5a.2.2 0 0 1 .3.3l-2.3 4.5a1.1 1.1 0 0 0 1.2 1.6l5-1a1 1 0 0 0-.5-1.9l-2.6.6a.2.2 0 0 1-.2-.3l2.4-4.5a1.1 1.1 0 0 0-1.2-1.6Z\"/><path class=\"faceFillColor faceStrokeColor\" stroke-width=\".316\" d=\"m143 152-3.4.8a.8.8 0 1 0 .3 1.5l1.5-.3.1.1-1.7 3.3a1 1 0 0 0 1 1.4l3.7-.8a.8.8 0 0 0-.3-1.6l-1.9.4a.1.1 0 0 1-.1-.2l1.7-3.2a1 1 0 0 0-1-1.4Z\"/><path class=\"faceStrokeColor\" stroke-linecap=\"round\" stroke-width=\"3.5\" d=\"M130.8 143s-2.3 4-7.6 4-7.6-4-7.6-4M79 143s2.3 4 7.6 4 7.6-4 7.6-4\"/><path class=\"faceFillColor\" d=\"M114 160c0 3-4 4.2-9 4.2s-9-1.2-9-4.1c0-3 4-6.5 9-6.5s9 3.6 9 6.5Z\"/><path fill=\"#fff\" d=\"M98 154.6h14v1.9c0 1.2-1 2.1-2.1 2.1H100a2.1 2.1 0 0 1-2.1-2.1v-1.9Z\"/><path class=\"faceStrokeColor\" stroke-linecap=\"round\" stroke-linejoin=\"round\" stroke-width=\"3.176\" d=\"M114 160c0 3-4 4.2-9 4.2s-9-1.2-9-4.1c0-3 4-6.5 9-6.5s9 3.6 9 6.5Z\"/></svg>';\n        } else if (faceVariant == FaceVariants.SMILE_TEETH) {\n            // smile-teeth\n            return\n                '<path class=\"faceStrokeColor\" stroke-linecap=\"round\" stroke-width=\"3.5\" d=\"M77.2 142s2.5-4.2 8.4-4.5c6-.4 8.9 3.5 8.9 3.5m38.3 1s-2.5-4.2-8.4-4.5c-6-.4-8.9 3.5-8.9 3.5\"/><ellipse cx=\"9\" cy=\"7.271\" fill=\"#fff\" fill-opacity=\".45\" rx=\"9\" ry=\"7.271\" transform=\"matrix(-1 0 0 1 80 145)\"/><ellipse cx=\"9\" cy=\"7.271\" fill=\"#fff\" fill-opacity=\".45\" rx=\"9\" ry=\"7.271\" transform=\"matrix(-1 0 0 1 148 145)\"/><path fill=\"#fff\" d=\"M105.2 150.4c-2.6 0-5.9-1.3-8.6-1.4-2.7 0-5.6.3-7.8 1.5-3.8 2-5.5 6-4.5 9.6.9 3.6 4.1 6.6 8 8.4 4 1.8 8 2.5 12.6 2.5\"/><path fill=\"#fff\" d=\"M105.2 150.4c2.8 0 5.5-1.3 8.2-1.4 2.7-.1 5.6.3 7.8 1.5 3.8 2 5.5 6 4.5 9.6-.9 3.6-4.1 6.6-8 8.4a31 31 0 0 1-12.8 2.5\"/><path class=\"faceFillColor\" d=\"M86.7 154.3a2 2 0 0 0-.4 1l.3.9c.2.3.3.7.3 1 0 .4-.1 1-.3 1.3l-.6 1c-.1.4-.2.8 0 1-.5-.3-.7-.9-.8-1.4-.2-.5-.3-1-.3-1.6 0-.6.1-1.2.4-1.8.4-.5.7-1.2 1.4-1.4Zm36.6 0c.1.2.4.6.4 1l-.3.9a2 2 0 0 0-.3 1c0 .4.1 1 .3 1.3l.6 1v1c.5-.3.7-.9.8-1.4.2-.5.3-1 .3-1.6a4 4 0 0 0-.5-1.8c-.3-.5-.6-1.2-1.3-1.4Z\"/><path class=\"faceStrokeColor\" stroke-linecap=\"round\" stroke-linejoin=\"round\" stroke-width=\"3\" d=\"M105.2 150.4c-2.6 0-5.9-1.3-8.6-1.4-2.7 0-5.6.3-7.8 1.5-3.8 2-5.5 6-4.5 9.6.9 3.6 4.1 6.6 8 8.4 4 1.8 8 2.5 12.6 2.5\"/><path class=\"faceStrokeColor\" stroke-linecap=\"round\" stroke-linejoin=\"round\" stroke-width=\"3\" d=\"M105.2 150.4c2.8 0 5.5-1.3 8.2-1.4 2.7-.1 5.6.3 7.8 1.5 3.8 2 5.5 6 4.5 9.6-.9 3.6-4.1 6.6-8 8.4a31 31 0 0 1-12.8 2.5\"/><path class=\"faceStrokeColor\" stroke-linecap=\"round\" stroke-width=\"2\" d=\"m93 159 3 1 2.4.3a2 2 0 0 0 1.9-1l.1-.4c.3-.4.9-.3 1 .1l.4 2.8c.1.5.8.5.9 0v0a1.8 1.8 0 0 1 1.7-1.2h4.7\"/></svg>';\n        } else if (faceVariant == FaceVariants.SMILE) {\n            // smile\n            return\n                '<path class=\"faceStrokeColor\" stroke-linecap=\"round\" stroke-width=\"3\" d=\"M91 159s4.3 6 14 6 14-6 14-6\"/><path class=\"faceStrokeColor\" stroke-linecap=\"round\" stroke-linejoin=\"round\" stroke-width=\"2.5\" d=\"M89 159c.8-.4 1.5-1 2-2m30 2c-.8-.4-1.5-1-2-2\"/><path class=\"faceFillColor\" fill-rule=\"evenodd\" d=\"M94.1 139c.7-.4 1-1.1.8-1.8-1.4-3.7-4.5-6.2-8-6.2-5 0-8.9 4.7-8.9 10.4s4 10.4 8.8 10.4c3.5 0 6.5-2.4 8-5.8.3-.7-.1-1.5-.8-1.8l-3.6-1.5c-1-.4-1-1.8 0-2.2l3.7-1.6Zm20.8 2.4c0-5.7 4-10.4 8.8-10.4 3.7 0 7 2.7 8.2 6.5.3.7-.1 1.4-.8 1.7l-3 1.3c-1 .4-1 1.8 0 2.2l2.9 1.2c.7.3 1 1 .8 1.8-1.4 3.6-4.5 6.1-8 6.1-5 0-8.9-4.7-8.9-10.4Z\" clip-rule=\"evenodd\"/><path class=\"faceFillColor\" fill-opacity=\".12\" d=\"M74.7 154.2a1.5 1.5 0 1 1-2.5-1.5 1.5 1.5 0 0 1 2.5 1.5Zm5.1 3a1.5 1.5 0 1 1-2.5-1.5 1.5 1.5 0 0 1 2.5 1.4Zm-4.5 1.9a1.5 1.5 0 1 1-2.5-1.5 1.5 1.5 0 0 1 2.5 1.5Zm55.4-3.4a1.5 1.5 0 1 1-2.5 1.4 1.5 1.5 0 0 1 2.5-1.4Zm5.1-3a1.5 1.5 0 1 1-2.5 1.5 1.5 1.5 0 0 1 2.5-1.5Zm-.6 4.9a1.5 1.5 0 1 1-2.5 1.5 1.5 1.5 0 0 1 2.5-1.5Z\"/></svg>';\n        } else if (faceVariant == FaceVariants.SMIRK) {\n            // smirk\n            return\n                '<path class=\"faceFillColor\" fill-opacity=\".12\" d=\"M74.7 154.2a1.5 1.5 0 1 1-2.5-1.5 1.5 1.5 0 0 1 2.5 1.5Zm5.1 3a1.5 1.5 0 1 1-2.5-1.5 1.5 1.5 0 0 1 2.5 1.4Zm-4.5 1.9a1.5 1.5 0 1 1-2.5-1.5 1.5 1.5 0 0 1 2.5 1.5Zm55.4-3.4a1.5 1.5 0 1 1-2.5 1.4 1.5 1.5 0 0 1 2.5-1.4Zm5.1-3a1.5 1.5 0 1 1-2.5 1.5 1.5 1.5 0 0 1 2.5-1.5Zm-.6 4.9a1.5 1.5 0 1 1-2.5 1.5 1.5 1.5 0 0 1 2.5-1.5Z\"/><path fill=\"#fff\" d=\"M73.9 139.8a11.7 11.7 0 0 0 0 1.1c0 5.6 4 11.2 10.2 11.2 6.3 0 10.4-5.6 10.4-11.2v-1.1H73.8Z\"/><path class=\"faceStrokeColor\" stroke-linecap=\"round\" stroke-linejoin=\"round\" stroke-width=\"3.5\" d=\"M73 140.7s4.7-.9 11.1-.9c6.4 0 11.2.9 11.2.9\"/><path class=\"faceFillColor\" d=\"M77.7 139.5a9.8 9.8 0 0 0 0 .8c0 4 2.5 8.1 6.4 8.1 4 0 6.5-4 6.5-8v-1h-13Z\"/><path fill=\"#fff\" d=\"M135.8 139.8v1.1c0 5.6-4 11.2-10.3 11.2-6.2 0-10.3-5.6-10.3-11.2v-1.1h20.6Z\"/><path class=\"faceStrokeColor\" stroke-linecap=\"round\" stroke-linejoin=\"round\" stroke-width=\"3.5\" d=\"M136.6 140.7s-4.7-.9-11-.9c-6.5 0-11.2.9-11.2.9\"/><path class=\"faceFillColor\" d=\"M132 139.5v.8c0 4-2.6 8.1-6.5 8.1s-6.4-4-6.4-8v-1H132Z\"/><path class=\"faceStrokeColor\" stroke-linecap=\"round\" stroke-linejoin=\"round\" stroke-width=\"3.156\" d=\"M90 160a31.3 31.3 0 0 0 20 2.4\"/></svg>';\n        } else if (faceVariant == FaceVariants.TONGUE) {\n            // tongue\n            return\n                '<path class=\"faceFillColor\" fill-opacity=\".12\" d=\"M74.7 154.2a1.5 1.5 0 1 1-2.5-1.5 1.5 1.5 0 0 1 2.5 1.5Zm5.1 3a1.5 1.5 0 1 1-2.5-1.5 1.5 1.5 0 0 1 2.5 1.4Zm-4.5 1.9a1.5 1.5 0 1 1-2.5-1.5 1.5 1.5 0 0 1 2.5 1.5Zm55.4-3.4a1.5 1.5 0 1 1-2.5 1.4 1.5 1.5 0 0 1 2.5-1.4Zm5.1-3a1.5 1.5 0 1 1-2.5 1.5 1.5 1.5 0 0 1 2.5-1.5Zm-.6 4.9a1.5 1.5 0 1 1-2.5 1.5 1.5 1.5 0 0 1 2.5-1.5Z\"/><path class=\"faceFillColor\" fill-rule=\"evenodd\" d=\"M94.1 139c.7-.4 1-1.1.8-1.8-1.4-3.7-4.5-6.2-8-6.2-5 0-8.9 4.7-8.9 10.4s4 10.4 8.8 10.4c3.5 0 6.5-2.4 8-5.8.3-.7-.1-1.5-.8-1.8l-3.6-1.5c-1-.4-1-1.8 0-2.2l3.7-1.6Zm20.8 2.4c0-5.7 4-10.4 8.8-10.4 3.7 0 7 2.7 8.2 6.5.3.7-.1 1.4-.8 1.7l-3 1.3c-1 .4-1 1.8 0 2.2l2.9 1.2c.7.3 1 1 .8 1.8-1.4 3.6-4.5 6.1-8 6.1-5 0-8.9-4.7-8.9-10.4Z\" clip-rule=\"evenodd\"/><path class=\"faceFillColor\" d=\"M105 172c-15 0-20.6-8-18.6-13.6 1.4-4.1 6-6.4 10.4-5a35 35 0 0 0 8.2 1.6c2.3 0 6.3-1 8.2-1.6 4.3-1.4 9 .9 10.4 5 2 5.5-3.6 13.6-18.6 13.6Z\"/><path class=\"faceStrokeColor\" fill=\"#FFDFE7\" stroke-width=\"2.75\" d=\"M98.7 161.4h1.3l1.7.4 1 .3.8.2 1.5.2 1.5-.2.9-.2.9-.3a21.3 21.3 0 0 1 1.8-.3l1.2-.1c2.2.3 3.6 1.3 4.4 2.6a8 8 0 0 1 .7 5.2 11.1 11.1 0 0 1-11.4 9.4 11.1 11.1 0 0 1-11.4-9.4c-.4-2-.1-3.8.7-5.2.8-1.3 2.2-2.3 4.4-2.6Z\"/><path fill=\"#F5C8D4\" d=\"M106 163.8v7a1 1 0 0 1-2 0v-7l1 .2 1-.2Z\"/></svg>';\n        } else if (faceVariant == FaceVariants.WINK) {\n            // wink\n            return\n                '<path class=\"faceStrokeColor\" stroke-linecap=\"round\" stroke-width=\"3\" d=\"M91 159s4.3 6 14 6 14-6 14-6\"/><path class=\"faceStrokeColor\" stroke-linecap=\"round\" stroke-linejoin=\"round\" stroke-width=\"2.5\" d=\"M89 159c.8-.4 1.5-1 2-2m30 2c-.8-.4-1.5-1-2-2\"/><path class=\"faceFillColor\" fill-opacity=\".12\" d=\"M74.7 154.2a1.5 1.5 0 1 1-2.5-1.5 1.5 1.5 0 0 1 2.5 1.5Zm5.1 3a1.5 1.5 0 1 1-2.5-1.5 1.5 1.5 0 0 1 2.5 1.4Zm-4.5 1.9a1.5 1.5 0 1 1-2.5-1.5 1.5 1.5 0 0 1 2.5 1.5Zm55.4-3.4a1.5 1.5 0 1 1-2.5 1.4 1.5 1.5 0 0 1 2.5-1.4Zm5.1-3a1.5 1.5 0 1 1-2.5 1.5 1.5 1.5 0 0 1 2.5-1.5Zm-.6 4.9a1.5 1.5 0 1 1-2.5 1.5 1.5 1.5 0 0 1 2.5-1.5Z\"/><path class=\"faceFillColor\" fill-rule=\"evenodd\" d=\"M94.1 139c.7-.4 1-1.1.8-1.8-1.4-3.7-4.5-6.2-8-6.2-5 0-8.9 4.7-8.9 10.4s4 10.4 8.8 10.4c3.5 0 6.5-2.4 8-5.8.3-.7-.1-1.5-.8-1.8l-3.6-1.5c-1-.4-1-1.8 0-2.2l3.7-1.6Z\" clip-rule=\"evenodd\"/><path class=\"faceStrokeColor\" stroke-linecap=\"round\" stroke-width=\"4\" d=\"M130 142.4s-2-2-6.5-2-6.5 2-6.5 2\"/><path class=\"faceStrokeColor\" stroke-linecap=\"round\" stroke-width=\"4\" d=\"M128.8 136.5s-2.7-1-6.7 1-5 4.6-5 4.6\"/></svg>';\n        } else {\n            return Face2.getFaceVariant(faceVariant);\n        }\n    }\n\n    function _getStyleTag(FaceColors faceColor, Skin.SkinColors skinColor) internal pure returns (string memory) {\n        return\n            string.concat(\n                '<style>.faceStrokeColor{stroke:',\n                faceColor == FaceColors.GOLD ? EduxColors.darkGold : EduxColors.black,\n                '} .faceFillColor{fill:',\n                faceColor == FaceColors.GOLD ? EduxColors.darkGold : EduxColors.black,\n                '} .skinColorBase{fill:',\n                _getBaseColor(skinColor),\n                '} .skinColorLight{fill:',\n                _getLightColor(skinColor),\n                '} .skinColorDark{fill:',\n                _getDarkColor(skinColor),\n                '} .mouthOverlay{fill:',\n                faceColor == FaceColors.GOLD ? EduxColors.darkGold : EduxColors.black,\n                '}</style>'\n            );\n    }\n\n    function _getBaseColor(Skin.SkinColors color) internal pure returns (string memory) {\n        if (color == Skin.SkinColors.GREEN) {\n            return EduxColors.baseGreen;\n        } else if (color == Skin.SkinColors.PINK) {\n            return EduxColors.basePink;\n        } else if (color == Skin.SkinColors.PURPLE) {\n            return EduxColors.basePurple;\n        } else if (color == Skin.SkinColors.BLUE) {\n            return EduxColors.baseBlue;\n        } else if (color == Skin.SkinColors.GOLD) {\n            return EduxColors.baseGold;\n        } else {\n            revert(); // Avoid warnings.\n        }\n    }\n\n    function _getLightColor(Skin.SkinColors color) internal pure returns (string memory) {\n        if (color == Skin.SkinColors.GREEN) {\n            return EduxColors.lightGreen;\n        } else if (color == Skin.SkinColors.PINK) {\n            return EduxColors.lightPink;\n        } else if (color == Skin.SkinColors.PURPLE) {\n            return EduxColors.lightPurple;\n        } else if (color == Skin.SkinColors.BLUE) {\n            return EduxColors.lightBlue;\n        } else if (color == Skin.SkinColors.GOLD) {\n            return EduxColors.lightGold;\n        } else {\n            revert(); // Avoid warnings.\n        }\n    }\n\n    function _getDarkColor(Skin.SkinColors color) internal pure returns (string memory) {\n        if (color == Skin.SkinColors.GREEN) {\n            return EduxColors.darkGreen;\n        } else if (color == Skin.SkinColors.PINK) {\n            return EduxColors.darkPink;\n        } else if (color == Skin.SkinColors.PURPLE) {\n            return EduxColors.darkPurple;\n        } else if (color == Skin.SkinColors.BLUE) {\n            return EduxColors.darkBlue;\n        } else if (color == Skin.SkinColors.GOLD) {\n            return EduxColors.darkGold;\n        } else {\n            revert(); // Avoid warnings.\n        }\n    }\n}\n\nlibrary Face2 {\n    function getFaceVariant(Face.FaceVariants faceVariant) external pure returns (string memory) {\n        if (faceVariant == Face.FaceVariants.WOW_TONGUE) {\n            // wow-tongue\n            return\n                '<path class=\"faceFillColor\" fill-opacity=\".12\" d=\"M74.7 154.2a1.5 1.5 0 1 1-2.5-1.5 1.5 1.5 0 0 1 2.5 1.5Zm5.1 3a1.5 1.5 0 1 1-2.5-1.5 1.5 1.5 0 0 1 2.5 1.4Zm-4.5 1.9a1.5 1.5 0 1 1-2.5-1.5 1.5 1.5 0 0 1 2.5 1.5Zm55.4-3.4a1.5 1.5 0 1 1-2.5 1.4 1.5 1.5 0 0 1 2.5-1.4Zm5.1-3a1.5 1.5 0 1 1-2.5 1.5 1.5 1.5 0 0 1 2.5-1.5Zm-.6 4.9a1.5 1.5 0 1 1-2.5 1.5 1.5 1.5 0 0 1 2.5-1.5Z\"/><ellipse class=\"faceFillColor\" cx=\"86.825\" cy=\"140.298\" rx=\"9.825\" ry=\"11.298\"/><path fill=\"#fff\" fill-rule=\"evenodd\" d=\"M88.9 133.3a.6.6 0 0 1 1.1 0l1.2 2.7a.6.6 0 0 0 .3.4l1.4.6a.6.6 0 0 1 0 1.2l-1.4.7a.6.6 0 0 0-.3.3L90 142a.6.6 0 0 1-1.1 0l-1.2-2.7a.6.6 0 0 0-.3-.3l-1.4-.7a.6.6 0 0 1 0-1.2l1.4-.6a.6.6 0 0 0 .3-.4l1.2-2.7ZM84 141a.4.4 0 0 1 .7 0l.7 1.8a.4.4 0 0 0 .2.2l1 .4c.3.2.3.6 0 .8l-1 .4a.4.4 0 0 0-.2.2l-.7 1.8a.4.4 0 0 1-.7 0l-.8-1.8a.4.4 0 0 0-.2-.2l-1-.4a.4.4 0 0 1 0-.8l1-.4a.4.4 0 0 0 .2-.2l.8-1.8Zm-3.3-4.8a.4.4 0 0 1 .8 0l.2.6.2.3h.2a.4.4 0 0 1 0 .8H82a.4.4 0 0 0-.2.3l-.2.6a.4.4 0 0 1-.8 0l-.2-.6a.4.4 0 0 0-.2-.2l-.2-.1a.4.4 0 0 1 0-.8h.2a.4.4 0 0 0 .2-.3l.2-.6Z\" clip-rule=\"evenodd\"/><ellipse class=\"faceFillColor\" cx=\"9.825\" cy=\"11.298\" rx=\"9.825\" ry=\"11.298\" transform=\"matrix(-1 0 0 1 133 129)\"/><path fill=\"#fff\" fill-rule=\"evenodd\" d=\"M121.1 133.3a.6.6 0 0 0-1.1 0l-1.2 2.7a.6.6 0 0 1-.3.4l-1.4.6a.6.6 0 0 0 0 1.2l1.4.7a.6.6 0 0 1 .3.3l1.2 2.7a.6.6 0 0 0 1.1 0l1.2-2.7a.6.6 0 0 1 .3-.3l1.4-.7a.6.6 0 0 0 0-1.2l-1.4-.6a.6.6 0 0 1-.3-.4l-1.2-2.7Zm4.8 7.6a.4.4 0 0 0-.7 0l-.7 1.8a.4.4 0 0 1-.2.2l-1 .4a.4.4 0 0 0 0 .8l1 .4a.4.4 0 0 1 .2.2l.7 1.8c.1.3.6.3.7 0l.8-1.8a.4.4 0 0 1 .2-.2l1-.4a.4.4 0 0 0 0-.8l-1-.4a.4.4 0 0 1-.2-.2l-.8-1.8Zm3.3-4.8a.4.4 0 0 0-.8 0l-.2.6a.4.4 0 0 1-.2.3h-.2a.4.4 0 0 0 0 .8h.2a.4.4 0 0 1 .2.3l.2.6c.2.3.6.3.8 0l.2-.6a.4.4 0 0 1 .2-.2l.2-.1a.4.4 0 0 0 0-.8h-.2a.4.4 0 0 1-.2-.3l-.2-.6Z\" clip-rule=\"evenodd\"/><path class=\"faceFillColor\" d=\"M105 172c-15 0-20.6-8-18.6-13.6 1.4-4.1 6-6.4 10.4-5a35 35 0 0 0 8.2 1.6c2.3 0 6.3-1 8.2-1.6 4.3-1.4 9 .9 10.4 5 2 5.5-3.6 13.6-18.6 13.6Z\"/><path class=\"faceStrokeColor\" fill=\"#FFDFE7\" stroke-width=\"2.75\" d=\"M98.7 161.4h1.3l1.7.4 1 .3.8.2 1.5.2 1.5-.2.9-.2.9-.3a21.3 21.3 0 0 1 1.8-.3l1.2-.1c2.2.3 3.6 1.3 4.4 2.6a8 8 0 0 1 .7 5.2 11.1 11.1 0 0 1-11.4 9.4 11.1 11.1 0 0 1-11.4-9.4c-.4-2-.1-3.8.7-5.2.8-1.3 2.2-2.3 4.4-2.6Z\"/><path fill=\"#F5C8D4\" d=\"M106 163.8v7a1 1 0 0 1-2 0v-7l1 .2 1-.2Z\"/></svg>';\n        } else if (faceVariant == Face.FaceVariants.WOW) {\n            // wow\n            return\n                '<path class=\"faceFillColor\" fill-opacity=\".12\" d=\"M74.7 154.2a1.5 1.5 0 1 1-2.5-1.5 1.5 1.5 0 0 1 2.5 1.5Zm5.1 3a1.5 1.5 0 1 1-2.5-1.5 1.5 1.5 0 0 1 2.5 1.4Zm-4.5 1.9a1.5 1.5 0 1 1-2.5-1.5 1.5 1.5 0 0 1 2.5 1.5Zm55.4-3.4a1.5 1.5 0 1 1-2.5 1.4 1.5 1.5 0 0 1 2.5-1.4Zm5.1-3a1.5 1.5 0 1 1-2.5 1.5 1.5 1.5 0 0 1 2.5-1.5Zm-.6 4.9a1.5 1.5 0 1 1-2.5 1.5 1.5 1.5 0 0 1 2.5-1.5Z\"/><ellipse class=\"faceFillColor\" cx=\"86.825\" cy=\"140.298\" rx=\"9.825\" ry=\"11.298\"/><path fill=\"#fff\" fill-rule=\"evenodd\" d=\"M88.9 133.3a.6.6 0 0 1 1.1 0l1.2 2.7a.6.6 0 0 0 .3.4l1.4.6a.6.6 0 0 1 0 1.2l-1.4.7a.6.6 0 0 0-.3.3L90 142a.6.6 0 0 1-1.1 0l-1.2-2.7a.6.6 0 0 0-.3-.3l-1.4-.7a.6.6 0 0 1 0-1.2l1.4-.6a.6.6 0 0 0 .3-.4l1.2-2.7ZM84 141a.4.4 0 0 1 .7 0l.7 1.8a.4.4 0 0 0 .2.2l1 .4c.3.2.3.6 0 .8l-1 .4a.4.4 0 0 0-.2.2l-.7 1.8a.4.4 0 0 1-.7 0l-.8-1.8a.4.4 0 0 0-.2-.2l-1-.4a.4.4 0 0 1 0-.8l1-.4a.4.4 0 0 0 .2-.2l.8-1.8Zm-3.3-4.8a.4.4 0 0 1 .8 0l.2.6.2.3h.2a.4.4 0 0 1 0 .8H82a.4.4 0 0 0-.2.3l-.2.6a.4.4 0 0 1-.8 0l-.2-.6a.4.4 0 0 0-.2-.2l-.2-.1a.4.4 0 0 1 0-.8h.2a.4.4 0 0 0 .2-.3l.2-.6Z\" clip-rule=\"evenodd\"/><ellipse class=\"faceFillColor\" cx=\"9.825\" cy=\"11.298\" rx=\"9.825\" ry=\"11.298\" transform=\"matrix(-1 0 0 1 133 129)\"/><path fill=\"#fff\" fill-rule=\"evenodd\" d=\"M121.1 133.3a.6.6 0 0 0-1.1 0l-1.2 2.7a.6.6 0 0 1-.3.4l-1.4.6a.6.6 0 0 0 0 1.2l1.4.7a.6.6 0 0 1 .3.3l1.2 2.7a.6.6 0 0 0 1.1 0l1.2-2.7a.6.6 0 0 1 .3-.3l1.4-.7a.6.6 0 0 0 0-1.2l-1.4-.6a.6.6 0 0 1-.3-.4l-1.2-2.7Zm4.8 7.6a.4.4 0 0 0-.7 0l-.7 1.8a.4.4 0 0 1-.2.2l-1 .4a.4.4 0 0 0 0 .8l1 .4a.4.4 0 0 1 .2.2l.7 1.8c.1.3.6.3.7 0l.8-1.8a.4.4 0 0 1 .2-.2l1-.4a.4.4 0 0 0 0-.8l-1-.4a.4.4 0 0 1-.2-.2l-.8-1.8Zm3.3-4.8a.4.4 0 0 0-.8 0l-.2.6a.4.4 0 0 1-.2.3h-.2a.4.4 0 0 0 0 .8h.2a.4.4 0 0 1 .2.3l.2.6c.2.3.6.3.8 0l.2-.6a.4.4 0 0 1 .2-.2l.2-.1a.4.4 0 0 0 0-.8h-.2a.4.4 0 0 1-.2-.3l-.2-.6Z\" clip-rule=\"evenodd\"/><path class=\"faceFillColor\" d=\"M114 160c0 3-4 4.2-9 4.2s-9-1.2-9-4.1c0-3 4-6.5 9-6.5s9 3.6 9 6.5Z\"/><path fill=\"#fff\" d=\"M98 154.6h14v1.9c0 1.2-1 2.1-2.1 2.1H100a2.1 2.1 0 0 1-2.1-2.1v-1.9Z\"/><path class=\"faceStrokeColor\" stroke-linecap=\"round\" stroke-linejoin=\"round\" stroke-width=\"3.176\" d=\"M114 160c0 3-4 4.2-9 4.2s-9-1.2-9-4.1c0-3 4-6.5 9-6.5s9 3.6 9 6.5Z\"/></svg>';\n        } else if (faceVariant == Face.FaceVariants.BABY) {\n            // baby\n            return\n                '<path fill=\"#fff\" d=\"M113 161.9c1.9 2 3 4.6 3 7.6a11 11 0 0 1-22 .1v-.1a11 11 0 0 1 11-11c3.2 0 6 1.3 8 3.4Zm-2.3 7.6c0-1-.2-2-.6-2.8-1-1.9-3-3.1-5.1-3.1a5.8 5.8 0 0 0-5.7 5.9c0 3.2 2.5 5.8 5.7 5.8s5.7-2.6 5.7-5.8Z\"/><path class=\"skinColorDark\" d=\"M109.6 167a8.8 8.8 0 0 1-9.3 0l-.5-.1c1-2 3-3.3 5.2-3.3 2.3 0 4 1.2 5 3l-.4.3ZM97 161.9l-.2-1.8A8.2 8.2 0 1 1 113 162a11 11 0 0 0-16 0Z\"/><path class=\"skinColorLight\" d=\"M96.8 160.1c0 .6 0 1.2.2 1.8a11 11 0 0 0-3 7.7h-1a14.8 14.8 0 0 1-7.3-8.5c-1-3.6-.4-7.9 2-10.8a14 14 0 0 1 8.5-4.4c3.2-.6 5-.7 8.8-.7 3.8 0 5.6 0 8.8.6 3.2.6 6.3 2 8.4 4.4 2.5 3 3.2 7.2 2 10.9a14.8 14.8 0 0 1-7.2 8.5h-1v-.1c0-3-1.1-5.6-3-7.6l.2-1.8a8.2 8.2 0 1 0-16.4 0Z\"/><path class=\"faceStrokeColor\" stroke-linecap=\"round\" stroke-linejoin=\"round\" stroke-width=\"3\" d=\"M109.6 166a8.8 8.8 0 0 1-9.3 0\"/><path class=\"faceStrokeColor\" stroke-linecap=\"round\" stroke-linejoin=\"round\" stroke-width=\"2.5\" d=\"m97 161.9-.2-1.8A8.2 8.2 0 1 1 113 162\"/><path class=\"faceStrokeColor\" stroke-linecap=\"round\" stroke-linejoin=\"round\" stroke-width=\"3\" d=\"M94 169.6v-.1a11 11 0 0 1 11-11 11 11 0 0 1 11 11v0a11 11 0 0 1-22 .1Z\"/><path class=\"faceStrokeColor\" stroke-linecap=\"round\" stroke-linejoin=\"round\" stroke-width=\"3\" d=\"M110 166.7c.5.8.7 1.8.7 2.8 0 3.2-2.5 5.8-5.7 5.8a5.8 5.8 0 0 1-5.7-5.8 5.8 5.8 0 0 1 5.7-5.9c2.3 0 4 1.2 5 3Zm-17 3a14.8 14.8 0 0 1-7.3-8.6c-1-3.6-.4-7.9 2-10.8a14 14 0 0 1 8.5-4.4c3.2-.6 5-.7 8.8-.7\"/><path class=\"faceStrokeColor\" stroke-linecap=\"round\" stroke-linejoin=\"round\" stroke-width=\"2\" d=\"M101.2 172.7c1.2.7 6 .6 8 0\"/><path class=\"faceStrokeColor\" stroke-linecap=\"round\" stroke-linejoin=\"round\" stroke-width=\"3\" d=\"M117 169.6a15 15 0 0 0 7.3-8.5c1-3.7.4-8-2-10.9a14 14 0 0 0-8.5-4.4 48 48 0 0 0-8.8-.6\"/><path class=\"skinColorLight\" d=\"M99.5 157.6h11v7.9h-11z\"/><path class=\"faceStrokeColor\" stroke-linecap=\"round\" stroke-linejoin=\"round\" stroke-width=\"2.5\" d=\"M98.7 161.6a4 4 0 0 1 4-4h4.6a4 4 0 0 1 4 4v0a4 4 0 0 1-4 4h-4.6a4 4 0 0 1-4-4v0Z\"/><circle class=\"faceFillColor\" cx=\"87.3\" cy=\"135.5\" r=\"4.7\"/><circle class=\"faceFillColor\" cx=\"122.7\" cy=\"135.5\" r=\"4.7\"/><path fill=\"#fff\" fill-opacity=\".5\" d=\"M78 158.2c-.7 3-4.6 4.6-8.8 3.7-4.1-1-7-4-6.3-7 .7-3 4.6-4.7 8.7-3.7 4.2.9 7 4 6.4 7Zm54 0c.7 3 4.6 4.6 8.7 3.7 4.2-1 7-4 6.3-7-.6-3-4.5-4.7-8.7-3.7-4.1.9-7 4-6.3 7Z\"/></svg>';\n        } else if (faceVariant == Face.FaceVariants.KAWAII) {\n            // kawaii\n            return\n                '<path class=\"faceFillColor\" d=\"M114.3 138.3c1.8 0 3.3 2 3.3 4.6 0 2.6-1.5 4.6-3.3 4.6-1.8 0-3.3-2-3.3-4.6 0-2.5 1.5-4.6 3.3-4.6Zm-18.5 0c1.8 0 3.2 2 3.2 4.6 0 2.6-1.4 4.6-3.2 4.6-1.9 0-3.3-2-3.3-4.6 0-2.5 1.4-4.6 3.3-4.6Z\"/><path fill=\"#fff\" d=\"M136.9 139.5c2 7.4-.4 15-7.2 19.3-7.5 4.7-20.2 4.5-24.6-3.8h-.1c-4.4 8.3-17.1 8.5-24.6 3.8a17 17 0 0 1-7.2-19.3 17 17 0 0 1 15-13c8-1 16.8 4.7 16.8 11.7 0-7 9-12.7 16.8-11.7a17 17 0 0 1 15 13Zm-19.3 3.4c0-2.5-1.5-4.6-3.3-4.6-1.8 0-3.3 2-3.3 4.6 0 2.6 1.5 4.6 3.3 4.6 1.8 0 3.3-2 3.3-4.6ZM99 143c0-2.5-1.4-4.6-3.2-4.6-1.9 0-3.3 2-3.3 4.6 0 2.6 1.4 4.6 3.3 4.6 1.8 0 3.2-2 3.2-4.6Z\"/><path class=\"faceStrokeColor\" stroke-linecap=\"round\" stroke-linejoin=\"round\" stroke-width=\"3\" d=\"M105 138.1c0-7-9-12.6-16.8-11.7a17 17 0 0 0-15 13c-2 7.5.3 15 7.1 19.3 7.5 4.8 20.2 4.6 24.6-3.8\"/><path class=\"faceStrokeColor\" stroke-linecap=\"round\" stroke-linejoin=\"round\" stroke-width=\"1.8\" d=\"M92.4 142.9c0-2.6 1.5-4.6 3.3-4.6 1.8 0 3.3 2 3.3 4.6 0 2.5-1.5 4.6-3.3 4.6-1.8 0-3.3-2-3.3-4.6Z\"/><path class=\"faceStrokeColor\" stroke-linecap=\"round\" stroke-linejoin=\"round\" stroke-width=\"3\" d=\"M105 138.1c0-7 8.9-12.6 16.8-11.7a17 17 0 0 1 15 13c2 7.5-.4 15-7.1 19.3-7.5 4.8-20.2 4.6-24.6-3.8\"/><path class=\"faceStrokeColor\" stroke-linecap=\"round\" stroke-linejoin=\"round\" stroke-width=\"1.8\" d=\"M117.6 142.9c0-2.6-1.5-4.6-3.3-4.6-1.8 0-3.3 2-3.3 4.6 0 2.5 1.5 4.6 3.3 4.6 1.8 0 3.3-2 3.3-4.6Z\"/><path class=\"faceStrokeColor\" stroke-linecap=\"round\" stroke-width=\"2.5\" d=\"m87.9 122 .5 4m-8.7-.6 2 2.7m15.2-3.8-1.6 3m26.8-5.3-.5 4m8.8-.6-2 2.7m-15.2-3.8 1.6 3\"/><path fill=\"#fff\" fill-opacity=\".5\" d=\"M80 167.2c-.7 3-4.6 4.6-8.7 3.7-4.2-1-7-4-6.4-7 .7-3 4.6-4.7 8.8-3.7 4.1.9 7 4 6.3 7Zm50 0c.7 3 4.6 4.6 8.7 3.7 4.2-1 7-4 6.4-7-.7-3-4.6-4.7-8.8-3.7-4.1.9-7 4-6.3 7Z\"/><path class=\"faceStrokeColor\" stroke-linecap=\"round\" stroke-width=\"3\" d=\"M90.5 167.7s4.5 5.1 14.6 5.1c10 0 14.5-5.1 14.5-5.1\"/></svg>';\n        } else if (faceVariant == Face.FaceVariants.PIXIE) {\n            // pixie\n            return\n                '<path fill=\"#fff\" fill-opacity=\".3\" d=\"M105 121.4c-6.4 0-14.3-4-21-4.3-6.6-.4-13.5.9-19.1 4.6a29.3 29.3 0 0 0-11 29.8 39.8 39.8 0 0 0 19.8 25.7 59.8 59.8 0 0 0 30.5 7.8\"/><path fill=\"#fff\" fill-opacity=\".3\" d=\"M105 121.4c7 0 13.4-4 20-4.3 6.7-.4 13.6.9 19.2 4.6a29.3 29.3 0 0 1 11 29.8 39.8 39.8 0 0 1-19.8 25.7 62.1 62.1 0 0 1-31.2 7.8\"/><path class=\"faceStrokeColor\" stroke-width=\"2.8\" d=\"M105 121.4c-6.4 0-14.3-4-21-4.3-6.6-.4-13.5.9-19.1 4.6a29.3 29.3 0 0 0-11 29.8 39.8 39.8 0 0 0 19.8 25.7 59.8 59.8 0 0 0 30.5 7.8\"/><path class=\"faceStrokeColor\" stroke-width=\"2.8\" d=\"M105 121.4c7 0 13.4-4 20-4.3 6.7-.4 13.6.9 19.2 4.6a29.3 29.3 0 0 1 11 29.8 39.8 39.8 0 0 1-19.8 25.7 62.1 62.1 0 0 1-31.2 7.8\"/><path class=\"faceStrokeColor\" stroke-linecap=\"round\" stroke-linejoin=\"round\" stroke-width=\"3\" d=\"M105 121.4c-6.4 0-14.3-4-21-4.3-6.6-.4-13.5.9-19.1 4.6a29.3 29.3 0 0 0-11 29.8 39.8 39.8 0 0 0 19.8 25.7 59.8 59.8 0 0 0 30.5 7.8\"/><path class=\"faceStrokeColor\" stroke-linecap=\"round\" stroke-linejoin=\"round\" stroke-width=\"3\" d=\"M105 121.4c7 0 13.4-4 20-4.3 6.7-.4 13.6.9 19.2 4.6a29.3 29.3 0 0 1 11 29.8 39.8 39.8 0 0 1-19.8 25.7 62.1 62.1 0 0 1-31.2 7.8\"/><path class=\"faceFillColor\" fill-opacity=\".5\" d=\"M71.9 158.7h2.2v2.2h-2.2zm0 2.2h2.2v2.2h-2.2zm-2.2 2.2h2.2v2.2h-2.2zm2.2 0h2.2v2.2h-2.2z\"/><path class=\"faceFillColor\" fill-opacity=\".5\" d=\"M74.1 163.1h2.2v2.2h-2.2zm-4.4-4.4h2.2v2.2h-2.2zm0 2.2h2.2v2.2h-2.2zm4.4 0h2.2v2.2h-2.2zm-6.6 0h2.2v2.2h-2.2zm6.6-2.2h2.2v2.2h-2.2zm2.2 2.2h2.2v2.2h-2.2zm58.1-2.2h2.2v2.2h-2.2zm0 2.2h2.2v2.2h-2.2zm-2.2 2.2h2.2v2.2h-2.2zm2.2 0h2.2v2.2h-2.2zm2.2 0h2.2v2.2h-2.2zm-4.4-4.4h2.2v2.2h-2.2zm0 2.2h2.2v2.2h-2.2zm4.4 0h2.2v2.2h-2.2zm-6.6 0h2.2v2.2H130zm6.6-2.2h2.2v2.2h-2.2zm2.2 2.2h2.2v2.2h-2.2z\"/><path class=\"faceFillColor\" d=\"M96 158.7h2.2v2.2H96zm2.2 0h2.2v2.2h-2.2zm2.2 2.2h2.2v2.2h-2.2z\"/><path class=\"faceFillColor\" d=\"M102.6 160.9h2.2v2.2h-2.2zm2.2 0h2.2v2.2h-2.2zm2.2 0h2.2v2.2H107zm2.2-2.2h2.2v2.2h-2.2zm2.2 0h2.2v2.2h-2.2zm-23-5.5h2.2v2.2h-2.2zm-2.2-11h2.2v2.2h-2.2zm-2.2 3.3h2.2v2.2H84zm0 2.2h2.2v2.2H84zm8.8 0H95v2.2h-2.2zm-8.8 2.2h2.2v2.2H84zm8.8 0H95v2.2h-2.2zm-6.6-5.5h6.6v3.3h-6.6z\"/><path class=\"faceFillColor\" d=\"M86.2 147.7h6.6v2.2h-6.6zm0 2.2h6.6v3.3h-6.6zm6.6-4.4H95v2.2h-2.2zm-4.4-3.3h2.2v2.2h-2.2zm2.2 0h2.2v2.2h-2.2zm-4.4 11h2.2v2.2h-2.2zm4.4 0h2.2v2.2h-2.2zm28.5 0h2.2v2.2h-2.2zm-2.2-11h2.2v2.2h-2.2zm-2.2 3.3h2.2v2.2h-2.2zm0 2.2h2.2v2.2h-2.2zm8.8 0h2.2v2.2h-2.2zm-8.8 2.2h2.2v2.2h-2.2zm8.8 0h2.2v2.2h-2.2zm-6.6-5.5h6.6v3.3h-6.6z\"/><path class=\"faceFillColor\" d=\"M116.9 147.7h6.6v2.2h-6.6zm0 2.2h6.6v3.3h-6.6zm6.6-4.4h2.2v2.2h-2.2zm-4.4-3.3h2.2v2.2h-2.2zm2.2 0h2.2v2.2h-2.2zm-4.4 11h2.2v2.2h-2.2zm4.4 0h2.2v2.2h-2.2z\"/></svg>';\n        } else if (faceVariant == Face.FaceVariants.TODDLER) {\n            // toddler\n            return\n                '<path class=\"faceStrokeColor\" stroke-linecap=\"round\" stroke-width=\"3\" d=\"M93 154.5s3.7 5.2 12 5.2 12-5.2 12-5.2\"/><circle class=\"faceFillColor\" cx=\"87.6\" cy=\"142.4\" r=\"4.6\"/><circle class=\"faceFillColor\" cx=\"122.4\" cy=\"142.4\" r=\"4.6\"/><path fill=\"#fff\" fill-opacity=\".5\" d=\"M78 156.2c-.7 3-4.6 4.6-8.8 3.7-4.1-1-7-4-6.3-7 .7-3 4.6-4.7 8.7-3.7 4.2.9 7 4 6.4 7Zm54 0c.7 3 4.6 4.6 8.7 3.7 4.2-1 7-4 6.3-7-.6-3-4.5-4.7-8.7-3.7-4.1.9-7 4-6.3 7Z\"/></svg>';\n        } else if (faceVariant == Face.FaceVariants.VAMP) {\n            // vamp\n            return\n                '<path fill=\"#fff\" fill-opacity=\".5\" d=\"M138.7 137.2c-.7 3 2 6.2 6.2 7.2 4.1 1 8-.6 8.8-3.5.7-3-2.1-6.2-6.2-7.2-4.2-1-8.1.6-8.8 3.5Zm-67.4 0c.7 3-2 6.2-6.2 7.2-4.1 1-8-.6-8.8-3.5-.7-3 2.1-6.2 6.2-7.2 4.2-1 8.1.6 8.8 3.5Z\"/><path class=\"faceStrokeColor\" stroke-linecap=\"round\" stroke-width=\"3.5\" d=\"M77 133s2.5-4.2 8.7-4.5A11 11 0 0 1 95 132m38 1s-2.5-4.2-8.7-4.5a11 11 0 0 0-9.3 3.6\"/><path class=\"skinColorBase\" d=\"M105.4 142.4c-4.6 0-10.1-2.2-14.8-2.4-4.7-.2-9.6.5-13.5 2.6a14.7 14.7 0 0 0-7.7 16.5c1.6 6.1 7.1 11.3 13.9 14.3 6.8 3 13.7 4.3 21.5 4.3\"/><path class=\"skinColorBase\" d=\"M105.4 142.4c4.8 0 9.3-2.2 14-2.4 4.7-.2 9.6.5 13.5 2.6a14.7 14.7 0 0 1 7.7 16.5c-1.6 6.1-7.1 11.3-13.9 14.3a54 54 0 0 1-22 4.3\"/><path class=\"mouthOverlay\" fill-opacity=\".6\" d=\"M105.4 142.4c-4.6 0-10.1-2.2-14.8-2.4-4.7-.2-9.6.5-13.5 2.6a14.7 14.7 0 0 0-7.7 16.5c1.6 6.1 7.1 11.3 13.9 14.3 6.8 3 13.7 4.3 21.5 4.3\"/><path class=\"mouthOverlay\" fill-opacity=\".6\" d=\"M105.4 142.4c4.8 0 9.3-2.2 14-2.4 4.7-.2 9.6.5 13.5 2.6a14.7 14.7 0 0 1 7.7 16.5c-1.6 6.1-7.1 11.3-13.9 14.3a54 54 0 0 1-22 4.3\"/><path fill=\"#fff\" class=\"faceStrokeColor\" stroke-linejoin=\"round\" stroke-width=\"2\" d=\"m79 141.9 8.4-2.2s12.9 2.2 18 2.2 18.5-2.2 18.5-2.2l7.1 2.2a7 7 0 0 1 2 5.9c-.5 1.7-1 3.4-2 5l-1 1.6a1.8 1.8 0 0 1-3.2 0l-2.9-5c-5.8.3-13.2.6-18.9.6-5.7 0-13.1-.3-19-.6l-2.8 5a1.8 1.8 0 0 1-3.2 0l-1-1.7c-1-1.5-1.5-3.2-1.9-5A7 7 0 0 1 79 142Z\"/><path fill=\"#FFDFE7\" class=\"faceStrokeColor\" stroke-width=\"2\" d=\"M127 172.7c0 1.9-9.9 4.1-22 4.1a64 64 0 0 1-22-4c0-3.7 9.9-9 22-9s22 5.3 22 9Z\"/><path class=\"faceStrokeColor\" stroke-linecap=\"round\" stroke-linejoin=\"round\" stroke-width=\"3\" d=\"M105.4 142.4c-4.6 0-10.1-2.2-14.8-2.4-4.7-.2-9.6.5-13.5 2.6a14.7 14.7 0 0 0-7.7 16.5c1.6 6.1 7.1 11.3 13.9 14.3 6.8 3 13.7 4.3 21.5 4.3\"/><path class=\"faceStrokeColor\" stroke-linecap=\"round\" stroke-linejoin=\"round\" stroke-width=\"3\" d=\"M105.4 142.4c4.8 0 9.3-2.2 14-2.4 4.7-.2 9.6.5 13.5 2.6a14.7 14.7 0 0 1 7.7 16.5c-1.6 6.1-7.1 11.3-13.9 14.3a54 54 0 0 1-22 4.3\"/><path class=\"faceStrokeColor\" stroke-linecap=\"round\" stroke-opacity=\".1\" stroke-width=\"2\" d=\"M105 163.7v6.3\"/></svg>';\n        } else {\n            revert(); // Avoid warnings.\n        }\n    }\n}\n",
  "sourcePath": "E:\\Blockchain\\EDUIndex\\EduxContract\\contracts\\libraries\\svgs\\Profile\\Face.sol",
  "compiler": {
    "name": "solc",
    "version": "0.8.20+commit.a1b79de6.Emscripten.clang"
  },
  "schemaVersion": "3.4.3",
  "updatedAt": "2024-08-25T13:13:21.613Z",
  "devdoc": {
    "kind": "dev",
    "methods": {},
    "version": 1
  },
  "userdoc": {
    "kind": "user",
    "methods": {},
    "version": 1
  }
}