{
  "contractName": "Face",
  "abi": [
    {
      "inputs": [
        {
          "internalType": "enum Face.FaceVariants",
          "name": "faceVariant",
          "type": "Face.FaceVariants"
        },
        {
          "internalType": "enum Face.FaceColors",
          "name": "faceColor",
          "type": "Face.FaceColors"
        },
        {
          "internalType": "enum Skin.SkinColors",
          "name": "skinColor",
          "type": "Skin.SkinColors"
        }
      ],
      "name": "getFace",
      "outputs": [
        {
          "internalType": "string",
          "name": "",
          "type": "string"
        }
      ],
      "stateMutability": "pure",
      "type": "function"
    }
  ],
  "bytecode": "0x614f1b61004e600b8282823980515f1a607314610042577f4e487b71000000000000000000000000000000000000000000000000000000005f525f60045260245ffd5b305f52607381538281f3fe7300000000000000000000000000000000000000003014608060405260043610610034575f3560e01c80630cbd7e1514610038575b5f80fd5b610052600480360381019061004d9190610ddc565b610068565b60405161005f9190610eb6565b60405180910390f35b60605f61007584846100ca565b6040516020016100859190610fa6565b6040516020818303038152906040529050806100a0866102ea565b6040516020016100b1929190610fc7565b6040516020818303038152906040529150509392505050565b60606001808111156100df576100de610fea565b5b8360018111156100f2576100f1610fea565b5b14610132576040518060400160405280600481526020017f2330303000000000000000000000000000000000000000000000000000000000815250610169565b6040518060400160405280600781526020017f23423936333236000000000000000000000000000000000000000000000000008152505b60018081111561017c5761017b610fea565b5b84600181111561018f5761018e610fea565b5b146101cf576040518060400160405280600481526020017f2330303000000000000000000000000000000000000000000000000000000000815250610206565b6040518060400160405280600781526020017f23423936333236000000000000000000000000000000000000000000000000008152505b61020f84610720565b61021885610936565b61022186610b4c565b60018081111561023457610233610fea565b5b88600181111561024757610246610fea565b5b14610287576040518060400160405280600481526020017f23303030000000000000000000000000000000000000000000000000000000008152506102be565b6040518060400160405280600781526020017f23423936333236000000000000000000000000000000000000000000000000008152505b6040516020016102d396959493929190611121565b604051602081830303815290604052905092915050565b60605f60128111156102ff576102fe610fea565b5b82601281111561031257610311610fea565b5b0361033a57604051806106a0016040528061066681526020016116256106669139905061071b565b6001601281111561034e5761034d610fea565b5b82601281111561036157610360610fea565b5b036103895760405180610460016040528061043581526020016122e26104359139905061071b565b6002601281111561039d5761039c610fea565b5b8260128111156103b0576103af610fea565b5b036103d8576040518061036001604052806103248152602001612b556103249139905061071b565b600360128111156103ec576103eb610fea565b5b8260128111156103ff576103fe610fea565b5b03610427576040518061050001604052806104e08152602001613ee26104e09139905061071b565b6004601281111561043b5761043a610fea565b5b82601281111561044e5761044d610fea565b5b0361047657604051806107e001604052806107a58152602001612e796107a59139905061071b565b6005601281111561048a57610489610fea565b5b82601281111561049d5761049c610fea565b5b036104c557604051806102a0016040528061027f81526020016113a661027f9139905061071b565b600660128111156104d9576104d8610fea565b5b8260128111156104ec576104eb610fea565b5b036105145760405180610640016040528061061181526020016148d56106119139905061071b565b6007601281111561052857610527610fea565b5b82601281111561053b5761053a610fea565b5b03610563576040518061068001604052806106578152602001611c8b6106579139905061071b565b6008601281111561057757610576610fea565b5b82601281111561058a57610589610fea565b5b036105b257604051806104400160405280610402815260200161361e6104029139905061071b565b600960128111156105c6576105c5610fea565b5b8260128111156105d9576105d8610fea565b5b03610601576040518061050001604052806104c28152602001613a206104c29139905061071b565b600a601281111561061557610614610fea565b5b82601281111561062857610627610fea565b5b036106505760405180610540016040528061051381526020016143c26105139139905061071b565b600b601281111561066457610663610fea565b5b82601281111561067757610676610fea565b5b0361069f5760405180610460016040528061043e815260200161271761043e9139905061071b565b73__Face2_________________________________63b75928cc836040518263ffffffff1660e01b81526004016106d69190611227565b5f60405180830381865af41580156106f0573d5f803e3d5ffd5b505050506040513d5f823e3d601f19601f82011682018060405250810190610718919061135e565b90505b919050565b60605f600481111561073557610734610fea565b5b82600481111561074857610747610fea565b5b0361078a576040518060400160405280600781526020017f23413044313730000000000000000000000000000000000000000000000000008152509050610931565b6001600481111561079e5761079d610fea565b5b8260048111156107b1576107b0610fea565b5b036107f3576040518060400160405280600781526020017f23464644324444000000000000000000000000000000000000000000000000008152509050610931565b6002600481111561080757610806610fea565b5b82600481111561081a57610819610fea565b5b0361085c576040518060400160405280600781526020017f23454144374646000000000000000000000000000000000000000000000000008152509050610931565b600360048111156108705761086f610fea565b5b82600481111561088357610882610fea565b5b036108c5576040518060400160405280600781526020017f23443945304646000000000000000000000000000000000000000000000000008152509050610931565b6004808111156108d8576108d7610fea565b5b8260048111156108eb576108ea610fea565b5b0361092d576040518060400160405280600781526020017f23463843393434000000000000000000000000000000000000000000000000008152509050610931565b5f80fd5b919050565b60605f600481111561094b5761094a610fea565b5b82600481111561095e5761095d610fea565b5b036109a0576040518060400160405280600781526020017f23463446464443000000000000000000000000000000000000000000000000008152509050610b47565b600160048111156109b4576109b3610fea565b5b8260048111156109c7576109c6610fea565b5b03610a09576040518060400160405280600781526020017f23464645374630000000000000000000000000000000000000000000000000008152509050610b47565b60026004811115610a1d57610a1c610fea565b5b826004811115610a3057610a2f610fea565b5b03610a72576040518060400160405280600781526020017f23463345414646000000000000000000000000000000000000000000000000008152509050610b47565b60036004811115610a8657610a85610fea565b5b826004811115610a9957610a98610fea565b5b03610adb576040518060400160405280600781526020017f23454346304646000000000000000000000000000000000000000000000000008152509050610b47565b600480811115610aee57610aed610fea565b5b826004811115610b0157610b00610fea565b5b03610b43576040518060400160405280600781526020017f23464645453933000000000000000000000000000000000000000000000000008152509050610b47565b5f80fd5b919050565b60605f6004811115610b6157610b60610fea565b5b826004811115610b7457610b73610fea565b5b03610bb6576040518060400160405280600781526020017f23393341393744000000000000000000000000000000000000000000000000008152509050610d5d565b60016004811115610bca57610bc9610fea565b5b826004811115610bdd57610bdc610fea565b5b03610c1f576040518060400160405280600781526020017f23454141454337000000000000000000000000000000000000000000000000008152509050610d5d565b60026004811115610c3357610c32610fea565b5b826004811115610c4657610c45610fea565b5b03610c88576040518060400160405280600781526020017f23433342334435000000000000000000000000000000000000000000000000008152509050610d5d565b60036004811115610c9c57610c9b610fea565b5b826004811115610caf57610cae610fea565b5b03610cf1576040518060400160405280600781526020017f23414342354444000000000000000000000000000000000000000000000000008152509050610d5d565b600480811115610d0457610d03610fea565b5b826004811115610d1757610d16610fea565b5b03610d59576040518060400160405280600781526020017f23423936333236000000000000000000000000000000000000000000000000008152509050610d5d565b5f80fd5b919050565b5f604051905090565b5f80fd5b5f80fd5b60138110610d7f575f80fd5b50565b5f81359050610d9081610d73565b92915050565b60028110610da2575f80fd5b50565b5f81359050610db381610d96565b92915050565b60058110610dc5575f80fd5b50565b5f81359050610dd681610db9565b92915050565b5f805f60608486031215610df357610df2610d6b565b5b5f610e0086828701610d82565b9350506020610e1186828701610da5565b9250506040610e2286828701610dc8565b9150509250925092565b5f81519050919050565b5f82825260208201905092915050565b5f5b83811015610e63578082015181840152602081019050610e48565b5f8484015250505050565b5f601f19601f8301169050919050565b5f610e8882610e2c565b610e928185610e36565b9350610ea2818560208601610e46565b610eab81610e6e565b840191505092915050565b5f6020820190508181035f830152610ece8184610e7e565b905092915050565b5f81905092915050565b7f3c73766720786d6c6e733d22687474703a2f2f7777772e77332e6f72672f32305f8201527f30302f737667222077696474683d2232313022206865696768743d223333352260208201527f2066696c6c3d226e6f6e65223e00000000000000000000000000000000000000604082015250565b5f610f60604d83610ed6565b9150610f6b82610ee0565b604d82019050919050565b5f610f8082610e2c565b610f8a8185610ed6565b9350610f9a818560208601610e46565b80840191505092915050565b5f610fb082610f54565b9150610fbc8284610f76565b915081905092915050565b5f610fd28285610f76565b9150610fde8284610f76565b91508190509392505050565b7f4e487b71000000000000000000000000000000000000000000000000000000005f52602160045260245ffd5b7f3c7374796c653e2e666163655374726f6b65436f6c6f727b7374726f6b653a00815250565b7f7d202e6661636546696c6c436f6c6f727b66696c6c3a00000000000000000000815250565b7f7d202e736b696e436f6c6f72426173657b66696c6c3a00000000000000000000815250565b7f7d202e736b696e436f6c6f724c696768747b66696c6c3a000000000000000000815250565b7f7d202e736b696e436f6c6f724461726b7b66696c6c3a00000000000000000000815250565b7f7d202e6d6f7574684f7665726c61797b66696c6c3a0000000000000000000000815250565b7f7d3c2f7374796c653e0000000000000000000000000000000000000000000000815250565b5f61112b82611017565b601f8201915061113b8289610f76565b91506111468261103d565b6016820191506111568288610f76565b915061116182611063565b6016820191506111718287610f76565b915061117c82611089565b60178201915061118c8286610f76565b9150611197826110af565b6016820191506111a78285610f76565b91506111b2826110d5565b6015820191506111c28284610f76565b91506111cd826110fb565b600982019150819050979650505050505050565b601381106111f2576111f1610fea565b5b50565b5f819050611202826111e1565b919050565b5f611211826111f5565b9050919050565b61122181611207565b82525050565b5f60208201905061123a5f830184611218565b92915050565b5f80fd5b5f80fd5b7f4e487b71000000000000000000000000000000000000000000000000000000005f52604160045260245ffd5b61127e82610e6e565b810181811067ffffffffffffffff8211171561129d5761129c611248565b5b80604052505050565b5f6112af610d62565b90506112bb8282611275565b919050565b5f67ffffffffffffffff8211156112da576112d9611248565b5b6112e382610e6e565b9050602081019050919050565b5f6113026112fd846112c0565b6112a6565b90508281526020810184848401111561131e5761131d611244565b5b611329848285610e46565b509392505050565b5f82601f83011261134557611344611240565b5b81516113558482602086016112f0565b91505092915050565b5f6020828403121561137357611372610d6b565b5b5f82015167ffffffffffffffff8111156113905761138f610d6f565b5b61139c84828501611331565b9150509291505056fe3c656c6c697073652063783d2238362e393137222063793d223134322e323731222066696c6c3d2223666666222072783d22392e393137222072793d2231302e323731222f3e3c656c6c6970736520636c6173733d226661636546696c6c436f6c6f72222063783d2238362e393137222063793d223134322e323732222072783d22362e3433222072793d22362e3636222f3e3c656c6c697073652063783d223132332e303833222063793d223134322e323731222066696c6c3d2223666666222072783d22392e393137222072793d2231302e323731222f3e3c656c6c6970736520636c6173733d226661636546696c6c436f6c6f72222063783d223132332e303833222063793d223134322e323732222072783d22362e3433222072793d22362e3636222f3e3c7061746820636c6173733d22666163655374726f6b65436f6c6f7222207374726f6b652d6c696e656361703d22726f756e6422207374726f6b652d6c696e656a6f696e3d22726f756e6422207374726f6b652d77696474683d22332220643d224d393620313538683138222f3e3c656c6c697073652063783d2239222063793d22372e323731222066696c6c3d2223666666222066696c6c2d6f7061636974793d222e3435222072783d2239222072793d22372e32373122207472616e73666f726d3d226d6174726978282d312030203020312038362031343929222f3e3c656c6c697073652063783d2239222063793d22372e323731222066696c6c3d2223666666222066696c6c2d6f7061636974793d222e3435222072783d2239222072793d22372e32373122207472616e73666f726d3d226d6174726978282d31203020302031203134322031343929222f3e3c2f7376673e3c7061746820636c6173733d226661636546696c6c436f6c6f72222066696c6c2d72756c653d226576656e6f64642220643d224d39342e3120313339632e372d2e3420312d312e312e382d312e382d312e342d332e372d342e352d362e322d382d362e322d3520302d382e3920342e372d382e392031302e3473342031302e3420382e382031302e3463332e35203020362e352d322e3420382d352e382e332d2e372d2e312d312e352d2e382d312e386c2d332e362d312e35632d312d2e342d312d312e3820302d322e326c332e372d312e365a6d32302e3820322e3463302d352e3720342d31302e3420382e382d31302e3420332e372030203720322e3720382e3220362e352e332e372d2e3120312e342d2e3820312e376c2d3320312e33632d31202e342d3120312e38203020322e326c322e3920312e32632e372e3320312031202e3820312e382d312e3420332e362d342e3520362e312d3820362e312d3520302d382e392d342e372d382e392d31302e345a2220636c69702d72756c653d226576656e6f6464222f3e3c7061746820636c6173733d226661636546696c6c436f6c6f72222066696c6c2d6f7061636974793d222e31322220643d224d37342e37203135342e3261312e3520312e352030203120312d322e352d312e3520312e3520312e3520302030203120322e3520312e355a6d352e31203361312e3520312e352030203120312d322e352d312e3520312e3520312e3520302030203120322e3520312e345a6d2d342e3520312e3961312e3520312e352030203120312d322e352d312e3520312e3520312e3520302030203120322e3520312e355a6d35352e342d332e3461312e3520312e352030203120312d322e3520312e3420312e3520312e3520302030203120322e352d312e345a6d352e312d3361312e3520312e352030203120312d322e3520312e3520312e3520312e3520302030203120322e352d312e355a6d2d2e3620342e3961312e3520312e352030203120312d322e3520312e3520312e3520312e3520302030203120322e352d312e355a222f3e3c636972636c652063783d22313035222063793d223136312e3538312220723d22332e3436362220636c6173733d226661636546696c6c436f6c6f72222f3e3c7061746820636c6173733d22666163655374726f6b65436f6c6f7222207374726f6b652d6c696e656361703d22726f756e6422207374726f6b652d77696474683d22322e352220643d224d39392031363673312e3720332e32203620332e3220362d332e3220362d332e326d302d382e38732d312e372d332e322d362d332e322d3620332e322d3620332e32222f3e3c706174682066696c6c3d2223464643464543222066696c6c2d6f7061636974793d222e382220636c6173733d22666163655374726f6b65436f6c6f7222207374726f6b652d77696474683d22322e37352220643d224d39342e33203134342e374133322033322030203020302033342e3520313631203332203332203020302030203934203137386c322e332d332e38613331302033313020302030203120342d362e366c332d3461332e3420332e3420302030203020302d346c2d322e322d332e326135312035312030203020312d332e342d352e376c2d2e392d312e37632d2e382d312e342d312e352d322e392d322e342d342e335a222f3e3c636972636c652063783d222d312e323839222063793d2231312e3238392220723d22332e323839222066696c6c3d2223666666222066696c6c2d6f7061636974793d222e343522207472616e73666f726d3d227363616c65282d3120312920726f746174652835202d31373631202d39303429222f3e3c706174682066696c6c3d2223666666222066696c6c2d6f7061636974793d222e34352220643d224d38372e33203135302e38613420342030203020312d372e3420332e342031342e372031342e372030203020302d372e332d386c2d312e342d2e3841322e3520322e35203020302031203730203134326c2e312d2e33632e362d312e3120302d322e362d312e332d322e382d312e352d2e322d322e382d2e332d342e312d2e3261312e3520312e352030203020312d2e342d322e392031392e342031392e342030203020312031332e3720346331202e3520312e3820312e3220322e382032203220312e3820332e37203420342e3720352e376133342e342033342e3420302030203120312e362033762e31682e31762e31222f3e3c2f7376673e3c7061746820636c6173733d22666163655374726f6b65436f6c6f7222207374726f6b652d6c696e656361703d22726f756e6422207374726f6b652d77696474683d22332e352220643d224d37372e322031343273322e352d342e3220382e342d342e3563362d2e3420382e3920332e3520382e3920332e356d33382e332031732d322e352d342e322d382e342d342e35632d362d2e342d382e3920332e352d382e3920332e35222f3e3c656c6c697073652063783d2239222063793d22372e323731222066696c6c3d2223666666222066696c6c2d6f7061636974793d222e3435222072783d2239222072793d22372e32373122207472616e73666f726d3d226d6174726978282d312030203020312038302031343529222f3e3c656c6c697073652063783d2239222063793d22372e323731222066696c6c3d2223666666222066696c6c2d6f7061636974793d222e3435222072783d2239222072793d22372e32373122207472616e73666f726d3d226d6174726978282d31203020302031203134382031343529222f3e3c706174682066696c6c3d22236666662220643d224d3130352e32203135302e34632d322e3620302d352e392d312e332d382e362d312e342d322e3720302d352e362e332d372e3820312e352d332e3820322d352e3520362d342e3520392e362e3920332e3620342e3120362e36203820382e34203420312e38203820322e352031322e3620322e35222f3e3c706174682066696c6c3d22236666662220643d224d3130352e32203135302e3463322e38203020352e352d312e3320382e322d312e3420322e372d2e3120352e362e3320372e3820312e3520332e38203220352e35203620342e3520392e362d2e3920332e362d342e3120362e362d3820382e346133312033312030203020312d31322e3820322e35222f3e3c7061746820636c6173733d226661636546696c6c436f6c6f722220643d224d38362e37203135342e33613220322030203020302d2e3420316c2e332e39632e322e332e332e372e3320312030202e342d2e3120312d2e3320312e336c2d2e362031632d2e312e342d2e322e38203020312d2e352d2e332d2e372d2e392d2e382d312e342d2e322d2e352d2e332d312d2e332d312e3620302d2e362e312d312e322e342d312e382e342d2e352e372d312e3220312e342d312e345a6d33362e362030632e312e322e342e362e3420316c2d2e332e39613220322030203020302d2e3320316330202e342e312031202e3320312e336c2e3620317631632e352d2e332e372d2e392e382d312e342e322d2e352e332d31202e332d312e36613420342030203020302d2e352d312e38632d2e332d2e352d2e362d312e322d312e332d312e345a222f3e3c7061746820636c6173733d22666163655374726f6b65436f6c6f7222207374726f6b652d6c696e656361703d22726f756e6422207374726f6b652d6c696e656a6f696e3d22726f756e6422207374726f6b652d77696474683d22332220643d224d3130352e32203135302e34632d322e3620302d352e392d312e332d382e362d312e342d322e3720302d352e362e332d372e3820312e352d332e3820322d352e3520362d342e3520392e362e3920332e3620342e3120362e36203820382e34203420312e38203820322e352031322e3620322e35222f3e3c7061746820636c6173733d22666163655374726f6b65436f6c6f7222207374726f6b652d6c696e656361703d22726f756e6422207374726f6b652d6c696e656a6f696e3d22726f756e6422207374726f6b652d77696474683d22332220643d224d3130352e32203135302e3463322e38203020352e352d312e3320382e322d312e3420322e372d2e3120352e362e3320372e3820312e3520332e38203220352e35203620342e3520392e362d2e3920332e362d342e3120362e362d3820382e346133312033312030203020312d31322e3820322e35222f3e3c7061746820636c6173733d22666163655374726f6b65436f6c6f7222207374726f6b652d6c696e656361703d22726f756e6422207374726f6b652d77696474683d22322220643d226d3933203135392033203120322e342e336132203220302030203020312e392d316c2e312d2e34632e332d2e342e392d2e332031202e316c2e3420322e38632e312e352e382e352e392030763061312e3820312e3820302030203120312e372d312e3268342e37222f3e3c2f7376673e3c7061746820636c6173733d226661636546696c6c436f6c6f72222066696c6c2d6f7061636974793d222e31322220643d224d37342e37203135342e3261312e3520312e352030203120312d322e352d312e3520312e3520312e3520302030203120322e3520312e355a6d352e31203361312e3520312e352030203120312d322e352d312e3520312e3520312e3520302030203120322e3520312e345a6d2d342e3520312e3961312e3520312e352030203120312d322e352d312e3520312e3520312e3520302030203120322e3520312e355a6d35352e342d332e3461312e3520312e352030203120312d322e3520312e3420312e3520312e3520302030203120322e352d312e345a6d352e312d3361312e3520312e352030203120312d322e3520312e3520312e3520312e3520302030203120322e352d312e355a6d2d2e3620342e3961312e3520312e352030203120312d322e3520312e3520312e3520312e3520302030203120322e352d312e355a222f3e3c7061746820636c6173733d22666163655374726f6b65436f6c6f7222207374726f6b652d6c696e656361703d22726f756e6422207374726f6b652d77696474683d22332e352220643d224d3133302e38203134352e39732d322e312d342e322d372e342d342e3561382e3820382e382030203020302d372e3820332e376d2d33362e342e3873322e312d342e3220372e342d342e3561382e3820382e3820302030203120372e3820332e37222f3e3c7061746820636c6173733d226661636546696c6c436f6c6f722220643d224d31303520313732632d313520302d32302e362d382d31382e362d31332e3620312e342d342e3120362d362e342031302e342d3561333520333520302030203020382e3220312e3663322e33203020362e332d3120382e322d312e3620342e332d312e342039202e392031302e342035203220352e352d332e362031332e362d31382e362031332e365a222f3e3c7061746820636c6173733d22666163655374726f6b65436f6c6f72222066696c6c3d222346464446453722207374726f6b652d77696474683d22322e37352220643d224d39382e37203136312e3468312e336c312e372e342031202e332e382e3220312e352e3220312e352d2e322e392d2e322e392d2e336132312e332032312e3320302030203120312e382d2e336c312e322d2e3163322e322e3320332e3620312e3320342e3420322e3661382038203020302031202e3720352e322031312e312031312e312030203020312d31312e3420392e342031312e312031312e312030203020312d31312e342d392e34632d2e342d322d2e312d332e382e372d352e322e382d312e3320322e322d322e3320342e342d322e365a222f3e3c706174682066696c6c3d22234635433844342220643d224d313036203136332e387637613120312030203020312d322030762d376c31202e3220312d2e325a222f3e3c2f7376673e3c7061746820636c6173733d22666163655374726f6b65436f6c6f7222207374726f6b652d6c696e656361703d22726f756e6422207374726f6b652d77696474683d22332220643d224d39312031353973342e33203620313420362031342d362031342d36222f3e3c7061746820636c6173733d22666163655374726f6b65436f6c6f7222207374726f6b652d6c696e656361703d22726f756e6422207374726f6b652d6c696e656a6f696e3d22726f756e6422207374726f6b652d77696474683d22322e352220643d224d383920313539632e382d2e3420312e352d3120322d326d33302032632d2e382d2e342d312e352d312d322d32222f3e3c7061746820636c6173733d226661636546696c6c436f6c6f72222066696c6c2d6f7061636974793d222e31322220643d224d37342e37203135342e3261312e3520312e352030203120312d322e352d312e3520312e3520312e3520302030203120322e3520312e355a6d352e31203361312e3520312e352030203120312d322e352d312e3520312e3520312e3520302030203120322e3520312e345a6d2d342e3520312e3961312e3520312e352030203120312d322e352d312e3520312e3520312e3520302030203120322e3520312e355a6d35352e342d332e3461312e3520312e352030203120312d322e3520312e3420312e3520312e3520302030203120322e352d312e345a6d352e312d3361312e3520312e352030203120312d322e3520312e3520312e3520312e3520302030203120322e352d312e355a6d2d2e3620342e3961312e3520312e352030203120312d322e3520312e3520312e3520312e3520302030203120322e352d312e355a222f3e3c7061746820636c6173733d226661636546696c6c436f6c6f72222066696c6c2d72756c653d226576656e6f64642220643d224d39342e3120313339632e372d2e3420312d312e312e382d312e382d312e342d332e372d342e352d362e322d382d362e322d3520302d382e3920342e372d382e392031302e3473342031302e3420382e382031302e3463332e35203020362e352d322e3420382d352e382e332d2e372d2e312d312e352d2e382d312e386c2d332e362d312e35632d312d2e342d312d312e3820302d322e326c332e372d312e365a2220636c69702d72756c653d226576656e6f6464222f3e3c7061746820636c6173733d22666163655374726f6b65436f6c6f7222207374726f6b652d6c696e656361703d22726f756e6422207374726f6b652d77696474683d22342220643d224d313330203134322e34732d322d322d362e352d322d362e3520322d362e352032222f3e3c7061746820636c6173733d22666163655374726f6b65436f6c6f7222207374726f6b652d6c696e656361703d22726f756e6422207374726f6b652d77696474683d22342220643d224d3132382e38203133362e35732d322e372d312d362e3720312d3520342e362d3520342e36222f3e3c2f7376673e3c7061746820636c6173733d226661636546696c6c436f6c6f72222066696c6c2d6f7061636974793d222e31322220643d224d37342e37203135342e3261312e3520312e352030203120312d322e352d312e3520312e3520312e3520302030203120322e3520312e355a6d352e31203361312e3520312e352030203120312d322e352d312e3520312e3520312e3520302030203120322e3520312e345a6d2d342e3520312e3961312e3520312e352030203120312d322e352d312e3520312e3520312e3520302030203120322e3520312e355a6d35352e342d332e3461312e3520312e352030203120312d322e3520312e3420312e3520312e3520302030203120322e352d312e345a6d352e312d3361312e3520312e352030203120312d322e3520312e3520312e3520312e3520302030203120322e352d312e355a6d2d2e3620342e3961312e3520312e352030203120312d322e3520312e3520312e3520312e3520302030203120322e352d312e355a222f3e3c7061746820636c6173733d22666163655374726f6b65436f6c6f7222207374726f6b652d6c696e656361703d22726f756e6422207374726f6b652d77696474683d22332220643d224d39312031353973342e33203620313420362031342d362031342d36222f3e3c7061746820636c6173733d22666163655374726f6b65436f6c6f7222207374726f6b652d6c696e656361703d22726f756e6422207374726f6b652d6c696e656a6f696e3d22726f756e6422207374726f6b652d77696474683d22322e352220643d224d383920313539632e382d2e3420312e352d3120322d326d33302032632d2e382d2e342d312e352d312d322d32222f3e3c7061746820636c6173733d22666163655374726f6b65436f6c6f7222207374726f6b652d6c696e656361703d22726f756e6422207374726f6b652d77696474683d22332e352220643d224d3133302e38203134352e39732d322e312d342e322d372e342d342e3561382e3820382e382030203020302d372e3820332e376d2d33362e342e3873322e312d342e3220372e342d342e3561382e3820382e3820302030203120372e3820332e37222f3e3c2f7376673e3c7061746820636c6173733d226661636546696c6c436f6c6f722220643d224d3931203136302e3363302d342e3320322d362031342d3673313420312e3720313420362d362e3320392e352d313420392e352d31342d352e322d31342d392e355a222f3e3c656c6c697073652063783d22313035222063793d223136342e363037222066696c6c3d2223464644464537222072783d2231312e3135222072793d22332e363236222f3e3c7061746820636c6173733d22666163655374726f6b65436f6c6f7222207374726f6b652d6c696e656361703d22726f756e6422207374726f6b652d6c696e656a6f696e3d22726f756e6422207374726f6b652d77696474683d22332e3137362220643d224d39312031363063302d342e3320302d362031342d3673313420312e372031342036633020352e322d362e3320392e342d313420392e34732d31342d342e322d31342d392e345a222f3e3c7061746820636c6173733d22666163655374726f6b65436f6c6f72222066696c6c3d222346463838413522207374726f6b652d77696474683d22332220643d224d39342e32203133302e3861372e3720372e372030203020302d322e372d312e3320372e3620372e362030203020302d352e382e3720372e3720372e372030203020302d322e3220312e3920372e3720372e372030203020302d322e372d312e3320372e3620372e362030203020302d332d2e3220372e3620372e362030203020302d322e372e3920372e3720372e372030203020302d322e33203220372e3620372e362030203020302d3120312e3720372e3220372e322030203020302d2e3520312e3920372e3320372e3320302030203020312e3420352e3541372e3320372e33203020302030203734203134346c392e3320372e3161332e3520332e3520302030203020342e392d2e366c372e322d392e3261372e3220372e3220302030203020312e362d352e3620372e3420372e342030203020302d2e352d312e3820372e3820372e382030203020302d312d312e3720372e3320372e332030203020302d312e342d312e355a6d34332e3320322e3661372e3620372e362030203020302d352e312d322e3820372e3620372e362030203020302d33202e3220372e3720372e372030203020302d322e3620312e3320372e3720372e372030203020302d322e332d3220372e3620372e362030203020302d322e382d2e3820372e3620372e362030203020302d33202e3220372e3720372e372030203020302d322e3620312e3320372e3620372e362030203020302d312e3520312e3420372e3220372e322030203020302d3120312e3820372e3820372e382030203020302d2e3420312e3920372e3820372e38203020302030202e3520332e3820372e3320372e33203020302030203120312e376c372e3320392e3261332e3520332e3520302030203020342e392e366c392e332d372e3161372e3620372e3620302030203020312e342d312e3520372e3220372e3220302030203020312d312e3720372e3820372e38203020302030202e342d312e3920372e3420372e3420302030203020302d3220372e3820372e382030203020302d2e352d312e3820372e3320372e332030203020302d312d312e385a222f3e3c7061746820636c6173733d226661636546696c6c436f6c6f72222066696c6c2d6f7061636974793d222e31322220643d224d37342e37203135342e3261312e3520312e352030203120312d322e352d312e3520312e3520312e3520302030203120322e3520312e355a6d352e31203361312e3520312e352030203120312d322e352d312e3520312e3520312e3520302030203120322e3520312e345a6d2d342e3520312e3961312e3520312e352030203120312d322e352d312e3520312e3520312e3520302030203120322e3520312e355a6d35352e342d332e3461312e3520312e352030203120312d322e3520312e3420312e3520312e3520302030203120322e352d312e345a6d352e312d3361312e3520312e352030203120312d322e3520312e3520312e3520312e3520302030203120322e352d312e355a6d2d2e3620342e3961312e3520312e352030203120312d322e3520312e3520312e3520312e3520302030203120322e352d312e355a222f3e3c706174682066696c6c3d22234533463746462220643d224d35342e39203133352e37633120322e3720332e3120352e3120332e31203861352e3720352e372030203020312d31312e33203063302d322e3920322d352e3320332e312d386c312e342d332e34632e342d3120312e392d3120322e3320306c312e3420332e345a222f3e3c7061746820636c6173733d22666163655374726f6b65436f6c6f7222207374726f6b652d6f7061636974793d222e3122207374726f6b652d77696474683d22322e352220643d224d35322e34203135302e366137203720302030203020362e392d3763302d312e372d2e372d332e322d312e332d342e356135312035312030203020302d2e382d312e356c2d312e322d322e332d312e332d332e3561322e3520322e352030203020302d342e3720306c2d312e3320332e352d312e3220322e336135312035312030203020302d2e3820312e35632d2e3620312e332d312e3320322e382d312e3320342e3661372037203020302030203720362e395a222f3e3c2f7376673e3c7061746820636c6173733d22666163655374726f6b65436f6c6f7222207374726f6b652d6c696e656361703d22726f756e6422207374726f6b652d77696474683d22332220643d224d39312031353973342e33203620313420362031342d362031342d36222f3e3c7061746820636c6173733d22666163655374726f6b65436f6c6f7222207374726f6b652d6c696e656361703d22726f756e6422207374726f6b652d6c696e656a6f696e3d22726f756e6422207374726f6b652d77696474683d22322e352220643d224d383920313539632e382d2e3420312e352d3120322d326d33302032632d2e382d2e342d312e352d312d322d32222f3e3c7061746820636c6173733d226661636546696c6c436f6c6f72222066696c6c2d72756c653d226576656e6f64642220643d224d39342e3120313339632e372d2e3420312d312e312e382d312e382d312e342d332e372d342e352d362e322d382d362e322d3520302d382e3920342e372d382e392031302e3473342031302e3420382e382031302e3463332e35203020362e352d322e3420382d352e382e332d2e372d2e312d312e352d2e382d312e386c2d332e362d312e35632d312d2e342d312d312e3820302d322e326c332e372d312e365a6d32302e3820322e3463302d352e3720342d31302e3420382e382d31302e3420332e372030203720322e3720382e3220362e352e332e372d2e3120312e342d2e3820312e376c2d3320312e33632d31202e342d3120312e38203020322e326c322e3920312e32632e372e3320312031202e3820312e382d312e3420332e362d342e3520362e312d3820362e312d3520302d382e392d342e372d382e392d31302e345a2220636c69702d72756c653d226576656e6f6464222f3e3c7061746820636c6173733d226661636546696c6c436f6c6f72222066696c6c2d6f7061636974793d222e31322220643d224d37342e37203135342e3261312e3520312e352030203120312d322e352d312e3520312e3520312e3520302030203120322e3520312e355a6d352e31203361312e3520312e352030203120312d322e352d312e3520312e3520312e3520302030203120322e3520312e345a6d2d342e3520312e3961312e3520312e352030203120312d322e352d312e3520312e3520312e3520302030203120322e3520312e355a6d35352e342d332e3461312e3520312e352030203120312d322e3520312e3420312e3520312e3520302030203120322e352d312e345a6d352e312d3361312e3520312e352030203120312d322e3520312e3520312e3520312e3520302030203120322e352d312e355a6d2d2e3620342e3961312e3520312e352030203120312d322e3520312e3520312e3520312e3520302030203120322e352d312e355a222f3e3c2f7376673e3c7061746820636c6173733d226661636546696c6c436f6c6f72222066696c6c2d6f7061636974793d222e31322220643d224d37342e37203135342e3261312e3520312e352030203120312d322e352d312e3520312e3520312e3520302030203120322e3520312e355a6d352e31203361312e3520312e352030203120312d322e352d312e3520312e3520312e3520302030203120322e3520312e345a6d2d342e3520312e3961312e3520312e352030203120312d322e352d312e3520312e3520312e3520302030203120322e3520312e355a6d35352e342d332e3461312e3520312e352030203120312d322e3520312e3420312e3520312e3520302030203120322e352d312e345a6d352e312d3361312e3520312e352030203120312d322e3520312e3520312e3520312e3520302030203120322e352d312e355a6d2d2e3620342e3961312e3520312e352030203120312d322e3520312e3520312e3520312e3520302030203120322e352d312e355a222f3e3c706174682066696c6c3d22236666662220643d224d37332e39203133392e386131312e372031312e37203020302030203020312e31633020352e3620342031312e322031302e322031312e3220362e3320302031302e342d352e362031302e342d31312e32762d312e314837332e385a222f3e3c7061746820636c6173733d22666163655374726f6b65436f6c6f7222207374726f6b652d6c696e656361703d22726f756e6422207374726f6b652d6c696e656a6f696e3d22726f756e6422207374726f6b652d77696474683d22332e352220643d224d3733203134302e3773342e372d2e392031312e312d2e3963362e3420302031312e322e392031312e322e39222f3e3c7061746820636c6173733d226661636546696c6c436f6c6f722220643d224d37372e37203133392e3561392e3820392e382030203020302030202e386330203420322e3520382e3120362e3420382e312034203020362e352d3420362e352d38762d31682d31335a222f3e3c706174682066696c6c3d22236666662220643d224d3133352e38203133392e3876312e31633020352e362d342031312e322d31302e332031312e322d362e3220302d31302e332d352e362d31302e332d31312e32762d312e316832302e365a222f3e3c7061746820636c6173733d22666163655374726f6b65436f6c6f7222207374726f6b652d6c696e656361703d22726f756e6422207374726f6b652d6c696e656a6f696e3d22726f756e6422207374726f6b652d77696474683d22332e352220643d224d3133362e36203134302e37732d342e372d2e392d31312d2e39632d362e3520302d31312e322e392d31312e322e39222f3e3c7061746820636c6173733d226661636546696c6c436f6c6f722220643d224d313332203133392e35762e38633020342d322e3620382e312d362e3520382e31732d362e342d342d362e342d38762d31483133325a222f3e3c7061746820636c6173733d22666163655374726f6b65436f6c6f7222207374726f6b652d6c696e656361703d22726f756e6422207374726f6b652d6c696e656a6f696e3d22726f756e6422207374726f6b652d77696474683d22332e3135362220643d224d3930203136306133312e332033312e3320302030203020323020322e34222f3e3c2f7376673e3c7061746820636c6173733d22666163655374726f6b65436f6c6f7222207374726f6b652d6c696e656361703d22726f756e6422207374726f6b652d77696474683d22332e352220643d224d3133302e38203134332e39732d322e312d342e322d372e342d342e3561382e3820382e382030203020302d372e3820332e376d2d33362e342e3873322e312d342e3220372e342d342e3561382e3820382e3820302030203120372e3820332e37222f3e3c7061746820636c6173733d226661636546696c6c436f6c6f722220643d224d3931203135372e3363302d342e3320322d362031342d3673313420312e3720313420362d362e3320392e352d313420392e352d31342d352e322d31342d392e355a222f3e3c656c6c697073652063783d22313035222063793d223136312e363037222066696c6c3d2223464644464537222072783d2231312e3135222072793d22332e363236222f3e3c7061746820636c6173733d22666163655374726f6b65436f6c6f7222207374726f6b652d6c696e656361703d22726f756e6422207374726f6b652d6c696e656a6f696e3d22726f756e6422207374726f6b652d77696474683d22332e3137362220643d224d39312031353763302d342e3320302d362031342d3673313420312e372031342036633020352e322d362e3320392e342d313420392e34732d31342d342e322d31342d392e345a222f3e3c706174682066696c6c3d22234533463746462220643d224d37302e32203134392e35632d322e3520312e312d352e3620312e332d372e3620332e3361352e3520352e3520302031203020372e3820372e3863322d3220322e322d3520332e332d372e366c312e342d332e33632e342d312d2e362d322d312e362d312e366c2d332e3320312e345a222f3e3c7061746820636c6173733d22666163655374726f6b65436f6c6f7222207374726f6b652d6f7061636974793d222e3122207374726f6b652d77696474683d22322e352220643d224d36312e37203135312e3961362e3820362e3820302031203020392e3620392e3620313020313020302030203020322e332d342e316c2e342d312e352e382d322e3420312e352d332e33632e382d322d312e322d342e312d332e332d332e326c2d332e3320312e342d322e342e382d312e352e3461392e3520392e352030203020302d3420322e335a222f3e3c706174682066696c6c3d22234533463746462220643d224d3133392e38203134392e3563322e3520312e3120352e3620312e3320372e3620332e3361352e3520352e352030203120312d372e3820372e38632d322d322d322e322d352d332e332d372e366c2d312e342d332e33632d2e342d31202e362d3220312e362d312e366c332e3320312e345a222f3e3c7061746820636c6173733d22666163655374726f6b65436f6c6f7222207374726f6b652d6f7061636974793d222e3122207374726f6b652d77696474683d22322e352220643d224d3134382e33203135312e3961362e3820362e382030203020312d392e3620392e362031302031302030203020312d322e332d342e312035302e342035302e342030203020312d2e342d312e356c2d2e382d322e342d312e352d332e33632d2e382d3220312e322d342e3120332e332d332e326c332e3320312e3420322e342e3820312e352e3463312e342e3520322e3920312e31203420322e335a222f3e3c2f7376673e3c7061746820636c6173733d226661636546696c6c436f6c6f72222066696c6c2d6f7061636974793d222e31322220643d224d37342e37203135342e3261312e3520312e352030203120312d322e352d312e3520312e3520312e3520302030203120322e3520312e355a6d352e31203361312e3520312e352030203120312d322e352d312e3520312e3520312e3520302030203120322e3520312e345a6d2d342e3520312e3961312e3520312e352030203120312d322e352d312e3520312e3520312e3520302030203120322e3520312e355a6d35352e342d332e3461312e3520312e352030203120312d322e3520312e3420312e3520312e3520302030203120322e352d312e345a6d352e312d3361312e3520312e352030203120312d322e3520312e3520312e3520312e3520302030203120322e352d312e355a6d2d2e3620342e3961312e3520312e352030203120312d322e3520312e3520312e3520312e3520302030203120322e352d312e355a222f3e3c7061746820636c6173733d226661636546696c6c436f6c6f72222066696c6c2d72756c653d226576656e6f64642220643d224d39342e3120313339632e372d2e3420312d312e312e382d312e382d312e342d332e372d342e352d362e322d382d362e322d3520302d382e3920342e372d382e392031302e3473342031302e3420382e382031302e3463332e35203020362e352d322e3420382d352e382e332d2e372d2e312d312e352d2e382d312e386c2d332e362d312e35632d312d2e342d312d312e3820302d322e326c332e372d312e365a6d32302e3820322e3463302d352e3720342d31302e3420382e382d31302e3420332e372030203720322e3720382e3220362e352e332e372d2e3120312e342d2e3820312e376c2d3320312e33632d31202e342d3120312e38203020322e326c322e3920312e32632e372e3320312031202e3820312e382d312e3420332e362d342e3520362e312d3820362e312d3520302d382e392d342e372d382e392d31302e345a2220636c69702d72756c653d226576656e6f6464222f3e3c7061746820636c6173733d226661636546696c6c436f6c6f722220643d224d31303520313732632d313520302d32302e362d382d31382e362d31332e3620312e342d342e3120362d362e342031302e342d3561333520333520302030203020382e3220312e3663322e33203020362e332d3120382e322d312e3620342e332d312e342039202e392031302e342035203220352e352d332e362031332e362d31382e362031332e365a222f3e3c7061746820636c6173733d22666163655374726f6b65436f6c6f72222066696c6c3d222346464446453722207374726f6b652d77696474683d22322e37352220643d224d39382e37203136312e3468312e336c312e372e342031202e332e382e3220312e352e3220312e352d2e322e392d2e322e392d2e336132312e332032312e3320302030203120312e382d2e336c312e322d2e3163322e322e3320332e3620312e3320342e3420322e3661382038203020302031202e3720352e322031312e312031312e312030203020312d31312e3420392e342031312e312031312e312030203020312d31312e342d392e34632d2e342d322d2e312d332e382e372d352e322e382d312e3320322e322d322e3320342e342d322e365a222f3e3c706174682066696c6c3d22234635433844342220643d224d313036203136332e387637613120312030203020312d322030762d376c31202e3220312d2e325a222f3e3c2f7376673e3c7061746820636c6173733d226661636546696c6c436f6c6f72222066696c6c2d6f7061636974793d222e31322220643d224d37342e37203135342e3261312e3520312e352030203120312d322e352d312e3520312e3520312e3520302030203120322e3520312e355a6d352e31203361312e3520312e352030203120312d322e352d312e3520312e3520312e3520302030203120322e3520312e345a6d2d342e3520312e3961312e3520312e352030203120312d322e352d312e3520312e3520312e3520302030203120322e3520312e355a6d35352e342d332e3461312e3520312e352030203120312d322e3520312e3420312e3520312e3520302030203120322e352d312e345a6d352e312d3361312e3520312e352030203120312d322e3520312e3520312e3520312e3520302030203120322e352d312e355a6d2d2e3620342e3961312e3520312e352030203120312d322e3520312e3520312e3520312e3520302030203120322e352d312e355a222f3e3c7061746820636c6173733d226661636546696c6c436f6c6f7220666163655374726f6b65436f6c6f7222207374726f6b652d77696474683d222e3130352220643d224d3132362e34203135342e34682d3661312e3120312e31203020302030203020322e336833632e322030202e332e332e322e346c2d342e3320352e3261312e3420312e34203020302030203120322e3368362e3661312e3120312e3120302030203020302d322e33682d332e37612e332e332030203020312d2e322d2e346c342e342d352e3261312e3420312e342030203020302d312d322e335a222f3e3c7061746820636c6173733d226661636546696c6c436f6c6f7220666163655374726f6b65436f6c6f7222207374726f6b652d77696474683d222e3231312220643d226d3133342e34203134392e322d342e35203161312031203020302030202e3420312e386c322d2e35612e322e32203020302031202e332e336c2d322e3320342e3561312e3120312e3120302030203020312e3220312e366c352d31613120312030203020302d2e352d312e396c2d322e362e36612e322e322030203020312d2e322d2e336c322e342d342e3561312e3120312e312030203020302d312e322d312e365a222f3e3c7061746820636c6173733d226661636546696c6c436f6c6f7220666163655374726f6b65436f6c6f7222207374726f6b652d77696474683d222e3331362220643d226d313433203135322d332e342e38612e382e38203020312030202e3320312e356c312e352d2e332e312e312d312e3720332e3361312031203020302030203120312e346c332e372d2e38612e382e382030203020302d2e332d312e366c2d312e392e34612e312e312030203020312d2e312d2e326c312e372d332e32613120312030203020302d312d312e345a222f3e3c7061746820636c6173733d22666163655374726f6b65436f6c6f7222207374726f6b652d6c696e656361703d22726f756e6422207374726f6b652d77696474683d22332e352220643d224d3133302e3820313433732d322e3320342d372e3620342d372e362d342d372e362d344d37392031343373322e33203420372e36203420372e362d3420372e362d34222f3e3c7061746820636c6173733d226661636546696c6c436f6c6f722220643d224d31313420313630633020332d3420342e322d3920342e32732d392d312e322d392d342e3163302d3320342d362e3520392d362e35733920332e36203920362e355a222f3e3c706174682066696c6c3d22236666662220643d224d3938203135342e3668313476312e39633020312e322d3120322e312d322e3120322e314831303061322e3120322e312030203020312d322e312d322e31762d312e395a222f3e3c7061746820636c6173733d22666163655374726f6b65436f6c6f7222207374726f6b652d6c696e656361703d22726f756e6422207374726f6b652d6c696e656a6f696e3d22726f756e6422207374726f6b652d77696474683d22332e3137362220643d224d31313420313630633020332d3420342e322d3920342e32732d392d312e322d392d342e3163302d3320342d362e3520392d362e35733920332e36203920362e355a222f3e3c2f7376673ea2646970667358221220a64786aa8ab77fad43cf63b98e2732bee5cac68744e5baefbac4d23a5866911364736f6c63430008140033",
  "immutableReferences": {},
  "source": "// SPDX-License-Identifier: MIT\npragma solidity ^0.8.0;\n\nimport {EduxColors} from './EduxColors.sol';\nimport {Skin} from './Helpers.sol';\n\nlibrary Face {\n    enum FaceVariants {\n        // Face.sol\n        BUBBLEGUM, // 0\n        GRIN_TONGUE, // 1\n        GRIN, // 2\n        LAUGH, // 3\n        LOVE, // 4\n        OOPS, // 5\n        SLEEPY, // 6\n        SMILE_TEETH, // 7\n        SMILE, // 8\n        SMIRK, // 9\n        TONGUE, // 10\n        WINK, // 11\n        // Face2.sol\n        WOW_TONGUE, // 12\n        WOW, // 13\n        BABY, // 14\n        KAWAII, // 15\n        PIXIE, // 16\n        TODDLER, // 17\n        VAMP // 18\n    }\n\n    enum FaceColors {\n        NORMAL,\n        GOLD\n    }\n\n    function getFace(\n        FaceVariants faceVariant,\n        FaceColors faceColor,\n        Skin.SkinColors skinColor\n    ) external pure returns (string memory) {\n        string memory faceSvgStart = string.concat(\n            '<svg xmlns=\"http://www.w3.org/2000/svg\" width=\"210\" height=\"335\" fill=\"none\">',\n            _getStyleTag(faceColor, skinColor)\n        );\n        return string.concat(faceSvgStart, getFaceVariant(faceVariant));\n    }\n\n    function getFaceVariant(FaceVariants faceVariant) internal pure returns (string memory) {\n        if (faceVariant == FaceVariants.BUBBLEGUM) {\n            // bubblegum\n            return\n                '<path class=\"faceFillColor\" fill-rule=\"evenodd\" d=\"M94.1 139c.7-.4 1-1.1.8-1.8-1.4-3.7-4.5-6.2-8-6.2-5 0-8.9 4.7-8.9 10.4s4 10.4 8.8 10.4c3.5 0 6.5-2.4 8-5.8.3-.7-.1-1.5-.8-1.8l-3.6-1.5c-1-.4-1-1.8 0-2.2l3.7-1.6Zm20.8 2.4c0-5.7 4-10.4 8.8-10.4 3.7 0 7 2.7 8.2 6.5.3.7-.1 1.4-.8 1.7l-3 1.3c-1 .4-1 1.8 0 2.2l2.9 1.2c.7.3 1 1 .8 1.8-1.4 3.6-4.5 6.1-8 6.1-5 0-8.9-4.7-8.9-10.4Z\" clip-rule=\"evenodd\"/><path class=\"faceFillColor\" fill-opacity=\".12\" d=\"M74.7 154.2a1.5 1.5 0 1 1-2.5-1.5 1.5 1.5 0 0 1 2.5 1.5Zm5.1 3a1.5 1.5 0 1 1-2.5-1.5 1.5 1.5 0 0 1 2.5 1.4Zm-4.5 1.9a1.5 1.5 0 1 1-2.5-1.5 1.5 1.5 0 0 1 2.5 1.5Zm55.4-3.4a1.5 1.5 0 1 1-2.5 1.4 1.5 1.5 0 0 1 2.5-1.4Zm5.1-3a1.5 1.5 0 1 1-2.5 1.5 1.5 1.5 0 0 1 2.5-1.5Zm-.6 4.9a1.5 1.5 0 1 1-2.5 1.5 1.5 1.5 0 0 1 2.5-1.5Z\"/><circle cx=\"105\" cy=\"161.581\" r=\"3.466\" class=\"faceFillColor\"/><path class=\"faceStrokeColor\" stroke-linecap=\"round\" stroke-width=\"2.5\" d=\"M99 166s1.7 3.2 6 3.2 6-3.2 6-3.2m0-8.8s-1.7-3.2-6-3.2-6 3.2-6 3.2\"/><path fill=\"#FFCFEC\" fill-opacity=\".8\" class=\"faceStrokeColor\" stroke-width=\"2.75\" d=\"M94.3 144.7A32 32 0 0 0 34.5 161 32 32 0 0 0 94 178l2.3-3.8a310 310 0 0 1 4-6.6l3-4a3.4 3.4 0 0 0 0-4l-2.2-3.2a51 51 0 0 1-3.4-5.7l-.9-1.7c-.8-1.4-1.5-2.9-2.4-4.3Z\"/><circle cx=\"-1.289\" cy=\"11.289\" r=\"3.289\" fill=\"#fff\" fill-opacity=\".45\" transform=\"scale(-1 1) rotate(5 -1761 -904)\"/><path fill=\"#fff\" fill-opacity=\".45\" d=\"M87.3 150.8a4 4 0 0 1-7.4 3.4 14.7 14.7 0 0 0-7.3-8l-1.4-.8A2.5 2.5 0 0 1 70 142l.1-.3c.6-1.1 0-2.6-1.3-2.8-1.5-.2-2.8-.3-4.1-.2a1.5 1.5 0 0 1-.4-2.9 19.4 19.4 0 0 1 13.7 4c1 .5 1.8 1.2 2.8 2 2 1.8 3.7 4 4.7 5.7a34.4 34.4 0 0 1 1.6 3v.1h.1v.1\"/></svg>';\n        } else if (faceVariant == FaceVariants.GRIN_TONGUE) {\n            // grin-tongue\n            return\n                '<path class=\"faceFillColor\" fill-opacity=\".12\" d=\"M74.7 154.2a1.5 1.5 0 1 1-2.5-1.5 1.5 1.5 0 0 1 2.5 1.5Zm5.1 3a1.5 1.5 0 1 1-2.5-1.5 1.5 1.5 0 0 1 2.5 1.4Zm-4.5 1.9a1.5 1.5 0 1 1-2.5-1.5 1.5 1.5 0 0 1 2.5 1.5Zm55.4-3.4a1.5 1.5 0 1 1-2.5 1.4 1.5 1.5 0 0 1 2.5-1.4Zm5.1-3a1.5 1.5 0 1 1-2.5 1.5 1.5 1.5 0 0 1 2.5-1.5Zm-.6 4.9a1.5 1.5 0 1 1-2.5 1.5 1.5 1.5 0 0 1 2.5-1.5Z\"/><path class=\"faceStrokeColor\" stroke-linecap=\"round\" stroke-width=\"3.5\" d=\"M130.8 145.9s-2.1-4.2-7.4-4.5a8.8 8.8 0 0 0-7.8 3.7m-36.4.8s2.1-4.2 7.4-4.5a8.8 8.8 0 0 1 7.8 3.7\"/><path class=\"faceFillColor\" d=\"M105 172c-15 0-20.6-8-18.6-13.6 1.4-4.1 6-6.4 10.4-5a35 35 0 0 0 8.2 1.6c2.3 0 6.3-1 8.2-1.6 4.3-1.4 9 .9 10.4 5 2 5.5-3.6 13.6-18.6 13.6Z\"/><path class=\"faceStrokeColor\" fill=\"#FFDFE7\" stroke-width=\"2.75\" d=\"M98.7 161.4h1.3l1.7.4 1 .3.8.2 1.5.2 1.5-.2.9-.2.9-.3a21.3 21.3 0 0 1 1.8-.3l1.2-.1c2.2.3 3.6 1.3 4.4 2.6a8 8 0 0 1 .7 5.2 11.1 11.1 0 0 1-11.4 9.4 11.1 11.1 0 0 1-11.4-9.4c-.4-2-.1-3.8.7-5.2.8-1.3 2.2-2.3 4.4-2.6Z\"/><path fill=\"#F5C8D4\" d=\"M106 163.8v7a1 1 0 0 1-2 0v-7l1 .2 1-.2Z\"/></svg>';\n        } else if (faceVariant == FaceVariants.GRIN) {\n            // grin\n            return\n                '<path class=\"faceFillColor\" fill-opacity=\".12\" d=\"M74.7 154.2a1.5 1.5 0 1 1-2.5-1.5 1.5 1.5 0 0 1 2.5 1.5Zm5.1 3a1.5 1.5 0 1 1-2.5-1.5 1.5 1.5 0 0 1 2.5 1.4Zm-4.5 1.9a1.5 1.5 0 1 1-2.5-1.5 1.5 1.5 0 0 1 2.5 1.5Zm55.4-3.4a1.5 1.5 0 1 1-2.5 1.4 1.5 1.5 0 0 1 2.5-1.4Zm5.1-3a1.5 1.5 0 1 1-2.5 1.5 1.5 1.5 0 0 1 2.5-1.5Zm-.6 4.9a1.5 1.5 0 1 1-2.5 1.5 1.5 1.5 0 0 1 2.5-1.5Z\"/><path class=\"faceStrokeColor\" stroke-linecap=\"round\" stroke-width=\"3\" d=\"M91 159s4.3 6 14 6 14-6 14-6\"/><path class=\"faceStrokeColor\" stroke-linecap=\"round\" stroke-linejoin=\"round\" stroke-width=\"2.5\" d=\"M89 159c.8-.4 1.5-1 2-2m30 2c-.8-.4-1.5-1-2-2\"/><path class=\"faceStrokeColor\" stroke-linecap=\"round\" stroke-width=\"3.5\" d=\"M130.8 145.9s-2.1-4.2-7.4-4.5a8.8 8.8 0 0 0-7.8 3.7m-36.4.8s2.1-4.2 7.4-4.5a8.8 8.8 0 0 1 7.8 3.7\"/></svg>';\n        } else if (faceVariant == FaceVariants.LAUGH) {\n            // laugh\n            return\n                '<path class=\"faceStrokeColor\" stroke-linecap=\"round\" stroke-width=\"3.5\" d=\"M130.8 143.9s-2.1-4.2-7.4-4.5a8.8 8.8 0 0 0-7.8 3.7m-36.4.8s2.1-4.2 7.4-4.5a8.8 8.8 0 0 1 7.8 3.7\"/><path class=\"faceFillColor\" d=\"M91 157.3c0-4.3 2-6 14-6s14 1.7 14 6-6.3 9.5-14 9.5-14-5.2-14-9.5Z\"/><ellipse cx=\"105\" cy=\"161.607\" fill=\"#FFDFE7\" rx=\"11.15\" ry=\"3.626\"/><path class=\"faceStrokeColor\" stroke-linecap=\"round\" stroke-linejoin=\"round\" stroke-width=\"3.176\" d=\"M91 157c0-4.3 0-6 14-6s14 1.7 14 6c0 5.2-6.3 9.4-14 9.4s-14-4.2-14-9.4Z\"/><path fill=\"#E3F7FF\" d=\"M70.2 149.5c-2.5 1.1-5.6 1.3-7.6 3.3a5.5 5.5 0 1 0 7.8 7.8c2-2 2.2-5 3.3-7.6l1.4-3.3c.4-1-.6-2-1.6-1.6l-3.3 1.4Z\"/><path class=\"faceStrokeColor\" stroke-opacity=\".1\" stroke-width=\"2.5\" d=\"M61.7 151.9a6.8 6.8 0 1 0 9.6 9.6 10 10 0 0 0 2.3-4.1l.4-1.5.8-2.4 1.5-3.3c.8-2-1.2-4.1-3.3-3.2l-3.3 1.4-2.4.8-1.5.4a9.5 9.5 0 0 0-4 2.3Z\"/><path fill=\"#E3F7FF\" d=\"M139.8 149.5c2.5 1.1 5.6 1.3 7.6 3.3a5.5 5.5 0 1 1-7.8 7.8c-2-2-2.2-5-3.3-7.6l-1.4-3.3c-.4-1 .6-2 1.6-1.6l3.3 1.4Z\"/><path class=\"faceStrokeColor\" stroke-opacity=\".1\" stroke-width=\"2.5\" d=\"M148.3 151.9a6.8 6.8 0 0 1-9.6 9.6 10 10 0 0 1-2.3-4.1 50.4 50.4 0 0 1-.4-1.5l-.8-2.4-1.5-3.3c-.8-2 1.2-4.1 3.3-3.2l3.3 1.4 2.4.8 1.5.4c1.4.5 2.9 1.1 4 2.3Z\"/></svg>';\n        } else if (faceVariant == FaceVariants.LOVE) {\n            // love\n            return\n                '<path class=\"faceFillColor\" d=\"M91 160.3c0-4.3 2-6 14-6s14 1.7 14 6-6.3 9.5-14 9.5-14-5.2-14-9.5Z\"/><ellipse cx=\"105\" cy=\"164.607\" fill=\"#FFDFE7\" rx=\"11.15\" ry=\"3.626\"/><path class=\"faceStrokeColor\" stroke-linecap=\"round\" stroke-linejoin=\"round\" stroke-width=\"3.176\" d=\"M91 160c0-4.3 0-6 14-6s14 1.7 14 6c0 5.2-6.3 9.4-14 9.4s-14-4.2-14-9.4Z\"/><path class=\"faceStrokeColor\" fill=\"#FF88A5\" stroke-width=\"3\" d=\"M94.2 130.8a7.7 7.7 0 0 0-2.7-1.3 7.6 7.6 0 0 0-5.8.7 7.7 7.7 0 0 0-2.2 1.9 7.7 7.7 0 0 0-2.7-1.3 7.6 7.6 0 0 0-3-.2 7.6 7.6 0 0 0-2.7.9 7.7 7.7 0 0 0-2.3 2 7.6 7.6 0 0 0-1 1.7 7.2 7.2 0 0 0-.5 1.9 7.3 7.3 0 0 0 1.4 5.5A7.3 7.3 0 0 0 74 144l9.3 7.1a3.5 3.5 0 0 0 4.9-.6l7.2-9.2a7.2 7.2 0 0 0 1.6-5.6 7.4 7.4 0 0 0-.5-1.8 7.8 7.8 0 0 0-1-1.7 7.3 7.3 0 0 0-1.4-1.5Zm43.3 2.6a7.6 7.6 0 0 0-5.1-2.8 7.6 7.6 0 0 0-3 .2 7.7 7.7 0 0 0-2.6 1.3 7.7 7.7 0 0 0-2.3-2 7.6 7.6 0 0 0-2.8-.8 7.6 7.6 0 0 0-3 .2 7.7 7.7 0 0 0-2.6 1.3 7.6 7.6 0 0 0-1.5 1.4 7.2 7.2 0 0 0-1 1.8 7.8 7.8 0 0 0-.4 1.9 7.8 7.8 0 0 0 .5 3.8 7.3 7.3 0 0 0 1 1.7l7.3 9.2a3.5 3.5 0 0 0 4.9.6l9.3-7.1a7.6 7.6 0 0 0 1.4-1.5 7.2 7.2 0 0 0 1-1.7 7.8 7.8 0 0 0 .4-1.9 7.4 7.4 0 0 0 0-2 7.8 7.8 0 0 0-.5-1.8 7.3 7.3 0 0 0-1-1.8Z\"/><path class=\"faceFillColor\" fill-opacity=\".12\" d=\"M74.7 154.2a1.5 1.5 0 1 1-2.5-1.5 1.5 1.5 0 0 1 2.5 1.5Zm5.1 3a1.5 1.5 0 1 1-2.5-1.5 1.5 1.5 0 0 1 2.5 1.4Zm-4.5 1.9a1.5 1.5 0 1 1-2.5-1.5 1.5 1.5 0 0 1 2.5 1.5Zm55.4-3.4a1.5 1.5 0 1 1-2.5 1.4 1.5 1.5 0 0 1 2.5-1.4Zm5.1-3a1.5 1.5 0 1 1-2.5 1.5 1.5 1.5 0 0 1 2.5-1.5Zm-.6 4.9a1.5 1.5 0 1 1-2.5 1.5 1.5 1.5 0 0 1 2.5-1.5Z\"/><path fill=\"#E3F7FF\" d=\"M54.9 135.7c1 2.7 3.1 5.1 3.1 8a5.7 5.7 0 0 1-11.3 0c0-2.9 2-5.3 3.1-8l1.4-3.4c.4-1 1.9-1 2.3 0l1.4 3.4Z\"/><path class=\"faceStrokeColor\" stroke-opacity=\".1\" stroke-width=\"2.5\" d=\"M52.4 150.6a7 7 0 0 0 6.9-7c0-1.7-.7-3.2-1.3-4.5a51 51 0 0 0-.8-1.5l-1.2-2.3-1.3-3.5a2.5 2.5 0 0 0-4.7 0l-1.3 3.5-1.2 2.3a51 51 0 0 0-.8 1.5c-.6 1.3-1.3 2.8-1.3 4.6a7 7 0 0 0 7 6.9Z\"/></svg>';\n        } else if (faceVariant == FaceVariants.OOPS) {\n            // oops\n            return\n                '<ellipse cx=\"86.917\" cy=\"142.271\" fill=\"#fff\" rx=\"9.917\" ry=\"10.271\"/><ellipse class=\"faceFillColor\" cx=\"86.917\" cy=\"142.272\" rx=\"6.43\" ry=\"6.66\"/><ellipse cx=\"123.083\" cy=\"142.271\" fill=\"#fff\" rx=\"9.917\" ry=\"10.271\"/><ellipse class=\"faceFillColor\" cx=\"123.083\" cy=\"142.272\" rx=\"6.43\" ry=\"6.66\"/><path class=\"faceStrokeColor\" stroke-linecap=\"round\" stroke-linejoin=\"round\" stroke-width=\"3\" d=\"M96 158h18\"/><ellipse cx=\"9\" cy=\"7.271\" fill=\"#fff\" fill-opacity=\".45\" rx=\"9\" ry=\"7.271\" transform=\"matrix(-1 0 0 1 86 149)\"/><ellipse cx=\"9\" cy=\"7.271\" fill=\"#fff\" fill-opacity=\".45\" rx=\"9\" ry=\"7.271\" transform=\"matrix(-1 0 0 1 142 149)\"/></svg>';\n        } else if (faceVariant == FaceVariants.SLEEPY) {\n            // sleepy\n            return\n                '<path class=\"faceFillColor\" fill-opacity=\".12\" d=\"M74.7 154.2a1.5 1.5 0 1 1-2.5-1.5 1.5 1.5 0 0 1 2.5 1.5Zm5.1 3a1.5 1.5 0 1 1-2.5-1.5 1.5 1.5 0 0 1 2.5 1.4Zm-4.5 1.9a1.5 1.5 0 1 1-2.5-1.5 1.5 1.5 0 0 1 2.5 1.5Zm55.4-3.4a1.5 1.5 0 1 1-2.5 1.4 1.5 1.5 0 0 1 2.5-1.4Zm5.1-3a1.5 1.5 0 1 1-2.5 1.5 1.5 1.5 0 0 1 2.5-1.5Zm-.6 4.9a1.5 1.5 0 1 1-2.5 1.5 1.5 1.5 0 0 1 2.5-1.5Z\"/><path class=\"faceFillColor faceStrokeColor\" stroke-width=\".105\" d=\"M126.4 154.4h-6a1.1 1.1 0 0 0 0 2.3h3c.2 0 .3.3.2.4l-4.3 5.2a1.4 1.4 0 0 0 1 2.3h6.6a1.1 1.1 0 0 0 0-2.3h-3.7a.3.3 0 0 1-.2-.4l4.4-5.2a1.4 1.4 0 0 0-1-2.3Z\"/><path class=\"faceFillColor faceStrokeColor\" stroke-width=\".211\" d=\"m134.4 149.2-4.5 1a1 1 0 0 0 .4 1.8l2-.5a.2.2 0 0 1 .3.3l-2.3 4.5a1.1 1.1 0 0 0 1.2 1.6l5-1a1 1 0 0 0-.5-1.9l-2.6.6a.2.2 0 0 1-.2-.3l2.4-4.5a1.1 1.1 0 0 0-1.2-1.6Z\"/><path class=\"faceFillColor faceStrokeColor\" stroke-width=\".316\" d=\"m143 152-3.4.8a.8.8 0 1 0 .3 1.5l1.5-.3.1.1-1.7 3.3a1 1 0 0 0 1 1.4l3.7-.8a.8.8 0 0 0-.3-1.6l-1.9.4a.1.1 0 0 1-.1-.2l1.7-3.2a1 1 0 0 0-1-1.4Z\"/><path class=\"faceStrokeColor\" stroke-linecap=\"round\" stroke-width=\"3.5\" d=\"M130.8 143s-2.3 4-7.6 4-7.6-4-7.6-4M79 143s2.3 4 7.6 4 7.6-4 7.6-4\"/><path class=\"faceFillColor\" d=\"M114 160c0 3-4 4.2-9 4.2s-9-1.2-9-4.1c0-3 4-6.5 9-6.5s9 3.6 9 6.5Z\"/><path fill=\"#fff\" d=\"M98 154.6h14v1.9c0 1.2-1 2.1-2.1 2.1H100a2.1 2.1 0 0 1-2.1-2.1v-1.9Z\"/><path class=\"faceStrokeColor\" stroke-linecap=\"round\" stroke-linejoin=\"round\" stroke-width=\"3.176\" d=\"M114 160c0 3-4 4.2-9 4.2s-9-1.2-9-4.1c0-3 4-6.5 9-6.5s9 3.6 9 6.5Z\"/></svg>';\n        } else if (faceVariant == FaceVariants.SMILE_TEETH) {\n            // smile-teeth\n            return\n                '<path class=\"faceStrokeColor\" stroke-linecap=\"round\" stroke-width=\"3.5\" d=\"M77.2 142s2.5-4.2 8.4-4.5c6-.4 8.9 3.5 8.9 3.5m38.3 1s-2.5-4.2-8.4-4.5c-6-.4-8.9 3.5-8.9 3.5\"/><ellipse cx=\"9\" cy=\"7.271\" fill=\"#fff\" fill-opacity=\".45\" rx=\"9\" ry=\"7.271\" transform=\"matrix(-1 0 0 1 80 145)\"/><ellipse cx=\"9\" cy=\"7.271\" fill=\"#fff\" fill-opacity=\".45\" rx=\"9\" ry=\"7.271\" transform=\"matrix(-1 0 0 1 148 145)\"/><path fill=\"#fff\" d=\"M105.2 150.4c-2.6 0-5.9-1.3-8.6-1.4-2.7 0-5.6.3-7.8 1.5-3.8 2-5.5 6-4.5 9.6.9 3.6 4.1 6.6 8 8.4 4 1.8 8 2.5 12.6 2.5\"/><path fill=\"#fff\" d=\"M105.2 150.4c2.8 0 5.5-1.3 8.2-1.4 2.7-.1 5.6.3 7.8 1.5 3.8 2 5.5 6 4.5 9.6-.9 3.6-4.1 6.6-8 8.4a31 31 0 0 1-12.8 2.5\"/><path class=\"faceFillColor\" d=\"M86.7 154.3a2 2 0 0 0-.4 1l.3.9c.2.3.3.7.3 1 0 .4-.1 1-.3 1.3l-.6 1c-.1.4-.2.8 0 1-.5-.3-.7-.9-.8-1.4-.2-.5-.3-1-.3-1.6 0-.6.1-1.2.4-1.8.4-.5.7-1.2 1.4-1.4Zm36.6 0c.1.2.4.6.4 1l-.3.9a2 2 0 0 0-.3 1c0 .4.1 1 .3 1.3l.6 1v1c.5-.3.7-.9.8-1.4.2-.5.3-1 .3-1.6a4 4 0 0 0-.5-1.8c-.3-.5-.6-1.2-1.3-1.4Z\"/><path class=\"faceStrokeColor\" stroke-linecap=\"round\" stroke-linejoin=\"round\" stroke-width=\"3\" d=\"M105.2 150.4c-2.6 0-5.9-1.3-8.6-1.4-2.7 0-5.6.3-7.8 1.5-3.8 2-5.5 6-4.5 9.6.9 3.6 4.1 6.6 8 8.4 4 1.8 8 2.5 12.6 2.5\"/><path class=\"faceStrokeColor\" stroke-linecap=\"round\" stroke-linejoin=\"round\" stroke-width=\"3\" d=\"M105.2 150.4c2.8 0 5.5-1.3 8.2-1.4 2.7-.1 5.6.3 7.8 1.5 3.8 2 5.5 6 4.5 9.6-.9 3.6-4.1 6.6-8 8.4a31 31 0 0 1-12.8 2.5\"/><path class=\"faceStrokeColor\" stroke-linecap=\"round\" stroke-width=\"2\" d=\"m93 159 3 1 2.4.3a2 2 0 0 0 1.9-1l.1-.4c.3-.4.9-.3 1 .1l.4 2.8c.1.5.8.5.9 0v0a1.8 1.8 0 0 1 1.7-1.2h4.7\"/></svg>';\n        } else if (faceVariant == FaceVariants.SMILE) {\n            // smile\n            return\n                '<path class=\"faceStrokeColor\" stroke-linecap=\"round\" stroke-width=\"3\" d=\"M91 159s4.3 6 14 6 14-6 14-6\"/><path class=\"faceStrokeColor\" stroke-linecap=\"round\" stroke-linejoin=\"round\" stroke-width=\"2.5\" d=\"M89 159c.8-.4 1.5-1 2-2m30 2c-.8-.4-1.5-1-2-2\"/><path class=\"faceFillColor\" fill-rule=\"evenodd\" d=\"M94.1 139c.7-.4 1-1.1.8-1.8-1.4-3.7-4.5-6.2-8-6.2-5 0-8.9 4.7-8.9 10.4s4 10.4 8.8 10.4c3.5 0 6.5-2.4 8-5.8.3-.7-.1-1.5-.8-1.8l-3.6-1.5c-1-.4-1-1.8 0-2.2l3.7-1.6Zm20.8 2.4c0-5.7 4-10.4 8.8-10.4 3.7 0 7 2.7 8.2 6.5.3.7-.1 1.4-.8 1.7l-3 1.3c-1 .4-1 1.8 0 2.2l2.9 1.2c.7.3 1 1 .8 1.8-1.4 3.6-4.5 6.1-8 6.1-5 0-8.9-4.7-8.9-10.4Z\" clip-rule=\"evenodd\"/><path class=\"faceFillColor\" fill-opacity=\".12\" d=\"M74.7 154.2a1.5 1.5 0 1 1-2.5-1.5 1.5 1.5 0 0 1 2.5 1.5Zm5.1 3a1.5 1.5 0 1 1-2.5-1.5 1.5 1.5 0 0 1 2.5 1.4Zm-4.5 1.9a1.5 1.5 0 1 1-2.5-1.5 1.5 1.5 0 0 1 2.5 1.5Zm55.4-3.4a1.5 1.5 0 1 1-2.5 1.4 1.5 1.5 0 0 1 2.5-1.4Zm5.1-3a1.5 1.5 0 1 1-2.5 1.5 1.5 1.5 0 0 1 2.5-1.5Zm-.6 4.9a1.5 1.5 0 1 1-2.5 1.5 1.5 1.5 0 0 1 2.5-1.5Z\"/></svg>';\n        } else if (faceVariant == FaceVariants.SMIRK) {\n            // smirk\n            return\n                '<path class=\"faceFillColor\" fill-opacity=\".12\" d=\"M74.7 154.2a1.5 1.5 0 1 1-2.5-1.5 1.5 1.5 0 0 1 2.5 1.5Zm5.1 3a1.5 1.5 0 1 1-2.5-1.5 1.5 1.5 0 0 1 2.5 1.4Zm-4.5 1.9a1.5 1.5 0 1 1-2.5-1.5 1.5 1.5 0 0 1 2.5 1.5Zm55.4-3.4a1.5 1.5 0 1 1-2.5 1.4 1.5 1.5 0 0 1 2.5-1.4Zm5.1-3a1.5 1.5 0 1 1-2.5 1.5 1.5 1.5 0 0 1 2.5-1.5Zm-.6 4.9a1.5 1.5 0 1 1-2.5 1.5 1.5 1.5 0 0 1 2.5-1.5Z\"/><path fill=\"#fff\" d=\"M73.9 139.8a11.7 11.7 0 0 0 0 1.1c0 5.6 4 11.2 10.2 11.2 6.3 0 10.4-5.6 10.4-11.2v-1.1H73.8Z\"/><path class=\"faceStrokeColor\" stroke-linecap=\"round\" stroke-linejoin=\"round\" stroke-width=\"3.5\" d=\"M73 140.7s4.7-.9 11.1-.9c6.4 0 11.2.9 11.2.9\"/><path class=\"faceFillColor\" d=\"M77.7 139.5a9.8 9.8 0 0 0 0 .8c0 4 2.5 8.1 6.4 8.1 4 0 6.5-4 6.5-8v-1h-13Z\"/><path fill=\"#fff\" d=\"M135.8 139.8v1.1c0 5.6-4 11.2-10.3 11.2-6.2 0-10.3-5.6-10.3-11.2v-1.1h20.6Z\"/><path class=\"faceStrokeColor\" stroke-linecap=\"round\" stroke-linejoin=\"round\" stroke-width=\"3.5\" d=\"M136.6 140.7s-4.7-.9-11-.9c-6.5 0-11.2.9-11.2.9\"/><path class=\"faceFillColor\" d=\"M132 139.5v.8c0 4-2.6 8.1-6.5 8.1s-6.4-4-6.4-8v-1H132Z\"/><path class=\"faceStrokeColor\" stroke-linecap=\"round\" stroke-linejoin=\"round\" stroke-width=\"3.156\" d=\"M90 160a31.3 31.3 0 0 0 20 2.4\"/></svg>';\n        } else if (faceVariant == FaceVariants.TONGUE) {\n            // tongue\n            return\n                '<path class=\"faceFillColor\" fill-opacity=\".12\" d=\"M74.7 154.2a1.5 1.5 0 1 1-2.5-1.5 1.5 1.5 0 0 1 2.5 1.5Zm5.1 3a1.5 1.5 0 1 1-2.5-1.5 1.5 1.5 0 0 1 2.5 1.4Zm-4.5 1.9a1.5 1.5 0 1 1-2.5-1.5 1.5 1.5 0 0 1 2.5 1.5Zm55.4-3.4a1.5 1.5 0 1 1-2.5 1.4 1.5 1.5 0 0 1 2.5-1.4Zm5.1-3a1.5 1.5 0 1 1-2.5 1.5 1.5 1.5 0 0 1 2.5-1.5Zm-.6 4.9a1.5 1.5 0 1 1-2.5 1.5 1.5 1.5 0 0 1 2.5-1.5Z\"/><path class=\"faceFillColor\" fill-rule=\"evenodd\" d=\"M94.1 139c.7-.4 1-1.1.8-1.8-1.4-3.7-4.5-6.2-8-6.2-5 0-8.9 4.7-8.9 10.4s4 10.4 8.8 10.4c3.5 0 6.5-2.4 8-5.8.3-.7-.1-1.5-.8-1.8l-3.6-1.5c-1-.4-1-1.8 0-2.2l3.7-1.6Zm20.8 2.4c0-5.7 4-10.4 8.8-10.4 3.7 0 7 2.7 8.2 6.5.3.7-.1 1.4-.8 1.7l-3 1.3c-1 .4-1 1.8 0 2.2l2.9 1.2c.7.3 1 1 .8 1.8-1.4 3.6-4.5 6.1-8 6.1-5 0-8.9-4.7-8.9-10.4Z\" clip-rule=\"evenodd\"/><path class=\"faceFillColor\" d=\"M105 172c-15 0-20.6-8-18.6-13.6 1.4-4.1 6-6.4 10.4-5a35 35 0 0 0 8.2 1.6c2.3 0 6.3-1 8.2-1.6 4.3-1.4 9 .9 10.4 5 2 5.5-3.6 13.6-18.6 13.6Z\"/><path class=\"faceStrokeColor\" fill=\"#FFDFE7\" stroke-width=\"2.75\" d=\"M98.7 161.4h1.3l1.7.4 1 .3.8.2 1.5.2 1.5-.2.9-.2.9-.3a21.3 21.3 0 0 1 1.8-.3l1.2-.1c2.2.3 3.6 1.3 4.4 2.6a8 8 0 0 1 .7 5.2 11.1 11.1 0 0 1-11.4 9.4 11.1 11.1 0 0 1-11.4-9.4c-.4-2-.1-3.8.7-5.2.8-1.3 2.2-2.3 4.4-2.6Z\"/><path fill=\"#F5C8D4\" d=\"M106 163.8v7a1 1 0 0 1-2 0v-7l1 .2 1-.2Z\"/></svg>';\n        } else if (faceVariant == FaceVariants.WINK) {\n            // wink\n            return\n                '<path class=\"faceStrokeColor\" stroke-linecap=\"round\" stroke-width=\"3\" d=\"M91 159s4.3 6 14 6 14-6 14-6\"/><path class=\"faceStrokeColor\" stroke-linecap=\"round\" stroke-linejoin=\"round\" stroke-width=\"2.5\" d=\"M89 159c.8-.4 1.5-1 2-2m30 2c-.8-.4-1.5-1-2-2\"/><path class=\"faceFillColor\" fill-opacity=\".12\" d=\"M74.7 154.2a1.5 1.5 0 1 1-2.5-1.5 1.5 1.5 0 0 1 2.5 1.5Zm5.1 3a1.5 1.5 0 1 1-2.5-1.5 1.5 1.5 0 0 1 2.5 1.4Zm-4.5 1.9a1.5 1.5 0 1 1-2.5-1.5 1.5 1.5 0 0 1 2.5 1.5Zm55.4-3.4a1.5 1.5 0 1 1-2.5 1.4 1.5 1.5 0 0 1 2.5-1.4Zm5.1-3a1.5 1.5 0 1 1-2.5 1.5 1.5 1.5 0 0 1 2.5-1.5Zm-.6 4.9a1.5 1.5 0 1 1-2.5 1.5 1.5 1.5 0 0 1 2.5-1.5Z\"/><path class=\"faceFillColor\" fill-rule=\"evenodd\" d=\"M94.1 139c.7-.4 1-1.1.8-1.8-1.4-3.7-4.5-6.2-8-6.2-5 0-8.9 4.7-8.9 10.4s4 10.4 8.8 10.4c3.5 0 6.5-2.4 8-5.8.3-.7-.1-1.5-.8-1.8l-3.6-1.5c-1-.4-1-1.8 0-2.2l3.7-1.6Z\" clip-rule=\"evenodd\"/><path class=\"faceStrokeColor\" stroke-linecap=\"round\" stroke-width=\"4\" d=\"M130 142.4s-2-2-6.5-2-6.5 2-6.5 2\"/><path class=\"faceStrokeColor\" stroke-linecap=\"round\" stroke-width=\"4\" d=\"M128.8 136.5s-2.7-1-6.7 1-5 4.6-5 4.6\"/></svg>';\n        } else {\n            return Face2.getFaceVariant(faceVariant);\n        }\n    }\n\n    function _getStyleTag(FaceColors faceColor, Skin.SkinColors skinColor) internal pure returns (string memory) {\n        return\n            string.concat(\n                '<style>.faceStrokeColor{stroke:',\n                faceColor == FaceColors.GOLD ? EduxColors.darkGold : EduxColors.black,\n                '} .faceFillColor{fill:',\n                faceColor == FaceColors.GOLD ? EduxColors.darkGold : EduxColors.black,\n                '} .skinColorBase{fill:',\n                _getBaseColor(skinColor),\n                '} .skinColorLight{fill:',\n                _getLightColor(skinColor),\n                '} .skinColorDark{fill:',\n                _getDarkColor(skinColor),\n                '} .mouthOverlay{fill:',\n                faceColor == FaceColors.GOLD ? EduxColors.darkGold : EduxColors.black,\n                '}</style>'\n            );\n    }\n\n    function _getBaseColor(Skin.SkinColors color) internal pure returns (string memory) {\n        if (color == Skin.SkinColors.GREEN) {\n            return EduxColors.baseGreen;\n        } else if (color == Skin.SkinColors.PINK) {\n            return EduxColors.basePink;\n        } else if (color == Skin.SkinColors.PURPLE) {\n            return EduxColors.basePurple;\n        } else if (color == Skin.SkinColors.BLUE) {\n            return EduxColors.baseBlue;\n        } else if (color == Skin.SkinColors.GOLD) {\n            return EduxColors.baseGold;\n        } else {\n            revert(); // Avoid warnings.\n        }\n    }\n\n    function _getLightColor(Skin.SkinColors color) internal pure returns (string memory) {\n        if (color == Skin.SkinColors.GREEN) {\n            return EduxColors.lightGreen;\n        } else if (color == Skin.SkinColors.PINK) {\n            return EduxColors.lightPink;\n        } else if (color == Skin.SkinColors.PURPLE) {\n            return EduxColors.lightPurple;\n        } else if (color == Skin.SkinColors.BLUE) {\n            return EduxColors.lightBlue;\n        } else if (color == Skin.SkinColors.GOLD) {\n            return EduxColors.lightGold;\n        } else {\n            revert(); // Avoid warnings.\n        }\n    }\n\n    function _getDarkColor(Skin.SkinColors color) internal pure returns (string memory) {\n        if (color == Skin.SkinColors.GREEN) {\n            return EduxColors.darkGreen;\n        } else if (color == Skin.SkinColors.PINK) {\n            return EduxColors.darkPink;\n        } else if (color == Skin.SkinColors.PURPLE) {\n            return EduxColors.darkPurple;\n        } else if (color == Skin.SkinColors.BLUE) {\n            return EduxColors.darkBlue;\n        } else if (color == Skin.SkinColors.GOLD) {\n            return EduxColors.darkGold;\n        } else {\n            revert(); // Avoid warnings.\n        }\n    }\n}\n\nlibrary Face2 {\n    function getFaceVariant(Face.FaceVariants faceVariant) external pure returns (string memory) {\n        if (faceVariant == Face.FaceVariants.WOW_TONGUE) {\n            // wow-tongue\n            return\n                '<path class=\"faceFillColor\" fill-opacity=\".12\" d=\"M74.7 154.2a1.5 1.5 0 1 1-2.5-1.5 1.5 1.5 0 0 1 2.5 1.5Zm5.1 3a1.5 1.5 0 1 1-2.5-1.5 1.5 1.5 0 0 1 2.5 1.4Zm-4.5 1.9a1.5 1.5 0 1 1-2.5-1.5 1.5 1.5 0 0 1 2.5 1.5Zm55.4-3.4a1.5 1.5 0 1 1-2.5 1.4 1.5 1.5 0 0 1 2.5-1.4Zm5.1-3a1.5 1.5 0 1 1-2.5 1.5 1.5 1.5 0 0 1 2.5-1.5Zm-.6 4.9a1.5 1.5 0 1 1-2.5 1.5 1.5 1.5 0 0 1 2.5-1.5Z\"/><ellipse class=\"faceFillColor\" cx=\"86.825\" cy=\"140.298\" rx=\"9.825\" ry=\"11.298\"/><path fill=\"#fff\" fill-rule=\"evenodd\" d=\"M88.9 133.3a.6.6 0 0 1 1.1 0l1.2 2.7a.6.6 0 0 0 .3.4l1.4.6a.6.6 0 0 1 0 1.2l-1.4.7a.6.6 0 0 0-.3.3L90 142a.6.6 0 0 1-1.1 0l-1.2-2.7a.6.6 0 0 0-.3-.3l-1.4-.7a.6.6 0 0 1 0-1.2l1.4-.6a.6.6 0 0 0 .3-.4l1.2-2.7ZM84 141a.4.4 0 0 1 .7 0l.7 1.8a.4.4 0 0 0 .2.2l1 .4c.3.2.3.6 0 .8l-1 .4a.4.4 0 0 0-.2.2l-.7 1.8a.4.4 0 0 1-.7 0l-.8-1.8a.4.4 0 0 0-.2-.2l-1-.4a.4.4 0 0 1 0-.8l1-.4a.4.4 0 0 0 .2-.2l.8-1.8Zm-3.3-4.8a.4.4 0 0 1 .8 0l.2.6.2.3h.2a.4.4 0 0 1 0 .8H82a.4.4 0 0 0-.2.3l-.2.6a.4.4 0 0 1-.8 0l-.2-.6a.4.4 0 0 0-.2-.2l-.2-.1a.4.4 0 0 1 0-.8h.2a.4.4 0 0 0 .2-.3l.2-.6Z\" clip-rule=\"evenodd\"/><ellipse class=\"faceFillColor\" cx=\"9.825\" cy=\"11.298\" rx=\"9.825\" ry=\"11.298\" transform=\"matrix(-1 0 0 1 133 129)\"/><path fill=\"#fff\" fill-rule=\"evenodd\" d=\"M121.1 133.3a.6.6 0 0 0-1.1 0l-1.2 2.7a.6.6 0 0 1-.3.4l-1.4.6a.6.6 0 0 0 0 1.2l1.4.7a.6.6 0 0 1 .3.3l1.2 2.7a.6.6 0 0 0 1.1 0l1.2-2.7a.6.6 0 0 1 .3-.3l1.4-.7a.6.6 0 0 0 0-1.2l-1.4-.6a.6.6 0 0 1-.3-.4l-1.2-2.7Zm4.8 7.6a.4.4 0 0 0-.7 0l-.7 1.8a.4.4 0 0 1-.2.2l-1 .4a.4.4 0 0 0 0 .8l1 .4a.4.4 0 0 1 .2.2l.7 1.8c.1.3.6.3.7 0l.8-1.8a.4.4 0 0 1 .2-.2l1-.4a.4.4 0 0 0 0-.8l-1-.4a.4.4 0 0 1-.2-.2l-.8-1.8Zm3.3-4.8a.4.4 0 0 0-.8 0l-.2.6a.4.4 0 0 1-.2.3h-.2a.4.4 0 0 0 0 .8h.2a.4.4 0 0 1 .2.3l.2.6c.2.3.6.3.8 0l.2-.6a.4.4 0 0 1 .2-.2l.2-.1a.4.4 0 0 0 0-.8h-.2a.4.4 0 0 1-.2-.3l-.2-.6Z\" clip-rule=\"evenodd\"/><path class=\"faceFillColor\" d=\"M105 172c-15 0-20.6-8-18.6-13.6 1.4-4.1 6-6.4 10.4-5a35 35 0 0 0 8.2 1.6c2.3 0 6.3-1 8.2-1.6 4.3-1.4 9 .9 10.4 5 2 5.5-3.6 13.6-18.6 13.6Z\"/><path class=\"faceStrokeColor\" fill=\"#FFDFE7\" stroke-width=\"2.75\" d=\"M98.7 161.4h1.3l1.7.4 1 .3.8.2 1.5.2 1.5-.2.9-.2.9-.3a21.3 21.3 0 0 1 1.8-.3l1.2-.1c2.2.3 3.6 1.3 4.4 2.6a8 8 0 0 1 .7 5.2 11.1 11.1 0 0 1-11.4 9.4 11.1 11.1 0 0 1-11.4-9.4c-.4-2-.1-3.8.7-5.2.8-1.3 2.2-2.3 4.4-2.6Z\"/><path fill=\"#F5C8D4\" d=\"M106 163.8v7a1 1 0 0 1-2 0v-7l1 .2 1-.2Z\"/></svg>';\n        } else if (faceVariant == Face.FaceVariants.WOW) {\n            // wow\n            return\n                '<path class=\"faceFillColor\" fill-opacity=\".12\" d=\"M74.7 154.2a1.5 1.5 0 1 1-2.5-1.5 1.5 1.5 0 0 1 2.5 1.5Zm5.1 3a1.5 1.5 0 1 1-2.5-1.5 1.5 1.5 0 0 1 2.5 1.4Zm-4.5 1.9a1.5 1.5 0 1 1-2.5-1.5 1.5 1.5 0 0 1 2.5 1.5Zm55.4-3.4a1.5 1.5 0 1 1-2.5 1.4 1.5 1.5 0 0 1 2.5-1.4Zm5.1-3a1.5 1.5 0 1 1-2.5 1.5 1.5 1.5 0 0 1 2.5-1.5Zm-.6 4.9a1.5 1.5 0 1 1-2.5 1.5 1.5 1.5 0 0 1 2.5-1.5Z\"/><ellipse class=\"faceFillColor\" cx=\"86.825\" cy=\"140.298\" rx=\"9.825\" ry=\"11.298\"/><path fill=\"#fff\" fill-rule=\"evenodd\" d=\"M88.9 133.3a.6.6 0 0 1 1.1 0l1.2 2.7a.6.6 0 0 0 .3.4l1.4.6a.6.6 0 0 1 0 1.2l-1.4.7a.6.6 0 0 0-.3.3L90 142a.6.6 0 0 1-1.1 0l-1.2-2.7a.6.6 0 0 0-.3-.3l-1.4-.7a.6.6 0 0 1 0-1.2l1.4-.6a.6.6 0 0 0 .3-.4l1.2-2.7ZM84 141a.4.4 0 0 1 .7 0l.7 1.8a.4.4 0 0 0 .2.2l1 .4c.3.2.3.6 0 .8l-1 .4a.4.4 0 0 0-.2.2l-.7 1.8a.4.4 0 0 1-.7 0l-.8-1.8a.4.4 0 0 0-.2-.2l-1-.4a.4.4 0 0 1 0-.8l1-.4a.4.4 0 0 0 .2-.2l.8-1.8Zm-3.3-4.8a.4.4 0 0 1 .8 0l.2.6.2.3h.2a.4.4 0 0 1 0 .8H82a.4.4 0 0 0-.2.3l-.2.6a.4.4 0 0 1-.8 0l-.2-.6a.4.4 0 0 0-.2-.2l-.2-.1a.4.4 0 0 1 0-.8h.2a.4.4 0 0 0 .2-.3l.2-.6Z\" clip-rule=\"evenodd\"/><ellipse class=\"faceFillColor\" cx=\"9.825\" cy=\"11.298\" rx=\"9.825\" ry=\"11.298\" transform=\"matrix(-1 0 0 1 133 129)\"/><path fill=\"#fff\" fill-rule=\"evenodd\" d=\"M121.1 133.3a.6.6 0 0 0-1.1 0l-1.2 2.7a.6.6 0 0 1-.3.4l-1.4.6a.6.6 0 0 0 0 1.2l1.4.7a.6.6 0 0 1 .3.3l1.2 2.7a.6.6 0 0 0 1.1 0l1.2-2.7a.6.6 0 0 1 .3-.3l1.4-.7a.6.6 0 0 0 0-1.2l-1.4-.6a.6.6 0 0 1-.3-.4l-1.2-2.7Zm4.8 7.6a.4.4 0 0 0-.7 0l-.7 1.8a.4.4 0 0 1-.2.2l-1 .4a.4.4 0 0 0 0 .8l1 .4a.4.4 0 0 1 .2.2l.7 1.8c.1.3.6.3.7 0l.8-1.8a.4.4 0 0 1 .2-.2l1-.4a.4.4 0 0 0 0-.8l-1-.4a.4.4 0 0 1-.2-.2l-.8-1.8Zm3.3-4.8a.4.4 0 0 0-.8 0l-.2.6a.4.4 0 0 1-.2.3h-.2a.4.4 0 0 0 0 .8h.2a.4.4 0 0 1 .2.3l.2.6c.2.3.6.3.8 0l.2-.6a.4.4 0 0 1 .2-.2l.2-.1a.4.4 0 0 0 0-.8h-.2a.4.4 0 0 1-.2-.3l-.2-.6Z\" clip-rule=\"evenodd\"/><path class=\"faceFillColor\" d=\"M114 160c0 3-4 4.2-9 4.2s-9-1.2-9-4.1c0-3 4-6.5 9-6.5s9 3.6 9 6.5Z\"/><path fill=\"#fff\" d=\"M98 154.6h14v1.9c0 1.2-1 2.1-2.1 2.1H100a2.1 2.1 0 0 1-2.1-2.1v-1.9Z\"/><path class=\"faceStrokeColor\" stroke-linecap=\"round\" stroke-linejoin=\"round\" stroke-width=\"3.176\" d=\"M114 160c0 3-4 4.2-9 4.2s-9-1.2-9-4.1c0-3 4-6.5 9-6.5s9 3.6 9 6.5Z\"/></svg>';\n        } else if (faceVariant == Face.FaceVariants.BABY) {\n            // baby\n            return\n                '<path fill=\"#fff\" d=\"M113 161.9c1.9 2 3 4.6 3 7.6a11 11 0 0 1-22 .1v-.1a11 11 0 0 1 11-11c3.2 0 6 1.3 8 3.4Zm-2.3 7.6c0-1-.2-2-.6-2.8-1-1.9-3-3.1-5.1-3.1a5.8 5.8 0 0 0-5.7 5.9c0 3.2 2.5 5.8 5.7 5.8s5.7-2.6 5.7-5.8Z\"/><path class=\"skinColorDark\" d=\"M109.6 167a8.8 8.8 0 0 1-9.3 0l-.5-.1c1-2 3-3.3 5.2-3.3 2.3 0 4 1.2 5 3l-.4.3ZM97 161.9l-.2-1.8A8.2 8.2 0 1 1 113 162a11 11 0 0 0-16 0Z\"/><path class=\"skinColorLight\" d=\"M96.8 160.1c0 .6 0 1.2.2 1.8a11 11 0 0 0-3 7.7h-1a14.8 14.8 0 0 1-7.3-8.5c-1-3.6-.4-7.9 2-10.8a14 14 0 0 1 8.5-4.4c3.2-.6 5-.7 8.8-.7 3.8 0 5.6 0 8.8.6 3.2.6 6.3 2 8.4 4.4 2.5 3 3.2 7.2 2 10.9a14.8 14.8 0 0 1-7.2 8.5h-1v-.1c0-3-1.1-5.6-3-7.6l.2-1.8a8.2 8.2 0 1 0-16.4 0Z\"/><path class=\"faceStrokeColor\" stroke-linecap=\"round\" stroke-linejoin=\"round\" stroke-width=\"3\" d=\"M109.6 166a8.8 8.8 0 0 1-9.3 0\"/><path class=\"faceStrokeColor\" stroke-linecap=\"round\" stroke-linejoin=\"round\" stroke-width=\"2.5\" d=\"m97 161.9-.2-1.8A8.2 8.2 0 1 1 113 162\"/><path class=\"faceStrokeColor\" stroke-linecap=\"round\" stroke-linejoin=\"round\" stroke-width=\"3\" d=\"M94 169.6v-.1a11 11 0 0 1 11-11 11 11 0 0 1 11 11v0a11 11 0 0 1-22 .1Z\"/><path class=\"faceStrokeColor\" stroke-linecap=\"round\" stroke-linejoin=\"round\" stroke-width=\"3\" d=\"M110 166.7c.5.8.7 1.8.7 2.8 0 3.2-2.5 5.8-5.7 5.8a5.8 5.8 0 0 1-5.7-5.8 5.8 5.8 0 0 1 5.7-5.9c2.3 0 4 1.2 5 3Zm-17 3a14.8 14.8 0 0 1-7.3-8.6c-1-3.6-.4-7.9 2-10.8a14 14 0 0 1 8.5-4.4c3.2-.6 5-.7 8.8-.7\"/><path class=\"faceStrokeColor\" stroke-linecap=\"round\" stroke-linejoin=\"round\" stroke-width=\"2\" d=\"M101.2 172.7c1.2.7 6 .6 8 0\"/><path class=\"faceStrokeColor\" stroke-linecap=\"round\" stroke-linejoin=\"round\" stroke-width=\"3\" d=\"M117 169.6a15 15 0 0 0 7.3-8.5c1-3.7.4-8-2-10.9a14 14 0 0 0-8.5-4.4 48 48 0 0 0-8.8-.6\"/><path class=\"skinColorLight\" d=\"M99.5 157.6h11v7.9h-11z\"/><path class=\"faceStrokeColor\" stroke-linecap=\"round\" stroke-linejoin=\"round\" stroke-width=\"2.5\" d=\"M98.7 161.6a4 4 0 0 1 4-4h4.6a4 4 0 0 1 4 4v0a4 4 0 0 1-4 4h-4.6a4 4 0 0 1-4-4v0Z\"/><circle class=\"faceFillColor\" cx=\"87.3\" cy=\"135.5\" r=\"4.7\"/><circle class=\"faceFillColor\" cx=\"122.7\" cy=\"135.5\" r=\"4.7\"/><path fill=\"#fff\" fill-opacity=\".5\" d=\"M78 158.2c-.7 3-4.6 4.6-8.8 3.7-4.1-1-7-4-6.3-7 .7-3 4.6-4.7 8.7-3.7 4.2.9 7 4 6.4 7Zm54 0c.7 3 4.6 4.6 8.7 3.7 4.2-1 7-4 6.3-7-.6-3-4.5-4.7-8.7-3.7-4.1.9-7 4-6.3 7Z\"/></svg>';\n        } else if (faceVariant == Face.FaceVariants.KAWAII) {\n            // kawaii\n            return\n                '<path class=\"faceFillColor\" d=\"M114.3 138.3c1.8 0 3.3 2 3.3 4.6 0 2.6-1.5 4.6-3.3 4.6-1.8 0-3.3-2-3.3-4.6 0-2.5 1.5-4.6 3.3-4.6Zm-18.5 0c1.8 0 3.2 2 3.2 4.6 0 2.6-1.4 4.6-3.2 4.6-1.9 0-3.3-2-3.3-4.6 0-2.5 1.4-4.6 3.3-4.6Z\"/><path fill=\"#fff\" d=\"M136.9 139.5c2 7.4-.4 15-7.2 19.3-7.5 4.7-20.2 4.5-24.6-3.8h-.1c-4.4 8.3-17.1 8.5-24.6 3.8a17 17 0 0 1-7.2-19.3 17 17 0 0 1 15-13c8-1 16.8 4.7 16.8 11.7 0-7 9-12.7 16.8-11.7a17 17 0 0 1 15 13Zm-19.3 3.4c0-2.5-1.5-4.6-3.3-4.6-1.8 0-3.3 2-3.3 4.6 0 2.6 1.5 4.6 3.3 4.6 1.8 0 3.3-2 3.3-4.6ZM99 143c0-2.5-1.4-4.6-3.2-4.6-1.9 0-3.3 2-3.3 4.6 0 2.6 1.4 4.6 3.3 4.6 1.8 0 3.2-2 3.2-4.6Z\"/><path class=\"faceStrokeColor\" stroke-linecap=\"round\" stroke-linejoin=\"round\" stroke-width=\"3\" d=\"M105 138.1c0-7-9-12.6-16.8-11.7a17 17 0 0 0-15 13c-2 7.5.3 15 7.1 19.3 7.5 4.8 20.2 4.6 24.6-3.8\"/><path class=\"faceStrokeColor\" stroke-linecap=\"round\" stroke-linejoin=\"round\" stroke-width=\"1.8\" d=\"M92.4 142.9c0-2.6 1.5-4.6 3.3-4.6 1.8 0 3.3 2 3.3 4.6 0 2.5-1.5 4.6-3.3 4.6-1.8 0-3.3-2-3.3-4.6Z\"/><path class=\"faceStrokeColor\" stroke-linecap=\"round\" stroke-linejoin=\"round\" stroke-width=\"3\" d=\"M105 138.1c0-7 8.9-12.6 16.8-11.7a17 17 0 0 1 15 13c2 7.5-.4 15-7.1 19.3-7.5 4.8-20.2 4.6-24.6-3.8\"/><path class=\"faceStrokeColor\" stroke-linecap=\"round\" stroke-linejoin=\"round\" stroke-width=\"1.8\" d=\"M117.6 142.9c0-2.6-1.5-4.6-3.3-4.6-1.8 0-3.3 2-3.3 4.6 0 2.5 1.5 4.6 3.3 4.6 1.8 0 3.3-2 3.3-4.6Z\"/><path class=\"faceStrokeColor\" stroke-linecap=\"round\" stroke-width=\"2.5\" d=\"m87.9 122 .5 4m-8.7-.6 2 2.7m15.2-3.8-1.6 3m26.8-5.3-.5 4m8.8-.6-2 2.7m-15.2-3.8 1.6 3\"/><path fill=\"#fff\" fill-opacity=\".5\" d=\"M80 167.2c-.7 3-4.6 4.6-8.7 3.7-4.2-1-7-4-6.4-7 .7-3 4.6-4.7 8.8-3.7 4.1.9 7 4 6.3 7Zm50 0c.7 3 4.6 4.6 8.7 3.7 4.2-1 7-4 6.4-7-.7-3-4.6-4.7-8.8-3.7-4.1.9-7 4-6.3 7Z\"/><path class=\"faceStrokeColor\" stroke-linecap=\"round\" stroke-width=\"3\" d=\"M90.5 167.7s4.5 5.1 14.6 5.1c10 0 14.5-5.1 14.5-5.1\"/></svg>';\n        } else if (faceVariant == Face.FaceVariants.PIXIE) {\n            // pixie\n            return\n                '<path fill=\"#fff\" fill-opacity=\".3\" d=\"M105 121.4c-6.4 0-14.3-4-21-4.3-6.6-.4-13.5.9-19.1 4.6a29.3 29.3 0 0 0-11 29.8 39.8 39.8 0 0 0 19.8 25.7 59.8 59.8 0 0 0 30.5 7.8\"/><path fill=\"#fff\" fill-opacity=\".3\" d=\"M105 121.4c7 0 13.4-4 20-4.3 6.7-.4 13.6.9 19.2 4.6a29.3 29.3 0 0 1 11 29.8 39.8 39.8 0 0 1-19.8 25.7 62.1 62.1 0 0 1-31.2 7.8\"/><path class=\"faceStrokeColor\" stroke-width=\"2.8\" d=\"M105 121.4c-6.4 0-14.3-4-21-4.3-6.6-.4-13.5.9-19.1 4.6a29.3 29.3 0 0 0-11 29.8 39.8 39.8 0 0 0 19.8 25.7 59.8 59.8 0 0 0 30.5 7.8\"/><path class=\"faceStrokeColor\" stroke-width=\"2.8\" d=\"M105 121.4c7 0 13.4-4 20-4.3 6.7-.4 13.6.9 19.2 4.6a29.3 29.3 0 0 1 11 29.8 39.8 39.8 0 0 1-19.8 25.7 62.1 62.1 0 0 1-31.2 7.8\"/><path class=\"faceStrokeColor\" stroke-linecap=\"round\" stroke-linejoin=\"round\" stroke-width=\"3\" d=\"M105 121.4c-6.4 0-14.3-4-21-4.3-6.6-.4-13.5.9-19.1 4.6a29.3 29.3 0 0 0-11 29.8 39.8 39.8 0 0 0 19.8 25.7 59.8 59.8 0 0 0 30.5 7.8\"/><path class=\"faceStrokeColor\" stroke-linecap=\"round\" stroke-linejoin=\"round\" stroke-width=\"3\" d=\"M105 121.4c7 0 13.4-4 20-4.3 6.7-.4 13.6.9 19.2 4.6a29.3 29.3 0 0 1 11 29.8 39.8 39.8 0 0 1-19.8 25.7 62.1 62.1 0 0 1-31.2 7.8\"/><path class=\"faceFillColor\" fill-opacity=\".5\" d=\"M71.9 158.7h2.2v2.2h-2.2zm0 2.2h2.2v2.2h-2.2zm-2.2 2.2h2.2v2.2h-2.2zm2.2 0h2.2v2.2h-2.2z\"/><path class=\"faceFillColor\" fill-opacity=\".5\" d=\"M74.1 163.1h2.2v2.2h-2.2zm-4.4-4.4h2.2v2.2h-2.2zm0 2.2h2.2v2.2h-2.2zm4.4 0h2.2v2.2h-2.2zm-6.6 0h2.2v2.2h-2.2zm6.6-2.2h2.2v2.2h-2.2zm2.2 2.2h2.2v2.2h-2.2zm58.1-2.2h2.2v2.2h-2.2zm0 2.2h2.2v2.2h-2.2zm-2.2 2.2h2.2v2.2h-2.2zm2.2 0h2.2v2.2h-2.2zm2.2 0h2.2v2.2h-2.2zm-4.4-4.4h2.2v2.2h-2.2zm0 2.2h2.2v2.2h-2.2zm4.4 0h2.2v2.2h-2.2zm-6.6 0h2.2v2.2H130zm6.6-2.2h2.2v2.2h-2.2zm2.2 2.2h2.2v2.2h-2.2z\"/><path class=\"faceFillColor\" d=\"M96 158.7h2.2v2.2H96zm2.2 0h2.2v2.2h-2.2zm2.2 2.2h2.2v2.2h-2.2z\"/><path class=\"faceFillColor\" d=\"M102.6 160.9h2.2v2.2h-2.2zm2.2 0h2.2v2.2h-2.2zm2.2 0h2.2v2.2H107zm2.2-2.2h2.2v2.2h-2.2zm2.2 0h2.2v2.2h-2.2zm-23-5.5h2.2v2.2h-2.2zm-2.2-11h2.2v2.2h-2.2zm-2.2 3.3h2.2v2.2H84zm0 2.2h2.2v2.2H84zm8.8 0H95v2.2h-2.2zm-8.8 2.2h2.2v2.2H84zm8.8 0H95v2.2h-2.2zm-6.6-5.5h6.6v3.3h-6.6z\"/><path class=\"faceFillColor\" d=\"M86.2 147.7h6.6v2.2h-6.6zm0 2.2h6.6v3.3h-6.6zm6.6-4.4H95v2.2h-2.2zm-4.4-3.3h2.2v2.2h-2.2zm2.2 0h2.2v2.2h-2.2zm-4.4 11h2.2v2.2h-2.2zm4.4 0h2.2v2.2h-2.2zm28.5 0h2.2v2.2h-2.2zm-2.2-11h2.2v2.2h-2.2zm-2.2 3.3h2.2v2.2h-2.2zm0 2.2h2.2v2.2h-2.2zm8.8 0h2.2v2.2h-2.2zm-8.8 2.2h2.2v2.2h-2.2zm8.8 0h2.2v2.2h-2.2zm-6.6-5.5h6.6v3.3h-6.6z\"/><path class=\"faceFillColor\" d=\"M116.9 147.7h6.6v2.2h-6.6zm0 2.2h6.6v3.3h-6.6zm6.6-4.4h2.2v2.2h-2.2zm-4.4-3.3h2.2v2.2h-2.2zm2.2 0h2.2v2.2h-2.2zm-4.4 11h2.2v2.2h-2.2zm4.4 0h2.2v2.2h-2.2z\"/></svg>';\n        } else if (faceVariant == Face.FaceVariants.TODDLER) {\n            // toddler\n            return\n                '<path class=\"faceStrokeColor\" stroke-linecap=\"round\" stroke-width=\"3\" d=\"M93 154.5s3.7 5.2 12 5.2 12-5.2 12-5.2\"/><circle class=\"faceFillColor\" cx=\"87.6\" cy=\"142.4\" r=\"4.6\"/><circle class=\"faceFillColor\" cx=\"122.4\" cy=\"142.4\" r=\"4.6\"/><path fill=\"#fff\" fill-opacity=\".5\" d=\"M78 156.2c-.7 3-4.6 4.6-8.8 3.7-4.1-1-7-4-6.3-7 .7-3 4.6-4.7 8.7-3.7 4.2.9 7 4 6.4 7Zm54 0c.7 3 4.6 4.6 8.7 3.7 4.2-1 7-4 6.3-7-.6-3-4.5-4.7-8.7-3.7-4.1.9-7 4-6.3 7Z\"/></svg>';\n        } else if (faceVariant == Face.FaceVariants.VAMP) {\n            // vamp\n            return\n                '<path fill=\"#fff\" fill-opacity=\".5\" d=\"M138.7 137.2c-.7 3 2 6.2 6.2 7.2 4.1 1 8-.6 8.8-3.5.7-3-2.1-6.2-6.2-7.2-4.2-1-8.1.6-8.8 3.5Zm-67.4 0c.7 3-2 6.2-6.2 7.2-4.1 1-8-.6-8.8-3.5-.7-3 2.1-6.2 6.2-7.2 4.2-1 8.1.6 8.8 3.5Z\"/><path class=\"faceStrokeColor\" stroke-linecap=\"round\" stroke-width=\"3.5\" d=\"M77 133s2.5-4.2 8.7-4.5A11 11 0 0 1 95 132m38 1s-2.5-4.2-8.7-4.5a11 11 0 0 0-9.3 3.6\"/><path class=\"skinColorBase\" d=\"M105.4 142.4c-4.6 0-10.1-2.2-14.8-2.4-4.7-.2-9.6.5-13.5 2.6a14.7 14.7 0 0 0-7.7 16.5c1.6 6.1 7.1 11.3 13.9 14.3 6.8 3 13.7 4.3 21.5 4.3\"/><path class=\"skinColorBase\" d=\"M105.4 142.4c4.8 0 9.3-2.2 14-2.4 4.7-.2 9.6.5 13.5 2.6a14.7 14.7 0 0 1 7.7 16.5c-1.6 6.1-7.1 11.3-13.9 14.3a54 54 0 0 1-22 4.3\"/><path class=\"mouthOverlay\" fill-opacity=\".6\" d=\"M105.4 142.4c-4.6 0-10.1-2.2-14.8-2.4-4.7-.2-9.6.5-13.5 2.6a14.7 14.7 0 0 0-7.7 16.5c1.6 6.1 7.1 11.3 13.9 14.3 6.8 3 13.7 4.3 21.5 4.3\"/><path class=\"mouthOverlay\" fill-opacity=\".6\" d=\"M105.4 142.4c4.8 0 9.3-2.2 14-2.4 4.7-.2 9.6.5 13.5 2.6a14.7 14.7 0 0 1 7.7 16.5c-1.6 6.1-7.1 11.3-13.9 14.3a54 54 0 0 1-22 4.3\"/><path fill=\"#fff\" class=\"faceStrokeColor\" stroke-linejoin=\"round\" stroke-width=\"2\" d=\"m79 141.9 8.4-2.2s12.9 2.2 18 2.2 18.5-2.2 18.5-2.2l7.1 2.2a7 7 0 0 1 2 5.9c-.5 1.7-1 3.4-2 5l-1 1.6a1.8 1.8 0 0 1-3.2 0l-2.9-5c-5.8.3-13.2.6-18.9.6-5.7 0-13.1-.3-19-.6l-2.8 5a1.8 1.8 0 0 1-3.2 0l-1-1.7c-1-1.5-1.5-3.2-1.9-5A7 7 0 0 1 79 142Z\"/><path fill=\"#FFDFE7\" class=\"faceStrokeColor\" stroke-width=\"2\" d=\"M127 172.7c0 1.9-9.9 4.1-22 4.1a64 64 0 0 1-22-4c0-3.7 9.9-9 22-9s22 5.3 22 9Z\"/><path class=\"faceStrokeColor\" stroke-linecap=\"round\" stroke-linejoin=\"round\" stroke-width=\"3\" d=\"M105.4 142.4c-4.6 0-10.1-2.2-14.8-2.4-4.7-.2-9.6.5-13.5 2.6a14.7 14.7 0 0 0-7.7 16.5c1.6 6.1 7.1 11.3 13.9 14.3 6.8 3 13.7 4.3 21.5 4.3\"/><path class=\"faceStrokeColor\" stroke-linecap=\"round\" stroke-linejoin=\"round\" stroke-width=\"3\" d=\"M105.4 142.4c4.8 0 9.3-2.2 14-2.4 4.7-.2 9.6.5 13.5 2.6a14.7 14.7 0 0 1 7.7 16.5c-1.6 6.1-7.1 11.3-13.9 14.3a54 54 0 0 1-22 4.3\"/><path class=\"faceStrokeColor\" stroke-linecap=\"round\" stroke-opacity=\".1\" stroke-width=\"2\" d=\"M105 163.7v6.3\"/></svg>';\n        } else {\n            revert(); // Avoid warnings.\n        }\n    }\n}\n",
  "sourcePath": "E:\\Blockchain\\EDUIndex\\EduxContract\\contracts\\libraries\\svgs\\Profile\\Face.sol",
  "compiler": {
    "name": "solc",
    "version": "0.8.20+commit.a1b79de6.Emscripten.clang"
  },
  "schemaVersion": "3.4.3",
  "updatedAt": "2024-08-25T13:13:21.593Z",
  "devdoc": {
    "kind": "dev",
    "methods": {},
    "version": 1
  },
  "userdoc": {
    "kind": "user",
    "methods": {},
    "version": 1
  }
}