{
  "contractName": "Hands",
  "abi": [
    {
      "inputs": [
        {
          "internalType": "enum Hands.HandsVariants",
          "name": "handsVariant",
          "type": "Hands.HandsVariants"
        },
        {
          "internalType": "enum Hands.HandsColors",
          "name": "handsColor",
          "type": "Hands.HandsColors"
        },
        {
          "internalType": "enum Body.BodyVariants",
          "name": "bodyVariant",
          "type": "Body.BodyVariants"
        },
        {
          "internalType": "enum Body.BodyColors",
          "name": "bodyColor",
          "type": "Body.BodyColors"
        }
      ],
      "name": "getHands",
      "outputs": [
        {
          "internalType": "string",
          "name": "",
          "type": "string"
        }
      ],
      "stateMutability": "pure",
      "type": "function"
    }
  ],
  "bytecode": "0x6137fc61004e600b8282823980515f1a607314610042577f4e487b71000000000000000000000000000000000000000000000000000000005f525f60045260245ffd5b305f52607381538281f3fe7300000000000000000000000000000000000000003014608060405260043610610034575f3560e01c8063ffe6dec514610038575b5f80fd5b610052600480360381019061004d9190610a73565b610068565b60405161005f9190610b61565b60405180910390f35b60605f600281111561007d5761007c610b81565b5b8560028111156100905761008f610b81565b5b036100ab5760405180602001604052805f81525090506100e3565b6100b68484846100eb565b6100c08685610151565b6040516020016100d1929190610ca4565b60405160208183030381529060405290505b949350505050565b606061011d84600481111561010357610102610b81565b5b60ff16600481111561011857610117610b81565b5b6101fb565b610128858585610411565b604051602001610139929190610e35565b60405160208183030381529060405290509392505050565b60605f61015d836106ec565b905060028081111561017257610171610b81565b5b84600281111561018557610184610b81565b5b0361019357809150506101f5565b600160028111156101a7576101a6610b81565b5b8460028111156101ba576101b9610b81565b5b036101f157806101c984610861565b6040516020016101da929190610e81565b6040516020818303038152906040529150506101f5565b5f80fd5b92915050565b60605f60048111156102105761020f610b81565b5b82600481111561022357610222610b81565b5b03610265576040518060400160405280600781526020017f2341304431373000000000000000000000000000000000000000000000000000815250905061040c565b6001600481111561027957610278610b81565b5b82600481111561028c5761028b610b81565b5b036102ce576040518060400160405280600781526020017f2346464432444400000000000000000000000000000000000000000000000000815250905061040c565b600260048111156102e2576102e1610b81565b5b8260048111156102f5576102f4610b81565b5b03610337576040518060400160405280600781526020017f2345414437464600000000000000000000000000000000000000000000000000815250905061040c565b6003600481111561034b5761034a610b81565b5b82600481111561035e5761035d610b81565b5b036103a0576040518060400160405280600781526020017f2344394530464600000000000000000000000000000000000000000000000000815250905061040c565b6004808111156103b3576103b2610b81565b5b8260048111156103c6576103c5610b81565b5b03610408576040518060400160405280600781526020017f2346384339343400000000000000000000000000000000000000000000000000815250905061040c565b5f80fd5b919050565b60605f600481111561042657610425610b81565b5b83600481111561043957610438610b81565b5b036104c05773__Body__________________________________63c0e7f7e684846040518363ffffffff1660e01b8152600401610477929190610f30565b5f60405180830381865af4158015610491573d5f803e3d5ffd5b505050506040513d5f823e3d601f19601f820116820180604052508101906104b99190611075565b90506106e5565b600360048111156104d4576104d3610b81565b5b8360048111156104e7576104e6610b81565b5b036105235761051c84600481111561050257610501610b81565b5b60ff16600481111561051757610516610b81565b5b6101fb565b90506106e5565b6002600481111561053757610536610b81565b5b83600481111561054a57610549610b81565b5b036105865761057f84600481111561056557610564610b81565b5b60ff16600481111561057a57610579610b81565b5b6101fb565b90506106e5565b6001600481111561059a57610599610b81565b5b8360048111156105ad576105ac610b81565b5b036106345773__Body__________________________________63b7def71684846040518363ffffffff1660e01b81526004016105eb929190610f30565b5f60405180830381865af4158015610605573d5f803e3d5ffd5b505050506040513d5f823e3d601f19601f8201168201806040525081019061062d9190611075565b90506106e5565b60048081111561064757610646610b81565b5b83600481111561065a57610659610b81565b5b036106e15773__Body__________________________________63b7def71684846040518363ffffffff1660e01b8152600401610698929190610f30565b5f60405180830381865af41580156106b2573d5f803e3d5ffd5b505050506040513d5f823e3d601f19601f820116820180604052508101906106da9190611075565b90506106e5565b5f80fd5b9392505050565b60605f600481111561070157610700610b81565b5b82600481111561071457610713610b81565b5b1480610743575060048081111561072e5761072d610b81565b5b82600481111561074157610740610b81565b5b145b1561076b57604051806104e001604052806104b481526020016124416104b49139905061085c565b6001600481111561077f5761077e610b81565b5b82600481111561079257610791610b81565b5b036107ba57604051806104e001604052806104b081526020016110bd6104b09139905061085c565b600260048111156107ce576107cd610b81565b5b8260048111156107e1576107e0610b81565b5b03610809576040518061050001604052806104c981526020016128f56104c99139905061085c565b6003600481111561081d5761081c610b81565b5b8260048111156108305761082f610b81565b5b0361085857604051806105a00160405280610565815260200161156d6105659139905061085c565b5f80fd5b919050565b60605f600481111561087657610875610b81565b5b82600481111561088957610888610b81565b5b14806108b857506004808111156108a3576108a2610b81565b5b8260048111156108b6576108b5610b81565b5b145b156108e057604051806104e001604052806104ba8152602001611ad26104ba913990506109d1565b600160048111156108f4576108f3610b81565b5b82600481111561090757610906610b81565b5b0361092f57604051806104e001604052806104b58152602001611f8c6104b5913990506109d1565b6002600481111561094357610942610b81565b5b82600481111561095657610955610b81565b5b0361097e57604051806104e001604052806104b48152602001612dbe6104b4913990506109d1565b6003600481111561099257610991610b81565b5b8260048111156109a5576109a4610b81565b5b036109cd576040518061058001604052806105558152602001613272610555913990506109d1565b5f80fd5b919050565b5f604051905090565b5f80fd5b5f80fd5b600381106109f3575f80fd5b50565b5f81359050610a04816109e7565b92915050565b60058110610a16575f80fd5b50565b5f81359050610a2781610a0a565b92915050565b60058110610a39575f80fd5b50565b5f81359050610a4a81610a2d565b92915050565b60078110610a5c575f80fd5b50565b5f81359050610a6d81610a50565b92915050565b5f805f8060808587031215610a8b57610a8a6109df565b5b5f610a98878288016109f6565b9450506020610aa987828801610a19565b9350506040610aba87828801610a3c565b9250506060610acb87828801610a5f565b91505092959194509250565b5f81519050919050565b5f82825260208201905092915050565b5f5b83811015610b0e578082015181840152602081019050610af3565b5f8484015250505050565b5f601f19601f8301169050919050565b5f610b3382610ad7565b610b3d8185610ae1565b9350610b4d818560208601610af1565b610b5681610b19565b840191505092915050565b5f6020820190508181035f830152610b798184610b29565b905092915050565b7f4e487b71000000000000000000000000000000000000000000000000000000005f52602160045260245ffd5b5f81905092915050565b7f3c73766720786d6c6e733d22687474703a2f2f7777772e77332e6f72672f32305f8201527f30302f737667222077696474683d2232313022206865696768743d223333352260208201527f2066696c6c3d226e6f6e65223e00000000000000000000000000000000000000604082015250565b5f610c38604d83610bae565b9150610c4382610bb8565b604d82019050919050565b5f610c5882610ad7565b610c628185610bae565b9350610c72818560208601610af1565b80840191505092915050565b7f3c2f7376673e0000000000000000000000000000000000000000000000000000815250565b5f610cae82610c2c565b9150610cba8285610c4e565b9150610cc68284610c4e565b9150610cd182610c7e565b6006820191508190509392505050565b7f3c7374796c653e2e68616e6473436f6c6f72207b66696c6c3a20000000000000815250565b7f7d2e61726d436f6c6f72207b66696c6c3a200000000000000000000000000000815250565b7f7d2e684c696e6533207b7374726f6b653a20233030303b7374726f6b652d6c695f8201527f6e656361703a20726f756e643b7374726f6b652d6c696e656a6f696e3a20726f60208201527f756e643b7374726f6b652d77696474683a20333b7d2e684c696e6534207b737460408201527f726f6b653a20233030303b7374726f6b652d6c696e656361703a20726f756e6460608201527f3b7374726f6b652d6c696e656a6f696e3a20726f756e643b7374726f6b652d7760808201527f696474683a20343b7d3c2f7374796c653e00000000000000000000000000000060a082015250565b5f610e1f60b183610bae565b9150610e2a82610d2d565b60b182019050919050565b5f610e3f82610ce1565b601a82019150610e4f8285610c4e565b9150610e5a82610d07565b601282019150610e6a8284610c4e565b9150610e7582610e13565b91508190509392505050565b5f610e8c8285610c4e565b9150610e988284610c4e565b91508190509392505050565b60058110610eb557610eb4610b81565b5b50565b5f819050610ec582610ea4565b919050565b5f610ed482610eb8565b9050919050565b610ee481610eca565b82525050565b60078110610efb57610efa610b81565b5b50565b5f819050610f0b82610eea565b919050565b5f610f1a82610efe565b9050919050565b610f2a81610f10565b82525050565b5f604082019050610f435f830185610edb565b610f506020830184610f21565b9392505050565b5f80fd5b5f80fd5b7f4e487b71000000000000000000000000000000000000000000000000000000005f52604160045260245ffd5b610f9582610b19565b810181811067ffffffffffffffff82111715610fb457610fb3610f5f565b5b80604052505050565b5f610fc66109d6565b9050610fd28282610f8c565b919050565b5f67ffffffffffffffff821115610ff157610ff0610f5f565b5b610ffa82610b19565b9050602081019050919050565b5f61101961101484610fd7565b610fbd565b90508281526020810184848401111561103557611034610f5b565b5b611040848285610af1565b509392505050565b5f82601f83011261105c5761105b610f57565b5b815161106c848260208601611007565b91505092915050565b5f6020828403121561108a576110896109df565b5b5f82015167ffffffffffffffff8111156110a7576110a66109e3565b5b6110b384828501611048565b9150509291505056fe3c7061746820636c6173733d2268616e6473436f6c6f722220643d224d3138302e38203230322e32632e312e342d2e3520332e372d322e3320372d312e3120322d322e3720342e322d342e3820352e352d352e3620332e362d313020332e352d313720312e396132352032352030203020312d31312e392d362e372031372e352031372e352030203020312d332e362d36632d2e362d312e362e332d332e382d2e352d352e332d312e392d332e322e352d362e392e352d362e396c322d342e3620332e342d332e3563302d33202e342d352e3420302d31312e372d2e342d372e332d312d31302e3120302d31322e3520332e312d372e372031322e382d362e362031352e372030202e3820312e392e3620372e382e3620372e387631356c342d313573312e372d3720332d382e3661372e3820372e382030203020312031342e3220342e32632e3320322e352d2e3720342e372d332031312e366c2d332e3220392e3363352e3120322e3420382e342031302e3920332e362031372e376c2d2e372e385a222f3e3c7061746820636c6173733d2261726d436f6c6f722220643d224d3136342e34203231392e35632d312e3220312e382d322e3120352e322d332e3620372d342e3320342e392d31342e3520312e342d31342e3520312e346c2d2e322d342e352d312e352d322e35762d332e356c312e372d342e3573322e3620312e3420382e3120322e36633620312e362031362e3720312031362e372031732d322e352d332d352e342e37632d3120312e33203120312e322d312e3320322e335a222f3e3c7061746820636c6173733d22684c696e65332220643d224d3134392e36203230322e36682e3863312e36203020332e352d2e3420352e332d3120352e332d322e312031302e322d362e3820362e332d31322e39613720372030203020302d362e312d332e32632d332e332e332d342e3620322e332d3820322e386d2d312e322d342e3763302d3320302d352e332d2e352d31312e362d2e352d372e332d312d31302e3220302d31322e3520332d372e372031322e372d372031352e352d2e342e3820312e39203120382e34203120382e347631342e396d31352e3220312e3320332e332d392e3363322e322d3720332e322d3920322e392d31312e362d2e392d382e322d31302e342d392e362d31342e372d332e386134302034302030203020302d322e3820382e336c2d342031356d31382e32203230202e372d3163342e382d362e3720312e352d31352e322d332e362d31372e36222f3e3c7061746820636c6173733d22684c696e65332220643d224d3138302e38203230322e32632e312e342d2e3520332e372d322e3320372d312e3120322d322e3720342e322d342e3820352e352d352e3620332e362d31342e3720332e322d32322e372030222f3e3c7061746820636c6173733d22684c696e65342220643d224d3136352e3620323138632d332031312d31372031332d323320372e34222f3e3c7061746820636c6173733d22684c696e65332220643d224d3134362e36203138332e36632d322e372e362d362e3720372e372d3620313520312e362031332e382031302e382031362e392031362031372e396d382e352d31352e36633220332e342031312e3520372031372d2e35222f3e3c7061746820636c6173733d2268616e6473436f6c6f722220643d224d3138312e32203230322e376330202e332d2e3620332e362d322e3320376131362031362030203020312d342e3920352e35632d352e3520332e362d313020332e352d31362e3920312e386132352032352030203020312d31322d362e362031372e352031372e352030203020312d332e352d36632d2e372d312e362e332d332e382d2e362d352e332d312e382d332e322e362d37202e362d376c322d342e3520332e342d332e3663302d33202e342d352e3320302d31312e372d2e352d372e322d312d313020302d31322e3520332d372e372031322e382d362e362031352e362030202e3820312e392e3620372e382e3620372e3876313561363739382e3220363739382e3220302030203120342d313573312e382d3720332d382e3661372e3820372e382030203020312031342e3320342e33632e3220322e352d2e3720342e362d332031312e366c2d332e3220392e33633520322e3420382e342031302e3820332e352031372e366c2d2e362e395a222f3e3c7061746820636c6173733d2268616e6473436f6c6f722220643d224d3136342e3720323230632d312e3120312e382d3220352e322d332e3520362e392d342e3320352d31342e3520312e352d31342e3520312e356c2d332e322d342e322d2e382d322e372d312e352d3620352e352d322e3173322e3620312e34203820322e3663362e3120312e3520313020312e362031352d312e3720312e382d312e3220332e322d332e3120342e322d35732d3520342e372d372e3920382e34632d3120312e3220312e3120312e322d312e3320322e335a222f3e3c7061746820636c6173733d22684c696e65332220643d224d31353020323033632e332030202e352e312e38203020312e36203020332e342d2e3320352e332d3120352e322d322031302e312d362e3720362e332d31322e38613720372030203020302d362e322d332e33632d332e332e332d342e3620322e342d372e3920322e386d2d312e322d342e3763302d332d2e312d352e322d2e352d31312e362d2e352d372e322d312d31302e3120302d31322e3520332d372e372031322e362d372031352e352d2e332e3820312e382e3920382e332e3920382e337631356d31352e3320312e3320332e322d392e3363322e332d3720332e322d392e3120332d31312e362d2e392d382e322d31302e342d392e362d31342e372d332e396134312034312030203020302d322e3920382e346c2d332e39203135222f3e3c7061746820636c6173733d22684c696e65332220643d226d3138312e32203230322e372e362d2e3963342e392d362e3820312e362d31352e322d332e352d31372e376d322e392031382e366330202e332d2e3620332e362d322e3320376131362031362030203020312d342e3920352e35632d352e3520332e362d31342e3620332e322d32322e362030222f3e3c7061746820636c6173733d22684c696e65342220643d224d313636203231382e34632d332e312031312d31372e382031322e392d32332e3820372e34222f3e3c7061746820636c6173733d22684c696e65332220643d224d31343720313834632d322e382e362d362e3820372e372d3620313520312e352031332e392031302e372031372031352e392031386d382e352d31352e3663322e3120332e332031312e3520372031372d2e35222f3e3c70617468207374726f6b653d222330303022207374726f6b652d6c696e656361703d22726f756e6422207374726f6b652d6d697465726c696d69743d22313022207374726f6b652d77696474683d22332220643d224d3134302e34203231352e34732e382d312e3220322e352d3263332d312e3520342e372d2e3520342e372d2e35222f3e3c7061746820636c6173733d2268616e6473436f6c6f722220643d224d32382e33203230322e326330202e342e3520332e3720322e33203720312e32203220322e3720342e3220342e3920352e3520352e3520332e3620313020332e352031362e3920312e396132352032352030203020302031312e392d362e3763312e382d312e3820322e372d332e3920332e362d36202e372d312e362d2e332d332e382e362d352e3320312e382d332e322d2e362d362e392d2e362d362e396c2d322d342e362d332e342d332e3563302d332d2e342d352e3420302d31312e372e352d372e3320312d31302e3120302d31322e352d332d372e372d31322e382d362e362d31352e3720302d2e3720312e392d2e3520372e382d2e3520372e387631356c2d342d3135732d312e382d372d332d382e3661372e3820372e382030203020302d31342e3320342e32632d2e3220322e352e3720342e3720332031312e366c332e3220392e33632d3520322e342d382e342031302e392d332e352031372e376c2e362e385a222f3e3c7061746820636c6173733d2261726d436f6c6f722220643d224d34342e38203231392e35633120312e38203220352e3220332e35203720342e3320342e392031342e3520312e342031342e3520312e346c2e332d342e3520312e352d322e35762d332e356c2d312e382d342e35732d322e3620312e342d382e3120322e36632d3620312e362d31362e3620312d31362e36203173322e342d3320352e342e37633120312e332d312e3120312e3220312e3320322e335a222f3e3c7061746820636c6173733d22684c696e65332220643d224d35392e35203230322e366131352e372031352e372030203020312d362d31632d352e342d322e312d31302e332d362e382d362e342d31322e396137203720302030203120362e312d332e3263332e342e3320342e3720322e33203820322e386d312e322d342e3763302d33202e312d352e332e352d31312e362e352d372e3320312d31302e3220302d31322e352d332d372e372d31322e372d372d31352e352d2e346133392033392030203020302d2e3920382e347631342e396d2d31352e3320312e332d332e322d392e33632d322e332d372d332e322d392d332d31312e362e392d382e322031302e342d392e362031342e372d332e3820312e3220312e3620322e3920382e3320322e3920382e336c332e392031356d2d31382e322032306131322031322030203020312d2e362d31632d352d362e372d312e362d31352e3220332e352d31372e36222f3e3c7061746820636c6173733d22684c696e65332220643d224d32382e33203230322e326330202e342e3520332e3720322e33203720312e32203220322e3720342e3220342e3920352e3520352e3520332e362031342e3620332e322032322e362030222f3e3c7061746820636c6173733d22684c696e65342220643d224d34332e362032313863332031312031362e392031332032322e3920372e34222f3e3c7061746820636c6173733d22684c696e65332220643d224d36322e35203138332e3663322e382e3620362e3720372e3720362031352d312e352031332e382d31302e382031362e392d31362031372e396d2d382e342d31352e36632d322e3120332e342d31312e3520372d31372d2e35222f3e3c7061746820636c6173733d2268616e6473436f6c6f722220643d224d32392e37203230322e326330202e342e3520332e3720322e33203720312e32203220322e3720342e3220342e3920352e3520352e3520332e3620313020332e352031362e3920312e396132352032352030203020302031312e392d362e3763312e382d312e3820322e372d332e3920332e362d36202e372d312e362d2e332d332e382e362d352e3320312e382d332e322d2e362d362e392d2e362d362e396c2d322d342e362d332e342d332e3563302d332d2e342d352e3420302d31312e372e352d372e3320312d31302e3120302d31322e352d332d372e372d31322e382d362e362d31352e3720302d2e3720312e392d2e3520372e382d2e3520372e387631356c2d342d3135732d312e382d372d332d382e3661372e3820372e382030203020302d31342e3320342e32632d2e3220322e352e3720342e3720332031312e366c332e3220392e33632d3520322e342d382e342031302e392d332e352031372e376c2e362e385a222f3e3c7061746820636c6173733d2261726d436f6c6f722220643d224d34362e32203231392e35633120312e38203220352e3220332e35203720342e3320342e392031342e3520312e342031342e3520312e346c2e332d342e354c363620323231762d332e356c2d312e382d342e35732d322e3620312e342d3820322e36632d362e3120312e362d31362e3720312d31362e37203173322e342d3320352e342e37633120312e332d312e3120312e3220312e3320322e335a222f3e3c7061746820636c6173733d22684c696e65332220643d224d36302e39203230322e366131352e372031352e372030203020312d362d31632d352e342d322e312d31302e332d362e382d362e342d31322e396137203720302030203120362e312d332e3263332e342e3320342e3720322e33203820322e386d312e322d342e3763302d33202e312d352e332e352d31312e362e352d372e3320312d31302e3220302d31322e352d332d372e372d31322e372d372d31352e352d2e346133392033392030203020302d2e3920382e347631342e396d2d31352e3320312e332d332e322d392e33632d322e332d372d332e322d392d332d31312e362e392d382e322031302e342d392e362031342e372d332e3820312e3220312e3620322e3920382e3320322e3920382e336c332e392031356d2d31382e322032306131322031322030203020312d2e362d31632d352d362e372d312e362d31352e3220332e352d31372e36222f3e3c7061746820636c6173733d22684c696e65332220643d224d32392e37203230322e326330202e342e3520332e3720322e33203720312e32203220322e3720342e3220342e3920352e3520352e3520332e362031342e3620332e322032322e362030222f3e3c7061746820636c6173733d22684c696e65342220643d224d343520323138633320313120313720313320323320372e34222f3e3c7061746820636c6173733d22684c696e65332220643d224d3634203138332e3663322e372e3620362e3620372e3720352e392031352d312e352031332e382d31302e382031362e392d31352e392031372e396d2d382e352d31352e36632d322e3120332e342d31312e3520372d31372d2e35222f3e3c7061746820636c6173733d2268616e6473436f6c6f722220643d224d3138302e38203230322e32632e312e342d2e3520332e372d322e3320372d312e3120322d322e3720342e322d342e3820352e352d352e3620332e362d313020332e352d313720312e396132352032352030203020312d31312e392d362e372031372e352031372e352030203020312d332e362d36632d2e362d312e362e332d332e382d2e352d352e332d312e392d332e322e352d362e392e352d362e396c322d342e3620332e342d332e3563302d33202e342d352e3420302d31312e372d2e342d372e332d312d31302e3120302d31322e3520332e312d372e372031322e382d362e362031352e372030202e3820312e392e3620372e382e3620372e387631356c342d313573312e372d3720332d382e3661372e3820372e382030203020312031342e3220342e32632e3320322e352d2e3720342e372d332031312e366c2d332e3220392e3363352e3120322e3420382e342031302e3920332e362031372e376c2d2e372e385a222f3e3c7061746820636c6173733d2261726d436f6c6f722220643d224d3136342e34203231392e35632d312e3220312e382d322e3120352e322d332e3620372d342e3320342e392d31342e3520312e342d31342e3520312e346c2d2e322d342e352d312e352d322e35762d332e356c312e372d342e3573322e3620312e3420382e3120322e36633620312e362031362e3720312031362e372031732d322e352d332d352e342e37632d3120312e33203120312e322d312e3320322e335a222f3e3c7061746820636c6173733d22684c696e65332220643d224d3134392e36203230322e36682e3863312e36203020332e352d2e3420352e332d3120352e332d322e312031302e322d362e3820362e332d31322e39613720372030203020302d362e312d332e32632d332e332e332d342e3620322e332d3820322e386d2d312e322d342e3763302d3320302d352e332d2e352d31312e362d2e352d372e332d312d31302e3220302d31322e3520332d372e372031322e372d372031352e352d2e342e3820312e39203120382e34203120382e347631342e396d31352e3220312e3320332e332d392e3363322e322d3720332e322d3920322e392d31312e362d2e392d382e322d31302e342d392e362d31342e372d332e386134302034302030203020302d322e3820382e336c2d342031356d31382e32203230202e372d3163342e382d362e3720312e352d31352e322d332e362d31372e36222f3e3c7061746820636c6173733d22684c696e65332220643d224d3138302e38203230322e32632e312e342d2e3520332e372d322e3320372d312e3120322d322e3720342e322d342e3820352e352d352e3620332e362d31342e3720332e322d32322e372030222f3e3c7061746820636c6173733d22684c696e65342220643d224d3136352e3620323138632d332031312d31362e332031332d32322e3320372e34222f3e3c7061746820636c6173733d22684c696e65332220643d224d3134362e36203138332e36632d322e372e362d362e3720372e372d3620313520312e362031332e382031302e382031362e392031362031372e396d382e352d31352e36633220332e342031312e3520372031372d2e35222f3e3c7061746820636c6173733d2268616e6473436f6c6f722220643d224d313831203230322e37632e322e332d2e3420332e362d322e3220376131362031362030203020312d342e3920352e35632d352e3520332e362d313020332e352d31362e3920312e386132352032352030203020312d31312e392d362e362031372e352031372e352030203020312d332e362d36632d2e372d312e362e332d332e382d2e362d352e332d312e382d332e322e362d37202e362d376c322d342e3520332e342d332e3663302d33202e342d352e3320302d31312e372d2e352d372e322d312d313020302d31322e3520332d372e372031322e382d362e362031352e372030202e3720312e392e3520372e382e3520372e387631356c342d313573312e382d3720332d382e3661372e3820372e382030203020312031342e3320342e33632e3220322e352d2e3720342e362d332031312e366c2d332e3220392e33633520322e3420382e342031302e3820332e352031372e366c2d2e362e395a222f3e3c7061746820636c6173733d2268616e6473436f6c6f722220643d224d3136342e3620323230632d3120312e382d3220352e322d332e3520362e392d342e3320352d31342e3520312e352d31342e3520312e356c2d322d332e35732d2e342d312e322d312e332d362e36632d2e372d332e382d312d392e342d312d392e346c342e3320342e3573322e3620312e34203820322e3663362e3120312e352031302e3120312e362031352d312e3720312e382d312e3220332e322d332e3120342e322d35732d3520342e372d372e3920382e34632d3120312e3220312e3120312e322d312e3320322e335a222f3e3c7061746820636c6173733d22684c696e65332220643d224d31353020323033682e3761313520313520302030203020352e332d3163352e332d322031302e322d362e3720362e332d31322e38613720372030203020302d362e312d332e33632d332e342e332d342e3720322e342d3820322e384d3134372031383463302d332d2e312d352e322d2e352d31312e362d2e352d372e322d312d31302e3120302d31322e3520332d372e372031322e372d372031352e352d2e332e3820312e382e3920382e332e3920382e337631356d31352e3320312e3320332e322d392e3363322e332d3720332e322d392e3120332d31312e362d2e392d382e322d31302e342d392e362d31342e372d332e396134312034312030203020302d322e3920382e346c2d332e39203135222f3e3c7061746820636c6173733d22684c696e65332220643d226d313831203230322e372e372d2e3963352d362e3820312e362d31352e322d332e352d31372e376d322e382031382e36632e322e332d2e3420332e362d322e3220376131362031362030203020312d342e3920352e35632d352e3520332e362d31342e3620332e322d32322e362030222f3e3c7061746820636c6173733d22684c696e65342220643d224d3136352e38203231382e34632d332031312d31372031332d323320372e34222f3e3c7061746820636c6173733d22684c696e65332220643d224d3134362e3920313834632d322e382e362d362e3720372e372d3620313520312e352031332e392031302e382031372031352e392031386d382e352d31352e3663322e3120332e332031312e3520372031372d2e35222f3e3c7061746820636c6173733d2268616e6473436f6c6f722220643d224d3239203230322e3761313920313920302030203020372e312031322e3563352e3520332e3620313020332e352031362e3920312e386132352032352030203020302031322d362e3663312e372d312e3820322e372d3420332e362d36202e362d312e362d2e342d332e382e352d352e3320312e382d332e322d2e352d372d2e352d376c2d322d342e352d332e342d332e3663302d332d2e352d352e3320302d31312e372e342d372e3220312d313020302d31322e352d332e312d372e372d31322e392d362e362d31352e3720302d2e3820312e392d2e3620372e382d2e3620372e387631356c2d342d3135732d312e372d372d332d382e3661372e3820372e382030203020302d31342e3220342e33632d2e3320322e352e3620342e3620332031312e366c332e3120392e33632d3520322e342d382e342031302e382d332e352031372e366c2e372e395a222f3e3c7061746820636c6173733d2268616e6473436f6c6f722220643d224d34352e342032323063312e3120312e3820322e3120352e3220332e3520362e3920342e3320352031342e3620312e352031342e3620312e356c322d332e35732e342d312e3220312e332d362e36632e362d332e382e392d392e342e392d392e346c2d342e3220342e35732d322e3620312e342d382e3120322e36632d3620312e352d313020312e362d31352d312e376131332e352031332e352030203020312d342e322d35733520342e3720372e3920382e34633120312e322d3120312e3220312e3320322e335a222f3e3c7061746820636c6173733d22684c696e65332220643d224d36302e3120323033682d2e376131352031352030203020312d352e332d31632d352e332d322d31302e322d362e372d362e332d31322e386137203720302030203120362d332e3363332e342e3320342e3720322e34203820322e386d312e332d342e3763302d3320302d352e322e352d31312e362e352d372e3220312d31302e3120302d31322e352d332e312d372e372d31322e372d372d31352e362d2e332d2e3820312e382d2e3920382e332d2e3920382e337631356d2d31352e3320312e332d332e322d392e33632d322e332d372d332e322d392e312d332d31312e3620312d382e322031302e352d392e362031342e372d332e3920312e3320312e3620322e3920382e3420322e3920382e346c332e39203135222f3e3c7061746820636c6173733d22684c696e65332220643d224d3239203230322e376131322031322030203020312d2e372d2e39632d342e392d362e382d312e352d31352e3220332e352d31372e374d3239203230322e3761313920313920302030203020372e312031322e3563352e3520332e362031342e3620332e322032322e362030222f3e3c7061746820636c6173733d22684c696e65342220643d224d34342e32203231382e34633320313120313720313320323320372e34222f3e3c7061746820636c6173733d22684c696e65332220643d224d36332e322031383463322e372e3620362e3720372e3720352e392031352d312e352031332e392d31302e372031372d31352e392031386d2d382e352d31352e36632d3220332e332d31312e3520372d31372d2e35222f3e3c7061746820636c6173733d2268616e6473436f6c6f722220643d224d32382e38203230322e376330202e332e3620332e3620322e33203761313620313620302030203020342e3920352e3563352e3520332e3620313020332e352031362e3920312e386132352032352030203020302031322d362e3663312e372d312e3820322e362d3420332e352d36202e372d312e362d2e332d332e382e362d352e3320312e382d332e322d2e362d372d2e362d376c2d322d342e354c36332031383463302d332d2e342d352e3320302d31312e372e352d372e3220312d313020302d31322e352d332d372e372d31322e382d362e362d31352e3620302d2e3820312e392d2e3620372e382d2e3620372e387631356c2d342d3135732d312e382d372d332d382e3661372e3820372e382030203020302d31342e3320342e33632d2e3220322e352e3720342e3620332031312e366c332e3220392e33632d3520322e342d382e342031302e382d332e352031372e366c2e362e395a222f3e3c7061746820636c6173733d2268616e6473436f6c6f722220643d224d34352e332032323063312e3120312e38203220352e3220332e3520362e3920342e3320352031342e3520312e352031342e3520312e356c332e322d342e322e382d322e3720312e352d362d352e352d322e31732d322e3620312e342d3820322e36632d362e3120312e352d313020312e362d31352d312e376131332e352031332e352030203020312d342e322d35733520342e3720372e3920382e34633120312e322d312e3120312e3220312e3320322e335a222f3e3c7061746820636c6173733d22684c696e65332220643d224d363020323033632d2e3320302d2e352e312d2e3820302d312e3620302d332e342d2e332d352e332d312d352e322d322d31302e312d362e372d362e332d31322e386137203720302030203120362e322d332e3363332e332e3320342e3620322e3420372e3920322e386d312e322d342e3763302d33202e312d352e322e352d31312e362e352d372e3220312d31302e3120302d31322e352d332d372e372d31322e362d372d31352e352d2e332d2e3820312e382d2e3920382e332d2e3920382e337631356d2d31352e3320312e332d332e322d392e33632d322e332d372d332e322d392e312d332d31312e362e392d382e322031302e342d392e362031342e372d332e3961343220343220302030203120322e3920382e346c332e39203135222f3e3c7061746820636c6173733d22684c696e65332220643d224d32382e38203230322e376131322031322030203020312d2e362d2e39632d342e392d362e382d312e362d31352e3220332e352d31372e376d2d322e392031382e366330202e332e3620332e3620322e33203761313620313620302030203020342e3920352e3563352e3520332e362031342e3620332e322032322e362030222f3e3c7061746820636c6173733d22684c696e65342220643d224d3434203231382e3463332e312031312031372e382031322e392032332e3820372e34222f3e3c7061746820636c6173733d22684c696e65332220643d224d36332031383463322e382e3620362e3820372e3720362031352d312e352031332e392d31302e372031372d31352e392031386d2d382e352d31352e36632d322e3120332e332d31312e3520372d31372d2e35222f3e3c70617468207374726f6b653d222330303022207374726f6b652d6c696e656361703d22726f756e6422207374726f6b652d6d697465726c696d69743d22313022207374726f6b652d77696474683d22332220643d224d36392e36203231352e34732d2e382d312e322d322e352d32632d332d312e352d342e372d2e352d342e372d2e35222f3ea26469706673582212206381450f5f7da1a9000c9293d63724c845cd2038af539cfcb85ce4c0fe6d516764736f6c63430008140033",
  "immutableReferences": {},
  "source": "// SPDX-License-Identifier: MIT\npragma solidity ^0.8.0;\n\nimport {Body} from './Body.sol';\nimport {Skin} from './Helpers.sol';\n\nlibrary Hands {\n    enum HandsVariants {\n        HANDSDOWN,\n        PEACEDOUBLE,\n        PEACESINGLE\n    }\n\n    enum HandsColors {\n        GREEN,\n        PINK,\n        PURPLE,\n        BLUE,\n        GOLD\n    }\n\n    function getHands(\n        HandsVariants handsVariant,\n        HandsColors handsColor,\n        Body.BodyVariants bodyVariant,\n        Body.BodyColors bodyColor\n    ) public pure returns (string memory) {\n        if (handsVariant == HandsVariants.HANDSDOWN) {\n            return '';\n        }\n        return\n            string.concat(\n                '<svg xmlns=\"http://www.w3.org/2000/svg\" width=\"210\" height=\"335\" fill=\"none\">',\n                _getHandsStyle(handsColor, bodyVariant, bodyColor),\n                _getHandsElement(handsVariant, bodyVariant),\n                '</svg>'\n            );\n    }\n\n    function _getHandsElement(\n        HandsVariants handsVariant,\n        Body.BodyVariants bodyVariant\n    ) internal pure returns (string memory) {\n        string memory rightHand = _getRightHand(bodyVariant);\n        if (handsVariant == HandsVariants.PEACESINGLE) {\n            return rightHand;\n        } else if (handsVariant == HandsVariants.PEACEDOUBLE) {\n            return string.concat(rightHand, _getLeftHand(bodyVariant));\n        } else {\n            revert(); // Avoid warnings.\n        }\n    }\n\n    function _getRightHand(Body.BodyVariants bodyVariant) internal pure returns (string memory) {\n        if (bodyVariant == Body.BodyVariants.HOODIE || bodyVariant == Body.BodyVariants.SHIBUYA) {\n            return\n                '<path class=\"handsColor\" d=\"M180.8 202.2c.1.4-.5 3.7-2.3 7-1.1 2-2.7 4.2-4.8 5.5-5.6 3.6-10 3.5-17 1.9a25 25 0 0 1-11.9-6.7 17.5 17.5 0 0 1-3.6-6c-.6-1.6.3-3.8-.5-5.3-1.9-3.2.5-6.9.5-6.9l2-4.6 3.4-3.5c0-3 .4-5.4 0-11.7-.4-7.3-1-10.1 0-12.5 3.1-7.7 12.8-6.6 15.7 0 .8 1.9.6 7.8.6 7.8v15l4-15s1.7-7 3-8.6a7.8 7.8 0 0 1 14.2 4.2c.3 2.5-.7 4.7-3 11.6l-3.2 9.3c5.1 2.4 8.4 10.9 3.6 17.7l-.7.8Z\"/><path class=\"armColor\" d=\"M164.4 219.5c-1.2 1.8-2.1 5.2-3.6 7-4.3 4.9-14.5 1.4-14.5 1.4l-.2-4.5-1.5-2.5v-3.5l1.7-4.5s2.6 1.4 8.1 2.6c6 1.6 16.7 1 16.7 1s-2.5-3-5.4.7c-1 1.3 1 1.2-1.3 2.3Z\"/><path class=\"hLine3\" d=\"M149.6 202.6h.8c1.6 0 3.5-.4 5.3-1 5.3-2.1 10.2-6.8 6.3-12.9a7 7 0 0 0-6.1-3.2c-3.3.3-4.6 2.3-8 2.8m-1.2-4.7c0-3 0-5.3-.5-11.6-.5-7.3-1-10.2 0-12.5 3-7.7 12.7-7 15.5-.4.8 1.9 1 8.4 1 8.4v14.9m15.2 1.3 3.3-9.3c2.2-7 3.2-9 2.9-11.6-.9-8.2-10.4-9.6-14.7-3.8a40 40 0 0 0-2.8 8.3l-4 15m18.2 20 .7-1c4.8-6.7 1.5-15.2-3.6-17.6\"/><path class=\"hLine3\" d=\"M180.8 202.2c.1.4-.5 3.7-2.3 7-1.1 2-2.7 4.2-4.8 5.5-5.6 3.6-14.7 3.2-22.7 0\"/><path class=\"hLine4\" d=\"M165.6 218c-3 11-16.3 13-22.3 7.4\"/><path class=\"hLine3\" d=\"M146.6 183.6c-2.7.6-6.7 7.7-6 15 1.6 13.8 10.8 16.9 16 17.9m8.5-15.6c2 3.4 11.5 7 17-.5\"/>';\n        } else if (bodyVariant == Body.BodyVariants.JACKET) {\n            return\n                '<path class=\"handsColor\" d=\"M180.8 202.2c.1.4-.5 3.7-2.3 7-1.1 2-2.7 4.2-4.8 5.5-5.6 3.6-10 3.5-17 1.9a25 25 0 0 1-11.9-6.7 17.5 17.5 0 0 1-3.6-6c-.6-1.6.3-3.8-.5-5.3-1.9-3.2.5-6.9.5-6.9l2-4.6 3.4-3.5c0-3 .4-5.4 0-11.7-.4-7.3-1-10.1 0-12.5 3.1-7.7 12.8-6.6 15.7 0 .8 1.9.6 7.8.6 7.8v15l4-15s1.7-7 3-8.6a7.8 7.8 0 0 1 14.2 4.2c.3 2.5-.7 4.7-3 11.6l-3.2 9.3c5.1 2.4 8.4 10.9 3.6 17.7l-.7.8Z\"/><path class=\"armColor\" d=\"M164.4 219.5c-1.2 1.8-2.1 5.2-3.6 7-4.3 4.9-14.5 1.4-14.5 1.4l-.2-4.5-1.5-2.5v-3.5l1.7-4.5s2.6 1.4 8.1 2.6c6 1.6 16.7 1 16.7 1s-2.5-3-5.4.7c-1 1.3 1 1.2-1.3 2.3Z\"/><path class=\"hLine3\" d=\"M149.6 202.6h.8c1.6 0 3.5-.4 5.3-1 5.3-2.1 10.2-6.8 6.3-12.9a7 7 0 0 0-6.1-3.2c-3.3.3-4.6 2.3-8 2.8m-1.2-4.7c0-3 0-5.3-.5-11.6-.5-7.3-1-10.2 0-12.5 3-7.7 12.7-7 15.5-.4.8 1.9 1 8.4 1 8.4v14.9m15.2 1.3 3.3-9.3c2.2-7 3.2-9 2.9-11.6-.9-8.2-10.4-9.6-14.7-3.8a40 40 0 0 0-2.8 8.3l-4 15m18.2 20 .7-1c4.8-6.7 1.5-15.2-3.6-17.6\"/><path class=\"hLine3\" d=\"M180.8 202.2c.1.4-.5 3.7-2.3 7-1.1 2-2.7 4.2-4.8 5.5-5.6 3.6-14.7 3.2-22.7 0\"/><path class=\"hLine4\" d=\"M165.6 218c-3 11-17 13-23 7.4\"/><path class=\"hLine3\" d=\"M146.6 183.6c-2.7.6-6.7 7.7-6 15 1.6 13.8 10.8 16.9 16 17.9m8.5-15.6c2 3.4 11.5 7 17-.5\"/>';\n        } else if (bodyVariant == Body.BodyVariants.TANKTOP) {\n            return\n                '<path class=\"handsColor\" d=\"M181 202.7c.2.3-.4 3.6-2.2 7a16 16 0 0 1-4.9 5.5c-5.5 3.6-10 3.5-16.9 1.8a25 25 0 0 1-11.9-6.6 17.5 17.5 0 0 1-3.6-6c-.7-1.6.3-3.8-.6-5.3-1.8-3.2.6-7 .6-7l2-4.5 3.4-3.6c0-3 .4-5.3 0-11.7-.5-7.2-1-10 0-12.5 3-7.7 12.8-6.6 15.7 0 .7 1.9.5 7.8.5 7.8v15l4-15s1.8-7 3-8.6a7.8 7.8 0 0 1 14.3 4.3c.2 2.5-.7 4.6-3 11.6l-3.2 9.3c5 2.4 8.4 10.8 3.5 17.6l-.6.9Z\"/><path class=\"handsColor\" d=\"M164.6 220c-1 1.8-2 5.2-3.5 6.9-4.3 5-14.5 1.5-14.5 1.5l-2-3.5s-.4-1.2-1.3-6.6c-.7-3.8-1-9.4-1-9.4l4.3 4.5s2.6 1.4 8 2.6c6.1 1.5 10.1 1.6 15-1.7 1.8-1.2 3.2-3.1 4.2-5s-5 4.7-7.9 8.4c-1 1.2 1.1 1.2-1.3 2.3Z\"/><path class=\"hLine3\" d=\"M150 203h.7a15 15 0 0 0 5.3-1c5.3-2 10.2-6.7 6.3-12.8a7 7 0 0 0-6.1-3.3c-3.4.3-4.7 2.4-8 2.8M147 184c0-3-.1-5.2-.5-11.6-.5-7.2-1-10.1 0-12.5 3-7.7 12.7-7 15.5-.3.8 1.8.9 8.3.9 8.3v15m15.3 1.3 3.2-9.3c2.3-7 3.2-9.1 3-11.6-.9-8.2-10.4-9.6-14.7-3.9a41 41 0 0 0-2.9 8.4l-3.9 15\"/><path class=\"hLine3\" d=\"m181 202.7.7-.9c5-6.8 1.6-15.2-3.5-17.7m2.8 18.6c.2.3-.4 3.6-2.2 7a16 16 0 0 1-4.9 5.5c-5.5 3.6-14.6 3.2-22.6 0\"/><path class=\"hLine4\" d=\"M165.8 218.4c-3 11-17 13-23 7.4\"/><path class=\"hLine3\" d=\"M146.9 184c-2.8.6-6.7 7.7-6 15 1.5 13.9 10.8 17 15.9 18m8.5-15.6c2.1 3.3 11.5 7 17-.5\"/>';\n        } else if (bodyVariant == Body.BodyVariants.TSHIRT) {\n            return\n                '<path class=\"handsColor\" d=\"M181.2 202.7c0 .3-.6 3.6-2.3 7a16 16 0 0 1-4.9 5.5c-5.5 3.6-10 3.5-16.9 1.8a25 25 0 0 1-12-6.6 17.5 17.5 0 0 1-3.5-6c-.7-1.6.3-3.8-.6-5.3-1.8-3.2.6-7 .6-7l2-4.5 3.4-3.6c0-3 .4-5.3 0-11.7-.5-7.2-1-10 0-12.5 3-7.7 12.8-6.6 15.6 0 .8 1.9.6 7.8.6 7.8v15a6798.2 6798.2 0 0 1 4-15s1.8-7 3-8.6a7.8 7.8 0 0 1 14.3 4.3c.2 2.5-.7 4.6-3 11.6l-3.2 9.3c5 2.4 8.4 10.8 3.5 17.6l-.6.9Z\"/><path class=\"handsColor\" d=\"M164.7 220c-1.1 1.8-2 5.2-3.5 6.9-4.3 5-14.5 1.5-14.5 1.5l-3.2-4.2-.8-2.7-1.5-6 5.5-2.1s2.6 1.4 8 2.6c6.1 1.5 10 1.6 15-1.7 1.8-1.2 3.2-3.1 4.2-5s-5 4.7-7.9 8.4c-1 1.2 1.1 1.2-1.3 2.3Z\"/><path class=\"hLine3\" d=\"M150 203c.3 0 .5.1.8 0 1.6 0 3.4-.3 5.3-1 5.2-2 10.1-6.7 6.3-12.8a7 7 0 0 0-6.2-3.3c-3.3.3-4.6 2.4-7.9 2.8m-1.2-4.7c0-3-.1-5.2-.5-11.6-.5-7.2-1-10.1 0-12.5 3-7.7 12.6-7 15.5-.3.8 1.8.9 8.3.9 8.3v15m15.3 1.3 3.2-9.3c2.3-7 3.2-9.1 3-11.6-.9-8.2-10.4-9.6-14.7-3.9a41 41 0 0 0-2.9 8.4l-3.9 15\"/><path class=\"hLine3\" d=\"m181.2 202.7.6-.9c4.9-6.8 1.6-15.2-3.5-17.7m2.9 18.6c0 .3-.6 3.6-2.3 7a16 16 0 0 1-4.9 5.5c-5.5 3.6-14.6 3.2-22.6 0\"/><path class=\"hLine4\" d=\"M166 218.4c-3.1 11-17.8 12.9-23.8 7.4\"/><path class=\"hLine3\" d=\"M147 184c-2.8.6-6.8 7.7-6 15 1.5 13.9 10.7 17 15.9 18m8.5-15.6c2.1 3.3 11.5 7 17-.5\"/><path stroke=\"#000\" stroke-linecap=\"round\" stroke-miterlimit=\"10\" stroke-width=\"3\" d=\"M140.4 215.4s.8-1.2 2.5-2c3-1.5 4.7-.5 4.7-.5\"/>';\n        } else {\n            revert(); // Avoid warnings.\n        }\n    }\n\n    function _getLeftHand(Body.BodyVariants bodyVariant) internal pure returns (string memory) {\n        if (bodyVariant == Body.BodyVariants.HOODIE || bodyVariant == Body.BodyVariants.SHIBUYA) {\n            return\n                '<path class=\"handsColor\" d=\"M28.3 202.2c0 .4.5 3.7 2.3 7 1.2 2 2.7 4.2 4.9 5.5 5.5 3.6 10 3.5 16.9 1.9a25 25 0 0 0 11.9-6.7c1.8-1.8 2.7-3.9 3.6-6 .7-1.6-.3-3.8.6-5.3 1.8-3.2-.6-6.9-.6-6.9l-2-4.6-3.4-3.5c0-3-.4-5.4 0-11.7.5-7.3 1-10.1 0-12.5-3-7.7-12.8-6.6-15.7 0-.7 1.9-.5 7.8-.5 7.8v15l-4-15s-1.8-7-3-8.6a7.8 7.8 0 0 0-14.3 4.2c-.2 2.5.7 4.7 3 11.6l3.2 9.3c-5 2.4-8.4 10.9-3.5 17.7l.6.8Z\"/><path class=\"armColor\" d=\"M44.8 219.5c1 1.8 2 5.2 3.5 7 4.3 4.9 14.5 1.4 14.5 1.4l.3-4.5 1.5-2.5v-3.5l-1.8-4.5s-2.6 1.4-8.1 2.6c-6 1.6-16.6 1-16.6 1s2.4-3 5.4.7c1 1.3-1.1 1.2 1.3 2.3Z\"/><path class=\"hLine3\" d=\"M59.5 202.6a15.7 15.7 0 0 1-6-1c-5.4-2.1-10.3-6.8-6.4-12.9a7 7 0 0 1 6.1-3.2c3.4.3 4.7 2.3 8 2.8m1.2-4.7c0-3 .1-5.3.5-11.6.5-7.3 1-10.2 0-12.5-3-7.7-12.7-7-15.5-.4a39 39 0 0 0-.9 8.4v14.9m-15.3 1.3-3.2-9.3c-2.3-7-3.2-9-3-11.6.9-8.2 10.4-9.6 14.7-3.8 1.2 1.6 2.9 8.3 2.9 8.3l3.9 15m-18.2 20a12 12 0 0 1-.6-1c-5-6.7-1.6-15.2 3.5-17.6\"/><path class=\"hLine3\" d=\"M28.3 202.2c0 .4.5 3.7 2.3 7 1.2 2 2.7 4.2 4.9 5.5 5.5 3.6 14.6 3.2 22.6 0\"/><path class=\"hLine4\" d=\"M43.6 218c3 11 16.9 13 22.9 7.4\"/><path class=\"hLine3\" d=\"M62.5 183.6c2.8.6 6.7 7.7 6 15-1.5 13.8-10.8 16.9-16 17.9m-8.4-15.6c-2.1 3.4-11.5 7-17-.5\"/>';\n        } else if (bodyVariant == Body.BodyVariants.JACKET) {\n            return\n                '<path class=\"handsColor\" d=\"M29.7 202.2c0 .4.5 3.7 2.3 7 1.2 2 2.7 4.2 4.9 5.5 5.5 3.6 10 3.5 16.9 1.9a25 25 0 0 0 11.9-6.7c1.8-1.8 2.7-3.9 3.6-6 .7-1.6-.3-3.8.6-5.3 1.8-3.2-.6-6.9-.6-6.9l-2-4.6-3.4-3.5c0-3-.4-5.4 0-11.7.5-7.3 1-10.1 0-12.5-3-7.7-12.8-6.6-15.7 0-.7 1.9-.5 7.8-.5 7.8v15l-4-15s-1.8-7-3-8.6a7.8 7.8 0 0 0-14.3 4.2c-.2 2.5.7 4.7 3 11.6l3.2 9.3c-5 2.4-8.4 10.9-3.5 17.7l.6.8Z\"/><path class=\"armColor\" d=\"M46.2 219.5c1 1.8 2 5.2 3.5 7 4.3 4.9 14.5 1.4 14.5 1.4l.3-4.5L66 221v-3.5l-1.8-4.5s-2.6 1.4-8 2.6c-6.1 1.6-16.7 1-16.7 1s2.4-3 5.4.7c1 1.3-1.1 1.2 1.3 2.3Z\"/><path class=\"hLine3\" d=\"M60.9 202.6a15.7 15.7 0 0 1-6-1c-5.4-2.1-10.3-6.8-6.4-12.9a7 7 0 0 1 6.1-3.2c3.4.3 4.7 2.3 8 2.8m1.2-4.7c0-3 .1-5.3.5-11.6.5-7.3 1-10.2 0-12.5-3-7.7-12.7-7-15.5-.4a39 39 0 0 0-.9 8.4v14.9m-15.3 1.3-3.2-9.3c-2.3-7-3.2-9-3-11.6.9-8.2 10.4-9.6 14.7-3.8 1.2 1.6 2.9 8.3 2.9 8.3l3.9 15m-18.2 20a12 12 0 0 1-.6-1c-5-6.7-1.6-15.2 3.5-17.6\"/><path class=\"hLine3\" d=\"M29.7 202.2c0 .4.5 3.7 2.3 7 1.2 2 2.7 4.2 4.9 5.5 5.5 3.6 14.6 3.2 22.6 0\"/><path class=\"hLine4\" d=\"M45 218c3 11 17 13 23 7.4\"/><path class=\"hLine3\" d=\"M64 183.6c2.7.6 6.6 7.7 5.9 15-1.5 13.8-10.8 16.9-15.9 17.9m-8.5-15.6c-2.1 3.4-11.5 7-17-.5\"/>';\n        } else if (bodyVariant == Body.BodyVariants.TANKTOP) {\n            return\n                '<path class=\"handsColor\" d=\"M29 202.7a19 19 0 0 0 7.1 12.5c5.5 3.6 10 3.5 16.9 1.8a25 25 0 0 0 12-6.6c1.7-1.8 2.7-4 3.6-6 .6-1.6-.4-3.8.5-5.3 1.8-3.2-.5-7-.5-7l-2-4.5-3.4-3.6c0-3-.5-5.3 0-11.7.4-7.2 1-10 0-12.5-3.1-7.7-12.9-6.6-15.7 0-.8 1.9-.6 7.8-.6 7.8v15l-4-15s-1.7-7-3-8.6a7.8 7.8 0 0 0-14.2 4.3c-.3 2.5.6 4.6 3 11.6l3.1 9.3c-5 2.4-8.4 10.8-3.5 17.6l.7.9Z\"/><path class=\"handsColor\" d=\"M45.4 220c1.1 1.8 2.1 5.2 3.5 6.9 4.3 5 14.6 1.5 14.6 1.5l2-3.5s.4-1.2 1.3-6.6c.6-3.8.9-9.4.9-9.4l-4.2 4.5s-2.6 1.4-8.1 2.6c-6 1.5-10 1.6-15-1.7a13.5 13.5 0 0 1-4.2-5s5 4.7 7.9 8.4c1 1.2-1 1.2 1.3 2.3Z\"/><path class=\"hLine3\" d=\"M60.1 203h-.7a15 15 0 0 1-5.3-1c-5.3-2-10.2-6.7-6.3-12.8a7 7 0 0 1 6-3.3c3.4.3 4.7 2.4 8 2.8m1.3-4.7c0-3 0-5.2.5-11.6.5-7.2 1-10.1 0-12.5-3.1-7.7-12.7-7-15.6-.3-.8 1.8-.9 8.3-.9 8.3v15m-15.3 1.3-3.2-9.3c-2.3-7-3.2-9.1-3-11.6 1-8.2 10.5-9.6 14.7-3.9 1.3 1.6 2.9 8.4 2.9 8.4l3.9 15\"/><path class=\"hLine3\" d=\"M29 202.7a12 12 0 0 1-.7-.9c-4.9-6.8-1.5-15.2 3.5-17.7M29 202.7a19 19 0 0 0 7.1 12.5c5.5 3.6 14.6 3.2 22.6 0\"/><path class=\"hLine4\" d=\"M44.2 218.4c3 11 17 13 23 7.4\"/><path class=\"hLine3\" d=\"M63.2 184c2.7.6 6.7 7.7 5.9 15-1.5 13.9-10.7 17-15.9 18m-8.5-15.6c-2 3.3-11.5 7-17-.5\"/>';\n        } else if (bodyVariant == Body.BodyVariants.TSHIRT) {\n            return\n                '<path class=\"handsColor\" d=\"M28.8 202.7c0 .3.6 3.6 2.3 7a16 16 0 0 0 4.9 5.5c5.5 3.6 10 3.5 16.9 1.8a25 25 0 0 0 12-6.6c1.7-1.8 2.6-4 3.5-6 .7-1.6-.3-3.8.6-5.3 1.8-3.2-.6-7-.6-7l-2-4.5L63 184c0-3-.4-5.3 0-11.7.5-7.2 1-10 0-12.5-3-7.7-12.8-6.6-15.6 0-.8 1.9-.6 7.8-.6 7.8v15l-4-15s-1.8-7-3-8.6a7.8 7.8 0 0 0-14.3 4.3c-.2 2.5.7 4.6 3 11.6l3.2 9.3c-5 2.4-8.4 10.8-3.5 17.6l.6.9Z\"/><path class=\"handsColor\" d=\"M45.3 220c1.1 1.8 2 5.2 3.5 6.9 4.3 5 14.5 1.5 14.5 1.5l3.2-4.2.8-2.7 1.5-6-5.5-2.1s-2.6 1.4-8 2.6c-6.1 1.5-10 1.6-15-1.7a13.5 13.5 0 0 1-4.2-5s5 4.7 7.9 8.4c1 1.2-1.1 1.2 1.3 2.3Z\"/><path class=\"hLine3\" d=\"M60 203c-.3 0-.5.1-.8 0-1.6 0-3.4-.3-5.3-1-5.2-2-10.1-6.7-6.3-12.8a7 7 0 0 1 6.2-3.3c3.3.3 4.6 2.4 7.9 2.8m1.2-4.7c0-3 .1-5.2.5-11.6.5-7.2 1-10.1 0-12.5-3-7.7-12.6-7-15.5-.3-.8 1.8-.9 8.3-.9 8.3v15m-15.3 1.3-3.2-9.3c-2.3-7-3.2-9.1-3-11.6.9-8.2 10.4-9.6 14.7-3.9a42 42 0 0 1 2.9 8.4l3.9 15\"/><path class=\"hLine3\" d=\"M28.8 202.7a12 12 0 0 1-.6-.9c-4.9-6.8-1.6-15.2 3.5-17.7m-2.9 18.6c0 .3.6 3.6 2.3 7a16 16 0 0 0 4.9 5.5c5.5 3.6 14.6 3.2 22.6 0\"/><path class=\"hLine4\" d=\"M44 218.4c3.1 11 17.8 12.9 23.8 7.4\"/><path class=\"hLine3\" d=\"M63 184c2.8.6 6.8 7.7 6 15-1.5 13.9-10.7 17-15.9 18m-8.5-15.6c-2.1 3.3-11.5 7-17-.5\"/><path stroke=\"#000\" stroke-linecap=\"round\" stroke-miterlimit=\"10\" stroke-width=\"3\" d=\"M69.6 215.4s-.8-1.2-2.5-2c-3-1.5-4.7-.5-4.7-.5\"/>';\n        } else {\n            revert(); // Avoid warnings.\n        }\n    }\n\n    function _getHandsStyle(\n        HandsColors handsColor,\n        Body.BodyVariants bodyVariant,\n        Body.BodyColors bodyColor\n    ) internal pure returns (string memory) {\n        return\n            string.concat(\n                '<style>.handsColor {fill: ',\n                Skin.getSkinColor(Skin.SkinColors(uint8(handsColor))),\n                '}.armColor {fill: ',\n                _getArmColor(handsColor, bodyVariant, bodyColor),\n                '}.hLine3 {stroke: #000;stroke-linecap: round;stroke-linejoin: round;stroke-width: 3;}.hLine4 {stroke: #000;stroke-linecap: round;stroke-linejoin: round;stroke-width: 4;}</style>'\n            );\n    }\n\n    // Arm or sleeve color (depends on which clothing on body)\n    function _getArmColor(\n        HandsColors handsColor,\n        Body.BodyVariants bodyVariant,\n        Body.BodyColors bodyColor\n    ) internal pure returns (string memory) {\n        if (bodyVariant == Body.BodyVariants.HOODIE) {\n            return Body.getPrimaryBodyColor(bodyVariant, bodyColor);\n        } else if (bodyVariant == Body.BodyVariants.TSHIRT) {\n            return Skin.getSkinColor(Skin.SkinColors(uint8(handsColor)));\n        } else if (bodyVariant == Body.BodyVariants.TANKTOP) {\n            return Skin.getSkinColor(Skin.SkinColors(uint8(handsColor)));\n        } else if (bodyVariant == Body.BodyVariants.JACKET) {\n            return Body.getSecondaryBodyColor(bodyVariant, bodyColor);\n        } else if (bodyVariant == Body.BodyVariants.SHIBUYA) {\n            return Body.getSecondaryBodyColor(bodyVariant, bodyColor);\n        } else {\n            revert(); // Avoid warnings.\n        }\n    }\n}\n",
  "sourcePath": "E:\\Blockchain\\EDUIndex\\EduxContract\\contracts\\libraries\\svgs\\Profile\\Hands.sol",
  "compiler": {
    "name": "solc",
    "version": "0.8.20+commit.a1b79de6.Emscripten.clang"
  },
  "schemaVersion": "3.4.3",
  "updatedAt": "2024-08-25T13:13:21.630Z",
  "devdoc": {
    "kind": "dev",
    "methods": {},
    "version": 1
  },
  "userdoc": {
    "kind": "user",
    "methods": {},
    "version": 1
  }
}