{
  "contractName": "HeadwearHat",
  "abi": [
    {
      "inputs": [
        {
          "internalType": "enum HeadwearHat.HatColors",
          "name": "hatColor",
          "type": "HeadwearHat.HatColors"
        }
      ],
      "name": "getHat",
      "outputs": [
        {
          "internalType": "string",
          "name": "",
          "type": "string"
        },
        {
          "internalType": "enum Headwear.HeadwearVariants",
          "name": "",
          "type": "Headwear.HeadwearVariants"
        },
        {
          "internalType": "enum Headwear.HeadwearColors",
          "name": "",
          "type": "Headwear.HeadwearColors"
        }
      ],
      "stateMutability": "pure",
      "type": "function"
    }
  ],
  "bytecode": "0x61136061004e600b8282823980515f1a607314610042577f4e487b71000000000000000000000000000000000000000000000000000000005f525f60045260245ffd5b305f52607381538281f3fe7300000000000000000000000000000000000000003014608060405260043610610034575f3560e01c80639ed3e87c14610038575b5f80fd5b610052600480360381019061004d9190610551565b61006a565b604051610061939291906106bf565b60405180910390f35b60605f80610077846100ae565b60405160200161008791906111d0565b60405160208183030381529060405260026100a1866100ea565b9250925092509193909250565b60605f806100bb846101fb565b9150915081816040516020016100d29291906112de565b60405160208183030381529060405292505050919050565b5f8060048111156100fe576100fd610606565b5b82600481111561011157610110610606565b5b0361011f57600190506101f6565b6001600481111561013357610132610606565b5b82600481111561014657610145610606565b5b0361015457600490506101f6565b6002600481111561016857610167610606565b5b82600481111561017b5761017a610606565b5b0361018957600390506101f6565b6003600481111561019d5761019c610606565b5b8260048111156101b0576101af610606565b5b036101be57600290506101f6565b6004808111156101d1576101d0610606565b5b8260048111156101e4576101e3610606565b5b036101f257600590506101f6565b5f80fd5b919050565b6060805f600481111561021157610210610606565b5b83600481111561022457610223610606565b5b0361029e576040518060400160405280600781526020017f23393341393744000000000000000000000000000000000000000000000000008152506040518060400160405280600781526020017f234634464644430000000000000000000000000000000000000000000000000081525091509150610525565b600160048111156102b2576102b1610606565b5b8360048111156102c5576102c4610606565b5b0361033f576040518060400160405280600781526020017f23454141454337000000000000000000000000000000000000000000000000008152506040518060400160405280600781526020017f234646453746300000000000000000000000000000000000000000000000000081525091509150610525565b6002600481111561035357610352610606565b5b83600481111561036657610365610606565b5b036103e0576040518060400160405280600781526020017f23414342354444000000000000000000000000000000000000000000000000008152506040518060400160405280600781526020017f234543463046460000000000000000000000000000000000000000000000000081525091509150610525565b600360048111156103f4576103f3610606565b5b83600481111561040757610406610606565b5b03610481576040518060400160405280600781526020017f23433342334435000000000000000000000000000000000000000000000000008152506040518060400160405280600781526020017f234633454146460000000000000000000000000000000000000000000000000081525091509150610525565b60048081111561049457610493610606565b5b8360048111156104a7576104a6610606565b5b03610521576040518060400160405280600781526020017f23463843393434000000000000000000000000000000000000000000000000008152506040518060400160405280600781526020017f234646454539330000000000000000000000000000000000000000000000000081525091509150610525565b5f80fd5b915091565b5f80fd5b6005811061053a575f80fd5b50565b5f8135905061054b8161052e565b92915050565b5f602082840312156105665761056561052a565b5b5f6105738482850161053d565b91505092915050565b5f81519050919050565b5f82825260208201905092915050565b5f5b838110156105b3578082015181840152602081019050610598565b5f8484015250505050565b5f601f19601f8301169050919050565b5f6105d88261057c565b6105e28185610586565b93506105f2818560208601610596565b6105fb816105be565b840191505092915050565b7f4e487b71000000000000000000000000000000000000000000000000000000005f52602160045260245ffd5b6016811061064457610643610606565b5b50565b5f81905061065482610633565b919050565b5f61066382610647565b9050919050565b61067381610659565b82525050565b6006811061068a57610689610606565b5b50565b5f81905061069a82610679565b919050565b5f6106a98261068d565b9050919050565b6106b98161069f565b82525050565b5f6060820190508181035f8301526106d781866105ce565b90506106e6602083018561066a565b6106f360408301846106b0565b949350505050565b5f81905092915050565b7f3c73766720786d6c6e733d22687474703a2f2f7777772e77332e6f72672f32305f8201527f30302f737667222077696474683d2232313022206865696768743d223333352260208201527f2066696c6c3d226e6f6e65223e00000000000000000000000000000000000000604082015250565b5f610785604d836106fb565b915061079082610705565b604d82019050919050565b5f6107a58261057c565b6107af81856106fb565b93506107bf818560208601610596565b80840191505092915050565b7f3c7061746820636c6173733d226861744c696e6522207374726f6b652d7769645f8201527f74683d22342220643d224d39382036362e3573342e322d2e3520372d2e35633260208201527f2e36203020362e382e3520362e382e35222f3e3c7061746820636c6173733d2260408201527f686174436f6c6f72312220643d226d3135332e36203131332d2e3820322e362d60608201527f332e332d2e382d352e332d342e322d372e382d352d392e322d342e392d392e3160808201527f2d312d31302e362d31682d31306c2d313120324c3737203130346c2d31302e3660a08201527f20352e322d3820362e352d322d2e3820332d352e372e382d342e3220322e352d60c08201527f332e3220372e312d342e3120382e342d332e362031332e312d332e332031342e60e08201527f362d2e396831302e336c32332e3320362e3820382e3120352032203420342e316101008201527f20372e345a222f3e3c7061746820636c6173733d22686174436f6c6f723222206101208201527f643d226d36322e352039302e382d322e322031332e3820332e352d3363332d326101408201527f2e3420362e322d342e3420392e362d352e396c312e332d2e3520372e322d322e6101608201527f3620372e322d312e3920332e322d2e356139312039312030203020312031332d6101808201527f2e39683463352e342e342031302e3820312e3220313620322e356c31202e32206101a08201527f382e39203320332e3220312e3563332e3320312e3620362e3220332e3720382e6101c08201527f3920362e326c322e3220312e392d312e392d31332e382d322d372e386133302e6101e08201527f362033302e362030203020302d352d31302e396c2d2e362d2e37632d322d322e6102008201527f382d342e342d352e322d372d372e346c2d2e332d2e32632d322e342d322d352d6102208201527f332e362d372e382d356c2d312e312d2e356133372e322033372e3220302030206102408201527f302d31362e332d332e37483130322e386133362e392033362e392030203020306102608201527f2d313520332e326c2d312e392e386133392e342033392e342030203020302d316102808201527f352e312031324c36392e362037326132392e322032392e322030203020302d356102a08201527f2e312031302e386c2d3220385a222f3e3c706174682066696c6c3d22233030306102c08201527f222066696c6c2d6f7061636974793d222e312220643d226d36362e322039392e6102e08201527f392d362e3120352e3920322e332d31342e3220322e362d382e3820342e342d396103008201527f2e344c38302e35203632732d382e342031302e362d31312031372e35632d332e6103208201527f3620392e322d332e332032302e342d332e332032302e345a4d3134332e3920396103408201527f382e396c3620352e392d322e332d31342e322d322e362d382e382d342e342d396103608201527f2e342d31312d31312e3473382e332031302e362031312031372e35433134342e6103808201527f312038372e3720313434203939203134342039395a222f3e3c7061746820636c6103a08201527f6173733d22686174436f6c6f72322220643d224d3130352e332035342e34682d6103c08201527f3461312e3420312e342030203020312d312d322e326c2e322d2e34632e332d2e6103e08201527f332e362d2e3520312d2e366c2e352d2e33632e372d2e3320312e352d2e3420326104008201527f2e322d2e34483130352e39632e37203020312e3320302032202e336c2e372e336104208201527f632e342e322e382e3520312e3220316c2e322e3261312e3320312e33203020306104408201527f20312d3120322e31682d332e375a222f3e3c7061746820636c6173733d2268616104608201527f744c696e6522207374726f6b652d77696474683d22342220643d224d39392e386104808201527f2035342e34762d312e3963302d2e3420302d2e382e322d312e322e322d2e342e6104a08201527f352d2e3820312d316c2e312d2e3261392e3420392e34203020302031203820306104c08201527f6c2e322e31632e342e332e372e372e3920312e316c2e3220312e3276324d38356104e08201527f2035382e366c2d312e312e366133392e322033392e322030203020302d32302e6105008201527f342032362e32632d312e3520362e332d312e382031322e382d332031396c2d2e6105208201527f3420322e322d332e3820362e39632d2e3820312e352031203320322e3220326c6105408201527f382e312d362e3420322e352d312e3763342e352d322e3520392e322d342e36206105608201527f31342d362e336c2e382d2e322e342d2e316138352e372038352e3720302030206105808201527f312034312e392030682e336c2e382e336138392e352038392e352030203020316105a08201527f2031362e3420386c3820362e3463312e33203120332d2e3520322e322d326c2d6105c08201527f332e382d372d2e332d322e35632d312e322d362d312e342d31322e322d322e386105e08201527f2d31382e326133392e332033392e332030203020302d32302e352d32362e376c6106008201527f2d312d2e35632d352e372d322e392d31322d342e342d31382e332d342e34682d6106208201527f332e38632d362e3420302d31322e3720312e352d31382e3420342e345a222f3e6106408201527f3c7061746820636c6173733d22686174436f6c6f7231206861744c696e6522206106608201527f7374726f6b652d77696474683d22322e352220643d226d3130392e372037312e6106808201527f322d2e322e32762d2e37632d2e322d352e342d382e342d352e342d382e3520306106a08201527f762e376c2d2e332d2e332d2e332d2e32632d342d332e372d392e3720322d36206106c08201527f366c2e332e326131362e332031362e332030203020302031302e3520342e35736106e08201527f3620302031302e352d342e356c2e332d2e3363332e372d332e392d322d392e366107008201527f2d362d362030202e322d2e322e332d2e332e345a222f3e3c7061746820636c616107208201527f73733d226861744c696e6522207374726f6b652d77696474683d22332220643d6107408201527f224d36302e39203130362e357331332e362d31372e372034352d31372e3763336107608201527f312e3320302034332e362031372e372034332e362031372e37222f3e3c7061746107808201527f6820636c6173733d226861744c696e6522207374726f6b652d6f7061636974796107a08201527f3d222e3122207374726f6b652d77696474683d22342220643d224d35382e36206107c08201527f3131352e367331372e352d31342034362e372d31346332392e332030203435206107e08201527f3134203435203134222f3e3c2f7376673e00000000000000000000000000000061080082015250565b5f6111b9610811836106fb565b91506111c4826107cb565b61081182019050919050565b5f6111da82610779565b91506111e6828461079b565b91506111f1826111ac565b915081905092915050565b7f3c7374796c653e2e686174436f6c6f7231207b2066696c6c3a20000000000000815250565b7f207d2e686174436f6c6f7232207b2066696c6c3a200000000000000000000000815250565b7f207d2e6861744c696e65207b7374726f6b653a20626c61636b3b207374726f6b5f8201527f652d6c696e656361703a20726f756e643b207374726f6b652d6c696e656a6f6960208201527f6e3a20726f756e647d3c2f7374796c653e000000000000000000000000000000604082015250565b5f6112c86051836106fb565b91506112d382611248565b605182019050919050565b5f6112e8826111fc565b601a820191506112f8828561079b565b915061130382611222565b601582019150611313828461079b565b915061131e826112bc565b9150819050939250505056fea2646970667358221220d4926a245b591549f9480a1ced8bf19293acb2400e83f27501ba9a5b5f82da8064736f6c63430008140033",
  "immutableReferences": {},
  "source": "// SPDX-License-Identifier: MIT\npragma solidity ^0.8.0;\n\nimport {Headwear} from '../Headwear.sol';\nimport {EduxColors} from '../EduxColors.sol';\n\nlibrary HeadwearHat {\n    enum HatColors {\n        GREEN,\n        PINK,\n        BLUE,\n        PURPLE,\n        GOLD\n    }\n\n    // // we take the 13th byte from the left for hat color\n    // uint8 color = uint8((seed >> 152) & 0xFF) % 5;\n    function getHat(\n        HatColors hatColor\n    ) external pure returns (string memory, Headwear.HeadwearVariants, Headwear.HeadwearColors) {\n        return (\n            string.concat(\n                '<svg xmlns=\"http://www.w3.org/2000/svg\" width=\"210\" height=\"335\" fill=\"none\">',\n                _getHatStyle(hatColor),\n                '<path class=\"hatLine\" stroke-width=\"4\" d=\"M98 66.5s4.2-.5 7-.5c2.6 0 6.8.5 6.8.5\"/><path class=\"hatColor1\" d=\"m153.6 113-.8 2.6-3.3-.8-5.3-4.2-7.8-5-9.2-4.9-9.1-1-10.6-1h-10l-11 2L77 104l-10.6 5.2-8 6.5-2-.8 3-5.7.8-4.2 2.5-3.2 7.1-4.1 8.4-3.6 13.1-3.3 14.6-.9h10.3l23.3 6.8 8.1 5 2 4 4.1 7.4Z\"/><path class=\"hatColor2\" d=\"m62.5 90.8-2.2 13.8 3.5-3c3-2.4 6.2-4.4 9.6-5.9l1.3-.5 7.2-2.6 7.2-1.9 3.2-.5a91 91 0 0 1 13-.9h4c5.4.4 10.8 1.2 16 2.5l1 .2 8.9 3 3.2 1.5c3.3 1.6 6.2 3.7 8.9 6.2l2.2 1.9-1.9-13.8-2-7.8a30.6 30.6 0 0 0-5-10.9l-.6-.7c-2-2.8-4.4-5.2-7-7.4l-.3-.2c-2.4-2-5-3.6-7.8-5l-1.1-.5a37.2 37.2 0 0 0-16.3-3.7H102.8a36.9 36.9 0 0 0-15 3.2l-1.9.8a39.4 39.4 0 0 0-15.1 12L69.6 72a29.2 29.2 0 0 0-5.1 10.8l-2 8Z\"/><path fill=\"#000\" fill-opacity=\".1\" d=\"m66.2 99.9-6.1 5.9 2.3-14.2 2.6-8.8 4.4-9.4L80.5 62s-8.4 10.6-11 17.5c-3.6 9.2-3.3 20.4-3.3 20.4ZM143.9 98.9l6 5.9-2.3-14.2-2.6-8.8-4.4-9.4-11-11.4s8.3 10.6 11 17.5C144.1 87.7 144 99 144 99Z\"/><path class=\"hatColor2\" d=\"M105.3 54.4h-4a1.4 1.4 0 0 1-1-2.2l.2-.4c.3-.3.6-.5 1-.6l.5-.3c.7-.3 1.5-.4 2.2-.4H105.9c.7 0 1.3 0 2 .3l.7.3c.4.2.8.5 1.2 1l.2.2a1.3 1.3 0 0 1-1 2.1h-3.7Z\"/><path class=\"hatLine\" stroke-width=\"4\" d=\"M99.8 54.4v-1.9c0-.4 0-.8.2-1.2.2-.4.5-.8 1-1l.1-.2a9.4 9.4 0 0 1 8 0l.2.1c.4.3.7.7.9 1.1l.2 1.2v2M85 58.6l-1.1.6a39.2 39.2 0 0 0-20.4 26.2c-1.5 6.3-1.8 12.8-3 19l-.4 2.2-3.8 6.9c-.8 1.5 1 3 2.2 2l8.1-6.4 2.5-1.7c4.5-2.5 9.2-4.6 14-6.3l.8-.2.4-.1a85.7 85.7 0 0 1 41.9 0h.3l.8.3a89.5 89.5 0 0 1 16.4 8l8 6.4c1.3 1 3-.5 2.2-2l-3.8-7-.3-2.5c-1.2-6-1.4-12.2-2.8-18.2a39.3 39.3 0 0 0-20.5-26.7l-1-.5c-5.7-2.9-12-4.4-18.3-4.4h-3.8c-6.4 0-12.7 1.5-18.4 4.4Z\"/><path class=\"hatColor1 hatLine\" stroke-width=\"2.5\" d=\"m109.7 71.2-.2.2v-.7c-.2-5.4-8.4-5.4-8.5 0v.7l-.3-.3-.3-.2c-4-3.7-9.7 2-6 6l.3.2a16.3 16.3 0 0 0 10.5 4.5s6 0 10.5-4.5l.3-.3c3.7-3.9-2-9.6-6-6 0 .2-.2.3-.3.4Z\"/><path class=\"hatLine\" stroke-width=\"3\" d=\"M60.9 106.5s13.6-17.7 45-17.7c31.3 0 43.6 17.7 43.6 17.7\"/><path class=\"hatLine\" stroke-opacity=\".1\" stroke-width=\"4\" d=\"M58.6 115.6s17.5-14 46.7-14c29.3 0 45 14 45 14\"/></svg>'\n            ),\n            Headwear.HeadwearVariants.HAT,\n            _getHeadwearColor(hatColor)\n        );\n    }\n\n    function _getHatStyle(HatColors hatColor) internal pure returns (string memory) {\n        (string memory hatColor1, string memory hatColor2) = _getHatColor(hatColor);\n        return\n            string.concat(\n                '<style>.hatColor1 { fill: ',\n                hatColor1,\n                ' }.hatColor2 { fill: ',\n                hatColor2,\n                ' }.hatLine {stroke: black; stroke-linecap: round; stroke-linejoin: round}</style>'\n            );\n    }\n\n    function _getHatColor(HatColors hatColor) internal pure returns (string memory, string memory) {\n        if (hatColor == HatColors.GREEN) {\n            return (EduxColors.darkGreen, EduxColors.lightGreen);\n        } else if (hatColor == HatColors.PINK) {\n            return (EduxColors.darkPink, EduxColors.lightPink);\n        } else if (hatColor == HatColors.BLUE) {\n            return (EduxColors.darkBlue, EduxColors.lightBlue);\n        } else if (hatColor == HatColors.PURPLE) {\n            return (EduxColors.darkPurple, EduxColors.lightPurple);\n        } else if (hatColor == HatColors.GOLD) {\n            return (EduxColors.baseGold, EduxColors.lightGold);\n        } else {\n            revert(); // Avoid warnings.\n        }\n    }\n\n    function _getHeadwearColor(HatColors hatColor) internal pure returns (Headwear.HeadwearColors) {\n        if (hatColor == HatColors.GREEN) {\n            return Headwear.HeadwearColors.GREEN;\n        } else if (hatColor == HatColors.PINK) {\n            return Headwear.HeadwearColors.PINK;\n        } else if (hatColor == HatColors.BLUE) {\n            return Headwear.HeadwearColors.BLUE;\n        } else if (hatColor == HatColors.PURPLE) {\n            return Headwear.HeadwearColors.PURPLE;\n        } else if (hatColor == HatColors.GOLD) {\n            return Headwear.HeadwearColors.GOLD;\n        } else {\n            revert(); // Avoid warnings.\n        }\n    }\n}\n",
  "sourcePath": "E:\\Blockchain\\EDUIndex\\EduxContract\\contracts\\libraries\\svgs\\Profile\\Headwear\\HeadwearHat.sol",
  "compiler": {
    "name": "solc",
    "version": "0.8.20+commit.a1b79de6.Emscripten.clang"
  },
  "schemaVersion": "3.4.3",
  "updatedAt": "2024-08-25T13:13:21.839Z",
  "devdoc": {
    "kind": "dev",
    "methods": {},
    "version": 1
  },
  "userdoc": {
    "kind": "user",
    "methods": {},
    "version": 1
  }
}