{
  "contractName": "HeadwearFloral",
  "abi": [
    {
      "inputs": [
        {
          "internalType": "enum HeadwearFloral.FloralColors",
          "name": "floralColor",
          "type": "HeadwearFloral.FloralColors"
        }
      ],
      "name": "getFloral",
      "outputs": [
        {
          "internalType": "string",
          "name": "",
          "type": "string"
        },
        {
          "internalType": "enum Headwear.HeadwearVariants",
          "name": "",
          "type": "Headwear.HeadwearVariants"
        },
        {
          "internalType": "enum Headwear.HeadwearColors",
          "name": "",
          "type": "Headwear.HeadwearColors"
        }
      ],
      "stateMutability": "pure",
      "type": "function"
    }
  ],
  "bytecode": "0x61164e61004e600b8282823980515f1a607314610042577f4e487b71000000000000000000000000000000000000000000000000000000005f525f60045260245ffd5b305f52607381538281f3fe7300000000000000000000000000000000000000003014608060405260043610610034575f3560e01c80630f19270e14610038575b5f80fd5b610052600480360381019061004d9190610551565b61006a565b604051610061939291906106bf565b60405180910390f35b60605f80610077846100ae565b604051602001610087919061152a565b60405160208183030381529060405260066100a1866100ea565b9250925092509193909250565b60605f806100bb846101fb565b9150915081816040516020016100d29291906115c8565b60405160208183030381529060405292505050919050565b5f8060048111156100fe576100fd610606565b5b82600481111561011157610110610606565b5b0361011f57600190506101f6565b6002600481111561013357610132610606565b5b82600481111561014657610145610606565b5b0361015457600290506101f6565b6003600481111561016857610167610606565b5b82600481111561017b5761017a610606565b5b0361018957600390506101f6565b6001600481111561019d5761019c610606565b5b8260048111156101b0576101af610606565b5b036101be57600490506101f6565b6004808111156101d1576101d0610606565b5b8260048111156101e4576101e3610606565b5b036101f257600590506101f6565b5f80fd5b919050565b6060805f600481111561021157610210610606565b5b83600481111561022457610223610606565b5b0361029e576040518060400160405280600781526020017f23463446464443000000000000000000000000000000000000000000000000008152506040518060400160405280600781526020017f234130443137300000000000000000000000000000000000000000000000000081525091509150610525565b600260048111156102b2576102b1610606565b5b8360048111156102c5576102c4610606565b5b0361033f576040518060400160405280600781526020017f23463345414646000000000000000000000000000000000000000000000000008152506040518060400160405280600781526020017f234541443746460000000000000000000000000000000000000000000000000081525091509150610525565b6003600481111561035357610352610606565b5b83600481111561036657610365610606565b5b036103e0576040518060400160405280600781526020017f23454346304646000000000000000000000000000000000000000000000000008152506040518060400160405280600781526020017f234439453046460000000000000000000000000000000000000000000000000081525091509150610525565b600160048111156103f4576103f3610606565b5b83600481111561040757610406610606565b5b03610481576040518060400160405280600781526020017f23464645374630000000000000000000000000000000000000000000000000008152506040518060400160405280600781526020017f234646443244440000000000000000000000000000000000000000000000000081525091509150610525565b60048081111561049457610493610606565b5b8360048111156104a7576104a6610606565b5b03610521576040518060400160405280600781526020017f23464645453933000000000000000000000000000000000000000000000000008152506040518060400160405280600781526020017f234638433934340000000000000000000000000000000000000000000000000081525091509150610525565b5f80fd5b915091565b5f80fd5b6005811061053a575f80fd5b50565b5f8135905061054b8161052e565b92915050565b5f602082840312156105665761056561052a565b5b5f6105738482850161053d565b91505092915050565b5f81519050919050565b5f82825260208201905092915050565b5f5b838110156105b3578082015181840152602081019050610598565b5f8484015250505050565b5f601f19601f8301169050919050565b5f6105d88261057c565b6105e28185610586565b93506105f2818560208601610596565b6105fb816105be565b840191505092915050565b7f4e487b71000000000000000000000000000000000000000000000000000000005f52602160045260245ffd5b6016811061064457610643610606565b5b50565b5f81905061065482610633565b919050565b5f61066382610647565b9050919050565b61067381610659565b82525050565b6006811061068a57610689610606565b5b50565b5f81905061069a82610679565b919050565b5f6106a98261068d565b9050919050565b6106b98161069f565b82525050565b5f6060820190508181035f8301526106d781866105ce565b90506106e6602083018561066a565b6106f360408301846106b0565b949350505050565b5f81905092915050565b7f3c73766720786d6c6e733d22687474703a2f2f7777772e77332e6f72672f32305f8201527f30302f737667222077696474683d2232313022206865696768743d223333352260208201527f2066696c6c3d226e6f6e65223e00000000000000000000000000000000000000604082015250565b5f610785604d836106fb565b915061079082610705565b604d82019050919050565b5f6107a58261057c565b6107af81856106fb565b93506107bf818560208601610596565b80840191505092915050565b7f3c7061746820636c6173733d22666c6f72616c436f6c6f72322220643d224d315f8201527f37302e332036322e35613920392030203020312d332e362031352e322039203960208201527f2030203020312d382d312e366c2d31322e3820372e31632d322e382d2e322d3560408201527f2e362e332d382e3420312e3320342e322d312e3720372e362d352e3220392e3260608201527f2d392e346c392e382d35632d2e392d332e352e392d372e3420342d3920332e3160808201527f2d312e3720372e332d3120392e3820312e345a4d36342e312038332e326c2d3160a08201527f322e382d372e31613920392030203020312d3820312e3520392039203020302060c08201527f312d352e372d352e3420392e3320392e3320302030203120322d392e3720392060e08201527f3920302030203120392e392d312e3420382e3220382e322030203020312034206101008201527f396c392e38203563312e3620342e32203520372e3720392e3220392e342d322e6101208201527f382d312d352e362d312e352d382e342d312e335a222f3e3c7061746820636c616101408201527f73733d22666c6f72616c436f6c6f72312220643d224d36372e362039332e37636101608201527f2e372d332e3620312e382d362e3820332e322d392e376131372e312031372e316101808201527f2030203020302d31312e392e342031382e382031382e382030203020302d382e6101a08201527f3720372e38632e362e3220322e392e32203820332e3220352e32203320382e376101c08201527f203720382e37203773302d352e322e372d382e375a6d37342e372030632d2e366101e08201527f2d332e352d312e372d362e382d332e322d392e376132302032302030203020316102008201527f20362e382d2e3863312e382e3120332e362e3520352e3320312e3220332e35206102208201527f312e3420362e3720342e3520382e3620372e382d2e362e322d322e392e322d386102408201527f20332e32732d382e3720362e392d382e3720362e392d2e312d352d2e382d382e6102608201527f365a4d37392e332037336133392e362033392e362030203020312032352e372d6102808201527f3963392e3320302031382e3620332032352e38203920332e33203320362e32206102a08201527f362e3520382e332031302e376131362e382031362e3820302030203020382e326102c08201527f2d31302e3463312e312d352d2e342d31302e362d342e322d31346131342e36206102e08201527f31342e362030203020302d31352d322e346c322d3320382e322d31322e3463346103008201527f2e372e3520382e362d332e3320392e352d372e3320312d342d312e332d382e346103208201527f2d352d31302e3261392e3420392e342030203020302d313120322e3620382e366103408201527f20382e362030203020302d2e312031302e396c2d392e352031342e39613139206103608201527f31392030203020302d31372e322d392031392e342031392e342030203020302d6103808201527f31372e322039203138363120313836312030203020312d392e352d313520382e6103a08201527f3720382e3720302030203020302d31302e3841392e3420392e342030203020306103c08201527f2036372e3120323461392e3420392e342030203020302d352031302e32632e396103e08201527f203420342e3820372e3820392e3520372e334c38302035332e386c3220332e316104008201527f6131342e362031342e362030203020302d313520322e332031342e382031342e6104208201527f382030203020302d332e3620313663312e3420332e3620342e3220362e3720376104408201527f2e3620382e3520322e312d342e3220352d372e3720382e342d31302e365a222f6104608201527f3e3c7061746820636c6173733d22666c6f72616c436f6c6f72322220643d226d6104808201527f37312e372034322e312031372e3320323520332e332d312e3220332e362d314c6104a08201527f37392033382e34762d312e386c312d362e322d322e392d362d352e342d312e356104c08201527f2d342e3920312e352d3420342e332d3120342e3720322e34203520372e3520336104e08201527f2e385a6d36362e3320302d31372e332032352d332e322d312e322d332e362d316105008201527f2031362e382d32362e36762d312e386c2d2e392d362e3220322e382d3620352e6105208201527f352d312e3520342e3820312e35203420342e3320312e3120342e372d322e34206105408201527f352d372e3520332e385a222f3e3c70617468207374726f6b653d2223303030226105608201527f207374726f6b652d6c696e656361703d22726f756e6422207374726f6b652d6c6105808201527f696e656a6f696e3d22726f756e6422207374726f6b652d77696474683d2234226105a08201527f20643d224d34392e352039332e3673302030203020306131372e342031372e346105c08201527f2030203020312032332d392031362e382031362e382030203020312d392e382d6105e08201527f31312e33632d312e322d35202e342d31302e3620342e322d31346131342e36206106008201527f31342e362030203020312031352d322e346d2d382031312e3520352e3520352e6106208201527f386d2d32382e3120312e392031322e3820372e31222f3e3c70617468207374726106408201527f6f6b653d222330303022207374726f6b652d6c696e656361703d22726f756e646106608201527f22207374726f6b652d6c696e656a6f696e3d22726f756e6422207374726f6b656106808201527f2d77696474683d22342220643d224d36332e332037352e3173302030203020306106a08201527f6c2d392e382d35632e392d332e352d312d372e342d342d3961382e3720382e376106c08201527f2030203020302d392e3820312e3420392e3320392e332030203020302d322e316106e08201527f20392e372039203920302030203020352e3720352e34203920392030203020306107008201527f20382d312e356d32302e342d33342e364c38322035362e396c372e342031312e6107208201527f33222f3e3c70617468207374726f6b653d222330303022207374726f6b652d6c6107408201527f696e656361703d22726f756e6422207374726f6b652d6c696e656a6f696e3d226107608201527f726f756e6422207374726f6b652d77696474683d22342220643d226d39362e376107808201527f2036362e332d392d31342d392e342d31342e3861382e3720382e3720302030206107a08201527f302d2e312d31302e3920392e3420392e342030203020302d31312d322e3620396107c08201527f2e3420392e342030203020302d352031302e32632e39203420342e3820372e386107e08201527f20392e3520372e33222f3e3c70617468207374726f6b653d22233030302220736108008201527f74726f6b652d6c696e656361703d22726f756e6422207374726f6b652d6c696e6108208201527f656a6f696e3d22726f756e6422207374726f6b652d77696474683d22342220646108408201527f3d224d38372e382035322e346131392031392030203020312031372e322d396d6108608201527f3020397631332e326d35352e3520323873302030203020306131372e342031376108808201527f2e342030203020302d32332d392031362e382031362e3820302030203020392e6108a08201527f372d31312e3363312e322d352d2e332d31302e362d342e312d31346131342e366108c08201527f2031342e362030203020302d31352d322e346d382031312e352d352e3520352e6108e08201527f386d32382e3120312e392d31322e3820372e31222f3e3c70617468207374726f6109008201527f6b653d222330303022207374726f6b652d6c696e656361703d22726f756e64226109208201527f207374726f6b652d6c696e656a6f696e3d22726f756e6422207374726f6b652d6109408201527f77696474683d22342220643d226d3134362e372037352e3120392e382d35632d6109608201527f2e392d332e352e392d372e3420342d3920332e312d312e3720372e332d3120396109808201527f2e3820312e34613920392030203020312d332e362031352e32203920392030206109a08201527f3020312d382d312e366d2d32302e342d33342e364c3132382035362e396c2d376109c08201527f2e352031312e33222f3e3c70617468207374726f6b653d2223303030222073746109e08201527f726f6b652d6c696e656361703d22726f756e6422207374726f6b652d6c696e65610a008201527f6a6f696e3d22726f756e6422207374726f6b652d77696474683d22342220643d610a208201527f226d3132322e322035322e3420392e352d313561382e3620382e362030203020610a408201527f3120302d31302e3820392e3420392e342030203020312031312e312d322e3620610a608201527f392e3420392e3420302030203120352031302e32632d2e3920342d342e382037610a808201527f2e382d392e3520372e336d2d32352032342e3820392d31346d2d2e312e316131610aa08201527f392031392030203020302d31372e322d39222f3e3c2f7376673e000000000000610ac082015250565b5f611513610ada836106fb565b915061151e826107cb565b610ada82019050919050565b5f61153482610779565b9150611540828461079b565b915061154b82611506565b915081905092915050565b7f3c7374796c653e2e666c6f72616c436f6c6f7231207b2066696c6c3a00000000815250565b7f7d2e666c6f72616c436f6c6f7232207b2066696c6c3a00000000000000000000815250565b7f7d3c2f7374796c653e0000000000000000000000000000000000000000000000815250565b5f6115d282611556565b601c820191506115e2828561079b565b91506115ed8261157c565b6016820191506115fd828461079b565b9150611608826115a2565b600982019150819050939250505056fea2646970667358221220819812c8815e53132297a286217911752cc8e369110eee320eaea959a500980b64736f6c63430008140033",
  "immutableReferences": {},
  "source": "// SPDX-License-Identifier: MIT\npragma solidity ^0.8.0;\n\nimport {Headwear} from '../Headwear.sol';\nimport {EduxColors} from '../EduxColors.sol';\n\nlibrary HeadwearFloral {\n    enum FloralColors {\n        GREEN,\n        PINK,\n        PURPLE,\n        BLUE,\n        GOLD\n    }\n\n    function getFloral(\n        FloralColors floralColor\n    ) external pure returns (string memory, Headwear.HeadwearVariants, Headwear.HeadwearColors) {\n        return (\n            string.concat(\n                '<svg xmlns=\"http://www.w3.org/2000/svg\" width=\"210\" height=\"335\" fill=\"none\">',\n                _getFloralStyle(floralColor),\n                '<path class=\"floralColor2\" d=\"M170.3 62.5a9 9 0 0 1-3.6 15.2 9 9 0 0 1-8-1.6l-12.8 7.1c-2.8-.2-5.6.3-8.4 1.3 4.2-1.7 7.6-5.2 9.2-9.4l9.8-5c-.9-3.5.9-7.4 4-9 3.1-1.7 7.3-1 9.8 1.4ZM64.1 83.2l-12.8-7.1a9 9 0 0 1-8 1.5 9 9 0 0 1-5.7-5.4 9.3 9.3 0 0 1 2-9.7 9 9 0 0 1 9.9-1.4 8.2 8.2 0 0 1 4 9l9.8 5c1.6 4.2 5 7.7 9.2 9.4-2.8-1-5.6-1.5-8.4-1.3Z\"/><path class=\"floralColor1\" d=\"M67.6 93.7c.7-3.6 1.8-6.8 3.2-9.7a17.1 17.1 0 0 0-11.9.4 18.8 18.8 0 0 0-8.7 7.8c.6.2 2.9.2 8 3.2 5.2 3 8.7 7 8.7 7s0-5.2.7-8.7Zm74.7 0c-.6-3.5-1.7-6.8-3.2-9.7a20 20 0 0 1 6.8-.8c1.8.1 3.6.5 5.3 1.2 3.5 1.4 6.7 4.5 8.6 7.8-.6.2-2.9.2-8 3.2s-8.7 6.9-8.7 6.9-.1-5-.8-8.6ZM79.3 73a39.6 39.6 0 0 1 25.7-9c9.3 0 18.6 3 25.8 9 3.3 3 6.2 6.5 8.3 10.7a16.8 16.8 0 0 0 8.2-10.4c1.1-5-.4-10.6-4.2-14a14.6 14.6 0 0 0-15-2.4l2-3 8.2-12.4c4.7.5 8.6-3.3 9.5-7.3 1-4-1.3-8.4-5-10.2a9.4 9.4 0 0 0-11 2.6 8.6 8.6 0 0 0-.1 10.9l-9.5 14.9a19 19 0 0 0-17.2-9 19.4 19.4 0 0 0-17.2 9 1861 1861 0 0 1-9.5-15 8.7 8.7 0 0 0 0-10.8A9.4 9.4 0 0 0 67.1 24a9.4 9.4 0 0 0-5 10.2c.9 4 4.8 7.8 9.5 7.3L80 53.8l2 3.1a14.6 14.6 0 0 0-15 2.3 14.8 14.8 0 0 0-3.6 16c1.4 3.6 4.2 6.7 7.6 8.5 2.1-4.2 5-7.7 8.4-10.6Z\"/><path class=\"floralColor2\" d=\"m71.7 42.1 17.3 25 3.3-1.2 3.6-1L79 38.4v-1.8l1-6.2-2.9-6-5.4-1.5-4.9 1.5-4 4.3-1 4.7 2.4 5 7.5 3.8Zm66.3 0-17.3 25-3.2-1.2-3.6-1 16.8-26.6v-1.8l-.9-6.2 2.8-6 5.5-1.5 4.8 1.5 4 4.3 1.1 4.7-2.4 5-7.5 3.8Z\"/><path stroke=\"#000\" stroke-linecap=\"round\" stroke-linejoin=\"round\" stroke-width=\"4\" d=\"M49.5 93.6s0 0 0 0a17.4 17.4 0 0 1 23-9 16.8 16.8 0 0 1-9.8-11.3c-1.2-5 .4-10.6 4.2-14a14.6 14.6 0 0 1 15-2.4m-8 11.5 5.5 5.8m-28.1 1.9 12.8 7.1\"/><path stroke=\"#000\" stroke-linecap=\"round\" stroke-linejoin=\"round\" stroke-width=\"4\" d=\"M63.3 75.1s0 0 0 0l-9.8-5c.9-3.5-1-7.4-4-9a8.7 8.7 0 0 0-9.8 1.4 9.3 9.3 0 0 0-2.1 9.7 9 9 0 0 0 5.7 5.4 9 9 0 0 0 8-1.5m20.4-34.6L82 56.9l7.4 11.3\"/><path stroke=\"#000\" stroke-linecap=\"round\" stroke-linejoin=\"round\" stroke-width=\"4\" d=\"m96.7 66.3-9-14-9.4-14.8a8.7 8.7 0 0 0-.1-10.9 9.4 9.4 0 0 0-11-2.6 9.4 9.4 0 0 0-5 10.2c.9 4 4.8 7.8 9.5 7.3\"/><path stroke=\"#000\" stroke-linecap=\"round\" stroke-linejoin=\"round\" stroke-width=\"4\" d=\"M87.8 52.4a19 19 0 0 1 17.2-9m0 9v13.2m55.5 28s0 0 0 0a17.4 17.4 0 0 0-23-9 16.8 16.8 0 0 0 9.7-11.3c1.2-5-.3-10.6-4.1-14a14.6 14.6 0 0 0-15-2.4m8 11.5-5.5 5.8m28.1 1.9-12.8 7.1\"/><path stroke=\"#000\" stroke-linecap=\"round\" stroke-linejoin=\"round\" stroke-width=\"4\" d=\"m146.7 75.1 9.8-5c-.9-3.5.9-7.4 4-9 3.1-1.7 7.3-1 9.8 1.4a9 9 0 0 1-3.6 15.2 9 9 0 0 1-8-1.6m-20.4-34.6L128 56.9l-7.5 11.3\"/><path stroke=\"#000\" stroke-linecap=\"round\" stroke-linejoin=\"round\" stroke-width=\"4\" d=\"m122.2 52.4 9.5-15a8.6 8.6 0 0 1 0-10.8 9.4 9.4 0 0 1 11.1-2.6 9.4 9.4 0 0 1 5 10.2c-.9 4-4.8 7.8-9.5 7.3m-25 24.8 9-14m-.1.1a19 19 0 0 0-17.2-9\"/></svg>'\n            ),\n            Headwear.HeadwearVariants.FLORAL,\n            _getHeadwearColor(floralColor)\n        );\n    }\n\n    function _getFloralStyle(FloralColors floralColor) internal pure returns (string memory) {\n        (string memory primaryColor, string memory secondaryColor) = _getFloralColor(floralColor);\n        return\n            string.concat(\n                '<style>.floralColor1 { fill:',\n                primaryColor,\n                '}.floralColor2 { fill:',\n                secondaryColor,\n                '}</style>'\n            );\n    }\n\n    function _getFloralColor(FloralColors floralColor) internal pure returns (string memory, string memory) {\n        if (floralColor == FloralColors.GREEN) {\n            return (EduxColors.lightGreen, EduxColors.baseGreen);\n        } else if (floralColor == FloralColors.PURPLE) {\n            return (EduxColors.lightPurple, EduxColors.basePurple);\n        } else if (floralColor == FloralColors.BLUE) {\n            return (EduxColors.lightBlue, EduxColors.baseBlue);\n        } else if (floralColor == FloralColors.PINK) {\n            return (EduxColors.lightPink, EduxColors.basePink);\n        } else if (floralColor == FloralColors.GOLD) {\n            return (EduxColors.lightGold, EduxColors.baseGold);\n        } else {\n            revert(); // Avoid warnings.\n        }\n    }\n\n    function _getHeadwearColor(FloralColors floralColor) internal pure returns (Headwear.HeadwearColors) {\n        if (floralColor == FloralColors.GREEN) {\n            return Headwear.HeadwearColors.GREEN;\n        } else if (floralColor == FloralColors.PURPLE) {\n            return Headwear.HeadwearColors.PURPLE;\n        } else if (floralColor == FloralColors.BLUE) {\n            return Headwear.HeadwearColors.BLUE;\n        } else if (floralColor == FloralColors.PINK) {\n            return Headwear.HeadwearColors.PINK;\n        } else if (floralColor == FloralColors.GOLD) {\n            return Headwear.HeadwearColors.GOLD;\n        } else {\n            revert(); // Avoid warnings.\n        }\n    }\n}\n",
  "sourcePath": "E:\\Blockchain\\EDUIndex\\EduxContract\\contracts\\libraries\\svgs\\Profile\\Headwear\\HeadwearFloral.sol",
  "compiler": {
    "name": "solc",
    "version": "0.8.20+commit.a1b79de6.Emscripten.clang"
  },
  "schemaVersion": "3.4.3",
  "updatedAt": "2024-08-25T13:13:21.814Z",
  "devdoc": {
    "kind": "dev",
    "methods": {},
    "version": 1
  },
  "userdoc": {
    "kind": "user",
    "methods": {},
    "version": 1
  }
}