{
  "contractName": "HeadwearNightcap",
  "abi": [
    {
      "inputs": [
        {
          "internalType": "enum HeadwearNightcap.NightcapColors",
          "name": "nightcapColor",
          "type": "HeadwearNightcap.NightcapColors"
        }
      ],
      "name": "getNightcap",
      "outputs": [
        {
          "internalType": "string",
          "name": "",
          "type": "string"
        },
        {
          "internalType": "enum Headwear.HeadwearVariants",
          "name": "",
          "type": "Headwear.HeadwearVariants"
        },
        {
          "internalType": "enum Headwear.HeadwearColors",
          "name": "",
          "type": "Headwear.HeadwearColors"
        }
      ],
      "stateMutability": "pure",
      "type": "function"
    }
  ],
  "bytecode": "0x6115ab61004e600b8282823980515f1a607314610042577f4e487b71000000000000000000000000000000000000000000000000000000005f525f60045260245ffd5b305f52607381538281f3fe7300000000000000000000000000000000000000003014608060405260043610610034575f3560e01c806373a0e63514610038575b5f80fd5b610052600480360381019061004d919061042d565b61006a565b6040516100619392919061059b565b60405180910390f35b60605f80610077846100ae565b60405160200161008791906114c9565b60405160208183030381529060405260096100a1866100df565b9250925092509193909250565b60606100b9826101f0565b6040516020016100c99190611541565b6040516020818303038152906040529050919050565b5f8060048111156100f3576100f26104e2565b5b826004811115610106576101056104e2565b5b0361011457600190506101eb565b60016004811115610128576101276104e2565b5b82600481111561013b5761013a6104e2565b5b0361014957600490506101eb565b6002600481111561015d5761015c6104e2565b5b8260048111156101705761016f6104e2565b5b0361017e57600290506101eb565b60036004811115610192576101916104e2565b5b8260048111156101a5576101a46104e2565b5b036101b357600390506101eb565b6004808111156101c6576101c56104e2565b5b8260048111156101d9576101d86104e2565b5b036101e757600590506101eb565b5f80fd5b919050565b60605f6004811115610205576102046104e2565b5b826004811115610218576102176104e2565b5b0361025a576040518060400160405280600781526020017f23463446464443000000000000000000000000000000000000000000000000008152509050610401565b6001600481111561026e5761026d6104e2565b5b826004811115610281576102806104e2565b5b036102c3576040518060400160405280600781526020017f23464645374630000000000000000000000000000000000000000000000000008152509050610401565b600260048111156102d7576102d66104e2565b5b8260048111156102ea576102e96104e2565b5b0361032c576040518060400160405280600781526020017f23463345414646000000000000000000000000000000000000000000000000008152509050610401565b600360048111156103405761033f6104e2565b5b826004811115610353576103526104e2565b5b03610395576040518060400160405280600781526020017f23454346304646000000000000000000000000000000000000000000000000008152509050610401565b6004808111156103a8576103a76104e2565b5b8260048111156103bb576103ba6104e2565b5b036103fd576040518060400160405280600781526020017f23464645453933000000000000000000000000000000000000000000000000008152509050610401565b5f80fd5b919050565b5f80fd5b60058110610416575f80fd5b50565b5f813590506104278161040a565b92915050565b5f6020828403121561044257610441610406565b5b5f61044f84828501610419565b91505092915050565b5f81519050919050565b5f82825260208201905092915050565b5f5b8381101561048f578082015181840152602081019050610474565b5f8484015250505050565b5f601f19601f8301169050919050565b5f6104b482610458565b6104be8185610462565b93506104ce818560208601610472565b6104d78161049a565b840191505092915050565b7f4e487b71000000000000000000000000000000000000000000000000000000005f52602160045260245ffd5b601681106105205761051f6104e2565b5b50565b5f8190506105308261050f565b919050565b5f61053f82610523565b9050919050565b61054f81610535565b82525050565b60068110610566576105656104e2565b5b50565b5f81905061057682610555565b919050565b5f61058582610569565b9050919050565b6105958161057b565b82525050565b5f6060820190508181035f8301526105b381866104aa565b90506105c26020830185610546565b6105cf604083018461058c565b949350505050565b5f81905092915050565b7f3c73766720786d6c6e733d22687474703a2f2f7777772e77332e6f72672f32305f8201527f30302f737667222077696474683d2232313022206865696768743d223333352260208201527f2066696c6c3d226e6f6e65223e00000000000000000000000000000000000000604082015250565b5f610661604d836105d7565b915061066c826105e1565b604d82019050919050565b5f61068182610458565b61068b81856105d7565b935061069b818560208601610472565b80840191505092915050565b7f3c7061746820636c6173733d226e69676874636170436f6c6f72312220643d225f8201527f4d3136302e3420313131632d332d2e322d362e312e382d382e3620322e36613960208201527f342e362039342e362030203020302d31312e312d31392e382037352e3220373560408201527f2e322030203020312d37322d2e3563302d39202e332d313920342e362d32374160608201527f34302e362034302e362030203020312039392e392034386134382e342034382e60808201527f3420302030203120333520332e372034372e352034372e35203020302031203260a08201527f302e35203236203132322031323220302030203120352e322033332e34682d2e60c08201527f325a222f3e3c706174682066696c6c3d22236666662220643d224d3136302e3660e08201527f2031313163352e362e332031302e3920342e342031322e3320392e3720312e356101008201527f20352e332d2e392031312e342d352e362031342e352d342e3820332d31312e356101208201527f20322e372d31362d2e386131332e332031332e332030203020312d342e312d316101408201527f352031332e392031332e392030203020312031332e332d382e355a6d2d39322d6101608201527f31372e376137352e322037352e32203020302030203732202e3563322e3420336101808201527f2e3320342e3620362e3720362e362031302e336139352039352030203020312d6101a08201527f34312e382031302e36632d3134202e312d32382d332e322d34302d31302d312e6101c08201527f312d342d2e342d382e3220322e332d31312e396c31202e355a222f3e3c7061746101e08201527f68207374726f6b653d222330303022207374726f6b652d6c696e656361703d226102008201527f726f756e6422207374726f6b652d6c696e656a6f696e3d22726f756e642220736102208201527f74726f6b652d77696474683d22342220643d224d3134372e32203130347330206102408201527f30203020306139352039352030203020312d34312e382031302e37632d3134206102608201527f2e312d32382d332e322d34302d31302d312e312d342d2e342d382e3220322e336102808201527f2d31312e396c31202e356137352e322037352e32203020302030203732202e356102a08201527f222f3e3c70617468207374726f6b653d222330303022207374726f6b652d6c696102c08201527f6e656361703d22726f756e6422207374726f6b652d6c696e656a6f696e3d22726102e08201527f6f756e6422207374726f6b652d77696474683d22342220643d224d3133312e336103008201527f2038322e37613130342e33203130342e332030203020312032302e35203331226103208201527f2f3e3c70617468207374726f6b653d222330303022207374726f6b652d6c696e6103408201527f656361703d22726f756e6422207374726f6b652d6c696e656a6f696e3d22726f6103608201527f756e6422207374726f6b652d77696474683d22342220643d224d36382e3620396103808201527f332e347630632e322d39202e342d313920342e372d32376134302e362034302e6103a08201527f362030203020312032362e362d31382e352034382e342034382e3420302030206103c08201527f3120333520332e372034372e352034372e352030203020312032302e352032366103e08201527f203132322031323220302030203120352e322033332e3463352e362e332031306104008201527f2e3920342e342031322e3320392e3720312e3520352e332d2e392031312e342d6104208201527f352e362031342e352d342e3820332d31312e3520322e372d31362d2e386131336104408201527f2e332031332e332030203020312d342e312d31352031332e392031332e3920306104608201527f203020312031332e332d382e35222f3e3c706174682066696c6c3d22236666666104808201527f2220643d224d39302035392e32613420342030203120312030203820342034206104a08201527f302030203120302d385a222f3e3c706174682066696c6c3d22236666662220736104c08201527f74726f6b653d222330303022207374726f6b652d6c696e656361703d22726f756104e08201527f6e6422207374726f6b652d6c696e656a6f696e3d22726f756e6422207374726f6105008201527f6b652d77696474683d22332220643d224d38362036332e3261342034203020316105208201527f203120382e312030203420342030203020312d3820305a222f3e3c70617468206105408201527f66696c6c3d22236666662220643d224d37332038322e3761332e3420332e34206105608201527f3020312031203020362e3820332e3420332e3420302030203120302d362e385a6105808201527f222f3e3c706174682066696c6c3d222366666622207374726f6b653d222330306105a08201527f3022207374726f6b652d6c696e656361703d22726f756e6422207374726f6b656105c08201527f2d6c696e656a6f696e3d22726f756e6422207374726f6b652d77696474683d226105e08201527f332220643d224d36392e3620383661332e3420332e3420302031203120362e386106008201527f203020332e3420332e342030203020312d362e3820305a222f3e3c70617468206106208201527f66696c6c3d22236666662220643d224d3134362e3320383161322e3420322e346106408201527f203020312031203020342e3720322e3420322e3420302030203120302d342e386106608201527f5a222f3e3c706174682066696c6c3d222366666622207374726f6b653d2223306106808201527f303022207374726f6b652d6c696e656361703d22726f756e6422207374726f6b6106a08201527f652d6c696e656a6f696e3d22726f756e6422207374726f6b652d77696474683d6106c08201527f22332220643d224d3134342038332e3361322e3420322e3420302031203120346106e08201527f2e37203020322e3420322e342030203020312d342e3820305a222f3e3c7061746107008201527f682066696c6c3d22236666662220643d224d3130352e372034372e3463312e376107208201527f2d2e3220332e332e3820332e3520322e342e3220312e352d3120332d322e38206107408201527f332e322d312e382e322d332e342d2e392d332e352d322e342d2e322d312e36206107608201527f312d3320322e382d332e325a222f3e3c706174682066696c6c3d2223666666226107808201527f207374726f6b653d222330303022207374726f6b652d6c696e656361703d22726107a08201527f6f756e6422207374726f6b652d6c696e656a6f696e3d22726f756e64222073746107c08201527f726f6b652d77696474683d22332220643d224d3130322e392035302e36632d2e6107e08201527f322d312e3620312d3320322e382d332e3220312e372d2e3220332e332e3820336108008201527f2e3520322e342e3220312e352d3120332d322e3820332e322d312e382e322d336108208201527f2e342d2e392d332e352d322e345a222f3e3c706174682066696c6c3d222366666108408201527f6622207374726f6b653d222330303022207374726f6b652d6c696e656361703d6108608201527f22726f756e6422207374726f6b652d77696474683d22332220643d224d3131336108808201527f2e372035382e33632e392d2e3320312e352e39203120312e3761382e3420382e6108a08201527f342030203020302d2e33203720382e3320382e332030203020302031312e35206108c08201527f342e32632e392d2e342032202e3220312e3720316131312031312030203120316108e08201527f2d31342d31345a4d39302e3620383668305a6d30203068306d30203068306d306109008201527f203068305a6d31302e322d32683061362e3620362e362030203020312d342e336109208201527f2d332e38632d2e362d312e342d322e372d312e342d33202e32683061362036206109408201527f30203020312d332e3420342e326830632d312e342e362d312e3220322e352e316109608201527f20322e39683063312e392e3520332e3520312e3920342e3320332e38683061316109808201527f2e3620312e3620302030203020332d2e3268306136203620302030203120332e6109a08201527f332d342e3268306c2e322d2e3161312e3520312e352030203020302d2e322d326109c08201527f2e395a4d3133362035382e336830632d2e372d2e322d312e342d2e362d312e386109e08201527f2d312e342d2e362d312e332d322e372d312e312d33202e346830613220322030610a008201527f203020312d3120312e386830632d312e322e372d3120322e352e3420322e3868610a208201527f30632e362e3120312e332e3620312e3720312e346830632e3720312e3420322e610a408201527f37203120332d2e35203020302030203020302030683061322032203020302031610a608201527f20312d312e37683063312e332d2e3720312d322e352d2e332d322e385a6d2d39610a808201527f2e322033362e326830632d312d2e362d312e382d312e372d322d332e322d2e33610aa08201527f2d312e342d322e332d312e392d332d2e356830632d2e3720312e332d312e3720610ac08201527f322d322e3720322e33682d2e316c2e3320312e342d2e332d312e34632d312e34610ae08201527f2e322d312e3720322d2e3520322e3868306331202e3620312e3820312e372032610b008201527f20332e32683061312e3620312e362030203020302033202e3468306134203420610b208201527f302030203120322e362d322e32682e3263312e342d2e3320312e372d32202e35610b408201527f2d322e385a222f3e3c2f7376673e000000000000000000000000000000000000610b6082015250565b5f6114b2610b6e836105d7565b91506114bd826106a7565b610b6e82019050919050565b5f6114d382610655565b91506114df8284610677565b91506114ea826114a5565b915081905092915050565b7f3c7374796c653e2e6e69676874636170436f6c6f7231207b2066696c6c3a0000815250565b7f7d3c2f7374796c653e0000000000000000000000000000000000000000000000815250565b5f61154b826114f5565b601e8201915061155b8284610677565b91506115668261151b565b6009820191508190509291505056fea2646970667358221220123eed8efc72fe6e9ba437df52b3c8ad6226bd1e1c31de8b265ed5561df9535a64736f6c63430008140033",
  "immutableReferences": {},
  "source": "// SPDX-License-Identifier: MIT\npragma solidity ^0.8.0;\n\nimport {Headwear} from '../Headwear.sol';\nimport {EduxColors} from '../EduxColors.sol';\n\nlibrary HeadwearNightcap {\n    enum NightcapColors {\n        GREEN,\n        PINK,\n        PURPLE,\n        BLUE,\n        GOLD\n    }\n\n    function getNightcap(\n        NightcapColors nightcapColor\n    ) external pure returns (string memory, Headwear.HeadwearVariants, Headwear.HeadwearColors) {\n        return (\n            string.concat(\n                '<svg xmlns=\"http://www.w3.org/2000/svg\" width=\"210\" height=\"335\" fill=\"none\">',\n                _getNightcapStyle(nightcapColor),\n                '<path class=\"nightcapColor1\" d=\"M160.4 111c-3-.2-6.1.8-8.6 2.6a94.6 94.6 0 0 0-11.1-19.8 75.2 75.2 0 0 1-72-.5c0-9 .3-19 4.6-27A40.6 40.6 0 0 1 99.9 48a48.4 48.4 0 0 1 35 3.7 47.5 47.5 0 0 1 20.5 26 122 122 0 0 1 5.2 33.4h-.2Z\"/><path fill=\"#fff\" d=\"M160.6 111c5.6.3 10.9 4.4 12.3 9.7 1.5 5.3-.9 11.4-5.6 14.5-4.8 3-11.5 2.7-16-.8a13.3 13.3 0 0 1-4.1-15 13.9 13.9 0 0 1 13.3-8.5Zm-92-17.7a75.2 75.2 0 0 0 72 .5c2.4 3.3 4.6 6.7 6.6 10.3a95 95 0 0 1-41.8 10.6c-14 .1-28-3.2-40-10-1.1-4-.4-8.2 2.3-11.9l1 .5Z\"/><path stroke=\"#000\" stroke-linecap=\"round\" stroke-linejoin=\"round\" stroke-width=\"4\" d=\"M147.2 104s0 0 0 0a95 95 0 0 1-41.8 10.7c-14 .1-28-3.2-40-10-1.1-4-.4-8.2 2.3-11.9l1 .5a75.2 75.2 0 0 0 72 .5\"/><path stroke=\"#000\" stroke-linecap=\"round\" stroke-linejoin=\"round\" stroke-width=\"4\" d=\"M131.3 82.7a104.3 104.3 0 0 1 20.5 31\"/><path stroke=\"#000\" stroke-linecap=\"round\" stroke-linejoin=\"round\" stroke-width=\"4\" d=\"M68.6 93.4v0c.2-9 .4-19 4.7-27a40.6 40.6 0 0 1 26.6-18.5 48.4 48.4 0 0 1 35 3.7 47.5 47.5 0 0 1 20.5 26 122 122 0 0 1 5.2 33.4c5.6.3 10.9 4.4 12.3 9.7 1.5 5.3-.9 11.4-5.6 14.5-4.8 3-11.5 2.7-16-.8a13.3 13.3 0 0 1-4.1-15 13.9 13.9 0 0 1 13.3-8.5\"/><path fill=\"#fff\" d=\"M90 59.2a4 4 0 1 1 0 8 4 4 0 0 1 0-8Z\"/><path fill=\"#fff\" stroke=\"#000\" stroke-linecap=\"round\" stroke-linejoin=\"round\" stroke-width=\"3\" d=\"M86 63.2a4 4 0 1 1 8.1 0 4 4 0 0 1-8 0Z\"/><path fill=\"#fff\" d=\"M73 82.7a3.4 3.4 0 1 1 0 6.8 3.4 3.4 0 0 1 0-6.8Z\"/><path fill=\"#fff\" stroke=\"#000\" stroke-linecap=\"round\" stroke-linejoin=\"round\" stroke-width=\"3\" d=\"M69.6 86a3.4 3.4 0 1 1 6.8 0 3.4 3.4 0 0 1-6.8 0Z\"/><path fill=\"#fff\" d=\"M146.3 81a2.4 2.4 0 1 1 0 4.7 2.4 2.4 0 0 1 0-4.8Z\"/><path fill=\"#fff\" stroke=\"#000\" stroke-linecap=\"round\" stroke-linejoin=\"round\" stroke-width=\"3\" d=\"M144 83.3a2.4 2.4 0 1 1 4.7 0 2.4 2.4 0 0 1-4.8 0Z\"/><path fill=\"#fff\" d=\"M105.7 47.4c1.7-.2 3.3.8 3.5 2.4.2 1.5-1 3-2.8 3.2-1.8.2-3.4-.9-3.5-2.4-.2-1.6 1-3 2.8-3.2Z\"/><path fill=\"#fff\" stroke=\"#000\" stroke-linecap=\"round\" stroke-linejoin=\"round\" stroke-width=\"3\" d=\"M102.9 50.6c-.2-1.6 1-3 2.8-3.2 1.7-.2 3.3.8 3.5 2.4.2 1.5-1 3-2.8 3.2-1.8.2-3.4-.9-3.5-2.4Z\"/><path fill=\"#fff\" stroke=\"#000\" stroke-linecap=\"round\" stroke-width=\"3\" d=\"M113.7 58.3c.9-.3 1.5.9 1 1.7a8.4 8.4 0 0 0-.3 7 8.3 8.3 0 0 0 11.5 4.2c.9-.4 2 .2 1.7 1a11 11 0 1 1-14-14ZM90.6 86h0Zm0 0h0m0 0h0m0 0h0Zm10.2-2h0a6.6 6.6 0 0 1-4.3-3.8c-.6-1.4-2.7-1.4-3 .2h0a6 6 0 0 1-3.4 4.2h0c-1.4.6-1.2 2.5.1 2.9h0c1.9.5 3.5 1.9 4.3 3.8h0a1.6 1.6 0 0 0 3-.2h0a6 6 0 0 1 3.3-4.2h0l.2-.1a1.5 1.5 0 0 0-.2-2.9ZM136 58.3h0c-.7-.2-1.4-.6-1.8-1.4-.6-1.3-2.7-1.1-3 .4h0a2 2 0 0 1-1 1.8h0c-1.2.7-1 2.5.4 2.8h0c.6.1 1.3.6 1.7 1.4h0c.7 1.4 2.7 1 3-.5 0 0 0 0 0 0h0a2 2 0 0 1 1-1.7h0c1.3-.7 1-2.5-.3-2.8Zm-9.2 36.2h0c-1-.6-1.8-1.7-2-3.2-.3-1.4-2.3-1.9-3-.5h0c-.7 1.3-1.7 2-2.7 2.3h-.1l.3 1.4-.3-1.4c-1.4.2-1.7 2-.5 2.8h0c1 .6 1.8 1.7 2 3.2h0a1.6 1.6 0 0 0 3 .4h0a4 4 0 0 1 2.6-2.2h.2c1.4-.3 1.7-2 .5-2.8Z\"/></svg>'\n            ),\n            Headwear.HeadwearVariants.NIGHTCAP,\n            _getHeadwearColor(nightcapColor)\n        );\n    }\n\n    function _getNightcapStyle(NightcapColors nightcapColor) internal pure returns (string memory) {\n        return string.concat('<style>.nightcapColor1 { fill:', _getNightcapColor(nightcapColor), '}</style>');\n    }\n\n    function _getNightcapColor(NightcapColors nightcapColor) internal pure returns (string memory) {\n        if (nightcapColor == NightcapColors.GREEN) {\n            return EduxColors.lightGreen;\n        } else if (nightcapColor == NightcapColors.PINK) {\n            return EduxColors.lightPink;\n        } else if (nightcapColor == NightcapColors.PURPLE) {\n            return EduxColors.lightPurple;\n        } else if (nightcapColor == NightcapColors.BLUE) {\n            return EduxColors.lightBlue;\n        } else if (nightcapColor == NightcapColors.GOLD) {\n            return EduxColors.lightGold;\n        } else {\n            revert(); // Avoid warnings.\n        }\n    }\n\n    function _getHeadwearColor(NightcapColors nightcapColor) internal pure returns (Headwear.HeadwearColors) {\n        if (nightcapColor == NightcapColors.GREEN) {\n            return Headwear.HeadwearColors.GREEN;\n        } else if (nightcapColor == NightcapColors.PINK) {\n            return Headwear.HeadwearColors.PINK;\n        } else if (nightcapColor == NightcapColors.PURPLE) {\n            return Headwear.HeadwearColors.PURPLE;\n        } else if (nightcapColor == NightcapColors.BLUE) {\n            return Headwear.HeadwearColors.BLUE;\n        } else if (nightcapColor == NightcapColors.GOLD) {\n            return Headwear.HeadwearColors.GOLD;\n        } else {\n            revert(); // Avoid warnings.\n        }\n    }\n}\n",
  "sourcePath": "E:\\Blockchain\\EDUIndex\\EduxContract\\contracts\\libraries\\svgs\\Profile\\Headwear\\HeadwearNightcap.sol",
  "compiler": {
    "name": "solc",
    "version": "0.8.20+commit.a1b79de6.Emscripten.clang"
  },
  "schemaVersion": "3.4.3",
  "updatedAt": "2024-08-25T13:13:21.919Z",
  "devdoc": {
    "kind": "dev",
    "methods": {},
    "version": 1
  },
  "userdoc": {
    "kind": "user",
    "methods": {},
    "version": 1
  }
}