{
  "contractName": "HeadwearLotus",
  "abi": [
    {
      "inputs": [
        {
          "internalType": "enum HeadwearLotus.LotusColors",
          "name": "lotusColor",
          "type": "HeadwearLotus.LotusColors"
        }
      ],
      "name": "getLotus",
      "outputs": [
        {
          "internalType": "string",
          "name": "",
          "type": "string"
        },
        {
          "internalType": "enum Headwear.HeadwearVariants",
          "name": "",
          "type": "Headwear.HeadwearVariants"
        },
        {
          "internalType": "enum Headwear.HeadwearColors",
          "name": "",
          "type": "Headwear.HeadwearColors"
        }
      ],
      "stateMutability": "pure",
      "type": "function"
    }
  ],
  "bytecode": "0x6116ba61004e600b8282823980515f1a607314610042577f4e487b71000000000000000000000000000000000000000000000000000000005f525f60045260245ffd5b305f52607381538281f3fe7300000000000000000000000000000000000000003014608060405260043610610034575f3560e01c8063b35d4fc214610038575b5f80fd5b610052600480360381019061004d9190610551565b61006a565b604051610061939291906106bf565b60405180910390f35b60605f80610077846100ae565b604051602001610087919061152a565b60405160208183030381529060405260116100a1866100ea565b9250925092509193909250565b60605f806100bb846101fb565b9150915081816040516020016100d2929190611638565b60405160208183030381529060405292505050919050565b5f8060048111156100fe576100fd610606565b5b82600481111561011157610110610606565b5b0361011f57600190506101f6565b6002600481111561013357610132610606565b5b82600481111561014657610145610606565b5b0361015457600290506101f6565b6003600481111561016857610167610606565b5b82600481111561017b5761017a610606565b5b0361018957600390506101f6565b6001600481111561019d5761019c610606565b5b8260048111156101b0576101af610606565b5b036101be57600490506101f6565b6004808111156101d1576101d0610606565b5b8260048111156101e4576101e3610606565b5b036101f257600590506101f6565b5f80fd5b919050565b6060805f600481111561021157610210610606565b5b83600481111561022457610223610606565b5b0361029e576040518060400160405280600781526020017f23463446464443000000000000000000000000000000000000000000000000008152506040518060400160405280600781526020017f234130443137300000000000000000000000000000000000000000000000000081525091509150610525565b600260048111156102b2576102b1610606565b5b8360048111156102c5576102c4610606565b5b0361033f576040518060400160405280600781526020017f23463345414646000000000000000000000000000000000000000000000000008152506040518060400160405280600781526020017f234541443746460000000000000000000000000000000000000000000000000081525091509150610525565b6003600481111561035357610352610606565b5b83600481111561036657610365610606565b5b036103e0576040518060400160405280600781526020017f23454346304646000000000000000000000000000000000000000000000000008152506040518060400160405280600781526020017f234439453046460000000000000000000000000000000000000000000000000081525091509150610525565b600160048111156103f4576103f3610606565b5b83600481111561040757610406610606565b5b03610481576040518060400160405280600781526020017f23464645374630000000000000000000000000000000000000000000000000008152506040518060400160405280600781526020017f234646443244440000000000000000000000000000000000000000000000000081525091509150610525565b60048081111561049457610493610606565b5b8360048111156104a7576104a6610606565b5b03610521576040518060400160405280600781526020017f23464645453933000000000000000000000000000000000000000000000000008152506040518060400160405280600781526020017f234638433934340000000000000000000000000000000000000000000000000081525091509150610525565b5f80fd5b915091565b5f80fd5b6005811061053a575f80fd5b50565b5f8135905061054b8161052e565b92915050565b5f602082840312156105665761056561052a565b5b5f6105738482850161053d565b91505092915050565b5f81519050919050565b5f82825260208201905092915050565b5f5b838110156105b3578082015181840152602081019050610598565b5f8484015250505050565b5f601f19601f8301169050919050565b5f6105d88261057c565b6105e28185610586565b93506105f2818560208601610596565b6105fb816105be565b840191505092915050565b7f4e487b71000000000000000000000000000000000000000000000000000000005f52602160045260245ffd5b6016811061064457610643610606565b5b50565b5f81905061065482610633565b919050565b5f61066382610647565b9050919050565b61067381610659565b82525050565b6006811061068a57610689610606565b5b50565b5f81905061069a82610679565b919050565b5f6106a98261068d565b9050919050565b6106b98161069f565b82525050565b5f6060820190508181035f8301526106d781866105ce565b90506106e6602083018561066a565b6106f360408301846106b0565b949350505050565b5f81905092915050565b7f3c73766720786d6c6e733d22687474703a2f2f7777772e77332e6f72672f32305f8201527f30302f737667222077696474683d2232313022206865696768743d223333352260208201527f2066696c6c3d226e6f6e65223e00000000000000000000000000000000000000604082015250565b5f610785604d836106fb565b915061079082610705565b604d82019050919050565b5f6107a58261057c565b6107af81856106fb565b93506107bf818560208601610596565b80840191505092915050565b7f3c7061746820636c6173733d226865616477656172436f6c6f724c2220643d225f8201527f4d3136392e322036382e366332203020332e3520312e3820332e3520332e384160208201527f3335203335203020302031203136312e392039376133392e362033392e36203060408201527f203020312d33302e3820392e3320323820323820302030203020342e382d332e60608201527f3763322e322d3220322d35202e332d372e346135332e392035332e392030203060808201527f20302d31312e362d31322036342e372036342e372030203020312034342e362d60a08201527f31342e365a222f3e3c7061746820636c6173733d226865616477656172436f6c60c08201527f6f724c2220643d224d3136312034392e34633120362e322d2e322031322e382d60e08201527f322e382031382e376c2e312e38632d372e332e382d31342e3420322e392d32316101008201527f20366c2d2e332d316134392e362034392e362030203020302d32362e322d31316101208201527f2e34762d2e336138392e342038392e342030203020312034352e362d31362e366101408201527f20342e3420342e3420302030203120342e3620332e385a222f3e3c70617468206101608201527f636c6173733d226865616477656172436f6c6f72422220643d226d31333720376101808201527f34202e3320316136302036302030203020302d31322e3720382e322033382e316101a08201527f2033382e312030203020302d31382e362d382e38682d2e32632d332e3720302d6101c08201527f31312e3320332e312d31382e3620382e382d342e322d332e362d392d362e362d6101e08201527f31342d382e396c312e362d2e346134392e362034392e362030203020312033316102008201527f2d31312e37682e326134392e362034392e362030203020312033312031312e376102208201527f5a222f3e3c7061746820636c6173733d226865616477656172436f6c6f724c226102408201527f20643d224d3133362e322039352e3263312e3720322e3420312e3920352e342d6102608201527f2e3320372e346133322033322030203020312d342e3820332e372034372e35206102808201527f34372e352030203020312d32352e3120362e35682d2e32632d382e3520302d316102a08201527f372e372d312e382d32352e312d362e356133322033322030203020312d342e386102c08201527f2d332e37632d322e322d322d322d352d2e332d372e34613533203533203020306102e08201527f20312031312e362d31322033382e312033382e312030203020312031382e362d6103008201527f382e38682e3263332e3720302031312e3320332e312031382e3620382e3861356103208201527f332035332030203020312031312e362031325a4d31303620333963342e3820306103408201527f2031342e3620382e342031382e362031352d342e3820322e332d392e3420352d6103608201527f31332e3720382e32762e336134312e342034312e342030203020302d392e39206103808201527f30762d2e33632d342e342d332e312d392d352e392d31332e382d382e3220342d6103a08201527f362e362031332e382d31352031382e362d3135682e325a222f3e3c70617468206103c08201527f636c6173733d226865616477656172436f6c6f724c2220643d224d31303120366103e08201527f322e32762e33632d392e3620312d313920352e332d32362e322031312e346c2d6104008201527f312e362e344136342e362036342e362030203020302035332e352036396c2e316104208201527f2d2e386133342e362033342e362030203020312d322e392d31382e3720342e346104408201527f20342e3420302030203120342e372d332e382038372e322038372e32203020306104608201527f20312034352e352031362e365a222f3e3c7061746820636c6173733d226865616104808201527f6477656172436f6c6f724c2220643d224d38372e322038332e326135342e33206104a08201527f35342e332030203020302d31312e36203132632d312e3720322e342d312e39206104c08201527f352e342e3320372e3461333220333220302030203020342e3820332e374133396104e08201527f2e352033392e352030203020312034392e3920393761333520333520302030206105008201527f312d31302e382d32342e3663302d3220312e352d332e3720332e352d332e38616105208201527f36362036362030203020312033302e3620352e37633520322e3320392e3820356105408201527f2e3320313420382e395a222f3e3c7061746820636c6173733d226877537472316105608201527f22207374726f6b652d77696474683d22342220643d224d3130352e38203131326105808201527f2e38632d382e3520302d31372e372d312e382d32352e312d362e3561333220336105a08201527f322030203020312d342e382d332e37632d322e322d322d322d352d2e332d372e6105c08201527f346135332035332030203020312031312e362d31322033382e312033382e31206105e08201527f30203020312031382e362d382e38222f3e3c7061746820636c6173733d2268776106008201527f5374723122207374726f6b652d77696474683d22342220643d224d38372e32206106208201527f38332e326136342e362036342e362030203020302d34342e362d31342e36632d6106408201527f3220302d332e3520312e382d332e3520332e38413335203335203020302030206106608201527f353020393763372e3620372032302e352031312033302e3820392e336d2d362d6106808201527f33322e336134392e362034392e362030203020312033312d31312e386d2d342e6106a08201527f3820306138382e362038382e362030203020302d34352e362d31362e3620342e6106c08201527f3420342e342030203020302d342e3720332e38632d2e3920362e322e332031326106e08201527f2e3820322e392031382e37222f3e3c7061746820636c6173733d2268775374726107008201527f3122207374726f6b652d77696474683d22342220643d224d38372e32203534636107208201527f342d362e362031332e382d31352031382e362d31356d302037332e38682e32636107408201527f382e3520302031372e362d312e382032352e312d362e356133322033322030206107608201527f30203020342e382d332e3763322e322d3220322d35202e332d372e346135332e6107808201527f392035332e392030203020302d31312e362d31322033382e312033382e3120306107a08201527f203020302d31382e362d382e38222f3e3c7061746820636c6173733d226877536107c08201527f74723122207374726f6b652d77696474683d22342220643d224d3132342e36206107e08201527f38332e326136342e372036342e372030203020312034342e362d31342e3663326108008201527f203020332e3520312e3820332e3520332e3841333520333520302030203120316108208201527f36312e392039376133392e362033392e362030203020312d33302e3820392e336108408201527f4d3133372037346134392e362034392e362030203020302d33312d31312e386d6108608201527f342e3920306138392e342038392e342030203020312034352e352d31362e36206108808201527f342e3420342e3420302030203120342e3620332e38633120362e322d2e3220316108a08201527f322e382d322e382031382e37222f3e3c7061746820636c6173733d22687753746108c08201527f723122207374726f6b652d77696474683d22342220643d224d3132342e3620356108e08201527f34632d342d362e362d31332e382d31352d31382e362d3135222f3e3c706174686109008201527f20636c6173733d2268775374723122207374726f6b652d6f7061636974793d226109208201527f2e3122207374726f6b652d77696474683d22332220643d224d3130352e3920386109408201527f382e337632342e35222f3e3c7061746820636c6173733d2268775374723122206109608201527f7374726f6b652d6f7061636974793d222e3122207374726f6b652d77696474686109808201527f3d22322e352220643d224d3130352e392035312e347631312e35222f3e3c70616109a08201527f746820636c6173733d2268775374723122207374726f6b652d6f7061636974796109c08201527f3d222e3122207374726f6b652d77696474683d22332220643d224d36382e32206109e08201527f36302e3273332e3720332e3520362e3420352e3363322e3220312e3420352e39610a008201527f20332e3220352e3920332e326d36322e352d382e35732d332e3720332e352d36610a208201527f2e3420352e336136322036322030203020312d3620332e326d2d37372031392e610a408201527f3473322e34203620362e312031302e3563352e3420362e372031372e3520382e610a608201527f382031372e3520382e386d38312d31392e33732d322e3420362d362e31203130610a808201527f2e35632d352e3420362e372d31372e3520382e382d31372e3520382e38222f3e610aa08201527f3c2f7376673e0000000000000000000000000000000000000000000000000000610ac082015250565b5f611513610ac6836106fb565b915061151e826107cb565b610ac682019050919050565b5f61153482610779565b9150611540828461079b565b915061154b82611506565b915081905092915050565b7f3c7374796c653e2e6865616477656172436f6c6f724c207b2066696c6c3a0000815250565b7f7d2e6865616477656172436f6c6f7242207b2066696c6c3a0000000000000000815250565b7f7d2e687753747231207b7374726f6b653a20233030303b7374726f6b652d6c695f8201527f6e656361703a20726f756e643b7374726f6b652d6c696e656a6f696e3a20726f60208201527f756e643b7d3c2f7374796c653e00000000000000000000000000000000000000604082015250565b5f611622604d836106fb565b915061162d826115a2565b604d82019050919050565b5f61164282611556565b601e82019150611652828561079b565b915061165d8261157c565b60188201915061166d828461079b565b915061167882611616565b9150819050939250505056fea2646970667358221220e8238a235d64afbeb27b5a6b989d50b1e291cdb6ef7169553ead70344e0cefb764736f6c63430008140033",
  "immutableReferences": {},
  "source": "// SPDX-License-Identifier: MIT\npragma solidity ^0.8.0;\n\nimport {Headwear} from '../Headwear.sol';\nimport {EduxColors} from '../EduxColors.sol';\n\nlibrary HeadwearLotus {\n    enum LotusColors {\n        GREEN,\n        PINK,\n        PURPLE,\n        BLUE,\n        GOLD\n    }\n\n    function getLotus(\n        LotusColors lotusColor\n    ) external pure returns (string memory, Headwear.HeadwearVariants, Headwear.HeadwearColors) {\n        return (\n            string.concat(\n                '<svg xmlns=\"http://www.w3.org/2000/svg\" width=\"210\" height=\"335\" fill=\"none\">',\n                _getLotusStyle(lotusColor),\n                '<path class=\"headwearColorL\" d=\"M169.2 68.6c2 0 3.5 1.8 3.5 3.8A35 35 0 0 1 161.9 97a39.6 39.6 0 0 1-30.8 9.3 28 28 0 0 0 4.8-3.7c2.2-2 2-5 .3-7.4a53.9 53.9 0 0 0-11.6-12 64.7 64.7 0 0 1 44.6-14.6Z\"/><path class=\"headwearColorL\" d=\"M161 49.4c1 6.2-.2 12.8-2.8 18.7l.1.8c-7.3.8-14.4 2.9-21 6l-.3-1a49.6 49.6 0 0 0-26.2-11.4v-.3a89.4 89.4 0 0 1 45.6-16.6 4.4 4.4 0 0 1 4.6 3.8Z\"/><path class=\"headwearColorB\" d=\"m137 74 .3 1a60 60 0 0 0-12.7 8.2 38.1 38.1 0 0 0-18.6-8.8h-.2c-3.7 0-11.3 3.1-18.6 8.8-4.2-3.6-9-6.6-14-8.9l1.6-.4a49.6 49.6 0 0 1 31-11.7h.2a49.6 49.6 0 0 1 31 11.7Z\"/><path class=\"headwearColorL\" d=\"M136.2 95.2c1.7 2.4 1.9 5.4-.3 7.4a32 32 0 0 1-4.8 3.7 47.5 47.5 0 0 1-25.1 6.5h-.2c-8.5 0-17.7-1.8-25.1-6.5a32 32 0 0 1-4.8-3.7c-2.2-2-2-5-.3-7.4a53 53 0 0 1 11.6-12 38.1 38.1 0 0 1 18.6-8.8h.2c3.7 0 11.3 3.1 18.6 8.8a53 53 0 0 1 11.6 12ZM106 39c4.8 0 14.6 8.4 18.6 15-4.8 2.3-9.4 5-13.7 8.2v.3a41.4 41.4 0 0 0-9.9 0v-.3c-4.4-3.1-9-5.9-13.8-8.2 4-6.6 13.8-15 18.6-15h.2Z\"/><path class=\"headwearColorL\" d=\"M101 62.2v.3c-9.6 1-19 5.3-26.2 11.4l-1.6.4A64.6 64.6 0 0 0 53.5 69l.1-.8a34.6 34.6 0 0 1-2.9-18.7 4.4 4.4 0 0 1 4.7-3.8 87.2 87.2 0 0 1 45.5 16.6Z\"/><path class=\"headwearColorL\" d=\"M87.2 83.2a54.3 54.3 0 0 0-11.6 12c-1.7 2.4-1.9 5.4.3 7.4a32 32 0 0 0 4.8 3.7A39.5 39.5 0 0 1 49.9 97a35 35 0 0 1-10.8-24.6c0-2 1.5-3.7 3.5-3.8a66 66 0 0 1 30.6 5.7c5 2.3 9.8 5.3 14 8.9Z\"/><path class=\"hwStr1\" stroke-width=\"4\" d=\"M105.8 112.8c-8.5 0-17.7-1.8-25.1-6.5a32 32 0 0 1-4.8-3.7c-2.2-2-2-5-.3-7.4a53 53 0 0 1 11.6-12 38.1 38.1 0 0 1 18.6-8.8\"/><path class=\"hwStr1\" stroke-width=\"4\" d=\"M87.2 83.2a64.6 64.6 0 0 0-44.6-14.6c-2 0-3.5 1.8-3.5 3.8A35 35 0 0 0 50 97c7.6 7 20.5 11 30.8 9.3m-6-32.3a49.6 49.6 0 0 1 31-11.8m-4.8 0a88.6 88.6 0 0 0-45.6-16.6 4.4 4.4 0 0 0-4.7 3.8c-.9 6.2.3 12.8 2.9 18.7\"/><path class=\"hwStr1\" stroke-width=\"4\" d=\"M87.2 54c4-6.6 13.8-15 18.6-15m0 73.8h.2c8.5 0 17.6-1.8 25.1-6.5a32 32 0 0 0 4.8-3.7c2.2-2 2-5 .3-7.4a53.9 53.9 0 0 0-11.6-12 38.1 38.1 0 0 0-18.6-8.8\"/><path class=\"hwStr1\" stroke-width=\"4\" d=\"M124.6 83.2a64.7 64.7 0 0 1 44.6-14.6c2 0 3.5 1.8 3.5 3.8A35 35 0 0 1 161.9 97a39.6 39.6 0 0 1-30.8 9.3M137 74a49.6 49.6 0 0 0-31-11.8m4.9 0a89.4 89.4 0 0 1 45.5-16.6 4.4 4.4 0 0 1 4.6 3.8c1 6.2-.2 12.8-2.8 18.7\"/><path class=\"hwStr1\" stroke-width=\"4\" d=\"M124.6 54c-4-6.6-13.8-15-18.6-15\"/><path class=\"hwStr1\" stroke-opacity=\".1\" stroke-width=\"3\" d=\"M105.9 88.3v24.5\"/><path class=\"hwStr1\" stroke-opacity=\".1\" stroke-width=\"2.5\" d=\"M105.9 51.4v11.5\"/><path class=\"hwStr1\" stroke-opacity=\".1\" stroke-width=\"3\" d=\"M68.2 60.2s3.7 3.5 6.4 5.3c2.2 1.4 5.9 3.2 5.9 3.2m62.5-8.5s-3.7 3.5-6.4 5.3a62 62 0 0 1-6 3.2m-77 19.4s2.4 6 6.1 10.5c5.4 6.7 17.5 8.8 17.5 8.8m81-19.3s-2.4 6-6.1 10.5c-5.4 6.7-17.5 8.8-17.5 8.8\"/></svg>'\n            ),\n            Headwear.HeadwearVariants.LOTUS,\n            _getHeadwearColor(lotusColor)\n        );\n    }\n\n    function _getLotusStyle(LotusColors lotusColor) internal pure returns (string memory) {\n        (string memory lightColor, string memory baseColor) = _getLotusColor(lotusColor);\n        return\n            string.concat(\n                '<style>.headwearColorL { fill:',\n                lightColor,\n                '}.headwearColorB { fill:',\n                baseColor,\n                '}.hwStr1 {stroke: #000;stroke-linecap: round;stroke-linejoin: round;}</style>'\n            );\n    }\n\n    function _getLotusColor(LotusColors lotusColor) internal pure returns (string memory, string memory) {\n        if (lotusColor == LotusColors.GREEN) {\n            return (EduxColors.lightGreen, EduxColors.baseGreen);\n        } else if (lotusColor == LotusColors.PURPLE) {\n            return (EduxColors.lightPurple, EduxColors.basePurple);\n        } else if (lotusColor == LotusColors.BLUE) {\n            return (EduxColors.lightBlue, EduxColors.baseBlue);\n        } else if (lotusColor == LotusColors.PINK) {\n            return (EduxColors.lightPink, EduxColors.basePink);\n        } else if (lotusColor == LotusColors.GOLD) {\n            return (EduxColors.lightGold, EduxColors.baseGold);\n        } else {\n            revert(); // Avoid warnings.\n        }\n    }\n\n    function _getHeadwearColor(LotusColors lotusColor) internal pure returns (Headwear.HeadwearColors) {\n        if (lotusColor == LotusColors.GREEN) {\n            return Headwear.HeadwearColors.GREEN;\n        } else if (lotusColor == LotusColors.PURPLE) {\n            return Headwear.HeadwearColors.PURPLE;\n        } else if (lotusColor == LotusColors.BLUE) {\n            return Headwear.HeadwearColors.BLUE;\n        } else if (lotusColor == LotusColors.PINK) {\n            return Headwear.HeadwearColors.PINK;\n        } else if (lotusColor == LotusColors.GOLD) {\n            return Headwear.HeadwearColors.GOLD;\n        } else {\n            revert(); // Avoid warnings.\n        }\n    }\n}\n",
  "sourcePath": "E:\\Blockchain\\EDUIndex\\EduxContract\\contracts\\libraries\\svgs\\Profile\\Headwear\\HeadwearLotus.sol",
  "compiler": {
    "name": "solc",
    "version": "0.8.20+commit.a1b79de6.Emscripten.clang"
  },
  "schemaVersion": "3.4.3",
  "updatedAt": "2024-08-25T13:13:21.872Z",
  "devdoc": {
    "kind": "dev",
    "methods": {},
    "version": 1
  },
  "userdoc": {
    "kind": "user",
    "methods": {},
    "version": 1
  }
}