{
  "contractName": "HeadwearScout",
  "abi": [
    {
      "inputs": [
        {
          "internalType": "enum HeadwearScout.ScoutColors",
          "name": "scoutColor",
          "type": "HeadwearScout.ScoutColors"
        }
      ],
      "name": "getScout",
      "outputs": [
        {
          "internalType": "string",
          "name": "",
          "type": "string"
        },
        {
          "internalType": "enum Headwear.HeadwearVariants",
          "name": "",
          "type": "Headwear.HeadwearVariants"
        },
        {
          "internalType": "enum Headwear.HeadwearColors",
          "name": "",
          "type": "Headwear.HeadwearColors"
        }
      ],
      "stateMutability": "pure",
      "type": "function"
    }
  ],
  "bytecode": "0x61200561004e600b8282823980515f1a607314610042577f4e487b71000000000000000000000000000000000000000000000000000000005f525f60045260245ffd5b305f52607381538281f3fe7300000000000000000000000000000000000000003014608060405260043610610034575f3560e01c80630817c0ef14610038575b5f80fd5b610052600480360381019061004d9190610551565b61006a565b604051610061939291906106bf565b60405180910390f35b60605f80610077846100ae565b6040516020016100879190611e75565b60405160208183030381529060405260136100a1866100ea565b9250925092509193909250565b60605f806100bb846101fb565b9150915081816040516020016100d2929190611f83565b60405160208183030381529060405292505050919050565b5f8060048111156100fe576100fd610606565b5b82600481111561011157610110610606565b5b0361011f57600190506101f6565b6002600481111561013357610132610606565b5b82600481111561014657610145610606565b5b0361015457600290506101f6565b6003600481111561016857610167610606565b5b82600481111561017b5761017a610606565b5b0361018957600390506101f6565b6001600481111561019d5761019c610606565b5b8260048111156101b0576101af610606565b5b036101be57600490506101f6565b6004808111156101d1576101d0610606565b5b8260048111156101e4576101e3610606565b5b036101f257600590506101f6565b5f80fd5b919050565b6060805f600481111561021157610210610606565b5b83600481111561022457610223610606565b5b0361029e576040518060400160405280600781526020017f23463446464443000000000000000000000000000000000000000000000000008152506040518060400160405280600781526020017f234130443137300000000000000000000000000000000000000000000000000081525091509150610525565b600260048111156102b2576102b1610606565b5b8360048111156102c5576102c4610606565b5b0361033f576040518060400160405280600781526020017f23463345414646000000000000000000000000000000000000000000000000008152506040518060400160405280600781526020017f234541443746460000000000000000000000000000000000000000000000000081525091509150610525565b6003600481111561035357610352610606565b5b83600481111561036657610365610606565b5b036103e0576040518060400160405280600781526020017f23454346304646000000000000000000000000000000000000000000000000008152506040518060400160405280600781526020017f234439453046460000000000000000000000000000000000000000000000000081525091509150610525565b600160048111156103f4576103f3610606565b5b83600481111561040757610406610606565b5b03610481576040518060400160405280600781526020017f23464645374630000000000000000000000000000000000000000000000000008152506040518060400160405280600781526020017f234646443244440000000000000000000000000000000000000000000000000081525091509150610525565b60048081111561049457610493610606565b5b8360048111156104a7576104a6610606565b5b03610521576040518060400160405280600781526020017f23464645453933000000000000000000000000000000000000000000000000008152506040518060400160405280600781526020017f234638433934340000000000000000000000000000000000000000000000000081525091509150610525565b5f80fd5b915091565b5f80fd5b6005811061053a575f80fd5b50565b5f8135905061054b8161052e565b92915050565b5f602082840312156105665761056561052a565b5b5f6105738482850161053d565b91505092915050565b5f81519050919050565b5f82825260208201905092915050565b5f5b838110156105b3578082015181840152602081019050610598565b5f8484015250505050565b5f601f19601f8301169050919050565b5f6105d88261057c565b6105e28185610586565b93506105f2818560208601610596565b6105fb816105be565b840191505092915050565b7f4e487b71000000000000000000000000000000000000000000000000000000005f52602160045260245ffd5b6016811061064457610643610606565b5b50565b5f81905061065482610633565b919050565b5f61066382610647565b9050919050565b61067381610659565b82525050565b6006811061068a57610689610606565b5b50565b5f81905061069a82610679565b919050565b5f6106a98261068d565b9050919050565b6106b98161069f565b82525050565b5f6060820190508181035f8301526106d781866105ce565b90506106e6602083018561066a565b6106f360408301846106b0565b949350505050565b5f81905092915050565b7f3c73766720786d6c6e733d22687474703a2f2f7777772e77332e6f72672f32305f8201527f30302f737667222077696474683d2232353022206865696768743d223333352260208201527f20783d222d31382e36222066696c6c3d226e6f6e65223e000000000000000000604082015250565b5f6107856057836106fb565b915061079082610705565b605782019050919050565b5f6107a58261057c565b6107af81856106fb565b93506107bf818560208601610596565b80840191505092915050565b7f3c7061746820636c6173733d226865616477656172436f6c6f724c2220643d225f8201527f4d3230352e382039322e336133352033352030203020302031342e352031332e60208201527f38632d392e362d332e362d32332d352e312d34312e342d382d31382d322e382d60408201527f33362e382d332e372d35352e322d332e372d31382e3520302d33372e322e392d60608201527f35352e3220332e372d31382e3420322e392d33312e3820342e342d34312e352060808201527f386133342e342033342e342030203020302031342e352d31332e3863332d352e60a08201527f3520352e342d31312e3420392e322d31362e3220342e352d352e352031302e3660c08201527f2d392031362e382d3132613132342e35203132342e352030203020312035362e60e08201527f322d31322e33413132342e35203132342e35203020302031203137392e3920366101008201527f3463362e3120332031322e3220362e352031362e3720313220332e3920342e386101208201527f20362e332031302e3720392e322031362e325a222f3e3c7061746820636c61736101408201527f733d226865616477656172436f6c6f72422220643d224d3134322e342035322e6101608201527f39632d362d2e382d31322e332d312e312d31382e372d312e3120302d362e35206101808201527f322e382d313420382e342d31372e366132392032392030203020312031392e336101a08201527f2d34633120342e3420312e382039202e372031332e33613133203133203020306101c08201527f20312d392e3720392e345a6d2d32372e312d31382e3763352e3520332e3720386101e08201527f2e342031312e3120382e342031372e362d362e3520302d31322e372e332d31386102008201527f2e3820312d342e342d2e362d382e362d352d392e372d392e33613330203330206102208201527f3020302031202e372d31332e332032392032392030203020312031392e3420346102408201527f5a222f3e3c7061746820636c6173733d226865616477656172436f6c6f724c226102608201527f20643d224d3234312e32203131352e3763322e3620322e3820342e3320362e366102808201527f20332e362031302e342e352d332e332d322e372d352e382d352e372d372e332d6102a08201527f382e372d342e362d31382e332d332e342d32372e392d352e362d32382e382d366102c08201527f2e352d36312d31302d38372e352d31302d32362e3620302d35382e3820332e356102e08201527f2d38372e362031302d392e3620322e322d31392e3320322e362d323820372e316103008201527f2d3320312e352d3620322e362d352e3520352e382d2e382d332e372e372d372e6103208201527f3920332e332d31302e3620322e352d322e3620392d342e362032312d382e37206103408201527f392e372d332e332032332e322d342e382034312e362d372e34613337342e37206103608201527f3337342e37203020302031203131302e3420306331382e3320322e362033312e6103808201527f3920332e382034312e36203720313220342e322031382e3220362e382032302e6103a08201527f3720392e335a222f3e3c7061746820636c6173733d22687753747231222073746103c08201527f726f6b652d77696474683d22342220643d224d3132332e37203130342e35632d6103e08201527f32362e3620302d35382e3820322e392d38372e3620372e3961313430203134306104008201527f2030203020302d32372e3920372e31632d3320312e322d362e3120332e312d356104208201527f2e3620352e372e3320312e35203520352e332031392e3220372e324d323720316104408201527f303673302030203020306133342e342033342e342030203020302031342e352d6104608201527f31332e3763332d352e3520352e342d31312e3420392e322d31362e326134362e6104808201527f342034362e342030203020312031362e382d3132203132342e36203132342e366104a08201527f2030203020312035362e322d31322e33222f3e3c7061746820636c6173733d226104c08201527f68775374723122207374726f6b652d77696474683d22342220643d224d3130356104e08201527f2035322e39632d342e352d2e372d382e372d352d392e382d392e3461333020336105008201527f30203020302031202e372d31332e332032392032392030203020312031392e346105208201527f203463352e3520332e3720382e342031312e3120382e342031372e36222f3e3c6105408201527f7061746820636c6173733d2268775374723122207374726f6b652d77696474686105608201527f3d22332220643d224d3130372e34203432633420312e3820372e3320352e33206105808201527f3920392e35222f3e3c7061746820636c6173733d2268775374723122207374726105a08201527f6f6b652d77696474683d22342220643d224d3132332e37203130342e356332366105c08201527f2e3520302035382e3720322e392038372e3520372e39613134302031343020306105e08201527f2030203120323820372e3163322e3920312e32203620332e3120352e3620352e6106008201527f372d2e3420312e352d3520352e332d31392e3320372e32222f3e3c70617468206106208201527f636c6173733d2268775374723122207374726f6b652d77696474683d223422206106408201527f643d224d322e36203132332e317330203020302030632d2e382d3320312d362e6106608201527f3220332e362d382e3420322e352d3220382e372d352e332032302e382d382e366106808201527f6d3231372e382031377330203020302030632e372d332d312d362e322d332e366106a08201527f2d382e342d322e352d322d382e372d352e332d32302e392d382e366d2e312d2e6106c08201527f3173302030203020306133342e342033342e342030203020312d31342e362d316106e08201527f332e37632d332d352e352d352e332d31312e342d392e322d31362e326134362e6107008201527f342034362e342030203020302d31362e382d3132203132342e36203132342e366107208201527f2030203020302d35362e312d31322e33222f3e3c7061746820636c6173733d226107408201527f68775374723122207374726f6b652d77696474683d22342220643d224d3134326107608201527f2e342035322e3961313320313320302030203020392e372d392e3463312d342e6107808201527f332e342d382e392d2e372d31332e336132392032392030203020302d31392e336107a08201527f2034632d352e3620332e372d382e342031312e312d382e342031372e36222f3e6107c08201527f3c7061746820636c6173733d2268775374723122207374726f6b652d776964746107e08201527f683d22332220643d224d3134302034326131372e312031372e312030203020306108008201527f2d3920392e35222f3e3c7061746820636c6173733d226865616477656172436f6108208201527f6c6f724c2220643d224d342e35203132342e37632d322d322e362031372e342d6108408201527f372e342031372e342d372e34732d312e3320342d312e3820362e38632d2e33206108608201527f322e332d2e3420362d2e342036732d31322d312e332d31352e322d352e345a6d6108808201527f3233382e34203063322d322e362d31372e342d372e342d31372e342d372e34736108a08201527f312e33203420312e3720362e38632e3420322e332e352036202e3520367331326108c08201527f2d312e332031352e322d352e345a222f3e3c706174682066696c6c3d222330306108e08201527f30222066696c6c2d6f7061636974793d222e332220643d224d342e35203132346109008201527f2e37632d322d322e362031372e342d372e342031372e342d372e34732d312e336109208201527f20342d312e3820362e38632d2e3320322e332d2e3420362d2e342036732d31326109408201527f2d312e332d31352e322d352e345a6d3233382e34203063322d322e362d31372e6109608201527f342d372e342d31372e342d372e3473312e33203420312e3720362e38632e34206109808201527f322e332e352036202e3520367331322d312e332031352e322d352e345a222f3e6109a08201527f3c706174682066696c6c3d22236666662220643d224d3133302e372036372e376109c08201527f632d2e312e322d2e3420302d2e342d2e31762d2e37632d2e322d382e342d31336109e08201527f2d382e342d31332e332030762e376330202e322d2e322e332d2e342e316c2d2e610a008201527f342d2e34632d362e322d352e382d31352e3220332e322d392e3420392e336c2e610a208201527f352e35633720372031362e3420372031362e34203773392e3420302031362e34610a408201527f2d376c2e342d2e3563352e382d362e312d332e322d31352e312d392e342d392e610a608201527f336c2d2e342e345a222f3e3c70617468207374726f6b653d2223303030222073610a808201527f74726f6b652d6c696e656361703d2273717561726522207374726f6b652d6c69610aa08201527f6e656a6f696e3d22726f756e6422207374726f6b652d77696474683d22332220610ac08201527f643d224d3133302e372036372e377630632d2e312e322d2e3420302d2e342d2e610ae08201527f3176302d2e37632d2e322d382e342d31332d382e342d31332e332030762e3763610b008201527f30202e322d2e322e332d2e342e3176306c2d2e342d2e34632d362e322d352e38610b208201527f2d31352e3220332e322d392e3420392e336c2e352e35633720372031362e3420610b408201527f372031362e34203773392e3420302031362e342d376c2e342d2e3563352e382d610b608201527f362e312d332e322d31352e312d392e342d392e336c2d2e342e345a222f3e3c70610b808201527f61746820636c6173733d2268775374723122207374726f6b652d77696474683d610ba08201527f22332220643d224d3237203130362e3663392e372d322e372032332e312d352e610bc08201527f342034312e352d372e356134373620343736203020302031203131302e342030610be08201527f6331382e3320322e312033312e3820342e382034312e3420372e35222f3e3c70610c008201527f617468207374726f6b653d222330303022207374726f6b652d64617368617272610c208201527f61793d2239203922207374726f6b652d6c696e656361703d22726f756e642220610c408201527f7374726f6b652d6c696e656a6f696e3d22726f756e6422207374726f6b652d6f610c608201527f7061636974793d222e3222207374726f6b652d77696474683d22322e35222064610c808201527f3d224d33372e352039382e3763382e332d312e382031382e352d332e35203331610ca08201527f2d356134373620343736203020302031203131302e3420306331322e3920312e610cc08201527f352032332e3420332e332033312e3820352e31222f3e3c7061746820636c6173610ce08201527f733d226865616477656172436f6c6f724c222066696c6c2d72756c653d226576610d008201527f656e6f64642220643d226d33302e36203131332e362e3920312e3563392e3620610d208201527f313320382e3520323620362e312033382e346c2d312e3320362e34632d322031610d408201527f302e322d342031392e372d312e362032392e326c2e3420312e33613220322030610d608201527f203020312d312e3620322e356c2d342e332e37613220322030203020312d322e610d808201527f332d312e346c2d2e342d312e37632d322e382d31312d2e352d323220312e372d610da08201527f33322e326c312e322d352e3963322e332d313220332d32332d352d33332e366c610dc08201527f2d322e322d3320382e342d322e325a2220636c69702d72756c653d226576656e610de08201527f6f6464222f3e3c70617468207374726f6b653d222330303022207374726f6b65610e008201527f2d6c696e656361703d22726f756e6422207374726f6b652d77696474683d2233610e208201527f2220643d226d3236203138372e3420382d312e35222f3e3c7061746820636c61610e408201527f73733d2268775374723122207374726f6b652d77696474683d22332220643d22610e608201527f6d33302e36203131332e362e3920312e3563392e3620313320382e3520323620610e808201527f362e312033382e346c2d312e3320362e34632d322031302e322d342031392e37610ea08201527f2d312e362032392e326c2e3420312e33613220322030203020312d312e362032610ec08201527f2e356c2d342e332e37613220322030203020312d322e332d312e346c2d2e342d610ee08201527f312e37632d322e382d31312d2e352d323220312e372d33322e326c312e322d35610f008201527f2e3963322e332d313220332d32332d352d33332e366c2d322e322d3320382e34610f208201527f2d322e325a2220636c69702d72756c653d226576656e6f6464222f3e3c706174610f408201527f682066696c6c3d2223303030222066696c6c2d6f7061636974793d222e322220610f608201527f643d226d33332e38203138362e362d372e3920312e3520312e35203668332e38610f808201527f6c342d322e312d312e342d352e345a222f3e3c7061746820636c6173733d2268610fa08201527f65616477656172436f6c6f724c222066696c6c2d72756c653d226576656e6f64610fc08201527f642220643d226d3231362e37203131332e362d2e3820312e35632d392e372031610fe08201527f332d382e362032362d362e322033382e346c312e3320362e3463322e312031306110008201527f2e3220342031392e3720312e362032392e326c2d2e3320312e336132203220306110208201527f2030203020312e3620322e356c342e322e376331202e3220322d2e3420322e336110408201527f2d312e346c2e342d312e3763322e382d3131202e352d32322d312e362d33322e6110608201527f326c2d312e322d352e39632d322e332d31322d332d323320352d33332e366c326110808201527f2e322d332d382e352d322e325a2220636c69702d72756c653d226576656e6f646110a08201527f64222f3e3c70617468207374726f6b653d222330303022207374726f6b652d6c6110c08201527f696e656361703d22726f756e6422207374726f6b652d77696474683d223322206110e08201527f643d226d3232312e34203138372e342d382d312e35222f3e3c7061746820636c6111008201527f6173733d2268775374723122207374726f6b652d77696474683d22332220643d6111208201527f226d3231362e37203131332e362d2e3820312e35632d392e372031332d382e366111408201527f2032362d362e322033382e346c312e3320362e3463322e312031302e322034206111608201527f31392e3720312e362032392e326c2d2e3320312e3361322032203020302030206111808201527f312e3620322e356c342e322e376331202e3220322d2e3420322e332d312e346c6111a08201527f2e342d312e3763322e382d3131202e352d32322d312e362d33322e326c2d312e6111c08201527f322d352e39632d322e332d31322d332d323320352d33332e366c322e322d332d6111e08201527f382e352d322e325a2220636c69702d72756c653d226576656e6f6464222f3e3c6112008201527f706174682066696c6c3d2223303030222066696c6c2d6f7061636974793d222e6112208201527f322220643d226d3231332e35203138362e3620372e3920312e352d312e3520366112408201527f682d332e386c2d332e392d322e3120312e332d352e345a222f3e3c2f7376673e61126082015250565b5f611e5e611280836106fb565b9150611e69826107cb565b61128082019050919050565b5f611e7f82610779565b9150611e8b828461079b565b9150611e9682611e51565b915081905092915050565b7f3c7374796c653e2e6865616477656172436f6c6f724c207b2066696c6c3a0000815250565b7f7d2e6865616477656172436f6c6f7242207b2066696c6c3a0000000000000000815250565b7f7d2e687753747231207b7374726f6b653a20233030303b7374726f6b652d6c695f8201527f6e656361703a20726f756e643b7374726f6b652d6c696e656a6f696e3a20726f60208201527f756e643b7d3c2f7374796c653e00000000000000000000000000000000000000604082015250565b5f611f6d604d836106fb565b9150611f7882611eed565b604d82019050919050565b5f611f8d82611ea1565b601e82019150611f9d828561079b565b9150611fa882611ec7565b601882019150611fb8828461079b565b9150611fc382611f61565b9150819050939250505056fea264697066735822122023ac68d0a8bf699cbdf160c8d4bfc167a55e8ec0b38699bb340bf914032e95d764736f6c63430008140033",
  "immutableReferences": {},
  "source": "// SPDX-License-Identifier: MIT\npragma solidity ^0.8.0;\n\nimport {Headwear} from '../Headwear.sol';\nimport {EduxColors} from '../EduxColors.sol';\n\nlibrary HeadwearScout {\n    enum ScoutColors {\n        GREEN,\n        PINK,\n        PURPLE,\n        BLUE,\n        GOLD\n    }\n\n    function getScout(\n        ScoutColors scoutColor\n    ) external pure returns (string memory, Headwear.HeadwearVariants, Headwear.HeadwearColors) {\n        return (\n            string.concat(\n                '<svg xmlns=\"http://www.w3.org/2000/svg\" width=\"250\" height=\"335\" x=\"-18.6\" fill=\"none\">',\n                _getScoutStyle(scoutColor),\n                '<path class=\"headwearColorL\" d=\"M205.8 92.3a35 35 0 0 0 14.5 13.8c-9.6-3.6-23-5.1-41.4-8-18-2.8-36.8-3.7-55.2-3.7-18.5 0-37.2.9-55.2 3.7-18.4 2.9-31.8 4.4-41.5 8a34.4 34.4 0 0 0 14.5-13.8c3-5.5 5.4-11.4 9.2-16.2 4.5-5.5 10.6-9 16.8-12a124.5 124.5 0 0 1 56.2-12.3A124.5 124.5 0 0 1 179.9 64c6.1 3 12.2 6.5 16.7 12 3.9 4.8 6.3 10.7 9.2 16.2Z\"/><path class=\"headwearColorB\" d=\"M142.4 52.9c-6-.8-12.3-1.1-18.7-1.1 0-6.5 2.8-14 8.4-17.6a29 29 0 0 1 19.3-4c1 4.4 1.8 9 .7 13.3a13 13 0 0 1-9.7 9.4Zm-27.1-18.7c5.5 3.7 8.4 11.1 8.4 17.6-6.5 0-12.7.3-18.8 1-4.4-.6-8.6-5-9.7-9.3a30 30 0 0 1 .7-13.3 29 29 0 0 1 19.4 4Z\"/><path class=\"headwearColorL\" d=\"M241.2 115.7c2.6 2.8 4.3 6.6 3.6 10.4.5-3.3-2.7-5.8-5.7-7.3-8.7-4.6-18.3-3.4-27.9-5.6-28.8-6.5-61-10-87.5-10-26.6 0-58.8 3.5-87.6 10-9.6 2.2-19.3 2.6-28 7.1-3 1.5-6 2.6-5.5 5.8-.8-3.7.7-7.9 3.3-10.6 2.5-2.6 9-4.6 21-8.7 9.7-3.3 23.2-4.8 41.6-7.4a374.7 374.7 0 0 1 110.4 0c18.3 2.6 31.9 3.8 41.6 7 12 4.2 18.2 6.8 20.7 9.3Z\"/><path class=\"hwStr1\" stroke-width=\"4\" d=\"M123.7 104.5c-26.6 0-58.8 2.9-87.6 7.9a140 140 0 0 0-27.9 7.1c-3 1.2-6.1 3.1-5.6 5.7.3 1.5 5 5.3 19.2 7.2M27 106s0 0 0 0a34.4 34.4 0 0 0 14.5-13.7c3-5.5 5.4-11.4 9.2-16.2a46.4 46.4 0 0 1 16.8-12 124.6 124.6 0 0 1 56.2-12.3\"/><path class=\"hwStr1\" stroke-width=\"4\" d=\"M105 52.9c-4.5-.7-8.7-5-9.8-9.4a30 30 0 0 1 .7-13.3 29 29 0 0 1 19.4 4c5.5 3.7 8.4 11.1 8.4 17.6\"/><path class=\"hwStr1\" stroke-width=\"3\" d=\"M107.4 42c4 1.8 7.3 5.3 9 9.5\"/><path class=\"hwStr1\" stroke-width=\"4\" d=\"M123.7 104.5c26.5 0 58.7 2.9 87.5 7.9a140 140 0 0 1 28 7.1c2.9 1.2 6 3.1 5.6 5.7-.4 1.5-5 5.3-19.3 7.2\"/><path class=\"hwStr1\" stroke-width=\"4\" d=\"M2.6 123.1s0 0 0 0c-.8-3 1-6.2 3.6-8.4 2.5-2 8.7-5.3 20.8-8.6m217.8 17s0 0 0 0c.7-3-1-6.2-3.6-8.4-2.5-2-8.7-5.3-20.9-8.6m.1-.1s0 0 0 0a34.4 34.4 0 0 1-14.6-13.7c-3-5.5-5.3-11.4-9.2-16.2a46.4 46.4 0 0 0-16.8-12 124.6 124.6 0 0 0-56.1-12.3\"/><path class=\"hwStr1\" stroke-width=\"4\" d=\"M142.4 52.9a13 13 0 0 0 9.7-9.4c1-4.3.4-8.9-.7-13.3a29 29 0 0 0-19.3 4c-5.6 3.7-8.4 11.1-8.4 17.6\"/><path class=\"hwStr1\" stroke-width=\"3\" d=\"M140 42a17.1 17.1 0 0 0-9 9.5\"/><path class=\"headwearColorL\" d=\"M4.5 124.7c-2-2.6 17.4-7.4 17.4-7.4s-1.3 4-1.8 6.8c-.3 2.3-.4 6-.4 6s-12-1.3-15.2-5.4Zm238.4 0c2-2.6-17.4-7.4-17.4-7.4s1.3 4 1.7 6.8c.4 2.3.5 6 .5 6s12-1.3 15.2-5.4Z\"/><path fill=\"#000\" fill-opacity=\".3\" d=\"M4.5 124.7c-2-2.6 17.4-7.4 17.4-7.4s-1.3 4-1.8 6.8c-.3 2.3-.4 6-.4 6s-12-1.3-15.2-5.4Zm238.4 0c2-2.6-17.4-7.4-17.4-7.4s1.3 4 1.7 6.8c.4 2.3.5 6 .5 6s12-1.3 15.2-5.4Z\"/><path fill=\"#fff\" d=\"M130.7 67.7c-.1.2-.4 0-.4-.1v-.7c-.2-8.4-13-8.4-13.3 0v.7c0 .2-.2.3-.4.1l-.4-.4c-6.2-5.8-15.2 3.2-9.4 9.3l.5.5c7 7 16.4 7 16.4 7s9.4 0 16.4-7l.4-.5c5.8-6.1-3.2-15.1-9.4-9.3l-.4.4Z\"/><path stroke=\"#000\" stroke-linecap=\"square\" stroke-linejoin=\"round\" stroke-width=\"3\" d=\"M130.7 67.7v0c-.1.2-.4 0-.4-.1v0-.7c-.2-8.4-13-8.4-13.3 0v.7c0 .2-.2.3-.4.1v0l-.4-.4c-6.2-5.8-15.2 3.2-9.4 9.3l.5.5c7 7 16.4 7 16.4 7s9.4 0 16.4-7l.4-.5c5.8-6.1-3.2-15.1-9.4-9.3l-.4.4Z\"/><path class=\"hwStr1\" stroke-width=\"3\" d=\"M27 106.6c9.7-2.7 23.1-5.4 41.5-7.5a476 476 0 0 1 110.4 0c18.3 2.1 31.8 4.8 41.4 7.5\"/><path stroke=\"#000\" stroke-dasharray=\"9 9\" stroke-linecap=\"round\" stroke-linejoin=\"round\" stroke-opacity=\".2\" stroke-width=\"2.5\" d=\"M37.5 98.7c8.3-1.8 18.5-3.5 31-5a476 476 0 0 1 110.4 0c12.9 1.5 23.4 3.3 31.8 5.1\"/><path class=\"headwearColorL\" fill-rule=\"evenodd\" d=\"m30.6 113.6.9 1.5c9.6 13 8.5 26 6.1 38.4l-1.3 6.4c-2 10.2-4 19.7-1.6 29.2l.4 1.3a2 2 0 0 1-1.6 2.5l-4.3.7a2 2 0 0 1-2.3-1.4l-.4-1.7c-2.8-11-.5-22 1.7-32.2l1.2-5.9c2.3-12 3-23-5-33.6l-2.2-3 8.4-2.2Z\" clip-rule=\"evenodd\"/><path stroke=\"#000\" stroke-linecap=\"round\" stroke-width=\"3\" d=\"m26 187.4 8-1.5\"/><path class=\"hwStr1\" stroke-width=\"3\" d=\"m30.6 113.6.9 1.5c9.6 13 8.5 26 6.1 38.4l-1.3 6.4c-2 10.2-4 19.7-1.6 29.2l.4 1.3a2 2 0 0 1-1.6 2.5l-4.3.7a2 2 0 0 1-2.3-1.4l-.4-1.7c-2.8-11-.5-22 1.7-32.2l1.2-5.9c2.3-12 3-23-5-33.6l-2.2-3 8.4-2.2Z\" clip-rule=\"evenodd\"/><path fill=\"#000\" fill-opacity=\".2\" d=\"m33.8 186.6-7.9 1.5 1.5 6h3.8l4-2.1-1.4-5.4Z\"/><path class=\"headwearColorL\" fill-rule=\"evenodd\" d=\"m216.7 113.6-.8 1.5c-9.7 13-8.6 26-6.2 38.4l1.3 6.4c2.1 10.2 4 19.7 1.6 29.2l-.3 1.3a2 2 0 0 0 1.6 2.5l4.2.7c1 .2 2-.4 2.3-1.4l.4-1.7c2.8-11 .5-22-1.6-32.2l-1.2-5.9c-2.3-12-3-23 5-33.6l2.2-3-8.5-2.2Z\" clip-rule=\"evenodd\"/><path stroke=\"#000\" stroke-linecap=\"round\" stroke-width=\"3\" d=\"m221.4 187.4-8-1.5\"/><path class=\"hwStr1\" stroke-width=\"3\" d=\"m216.7 113.6-.8 1.5c-9.7 13-8.6 26-6.2 38.4l1.3 6.4c2.1 10.2 4 19.7 1.6 29.2l-.3 1.3a2 2 0 0 0 1.6 2.5l4.2.7c1 .2 2-.4 2.3-1.4l.4-1.7c2.8-11 .5-22-1.6-32.2l-1.2-5.9c-2.3-12-3-23 5-33.6l2.2-3-8.5-2.2Z\" clip-rule=\"evenodd\"/><path fill=\"#000\" fill-opacity=\".2\" d=\"m213.5 186.6 7.9 1.5-1.5 6h-3.8l-3.9-2.1 1.3-5.4Z\"/></svg>'\n            ),\n            Headwear.HeadwearVariants.SCOUT,\n            _getHeadwearColor(scoutColor)\n        );\n    }\n\n    function _getScoutStyle(ScoutColors scoutColor) internal pure returns (string memory) {\n        (string memory lightColor, string memory baseColor) = _getScoutColor(scoutColor);\n        return\n            string.concat(\n                '<style>.headwearColorL { fill:',\n                lightColor,\n                '}.headwearColorB { fill:',\n                baseColor,\n                '}.hwStr1 {stroke: #000;stroke-linecap: round;stroke-linejoin: round;}</style>'\n            );\n    }\n\n    function _getScoutColor(ScoutColors scoutColor) internal pure returns (string memory, string memory) {\n        if (scoutColor == ScoutColors.GREEN) {\n            return (EduxColors.lightGreen, EduxColors.baseGreen);\n        } else if (scoutColor == ScoutColors.PURPLE) {\n            return (EduxColors.lightPurple, EduxColors.basePurple);\n        } else if (scoutColor == ScoutColors.BLUE) {\n            return (EduxColors.lightBlue, EduxColors.baseBlue);\n        } else if (scoutColor == ScoutColors.PINK) {\n            return (EduxColors.lightPink, EduxColors.basePink);\n        } else if (scoutColor == ScoutColors.GOLD) {\n            return (EduxColors.lightGold, EduxColors.baseGold);\n        } else {\n            revert(); // Avoid warnings.\n        }\n    }\n\n    function _getHeadwearColor(ScoutColors scoutColor) internal pure returns (Headwear.HeadwearColors) {\n        if (scoutColor == ScoutColors.GREEN) {\n            return Headwear.HeadwearColors.GREEN;\n        } else if (scoutColor == ScoutColors.PURPLE) {\n            return Headwear.HeadwearColors.PURPLE;\n        } else if (scoutColor == ScoutColors.BLUE) {\n            return Headwear.HeadwearColors.BLUE;\n        } else if (scoutColor == ScoutColors.PINK) {\n            return Headwear.HeadwearColors.PINK;\n        } else if (scoutColor == ScoutColors.GOLD) {\n            return Headwear.HeadwearColors.GOLD;\n        } else {\n            revert(); // Avoid warnings.\n        }\n    }\n}\n",
  "sourcePath": "E:\\Blockchain\\EDUIndex\\EduxContract\\contracts\\libraries\\svgs\\Profile\\Headwear\\HeadwearScout.sol",
  "compiler": {
    "name": "solc",
    "version": "0.8.20+commit.a1b79de6.Emscripten.clang"
  },
  "schemaVersion": "3.4.3",
  "updatedAt": "2024-08-25T13:13:21.966Z",
  "devdoc": {
    "kind": "dev",
    "methods": {},
    "version": 1
  },
  "userdoc": {
    "kind": "user",
    "methods": {},
    "version": 1
  }
}