{
  "contractName": "Head",
  "abi": [
    {
      "inputs": [
        {
          "internalType": "enum Head.HeadColors",
          "name": "headColor",
          "type": "Head.HeadColors"
        }
      ],
      "name": "getHead",
      "outputs": [
        {
          "internalType": "string",
          "name": "",
          "type": "string"
        }
      ],
      "stateMutability": "pure",
      "type": "function"
    }
  ],
  "bytecode": "0x610f7661004e600b8282823980515f1a607314610042577f4e487b71000000000000000000000000000000000000000000000000000000005f525f60045260245ffd5b305f52607381538281f3fe7300000000000000000000000000000000000000003014608060405260043610610034575f3560e01c80639565513014610038575b5f80fd5b610052600480360381019061004d919061035e565b610068565b60405161005f9190610413565b60405180910390f35b606060048081111561007d5761007c610433565b5b8260048111156100905761008f610433565b5b036100b85760405180610540016040528061050d8152602001610a3461050d913990506100e3565b6100c1826100e8565b6040516020016100d19190610a07565b60405160208183030381529060405290505b919050565b606061011a826004811115610100576100ff610433565b5b60ff16600481111561011557610114610433565b5b610121565b9050919050565b60605f600481111561013657610135610433565b5b82600481111561014957610148610433565b5b0361018b576040518060400160405280600781526020017f23413044313730000000000000000000000000000000000000000000000000008152509050610332565b6001600481111561019f5761019e610433565b5b8260048111156101b2576101b1610433565b5b036101f4576040518060400160405280600781526020017f23464644324444000000000000000000000000000000000000000000000000008152509050610332565b6002600481111561020857610207610433565b5b82600481111561021b5761021a610433565b5b0361025d576040518060400160405280600781526020017f23454144374646000000000000000000000000000000000000000000000000008152509050610332565b6003600481111561027157610270610433565b5b82600481111561028457610283610433565b5b036102c6576040518060400160405280600781526020017f23443945304646000000000000000000000000000000000000000000000000008152509050610332565b6004808111156102d9576102d8610433565b5b8260048111156102ec576102eb610433565b5b0361032e576040518060400160405280600781526020017f23463843393434000000000000000000000000000000000000000000000000008152509050610332565b5f80fd5b919050565b5f80fd5b60058110610347575f80fd5b50565b5f813590506103588161033b565b92915050565b5f6020828403121561037357610372610337565b5b5f6103808482850161034a565b91505092915050565b5f81519050919050565b5f82825260208201905092915050565b5f5b838110156103c05780820151818401526020810190506103a5565b5f8484015250505050565b5f601f19601f8301169050919050565b5f6103e582610389565b6103ef8185610393565b93506103ff8185602086016103a3565b610408816103cb565b840191505092915050565b5f6020820190508181035f83015261042b81846103db565b905092915050565b7f4e487b71000000000000000000000000000000000000000000000000000000005f52602160045260245ffd5b5f81905092915050565b7f3c73766720786d6c6e733d22687474703a2f2f7777772e77332e6f72672f32305f8201527f30302f737667222077696474683d2232313022206865696768743d223333352260208201527f2066696c6c3d226e6f6e65223e3c706174682066696c6c3d2200000000000000604082015250565b5f6104ea605983610460565b91506104f58261046a565b605982019050919050565b5f61050a82610389565b6105148185610460565b93506105248185602086016103a3565b80840191505092915050565b7f2220643d224d3134332e33203130342e38632d2e382e382d322e322e332d322e5f8201527f322d2e39762d332e33632d312e332d34362e312d37312d34362e312d37322e3260208201527f203076332e33633020312e312d312e3420312e372d322e32203161313435203160408201527f34352030203020302d322e342d322e34632d33332e362d33312e372d38322e3860608201527f2031372e342d35312035302e396c322e3320322e34413133382e34203133382e60808201527f34203020302030203130352031393473353120302038392e342d33382e326c3260a08201527f2e342d322e346333312e372d33332e352d31372e352d38322e362d35312d353160c08201527f6c2d322e3520322e345a222f3e3c636972636c652063783d2234222063793d2260e08201527f342220723d2234222066696c6c3d2223666666222066696c6c2d6f70616369746101008201527f793d222e3522207472616e73666f726d3d226d6174726978282d3120302030206101208201527f31203139392e332031323629222f3e3c706174682066696c6c3d2223666666226101408201527f2066696c6c2d6f7061636974793d222e352220643d224d3139352e35203131376101608201527f2e35613520352030203020312d39203420362e3720362e372030203020302d2e6101808201527f332d2e376c2d312e322d32632d312d312e372d322e332d332e352d332e362d346101a08201527f2e362d312e352d312e322d322e362d322d332e372d322e356c2d312e372d2e386101c08201527f613320332030203020312d312e342d346c2e312d2e33632e382d312e3520302d6101e08201527f332e332d312e352d332e352d312e392d2e332d332e342d2e332d352d2e32682d6102008201527f2e3161312e3820312e382030203020312d2e332d332e352032332e362032332e6102208201527f362030203020312031362e3620342e386331202e3720322e3220312e3520332e6102408201527f3320322e356132392e322032392e3220302030203120372e372031302e34762e6102608201527f33682e31222f3e3c70617468207374726f6b653d222330303022207374726f6b6102808201527f652d6c696e656361703d2273717561726522207374726f6b652d6c696e656a6f6102a08201527f696e3d22726f756e6422207374726f6b652d77696474683d22342220643d224d6102c08201527f3134332e33203130342e387630632d2e382e382d322e322e332d322e322d2e396102e08201527f76302d332e33632d312e332d34362e312d37312d34362e312d37322e322030766103008201527f332e33633020312e312d312e3420312e372d322e3220317630613134352031346103208201527f352030203020302d322e342d322e34632d33332e362d33312e372d38322e38206103408201527f31372e342d35312035302e396c322e3320322e34413133382e34203133382e346103608201527f203020302030203130352031393473353120302038392e342d33382e326c322e6103808201527f342d322e346333312e372d33332e352d31372e352d38322e362d35312d35316c6103a08201527f2d322e3520322e345a222f3e3c2f7376673e00000000000000000000000000006103c082015250565b5f6109f06103d283610460565b91506109fb82610530565b6103d282019050919050565b5f610a11826104de565b9150610a1d8284610500565b9150610a28826109e3565b91508190509291505056fe3c73766720786d6c6e733d22687474703a2f2f7777772e77332e6f72672f323030302f737667222077696474683d2232313022206865696768743d22333335222066696c6c3d226e6f6e65223e3c706174682066696c6c3d2275726c282361292220643d224d3134332e33203130342e38632d2e382e382d322e322e332d322e322d2e39762d332e33632d312e332d34362e312d37312d34362e312d37322e32203076332e33633020312e312d312e3420312e372d322e32203161313435203134352030203020302d322e342d322e34632d33332e362d33312e372d38322e382031372e342d35312035302e396c322e3320322e34413133382e34203133382e34203020302030203130352031393473353120302038392e342d33382e326c322e342d322e346333312e372d33332e352d31372e352d38322e362d35312d35316c2d322e3520322e345a222f3e3c636972636c652063783d2234222063793d22342220723d2234222066696c6c3d2223666666222066696c6c2d6f7061636974793d222e3522207472616e73666f726d3d226d6174726978282d31203020302031203139392e332031323629222f3e3c706174682066696c6c3d2223666666222066696c6c2d6f7061636974793d222e352220643d224d3139352e35203131372e35613520352030203020312d39203420362e3720362e372030203020302d2e332d2e376c2d312e322d32632d312d312e372d322e332d332e352d332e362d342e362d312e352d312e322d322e362d322d332e372d322e356c2d312e372d2e38613320332030203020312d312e342d346c2e312d2e33632e382d312e3520302d332e332d312e352d332e352d312e392d2e332d332e342d2e332d352d2e32682d2e3161312e3820312e382030203020312d2e332d332e352032332e362032332e362030203020312031362e3620342e386331202e3720322e3220312e3520332e3320322e356132392e322032392e3220302030203120372e372031302e34762e33682e31222f3e3c70617468207374726f6b653d222330303022207374726f6b652d6c696e656361703d2273717561726522207374726f6b652d6c696e656a6f696e3d22726f756e6422207374726f6b652d77696474683d22342220643d224d3134332e33203130342e387630632d2e382e382d322e322e332d322e322d2e3976302d332e33632d312e332d34362e312d37312d34362e312d37322e32203076332e33633020312e312d312e3420312e372d322e322031763061313435203134352030203020302d322e342d322e34632d33332e362d33312e372d38322e382031372e342d35312035302e396c322e3320322e34413133382e34203133382e34203020302030203130352031393473353120302038392e342d33382e326c322e342d322e346333312e372d33332e352d31372e352d38322e362d35312d35316c2d322e3520322e345a222f3e3c646566733e3c72616469616c4772616469656e742069643d2261222063783d2230222063793d22302220723d223122206772616469656e745472616e73666f726d3d226d6174726978283020313238202d3230342030203130352036362922206772616469656e74556e6974733d227573657253706163654f6e557365223e3c73746f702073746f702d636f6c6f723d2223464644423736222f3e3c73746f70206f66667365743d2231222073746f702d636f6c6f723d2223463843393434222f3e3c2f72616469616c4772616469656e743e3c2f646566733e3c2f7376673ea26469706673582212207b96acf0b65e6c102f63d0e62b33d70ab6fc364fe586cb69b9e28456cec410ec64736f6c63430008140033",
  "immutableReferences": {},
  "source": "// SPDX-License-Identifier: MIT\npragma solidity ^0.8.0;\n\nimport {Skin} from './Helpers.sol';\n\nlibrary Head {\n    enum HeadColors {\n        GREEN,\n        PINK,\n        PURPLE,\n        BLUE,\n        GOLD\n    }\n\n    // // we take the 1th byte from the left for skin color\n    // uint8 color = uint8((seed >> 248) & 0xFF) % 3;\n    function getHead(HeadColors headColor) external pure returns (string memory) {\n        if (headColor == HeadColors.GOLD) {\n            return\n                '<svg xmlns=\"http://www.w3.org/2000/svg\" width=\"210\" height=\"335\" fill=\"none\"><path fill=\"url(#a)\" d=\"M143.3 104.8c-.8.8-2.2.3-2.2-.9v-3.3c-1.3-46.1-71-46.1-72.2 0v3.3c0 1.1-1.4 1.7-2.2 1a145 145 0 0 0-2.4-2.4c-33.6-31.7-82.8 17.4-51 50.9l2.3 2.4A138.4 138.4 0 0 0 105 194s51 0 89.4-38.2l2.4-2.4c31.7-33.5-17.5-82.6-51-51l-2.5 2.4Z\"/><circle cx=\"4\" cy=\"4\" r=\"4\" fill=\"#fff\" fill-opacity=\".5\" transform=\"matrix(-1 0 0 1 199.3 126)\"/><path fill=\"#fff\" fill-opacity=\".5\" d=\"M195.5 117.5a5 5 0 0 1-9 4 6.7 6.7 0 0 0-.3-.7l-1.2-2c-1-1.7-2.3-3.5-3.6-4.6-1.5-1.2-2.6-2-3.7-2.5l-1.7-.8a3 3 0 0 1-1.4-4l.1-.3c.8-1.5 0-3.3-1.5-3.5-1.9-.3-3.4-.3-5-.2h-.1a1.8 1.8 0 0 1-.3-3.5 23.6 23.6 0 0 1 16.6 4.8c1 .7 2.2 1.5 3.3 2.5a29.2 29.2 0 0 1 7.7 10.4v.3h.1\"/><path stroke=\"#000\" stroke-linecap=\"square\" stroke-linejoin=\"round\" stroke-width=\"4\" d=\"M143.3 104.8v0c-.8.8-2.2.3-2.2-.9v0-3.3c-1.3-46.1-71-46.1-72.2 0v3.3c0 1.1-1.4 1.7-2.2 1v0a145 145 0 0 0-2.4-2.4c-33.6-31.7-82.8 17.4-51 50.9l2.3 2.4A138.4 138.4 0 0 0 105 194s51 0 89.4-38.2l2.4-2.4c31.7-33.5-17.5-82.6-51-51l-2.5 2.4Z\"/><defs><radialGradient id=\"a\" cx=\"0\" cy=\"0\" r=\"1\" gradientTransform=\"matrix(0 128 -204 0 105 66)\" gradientUnits=\"userSpaceOnUse\"><stop stop-color=\"#FFDB76\"/><stop offset=\"1\" stop-color=\"#F8C944\"/></radialGradient></defs></svg>';\n        } else {\n            return\n                string.concat(\n                    '<svg xmlns=\"http://www.w3.org/2000/svg\" width=\"210\" height=\"335\" fill=\"none\"><path fill=\"',\n                    _getHeadColorHex(headColor),\n                    '\" d=\"M143.3 104.8c-.8.8-2.2.3-2.2-.9v-3.3c-1.3-46.1-71-46.1-72.2 0v3.3c0 1.1-1.4 1.7-2.2 1a145 145 0 0 0-2.4-2.4c-33.6-31.7-82.8 17.4-51 50.9l2.3 2.4A138.4 138.4 0 0 0 105 194s51 0 89.4-38.2l2.4-2.4c31.7-33.5-17.5-82.6-51-51l-2.5 2.4Z\"/><circle cx=\"4\" cy=\"4\" r=\"4\" fill=\"#fff\" fill-opacity=\".5\" transform=\"matrix(-1 0 0 1 199.3 126)\"/><path fill=\"#fff\" fill-opacity=\".5\" d=\"M195.5 117.5a5 5 0 0 1-9 4 6.7 6.7 0 0 0-.3-.7l-1.2-2c-1-1.7-2.3-3.5-3.6-4.6-1.5-1.2-2.6-2-3.7-2.5l-1.7-.8a3 3 0 0 1-1.4-4l.1-.3c.8-1.5 0-3.3-1.5-3.5-1.9-.3-3.4-.3-5-.2h-.1a1.8 1.8 0 0 1-.3-3.5 23.6 23.6 0 0 1 16.6 4.8c1 .7 2.2 1.5 3.3 2.5a29.2 29.2 0 0 1 7.7 10.4v.3h.1\"/><path stroke=\"#000\" stroke-linecap=\"square\" stroke-linejoin=\"round\" stroke-width=\"4\" d=\"M143.3 104.8v0c-.8.8-2.2.3-2.2-.9v0-3.3c-1.3-46.1-71-46.1-72.2 0v3.3c0 1.1-1.4 1.7-2.2 1v0a145 145 0 0 0-2.4-2.4c-33.6-31.7-82.8 17.4-51 50.9l2.3 2.4A138.4 138.4 0 0 0 105 194s51 0 89.4-38.2l2.4-2.4c31.7-33.5-17.5-82.6-51-51l-2.5 2.4Z\"/></svg>'\n                );\n        }\n    }\n\n    function _getHeadColorHex(HeadColors headColor) internal pure returns (string memory) {\n        return Skin.getSkinColor(Skin.SkinColors(uint8(headColor)));\n    }\n}\n",
  "sourcePath": "E:\\Blockchain\\EDUIndex\\EduxContract\\contracts\\libraries\\svgs\\Profile\\Head.sol",
  "compiler": {
    "name": "solc",
    "version": "0.8.20+commit.a1b79de6.Emscripten.clang"
  },
  "schemaVersion": "3.4.3",
  "updatedAt": "2024-08-25T13:13:21.641Z",
  "devdoc": {
    "kind": "dev",
    "methods": {},
    "version": 1
  },
  "userdoc": {
    "kind": "user",
    "methods": {},
    "version": 1
  }
}