{
  "contractName": "HeadwearMajor",
  "abi": [
    {
      "inputs": [
        {
          "internalType": "enum HeadwearMajor.MajorColors",
          "name": "majorColor",
          "type": "HeadwearMajor.MajorColors"
        }
      ],
      "name": "getMajor",
      "outputs": [
        {
          "internalType": "string",
          "name": "",
          "type": "string"
        },
        {
          "internalType": "enum Headwear.HeadwearVariants",
          "name": "",
          "type": "Headwear.HeadwearVariants"
        },
        {
          "internalType": "enum Headwear.HeadwearColors",
          "name": "",
          "type": "Headwear.HeadwearColors"
        }
      ],
      "stateMutability": "pure",
      "type": "function"
    }
  ],
  "bytecode": "0x611a3461004e600b8282823980515f1a607314610042577f4e487b71000000000000000000000000000000000000000000000000000000005f525f60045260245ffd5b305f52607381538281f3fe7300000000000000000000000000000000000000003014608060405260043610610034575f3560e01c80637c260cb114610038575b5f80fd5b610052600480360381019061004d919061042d565b61006a565b6040516100619392919061059b565b60405180910390f35b60605f80610077846100ae565b60405160200161008791906118e6565b60405160208183030381529060405260126100a1866100df565b9250925092509193909250565b60606100b9826101f0565b6040516020016100c991906119ce565b6040516020818303038152906040529050919050565b5f8060048111156100f3576100f26104e2565b5b826004811115610106576101056104e2565b5b0361011457600190506101eb565b60026004811115610128576101276104e2565b5b82600481111561013b5761013a6104e2565b5b0361014957600290506101eb565b6003600481111561015d5761015c6104e2565b5b8260048111156101705761016f6104e2565b5b0361017e57600390506101eb565b60016004811115610192576101916104e2565b5b8260048111156101a5576101a46104e2565b5b036101b357600490506101eb565b6004808111156101c6576101c56104e2565b5b8260048111156101d9576101d86104e2565b5b036101e757600590506101eb565b5f80fd5b919050565b60605f6004811115610205576102046104e2565b5b826004811115610218576102176104e2565b5b0361025a576040518060400160405280600781526020017f23413044313730000000000000000000000000000000000000000000000000008152509050610401565b6002600481111561026e5761026d6104e2565b5b826004811115610281576102806104e2565b5b036102c3576040518060400160405280600781526020017f23454144374646000000000000000000000000000000000000000000000000008152509050610401565b600360048111156102d7576102d66104e2565b5b8260048111156102ea576102e96104e2565b5b0361032c576040518060400160405280600781526020017f23443945304646000000000000000000000000000000000000000000000000008152509050610401565b600160048111156103405761033f6104e2565b5b826004811115610353576103526104e2565b5b03610395576040518060400160405280600781526020017f23464644324444000000000000000000000000000000000000000000000000008152509050610401565b6004808111156103a8576103a76104e2565b5b8260048111156103bb576103ba6104e2565b5b036103fd576040518060400160405280600781526020017f23463843393434000000000000000000000000000000000000000000000000008152509050610401565b5f80fd5b919050565b5f80fd5b60058110610416575f80fd5b50565b5f813590506104278161040a565b92915050565b5f6020828403121561044257610441610406565b5b5f61044f84828501610419565b91505092915050565b5f81519050919050565b5f82825260208201905092915050565b5f5b8381101561048f578082015181840152602081019050610474565b5f8484015250505050565b5f601f19601f8301169050919050565b5f6104b482610458565b6104be8185610462565b93506104ce818560208601610472565b6104d78161049a565b840191505092915050565b7f4e487b71000000000000000000000000000000000000000000000000000000005f52602160045260245ffd5b601681106105205761051f6104e2565b5b50565b5f8190506105308261050f565b919050565b5f61053f82610523565b9050919050565b61054f81610535565b82525050565b60068110610566576105656104e2565b5b50565b5f81905061057682610555565b919050565b5f61058582610569565b9050919050565b6105958161057b565b82525050565b5f6060820190508181035f8301526105b381866104aa565b90506105c26020830185610546565b6105cf604083018461058c565b949350505050565b5f81905092915050565b7f3c73766720786d6c6e733d22687474703a2f2f7777772e77332e6f72672f32305f8201527f30302f737667222077696474683d2232353022206865696768743d223333352260208201527f20783d222d3134222066696c6c3d226e6f6e65223e0000000000000000000000604082015250565b5f6106616055836105d7565b915061066c826105e1565b605582019050919050565b5f61068182610458565b61068b81856105d7565b935061069b818560208601610472565b80840191505092915050565b7f3c706174682066696c6c3d22233030302220643d224d33352e38203136302e365f8201527f2032312e36203135376c362e3620352e3920313120322e332d332e342d342e3660208201527f5a6d3136362e3120304c323136203135376c2d362e3620352e392d313120322e60408201527f3320332e352d342e365a222f3e3c7061746820636c6173733d2268775374723160608201527f22207374726f6b652d77696474683d22342220643d224d37352e35203139322e60808201527f3963342e322d312e3220382e382d322e352031332d332e316d37332e3520332e60a08201527f316139342e362039342e362030203020302d31332d332e31222f3e3c7061746860c08201527f20636c6173733d226865616477656172436f6c6f7242222066696c6c2d72756c60e08201527f653d226576656e6f64642220643d224d3134382e34203139312e32682d2e326c6101008201527f2d2e362e3261313738203137382030203020312d392e3720322e32632d3620316101208201527f2e322d31332e3420322e342d31392e3220322e346131303420313034203020306101408201527f20312d31392e312d322e34203230362e35203230362e352030203020312d392e6101608201527f362d322e326c2d2e362d2e31682d2e376c2d31202e316135312e352035312e356101808201527f2030203020302d352e3820312e34682d2e336c2d2e352e322e342e326131342e6101a08201527f332031342e33203020302030202e372e322036312e342036312e3420302030206101c08201527f3020392e3520322e3620313236203132362030203020302036342d322e38682e6101e08201527f326c2e352d2e322d2e352d2e312d2e332d2e312d2e392d2e326137322e3320376102008201527f322e332030203020302d362e322d312e345a6d372e352032762d2e322e325a6d6102208201527f2d37342e342030762d2e322e325a6d372e372d32762e322d2e325a2220636c696102408201527f702d72756c653d226576656e6f6464222f3e3c706174682066696c6c3d2223306102608201527f3030222066696c6c2d6f7061636974793d222e33222066696c6c2d72756c653d6102808201527f226576656e6f64642220643d224d3134382e34203139312e32682d2e326c2d2e6102a08201527f362e3261313738203137382030203020312d392e3720322e32632d3620312e326102c08201527f2d31332e3420322e342d31392e3220322e3461313034203130342030203020316102e08201527f2d31392e312d322e34203230362e35203230362e352030203020312d392e362d6103008201527f322e326c2d2e362d2e31682d2e376c2d31202e316135312e352035312e3520306103208201527f203020302d352e3820312e34682d2e336c2d2e352e322e342e326131342e33206103408201527f31342e33203020302030202e372e322036312e342036312e34203020302030206103608201527f392e3520322e3620313236203132362030203020302036342d322e38682e326c6103808201527f2e352d2e322d2e352d2e312d2e332d2e312d2e392d2e326137322e332037322e6103a08201527f332030203020302d362e322d312e345a6d372e352032762d2e322e325a6d2d376103c08201527f342e342030762d2e322e325a6d372e372d32762e322d2e325a2220636c69702d6103e08201527f72756c653d226576656e6f6464222f3e3c706174682066696c6c3d22236666666104008201527f222066696c6c2d6f7061636974793d222e332220643d224d3735203139322e396104208201527f613132342e33203132342e332030203020312d34342d32332e37632d31322e386104408201527f2d31312e322d32332e352d32352d32322e362d34326134392e342034392e34206104608201527f30203020312032342d33382e336331332d372e312032392e392d372034322e386104808201527f2e346135302e372035302e372030203020312031362e342d32332034332034336104a08201527f2030203020312032372d382e3620343320343320302030203120323720382e366104c08201527f2035302e372035302e372030203020312031362e352032336331332d372e34206104e08201527f32392e372d372e352034322e382d2e346134392e342034392e342030203020316105008201527f2032342033382e33632e392031372d392e382033302e382d32322e36203432616105208201527f3132342e33203132342e332030203020312d34342e322032332e3720313030206105408201527f3130302030203020312d32312e3420352e39413133352e36203133352e3620306105608201527f2030203120373520313933762d2e315a222f3e3c7061746820636c6173733d226105808201527f68775374723122207374726f6b652d77696474683d22342220643d224d3930206105a08201527f3139372e33632d352d312d31302d322e362d31342e372d342e34413132342e346105c08201527f203132342e342030203020312033312e312031363961393920393920302030206105e08201527f312d392e362d392e362034362034362030203020312d31332d33322e35632e356106008201527f2d372e3620332e342d31352e3620372e382d32322e36613436203436203020306106208201527f20312031362e322d31352e366331332e312d372e322032392e392d372034322e6106408201527f392e346135302e372035302e372030203020312031362e342d323320343320346106608201527f332030203020312032372d382e3620343320343320302030203120323720382e6106808201527f352035302e372035302e372030203020312031362e342032332e316331332d376106a08201527f2e342032392e382d372e362034322e392d2e34613436203436203020302031206106c08201527f31362e322031352e3663342e34203720372e3320313520372e372032322e36616106e08201527f34352e362034352e362030203020312d31332033322e352039392039392030206107008201527f3020312d392e3620392e36203132342e34203132342e342030203020312d34346107208201527f2e312032332e3820313030203130302030203020312d32312e3520352e3820316107408201527f33352e36203133352e362030203020312d35302e382d312e345a222f3e3c70616107608201527f74682066696c6c3d22236666662220643d224d3930203139372e33632d352d316107808201527f2d31302d322e362d31342e372d342e34413132342e34203132342e34203020306107a08201527f20312033312e31203136396139392039392030203020312d392e362d392e36736107c08201527f33382032302e372039372e332032302e372039372e322d32302e372039372e326107e08201527f2d32302e376139392039392030203020312d392e3620392e36203132342e34206108008201527f3132342e342030203020312d34342e312032332e3820313030203130302030206108208201527f3020312d32312e3520352e38203133352e36203133352e362030203020312d356108408201527f302e382d312e345a222f3e3c7061746820636c6173733d2268775374723122206108608201527f7374726f6b652d77696474683d22342220643d224d3930203139372e33632d356108808201527f2d312d31302d322e362d31342e372d342e34413132342e34203132342e3420306108a08201527f203020312033312e31203136396139392039392030203020312d392e362d392e6108c08201527f367333382032302e372039372e332032302e372039372e322d32302e372039376108e08201527f2e322d32302e376139392039392030203020312d392e3620392e36203132342e6109008201527f34203132342e342030203020312d34342e312032332e382031303020313030206109208201527f30203020312d32312e3520352e38203133352e36203133352e362030203020316109408201527f2d35302e382d312e345a222f3e3c7061746820636c6173733d226877537472316109608201527f22207374726f6b652d6f7061636974793d222e3322207374726f6b652d7769646109808201527f74683d22332220643d224d3439203138302e356331312e3720332e362032382e6109a08201527f3620372e372034382e3220392e366d39312e322d392e38632d313220332e372d6109c08201527f32392e3320382d34392e3620392e39222f3e3c636972636c6520636c6173733d6109e08201527f226865616477656172436f6c6f7242222063783d223131382e33222063793d22610a008201527f3139322e332220723d22322e37222f3e3c636972636c652063783d223131382e610a208201527f33222063793d223139322e332220723d22322e3722207374726f6b653d222330610a408201527f303022207374726f6b652d77696474683d22322e35222f3e3c636972636c6520610a608201527f636c6173733d226865616477656172436f6c6f7242222063783d223130362e37610a808201527f222063793d223139312e382220723d22322e32222f3e3c636972636c65206378610aa08201527f3d223130362e37222063793d223139312e382220723d22322e3222207374726f610ac08201527f6b653d222330303022207374726f6b652d77696474683d22322e35222f3e3c63610ae08201527f6972636c6520636c6173733d226865616477656172436f6c6f7242222063783d610b008201527f223132392e39222063793d223139312e382220723d22322e32222f3e3c636972610b208201527f636c652063783d223132392e39222063793d223139312e382220723d22322e32610b408201527f22207374726f6b653d222330303022207374726f6b652d77696474683d22322e610b608201527f35222f3e3c706174682066696c6c3d22236666662220643d224d332e32203131610b808201527f352e3668372e35732d3220352e322d322031332e3520322031332e3520322031610ba08201527f332e3548332e32732d322d342e322d322d31332e3520322d31332e3520322d31610bc08201527f332e355a222f3e3c7061746820636c6173733d2268775374723122207374726f610be08201527f6b652d77696474683d22342220643d224d332e31203131382e38632e342d3220610c008201527f322e322d332e3220342e322d332e3268332e345339203132302e382039203132610c208201527f392e3173312e382031332e3520312e382031332e3548372e33632d3220302d33610c408201527f2e382d312e332d342e322d332e326135362e312035362e31203020302031202e610c608201527f312d32302e365a222f3e3c706174682066696c6c3d22236666662220643d224d610c808201527f3233342e31203131352e36682d372e35733220352e3220322031332e352d3220610ca08201527f31332e352d322031332e3568372e3573322d342e3220322d31332e352d322d31610cc08201527f332e352d322d31332e355a222f3e3c7061746820636c6173733d226877537472610ce08201527f3122207374726f6b652d77696474683d22342220643d224d3233342e32203131610d008201527f382e38632d2e342d322d322e312d332e322d342e312d332e32682d332e357331610d208201527f2e3820352e3220312e382031332e352d312e382031332e352d312e382031332e610d408201527f3568332e356332203020332e372d312e3320342e312d332e326135312e362035610d608201527f312e3620302030203020302d32302e365a222f3e3c70617468207374726f6b65610d808201527f3d222330303022207374726f6b652d6c696e656361703d22726f756e64222073610da08201527f74726f6b652d77696474683d22342220643d224d39203131365639332e344d32610dc08201527f32382e34203131365639332e34222f3e3c636972636c652063783d22382e3922610de08201527f2063793d2239312220723d22342e37222066696c6c3d2223666666222f3e3c63610e008201527f6972636c652063783d22382e39222063793d2239312220723d22362e37222073610e208201527f74726f6b653d222330303022207374726f6b652d77696474683d2234222f3e3c610e408201527f636972636c652063783d223232382e34222063793d2239312220723d22342e37610e608201527f222066696c6c3d2223666666222f3e3c636972636c652063783d223232382e34610e808201527f222063793d2239312220723d22362e3722207374726f6b653d22233030302220610ea08201527f7374726f6b652d77696474683d2234222f3e3c2f7376673e0000000000000000610ec082015250565b5f6118cf610ed8836105d7565b91506118da826106a7565b610ed882019050919050565b5f6118f082610655565b91506118fc8284610677565b9150611907826118c2565b915081905092915050565b7f3c7374796c653e2e6865616477656172436f6c6f7242207b2066696c6c3a0000815250565b7f7d2e687753747231207b7374726f6b653a20233030303b7374726f6b652d6c695f8201527f6e656361703a20726f756e643b7374726f6b652d6c696e656a6f696e3a20726f60208201527f756e643b7d3c2f7374796c653e00000000000000000000000000000000000000604082015250565b5f6119b8604d836105d7565b91506119c382611938565b604d82019050919050565b5f6119d882611912565b601e820191506119e88284610677565b91506119f3826119ac565b91508190509291505056fea2646970667358221220f3972d95c3215cc16d555b74e622a256e3d4226e9d95875e69cf2ef41befc73d64736f6c63430008140033",
  "immutableReferences": {},
  "source": "// SPDX-License-Identifier: MIT\npragma solidity ^0.8.0;\n\nimport {Headwear} from '../Headwear.sol';\nimport {EduxColors} from '../EduxColors.sol';\n\nlibrary HeadwearMajor {\n    enum MajorColors {\n        GREEN,\n        PINK,\n        PURPLE,\n        BLUE,\n        GOLD\n    }\n\n    function getMajor(\n        MajorColors majorColor\n    ) external pure returns (string memory, Headwear.HeadwearVariants, Headwear.HeadwearColors) {\n        return (\n            string.concat(\n                '<svg xmlns=\"http://www.w3.org/2000/svg\" width=\"250\" height=\"335\" x=\"-14\" fill=\"none\">',\n                _getMajorStyle(majorColor),\n                '<path fill=\"#000\" d=\"M35.8 160.6 21.6 157l6.6 5.9 11 2.3-3.4-4.6Zm166.1 0L216 157l-6.6 5.9-11 2.3 3.5-4.6Z\"/><path class=\"hwStr1\" stroke-width=\"4\" d=\"M75.5 192.9c4.2-1.2 8.8-2.5 13-3.1m73.5 3.1a94.6 94.6 0 0 0-13-3.1\"/><path class=\"headwearColorB\" fill-rule=\"evenodd\" d=\"M148.4 191.2h-.2l-.6.2a178 178 0 0 1-9.7 2.2c-6 1.2-13.4 2.4-19.2 2.4a104 104 0 0 1-19.1-2.4 206.5 206.5 0 0 1-9.6-2.2l-.6-.1h-.7l-1 .1a51.5 51.5 0 0 0-5.8 1.4h-.3l-.5.2.4.2a14.3 14.3 0 0 0 .7.2 61.4 61.4 0 0 0 9.5 2.6 126 126 0 0 0 64-2.8h.2l.5-.2-.5-.1-.3-.1-.9-.2a72.3 72.3 0 0 0-6.2-1.4Zm7.5 2v-.2.2Zm-74.4 0v-.2.2Zm7.7-2v.2-.2Z\" clip-rule=\"evenodd\"/><path fill=\"#000\" fill-opacity=\".3\" fill-rule=\"evenodd\" d=\"M148.4 191.2h-.2l-.6.2a178 178 0 0 1-9.7 2.2c-6 1.2-13.4 2.4-19.2 2.4a104 104 0 0 1-19.1-2.4 206.5 206.5 0 0 1-9.6-2.2l-.6-.1h-.7l-1 .1a51.5 51.5 0 0 0-5.8 1.4h-.3l-.5.2.4.2a14.3 14.3 0 0 0 .7.2 61.4 61.4 0 0 0 9.5 2.6 126 126 0 0 0 64-2.8h.2l.5-.2-.5-.1-.3-.1-.9-.2a72.3 72.3 0 0 0-6.2-1.4Zm7.5 2v-.2.2Zm-74.4 0v-.2.2Zm7.7-2v.2-.2Z\" clip-rule=\"evenodd\"/><path fill=\"#fff\" fill-opacity=\".3\" d=\"M75 192.9a124.3 124.3 0 0 1-44-23.7c-12.8-11.2-23.5-25-22.6-42a49.4 49.4 0 0 1 24-38.3c13-7.1 29.9-7 42.8.4a50.7 50.7 0 0 1 16.4-23 43 43 0 0 1 27-8.6 43 43 0 0 1 27 8.6 50.7 50.7 0 0 1 16.5 23c13-7.4 29.7-7.5 42.8-.4a49.4 49.4 0 0 1 24 38.3c.9 17-9.8 30.8-22.6 42a124.3 124.3 0 0 1-44.2 23.7 100 100 0 0 1-21.4 5.9A135.6 135.6 0 0 1 75 193v-.1Z\"/><path class=\"hwStr1\" stroke-width=\"4\" d=\"M90 197.3c-5-1-10-2.6-14.7-4.4A124.4 124.4 0 0 1 31.1 169a99 99 0 0 1-9.6-9.6 46 46 0 0 1-13-32.5c.5-7.6 3.4-15.6 7.8-22.6a46 46 0 0 1 16.2-15.6c13.1-7.2 29.9-7 42.9.4a50.7 50.7 0 0 1 16.4-23 43 43 0 0 1 27-8.6 43 43 0 0 1 27 8.5 50.7 50.7 0 0 1 16.4 23.1c13-7.4 29.8-7.6 42.9-.4a46 46 0 0 1 16.2 15.6c4.4 7 7.3 15 7.7 22.6a45.6 45.6 0 0 1-13 32.5 99 99 0 0 1-9.6 9.6 124.4 124.4 0 0 1-44.1 23.8 100 100 0 0 1-21.5 5.8 135.6 135.6 0 0 1-50.8-1.4Z\"/><path fill=\"#fff\" d=\"M90 197.3c-5-1-10-2.6-14.7-4.4A124.4 124.4 0 0 1 31.1 169a99 99 0 0 1-9.6-9.6s38 20.7 97.3 20.7 97.2-20.7 97.2-20.7a99 99 0 0 1-9.6 9.6 124.4 124.4 0 0 1-44.1 23.8 100 100 0 0 1-21.5 5.8 135.6 135.6 0 0 1-50.8-1.4Z\"/><path class=\"hwStr1\" stroke-width=\"4\" d=\"M90 197.3c-5-1-10-2.6-14.7-4.4A124.4 124.4 0 0 1 31.1 169a99 99 0 0 1-9.6-9.6s38 20.7 97.3 20.7 97.2-20.7 97.2-20.7a99 99 0 0 1-9.6 9.6 124.4 124.4 0 0 1-44.1 23.8 100 100 0 0 1-21.5 5.8 135.6 135.6 0 0 1-50.8-1.4Z\"/><path class=\"hwStr1\" stroke-opacity=\".3\" stroke-width=\"3\" d=\"M49 180.5c11.7 3.6 28.6 7.7 48.2 9.6m91.2-9.8c-12 3.7-29.3 8-49.6 9.9\"/><circle class=\"headwearColorB\" cx=\"118.3\" cy=\"192.3\" r=\"2.7\"/><circle cx=\"118.3\" cy=\"192.3\" r=\"2.7\" stroke=\"#000\" stroke-width=\"2.5\"/><circle class=\"headwearColorB\" cx=\"106.7\" cy=\"191.8\" r=\"2.2\"/><circle cx=\"106.7\" cy=\"191.8\" r=\"2.2\" stroke=\"#000\" stroke-width=\"2.5\"/><circle class=\"headwearColorB\" cx=\"129.9\" cy=\"191.8\" r=\"2.2\"/><circle cx=\"129.9\" cy=\"191.8\" r=\"2.2\" stroke=\"#000\" stroke-width=\"2.5\"/><path fill=\"#fff\" d=\"M3.2 115.6h7.5s-2 5.2-2 13.5 2 13.5 2 13.5H3.2s-2-4.2-2-13.5 2-13.5 2-13.5Z\"/><path class=\"hwStr1\" stroke-width=\"4\" d=\"M3.1 118.8c.4-2 2.2-3.2 4.2-3.2h3.4S9 120.8 9 129.1s1.8 13.5 1.8 13.5H7.3c-2 0-3.8-1.3-4.2-3.2a56.1 56.1 0 0 1 .1-20.6Z\"/><path fill=\"#fff\" d=\"M234.1 115.6h-7.5s2 5.2 2 13.5-2 13.5-2 13.5h7.5s2-4.2 2-13.5-2-13.5-2-13.5Z\"/><path class=\"hwStr1\" stroke-width=\"4\" d=\"M234.2 118.8c-.4-2-2.1-3.2-4.1-3.2h-3.5s1.8 5.2 1.8 13.5-1.8 13.5-1.8 13.5h3.5c2 0 3.7-1.3 4.1-3.2a51.6 51.6 0 0 0 0-20.6Z\"/><path stroke=\"#000\" stroke-linecap=\"round\" stroke-width=\"4\" d=\"M9 116V93.4M228.4 116V93.4\"/><circle cx=\"8.9\" cy=\"91\" r=\"4.7\" fill=\"#fff\"/><circle cx=\"8.9\" cy=\"91\" r=\"6.7\" stroke=\"#000\" stroke-width=\"4\"/><circle cx=\"228.4\" cy=\"91\" r=\"4.7\" fill=\"#fff\"/><circle cx=\"228.4\" cy=\"91\" r=\"6.7\" stroke=\"#000\" stroke-width=\"4\"/></svg>'\n            ),\n            Headwear.HeadwearVariants.MAJOR,\n            _getHeadwearColor(majorColor)\n        );\n    }\n\n    function _getMajorStyle(MajorColors majorColor) internal pure returns (string memory) {\n        return\n            string.concat(\n                '<style>.headwearColorB { fill:',\n                _getMajorColor(majorColor),\n                '}.hwStr1 {stroke: #000;stroke-linecap: round;stroke-linejoin: round;}</style>'\n            );\n    }\n\n    function _getMajorColor(MajorColors majorColor) internal pure returns (string memory) {\n        if (majorColor == MajorColors.GREEN) {\n            return EduxColors.baseGreen;\n        } else if (majorColor == MajorColors.PURPLE) {\n            return EduxColors.basePurple;\n        } else if (majorColor == MajorColors.BLUE) {\n            return EduxColors.baseBlue;\n        } else if (majorColor == MajorColors.PINK) {\n            return EduxColors.basePink;\n        } else if (majorColor == MajorColors.GOLD) {\n            return EduxColors.baseGold;\n        } else {\n            revert(); // Avoid warnings.\n        }\n    }\n\n    function _getHeadwearColor(MajorColors majorColor) internal pure returns (Headwear.HeadwearColors) {\n        if (majorColor == MajorColors.GREEN) {\n            return Headwear.HeadwearColors.GREEN;\n        } else if (majorColor == MajorColors.PURPLE) {\n            return Headwear.HeadwearColors.PURPLE;\n        } else if (majorColor == MajorColors.BLUE) {\n            return Headwear.HeadwearColors.BLUE;\n        } else if (majorColor == MajorColors.PINK) {\n            return Headwear.HeadwearColors.PINK;\n        } else if (majorColor == MajorColors.GOLD) {\n            return Headwear.HeadwearColors.GOLD;\n        } else {\n            revert(); // Avoid warnings.\n        }\n    }\n}\n",
  "sourcePath": "E:\\Blockchain\\EDUIndex\\EduxContract\\contracts\\libraries\\svgs\\Profile\\Headwear\\HeadwearMajor.sol",
  "compiler": {
    "name": "solc",
    "version": "0.8.20+commit.a1b79de6.Emscripten.clang"
  },
  "schemaVersion": "3.4.3",
  "updatedAt": "2024-08-25T13:13:21.886Z",
  "devdoc": {
    "kind": "dev",
    "methods": {},
    "version": 1
  },
  "userdoc": {
    "kind": "user",
    "methods": {},
    "version": 1
  }
}