{
  "contractName": "HeadwearBirdie",
  "abi": [
    {
      "inputs": [
        {
          "internalType": "enum HeadwearBirdie.BirdieColors",
          "name": "birdieColor",
          "type": "HeadwearBirdie.BirdieColors"
        }
      ],
      "name": "getBirdie",
      "outputs": [
        {
          "internalType": "string",
          "name": "",
          "type": "string"
        },
        {
          "internalType": "enum Headwear.HeadwearVariants",
          "name": "",
          "type": "Headwear.HeadwearVariants"
        },
        {
          "internalType": "enum Headwear.HeadwearColors",
          "name": "",
          "type": "Headwear.HeadwearColors"
        }
      ],
      "stateMutability": "pure",
      "type": "function"
    }
  ],
  "bytecode": "0x61147161004e600b8282823980515f1a607314610042577f4e487b71000000000000000000000000000000000000000000000000000000005f525f60045260245ffd5b305f52607381538281f3fe7300000000000000000000000000000000000000003014608060405260043610610034575f3560e01c806324ee6a4d14610038575b5f80fd5b610052600480360381019061004d9190610551565b61006a565b604051610061939291906106bf565b60405180910390f35b60605f80610077846100ae565b60405160200161008791906112e1565b604051602081830303815290604052600d6100a1866100ea565b9250925092509193909250565b60605f806100bb846101fb565b9150915081816040516020016100d29291906113ef565b60405160208183030381529060405292505050919050565b5f8060048111156100fe576100fd610606565b5b82600481111561011157610110610606565b5b0361011f57600190506101f6565b6002600481111561013357610132610606565b5b82600481111561014657610145610606565b5b0361015457600290506101f6565b6003600481111561016857610167610606565b5b82600481111561017b5761017a610606565b5b0361018957600390506101f6565b6001600481111561019d5761019c610606565b5b8260048111156101b0576101af610606565b5b036101be57600490506101f6565b6004808111156101d1576101d0610606565b5b8260048111156101e4576101e3610606565b5b036101f257600590506101f6565b5f80fd5b919050565b6060805f600481111561021157610210610606565b5b83600481111561022457610223610606565b5b0361029e576040518060400160405280600781526020017f23463446464443000000000000000000000000000000000000000000000000008152506040518060400160405280600781526020017f234130443137300000000000000000000000000000000000000000000000000081525091509150610525565b600260048111156102b2576102b1610606565b5b8360048111156102c5576102c4610606565b5b0361033f576040518060400160405280600781526020017f23463345414646000000000000000000000000000000000000000000000000008152506040518060400160405280600781526020017f234541443746460000000000000000000000000000000000000000000000000081525091509150610525565b6003600481111561035357610352610606565b5b83600481111561036657610365610606565b5b036103e0576040518060400160405280600781526020017f23454346304646000000000000000000000000000000000000000000000000008152506040518060400160405280600781526020017f234439453046460000000000000000000000000000000000000000000000000081525091509150610525565b600160048111156103f4576103f3610606565b5b83600481111561040757610406610606565b5b03610481576040518060400160405280600781526020017f23464645374630000000000000000000000000000000000000000000000000008152506040518060400160405280600781526020017f234646443244440000000000000000000000000000000000000000000000000081525091509150610525565b60048081111561049457610493610606565b5b8360048111156104a7576104a6610606565b5b03610521576040518060400160405280600781526020017f23464645453933000000000000000000000000000000000000000000000000008152506040518060400160405280600781526020017f234638433934340000000000000000000000000000000000000000000000000081525091509150610525565b5f80fd5b915091565b5f80fd5b6005811061053a575f80fd5b50565b5f8135905061054b8161052e565b92915050565b5f602082840312156105665761056561052a565b5b5f6105738482850161053d565b91505092915050565b5f81519050919050565b5f82825260208201905092915050565b5f5b838110156105b3578082015181840152602081019050610598565b5f8484015250505050565b5f601f19601f8301169050919050565b5f6105d88261057c565b6105e28185610586565b93506105f2818560208601610596565b6105fb816105be565b840191505092915050565b7f4e487b71000000000000000000000000000000000000000000000000000000005f52602160045260245ffd5b6016811061064457610643610606565b5b50565b5f81905061065482610633565b919050565b5f61066382610647565b9050919050565b61067381610659565b82525050565b6006811061068a57610689610606565b5b50565b5f81905061069a82610679565b919050565b5f6106a98261068d565b9050919050565b6106b98161069f565b82525050565b5f6060820190508181035f8301526106d781866105ce565b90506106e6602083018561066a565b6106f360408301846106b0565b949350505050565b5f81905092915050565b7f3c73766720786d6c6e733d22687474703a2f2f7777772e77332e6f72672f32305f8201527f30302f737667222077696474683d2232313022206865696768743d223333352260208201527f2066696c6c3d226e6f6e65223e00000000000000000000000000000000000000604082015250565b5f610785604d836106fb565b915061079082610705565b604d82019050919050565b5f6107a58261057c565b6107af81856106fb565b93506107bf818560208601610596565b80840191505092915050565b7f3c706174682066696c6c3d22236666662220643d224d3133302e38203130362e5f8201527f33632e3320362e392d322e392031312e352d372e322031332e386136322e332060208201527f36322e332030203020312d313820322e32632d362e3420302d31322e322d2e3560408201527f2d31382d322e322d342e322d322e332d372e342d372d372d31332e382e312d3660608201527f20332e352d31312e3820382d31352e376132372032372030203020312031372d60808201527f352e3920323720323720302030203120313720352e3963342e3620342038203960a08201527f2e3720382e322031352e375a222f3e3c7061746820636c6173733d226865616460c08201527f77656172436f6c6f72422220643d224d3131302e362032362e3761362e37203660e08201527f2e372030203020312d342e3820362e36682d2e3361362e3720362e37203020306101008201527f20312d342e372d362e3620372e3320372e3320302030203120342e392d362e356101208201527f63322e372e3920342e3820332e3620342e3920362e355a222f3e3c70617468206101408201527f636c6173733d226865616477656172436f6c6f724c2220643d224d3130352e386101608201527f2033332e336131342e382031342e382030203020312031322e3920372e3563316101808201527f20312e3820312e3420332e3820312e3420352e386c2e322031352e35633920326101a08201527f2e372031372e3320392e352032312e382031372e3761323820323820302030206101c08201527f3120302032372033302e342033302e342030203020312d31382e342031332e336101e08201527f63342e322d322e3320372e342d3720372e312d31332e382d2e322d362d332e366102008201527f2d31312e382d382e312d31352e376132372032372030203020302d31372d352e6102208201527f392032372032372030203020302d313720352e39632d342e3620342d3820392e6102408201527f372d382e322031352e372d2e3320362e3920332031312e3520372e322031332e6102608201527f386c2d322e342d2e376133302e342033302e342030203020312d31362d31322e6102808201527f3720323820323820302030203120302d32362e3963342e342d382e322031322e6102a08201527f382d31352032312e372d31372e376c2e322d31352e3563302d32202e352d34206102c08201527f312e352d352e386131342e342031342e342030203020312031322e382d372e356102e08201527f682e335a222f3e3c7061746820636c6173733d2268775374723122207374726f6103008201527f6b652d77696474683d22342220643d224d3130352e352033332e33682e326d306103208201527f2d31332e3161372e3320372e332030203020302d3520362e3520362e3720362e6103408201527f3720302030203020342e3820362e36222f3e3c7061746820636c6173733d22686103608201527f775374723122207374726f6b652d77696474683d22332220643d224d38372e376103808201527f203132302e31632d342e332d322e332d372e352d372d372e322d31332e382e326103a08201527f2d3620332e362d31312e3820382e322d31352e376132372032372030203020316103c08201527f2031372d352e39222f3e3c7061746820636c6173733d226877537472312220736103e08201527f74726f6b652d77696474683d22342220643d224d3130352e382033332e33682d6104008201527f2e316d302d31332e3163322e372e3920342e3820332e3620342e3920362e35616104208201527f362e3720362e372030203020312d342e3820362e36222f3e3c7061746820636c6104408201527f6173733d2268775374723122207374726f6b652d77696474683d22342220643d6104608201527f224d3130352e372033332e33682d2e326131342e342031342e342030203020306104808201527f2d31322e3820372e35632d3120312e382d312e3420332e382d312e3520352e386104a08201527f76382e39632d2e3120332e392d322e3720372e322d362e3220396133382e31206104c08201527f33382e312030203020302d31352e372031352e332032382032382030203020306104e08201527f20302032374133302e342033302e342030203020302038372e362031323061366105008201527f322e332036322e3320302030203020313820322e326d302d3839682e316131346105208201527f2e382031342e382030203020312031322e3920372e35633120312e3820312e346105408201527f20332e3820312e3420352e386c2e3120382e39633020332e3920322e3720372e6105608201527f3220362e3120394133382e322033382e32203020302031203134322037392e376105808201527f61323820323820302030203120302032372033302e342033302e3420302030206105a08201527f312d31382e342031332e332036322e332036322e332030203020312d313820326105c08201527f2e32222f3e3c7061746820636c6173733d2268775374723122207374726f6b656105e08201527f2d77696474683d22332220643d224d3132332e37203132302e3163342e322d326106008201527f2e3320372e342d3720372e312d31332e382d2e322d362d332e362d31312e382d6106208201527f382e312d31352e376132372032372030203020302d31372d352e39222f3e3c706106408201527f61746820636c6173733d226865616477656172436f6c6f72422220643d226d316106608201527f31312e382035332e332d2e332e332d352e3920332e342d362d332e342d2e322d6106808201527f2e3363322d312e3720342d332e3120362e322d342e3720322e3220312e3620346106a08201527f2e32203320362e3220342e375a222f3e3c7061746820636c6173733d226865616106c08201527f6477656172436f6c6f72422220643d224d3130352e362036332e36632d322e346106e08201527f2d322e372d352d362e352d372e312d392e356c312d2e382e322e33203620332e6107008201527f3420352e382d332e342e332d2e332031202e38632d322e3120332d342e3820366107208201527f2e382d372e3220392e355a222f3e3c7061746820636c6173733d2268775374726107408201527f3122207374726f6b652d77696474683d22332220643d224d3130382035302e346107608201527f613420342030203020302d342e3820306c2d332e3820322e397630632d2e352e6107808201527f342d2e3620312e322d2e3220312e3861393420393420302030203020362e34206107a08201527f382e35222f3e3c7061746820636c6173733d2268775374723122207374726f6b6107c08201527f652d77696474683d22332220643d224d3130332e322035302e346134203420306107e08201527f2030203120342e3820306c332e3820322e397630632e352e342e3620312e322e6108008201527f3220312e386139332039332030203020312d362e3420382e35222f3e3c7061746108208201527f6820636c6173733d2268775374723122207374726f6b652d77696474683d22326108408201527f2e352220643d226d39392e372035332e36203620332e3420352e382d332e34226108608201527f2f3e3c636972636c652063783d2239392e37222063793d2234352e312220723d6108808201527f2232222066696c6c3d2223303030222f3e3c636972636c652063783d223131316108a08201527f2e37222063793d2234352e312220723d2232222066696c6c3d2223303030222f6108c08201527f3e3c2f7376673e000000000000000000000000000000000000000000000000006108e082015250565b5f6112ca6108e7836106fb565b91506112d5826107cb565b6108e782019050919050565b5f6112eb82610779565b91506112f7828461079b565b9150611302826112bd565b915081905092915050565b7f3c7374796c653e2e6865616477656172436f6c6f724c207b2066696c6c3a0000815250565b7f7d2e6865616477656172436f6c6f7242207b2066696c6c3a0000000000000000815250565b7f7d2e687753747231207b7374726f6b653a20233030303b7374726f6b652d6c695f8201527f6e656361703a20726f756e643b7374726f6b652d6c696e656a6f696e3a20726f60208201527f756e643b7d3c2f7374796c653e00000000000000000000000000000000000000604082015250565b5f6113d9604d836106fb565b91506113e482611359565b604d82019050919050565b5f6113f98261130d565b601e82019150611409828561079b565b915061141482611333565b601882019150611424828461079b565b915061142f826113cd565b9150819050939250505056fea2646970667358221220a52aef9715120412158816f7eb3ecbf5d96e0fe5c4724a5d4721f4c5d8e1128c64736f6c63430008140033",
  "immutableReferences": {},
  "source": "// SPDX-License-Identifier: MIT\npragma solidity ^0.8.0;\n\nimport {Headwear} from '../Headwear.sol';\nimport {EduxColors} from '../EduxColors.sol';\n\nlibrary HeadwearBirdie {\n    enum BirdieColors {\n        GREEN,\n        PINK,\n        PURPLE,\n        BLUE,\n        GOLD\n    }\n\n    function getBirdie(\n        BirdieColors birdieColor\n    ) external pure returns (string memory, Headwear.HeadwearVariants, Headwear.HeadwearColors) {\n        return (\n            string.concat(\n                '<svg xmlns=\"http://www.w3.org/2000/svg\" width=\"210\" height=\"335\" fill=\"none\">',\n                _getBirdieStyle(birdieColor),\n                '<path fill=\"#fff\" d=\"M130.8 106.3c.3 6.9-2.9 11.5-7.2 13.8a62.3 62.3 0 0 1-18 2.2c-6.4 0-12.2-.5-18-2.2-4.2-2.3-7.4-7-7-13.8.1-6 3.5-11.8 8-15.7a27 27 0 0 1 17-5.9 27 27 0 0 1 17 5.9c4.6 4 8 9.7 8.2 15.7Z\"/><path class=\"headwearColorB\" d=\"M110.6 26.7a6.7 6.7 0 0 1-4.8 6.6h-.3a6.7 6.7 0 0 1-4.7-6.6 7.3 7.3 0 0 1 4.9-6.5c2.7.9 4.8 3.6 4.9 6.5Z\"/><path class=\"headwearColorL\" d=\"M105.8 33.3a14.8 14.8 0 0 1 12.9 7.5c1 1.8 1.4 3.8 1.4 5.8l.2 15.5c9 2.7 17.3 9.5 21.8 17.7a28 28 0 0 1 0 27 30.4 30.4 0 0 1-18.4 13.3c4.2-2.3 7.4-7 7.1-13.8-.2-6-3.6-11.8-8.1-15.7a27 27 0 0 0-17-5.9 27 27 0 0 0-17 5.9c-4.6 4-8 9.7-8.2 15.7-.3 6.9 3 11.5 7.2 13.8l-2.4-.7a30.4 30.4 0 0 1-16-12.7 28 28 0 0 1 0-26.9c4.4-8.2 12.8-15 21.7-17.7l.2-15.5c0-2 .5-4 1.5-5.8a14.4 14.4 0 0 1 12.8-7.5h.3Z\"/><path class=\"hwStr1\" stroke-width=\"4\" d=\"M105.5 33.3h.2m0-13.1a7.3 7.3 0 0 0-5 6.5 6.7 6.7 0 0 0 4.8 6.6\"/><path class=\"hwStr1\" stroke-width=\"3\" d=\"M87.7 120.1c-4.3-2.3-7.5-7-7.2-13.8.2-6 3.6-11.8 8.2-15.7a27 27 0 0 1 17-5.9\"/><path class=\"hwStr1\" stroke-width=\"4\" d=\"M105.8 33.3h-.1m0-13.1c2.7.9 4.8 3.6 4.9 6.5a6.7 6.7 0 0 1-4.8 6.6\"/><path class=\"hwStr1\" stroke-width=\"4\" d=\"M105.7 33.3h-.2a14.4 14.4 0 0 0-12.8 7.5c-1 1.8-1.4 3.8-1.5 5.8v8.9c-.1 3.9-2.7 7.2-6.2 9a38.1 38.1 0 0 0-15.7 15.3 28 28 0 0 0 0 27A30.4 30.4 0 0 0 87.6 120a62.3 62.3 0 0 0 18 2.2m0-89h.1a14.8 14.8 0 0 1 12.9 7.5c1 1.8 1.4 3.8 1.4 5.8l.1 8.9c0 3.9 2.7 7.2 6.1 9A38.2 38.2 0 0 1 142 79.7a28 28 0 0 1 0 27 30.4 30.4 0 0 1-18.4 13.3 62.3 62.3 0 0 1-18 2.2\"/><path class=\"hwStr1\" stroke-width=\"3\" d=\"M123.7 120.1c4.2-2.3 7.4-7 7.1-13.8-.2-6-3.6-11.8-8.1-15.7a27 27 0 0 0-17-5.9\"/><path class=\"headwearColorB\" d=\"m111.8 53.3-.3.3-5.9 3.4-6-3.4-.2-.3c2-1.7 4-3.1 6.2-4.7 2.2 1.6 4.2 3 6.2 4.7Z\"/><path class=\"headwearColorB\" d=\"M105.6 63.6c-2.4-2.7-5-6.5-7.1-9.5l1-.8.2.3 6 3.4 5.8-3.4.3-.3 1 .8c-2.1 3-4.8 6.8-7.2 9.5Z\"/><path class=\"hwStr1\" stroke-width=\"3\" d=\"M108 50.4a4 4 0 0 0-4.8 0l-3.8 2.9v0c-.5.4-.6 1.2-.2 1.8a94 94 0 0 0 6.4 8.5\"/><path class=\"hwStr1\" stroke-width=\"3\" d=\"M103.2 50.4a4 4 0 0 1 4.8 0l3.8 2.9v0c.5.4.6 1.2.2 1.8a93 93 0 0 1-6.4 8.5\"/><path class=\"hwStr1\" stroke-width=\"2.5\" d=\"m99.7 53.6 6 3.4 5.8-3.4\"/><circle cx=\"99.7\" cy=\"45.1\" r=\"2\" fill=\"#000\"/><circle cx=\"111.7\" cy=\"45.1\" r=\"2\" fill=\"#000\"/></svg>'\n            ),\n            Headwear.HeadwearVariants.BIRDIE,\n            _getHeadwearColor(birdieColor)\n        );\n    }\n\n    function _getBirdieStyle(BirdieColors birdieColor) internal pure returns (string memory) {\n        (string memory lightColor, string memory baseColor) = _getBirdieColor(birdieColor);\n        return\n            string.concat(\n                '<style>.headwearColorL { fill:',\n                lightColor,\n                '}.headwearColorB { fill:',\n                baseColor,\n                '}.hwStr1 {stroke: #000;stroke-linecap: round;stroke-linejoin: round;}</style>'\n            );\n    }\n\n    function _getBirdieColor(BirdieColors birdieColor) internal pure returns (string memory, string memory) {\n        if (birdieColor == BirdieColors.GREEN) {\n            return (EduxColors.lightGreen, EduxColors.baseGreen);\n        } else if (birdieColor == BirdieColors.PURPLE) {\n            return (EduxColors.lightPurple, EduxColors.basePurple);\n        } else if (birdieColor == BirdieColors.BLUE) {\n            return (EduxColors.lightBlue, EduxColors.baseBlue);\n        } else if (birdieColor == BirdieColors.PINK) {\n            return (EduxColors.lightPink, EduxColors.basePink);\n        } else if (birdieColor == BirdieColors.GOLD) {\n            return (EduxColors.lightGold, EduxColors.baseGold);\n        } else {\n            revert(); // Avoid warnings.\n        }\n    }\n\n    function _getHeadwearColor(BirdieColors birdieColor) internal pure returns (Headwear.HeadwearColors) {\n        if (birdieColor == BirdieColors.GREEN) {\n            return Headwear.HeadwearColors.GREEN;\n        } else if (birdieColor == BirdieColors.PURPLE) {\n            return Headwear.HeadwearColors.PURPLE;\n        } else if (birdieColor == BirdieColors.BLUE) {\n            return Headwear.HeadwearColors.BLUE;\n        } else if (birdieColor == BirdieColors.PINK) {\n            return Headwear.HeadwearColors.PINK;\n        } else if (birdieColor == BirdieColors.GOLD) {\n            return Headwear.HeadwearColors.GOLD;\n        } else {\n            revert(); // Avoid warnings.\n        }\n    }\n}\n",
  "sourcePath": "E:\\Blockchain\\EDUIndex\\EduxContract\\contracts\\libraries\\svgs\\Profile\\Headwear\\HeadwearBirdie.sol",
  "compiler": {
    "name": "solc",
    "version": "0.8.20+commit.a1b79de6.Emscripten.clang"
  },
  "schemaVersion": "3.4.3",
  "updatedAt": "2024-08-25T13:13:21.743Z",
  "devdoc": {
    "kind": "dev",
    "methods": {},
    "version": 1
  },
  "userdoc": {
    "kind": "user",
    "methods": {},
    "version": 1
  }
}