{
  "contractName": "HeadwearBear",
  "abi": [
    {
      "inputs": [
        {
          "internalType": "enum HeadwearBear.BearColors",
          "name": "bearColor",
          "type": "HeadwearBear.BearColors"
        }
      ],
      "name": "getBear",
      "outputs": [
        {
          "internalType": "string",
          "name": "",
          "type": "string"
        },
        {
          "internalType": "enum Headwear.HeadwearVariants",
          "name": "",
          "type": "Headwear.HeadwearVariants"
        },
        {
          "internalType": "enum Headwear.HeadwearColors",
          "name": "",
          "type": "Headwear.HeadwearColors"
        }
      ],
      "stateMutability": "pure",
      "type": "function"
    }
  ],
  "bytecode": "0x611d2061004e600b8282823980515f1a607314610042577f4e487b71000000000000000000000000000000000000000000000000000000005f525f60045260245ffd5b305f52607381538281f3fe7300000000000000000000000000000000000000003014608060405260043610610034575f3560e01c80638bec047314610038575b5f80fd5b610052600480360381019061004d9190610551565b61006a565b604051610061939291906106bf565b60405180910390f35b60605f80610077846100ae565b6040516020016100879190611b90565b604051602081830303815290604052600b6100a1866100ea565b9250925092509193909250565b60605f806100bb846101fb565b9150915081816040516020016100d2929190611c9e565b60405160208183030381529060405292505050919050565b5f8060048111156100fe576100fd610606565b5b82600481111561011157610110610606565b5b0361011f57600190506101f6565b6002600481111561013357610132610606565b5b82600481111561014657610145610606565b5b0361015457600290506101f6565b6003600481111561016857610167610606565b5b82600481111561017b5761017a610606565b5b0361018957600390506101f6565b6001600481111561019d5761019c610606565b5b8260048111156101b0576101af610606565b5b036101be57600490506101f6565b6004808111156101d1576101d0610606565b5b8260048111156101e4576101e3610606565b5b036101f257600590506101f6565b5f80fd5b919050565b6060805f600481111561021157610210610606565b5b83600481111561022457610223610606565b5b0361029e576040518060400160405280600781526020017f23463446464443000000000000000000000000000000000000000000000000008152506040518060400160405280600781526020017f234130443137300000000000000000000000000000000000000000000000000081525091509150610525565b600260048111156102b2576102b1610606565b5b8360048111156102c5576102c4610606565b5b0361033f576040518060400160405280600781526020017f23463345414646000000000000000000000000000000000000000000000000008152506040518060400160405280600781526020017f234541443746460000000000000000000000000000000000000000000000000081525091509150610525565b6003600481111561035357610352610606565b5b83600481111561036657610365610606565b5b036103e0576040518060400160405280600781526020017f23454346304646000000000000000000000000000000000000000000000000008152506040518060400160405280600781526020017f234439453046460000000000000000000000000000000000000000000000000081525091509150610525565b600160048111156103f4576103f3610606565b5b83600481111561040757610406610606565b5b03610481576040518060400160405280600781526020017f23464645374630000000000000000000000000000000000000000000000000008152506040518060400160405280600781526020017f234646443244440000000000000000000000000000000000000000000000000081525091509150610525565b60048081111561049457610493610606565b5b8360048111156104a7576104a6610606565b5b03610521576040518060400160405280600781526020017f23464645453933000000000000000000000000000000000000000000000000008152506040518060400160405280600781526020017f234638433934340000000000000000000000000000000000000000000000000081525091509150610525565b5f80fd5b915091565b5f80fd5b6005811061053a575f80fd5b50565b5f8135905061054b8161052e565b92915050565b5f602082840312156105665761056561052a565b5b5f6105738482850161053d565b91505092915050565b5f81519050919050565b5f82825260208201905092915050565b5f5b838110156105b3578082015181840152602081019050610598565b5f8484015250505050565b5f601f19601f8301169050919050565b5f6105d88261057c565b6105e28185610586565b93506105f2818560208601610596565b6105fb816105be565b840191505092915050565b7f4e487b71000000000000000000000000000000000000000000000000000000005f52602160045260245ffd5b6016811061064457610643610606565b5b50565b5f81905061065482610633565b919050565b5f61066382610647565b9050919050565b61067381610659565b82525050565b6006811061068a57610689610606565b5b50565b5f81905061069a82610679565b919050565b5f6106a98261068d565b9050919050565b6106b98161069f565b82525050565b5f6060820190508181035f8301526106d781866105ce565b90506106e6602083018561066a565b6106f360408301846106b0565b949350505050565b5f81905092915050565b7f3c73766720786d6c6e733d22687474703a2f2f7777772e77332e6f72672f32305f8201527f30302f737667222077696474683d2232353022206865696768743d223333352260208201527f20783d222d31382e36222066696c6c3d226e6f6e65223e000000000000000000604082015250565b5f6107856057836106fb565b915061079082610705565b605782019050919050565b5f6107a58261057c565b6107af81856106fb565b93506107bf818560208601610596565b80840191505092915050565b7f3c7061746820636c6173733d226865616477656172436f6c6f724c2220643d225f8201527f4d3230352e382039322e336133352033352030203020302031342e352031332e60208201527f38632d392e362d332e362d32332d352e312d34312e342d382d31382d322e382d60408201527f33362e382d332e372d35352e322d332e372d31382e3520302d33372e322e392d60608201527f35352e3220332e372d31382e3420322e392d33312e3820342e342d34312e352060808201527f386133342e342033342e342030203020302031342e352d31332e3863332d352e60a08201527f352031332e362d32312031332e362d32315335382e362035312e392037312e3760c08201527f2034366331352e312d362e3720323820332e3620323820332e367331372e352d60e08201527f322e342032342d322e3463362e3420302032332e3920322e342032332e3920326101008201527f2e347331342e382d31302e392033302e322d332e366331312e3720332e3620316101208201527f342e352032352e342031342e352032352e347331302e362031352e342031332e6101408201527f352032315a222f3e3c7061746820636c6173733d226865616477656172436f6c6101608201527f6f724c2220643d224d3234312e32203131352e3763322e3620322e3820342e336101808201527f20362e3620332e362031302e342e352d332e332d322e372d352e382d352e372d6101a08201527f372e332d382e372d342e362d31382e332d332e342d32372e392d352e362d32386101c08201527f2e382d362e352d36312d31302d38372e352d31302d32362e3620302d35382e386101e08201527f20332e352d38372e362031302d392e3620322e322d31392e3320322e362d32386102008201527f20372e312d3320312e352d3620322e362d352e3520352e382d2e382d332e372e6102208201527f372d372e3920332e332d31302e3620322e352d322e3620392d342e362032312d6102408201527f382e3720392e372d332e332032332e322d342e382034312e362d372e346133376102608201527f342e37203337342e37203020302031203131302e3420306331382e3320322e366102808201527f2033312e3920332e382034312e36203720313220342e322031382e3220362e386102a08201527f2032302e3720392e335a222f3e3c7061746820636c6173733d226877537472316102c08201527f22207374726f6b652d77696474683d22342220643d224d3132332e37203130346102e08201527f2e35632d32362e3620302d35382e3820322e392d38372e3620372e39613134306103008201527f203134302030203020302d32372e3920372e31632d3320312e322d362e3120336103208201527f2e312d352e3620352e372e3320312e35203520352e332031392e3220372e326d6103408201527f3130312e392d32372e396332362e3520302035382e3720322e392038372e35206103608201527f372e39613134302031343020302030203120323820372e3163322e3920312e326103808201527f203620332e3120352e3620352e372d2e3420312e352d3520352e332d31392e336103a08201527f20372e32222f3e3c7061746820636c6173733d2268775374723122207374726f6103c08201527f6b652d77696474683d22342220643d224d322e36203132332e317330203020306103e08201527f2030632d2e382d3320312d362e3220332e362d382e3420322e352d3220382e376104008201527f2d352e332032302e382d382e366d3231372e382031377330203020302030632e6104208201527f372d332d312d362e322d332e362d382e342d322e352d322d382e372d352e332d6104408201527f32302e392d382e36222f3e3c7061746820636c6173733d2268656164776561726104608201527f436f6c6f724c2220643d224d342e35203132342e37632d322d322e362031372e6104808201527f342d372e342031372e342d372e34732d312e3320342d312e3820362e38632d2e6104a08201527f3320322e332d2e3420362d2e342036732d31322d312e332d31352e322d352e346104c08201527f5a6d3233382e34203063322d322e362d31372e342d372e342d31372e342d372e6104e08201527f3473312e33203420312e3720362e38632e3420322e332e352036202e352036736105008201527f31322d312e332031352e322d352e345a222f3e3c706174682066696c6c3d22236105208201527f303030222066696c6c2d6f7061636974793d222e332220643d224d342e3520316105408201527f32342e37632d322d322e362031372e342d372e342031372e342d372e34732d316105608201527f2e3320342d312e3820362e38632d2e3320322e332d2e3420362d2e342036732d6105808201527f31322d312e332d31352e322d352e345a6d3233382e34203063322d322e362d316105a08201527f372e342d372e342d31372e342d372e3473312e33203420312e3720362e38632e6105c08201527f3420322e332e352036202e3520367331322d312e332031352e322d352e345a226105e08201527f2f3e3c7061746820636c6173733d2268775374723122207374726f6b652d77696106008201527f6474683d22332220643d224d3237203130362e3663392e372d322e372032332e6106208201527f312d352e342034312e352d372e356134373620343736203020302031203131306106408201527f2e3420306331382e3320322e312033312e3820342e382034312e3420372e35226106608201527f2f3e3c70617468207374726f6b653d222330303022207374726f6b652d6461736106808201527f6861727261793d2239203922207374726f6b652d6c696e656361703d22726f756106a08201527f6e6422207374726f6b652d6c696e656a6f696e3d22726f756e6422207374726f6106c08201527f6b652d6f7061636974793d222e3222207374726f6b652d77696474683d22322e6106e08201527f352220643d224d33372e352039382e3763382e332d312e382031382e352d332e6107008201527f352033312d356134373620343736203020302031203131302e3420306331322e6107208201527f3920312e352032332e3420332e332033312e3820352e31222f3e3c70617468206107408201527f636c6173733d226865616477656172436f6c6f72422220643d224d3137322e366107608201527f2035332e356132372032372030203020312031302e382031332e38632d382e396107808201527f2d342e382d31382d392d32372e352d31322e3420342e322d342e332031312e356107a08201527f2d342e342031362e372d312e345a222f3e3c706174682066696c6c3d222330306107c08201527f302220643d224d39382e3620363061322e3120322e31203020312031203020346107e08201527f2e3120322e3120322e3120302030203120302d342e325a222f3e3c70617468206108008201527f636c6173733d226865616477656172436f6c6f72422220643d224d37342e38206108208201527f35332e3563352e322d332031322e342d322e392031362e3620312e34433832206108408201527f35382e332037322e382036322e352036342036372e336132362e352032362e356108608201527f2030203020312031302e382d31332e385a222f3e3c7061746820636c6173733d6108808201527f2268775374723122207374726f6b652d77696474683d22332220643d224d36346108a08201527f2036372e3363382e382d342e382031382d392032372e342d31322e342d342e326108c08201527f2d342e332d31312e342d342e342d31362e362d312e342d352e3220332d382e376108e08201527f20382e332d31302e382031332e385a222f3e3c7061746820636c6173733d22686109008201527f775374723122207374726f6b652d77696474683d22342220643d224d323720316109208201527f303673302030203020306133342e342033342e342030203020302031342e352d6109408201527f31332e3763332d352e3520352e342d31312e3420392e322d31362e3220312e356109608201527f2d312e3820332e312d332e3420342e392d342e394132372e352032372e3520306109808201527f203020312037302e342034366132372e352032372e35203020302031203239206109a08201527f332e382036302036302030203020312032342d346d39372036302e33733020306109c08201527f203020306133342e342033342e342030203020312d31342e362d31332e38632d6109e08201527f332d352e352d352e332d31312e342d392e322d31362e32613333203333203020610a008201527f3020302d342e372d342e37632e332d31302e332d352e362d32312d31352d3235610a208201527f2e346132372e352032372e352030203020302d323920332e3820363020363020610a408201527f30203020302d32342d34222f3e3c7061746820636c6173733d22687753747231610a608201527f22207374726f6b652d77696474683d22332220643d224d3138332e342036372e610a808201527f33632d382e392d342e382d31382d392d32372e352d31322e3420342e322d342e610aa08201527f332031312e352d342e342031362e372d312e3461323720323720302030203120610ac08201527f31302e382031332e385a222f3e3c706174682066696c6c3d2223666666222064610ae08201527f3d224d3132332e3720363863312e312d2e3920322e332d312e3720332d322e36610b008201527f2e322d2e332e342d2e362e342d3120302d2e362d312d312e332d312e362d312e610b208201527f342d2e362d2e322d312e322d2e312d312e382d2e31682d312e39632d2e362e32610b408201527f2d312e352e392d312e3520312e352030202e342e322e372e342031202e372e39610b608201527f20312e3820312e37203320322e355a6d31352e3120332e37632e3520332e322d610b808201527f3220362e332d3520372e366132322032322030203020312d392e362031682d31610ba08201527f632d332e332e322d362e372e322d392e372d312d332d312e332d352e352d342e610bc08201527f342d352d372e366137203720302030203120342e332d352e3220313120313120610be08201527f302030203120332e382d362e3463322d312e3620342e342d322e3520372d322e610c008201527f36682e3263322e352e3120352031203720322e36613131203131203020302031610c208201527f20332e3720362e342037203720302030203120342e3320352e325a222f3e3c70610c408201527f61746820636c6173733d226865616477656172436f6c6f72422220643d224d31610c608201527f32372036342e346330202e342d2e312e372d2e3420312d2e362e392d312e3820610c808201527f312e372d3320322e352d312d2e382d322e322d312e362d322e392d322e352d2e610ca08201527f322d2e332d2e342d2e362d2e342d3120302d2e362e392d312e3320312e352d31610cc08201527f2e342e372d2e3220312e322d2e3120312e392d2e3168312e38632e362e322031610ce08201527f2e362e3920312e3620312e355a222f3e3c7061746820636c6173733d22687753610d008201527f74723122207374726f6b652d77696474683d22342220643d224d39362e352036610d208201527f3461322e3120322e3120302031203120342e32203020322e3120322e31203020610d408201527f3020312d342e3220305a222f3e3c7061746820636c6173733d22687753747231610d608201527f22207374726f6b652d77696474683d22332220643d224d3132332e352035372e610d808201527f35632d322e352e312d3520312d362e3920322e36613131203131203020302030610da08201527f2d332e3820362e34203720372030203020302d342e3320352e32632d2e352033610dc08201527f2e32203220362e33203520372e36203320312e3220362e3420312e3220392e36610de08201527f2031222f3e3c7061746820636c6173733d2268775374723122207374726f6b65610e008201527f2d77696474683d22332220643d224d3132332e372037332e37632d322e312e38610e208201527f2d342e392d2e332d362d322e326d362d382e36682d312e39632d2e362e322d31610e408201527f2e352e392d312e3520312e352030202e342e322e372e342031202e372e392031610e608201527f2e3820312e37203320322e35222f3e3c706174682066696c6c3d222330303022610e808201527f20636c6173733d2268775374723122207374726f6b652d77696474683d223422610ea08201527f20643d224d3135302e3820363461322e3120322e312030203120302d342e3220610ec08201527f3020322e3120322e3120302030203020342e3220305a222f3e3c706174682063610ee08201527f6c6173733d2268775374723122207374726f6b652d77696474683d2233222064610f008201527f3d224d3132332e382035372e3563322e352e3120352031203720322e36613131610f208201527f20313120302030203120332e3720362e342037203720302030203120342e3320610f408201527f352e32632e3520332e322d3220362e332d3520372e3661323220323220302030610f608201527f20312d392e362031222f3e3c7061746820636c6173733d226877537472312220610f808201527f7374726f6b652d77696474683d22332220643d224d3132332e372036322e3968610fa08201527f312e38632e362e3220312e362e3920312e3620312e352030202e342d2e322e37610fc08201527f2d2e3520312d2e362e392d312e3820312e372d3320322e3576352e3863322e32610fe08201527f2e3820352d2e3320362d322e32222f3e3c2f7376673e0000000000000000000061100082015250565b5f611b79611016836106fb565b9150611b84826107cb565b61101682019050919050565b5f611b9a82610779565b9150611ba6828461079b565b9150611bb182611b6c565b915081905092915050565b7f3c7374796c653e2e6865616477656172436f6c6f724c207b2066696c6c3a0000815250565b7f7d2e6865616477656172436f6c6f7242207b2066696c6c3a0000000000000000815250565b7f7d2e687753747231207b7374726f6b653a20233030303b7374726f6b652d6c695f8201527f6e656361703a20726f756e643b7374726f6b652d6c696e656a6f696e3a20726f60208201527f756e643b7d3c2f7374796c653e00000000000000000000000000000000000000604082015250565b5f611c88604d836106fb565b9150611c9382611c08565b604d82019050919050565b5f611ca882611bbc565b601e82019150611cb8828561079b565b9150611cc382611be2565b601882019150611cd3828461079b565b9150611cde82611c7c565b9150819050939250505056fea264697066735822122012d0fa6b6b2513c3a07712374e654e0b945512782e070338209ee0c747ab75de64736f6c63430008140033",
  "immutableReferences": {},
  "source": "// SPDX-License-Identifier: MIT\npragma solidity ^0.8.0;\n\nimport {Headwear} from '../Headwear.sol';\nimport {EduxColors} from '../EduxColors.sol';\n\nlibrary HeadwearBear {\n    enum BearColors {\n        GREEN,\n        PINK,\n        PURPLE,\n        BLUE,\n        GOLD\n    }\n\n    function getBear(\n        BearColors bearColor\n    ) external pure returns (string memory, Headwear.HeadwearVariants, Headwear.HeadwearColors) {\n        return (\n            string.concat(\n                '<svg xmlns=\"http://www.w3.org/2000/svg\" width=\"250\" height=\"335\" x=\"-18.6\" fill=\"none\">',\n                _getBearStyle(bearColor),\n                '<path class=\"headwearColorL\" d=\"M205.8 92.3a35 35 0 0 0 14.5 13.8c-9.6-3.6-23-5.1-41.4-8-18-2.8-36.8-3.7-55.2-3.7-18.5 0-37.2.9-55.2 3.7-18.4 2.9-31.8 4.4-41.5 8a34.4 34.4 0 0 0 14.5-13.8c3-5.5 13.6-21 13.6-21S58.6 51.9 71.7 46c15.1-6.7 28 3.6 28 3.6s17.5-2.4 24-2.4c6.4 0 23.9 2.4 23.9 2.4s14.8-10.9 30.2-3.6c11.7 3.6 14.5 25.4 14.5 25.4s10.6 15.4 13.5 21Z\"/><path class=\"headwearColorL\" d=\"M241.2 115.7c2.6 2.8 4.3 6.6 3.6 10.4.5-3.3-2.7-5.8-5.7-7.3-8.7-4.6-18.3-3.4-27.9-5.6-28.8-6.5-61-10-87.5-10-26.6 0-58.8 3.5-87.6 10-9.6 2.2-19.3 2.6-28 7.1-3 1.5-6 2.6-5.5 5.8-.8-3.7.7-7.9 3.3-10.6 2.5-2.6 9-4.6 21-8.7 9.7-3.3 23.2-4.8 41.6-7.4a374.7 374.7 0 0 1 110.4 0c18.3 2.6 31.9 3.8 41.6 7 12 4.2 18.2 6.8 20.7 9.3Z\"/><path class=\"hwStr1\" stroke-width=\"4\" d=\"M123.7 104.5c-26.6 0-58.8 2.9-87.6 7.9a140 140 0 0 0-27.9 7.1c-3 1.2-6.1 3.1-5.6 5.7.3 1.5 5 5.3 19.2 7.2m101.9-27.9c26.5 0 58.7 2.9 87.5 7.9a140 140 0 0 1 28 7.1c2.9 1.2 6 3.1 5.6 5.7-.4 1.5-5 5.3-19.3 7.2\"/><path class=\"hwStr1\" stroke-width=\"4\" d=\"M2.6 123.1s0 0 0 0c-.8-3 1-6.2 3.6-8.4 2.5-2 8.7-5.3 20.8-8.6m217.8 17s0 0 0 0c.7-3-1-6.2-3.6-8.4-2.5-2-8.7-5.3-20.9-8.6\"/><path class=\"headwearColorL\" d=\"M4.5 124.7c-2-2.6 17.4-7.4 17.4-7.4s-1.3 4-1.8 6.8c-.3 2.3-.4 6-.4 6s-12-1.3-15.2-5.4Zm238.4 0c2-2.6-17.4-7.4-17.4-7.4s1.3 4 1.7 6.8c.4 2.3.5 6 .5 6s12-1.3 15.2-5.4Z\"/><path fill=\"#000\" fill-opacity=\".3\" d=\"M4.5 124.7c-2-2.6 17.4-7.4 17.4-7.4s-1.3 4-1.8 6.8c-.3 2.3-.4 6-.4 6s-12-1.3-15.2-5.4Zm238.4 0c2-2.6-17.4-7.4-17.4-7.4s1.3 4 1.7 6.8c.4 2.3.5 6 .5 6s12-1.3 15.2-5.4Z\"/><path class=\"hwStr1\" stroke-width=\"3\" d=\"M27 106.6c9.7-2.7 23.1-5.4 41.5-7.5a476 476 0 0 1 110.4 0c18.3 2.1 31.8 4.8 41.4 7.5\"/><path stroke=\"#000\" stroke-dasharray=\"9 9\" stroke-linecap=\"round\" stroke-linejoin=\"round\" stroke-opacity=\".2\" stroke-width=\"2.5\" d=\"M37.5 98.7c8.3-1.8 18.5-3.5 31-5a476 476 0 0 1 110.4 0c12.9 1.5 23.4 3.3 31.8 5.1\"/><path class=\"headwearColorB\" d=\"M172.6 53.5a27 27 0 0 1 10.8 13.8c-8.9-4.8-18-9-27.5-12.4 4.2-4.3 11.5-4.4 16.7-1.4Z\"/><path fill=\"#000\" d=\"M98.6 60a2.1 2.1 0 1 1 0 4.1 2.1 2.1 0 0 1 0-4.2Z\"/><path class=\"headwearColorB\" d=\"M74.8 53.5c5.2-3 12.4-2.9 16.6 1.4C82 58.3 72.8 62.5 64 67.3a26.5 26.5 0 0 1 10.8-13.8Z\"/><path class=\"hwStr1\" stroke-width=\"3\" d=\"M64 67.3c8.8-4.8 18-9 27.4-12.4-4.2-4.3-11.4-4.4-16.6-1.4-5.2 3-8.7 8.3-10.8 13.8Z\"/><path class=\"hwStr1\" stroke-width=\"4\" d=\"M27 106s0 0 0 0a34.4 34.4 0 0 0 14.5-13.7c3-5.5 5.4-11.4 9.2-16.2 1.5-1.8 3.1-3.4 4.9-4.9A27.5 27.5 0 0 1 70.4 46a27.5 27.5 0 0 1 29 3.8 60 60 0 0 1 24-4m97 60.3s0 0 0 0a34.4 34.4 0 0 1-14.6-13.8c-3-5.5-5.3-11.4-9.2-16.2a33 33 0 0 0-4.7-4.7c.3-10.3-5.6-21-15-25.4a27.5 27.5 0 0 0-29 3.8 60 60 0 0 0-24-4\"/><path class=\"hwStr1\" stroke-width=\"3\" d=\"M183.4 67.3c-8.9-4.8-18-9-27.5-12.4 4.2-4.3 11.5-4.4 16.7-1.4a27 27 0 0 1 10.8 13.8Z\"/><path fill=\"#fff\" d=\"M123.7 68c1.1-.9 2.3-1.7 3-2.6.2-.3.4-.6.4-1 0-.6-1-1.3-1.6-1.4-.6-.2-1.2-.1-1.8-.1h-1.9c-.6.2-1.5.9-1.5 1.5 0 .4.2.7.4 1 .7.9 1.8 1.7 3 2.5Zm15.1 3.7c.5 3.2-2 6.3-5 7.6a22 22 0 0 1-9.6 1h-1c-3.3.2-6.7.2-9.7-1-3-1.3-5.5-4.4-5-7.6a7 7 0 0 1 4.3-5.2 11 11 0 0 1 3.8-6.4c2-1.6 4.4-2.5 7-2.6h.2c2.5.1 5 1 7 2.6a11 11 0 0 1 3.7 6.4 7 7 0 0 1 4.3 5.2Z\"/><path class=\"headwearColorB\" d=\"M127 64.4c0 .4-.1.7-.4 1-.6.9-1.8 1.7-3 2.5-1-.8-2.2-1.6-2.9-2.5-.2-.3-.4-.6-.4-1 0-.6.9-1.3 1.5-1.4.7-.2 1.2-.1 1.9-.1h1.8c.6.2 1.6.9 1.6 1.5Z\"/><path class=\"hwStr1\" stroke-width=\"4\" d=\"M96.5 64a2.1 2.1 0 1 1 4.2 0 2.1 2.1 0 0 1-4.2 0Z\"/><path class=\"hwStr1\" stroke-width=\"3\" d=\"M123.5 57.5c-2.5.1-5 1-6.9 2.6a11 11 0 0 0-3.8 6.4 7 7 0 0 0-4.3 5.2c-.5 3.2 2 6.3 5 7.6 3 1.2 6.4 1.2 9.6 1\"/><path class=\"hwStr1\" stroke-width=\"3\" d=\"M123.7 73.7c-2.1.8-4.9-.3-6-2.2m6-8.6h-1.9c-.6.2-1.5.9-1.5 1.5 0 .4.2.7.4 1 .7.9 1.8 1.7 3 2.5\"/><path fill=\"#000\" class=\"hwStr1\" stroke-width=\"4\" d=\"M150.8 64a2.1 2.1 0 1 0-4.2 0 2.1 2.1 0 0 0 4.2 0Z\"/><path class=\"hwStr1\" stroke-width=\"3\" d=\"M123.8 57.5c2.5.1 5 1 7 2.6a11 11 0 0 1 3.7 6.4 7 7 0 0 1 4.3 5.2c.5 3.2-2 6.3-5 7.6a22 22 0 0 1-9.6 1\"/><path class=\"hwStr1\" stroke-width=\"3\" d=\"M123.7 62.9h1.8c.6.2 1.6.9 1.6 1.5 0 .4-.2.7-.5 1-.6.9-1.8 1.7-3 2.5v5.8c2.2.8 5-.3 6-2.2\"/></svg>'\n            ),\n            Headwear.HeadwearVariants.BEAR,\n            _getHeadwearColor(bearColor)\n        );\n    }\n\n    function _getBearStyle(BearColors bearColor) internal pure returns (string memory) {\n        (string memory lightColor, string memory baseColor) = _getBearColor(bearColor);\n        return\n            string.concat(\n                '<style>.headwearColorL { fill:',\n                lightColor,\n                '}.headwearColorB { fill:',\n                baseColor,\n                '}.hwStr1 {stroke: #000;stroke-linecap: round;stroke-linejoin: round;}</style>'\n            );\n    }\n\n    function _getBearColor(BearColors bearColor) internal pure returns (string memory, string memory) {\n        if (bearColor == BearColors.GREEN) {\n            return (EduxColors.lightGreen, EduxColors.baseGreen);\n        } else if (bearColor == BearColors.PURPLE) {\n            return (EduxColors.lightPurple, EduxColors.basePurple);\n        } else if (bearColor == BearColors.BLUE) {\n            return (EduxColors.lightBlue, EduxColors.baseBlue);\n        } else if (bearColor == BearColors.PINK) {\n            return (EduxColors.lightPink, EduxColors.basePink);\n        } else if (bearColor == BearColors.GOLD) {\n            return (EduxColors.lightGold, EduxColors.baseGold);\n        } else {\n            revert(); // Avoid warnings.\n        }\n    }\n\n    function _getHeadwearColor(BearColors bearColor) internal pure returns (Headwear.HeadwearColors) {\n        if (bearColor == BearColors.GREEN) {\n            return Headwear.HeadwearColors.GREEN;\n        } else if (bearColor == BearColors.PURPLE) {\n            return Headwear.HeadwearColors.PURPLE;\n        } else if (bearColor == BearColors.BLUE) {\n            return Headwear.HeadwearColors.BLUE;\n        } else if (bearColor == BearColors.PINK) {\n            return Headwear.HeadwearColors.PINK;\n        } else if (bearColor == BearColors.GOLD) {\n            return Headwear.HeadwearColors.GOLD;\n        } else {\n            revert(); // Avoid warnings.\n        }\n    }\n}\n",
  "sourcePath": "E:\\Blockchain\\EDUIndex\\EduxContract\\contracts\\libraries\\svgs\\Profile\\Headwear\\HeadwearBear.sol",
  "compiler": {
    "name": "solc",
    "version": "0.8.20+commit.a1b79de6.Emscripten.clang"
  },
  "schemaVersion": "3.4.3",
  "updatedAt": "2024-08-25T13:13:21.716Z",
  "devdoc": {
    "kind": "dev",
    "methods": {},
    "version": 1
  },
  "userdoc": {
    "kind": "user",
    "methods": {},
    "version": 1
  }
}