{
  "contractName": "HeadwearSparkles",
  "abi": [
    {
      "inputs": [
        {
          "internalType": "enum HeadwearSparkles.SparklesColors",
          "name": "sparklesColor",
          "type": "HeadwearSparkles.SparklesColors"
        }
      ],
      "name": "getSparkles",
      "outputs": [
        {
          "internalType": "string",
          "name": "",
          "type": "string"
        },
        {
          "internalType": "enum Headwear.HeadwearVariants",
          "name": "",
          "type": "Headwear.HeadwearVariants"
        },
        {
          "internalType": "enum Headwear.HeadwearColors",
          "name": "",
          "type": "Headwear.HeadwearColors"
        }
      ],
      "stateMutability": "pure",
      "type": "function"
    }
  ],
  "bytecode": "0x610f2c61004e600b8282823980515f1a607314610042577f4e487b71000000000000000000000000000000000000000000000000000000005f525f60045260245ffd5b305f52607381538281f3fe7300000000000000000000000000000000000000003014608060405260043610610034575f3560e01c8063dce553cf14610038575b5f80fd5b610052600480360381019061004d9190610252565b61006a565b604051610061939291906103c0565b60405180910390f35b60605f80610077846100ae565b6040516020016100879190610d98565b60405160208183030381529060405260046100a1866100df565b9250925092509193909250565b60606100b982610150565b6040516020016100c99190610eca565b6040516020818303038152906040529050919050565b5f8060018111156100f3576100f2610307565b5b82600181111561010657610105610307565b5b03610113575f905061014b565b60018081111561012657610125610307565b5b82600181111561013957610138610307565b5b03610147576005905061014b565b5f80fd5b919050565b60605f600181111561016557610164610307565b5b82600181111561017857610177610307565b5b036101ba576040518060400160405280600481526020017f23303030000000000000000000000000000000000000000000000000000000008152509050610226565b6001808111156101cd576101cc610307565b5b8260018111156101e0576101df610307565b5b03610222576040518060400160405280600781526020017f23423936333236000000000000000000000000000000000000000000000000008152509050610226565b5f80fd5b919050565b5f80fd5b6002811061023b575f80fd5b50565b5f8135905061024c8161022f565b92915050565b5f602082840312156102675761026661022b565b5b5f6102748482850161023e565b91505092915050565b5f81519050919050565b5f82825260208201905092915050565b5f5b838110156102b4578082015181840152602081019050610299565b5f8484015250505050565b5f601f19601f8301169050919050565b5f6102d98261027d565b6102e38185610287565b93506102f3818560208601610297565b6102fc816102bf565b840191505092915050565b7f4e487b71000000000000000000000000000000000000000000000000000000005f52602160045260245ffd5b6016811061034557610344610307565b5b50565b5f81905061035582610334565b919050565b5f61036482610348565b9050919050565b6103748161035a565b82525050565b6006811061038b5761038a610307565b5b50565b5f81905061039b8261037a565b919050565b5f6103aa8261038e565b9050919050565b6103ba816103a0565b82525050565b5f6060820190508181035f8301526103d881866102cf565b90506103e7602083018561036b565b6103f460408301846103b1565b949350505050565b5f81905092915050565b7f3c73766720786d6c6e733d22687474703a2f2f7777772e77332e6f72672f32305f8201527f30302f737667222077696474683d2232313022206865696768743d223139372260208201527f2076696577426f783d223020302032313020313937222066696c6c3d226e6f6e60408201527f65223e0000000000000000000000000000000000000000000000000000000000606082015250565b5f6104ac6063836103fc565b91506104b782610406565b606382019050919050565b5f6104cc8261027d565b6104d681856103fc565b93506104e6818560208601610297565b80840191505092915050565b7f3c7061746820636c6173733d226877636f6c6f722220643d224d3135352e36345f8201527f332035332e3132632e3130372d2e3239372e35342d2e3238362e3634322e303160208201527f3220312e39303120352e35373520362e30343920392e39392031312e3237372060408201527f31312e393137612e3038352e3038352030203020312d2e3030322e31366c2d2e60608201527f3534352e313938632d342e39373920312e3830332d382e38363420352e39343560808201527f2d31302e3539392031312e3239376c2d2e3032362e3038612e3235342e32353460a08201527f2030203020312d2e3438332e303033632d312e3838362d352e3638332d362e3060c08201527f33352d31302e3138332d31312e3331352d31322e313337612e3039362e30393660e08201527f203020302031202e3030342d2e31386c2e3234312d2e303863352e3033352d316101008201527f2e37333520392e3031352d352e3837362031302e3830362d31312e32375a4d366101208201527f392e3639382033372e363735632e3036332d2e3137362e33322d2e31372e33386101408201527f312e30303820312e313320332e33313220332e35393420352e39333620362e376101608201527f20372e3038612e30352e30352030203020312d2e3030312e3039356c2d2e33326101808201527f342e313138632d322e39353820312e3037312d352e32363620332e3533322d366101a08201527f2e32393720362e3731326c2d2e3031352e303438612e3135312e3135312030206101c08201527f3020312d2e3238372e303031632d312e3132312d332e3337362d332e3538362d6101e08201527f362e30352d362e3732342d372e3231612e3035372e303537203020302031202e6102008201527f3030332d2e3130386c2e3134332d2e30343863322e3939322d312e303320352e6102208201527f3335362d332e343920362e34322d362e3639365a4d32312e3931312035322e376102408201527f3334632e3036332d2e3137362e33322d2e31372e3338312e30303820312e31336102608201527f20332e33313220332e35393420352e39333620362e3720372e3038612e30352e6102808201527f30352030203020312030202e3039356c2d2e3332342e313138632d322e3935396102a08201527f20312e3037312d352e32363720332e3533322d362e32393720362e3731326c2d6102c08201527f2e3031362e303438612e3135312e3135312030203020312d2e3238372e3030316102e08201527f632d312e31322d332e3337362d332e3538362d362e30352d362e3732332d372e6103008201527f3231612e3035372e303537203020302031202e3030322d2e3130386c2e3134346103208201527f2d2e30343863322e3939312d312e303320352e3335362d332e343920362e34326103408201527f2d362e3639365a6d3136302e3939312d31322e34632e3036332d2e3137362e336103608201527f32312d2e31372e3338312e30303820312e313320332e33313220332e353934206103808201527f352e39333620362e3720372e30382e3034332e3031382e3034332e3037392d2e6103a08201527f3030312e3039356c2d2e3332342e313138632d322e39353820312e30372d352e6103c08201527f32363620332e3533322d362e32393720362e3731326c2d2e3031352e303438616103e08201527f2e3135312e3135312030203020312d2e3238372e303031632d312e3132312d336104008201527f2e3337362d332e3538362d362e30352d362e3732332d372e3231612e3035372e6104208201527f303537203020302031202e3030322d2e3130386c2e3134332d2e30343863322e6104408201527f3939322d312e303320352e3335362d332e343920362e3432312d362e3639365a6104608201527f222f3e3c7061746820636c6173733d226877636f6c6f722220643d224d3133356104808201527f2e3231332032392e393834632e3034352d2e3132362e3232392d2e3132312e326104a08201527f37322e3030352e38303520322e333620322e35363120342e323320342e3737356104c08201527f20352e303436612e3033362e3033362030203020312d2e3030312e3036386c2d6104e08201527f2e32332e303834632d322e3130382e3736332d332e37353420322e3531372d346105008201527f2e34383820342e3738346c2d2e3031312e303334612e3130382e3130382030206105208201527f3020312d2e3230352030632d2e3739392d322e3430362d322e3535352d342e336105408201527f31312d342e3739312d352e313339612e30342e3034203020302031202e3030316105608201527f2d2e3037366c2e3130322d2e30333463322e3133332d2e37333420332e3831386105808201527f2d322e34383820342e3537362d342e3737325a222f3e3c7061746820636c61736105a08201527f733d226877636f6c6f722220643d224d35322e3238332036332e303637632e306105c08201527f39342d2e3236322e3437362d2e3235322e3536362e30313120312e36373820346105e08201527f2e393220352e33333920382e38313820392e3935342031302e353139612e30376106008201527f352e3037352030203020312d2e3030322e31346c2d2e3438312e313735632d346106208201527f2e33393420312e3539312d372e38323320352e3234372d392e33353520392e396106408201527f37316c2d2e3032332e303731612e3232352e3232352030203020312d2e3432366106608201527f2e303032632d312e3636352d352e3031362d352e3332372d382e3938372d392e6106808201527f3938382d31302e373132612e3038352e303835203020302031202e3030342d2e6106a08201527f3135396c2e3231332d2e30373163342e3434342d312e353320372e3935362d356106c08201527f2e31383620392e3533382d392e3934375a222f3e3c2f7376673e0000000000006106e082015250565b5f610d816106fa836103fc565b9150610d8c826104f2565b6106fa82019050919050565b5f610da2826104a0565b9150610dae82846104c2565b9150610db982610d74565b915081905092915050565b7f3c7374796c653e2e6877636f6c6f727b66696c6c3a236666663b207374726f6b5f8201527f653a000000000000000000000000000000000000000000000000000000000000602082015250565b5f610e1e6022836103fc565b9150610e2982610dc4565b602282019050919050565b7f3b207374726f6b652d77696474683a20333b207374726f6b652d6c696e6563615f8201527f703a207371756172653b207374726f6b652d6c696e656a6f696e3a20726f756e60208201527f647d3c2f7374796c653e00000000000000000000000000000000000000000000604082015250565b5f610eb4604a836103fc565b9150610ebf82610e34565b604a82019050919050565b5f610ed482610e12565b9150610ee082846104c2565b9150610eeb82610ea8565b91508190509291505056fea264697066735822122038967e6012a1122b856f7596b65088b253068a0c70cd6664ffc929fe2a152c3b64736f6c63430008140033",
  "immutableReferences": {},
  "source": "// SPDX-License-Identifier: MIT\npragma solidity ^0.8.0;\n\nimport {Headwear} from '../Headwear.sol';\nimport {EduxColors} from '../EduxColors.sol';\n\nlibrary HeadwearSparkles {\n    enum SparklesColors {\n        NONE,\n        GOLD\n    }\n\n    function getSparkles(\n        SparklesColors sparklesColor\n    ) external pure returns (string memory, Headwear.HeadwearVariants, Headwear.HeadwearColors) {\n        // sparkle (2 colors: white, gold)\n        return (\n            string.concat(\n                '<svg xmlns=\"http://www.w3.org/2000/svg\" width=\"210\" height=\"197\" viewBox=\"0 0 210 197\" fill=\"none\">',\n                _getSparklesStyle(sparklesColor),\n                '<path class=\"hwcolor\" d=\"M155.643 53.12c.107-.297.54-.286.642.012 1.901 5.575 6.049 9.99 11.277 11.917a.085.085 0 0 1-.002.16l-.545.198c-4.979 1.803-8.864 5.945-10.599 11.297l-.026.08a.254.254 0 0 1-.483.003c-1.886-5.683-6.035-10.183-11.315-12.137a.096.096 0 0 1 .004-.18l.241-.08c5.035-1.735 9.015-5.876 10.806-11.27ZM69.698 37.675c.063-.176.32-.17.381.008 1.13 3.312 3.594 5.936 6.7 7.08a.05.05 0 0 1-.001.095l-.324.118c-2.958 1.071-5.266 3.532-6.297 6.712l-.015.048a.151.151 0 0 1-.287.001c-1.121-3.376-3.586-6.05-6.724-7.21a.057.057 0 0 1 .003-.108l.143-.048c2.992-1.03 5.356-3.49 6.42-6.696ZM21.911 52.734c.063-.176.32-.17.381.008 1.13 3.312 3.594 5.936 6.7 7.08a.05.05 0 0 1 0 .095l-.324.118c-2.959 1.071-5.267 3.532-6.297 6.712l-.016.048a.151.151 0 0 1-.287.001c-1.12-3.376-3.586-6.05-6.723-7.21a.057.057 0 0 1 .002-.108l.144-.048c2.991-1.03 5.356-3.49 6.42-6.696Zm160.991-12.4c.063-.176.321-.17.381.008 1.13 3.312 3.594 5.936 6.7 7.08.043.018.043.079-.001.095l-.324.118c-2.958 1.07-5.266 3.532-6.297 6.712l-.015.048a.151.151 0 0 1-.287.001c-1.121-3.376-3.586-6.05-6.723-7.21a.057.057 0 0 1 .002-.108l.143-.048c2.992-1.03 5.356-3.49 6.421-6.696Z\"/><path class=\"hwcolor\" d=\"M135.213 29.984c.045-.126.229-.121.272.005.805 2.36 2.561 4.23 4.775 5.046a.036.036 0 0 1-.001.068l-.23.084c-2.108.763-3.754 2.517-4.488 4.784l-.011.034a.108.108 0 0 1-.205 0c-.799-2.406-2.555-4.311-4.791-5.139a.04.04 0 0 1 .001-.076l.102-.034c2.133-.734 3.818-2.488 4.576-4.772Z\"/><path class=\"hwcolor\" d=\"M52.283 63.067c.094-.262.476-.252.566.011 1.678 4.92 5.339 8.818 9.954 10.519a.075.075 0 0 1-.002.14l-.481.175c-4.394 1.591-7.823 5.247-9.355 9.971l-.023.071a.225.225 0 0 1-.426.002c-1.665-5.016-5.327-8.987-9.988-10.712a.085.085 0 0 1 .004-.159l.213-.071c4.444-1.53 7.956-5.186 9.538-9.947Z\"/></svg>'\n            ),\n            Headwear.HeadwearVariants.SPARKLES,\n            _getHeadwearColor(sparklesColor)\n        );\n    }\n\n    function _getSparklesStyle(SparklesColors sparklesColor) internal pure returns (string memory) {\n        return\n            string.concat(\n                '<style>.hwcolor{fill:#fff; stroke:',\n                _getSparklesColor(sparklesColor),\n                '; stroke-width: 3; stroke-linecap: square; stroke-linejoin: round}</style>'\n            );\n    }\n\n    function _getSparklesColor(SparklesColors sparklesColor) internal pure returns (string memory) {\n        if (sparklesColor == SparklesColors.NONE) {\n            return EduxColors.black;\n        } else if (sparklesColor == SparklesColors.GOLD) {\n            return EduxColors.darkGold;\n        } else {\n            revert(); // Avoid warnings.\n        }\n    }\n\n    function _getHeadwearColor(SparklesColors sparklesColor) internal pure returns (Headwear.HeadwearColors) {\n        if (sparklesColor == SparklesColors.NONE) {\n            return Headwear.HeadwearColors.NONE;\n        } else if (sparklesColor == SparklesColors.GOLD) {\n            return Headwear.HeadwearColors.GOLD;\n        } else {\n            revert(); // Avoid warnings.\n        }\n    }\n}\n",
  "sourcePath": "E:\\Blockchain\\EDUIndex\\EduxContract\\contracts\\libraries\\svgs\\Profile\\Headwear\\HeadwearSparkles.sol",
  "compiler": {
    "name": "solc",
    "version": "0.8.20+commit.a1b79de6.Emscripten.clang"
  },
  "schemaVersion": "3.4.3",
  "updatedAt": "2024-08-25T13:13:21.999Z",
  "devdoc": {
    "kind": "dev",
    "methods": {},
    "version": 1
  },
  "userdoc": {
    "kind": "user",
    "methods": {},
    "version": 1
  }
}