{
  "contractName": "HeadwearShaman",
  "abi": [
    {
      "inputs": [
        {
          "internalType": "enum HeadwearShaman.ShamanColors",
          "name": "shamanColor",
          "type": "HeadwearShaman.ShamanColors"
        }
      ],
      "name": "getShaman",
      "outputs": [
        {
          "internalType": "string",
          "name": "",
          "type": "string"
        },
        {
          "internalType": "enum Headwear.HeadwearVariants",
          "name": "",
          "type": "Headwear.HeadwearVariants"
        },
        {
          "internalType": "enum Headwear.HeadwearColors",
          "name": "",
          "type": "Headwear.HeadwearColors"
        }
      ],
      "stateMutability": "pure",
      "type": "function"
    }
  ],
  "bytecode": "0x6137c961004e600b8282823980515f1a607314610042577f4e487b71000000000000000000000000000000000000000000000000000000005f525f60045260245ffd5b305f52607381538281f3fe7300000000000000000000000000000000000000003014608060405260043610610034575f3560e01c80634b92faf114610038575b5f80fd5b610052600480360381019061004d9190610551565b61006a565b604051610061939291906106bf565b60405180910390f35b60605f80610077846100ae565b6040516020016100879190613639565b60405160208183030381529060405260146100a1866100ea565b9250925092509193909250565b60605f806100bb846101fb565b9150915081816040516020016100d2929190613747565b60405160208183030381529060405292505050919050565b5f8060048111156100fe576100fd610606565b5b82600481111561011157610110610606565b5b0361011f57600190506101f6565b6002600481111561013357610132610606565b5b82600481111561014657610145610606565b5b0361015457600290506101f6565b6003600481111561016857610167610606565b5b82600481111561017b5761017a610606565b5b0361018957600390506101f6565b6001600481111561019d5761019c610606565b5b8260048111156101b0576101af610606565b5b036101be57600490506101f6565b6004808111156101d1576101d0610606565b5b8260048111156101e4576101e3610606565b5b036101f257600590506101f6565b5f80fd5b919050565b6060805f600481111561021157610210610606565b5b83600481111561022457610223610606565b5b0361029e576040518060400160405280600781526020017f23463446464443000000000000000000000000000000000000000000000000008152506040518060400160405280600781526020017f234130443137300000000000000000000000000000000000000000000000000081525091509150610525565b600260048111156102b2576102b1610606565b5b8360048111156102c5576102c4610606565b5b0361033f576040518060400160405280600781526020017f23463345414646000000000000000000000000000000000000000000000000008152506040518060400160405280600781526020017f234541443746460000000000000000000000000000000000000000000000000081525091509150610525565b6003600481111561035357610352610606565b5b83600481111561036657610365610606565b5b036103e0576040518060400160405280600781526020017f23454346304646000000000000000000000000000000000000000000000000008152506040518060400160405280600781526020017f234439453046460000000000000000000000000000000000000000000000000081525091509150610525565b600160048111156103f4576103f3610606565b5b83600481111561040757610406610606565b5b03610481576040518060400160405280600781526020017f23464645374630000000000000000000000000000000000000000000000000008152506040518060400160405280600781526020017f234646443244440000000000000000000000000000000000000000000000000081525091509150610525565b60048081111561049457610493610606565b5b8360048111156104a7576104a6610606565b5b03610521576040518060400160405280600781526020017f23464645453933000000000000000000000000000000000000000000000000008152506040518060400160405280600781526020017f234638433934340000000000000000000000000000000000000000000000000081525091509150610525565b5f80fd5b915091565b5f80fd5b6005811061053a575f80fd5b50565b5f8135905061054b8161052e565b92915050565b5f602082840312156105665761056561052a565b5b5f6105738482850161053d565b91505092915050565b5f81519050919050565b5f82825260208201905092915050565b5f5b838110156105b3578082015181840152602081019050610598565b5f8484015250505050565b5f601f19601f8301169050919050565b5f6105d88261057c565b6105e28185610586565b93506105f2818560208601610596565b6105fb816105be565b840191505092915050565b7f4e487b71000000000000000000000000000000000000000000000000000000005f52602160045260245ffd5b6016811061064457610643610606565b5b50565b5f81905061065482610633565b919050565b5f61066382610647565b9050919050565b61067381610659565b82525050565b6006811061068a57610689610606565b5b50565b5f81905061069a82610679565b919050565b5f6106a98261068d565b9050919050565b6106b98161069f565b82525050565b5f6060820190508181035f8301526106d781866105ce565b90506106e6602083018561066a565b6106f360408301846106b0565b949350505050565b5f81905092915050565b7f3c73766720786d6c6e733d22687474703a2f2f7777772e77332e6f72672f32305f8201527f30302f737667222077696474683d2232323222206865696768743d223333352260208201527f20783d222d36222066696c6c3d226e6f6e65223e000000000000000000000000604082015250565b5f6107856054836106fb565b915061079082610705565b605482019050919050565b5f6107a58261057c565b6107af81856106fb565b93506107bf818560208601610596565b80840191505092915050565b7f3c7061746820636c6173733d227368616d616e436f6c6f72322220643d226d335f8201527f332e322038312e3720332e3620392e3820322e342d2e3520322e342d2e342d3260208201527f2e382d392d352e362e315a4d35362e352038346c2d312e3820372e346133372e60408201527f322033372e3220302030203020342e3220312e34682e346c342e332d312e362e60608201527f382d342e322d332e332d352e372d342e3620322e375a222f3e3c70617468206360808201527f6c6173733d227368616d616e436f6c6f72322220643d226d3132342e3620363660a08201527f2e322031372d31312d342d332e332d32332e352d392e352d31362e382d362e3760c08201527f2d392e372d322e382d31322e3820322e382d392e3420392e312d352e3820313460e08201527f2e357631372e386c372e362031362e3120362e3320342e3773312e342d3138206101008201527f31362e322d32372e356331352e342d392e392033342d332e392033342d332e396101208201527f6c312d2e335a6d31302e3520362e3420322e3120312e372031202e3520322e376101408201527f2d372e3320322e392d392e312d2e372d322e322d342e3920312e362d312e37206101608201527f362e362d312e3420382e325a6d352e31203473322e3520322e3820332e3420346101808201527f2e38632e3620312e35203120332e36203120332e366c2d2e362031352e372d326101a08201527f2e372031322e3820322e312e3768362e386c2d332e3520382e352e3520342e316101c08201527f20352e3320372e39203720332e3920362e312d312031302d372e36762d31322e6101e08201527f346c372e3720312e3420342e382d31302e362e352d31322e3168372e316c2d326102008201527f2e392d392e342d362e342d362e342d362e362d352d352e312d312e392d352e346102208201527f20312e342d342e3620332e352d342e322d332e352d352e312d34682d362e326c6102408201527f2d362e3820322e362d322e3220335a6d33362e362d36332e3861332e3720332e6102608201527f3720302031203120302d372e3420332e3720332e37203020302031203020372e6102808201527f345a222f3e3c7061746820636c6173733d227368616d616e436f6c6f723122206102a08201527f643d224d3231312e342035392e3361352e3120352e3120302031203120302d316102c08201527f302e3320352e3120352e3120302030203120302031302e335a4d3136352e38206102e08201527f3832632d2e382d322e372e332d3620322e362d372e37613920392030203020316103008201527f20382e322d2e372033372e312033372e312030203020312034332031392e37206103208201527f33342033342030203020302d31392d32342e34413434203434203020302030206103408201527f3137332036366c2e322e356135322035322030203020302d31342e3820352e376103608201527f6c2d2e312e3761313720313720302030203120372e3520392e315a222f3e3c706103808201527f61746820636c6173733d227368616d616e436f6c6f72322220643d226d3136396103a08201527f2036362e3820352e322d312e316134332e342034332e342030203020302031376103c08201527f2e372d31302037332e362037332e362030203020312d32332e3820342e376c2d6103e08201527f312e352d332e326135342035342030203020302031302e362d34762d2e3161346104008201527f312034312030203020312d31322e332033763163322e3220322e3920332e32206104208201527f362e3620332031302e326c2e322e3661353220353220302030203120352d312e6104408201527f34563636632d312e342e342d322e372e362d34202e385a222f3e3c70617468206104608201527f636c6173733d227368616d616e436f6c6f72322220643d224d3136342e3920356104808201527f362e316136302036302030203020312d32302e332d326c2d2e322e3476312e336104a08201527f632d2e3620372d322e372031342d362032302e335637366131362e332031362e6104c08201527f332030203020312031352e392d342e3863312e342e3420322e372031203420316104e08201527f2e376c2e312d2e3761353920353920302030203120392e372d342e336c2d2e326105008201527f2d2e366131362031362030203020302d332d31302e33762d2e395a4d3133372e6105208201527f3420362e39682d2e31613633203633203020302031202e392031382e316c2e326105408201527f2e3720352e372d322d2e342d316133312e332033312e332030203020302d362e6105608201527f332d31352e385a6d2d32302e3720382e3261332e3620332e36203020312030206105808201527f3020372e3220332e3620332e3620302030203020302d372e325a222f3e3c70616105a08201527f746820636c6173733d227368616d616e436f6c6f72312220643d224d32332e326105c08201527f2039372e36632d362e3820312e312d313320322d313420382e396131372031376105e08201527f20302030203020392031372e35632d332e322d31302e332d312e322d31372e366106008201527f20352d32362e345a222f3e3c7061746820636c6173733d227368616d616e436f6106208201527f6c6f72322220643d224d362e322038322e3561332e3820332e382030203120306106408201527f203020372e3620332e3820332e3820302030203020302d372e365a6d32302e346106608201527f2d382e324131382031382030203020312033392036322e326c2d2e322d2e37636106808201527f2d312e362e342d332e3220312d3520312e364136362e372036362e37203020306106a08201527f203020382e332033342e382031343520313435203020302031203238203639636106c08201527f2d2e3820312e352d312e3520332e332d312e3820352e31682e335a222f3e3c706106e08201527f61746820636c6173733d227368616d616e436f6c6f72322220643d224d3339206107008201527f36322e326131382031382030203020302d31322e34203132682d2e33613235206107208201527f32352030203020302d2e3420372e38632d342e352d342d392e352d372e362d316107408201527f352e332d31302e3320332e3120352e322031332031382e372031362e322032346107608201527f2e316c322e332d312e3320322e342d31732d362e312d392e322d342d313161346107808201527f342034342030203020302031322e332d31382e366c322d352e362d2e332d2e326107a08201527f2d312e3620332e31632d2e3420302d2e372e322d31202e336c2e312e375a222f6107c08201527f3e3c7061746820636c6173733d227368616d616e436f6c6f72312220643d224d6107e08201527f33392e382036346134342034342030203020312d31322e322031382e3463352e6108008201527f312d322031302e392d312e392031362e352d322e3320322d2e3220342e322d2e6108208201527f3420362e332d3120332e342d2e3820362e362d322e3220392d342e37682e34616108408201527f34312e372034312e37203020302031202e382d3138682d2e3361392e3820392e6108608201527f382030203020302d362e382d352e32632d332d2e362d362e312e332d382e34206108808201527f322e332d312e3420312e332d322e3420332d332e3220342e382d2e3820312e386108a08201527f2d312e3420332e382d3220352e365a222f3e3c7061746820636c6173733d22736108c08201527f68616d616e436f6c6f72322220643d224d37302033392e3561313520313520306108e08201527f2030203120362e392d356c2d2e332d2e372d312e322e356132382032382030206109008201527f3020302d332e362d31316c2d3130202e3163312d322e3820312e372d352e36206109208201527f322e352d382e376132392032392030203020302d31342d372e34632d352e332d6109408201527f2e392d31312e312e372d31342e3520342e394131392e322031392e32203020306109608201527f20302033322e352032346134362e362034362e362030203020302031302e39206109808201527f3330632d2e3620312e332d312e3220322e372d3220342e316c2e352e32632e386109a08201527f2d312e3820312e382d332e3520332e322d342e3861392e3720392e37203020306109c08201527f20312031352e3220322e39682e336134342e362034342e3620302030203120396109e08201527f2d31372e326c2e332e335a222f3e3c7061746820636c6173733d227368616d61610a008201527f6e436f6c6f72322220643d224d39362e332033302e38632d362e362d2e352d31610a208201527f332e342e352d31392e3720336c2e332e3763322e332d3120352d312e3520372e610a408201527f352d312e3661343420343420302030203120313720332e346331322e3520342e610a608201527f372032342e312031312e342033362e372031352e386136302036302030203020610a808201527f302032362e38203463342e322d2e3420382e332d312e332031322e322d336c2e610aa08201527f312e326135352e362035352e362030203020302031372e332d31332e31632e39610ac08201527f2d3120312e382d322e3220322e312d332e362e352d322e332d2e382d342e372d610ae08201527f322e352d362e352d332e362d342d382e372d362e362d31342e322d362e372d35610b008201527f2e3820322e372d31312e3820352e312d31372e3620372e3520302d332e332d2e610b208201527f322d362e3620302d31302d362e322d2e362d31322e332e372d31382e3220322e610b408201527f376c2d352e3720322d322e312031632d382e3420332e332d31362e3820372d32610b608201527f352e3820372e366134362034362030203020302d31342e322d332e345a222f3e610b808201527f3c706174682066696c6c3d2223303030222066696c6c2d6f7061636974793d22610ba08201527f2e322220643d226d33332e322038312e3720332e3620392e3820322e342d2e35610bc08201527f20322e342d2e342d322e382d392d352e362e315a222f3e3c706174682066696c610be08201527f6c3d2223666666222066696c6c2d6f7061636974793d222e352220643d226d35610c008201527f362e352038342d312e3820372e346133372e322033372e322030203020302034610c208201527f2e3220312e34682e346c342e332d312e362e382d342e322d332e332d352e372d610c408201527f342e3620322e375a222f3e3c706174682066696c6c3d2223303030222066696c610c608201527f6c2d6f7061636974793d222e322220643d226d3132342e362036362e32203137610c808201527f2d31312d342d332e332d32332e352d392e352d31362e382d362e372d392e372d610ca08201527f322e382d31322e3820322e382d392e3420392e312d352e382031342e35763137610cc08201527f2e386c372e362031362e3120362e3320342e3773312e342d31382031362e322d610ce08201527f32372e356331352e342d392e392033342d332e392033342d332e396c312d2e33610d008201527f5a222f3e3c706174682066696c6c3d2223666666222066696c6c2d6f70616369610d208201527f74793d222e352220643d226d3133352e312037322e3620322e3120312e372031610d408201527f202e3520322e372d372e3320322e392d392e312d2e372d322e322d342e392031610d608201527f2e362d312e3720362e362d312e3420382e325a6d352e31203473322e3520322e610d808201527f3820332e3420342e38632e3620312e35203120332e36203120332e366c2d2e36610da08201527f2031352e372d322e372031322e3820322e312e3768362e386c2d332e3520382e610dc08201527f352e3520342e3120352e3320372e39203720332e3920362e312d312031302d37610de08201527f2e36762d31322e346c372e3720312e3420342e382d31302e362e352d31322e31610e008201527f68372e316c2d322e392d392e342d362e342d362e342d362e362d352d352e312d610e208201527f312e392d352e3420312e342d342e3620332e352d342e322d332e352d352e312d610e408201527f34682d362e326c2d362e3820322e362d322e3220335a6d33362e362d36332e38610e608201527f61332e3720332e3720302031203120302d372e3420332e3720332e3720302030610e808201527f2031203020372e345a6d2d372e3820353420352e322d312e316134332e342034610ea08201527f332e342030203020302031372e372d31302037332e362037332e362030203020610ec08201527f312d32332e3820342e376c2d312e352d332e3261353420353420302030203020610ee08201527f31302e362d34762d2e316134312034312030203020312d31322e332033763163610f008201527f322e3220322e3920332e3220362e3620332031302e326c2e322e366135322035610f208201527f3220302030203120352d312e34563636632d312e342e342d322e372e362d3420610f408201527f2e385a222f3e3c706174682066696c6c3d2223303030222066696c6c2d6f7061610f608201527f636974793d222e322220643d224d3136342e392035362e316136302036302030610f808201527f203020312d32302e332d326c2d2e322e3476312e33632d2e3620372d322e3720610fa08201527f31342d362032302e335637366131362e332031362e332030203020312031352e610fc08201527f392d342e3863312e342e3420322e372031203420312e376c2e312d2e37613539610fe08201527f20353920302030203120392e372d342e336c2d2e322d2e3661313620313620306110008201527f203020302d332d31302e33762d2e395a222f3e3c706174682066696c6c3d22236110208201527f666666222066696c6c2d6f7061636974793d222e352220643d224d3133372e346110408201527f20362e39682d2e31613633203633203020302031202e392031382e316c2e322e6110608201527f3720352e372d322d2e342d316133312e332033312e332030203020302d362e336110808201527f2d31352e385a6d2d32302e3720382e3261332e3620332e3620302031203020306110a08201527f20372e3220332e3620332e3620302030203020302d372e325a4d362e322038326110c08201527f2e3561332e3820332e38203020312030203020372e3620332e3820332e3820306110e08201527f2030203020302d372e365a222f3e3c706174682066696c6c3d222330303022206111008201527f66696c6c2d6f7061636974793d222e322220643d224d32362e362037342e33416111208201527f31382031382030203020312033392036322e326c2d2e322d2e37632d312e362e6111408201527f342d332e3220312d3520312e364136362e372036362e3720302030203020382e6111608201527f332033342e382031343520313435203020302031203238203639632d2e3820316111808201527f2e352d312e3520332e332d312e3820352e31682e335a222f3e3c7061746820666111a08201527f696c6c3d2223666666222066696c6c2d6f7061636974793d222e352220643d226111c08201527f4d33392036322e326131382031382030203020302d31322e34203132682d2e336111e08201527f6132352032352030203020302d2e3420372e38632d342e352d342d392e352d376112008201527f2e362d31352e332d31302e33203320352e322031332031382e372031362e32206112208201527f32342e316c322e332d312e3320322e342d31732d362e312d392e322d342d31316112408201527f6134342034342030203020302031322e332d31382e366c322d352e362d2e332d6112608201527f2e322d312e3620332e31632d2e3420302d2e372e322d31202e336c2e312e375a6112808201527f222f3e3c706174682066696c6c3d2223666666222066696c6c2d6f70616369746112a08201527f793d222e352220643d224d36392e392033392e3563312e382d322e3320342e336112c08201527f2d3420372d356c2d2e332d2e372d312e322e356132382032382030203020302d6112e08201527f332e362d31316c2d3130202e3120322e352d382e3761323920323920302030206113008201527f302d31342d372e34632d352e332d2e392d31312e312e372d31342e3520342e396113208201527f4131392e322031392e322030203020302033322e352032346134362e362034366113408201527f2e362030203020302031302e39203330632d2e3620312e332d312e3220322e376113608201527f2d3220342e316c2e352e32632e382d312e3820312e382d332e3520332e322d346113808201527f2e3861392e3720392e372030203020312031352e3220322e39682e336134342e6113a08201527f362034342e3620302030203120392d31372e326c2e332e335a222f3e3c7061746113c08201527f682066696c6c3d2223666666222066696c6c2d6f7061636974793d222e3522206113e08201527f643d224d39362e332033302e38632d362e362d2e352d31332e342e352d31392e6114008201527f3720336c2e332e3763322e332d3120352d312e3520372e352d312e36613434206114208201527f343420302030203120313720332e346331322e3520342e372032342e312031316114408201527f2e342033362e372031352e386136302036302030203020302032362e382034636114608201527f342e322d2e3420382e332d312e332031322e322d336c2e312e326135352e36206114808201527f35352e362030203020302031372e332d31332e31632e392d3120312e382d322e6114a08201527f3220322e312d332e362e352d322e332d2e382d342e372d322e352d362e352d336114c08201527f2e362d342d382e372d362e362d31342e322d362e372d352e3820322e372d31316114e08201527f2e3820352e312d31372e3620372e3520302d332e332d2e322d362e3620302d316115008201527f302d362e322d2e362d31322e332e372d31382e3220322e376c2d352e3720322d6115208201527f322e312031632d382e3420332e332d31362e3820372d32352e3820372e3661346115408201527f362034362030203020302d31342e322d332e345a222f3e3c7061746820636c616115608201527f73733d227368616d616e436f6c6f72322220643d226d3133312e382036332d346115808201527f2e3220342e346139332e322039332e3220302030203020352e3820332e326c326115a08201527f2d352e322e392d352e322d342e3520322e395a222f3e3c706174682066696c6c6115c08201527f3d2223303030222066696c6c2d6f7061636974793d222e322220643d226d31336115e08201527f312e382036332d342e3220342e34203320312e3620322e3820312e3620322d356116008201527f2e322e392d352e322d342e3520322e395a222f3e3c7061746820636c6173733d6116208201527f2268775374723122207374726f6b652d77696474683d22342220643d224d39366116408201527f2e332033302e386134362034362030203020312031342e3220332e3463392d2e6116608201527f362031372e342d342e332032352e382d372e376c322e312d2e3820352e372d326116808201527f63362d322031322d332e342031382e332d322e396131313620313136203020306116a08201527f20302d2e3120313063352e382d322e332031312e382d342e372031372e362d376116c08201527f2e3420352e352e312031302e3620322e372031342e3220362e3720312e3720316116e08201527f2e38203320342e3220322e3520362e3561382e3420382e342030203020312d326117008201527f2e3120332e362035352e362035352e362030203020312d32382031376c312e366117208201527f20332e3263382e322d2e332031362e322d312e392032332e382d342e382d35206117408201527f342e382d31312e3220382e322d31372e372031306d3020302d312e322e3461346117608201527f312e342034312e3420302030203120312e322d2e335a6d3020306134342034346117808201527f2030203020312032362e3420332e3320333420333420302030203120313920326117a08201527f342e342033372e312033372e312030203020302d34332d31392e37682d2e336c6117c08201527f312e362e386133302033302030203020312031372032312e37632d322e3320306117e08201527f2d342e362e312d372e322e3720312e3420372e352d2e312031352e362d3520326118008201527f322e362d322e352d312d352d312e382d382e322d3261333420333420302030206118208201527f3120322031322e322033372e392033372e392030203020312d362e37203620316118408201527f342e322031342e322030203020312d382e3520322e37632d332e392d2e322d376118608201527f2e342d322e352d392e382d352e352d322e352d332d342d362e362d352e392d316118808201527f302e3320312d332e3320332d362e3420352e332d382e382d332e332d2e312d366118a08201527f2e352d2e332d392e362d2e31613631203631203020302030202e382d33302e366118c08201527f222f3e3c7061746820636c6173733d2268775374723122207374726f6b652d776118e08201527f696474683d22342220643d224d32372e352039362e354331372e3820313035206119008201527f3135203131332e372031382e32203132346131372031372030203020312d392d6119208201527f31372e3563312d362e382031312e342d392031382e332d31305a6d30203053316119408201527f332e372037362e392031302e362037312e3763352e3820322e372031302e39206119608201527f352031352e332031302e3361323520323520302030203120322e322d31322e396119808201527f632d352d31322e352d31312e372d32342d31392e382d33342e334136362e37206119a08201527f36362e372030203020312033332e3820363363312e382d2e3620332e342d312e6119c08201527f3220352d312e366c312e312d2e3361353420353420302030203020332e352d376119e08201527f2e322034362e362034362e362030203020312d31302e392d333063302d342e31611a008201527f2e382d382e3520332e332d31312e3820332e342d342e3220392e322d352e3820611a208201527f31342e352d3561323920323920302030203120313420372e354c36322032332e611a408201527f34683130633220332e3420332e31203720332e352031302e396134342e342034611a608201527f342e342030203020312032312d332e35222f3e3c7061746820636c6173733d22611a808201527f68775374723122207374726f6b652d77696474683d22342220643d224d37342e611aa08201527f34203130302e336135302e382035302e382030203020312d31322e392d31382e611ac08201527f3920343320343320302030203120382e312d34322e3263312e352d312e372033611ae08201527f2e312d332e3320342e392d342e384d36342e342038382e332036302039342e34611b008201527f6d2e362d31352e362d382e352031336d37322e342d323463362e332d362e3120611b208201527f31312e352d31312032302d31332e334d3136362038322e3661372e3420372e34611b408201527f20302030203120322e342d382e3320382e3920382e3920302030203120392e35611b608201527f2030222f3e3c7061746820636c6173733d2268775374723122207374726f6b65611b808201527f2d77696474683d22342220643d224d3133382e352037366131362e332031362e611ba08201527f332030203020312031352e382d342e3841313720313720302030203120313635611bc08201527f2e38203832222f3e3c7061746820636c6173733d226877537472312220737472611be08201527f6f6b652d77696474683d22332220643d224d3137372e312035332e31632d3420611c008201527f312e372d3820322e362d31322e3220336136302036302030203020312d32362e611c208201527f382d34632d31322e362d342e342d32342e322d31312d33362e372d31352e3861611c408201527f34342034342030203020302d31372d332e342032312032312030203020302d37611c608201527f2e3520312e362031372e352031372e352030203020302d372e3720352e396d32611c808201527f362e352d392e382e362e32683063382e3820332031372e3620362032362e3720611ca08201527f3720392e3420312031392e332d2e312032372e342d352e316d31372037326139611cc08201527f342039342030203020302d2e352d31342e36632d2e342d332e312d312d362e32611ce08201527f2d322d396131342e352031342e352030203020302d352e392d376d382e342033611d008201527f302e376131323520313235203020302031203020305a6d302030762d2e31222f611d208201527f3e3c7061746820636c6173733d2268775374723122207374726f6b652d776964611d408201527f74683d22332220643d224d3136362e3320373763312e3320392e3320312e3620611d608201527f31382e3620312032372e376d31312e332d342e382d332e332d334d3138322038611d808201527f39632d312e392d312e352d342d322e372d362e332d332e356d2d31362e382039611da08201527f2e332d352e3620336d342e352d31362e326131352031352030203020302d372e611dc08201527f3420322e366d382d31326135392035392030203020312031342e382d352e376d611de08201527f2d352e322e386131382031382030203020302d332d31302e336d2d31312e3320611e008201527f372e36413333203333203020302030203133382e34203736762e316135332e33611e208201527f2035332e3320302030203020362d32302e336d2d31302e382031372e34613832611e408201527f20383220302030203020342e392d31362e326d352e322d33342e344133312e33611e608201527f2033312e33203020302030203133372e3420376c2d2e322d2e326d312031382e611e808201527f326136332036332030203020302d312d31384d3130352036366134382e362034611ea08201527f382e362030203020312031342e392d32314d38312e352037382e336135362e34611ec08201527f2035362e3420302030203120392d34356d2d32382031362e38613339352e3320611ee08201527f3339352e332030203020312d31342e372d32376d31372e3720382d3220342e31611f008201527f6d2d322e392d374c35392e322033316d2d382e352031332e322d352e342e376d611f208201527f322d362e382d352d2e364d32372e352038322e344134342e332034342e332030611f408201527f203020302033392e382036346c322d352e36632e392d312e3820312e392d332e611f608201527f3520332e332d342e3861392e3720392e372030203020312031352e3220322e39611f808201527f6d2d33322e3720323663352e312d322e312031302e392d322031362e352d322e611fa08201527f3420322d2e3220342e322d2e3420362e332d3120332e342d2e3820362e362d32611fc08201527f2e3220392d342e37222f3e3c7061746820636c6173733d226877537472312220611fe08201527f7374726f6b652d77696474683d22342220643d224d34342e32203932632d312e6120008201527f352d332e382d322e362d362e382d342e342d3131222f3e3c7061746820636c616120208201527f73733d2268775374723122207374726f6b652d77696474683d22332220643d226120408201527f4d32362e362037342e334131382031382030203020312033392036322e32222f6120608201527f3e3c7061746820636c6173733d2268775374723122207374726f6b652d7769646120808201527f74683d22342220643d224d33312e382038322e362033352e32203933222f3e3c6120a08201527f7061746820636c6173733d2268775374723122207374726f6b652d77696474686120c08201527f3d22332220643d224d33332e322039332e3561313232203132322030203020306120e08201527f2d382d31312e386d3135312e362d36382e3961332e3720332e372030203120316121008201527f20302d372e3420332e3720332e37203020302031203020372e345a6d33342e366121208201527f2034362e3561352e3120352e3120302031203120302d31302e3320352e3120356121408201527f2e3120302030203120302031302e335a6d2d39312e312d34302e3661332e36206121608201527f332e362030203120302d372e31203020332e3620332e3620302030203020372e6121808201527f3120305a4d31302038362e3361332e3820332e382030203120302d372e3620306121a08201527f20332e3820332e3820302030203020372e3620305a222f3e3c7061746820636c6121c08201527f6173733d227368616d616e436f6c6f72312220643d224d37382e382035392e366121e08201527f63322e362d312e3720362e322d2e3620382e3320312e3620322e3220322e32206122008201527f332e3220352e3220342e3120382e312e332030202e352d2e322e382d2e3361356122208201527f352035352030203020302d362031342e38632d312e392e372d3320312e352d346122408201527f2e3320322d312e342e352d33202e352d342e342d2e3261342e3720342e3720306122608201527f203020312d322e332d342e312037203720302030203120312e382d342e3563316122808201527f2e312d312e3220322e352d322e3120342d322e392d322d322e322d332e372d346122a08201527f2e352d342e332d372e322d2e372d322e3620302d352e3820322e332d372e335a6122c08201527f222f3e3c7061746820636c6173733d227368616d616e436f6c6f72312220643d6122e08201527f224d39382e372036372e316137203720302030203120362e3420322e3963312e6123008201527f3520322e342e3620352e392d312e3620372e396131312031312030203020312d6123208201527f3820322e3563302032202e3620332e382e3320352e372d2e3220312e382d312e6123408201527f3420332e362d332e3220342d312e362e322d332e332d2e372d342e322d322d316123608201527f2d312e332d312e342d332d312e392d342e356c2d2e362e3241353520353520306123808201527f2030203120393220363963322e352d2e3820342e352d312e3720362e382d312e6123a08201527f395a222f3e3c7061746820636c6173733d2268775374723122207374726f6b656123c08201527f2d77696474683d22342220643d226d38352e342038362e332e352d322e3541356123e08201527f352035352030203020312039332036372e33222f3e3c7061746820636c6173736124008201527f3d2268775374723122207374726f6b652d77696474683d22332e352220643d226124208201527f6d39322036392d2e382e33632d312d322e392d322d362d342d382e312d322e326124408201527f2d322e322d352e382d332e332d382e342d312e362d322e3320312e352d3320346124608201527f2e372d322e3320372e332e3620322e3720322e33203520342e3320372e322d316124808201527f2e352e382d322e3920312e372d342033613720372030203020302d312e3820346124a08201527f2e34633020312e362e3820332e3320322e3320342e3120312e332e372033202e6124c08201527f3720342e342e3120312e332d2e3420322e342d312e3220342e322d312e396c2e6124e08201527f362d2e32632e3520312e36203120332e3220312e3920342e35203120312e33206125008201527f322e3620322e3220342e32203220312e382d2e3420332d322e3220332e322d346125208201527f202e332d312e392d2e322d332e372d2e342d352e372033203020362d2e3620386125408201527f2e312d322e3520322e322d3220332d352e3520312e362d382d312e332d322d346125608201527f2d332d362e342d322e382d322e332e322d342e3320312e312d362e3720325a226125808201527f2f3e3c7061746820636c6173733d2268775374723122207374726f6b652d77696125a08201527f6474683d22332220643d226d39302e362035372e3720312e3720392e366d372e6125c08201527f372d362e362d372e3120362e32222f3e3c2f7376673e000000000000000000006125e082015250565b5f6136226125f6836106fb565b915061362d826107cb565b6125f682019050919050565b5f61364382610779565b915061364f828461079b565b915061365a82613615565b915081905092915050565b7f3c7374796c653e2e7368616d616e436f6c6f7231207b2066696c6c3a00000000815250565b7f7d2e7368616d616e436f6c6f7232207b2066696c6c3a00000000000000000000815250565b7f7d2e687753747231207b7374726f6b653a20233030303b7374726f6b652d6c695f8201527f6e656361703a20726f756e643b7374726f6b652d6c696e656a6f696e3a20726f60208201527f756e643b7d3c2f7374796c653e00000000000000000000000000000000000000604082015250565b5f613731604d836106fb565b915061373c826136b1565b604d82019050919050565b5f61375182613665565b601c82019150613761828561079b565b915061376c8261368b565b60168201915061377c828461079b565b915061378782613725565b9150819050939250505056fea2646970667358221220a4d120f1a0e0964ebe2b722a17e93ad25442c104997240db716befc7b510053364736f6c63430008140033",
  "immutableReferences": {},
  "source": "// SPDX-License-Identifier: MIT\npragma solidity ^0.8.0;\n\nimport {Headwear} from '../Headwear.sol';\nimport {EduxColors} from '../EduxColors.sol';\n\nlibrary HeadwearShaman {\n    enum ShamanColors {\n        GREEN,\n        PINK,\n        PURPLE,\n        BLUE,\n        GOLD\n    }\n\n    function getShaman(\n        ShamanColors shamanColor\n    ) external pure returns (string memory, Headwear.HeadwearVariants, Headwear.HeadwearColors) {\n        return (\n            string.concat(\n                '<svg xmlns=\"http://www.w3.org/2000/svg\" width=\"222\" height=\"335\" x=\"-6\" fill=\"none\">',\n                _getShamanStyle(shamanColor),\n                '<path class=\"shamanColor2\" d=\"m33.2 81.7 3.6 9.8 2.4-.5 2.4-.4-2.8-9-5.6.1ZM56.5 84l-1.8 7.4a37.2 37.2 0 0 0 4.2 1.4h.4l4.3-1.6.8-4.2-3.3-5.7-4.6 2.7Z\"/><path class=\"shamanColor2\" d=\"m124.6 66.2 17-11-4-3.3-23.5-9.5-16.8-6.7-9.7-2.8-12.8 2.8-9.4 9.1-5.8 14.5v17.8l7.6 16.1 6.3 4.7s1.4-18 16.2-27.5c15.4-9.9 34-3.9 34-3.9l1-.3Zm10.5 6.4 2.1 1.7 1 .5 2.7-7.3 2.9-9.1-.7-2.2-4.9 1.6-1.7 6.6-1.4 8.2Zm5.1 4s2.5 2.8 3.4 4.8c.6 1.5 1 3.6 1 3.6l-.6 15.7-2.7 12.8 2.1.7h6.8l-3.5 8.5.5 4.1 5.3 7.9 7 3.9 6.1-1 10-7.6v-12.4l7.7 1.4 4.8-10.6.5-12.1h7.1l-2.9-9.4-6.4-6.4-6.6-5-5.1-1.9-5.4 1.4-4.6 3.5-4.2-3.5-5.1-4h-6.2l-6.8 2.6-2.2 3Zm36.6-63.8a3.7 3.7 0 1 1 0-7.4 3.7 3.7 0 0 1 0 7.4Z\"/><path class=\"shamanColor1\" d=\"M211.4 59.3a5.1 5.1 0 1 1 0-10.3 5.1 5.1 0 0 1 0 10.3ZM165.8 82c-.8-2.7.3-6 2.6-7.7a9 9 0 0 1 8.2-.7 37.1 37.1 0 0 1 43 19.7 34 34 0 0 0-19-24.4A44 44 0 0 0 173 66l.2.5a52 52 0 0 0-14.8 5.7l-.1.7a17 17 0 0 1 7.5 9.1Z\"/><path class=\"shamanColor2\" d=\"m169 66.8 5.2-1.1a43.4 43.4 0 0 0 17.7-10 73.6 73.6 0 0 1-23.8 4.7l-1.5-3.2a54 54 0 0 0 10.6-4v-.1a41 41 0 0 1-12.3 3v1c2.2 2.9 3.2 6.6 3 10.2l.2.6a52 52 0 0 1 5-1.4V66c-1.4.4-2.7.6-4 .8Z\"/><path class=\"shamanColor2\" d=\"M164.9 56.1a60 60 0 0 1-20.3-2l-.2.4v1.3c-.6 7-2.7 14-6 20.3V76a16.3 16.3 0 0 1 15.9-4.8c1.4.4 2.7 1 4 1.7l.1-.7a59 59 0 0 1 9.7-4.3l-.2-.6a16 16 0 0 0-3-10.3v-.9ZM137.4 6.9h-.1a63 63 0 0 1 .9 18.1l.2.7 5.7-2-.4-1a31.3 31.3 0 0 0-6.3-15.8Zm-20.7 8.2a3.6 3.6 0 1 0 0 7.2 3.6 3.6 0 0 0 0-7.2Z\"/><path class=\"shamanColor1\" d=\"M23.2 97.6c-6.8 1.1-13 2-14 8.9a17 17 0 0 0 9 17.5c-3.2-10.3-1.2-17.6 5-26.4Z\"/><path class=\"shamanColor2\" d=\"M6.2 82.5a3.8 3.8 0 1 0 0 7.6 3.8 3.8 0 0 0 0-7.6Zm20.4-8.2A18 18 0 0 1 39 62.2l-.2-.7c-1.6.4-3.2 1-5 1.6A66.7 66.7 0 0 0 8.3 34.8 145 145 0 0 1 28 69c-.8 1.5-1.5 3.3-1.8 5.1h.3Z\"/><path class=\"shamanColor2\" d=\"M39 62.2a18 18 0 0 0-12.4 12h-.3a25 25 0 0 0-.4 7.8c-4.5-4-9.5-7.6-15.3-10.3 3.1 5.2 13 18.7 16.2 24.1l2.3-1.3 2.4-1s-6.1-9.2-4-11a44 44 0 0 0 12.3-18.6l2-5.6-.3-.2-1.6 3.1c-.4 0-.7.2-1 .3l.1.7Z\"/><path class=\"shamanColor1\" d=\"M39.8 64a44 44 0 0 1-12.2 18.4c5.1-2 10.9-1.9 16.5-2.3 2-.2 4.2-.4 6.3-1 3.4-.8 6.6-2.2 9-4.7h.4a41.7 41.7 0 0 1 .8-18h-.3a9.8 9.8 0 0 0-6.8-5.2c-3-.6-6.1.3-8.4 2.3-1.4 1.3-2.4 3-3.2 4.8-.8 1.8-1.4 3.8-2 5.6Z\"/><path class=\"shamanColor2\" d=\"M70 39.5a15 15 0 0 1 6.9-5l-.3-.7-1.2.5a28 28 0 0 0-3.6-11l-10 .1c1-2.8 1.7-5.6 2.5-8.7a29 29 0 0 0-14-7.4c-5.3-.9-11.1.7-14.5 4.9A19.2 19.2 0 0 0 32.5 24a46.6 46.6 0 0 0 10.9 30c-.6 1.3-1.2 2.7-2 4.1l.5.2c.8-1.8 1.8-3.5 3.2-4.8a9.7 9.7 0 0 1 15.2 2.9h.3a44.6 44.6 0 0 1 9-17.2l.3.3Z\"/><path class=\"shamanColor2\" d=\"M96.3 30.8c-6.6-.5-13.4.5-19.7 3l.3.7c2.3-1 5-1.5 7.5-1.6a44 44 0 0 1 17 3.4c12.5 4.7 24.1 11.4 36.7 15.8a60 60 0 0 0 26.8 4c4.2-.4 8.3-1.3 12.2-3l.1.2a55.6 55.6 0 0 0 17.3-13.1c.9-1 1.8-2.2 2.1-3.6.5-2.3-.8-4.7-2.5-6.5-3.6-4-8.7-6.6-14.2-6.7-5.8 2.7-11.8 5.1-17.6 7.5 0-3.3-.2-6.6 0-10-6.2-.6-12.3.7-18.2 2.7l-5.7 2-2.1 1c-8.4 3.3-16.8 7-25.8 7.6a46 46 0 0 0-14.2-3.4Z\"/><path fill=\"#000\" fill-opacity=\".2\" d=\"m33.2 81.7 3.6 9.8 2.4-.5 2.4-.4-2.8-9-5.6.1Z\"/><path fill=\"#fff\" fill-opacity=\".5\" d=\"m56.5 84-1.8 7.4a37.2 37.2 0 0 0 4.2 1.4h.4l4.3-1.6.8-4.2-3.3-5.7-4.6 2.7Z\"/><path fill=\"#000\" fill-opacity=\".2\" d=\"m124.6 66.2 17-11-4-3.3-23.5-9.5-16.8-6.7-9.7-2.8-12.8 2.8-9.4 9.1-5.8 14.5v17.8l7.6 16.1 6.3 4.7s1.4-18 16.2-27.5c15.4-9.9 34-3.9 34-3.9l1-.3Z\"/><path fill=\"#fff\" fill-opacity=\".5\" d=\"m135.1 72.6 2.1 1.7 1 .5 2.7-7.3 2.9-9.1-.7-2.2-4.9 1.6-1.7 6.6-1.4 8.2Zm5.1 4s2.5 2.8 3.4 4.8c.6 1.5 1 3.6 1 3.6l-.6 15.7-2.7 12.8 2.1.7h6.8l-3.5 8.5.5 4.1 5.3 7.9 7 3.9 6.1-1 10-7.6v-12.4l7.7 1.4 4.8-10.6.5-12.1h7.1l-2.9-9.4-6.4-6.4-6.6-5-5.1-1.9-5.4 1.4-4.6 3.5-4.2-3.5-5.1-4h-6.2l-6.8 2.6-2.2 3Zm36.6-63.8a3.7 3.7 0 1 1 0-7.4 3.7 3.7 0 0 1 0 7.4Zm-7.8 54 5.2-1.1a43.4 43.4 0 0 0 17.7-10 73.6 73.6 0 0 1-23.8 4.7l-1.5-3.2a54 54 0 0 0 10.6-4v-.1a41 41 0 0 1-12.3 3v1c2.2 2.9 3.2 6.6 3 10.2l.2.6a52 52 0 0 1 5-1.4V66c-1.4.4-2.7.6-4 .8Z\"/><path fill=\"#000\" fill-opacity=\".2\" d=\"M164.9 56.1a60 60 0 0 1-20.3-2l-.2.4v1.3c-.6 7-2.7 14-6 20.3V76a16.3 16.3 0 0 1 15.9-4.8c1.4.4 2.7 1 4 1.7l.1-.7a59 59 0 0 1 9.7-4.3l-.2-.6a16 16 0 0 0-3-10.3v-.9Z\"/><path fill=\"#fff\" fill-opacity=\".5\" d=\"M137.4 6.9h-.1a63 63 0 0 1 .9 18.1l.2.7 5.7-2-.4-1a31.3 31.3 0 0 0-6.3-15.8Zm-20.7 8.2a3.6 3.6 0 1 0 0 7.2 3.6 3.6 0 0 0 0-7.2ZM6.2 82.5a3.8 3.8 0 1 0 0 7.6 3.8 3.8 0 0 0 0-7.6Z\"/><path fill=\"#000\" fill-opacity=\".2\" d=\"M26.6 74.3A18 18 0 0 1 39 62.2l-.2-.7c-1.6.4-3.2 1-5 1.6A66.7 66.7 0 0 0 8.3 34.8 145 145 0 0 1 28 69c-.8 1.5-1.5 3.3-1.8 5.1h.3Z\"/><path fill=\"#fff\" fill-opacity=\".5\" d=\"M39 62.2a18 18 0 0 0-12.4 12h-.3a25 25 0 0 0-.4 7.8c-4.5-4-9.5-7.6-15.3-10.3 3 5.2 13 18.7 16.2 24.1l2.3-1.3 2.4-1s-6.1-9.2-4-11a44 44 0 0 0 12.3-18.6l2-5.6-.3-.2-1.6 3.1c-.4 0-.7.2-1 .3l.1.7Z\"/><path fill=\"#fff\" fill-opacity=\".5\" d=\"M69.9 39.5c1.8-2.3 4.3-4 7-5l-.3-.7-1.2.5a28 28 0 0 0-3.6-11l-10 .1 2.5-8.7a29 29 0 0 0-14-7.4c-5.3-.9-11.1.7-14.5 4.9A19.2 19.2 0 0 0 32.5 24a46.6 46.6 0 0 0 10.9 30c-.6 1.3-1.2 2.7-2 4.1l.5.2c.8-1.8 1.8-3.5 3.2-4.8a9.7 9.7 0 0 1 15.2 2.9h.3a44.6 44.6 0 0 1 9-17.2l.3.3Z\"/><path fill=\"#fff\" fill-opacity=\".5\" d=\"M96.3 30.8c-6.6-.5-13.4.5-19.7 3l.3.7c2.3-1 5-1.5 7.5-1.6a44 44 0 0 1 17 3.4c12.5 4.7 24.1 11.4 36.7 15.8a60 60 0 0 0 26.8 4c4.2-.4 8.3-1.3 12.2-3l.1.2a55.6 55.6 0 0 0 17.3-13.1c.9-1 1.8-2.2 2.1-3.6.5-2.3-.8-4.7-2.5-6.5-3.6-4-8.7-6.6-14.2-6.7-5.8 2.7-11.8 5.1-17.6 7.5 0-3.3-.2-6.6 0-10-6.2-.6-12.3.7-18.2 2.7l-5.7 2-2.1 1c-8.4 3.3-16.8 7-25.8 7.6a46 46 0 0 0-14.2-3.4Z\"/><path class=\"shamanColor2\" d=\"m131.8 63-4.2 4.4a93.2 93.2 0 0 0 5.8 3.2l2-5.2.9-5.2-4.5 2.9Z\"/><path fill=\"#000\" fill-opacity=\".2\" d=\"m131.8 63-4.2 4.4 3 1.6 2.8 1.6 2-5.2.9-5.2-4.5 2.9Z\"/><path class=\"hwStr1\" stroke-width=\"4\" d=\"M96.3 30.8a46 46 0 0 1 14.2 3.4c9-.6 17.4-4.3 25.8-7.7l2.1-.8 5.7-2c6-2 12-3.4 18.3-2.9a116 116 0 0 0-.1 10c5.8-2.3 11.8-4.7 17.6-7.4 5.5.1 10.6 2.7 14.2 6.7 1.7 1.8 3 4.2 2.5 6.5a8.4 8.4 0 0 1-2.1 3.6 55.6 55.6 0 0 1-28 17l1.6 3.2c8.2-.3 16.2-1.9 23.8-4.8-5 4.8-11.2 8.2-17.7 10m0 0-1.2.4a41.4 41.4 0 0 1 1.2-.3Zm0 0a44 44 0 0 1 26.4 3.3 34 34 0 0 1 19 24.4 37.1 37.1 0 0 0-43-19.7h-.3l1.6.8a30 30 0 0 1 17 21.7c-2.3 0-4.6.1-7.2.7 1.4 7.5-.1 15.6-5 22.6-2.5-1-5-1.8-8.2-2a34 34 0 0 1 2 12.2 37.9 37.9 0 0 1-6.7 6 14.2 14.2 0 0 1-8.5 2.7c-3.9-.2-7.4-2.5-9.8-5.5-2.5-3-4-6.6-5.9-10.3 1-3.3 3-6.4 5.3-8.8-3.3-.1-6.5-.3-9.6-.1a61 61 0 0 0 .8-30.6\"/><path class=\"hwStr1\" stroke-width=\"4\" d=\"M27.5 96.5C17.8 105 15 113.7 18.2 124a17 17 0 0 1-9-17.5c1-6.8 11.4-9 18.3-10Zm0 0S13.7 76.9 10.6 71.7c5.8 2.7 10.9 5 15.3 10.3a25 25 0 0 1 2.2-12.9c-5-12.5-11.7-24-19.8-34.3A66.7 66.7 0 0 1 33.8 63c1.8-.6 3.4-1.2 5-1.6l1.1-.3a54 54 0 0 0 3.5-7.2 46.6 46.6 0 0 1-10.9-30c0-4.1.8-8.5 3.3-11.8 3.4-4.2 9.2-5.8 14.5-5a29 29 0 0 1 14 7.5L62 23.4h10c2 3.4 3.1 7 3.5 10.9a44.4 44.4 0 0 1 21-3.5\"/><path class=\"hwStr1\" stroke-width=\"4\" d=\"M74.4 100.3a50.8 50.8 0 0 1-12.9-18.9 43 43 0 0 1 8.1-42.2c1.5-1.7 3.1-3.3 4.9-4.8M64.4 88.3 60 94.4m.6-15.6-8.5 13m72.4-24c6.3-6.1 11.5-11 20-13.3M166 82.6a7.4 7.4 0 0 1 2.4-8.3 8.9 8.9 0 0 1 9.5 0\"/><path class=\"hwStr1\" stroke-width=\"4\" d=\"M138.5 76a16.3 16.3 0 0 1 15.8-4.8A17 17 0 0 1 165.8 82\"/><path class=\"hwStr1\" stroke-width=\"3\" d=\"M177.1 53.1c-4 1.7-8 2.6-12.2 3a60 60 0 0 1-26.8-4c-12.6-4.4-24.2-11-36.7-15.8a44 44 0 0 0-17-3.4 21 21 0 0 0-7.5 1.6 17.5 17.5 0 0 0-7.7 5.9m26.5-9.8.6.2h0c8.8 3 17.6 6 26.7 7 9.4 1 19.3-.1 27.4-5.1m17 72a94 94 0 0 0-.5-14.6c-.4-3.1-1-6.2-2-9a14.5 14.5 0 0 0-5.9-7m8.4 30.7a125 125 0 0 1 0 0Zm0 0v-.1\"/><path class=\"hwStr1\" stroke-width=\"3\" d=\"M166.3 77c1.3 9.3 1.6 18.6 1 27.7m11.3-4.8-3.3-3M182 89c-1.9-1.5-4-2.7-6.3-3.5m-16.8 9.3-5.6 3m4.5-16.2a15 15 0 0 0-7.4 2.6m8-12a59 59 0 0 1 14.8-5.7m-5.2.8a18 18 0 0 0-3-10.3m-11.3 7.6A33 33 0 0 0 138.4 76v.1a53.3 53.3 0 0 0 6-20.3m-10.8 17.4a82 82 0 0 0 4.9-16.2m5.2-34.4A31.3 31.3 0 0 0 137.4 7l-.2-.2m1 18.2a63 63 0 0 0-1-18M105 66a48.6 48.6 0 0 1 14.9-21M81.5 78.3a56.4 56.4 0 0 1 9-45m-28 16.8a395.3 395.3 0 0 1-14.7-27m17.7 8-2 4.1m-2.9-7L59.2 31m-8.5 13.2-5.4.7m2-6.8-5-.6M27.5 82.4A44.3 44.3 0 0 0 39.8 64l2-5.6c.9-1.8 1.9-3.5 3.3-4.8a9.7 9.7 0 0 1 15.2 2.9m-32.7 26c5.1-2.1 10.9-2 16.5-2.4 2-.2 4.2-.4 6.3-1 3.4-.8 6.6-2.2 9-4.7\"/><path class=\"hwStr1\" stroke-width=\"4\" d=\"M44.2 92c-1.5-3.8-2.6-6.8-4.4-11\"/><path class=\"hwStr1\" stroke-width=\"3\" d=\"M26.6 74.3A18 18 0 0 1 39 62.2\"/><path class=\"hwStr1\" stroke-width=\"4\" d=\"M31.8 82.6 35.2 93\"/><path class=\"hwStr1\" stroke-width=\"3\" d=\"M33.2 93.5a122 122 0 0 0-8-11.8m151.6-68.9a3.7 3.7 0 1 1 0-7.4 3.7 3.7 0 0 1 0 7.4Zm34.6 46.5a5.1 5.1 0 1 1 0-10.3 5.1 5.1 0 0 1 0 10.3Zm-91.1-40.6a3.6 3.6 0 1 0-7.1 0 3.6 3.6 0 0 0 7.1 0ZM10 86.3a3.8 3.8 0 1 0-7.6 0 3.8 3.8 0 0 0 7.6 0Z\"/><path class=\"shamanColor1\" d=\"M78.8 59.6c2.6-1.7 6.2-.6 8.3 1.6 2.2 2.2 3.2 5.2 4.1 8.1.3 0 .5-.2.8-.3a55 55 0 0 0-6 14.8c-1.9.7-3 1.5-4.3 2-1.4.5-3 .5-4.4-.2a4.7 4.7 0 0 1-2.3-4.1 7 7 0 0 1 1.8-4.5c1.1-1.2 2.5-2.1 4-2.9-2-2.2-3.7-4.5-4.3-7.2-.7-2.6 0-5.8 2.3-7.3Z\"/><path class=\"shamanColor1\" d=\"M98.7 67.1a7 7 0 0 1 6.4 2.9c1.5 2.4.6 5.9-1.6 7.9a11 11 0 0 1-8 2.5c0 2 .6 3.8.3 5.7-.2 1.8-1.4 3.6-3.2 4-1.6.2-3.3-.7-4.2-2-1-1.3-1.4-3-1.9-4.5l-.6.2A55 55 0 0 1 92 69c2.5-.8 4.5-1.7 6.8-1.9Z\"/><path class=\"hwStr1\" stroke-width=\"4\" d=\"m85.4 86.3.5-2.5A55 55 0 0 1 93 67.3\"/><path class=\"hwStr1\" stroke-width=\"3.5\" d=\"m92 69-.8.3c-1-2.9-2-6-4-8.1-2.2-2.2-5.8-3.3-8.4-1.6-2.3 1.5-3 4.7-2.3 7.3.6 2.7 2.3 5 4.3 7.2-1.5.8-2.9 1.7-4 3a7 7 0 0 0-1.8 4.4c0 1.6.8 3.3 2.3 4.1 1.3.7 3 .7 4.4.1 1.3-.4 2.4-1.2 4.2-1.9l.6-.2c.5 1.6 1 3.2 1.9 4.5 1 1.3 2.6 2.2 4.2 2 1.8-.4 3-2.2 3.2-4 .3-1.9-.2-3.7-.4-5.7 3 0 6-.6 8.1-2.5 2.2-2 3-5.5 1.6-8-1.3-2-4-3-6.4-2.8-2.3.2-4.3 1.1-6.7 2Z\"/><path class=\"hwStr1\" stroke-width=\"3\" d=\"m90.6 57.7 1.7 9.6m7.7-6.6-7.1 6.2\"/></svg>'\n            ),\n            Headwear.HeadwearVariants.SHAMAN,\n            _getHeadwearColor(shamanColor)\n        );\n    }\n\n    function _getShamanStyle(ShamanColors shamanColor) internal pure returns (string memory) {\n        (string memory primaryColor, string memory secondaryColor) = _getShamanColor(shamanColor);\n        return\n            string.concat(\n                '<style>.shamanColor1 { fill:',\n                primaryColor,\n                '}.shamanColor2 { fill:',\n                secondaryColor,\n                '}.hwStr1 {stroke: #000;stroke-linecap: round;stroke-linejoin: round;}</style>'\n            );\n    }\n\n    function _getShamanColor(ShamanColors shamanColor) internal pure returns (string memory, string memory) {\n        if (shamanColor == ShamanColors.GREEN) {\n            return (EduxColors.lightGreen, EduxColors.baseGreen);\n        } else if (shamanColor == ShamanColors.PURPLE) {\n            return (EduxColors.lightPurple, EduxColors.basePurple);\n        } else if (shamanColor == ShamanColors.BLUE) {\n            return (EduxColors.lightBlue, EduxColors.baseBlue);\n        } else if (shamanColor == ShamanColors.PINK) {\n            return (EduxColors.lightPink, EduxColors.basePink);\n        } else if (shamanColor == ShamanColors.GOLD) {\n            return (EduxColors.lightGold, EduxColors.baseGold);\n        } else {\n            revert(); // Avoid warnings.\n        }\n    }\n\n    function _getHeadwearColor(ShamanColors shamanColor) internal pure returns (Headwear.HeadwearColors) {\n        if (shamanColor == ShamanColors.GREEN) {\n            return Headwear.HeadwearColors.GREEN;\n        } else if (shamanColor == ShamanColors.PURPLE) {\n            return Headwear.HeadwearColors.PURPLE;\n        } else if (shamanColor == ShamanColors.BLUE) {\n            return Headwear.HeadwearColors.BLUE;\n        } else if (shamanColor == ShamanColors.PINK) {\n            return Headwear.HeadwearColors.PINK;\n        } else if (shamanColor == ShamanColors.GOLD) {\n            return Headwear.HeadwearColors.GOLD;\n        } else {\n            revert(); // Avoid warnings.\n        }\n    }\n}\n",
  "sourcePath": "E:\\Blockchain\\EDUIndex\\EduxContract\\contracts\\libraries\\svgs\\Profile\\Headwear\\HeadwearShaman.sol",
  "compiler": {
    "name": "solc",
    "version": "0.8.20+commit.a1b79de6.Emscripten.clang"
  },
  "schemaVersion": "3.4.3",
  "updatedAt": "2024-08-25T13:13:21.984Z",
  "devdoc": {
    "kind": "dev",
    "methods": {},
    "version": 1
  },
  "userdoc": {
    "kind": "user",
    "methods": {},
    "version": 1
  }
}