{
  "contractName": "HeadwearPlants",
  "abi": [
    {
      "inputs": [
        {
          "internalType": "enum HeadwearPlants.PlantsColors",
          "name": "plantsColor",
          "type": "HeadwearPlants.PlantsColors"
        }
      ],
      "name": "getPlants",
      "outputs": [
        {
          "internalType": "string",
          "name": "",
          "type": "string"
        },
        {
          "internalType": "enum Headwear.HeadwearVariants",
          "name": "",
          "type": "Headwear.HeadwearVariants"
        },
        {
          "internalType": "enum Headwear.HeadwearColors",
          "name": "",
          "type": "Headwear.HeadwearColors"
        }
      ],
      "stateMutability": "pure",
      "type": "function"
    }
  ],
  "bytecode": "0x611acc61004e600b8282823980515f1a607314610042577f4e487b71000000000000000000000000000000000000000000000000000000005f525f60045260245ffd5b305f52607381538281f3fe7300000000000000000000000000000000000000003014608060405260043610610034575f3560e01c8063fa3acc1814610038575b5f80fd5b610052600480360381019061004d919061042d565b61006a565b6040516100619392919061059b565b60405180910390f35b60605f80610077846100ae565b60405160200161008791906118e6565b60405160208183030381529060405260036100a1866100df565b9250925092509193909250565b60606100b9826101f0565b6040516020016100c99190611a66565b6040516020818303038152906040529050919050565b5f8060048111156100f3576100f26104e2565b5b826004811115610106576101056104e2565b5b0361011457600190506101eb565b60016004811115610128576101276104e2565b5b82600481111561013b5761013a6104e2565b5b0361014957600490506101eb565b6003600481111561015d5761015c6104e2565b5b8260048111156101705761016f6104e2565b5b0361017e57600290506101eb565b60026004811115610192576101916104e2565b5b8260048111156101a5576101a46104e2565b5b036101b357600390506101eb565b6004808111156101c6576101c56104e2565b5b8260048111156101d9576101d86104e2565b5b036101e757600590506101eb565b5f80fd5b919050565b60605f6004811115610205576102046104e2565b5b826004811115610218576102176104e2565b5b0361025a576040518060400160405280600781526020017f23413044313730000000000000000000000000000000000000000000000000008152509050610401565b6001600481111561026e5761026d6104e2565b5b826004811115610281576102806104e2565b5b036102c3576040518060400160405280600781526020017f23464644324444000000000000000000000000000000000000000000000000008152509050610401565b600360048111156102d7576102d66104e2565b5b8260048111156102ea576102e96104e2565b5b0361032c576040518060400160405280600781526020017f23454144374646000000000000000000000000000000000000000000000000008152509050610401565b600260048111156103405761033f6104e2565b5b826004811115610353576103526104e2565b5b03610395576040518060400160405280600781526020017f23443945304646000000000000000000000000000000000000000000000000008152509050610401565b6004808111156103a8576103a76104e2565b5b8260048111156103bb576103ba6104e2565b5b036103fd576040518060400160405280600781526020017f23463843393434000000000000000000000000000000000000000000000000008152509050610401565b5f80fd5b919050565b5f80fd5b60058110610416575f80fd5b50565b5f813590506104278161040a565b92915050565b5f6020828403121561044257610441610406565b5b5f61044f84828501610419565b91505092915050565b5f81519050919050565b5f82825260208201905092915050565b5f5b8381101561048f578082015181840152602081019050610474565b5f8484015250505050565b5f601f19601f8301169050919050565b5f6104b482610458565b6104be8185610462565b93506104ce818560208601610472565b6104d78161049a565b840191505092915050565b7f4e487b71000000000000000000000000000000000000000000000000000000005f52602160045260245ffd5b601681106105205761051f6104e2565b5b50565b5f8190506105308261050f565b919050565b5f61053f82610523565b9050919050565b61054f81610535565b82525050565b60068110610566576105656104e2565b5b50565b5f81905061057682610555565b919050565b5f61058582610569565b9050919050565b6105958161057b565b82525050565b5f6060820190508181035f8301526105b381866104aa565b90506105c26020830185610546565b6105cf604083018461058c565b949350505050565b5f81905092915050565b7f3c73766720786d6c6e733d22687474703a2f2f7777772e77332e6f72672f32305f8201527f30302f737667222077696474683d2232313022206865696768743d223333352260208201527f2066696c6c3d226e6f6e65223e00000000000000000000000000000000000000604082015250565b5f610661604d836105d7565b915061066c826105e1565b604d82019050919050565b5f61068182610458565b61068b81856105d7565b935061069b818560208601610472565b80840191505092915050565b7f3c7061746820636c6173733d22636f6c6f72312220643d226d36342e332038315f8201527f2031302e332d312e342d332e3420382e384c363920393676366c2d312e34203260208201527f2e362d362e3720322e312d392d312e332d362e362d332e3520322d342e35203660408201527f2d382e392031312d372e355a222f3e3c7061746820636c6173733d22636f6c6f60608201527f72322220643d224d35362e382031303668372e366c2d3120322e312d3220322d60808201527f332e3120312e352d3420312e37682d352e386c2d342e352d312e312d332e392d60a08201527f332e322d322e322d35202e362d322e3820312e362d312e32203420312e32203560c08201527f2e3520322e3220372e3220322e355a222f3e3c7061746820636c6173733d226360e08201527f6f6c6f72312220643d226d39362e332035392e3320322e3520372e3320362e326101008201527f2d312e32762d31326c2d322e332d352d342e362d342e332d342e382d342e362d6101208201527f372e312d332e372d382e322d312e35682d376c2d372e3420322e342d3820364c6101408201527f353120353076312e3968352e336c332e362d3120322e362d3420332e352d32206101608201527f352d312e352037202e3820372e3220322e3820362e3320342e3920342e3720376101808201527f2e355a222f3e3c7061746820636c6173733d22636f6c6f72322220643d226d376101a08201527f312e3820363420332e3620362e332d332e3620322e392d332e3720312d352e336101c08201527f2d312e37762d322e326c2d2e332d352e37762d31316c352e3220332e362034206101e08201527f362e395a6d2d32392e3420362d332e3620362e3220332e3620322e3820332e366102008201527f203120392e372d332e382d322d322e352d322d332e322d312e362d372e364c346102208201527f382035346c2d352e3620347631325a222f3e3c7061746820636c6173733d22636102408201527f6f6c6f72322220643d226d35302e312036332e342d312e352d382e3220332e366102608201527f2d322e3920332e372d3120342e3820332e3220322e3720332e322d2e372034566102808201527f37306c2d3220372e352d372e352d342e362d332e312d392e355a6d2d392e33206102a08201527f313020312e342d372e33762d332e396c2d2e372d352e322d352e31203876352e6102c08201527f376c2e3520312e3520332e3920312e325a222f3e3c7061746820636c6173733d6102e08201527f2268776c696e65342220643d224d39382e332036362e36632d312d362e312d336103008201527f2e372d31322d382d31362e344132332e372032332e372030203020302037332e6103208201527f35203433632d362e3220302d31302e3420332d31332e3920382e32222f3e3c706103408201527f61746820636c6173733d2268776c696e65342220643d224d3130342e382035336103608201527f2e31632d332e362d372d392e342d31332d31362e362d31362e336132392e35206103808201527f32392e352030203020302d32332d2e38632d372e3420332d31332e3320392e356103a08201527f2d31352031372e32222f3e3c7061746820636c6173733d2268776c696e6534226103c08201527f20643d224d35372e34203532632d322e362d312e332d36202e342d372e3320336103e08201527f2d312e3320322e362d3120352e382d2e3320382e366132382e332032382e33206104008201527f302030203020382e372031346c31202e35632e36203020312d2e3720312e332d6104208201527f312e3320342d382e3220342e312d32312d332e342d32342e3868305a4d3338206104408201527f37372e326131352e312031352e312030203020302031372d312e38222f3e3c706104608201527f61746820636c6173733d2268776c696e65342220643d224d35382e382035322e6104808201527f3663322e392d2e3720352e39203120372e3820332e3320312e3820322e3320326104a08201527f2e3820352e31203420372e3820312e3220322e3820322e3720352e3520352e316104c08201527f20372e322d3320332e342d382e3420342e342d31322e3420322e334d34392e326104e08201527f2035332e36632d322e352d2e332d352e3120312d362e3920322e392d312e38206105008201527f312e392d3320342e332d3420362e362d3120322e342d3220342e392d332e37206105208201527f362e3961392e3720392e37203020302030203420342e336d362e362032362e356105408201527f63332e332d352e3520362e372d31312031312e352d31352e3120342e382d342e6105608201527f322031322d362e352031382e332d352e36203020302d342e3320362e352d352e6105808201527f382031342e322d2e3820342e312d2e382031302e332d2e382031302e33222f3e6105a08201527f3c7061746820636c6173733d2268776c696e65342220643d224d36382e3420316105c08201527f30342e366132332e372032332e372030203020312d31342e322031632d332e386105e08201527f2d312e332d372e342d332e332d31312d352d312e352d2e382d332e342d312e346106008201527f2d342e382d2e342d31202e392d312e3120322e352d2e3920332e3861313220316106208201527f3220302030203020372e3620382e3663332e3720312e35203820312e322031316106408201527f2e372d2e3220332e372d312e3420392e332d342e372031312e362d372e385a226106608201527f2f3e3c7061746820636c6173733d2268776c696e65332220643d224d37342e346106808201527f2038304133352e322033352e322030203020302035382039372e346d2d382d346106a08201527f332e31632d332d2e362d3620322d372e3220352d312e3220322e392d3120362e6106c08201527f322d312e3320392e332d2e3320332e322d3120362e362d332e3620382e36222f6106e08201527f3e3c7061746820636c6173733d22636f6c6f72312220643d226d3134352e35206107008201527f38312d31302e342d312e3420332e3520382e3820322e3220372e3576366c312e6107208201527f3520322e3620362e3720322e3120392d312e3320362e352d332e352d322d342e6107408201527f352d362d382e392d31312d372e355a222f3e3c7061746820636c6173733d22636107608201527f6f6c6f72322220643d224d31353320313036682d372e366c3120322e312032206107808201527f3220332e3120312e35203420312e3768352e386c342e342d312e3120342d332e6107a08201527f3220322e312d352d2e362d322e382d312e362d312e322d332e3920312e322d356107c08201527f2e3520322e322d372e3320322e355a222f3e3c7061746820636c6173733d22636107e08201527f6f6c6f72312220643d226d3131332e352035392e332d322e3520372e332d362e6108008201527f322d312e32762d31326c322e332d3520342e362d342e3320342e372d342e36206108208201527f372e322d332e3720382e312d312e3568376c372e3520322e342038203620342e6108408201527f3520372e3276312e39682d352e336c2d332e372d312d322e362d342d332e342d6108608201527f322d352d312e352d37202e382d372e3220322e382d362e3320342e392d342e376108808201527f20372e355a222f3e3c7061746820636c6173733d22636f6c6f72322220643d226108a08201527f6d3133382036342d332e3620362e3320332e3620322e3920332e36203120352e6108c08201527f342d312e37762d322e326c2e332d352e37762d31316c2d352e3220332e362d346108e08201527f20362e395a6d32392e34203620332e3620362e322d332e3620322e382d332e376109008201527f20312d392e372d332e3820322e322d322e3520322d332e3220312e352d372e366109208201527f20322e312d382e3820352e3620345637305a222f3e3c7061746820636c6173736109408201527f3d22636f6c6f72322220643d226d3135392e372036332e3420312e352d382e326109608201527f2d332e372d322e392d332e362d312d342e3820332e322d322e3720332e322e376109808201527f20345637306c3220372e3520372e352d342e3620332d392e355a6d392e3320316109a08201527f302d312e342d372e33762d332e396c2e372d352e3220352e31203876352e376c6109c08201527f2d2e3620312e352d332e3820312e325a222f3e3c7061746820636c6173733d226109e08201527f68776c696e65342220643d224d3131312e352036362e3463312d362e3120332e610a008201527f372d31312e3820382d31362e326132332e372032332e37203020302031203136610a208201527f2e372d372e3163362e3220302031302e3420332031332e3920382e32222f3e3c610a408201527f7061746820636c6173733d2268776c696e65342220643d224d3130332e332035610a608201527f362e3563342d392e332031312e312d31362e342031382e332d31392e37613239610a808201527f2e352032392e352030203020312032332d2e3863372e3420332031332e332039610aa08201527f2e352031352031372e32222f3e3c7061746820636c6173733d2268776c696e65610ac08201527f342220643d224d3135322e3420353263322e362d312e332036202e3420372e33610ae08201527f203320312e3320322e36203120352e382e3320382e366132382e332032382e33610b008201527f2030203020312d382e38203134632d2e322e322d2e352e342d2e392e352d2e36610b208201527f20302d312d2e372d312e342d312e332d332e382d382e322d342d323120332e35610b408201527f2d32342e3868305a6d31392e352032352e326131352e312031352e3120302030610b608201527f20312d31372e332d312e38222f3e3c7061746820636c6173733d2268776c696e610b808201527f65342220643d224d3135312035322e36632d322e392d2e372d3620312d372e38610ba08201527f20332e332d312e3820322e332d322e3920352e312d3420372e384131352e3620610bc08201527f31352e3620302030203120313334203731633320332e3420382e3320342e3420610be08201527f31322e3420322e336d31342e322d31392e3763322e352d2e3320352e31203120610c008201527f362e3920322e3920312e3820312e3920322e3920342e33203420362e36203120610c208201527f322e34203220342e3920332e3720362e3961392e3720392e372030203020312d610c408201527f3420342e336d2d362e362032362e35632d332e332d352e352d362e372d31312d610c608201527f31312e352d31352e312d342e382d342e322d31322d362e352d31382e332d352e610c808201527f362030203020342e3220362e3520352e382031342e322e3820342e312e382031610ca08201527f302e332e382031302e33222f3e3c7061746820636c6173733d2268776c696e65610cc08201527f342220643d224d3134312e34203130342e366132332e372032332e3720302030610ce08201527f20302031342e32203163332e382d312e3320372e332d332e332031312d352031610d008201527f2e352d2e3820332e342d312e3420342e372d2e342031202e3920312e3220322e610d208201527f35203120332e386131322031322030203020312d372e3620382e36632d332e37610d408201527f20312e352d3820312e322d31312e372d2e326132392e332032392e3320302030610d608201527f20312d31312e362d372e385a222f3e3c7061746820636c6173733d2268776c69610d808201527f6e65332220643d224d3133352e342038306133352e322033352e322030203020610da08201527f312031362e342031372e346d372e392d34332e3163332e322d2e3620362e3120610dc08201527f3220372e33203520312e3120322e39203120362e3220312e3320392e332e3220610de08201527f332e32203120362e3620332e3620382e36222f3e3c706174682066696c6c3d22610e008201527f23303030222066696c6c2d6f7061636974793d222e312220643d226d3131312e610e208201527f3520363620312e392d38732d342e3820332e312d382e3420332e31632d332e36610e408201527f20302d382e342d332d382e342d336c312e3520386831332e345a222f3e3c7061610e608201527f746820636c6173733d2268776c696e65342220643d224d39382036362e357334610e808201527f2e322d2e3520372d2e3563322e36203020362e382e3520362e382e35222f3e3c610ea08201527f2f7376673e000000000000000000000000000000000000000000000000000000610ec082015250565b5f6118cf610ec5836105d7565b91506118da826106a7565b610ec582019050919050565b5f6118f082610655565b91506118fc8284610677565b9150611907826118c2565b915081905092915050565b7f3c7374796c653e2e636f6c6f7231207b2066696c6c3a20000000000000000000815250565b7f7d2e636f6c6f72327b66696c6c3a236666667d2e68776c696e6533207b7374725f8201527f6f6b653a20626c61636b3b207374726f6b652d6c696e656361703a20726f756e60208201527f643b207374726f6b652d6c696e656a6f696e3a20726f756e643b207374726f6b60408201527f652d77696474683a20337d2e68776c696e6534207b7374726f6b653a20626c6160608201527f636b3b207374726f6b652d6c696e656361703a20726f756e643b207374726f6b60808201527f652d6c696e656a6f696e3a20726f756e643b207374726f6b652d77696474683a60a08201527f20347d3c2f7374796c653e00000000000000000000000000000000000000000060c082015250565b5f611a5060cb836105d7565b9150611a5b82611938565b60cb82019050919050565b5f611a7082611912565b601782019150611a808284610677565b9150611a8b82611a44565b91508190509291505056fea26469706673582212202a2241c92c8d838ca4bd7a1bcfd33f7857260cea08b7b43aeadade7b083b3b3564736f6c63430008140033",
  "immutableReferences": {},
  "source": "// SPDX-License-Identifier: MIT\npragma solidity ^0.8.0;\n\nimport {Headwear} from '../Headwear.sol';\nimport {EduxColors} from '../EduxColors.sol';\n\nlibrary HeadwearPlants {\n    enum PlantsColors {\n        GREEN,\n        PINK,\n        BLUE,\n        PURPLE,\n        GOLD\n    }\n\n    // // we take the 16th byte from the left for plants color\n    // uint8 color = uint8((seed >> 128) & 0xFF) % 3;\n    function getPlants(\n        PlantsColors plantsColor\n    ) external pure returns (string memory, Headwear.HeadwearVariants, Headwear.HeadwearColors) {\n        // plants (4 colors: green, purple, blue, gold)\n        return (\n            string.concat(\n                '<svg xmlns=\"http://www.w3.org/2000/svg\" width=\"210\" height=\"335\" fill=\"none\">',\n                _getPlantsStyle(plantsColor),\n                '<path class=\"color1\" d=\"m64.3 81 10.3-1.4-3.4 8.8L69 96v6l-1.4 2.6-6.7 2.1-9-1.3-6.6-3.5 2-4.5 6-8.9 11-7.5Z\"/><path class=\"color2\" d=\"M56.8 106h7.6l-1 2.1-2 2-3.1 1.5-4 1.7h-5.8l-4.5-1.1-3.9-3.2-2.2-5 .6-2.8 1.6-1.2 4 1.2 5.5 2.2 7.2 2.5Z\"/><path class=\"color1\" d=\"m96.3 59.3 2.5 7.3 6.2-1.2v-12l-2.3-5-4.6-4.3-4.8-4.6-7.1-3.7-8.2-1.5h-7l-7.4 2.4-8 6L51 50v1.9h5.3l3.6-1 2.6-4 3.5-2 5-1.5 7 .8 7.2 2.8 6.3 4.9 4.7 7.5Z\"/><path class=\"color2\" d=\"m71.8 64 3.6 6.3-3.6 2.9-3.7 1-5.3-1.7v-2.2l-.3-5.7v-11l5.2 3.6 4 6.9Zm-29.4 6-3.6 6.2 3.6 2.8 3.6 1 9.7-3.8-2-2.5-2-3.2-1.6-7.6L48 54l-5.6 4v12Z\"/><path class=\"color2\" d=\"m50.1 63.4-1.5-8.2 3.6-2.9 3.7-1 4.8 3.2 2.7 3.2-.7 4V70l-2 7.5-7.5-4.6-3.1-9.5Zm-9.3 10 1.4-7.3v-3.9l-.7-5.2-5.1 8v5.7l.5 1.5 3.9 1.2Z\"/><path class=\"hwline4\" d=\"M98.3 66.6c-1-6.1-3.7-12-8-16.4A23.7 23.7 0 0 0 73.5 43c-6.2 0-10.4 3-13.9 8.2\"/><path class=\"hwline4\" d=\"M104.8 53.1c-3.6-7-9.4-13-16.6-16.3a29.5 29.5 0 0 0-23-.8c-7.4 3-13.3 9.5-15 17.2\"/><path class=\"hwline4\" d=\"M57.4 52c-2.6-1.3-6 .4-7.3 3-1.3 2.6-1 5.8-.3 8.6a28.3 28.3 0 0 0 8.7 14l1 .5c.6 0 1-.7 1.3-1.3 4-8.2 4.1-21-3.4-24.8h0ZM38 77.2a15.1 15.1 0 0 0 17-1.8\"/><path class=\"hwline4\" d=\"M58.8 52.6c2.9-.7 5.9 1 7.8 3.3 1.8 2.3 2.8 5.1 4 7.8 1.2 2.8 2.7 5.5 5.1 7.2-3 3.4-8.4 4.4-12.4 2.3M49.2 53.6c-2.5-.3-5.1 1-6.9 2.9-1.8 1.9-3 4.3-4 6.6-1 2.4-2 4.9-3.7 6.9a9.7 9.7 0 0 0 4 4.3m6.6 26.5c3.3-5.5 6.7-11 11.5-15.1 4.8-4.2 12-6.5 18.3-5.6 0 0-4.3 6.5-5.8 14.2-.8 4.1-.8 10.3-.8 10.3\"/><path class=\"hwline4\" d=\"M68.4 104.6a23.7 23.7 0 0 1-14.2 1c-3.8-1.3-7.4-3.3-11-5-1.5-.8-3.4-1.4-4.8-.4-1 .9-1.1 2.5-.9 3.8a12 12 0 0 0 7.6 8.6c3.7 1.5 8 1.2 11.7-.2 3.7-1.4 9.3-4.7 11.6-7.8Z\"/><path class=\"hwline3\" d=\"M74.4 80A35.2 35.2 0 0 0 58 97.4m-8-43.1c-3-.6-6 2-7.2 5-1.2 2.9-1 6.2-1.3 9.3-.3 3.2-1 6.6-3.6 8.6\"/><path class=\"color1\" d=\"m145.5 81-10.4-1.4 3.5 8.8 2.2 7.5v6l1.5 2.6 6.7 2.1 9-1.3 6.5-3.5-2-4.5-6-8.9-11-7.5Z\"/><path class=\"color2\" d=\"M153 106h-7.6l1 2.1 2 2 3.1 1.5 4 1.7h5.8l4.4-1.1 4-3.2 2.1-5-.6-2.8-1.6-1.2-3.9 1.2-5.5 2.2-7.3 2.5Z\"/><path class=\"color1\" d=\"m113.5 59.3-2.5 7.3-6.2-1.2v-12l2.3-5 4.6-4.3 4.7-4.6 7.2-3.7 8.1-1.5h7l7.5 2.4 8 6 4.5 7.2v1.9h-5.3l-3.7-1-2.6-4-3.4-2-5-1.5-7 .8-7.2 2.8-6.3 4.9-4.7 7.5Z\"/><path class=\"color2\" d=\"m138 64-3.6 6.3 3.6 2.9 3.6 1 5.4-1.7v-2.2l.3-5.7v-11l-5.2 3.6-4 6.9Zm29.4 6 3.6 6.2-3.6 2.8-3.7 1-9.7-3.8 2.2-2.5 2-3.2 1.5-7.6 2.1-8.8 5.6 4V70Z\"/><path class=\"color2\" d=\"m159.7 63.4 1.5-8.2-3.7-2.9-3.6-1-4.8 3.2-2.7 3.2.7 4V70l2 7.5 7.5-4.6 3-9.5Zm9.3 10-1.4-7.3v-3.9l.7-5.2 5.1 8v5.7l-.6 1.5-3.8 1.2Z\"/><path class=\"hwline4\" d=\"M111.5 66.4c1-6.1 3.7-11.8 8-16.2a23.7 23.7 0 0 1 16.7-7.1c6.2 0 10.4 3 13.9 8.2\"/><path class=\"hwline4\" d=\"M103.3 56.5c4-9.3 11.1-16.4 18.3-19.7a29.5 29.5 0 0 1 23-.8c7.4 3 13.3 9.5 15 17.2\"/><path class=\"hwline4\" d=\"M152.4 52c2.6-1.3 6 .4 7.3 3 1.3 2.6 1 5.8.3 8.6a28.3 28.3 0 0 1-8.8 14c-.2.2-.5.4-.9.5-.6 0-1-.7-1.4-1.3-3.8-8.2-4-21 3.5-24.8h0Zm19.5 25.2a15.1 15.1 0 0 1-17.3-1.8\"/><path class=\"hwline4\" d=\"M151 52.6c-2.9-.7-6 1-7.8 3.3-1.8 2.3-2.9 5.1-4 7.8A15.6 15.6 0 0 1 134 71c3 3.4 8.3 4.4 12.4 2.3m14.2-19.7c2.5-.3 5.1 1 6.9 2.9 1.8 1.9 2.9 4.3 4 6.6 1 2.4 2 4.9 3.7 6.9a9.7 9.7 0 0 1-4 4.3m-6.6 26.5c-3.3-5.5-6.7-11-11.5-15.1-4.8-4.2-12-6.5-18.3-5.6 0 0 4.2 6.5 5.8 14.2.8 4.1.8 10.3.8 10.3\"/><path class=\"hwline4\" d=\"M141.4 104.6a23.7 23.7 0 0 0 14.2 1c3.8-1.3 7.3-3.3 11-5 1.5-.8 3.4-1.4 4.7-.4 1 .9 1.2 2.5 1 3.8a12 12 0 0 1-7.6 8.6c-3.7 1.5-8 1.2-11.7-.2a29.3 29.3 0 0 1-11.6-7.8Z\"/><path class=\"hwline3\" d=\"M135.4 80a35.2 35.2 0 0 1 16.4 17.4m7.9-43.1c3.2-.6 6.1 2 7.3 5 1.1 2.9 1 6.2 1.3 9.3.2 3.2 1 6.6 3.6 8.6\"/><path fill=\"#000\" fill-opacity=\".1\" d=\"m111.5 66 1.9-8s-4.8 3.1-8.4 3.1c-3.6 0-8.4-3-8.4-3l1.5 8h13.4Z\"/><path class=\"hwline4\" d=\"M98 66.5s4.2-.5 7-.5c2.6 0 6.8.5 6.8.5\"/></svg>'\n            ),\n            Headwear.HeadwearVariants.PLANTS,\n            _getHeadwearColor(plantsColor)\n        );\n    }\n\n    function _getPlantsStyle(PlantsColors plantsColor) internal pure returns (string memory) {\n        return\n            string.concat(\n                '<style>.color1 { fill: ',\n                _getPlantsColor(plantsColor),\n                '}.color2{fill:#fff}.hwline3 {stroke: black; stroke-linecap: round; stroke-linejoin: round; stroke-width: 3}.hwline4 {stroke: black; stroke-linecap: round; stroke-linejoin: round; stroke-width: 4}</style>'\n            );\n    }\n\n    function _getPlantsColor(PlantsColors plantsColor) internal pure returns (string memory) {\n        if (plantsColor == PlantsColors.GREEN) {\n            return EduxColors.baseGreen;\n        } else if (plantsColor == PlantsColors.PINK) {\n            return EduxColors.basePink;\n        } else if (plantsColor == PlantsColors.PURPLE) {\n            return EduxColors.basePurple;\n        } else if (plantsColor == PlantsColors.BLUE) {\n            return EduxColors.baseBlue;\n        } else if (plantsColor == PlantsColors.GOLD) {\n            return EduxColors.baseGold;\n        } else {\n            revert(); // Avoid warnings.\n        }\n    }\n\n    function _getHeadwearColor(PlantsColors plantsColor) internal pure returns (Headwear.HeadwearColors) {\n        if (plantsColor == PlantsColors.GREEN) {\n            return Headwear.HeadwearColors.GREEN;\n        } else if (plantsColor == PlantsColors.PINK) {\n            return Headwear.HeadwearColors.PINK;\n        } else if (plantsColor == PlantsColors.PURPLE) {\n            return Headwear.HeadwearColors.PURPLE;\n        } else if (plantsColor == PlantsColors.BLUE) {\n            return Headwear.HeadwearColors.BLUE;\n        } else if (plantsColor == PlantsColors.GOLD) {\n            return Headwear.HeadwearColors.GOLD;\n        } else {\n            revert(); // Avoid warnings.\n        }\n    }\n}\n",
  "sourcePath": "E:\\Blockchain\\EDUIndex\\EduxContract\\contracts\\libraries\\svgs\\Profile\\Headwear\\HeadwearPlants.sol",
  "compiler": {
    "name": "solc",
    "version": "0.8.20+commit.a1b79de6.Emscripten.clang"
  },
  "schemaVersion": "3.4.3",
  "updatedAt": "2024-08-25T13:13:21.950Z",
  "devdoc": {
    "kind": "dev",
    "methods": {},
    "version": 1
  },
  "userdoc": {
    "kind": "user",
    "methods": {},
    "version": 1
  }
}