{
  "contractName": "HeadwearMushroom",
  "abi": [
    {
      "inputs": [
        {
          "internalType": "enum HeadwearMushroom.MushroomColors",
          "name": "mushroomColor",
          "type": "HeadwearMushroom.MushroomColors"
        }
      ],
      "name": "getMushroom",
      "outputs": [
        {
          "internalType": "string",
          "name": "",
          "type": "string"
        },
        {
          "internalType": "enum Headwear.HeadwearVariants",
          "name": "",
          "type": "Headwear.HeadwearVariants"
        },
        {
          "internalType": "enum Headwear.HeadwearColors",
          "name": "",
          "type": "Headwear.HeadwearColors"
        }
      ],
      "stateMutability": "pure",
      "type": "function"
    }
  ],
  "bytecode": "0x61216a61004e600b8282823980515f1a607314610042577f4e487b71000000000000000000000000000000000000000000000000000000005f525f60045260245ffd5b305f52607381538281f3fe7300000000000000000000000000000000000000003014608060405260043610610034575f3560e01c806345e2836f14610038575b5f80fd5b610052600480360381019061004d919061067f565b61006a565b604051610061939291906107ed565b60405180910390f35b60605f80610077846100ae565b6040516020016100879190611f7c565b60405160208183030381529060405260086100a1866100ff565b9250925092509193909250565b60605f806100bb84610210565b915091505f806100ca8661053f565b91509150838383836040516020016100e594939291906120b0565b604051602081830303815290604052945050505050919050565b5f80600481111561011357610112610734565b5b82600481111561012657610125610734565b5b03610134576001905061020b565b6001600481111561014857610147610734565b5b82600481111561015b5761015a610734565b5b03610169576002905061020b565b6002600481111561017d5761017c610734565b5b8260048111156101905761018f610734565b5b0361019e576003905061020b565b600360048111156101b2576101b1610734565b5b8260048111156101c5576101c4610734565b5b036101d3576004905061020b565b6004808111156101e6576101e5610734565b5b8260048111156101f9576101f8610734565b5b03610207576005905061020b565b5f80fd5b919050565b6060805f600481111561022657610225610734565b5b83600481111561023957610238610734565b5b036102b3576040518060400160405280600781526020017f23463446464443000000000000000000000000000000000000000000000000008152506040518060400160405280600781526020017f23413044313730000000000000000000000000000000000000000000000000008152509150915061053a565b600160048111156102c7576102c6610734565b5b8360048111156102da576102d9610734565b5b03610354576040518060400160405280600781526020017f23463345414646000000000000000000000000000000000000000000000000008152506040518060400160405280600781526020017f23454144374646000000000000000000000000000000000000000000000000008152509150915061053a565b6002600481111561036857610367610734565b5b83600481111561037b5761037a610734565b5b036103f5576040518060400160405280600781526020017f23454346304646000000000000000000000000000000000000000000000000008152506040518060400160405280600781526020017f23443945304646000000000000000000000000000000000000000000000000008152509150915061053a565b6003600481111561040957610408610734565b5b83600481111561041c5761041b610734565b5b03610496576040518060400160405280600781526020017f23464645374630000000000000000000000000000000000000000000000000008152506040518060400160405280600781526020017f23464644324444000000000000000000000000000000000000000000000000008152509150915061053a565b6004808111156104a9576104a8610734565b5b8360048111156104bc576104bb610734565b5b03610536576040518060400160405280600781526020017f23464645453933000000000000000000000000000000000000000000000000008152506040518060400160405280600781526020017f23463843393434000000000000000000000000000000000000000000000000008152509150915061053a565b5f80fd5b915091565b60608060048081111561055557610554610734565b5b83600481111561056857610567610734565b5b036105e2576040518060400160405280600481526020017f23464646000000000000000000000000000000000000000000000000000000008152506040518060400160405280600781526020017f234239363332360000000000000000000000000000000000000000000000000081525091509150610653565b6040518060400160405280600481526020017f23464646000000000000000000000000000000000000000000000000000000008152506040518060400160405280600481526020017f2330303000000000000000000000000000000000000000000000000000000000815250915091505b915091565b5f80fd5b60058110610668575f80fd5b50565b5f813590506106798161065c565b92915050565b5f6020828403121561069457610693610658565b5b5f6106a18482850161066b565b91505092915050565b5f81519050919050565b5f82825260208201905092915050565b5f5b838110156106e15780820151818401526020810190506106c6565b5f8484015250505050565b5f601f19601f8301169050919050565b5f610706826106aa565b61071081856106b4565b93506107208185602086016106c4565b610729816106ec565b840191505092915050565b7f4e487b71000000000000000000000000000000000000000000000000000000005f52602160045260245ffd5b6016811061077257610771610734565b5b50565b5f81905061078282610761565b919050565b5f61079182610775565b9050919050565b6107a181610787565b82525050565b600681106107b8576107b7610734565b5b50565b5f8190506107c8826107a7565b919050565b5f6107d7826107bb565b9050919050565b6107e7816107cd565b82525050565b5f6060820190508181035f83015261080581866106fc565b90506108146020830185610798565b61082160408301846107de565b949350505050565b5f81905092915050565b7f3c73766720786d6c6e733d22687474703a2f2f7777772e77332e6f72672f32305f8201527f30302f737667222077696474683d2232313122206865696768743d223333352260208201527f2066696c6c3d226e6f6e65223e00000000000000000000000000000000000000604082015250565b5f6108b3604d83610829565b91506108be82610833565b604d82019050919050565b5f6108d3826106aa565b6108dd8185610829565b93506108ed8185602086016106c4565b80840191505092915050565b7f3c7061746820636c6173733d226d757368726f6f6d537061726b6c65732220735f8201527f74726f6b652d77696474683d22332220643d224d392e342034362e3161342e3460208201527f20342e34203020312031203020382e3920342e3420342e34203020302031203060408201527f2d382e395a222f3e3c7061746820636c6173733d226d757368726f6f6d53706160608201527f726b6c657322207374726f6b652d77696474683d22332e352220643d224d333360808201527f2e342033322e336138203820302030203020342e3420332e332031322031322060a08201527f30203020302d372e3620382e372031322031322030203020302d372e322d396360c08201527f332e382d312e3320362e382d342e3520372e392d382e3361323020323020302060e08201527f30203020322e3520352e335a222f3e3c7061746820636c6173733d226d7573686101008201527f726f6f6d537061726b6c657322207374726f6b652d77696474683d22332220646101208201527f3d224d3137382e362032332e3461342e3420342e34203020312031203020382e6101408201527f3720342e3420342e3420302030203120302d382e375a222f3e3c7061746820636101608201527f6c6173733d226d757368726f6f6d537061726b6c657322207374726f6b652d776101808201527f696474683d22332e352220643d224d3139332033392e36633120352e3120342e6101a08201527f3820392e3320392e362031302e352d3520312e332d392e3120362d392e3720316101c08201527f312e326131342031342030203020302d392e392d31312e3263342e382d312e366101e08201527f20382e362d352e372031302d31302e355a222f3e3c7061746820636c6173733d6102008201527f226d757368726f6f6d537061726b6c657322207374726f6b652d77696474683d6102208201527f2233222020643d224d3134382e32203661352e3720352e3720302031203120306102408201527f2031312e3520352e3720352e3720302030203120302d31312e355a222f3e3c706102608201527f61746820636c6173733d226d757368726f6f6d436f6c6f72312220643d224d316102808201527f30352e352036332e36613339332e37203339332e372030203020302d32312e376102a08201527f2e37632d35202e342d392e3720312d31352e3120312e386c2d312e332e3261316102c08201527f33382e32203133382e322030203020302d32362e3420372031362031362030206102e08201527f30203020322d31342e3463322d322e3320342e332d342e3620362e372d362e366103008201527f6c312d2e3963342e382d342031302e362d372e352031372e332d3130613939206103208201527f39392030203020312033332e342d362e33762e346132312032312030203020306103408201527f2032372e3820322e33762d2e366138342038342030203020312031332e3220336103608201527f2e386c2e332e372d2e372e33632d312e3220322e372e38203820382e382031326103808201527f2e3820372e3720342e372031312e3420342e372031352e3420322e33762d2e326103a08201527f613437203437203020302031203133203233632d312d322e322d342d342e322d6103c08201527f372e382d366138322e332038322e332030203020302d31332e352d342e3720316103e08201527f33392e36203133392e362030203020302d31352d3320323237203232372030206104008201527f3020302d33372e332d322e365637342036332e365a6d31392e382d382e38632e6104208201527f342d312e342d2e342d322e392d312e362d332e3861372e3720372e37203020306104408201527f20302d362e342d312e33632d312e322e332d322e3520312d322e3920322e332d6104608201527f2e342031203020322e342e3820332e3261372037203020302030203320312e386104808201527f63312e342e3420322e382e3620342e322e3320312e332d2e3320322e362d312e6104a08201527f3220332d322e355a6d2d35322e36203063312d312e3320312d332e332d2e312d6104c08201527f342e362d312e312d312e322d332d312e352d342e382d312d31202e342d3220316104e08201527f2d322e3820312e382d2e372e382d3120322d2e3820332e312e3320312e3120316105008201527f2e32203220322e3320322e342031202e3420322e332e3420332e342e316135206105208201527f3520302030203020322e382d312e375a222f3e3c7061746820636c6173733d226105408201527f6d757368726f6f6d436f6c6f72322220643d224d3136362e32203537762e31636105608201527f2d3420322e342d372e3720322e342d31352e342d322e332d382d342e392d31306105808201527f2d31302d382e382d31322e386c2e372d2e336131372e372031372e37203020306105a08201527f20312031352e3220312e3563362e3220332e3820372e3620382e3420382e33206105c08201527f31332e375a6d2d33362e392d31392e382d2e312e3661323120323120302030206105e08201527f312d32372e382d322e3356333568342e3263382030203136202e352032332e376106008201527f20322e315a4d3132332e3720353163312e322031203220322e3420312e3620336106208201527f2e382d2e3320312e332d312e3620322e322d3320322e356139203920302030206106408201527f312d342d2e33203720372030203020312d332d312e38632d2e392d2e382d312e6106608201527f332d322e312d2e392d332e322e342d312e3220312e372d3220322e392d322e336106808201527f6138203820302030203120362e3420312e335a6d2d35312e312d2e38613420346106a08201527f203020302031202e3120342e37203520352030203020312d322e3820312e37636106c08201527f2d312e312e332d322e342e332d332e342030613420342030203020312d322e336106e08201527f2d322e35632d2e332d31202e312d322e332e382d332e312e372d2e3920312e376107008201527f2d312e3420322e382d312e3720312e372d2e3620332e372d2e3320342e3820316107208201527f5a4d36382034312e33632d362e3720322e362d31322e3520362d31372e3320316107408201527f302e316c2d2e362d2e37632d2e332d342e3220322d382e3520352e372d31302e6107608201527f3620332e372d3220382e362d312e38203132202e376c2e322e355a4d343320356107808201527f3963312e3720342e362e392031302e322d322031342e32762e316c2d312e352e6107a08201527f37632d332e3820312e372d362e3620332e382d372e37203620312e362d3820356107c08201527f2e382d31352031312e322d32315a222f3e3c7061746820636c6173733d226d756107e08201527f7368726f6f6d436f6c6f72312220643d226d3133362e372038352e332034202e6108008201527f37203220362e322e3320312e346330202e352e342032202e3520332e356c2e336108208201527f20352e3173362e382d372e352031372d31302e3563332d3120382e342d312e346108408201527f20382e342d312e346c332e382d322e3420322d3320342e352d342d382e322d366108608201527f2e372d31362e372d352e332d32332e372d342e324838392e374c35352036396c6108808201527f2d313720352e332d3420362e322d2e3220332e33732e3720312e3820312e38206108a08201527f332e3163312e3120312e3520332e3420332e3620332e3520332e3520302030206108c08201527f372d2e3220313520322e376134312e312034312e312030203020312031332e356108e08201527f20392e3373302d33202e322d342e386c2e362d342e322e322d3120322d362e346109008201527f20382e322d2e362031302e382d342e356833326c31352e3120342e355a222f3e6109208201527f3c706174682066696c6c3d2223303030222066696c6c2d6f7061636974793d226109408201527f2e322220643d226d3133362e372038352e332034202e37203220362e322e33206109608201527f312e346330202e352e342032202e3520332e356c2e3320352e3173362e382d376109808201527f2e352031372d31302e3563332d3120382e342d312e3420382e342d312e346c336109a08201527f2e382d322e3420322d3320342e352d342d382e322d362e372d31362e372d352e6109c08201527f332d32332e372d342e324838392e374c35352036396c2d313720352e332d34206109e08201527f362e322d2e3220332e33732e3720312e3820312e3820332e3163312e3120312e610a008201527f3520332e3420332e3620332e3520332e352030203020372d2e3220313520322e610a208201527f376134312e312034312e312030203020312031332e3520392e3373302d33202e610a408201527f322d342e386c2e362d342e322e322d3120322d362e3420382e322d2e36203130610a608201527f2e382d342e356833326c31352e3120342e355a222f3e3c70617468207374726f610a808201527f6b653d222330303022207374726f6b652d6c696e656361703d22726f756e6422610aa08201527f207374726f6b652d6c696e656a6f696e3d22726f756e6422207374726f6b652d610ac08201527f77696474683d22342220643d224d3130352e352036332e36632d31372e312030610ae08201527f2d33342e3520312e312d35312e3220352e332d362e3420312e372d31382e3420610b008201527f342d32322031302e342d322e33203420322e3320392e3420362031322e33222f610b208201527f3e3c70617468207374726f6b653d222330303022207374726f6b652d6c696e65610b408201527f6361703d22726f756e6422207374726f6b652d6c696e656a6f696e3d22726f75610b608201527f6e6422207374726f6b652d77696474683d22342220643d224d33312e38203830610b808201527f63312e362d3820352e382d31352031312e322d32316135332035332030203020610ba08201527f3120362e372d362e376c312d2e3963342e382d342031302e362d372e35203137610bc08201527f2e332d31306139392039392030203020312033372e352d362e346d2e31203238610be08201527f2e366332322e392d2e322034352e3920312e382036362e392031302e38203320610c008201527f3120362033203720372d322e3220332e372d3420362e372d392e362031302e35610c208201527f4d3134322e342034316138342038342030203020302d31332e312d332e38632d610c408201527f372e382d312e362d31352e382d322e322d32332e372d322e32222f3e3c706174610c608201527f68207374726f6b653d222330303022207374726f6b652d6c696e656361703d22610c808201527f726f756e6422207374726f6b652d6c696e656a6f696e3d22726f756e64222073610ca08201527f74726f6b652d77696474683d22342220643d224d3137392e34203831632d312e610cc08201527f382d392d372d31372e372d31332e312d32342e31222f3e3c7061746820737472610ce08201527f6f6b653d222330303022207374726f6b652d6c696e656361703d22726f756e64610d008201527f22207374726f6b652d6c696e656a6f696e3d22726f756e6422207374726f6b65610d208201527f2d77696474683d22332220643d224d39342e372036342e3463312e3720342034610d408201527f2e3720313120372031342e376d2d31392d31342e3463322e3720342e3820382e610d608201527f342031312031312e382031354d36382e372036362e346137332e352037332e35610d808201527f2030203020302031382e322031342e374d35332e372036392e3463372e382037610da08201527f2031352e352031312e332032352e352031344d34302037346135352035352030610dc08201527f203020302033312e342031322e386d2d33392d362e356136392e342036392e34610de08201527f2030203020302033372e382031322e356d2d31312e3420342e3573332e332e38610e008201527f20352e3420312e316332202e3320352e322e3320352e322e336d38322e392d31610e208201527f2e34732d332e322e382d352e3420312e31632d32202e332d352e322e332d352e610e408201527f322e33222f3e3c70617468207374726f6b653d222330303022207374726f6b65610e608201527f2d6c696e656361703d22726f756e6422207374726f6b652d6c696e656a6f696e610e808201527f3d22726f756e6422207374726f6b652d77696474683d22342220643d224d3433610ea08201527f20353963312e3720342e362e392031302e322d322031342e326d32362e382d32610ec08201527f332e3941362036203020302030203635203531632d2e372e382d3120322d2e38610ee08201527f20332e312e3320312e3120312e32203220322e3320322e342031202e3420322e610f008201527f332e3420332e342e316135203520302030203020322e382d312e3763312d312e610f208201527f3420312d332e342d2e312d342e372d312e312d312e322d332d312e352d342e38610f408201527f2d315a4d35302035302e37632d2e322d342e3220322e312d382e3520352e382d610f608201527f31302e3620332e372d3220382e362d312e38203132202e376d33332e362d352e610f808201527f336132312032312030203020302032372e3820322e334d3132332e3720353161610fa08201527f372e3720372e372030203020302d362e342d312e33632d312e322e332d322e35610fc08201527f20312d322e3920322e332d2e342031203020322e342e3820332e326137203720610fe08201527f3020302030203320312e3863312e342e3420322e382e3620342e322e3320312e6110008201527f332d2e3320322e362d312e3220332d322e352e332d312e342d2e352d322e392d6110208201527f312e372d332e385a6d31392d392e332d2e372e33632d312e3220322e372e38206110408201527f3820382e382031322e3820372e3720342e372031312e3420342e372031352e346110608201527f20322e33762d2e32632d2e372d352e332d322e312d31302d382e332d31332e376110808201527f6131372e372031372e372030203020302d31352e322d312e355a222f3e3c70616110a08201527f7468207374726f6b653d222330303022207374726f6b652d6c696e656361703d6110c08201527f22726f756e6422207374726f6b652d6c696e656a6f696e3d22726f756e6422206110e08201527f7374726f6b652d77696474683d22332220643d224d3131372036342e31632d316111008201527f2e3820342e312d352e342031312e342d372e372031354d3132392036342e34636111208201527f2d322e3920352d382031312e352d31312e372031352e364d3134332036362e326111408201527f6137312e362037312e362030203020312d31382031356d33332d31326135372e6111608201527f332035372e332030203020312d32352e342031342e336d33382e392d392e37616111808201527f35332e342035332e342030203020312d33312e342031336d33392e322d362e386111a08201527f6137372e332037372e332030203020312d33372e382031322e386d2d33352e396111c08201527f2d32392e32563739222f3e3c70617468207374726f6b653d22233030302220736111e08201527f74726f6b652d6c696e656361703d22726f756e6422207374726f6b652d7769646112008201527f74683d22332e352220643d224d37312038372e347331312e382d382e322033346112208201527f2e362d382e325331343020383720313430203837222f3e3c2f7376673e00000061124082015250565b5f611f6561125d83610829565b9150611f70826108f9565b61125d82019050919050565b5f611f86826108a7565b9150611f9282846108c9565b9150611f9d82611f58565b915081905092915050565b7f3c7374796c653e2e6d757368726f6f6d436f6c6f7231207b2066696c6c3a0000815250565b7f7d2e6d757368726f6f6d436f6c6f7232207b2066696c6c3a0000000000000000815250565b7f7d2e6d757368726f6f6d537061726b6c6573207b66696c6c3a00000000000000815250565b7f3b207374726f6b653a0000000000000000000000000000000000000000000000815250565b7f3b207374726f6b652d6c696e656361703a20726f756e643b207374726f6b652d5f8201527f6c696e656a6f696e3a20726f756e643b7d3c2f7374796c653e00000000000000602082015250565b5f61209a603983610829565b91506120a582612040565b603982019050919050565b5f6120ba82611fa8565b601e820191506120ca82876108c9565b91506120d582611fce565b6018820191506120e582866108c9565b91506120f082611ff4565b60198201915061210082856108c9565b915061210b8261201a565b60098201915061211b82846108c9565b91506121268261208e565b91508190509594505050505056fea2646970667358221220ce60aa851b99ee91a1aa07f6980f77e36f3ead09869f021f0beb58964ba23c5164736f6c63430008140033",
  "immutableReferences": {},
  "source": "// SPDX-License-Identifier: MIT\npragma solidity ^0.8.0;\n\nimport {Headwear} from '../Headwear.sol';\nimport {EduxColors} from '../EduxColors.sol';\n\nlibrary HeadwearMushroom {\n    enum MushroomColors {\n        GREEN,\n        PURPLE,\n        BLUE,\n        PINK,\n        GOLD\n    }\n\n    function getMushroom(\n        MushroomColors mushroomColor\n    ) external pure returns (string memory, Headwear.HeadwearVariants, Headwear.HeadwearColors) {\n        return (\n            string.concat(\n                '<svg xmlns=\"http://www.w3.org/2000/svg\" width=\"211\" height=\"335\" fill=\"none\">',\n                _getMushroomStyle(mushroomColor),\n                '<path class=\"mushroomSparkles\" stroke-width=\"3\" d=\"M9.4 46.1a4.4 4.4 0 1 1 0 8.9 4.4 4.4 0 0 1 0-8.9Z\"/><path class=\"mushroomSparkles\" stroke-width=\"3.5\" d=\"M33.4 32.3a8 8 0 0 0 4.4 3.3 12 12 0 0 0-7.6 8.7 12 12 0 0 0-7.2-9c3.8-1.3 6.8-4.5 7.9-8.3a20 20 0 0 0 2.5 5.3Z\"/><path class=\"mushroomSparkles\" stroke-width=\"3\" d=\"M178.6 23.4a4.4 4.4 0 1 1 0 8.7 4.4 4.4 0 0 1 0-8.7Z\"/><path class=\"mushroomSparkles\" stroke-width=\"3.5\" d=\"M193 39.6c1 5.1 4.8 9.3 9.6 10.5-5 1.3-9.1 6-9.7 11.2a14 14 0 0 0-9.9-11.2c4.8-1.6 8.6-5.7 10-10.5Z\"/><path class=\"mushroomSparkles\" stroke-width=\"3\"  d=\"M148.2 6a5.7 5.7 0 1 1 0 11.5 5.7 5.7 0 0 1 0-11.5Z\"/><path class=\"mushroomColor1\" d=\"M105.5 63.6a393.7 393.7 0 0 0-21.7.7c-5 .4-9.7 1-15.1 1.8l-1.3.2a138.2 138.2 0 0 0-26.4 7 16 16 0 0 0 2-14.4c2-2.3 4.3-4.6 6.7-6.6l1-.9c4.8-4 10.6-7.5 17.3-10a99 99 0 0 1 33.4-6.3v.4a21 21 0 0 0 27.8 2.3v-.6a84 84 0 0 1 13.2 3.8l.3.7-.7.3c-1.2 2.7.8 8 8.8 12.8 7.7 4.7 11.4 4.7 15.4 2.3v-.2a47 47 0 0 1 13 23c-1-2.2-4-4.2-7.8-6a82.3 82.3 0 0 0-13.5-4.7 139.6 139.6 0 0 0-15-3 227 227 0 0 0-37.3-2.6V74 63.6Zm19.8-8.8c.4-1.4-.4-2.9-1.6-3.8a7.7 7.7 0 0 0-6.4-1.3c-1.2.3-2.5 1-2.9 2.3-.4 1 0 2.4.8 3.2a7 7 0 0 0 3 1.8c1.4.4 2.8.6 4.2.3 1.3-.3 2.6-1.2 3-2.5Zm-52.6 0c1-1.3 1-3.3-.1-4.6-1.1-1.2-3-1.5-4.8-1-1 .4-2 1-2.8 1.8-.7.8-1 2-.8 3.1.3 1.1 1.2 2 2.3 2.4 1 .4 2.3.4 3.4.1a5 5 0 0 0 2.8-1.7Z\"/><path class=\"mushroomColor2\" d=\"M166.2 57v.1c-4 2.4-7.7 2.4-15.4-2.3-8-4.9-10-10-8.8-12.8l.7-.3a17.7 17.7 0 0 1 15.2 1.5c6.2 3.8 7.6 8.4 8.3 13.7Zm-36.9-19.8-.1.6a21 21 0 0 1-27.8-2.3V35h4.2c8 0 16 .5 23.7 2.1ZM123.7 51c1.2 1 2 2.4 1.6 3.8-.3 1.3-1.6 2.2-3 2.5a9 9 0 0 1-4-.3 7 7 0 0 1-3-1.8c-.9-.8-1.3-2.1-.9-3.2.4-1.2 1.7-2 2.9-2.3a8 8 0 0 1 6.4 1.3Zm-51.1-.8a4 4 0 0 1 .1 4.7 5 5 0 0 1-2.8 1.7c-1.1.3-2.4.3-3.4 0a4 4 0 0 1-2.3-2.5c-.3-1 .1-2.3.8-3.1.7-.9 1.7-1.4 2.8-1.7 1.7-.6 3.7-.3 4.8 1ZM68 41.3c-6.7 2.6-12.5 6-17.3 10.1l-.6-.7c-.3-4.2 2-8.5 5.7-10.6 3.7-2 8.6-1.8 12 .7l.2.5ZM43 59c1.7 4.6.9 10.2-2 14.2v.1l-1.5.7c-3.8 1.7-6.6 3.8-7.7 6 1.6-8 5.8-15 11.2-21Z\"/><path class=\"mushroomColor1\" d=\"m136.7 85.3 4 .7 2 6.2.3 1.4c0 .5.4 2 .5 3.5l.3 5.1s6.8-7.5 17-10.5c3-1 8.4-1.4 8.4-1.4l3.8-2.4 2-3 4.5-4-8.2-6.7-16.7-5.3-23.7-4.2H89.7L55 69l-17 5.3-4 6.2-.2 3.3s.7 1.8 1.8 3.1c1.1 1.5 3.4 3.6 3.5 3.5 0 0 7-.2 15 2.7a41.1 41.1 0 0 1 13.5 9.3s0-3 .2-4.8l.6-4.2.2-1 2-6.4 8.2-.6 10.8-4.5h32l15.1 4.5Z\"/><path fill=\"#000\" fill-opacity=\".2\" d=\"m136.7 85.3 4 .7 2 6.2.3 1.4c0 .5.4 2 .5 3.5l.3 5.1s6.8-7.5 17-10.5c3-1 8.4-1.4 8.4-1.4l3.8-2.4 2-3 4.5-4-8.2-6.7-16.7-5.3-23.7-4.2H89.7L55 69l-17 5.3-4 6.2-.2 3.3s.7 1.8 1.8 3.1c1.1 1.5 3.4 3.6 3.5 3.5 0 0 7-.2 15 2.7a41.1 41.1 0 0 1 13.5 9.3s0-3 .2-4.8l.6-4.2.2-1 2-6.4 8.2-.6 10.8-4.5h32l15.1 4.5Z\"/><path stroke=\"#000\" stroke-linecap=\"round\" stroke-linejoin=\"round\" stroke-width=\"4\" d=\"M105.5 63.6c-17.1 0-34.5 1.1-51.2 5.3-6.4 1.7-18.4 4-22 10.4-2.3 4 2.3 9.4 6 12.3\"/><path stroke=\"#000\" stroke-linecap=\"round\" stroke-linejoin=\"round\" stroke-width=\"4\" d=\"M31.8 80c1.6-8 5.8-15 11.2-21a53 53 0 0 1 6.7-6.7l1-.9c4.8-4 10.6-7.5 17.3-10a99 99 0 0 1 37.5-6.4m.1 28.6c22.9-.2 45.9 1.8 66.9 10.8 3 1 6 3 7 7-2.2 3.7-4 6.7-9.6 10.5M142.4 41a84 84 0 0 0-13.1-3.8c-7.8-1.6-15.8-2.2-23.7-2.2\"/><path stroke=\"#000\" stroke-linecap=\"round\" stroke-linejoin=\"round\" stroke-width=\"4\" d=\"M179.4 81c-1.8-9-7-17.7-13.1-24.1\"/><path stroke=\"#000\" stroke-linecap=\"round\" stroke-linejoin=\"round\" stroke-width=\"3\" d=\"M94.7 64.4c1.7 4 4.7 11 7 14.7m-19-14.4c2.7 4.8 8.4 11 11.8 15M68.7 66.4a73.5 73.5 0 0 0 18.2 14.7M53.7 69.4c7.8 7 15.5 11.3 25.5 14M40 74a55 55 0 0 0 31.4 12.8m-39-6.5a69.4 69.4 0 0 0 37.8 12.5m-11.4 4.5s3.3.8 5.4 1.1c2 .3 5.2.3 5.2.3m82.9-1.4s-3.2.8-5.4 1.1c-2 .3-5.2.3-5.2.3\"/><path stroke=\"#000\" stroke-linecap=\"round\" stroke-linejoin=\"round\" stroke-width=\"4\" d=\"M43 59c1.7 4.6.9 10.2-2 14.2m26.8-23.9A6 6 0 0 0 65 51c-.7.8-1 2-.8 3.1.3 1.1 1.2 2 2.3 2.4 1 .4 2.3.4 3.4.1a5 5 0 0 0 2.8-1.7c1-1.4 1-3.4-.1-4.7-1.1-1.2-3-1.5-4.8-1ZM50 50.7c-.2-4.2 2.1-8.5 5.8-10.6 3.7-2 8.6-1.8 12 .7m33.6-5.3a21 21 0 0 0 27.8 2.3M123.7 51a7.7 7.7 0 0 0-6.4-1.3c-1.2.3-2.5 1-2.9 2.3-.4 1 0 2.4.8 3.2a7 7 0 0 0 3 1.8c1.4.4 2.8.6 4.2.3 1.3-.3 2.6-1.2 3-2.5.3-1.4-.5-2.9-1.7-3.8Zm19-9.3-.7.3c-1.2 2.7.8 8 8.8 12.8 7.7 4.7 11.4 4.7 15.4 2.3v-.2c-.7-5.3-2.1-10-8.3-13.7a17.7 17.7 0 0 0-15.2-1.5Z\"/><path stroke=\"#000\" stroke-linecap=\"round\" stroke-linejoin=\"round\" stroke-width=\"3\" d=\"M117 64.1c-1.8 4.1-5.4 11.4-7.7 15M129 64.4c-2.9 5-8 11.5-11.7 15.6M143 66.2a71.6 71.6 0 0 1-18 15m33-12a57.3 57.3 0 0 1-25.4 14.3m38.9-9.7a53.4 53.4 0 0 1-31.4 13m39.2-6.8a77.3 77.3 0 0 1-37.8 12.8m-35.9-29.2V79\"/><path stroke=\"#000\" stroke-linecap=\"round\" stroke-width=\"3.5\" d=\"M71 87.4s11.8-8.2 34.6-8.2S140 87 140 87\"/></svg>'\n            ),\n            Headwear.HeadwearVariants.MUSHROOM,\n            _getHeadwearColor(mushroomColor)\n        );\n    }\n\n    function _getMushroomStyle(MushroomColors mushroomColor) internal pure returns (string memory) {\n        (string memory primaryColor, string memory secondaryColor) = _getMushroomColor(mushroomColor);\n        (string memory sparklesFill, string memory sparklesStroke) = _getMushroomSparklesColors(mushroomColor);\n        return\n            string.concat(\n                '<style>.mushroomColor1 { fill:',\n                primaryColor,\n                '}.mushroomColor2 { fill:',\n                secondaryColor,\n                '}.mushroomSparkles {fill:',\n                sparklesFill,\n                '; stroke:',\n                sparklesStroke,\n                '; stroke-linecap: round; stroke-linejoin: round;}</style>'\n            );\n    }\n\n    function _getMushroomSparklesColors(\n        MushroomColors mushroomColor\n    ) internal pure returns (string memory, string memory) {\n        if (mushroomColor == MushroomColors.GOLD) {\n            return (EduxColors.white, EduxColors.darkGold);\n        } else {\n            return (EduxColors.white, EduxColors.black);\n        }\n    }\n\n    function _getMushroomColor(MushroomColors mushroomColor) internal pure returns (string memory, string memory) {\n        if (mushroomColor == MushroomColors.GREEN) {\n            return (EduxColors.lightGreen, EduxColors.baseGreen);\n        } else if (mushroomColor == MushroomColors.PURPLE) {\n            return (EduxColors.lightPurple, EduxColors.basePurple);\n        } else if (mushroomColor == MushroomColors.BLUE) {\n            return (EduxColors.lightBlue, EduxColors.baseBlue);\n        } else if (mushroomColor == MushroomColors.PINK) {\n            return (EduxColors.lightPink, EduxColors.basePink);\n        } else if (mushroomColor == MushroomColors.GOLD) {\n            return (EduxColors.lightGold, EduxColors.baseGold);\n        } else {\n            revert(); // Avoid warnings.\n        }\n    }\n\n    function _getHeadwearColor(MushroomColors mushroomColor) internal pure returns (Headwear.HeadwearColors) {\n        if (mushroomColor == MushroomColors.GREEN) {\n            return Headwear.HeadwearColors.GREEN;\n        } else if (mushroomColor == MushroomColors.PURPLE) {\n            return Headwear.HeadwearColors.PURPLE;\n        } else if (mushroomColor == MushroomColors.BLUE) {\n            return Headwear.HeadwearColors.BLUE;\n        } else if (mushroomColor == MushroomColors.PINK) {\n            return Headwear.HeadwearColors.PINK;\n        } else if (mushroomColor == MushroomColors.GOLD) {\n            return Headwear.HeadwearColors.GOLD;\n        } else {\n            revert(); // Avoid warnings.\n        }\n    }\n}\n",
  "sourcePath": "E:\\Blockchain\\EDUIndex\\EduxContract\\contracts\\libraries\\svgs\\Profile\\Headwear\\HeadwearMushroom.sol",
  "compiler": {
    "name": "solc",
    "version": "0.8.20+commit.a1b79de6.Emscripten.clang"
  },
  "schemaVersion": "3.4.3",
  "updatedAt": "2024-08-25T13:13:21.902Z",
  "devdoc": {
    "kind": "dev",
    "methods": {},
    "version": 1
  },
  "userdoc": {
    "kind": "user",
    "methods": {},
    "version": 1
  }
}