{
  "contractName": "Headwear",
  "abi": [
    {
      "inputs": [
        {
          "internalType": "uint256",
          "name": "seed",
          "type": "uint256"
        },
        {
          "internalType": "bool",
          "name": "isGold",
          "type": "bool"
        }
      ],
      "name": "getHeadwear",
      "outputs": [
        {
          "internalType": "string",
          "name": "",
          "type": "string"
        },
        {
          "internalType": "enum Headwear.HeadwearVariants",
          "name": "",
          "type": "Headwear.HeadwearVariants"
        },
        {
          "internalType": "enum Headwear.HeadwearColors",
          "name": "",
          "type": "Headwear.HeadwearColors"
        }
      ],
      "stateMutability": "pure",
      "type": "function"
    }
  ],
  "bytecode": "0x61234161004e600b8282823980515f1a607314610042577f4e487b71000000000000000000000000000000000000000000000000000000005f525f60045260245ffd5b305f52607381538281f3fe7300000000000000000000000000000000000000003014608060405260043610610034575f3560e01c806342d3b46814610038575b5f80fd5b610052600480360381019061004d91906116ad565b61006a565b6040516100619392919061182e565b60405180910390f35b60605f805f60158081111561008257610081611775565b5b61008d8760096115c6565b61009791906118a3565b60ff1660158111156100ac576100ab611775565b5b905060456100bb8760096115c6565b60ff16036100c857601590505b5f60158111156100db576100da611775565b5b8160158111156100ee576100ed611775565b5b03610112575f8060405180602001604052805f8152509190935093509350506115bf565b6001601581111561012657610125611775565b5b81601581111561013957610138611775565b5b03610211575f856101865760048081111561015757610156611775565b5b6101628860096115f7565b61016c91906118a3565b60ff16600481111561018157610180611775565b5b610189565b60045b905073__HeadwearBeanie________________________635054f66f826040518263ffffffff1660e01b81526004016101c29190611919565b5f60405180830381865af41580156101dc573d5f803e3d5ffd5b505050506040513d5f823e3d601f19601f820116820180604052508101906102049190611a96565b94509450945050506115bf565b6002601581111561022557610224611775565b5b81601581111561023857610237611775565b5b03610310575f856102855760048081111561025657610255611775565b5b6102618860096115f7565b61026b91906118a3565b60ff1660048111156102805761027f611775565b5b610288565b60045b905073__HeadwearHat___________________________639ed3e87c826040518263ffffffff1660e01b81526004016102c19190611b48565b5f60405180830381865af41580156102db573d5f803e3d5ffd5b505050506040513d5f823e3d601f19601f820116820180604052508101906103039190611a96565b94509450945050506115bf565b60158081111561032357610322611775565b5b81601581111561033657610335611775565b5b0361040e575f856103835760048081111561035457610353611775565b5b61035f8860096115f7565b61036991906118a3565b60ff16600481111561037e5761037d611775565b5b610386565b60045b905073__HeadwearIcecream______________________630709e24c826040518263ffffffff1660e01b81526004016103bf9190611ba7565b5f60405180830381865af41580156103d9573d5f803e3d5ffd5b505050506040513d5f823e3d601f19601f820116820180604052508101906104019190611a96565b94509450945050506115bf565b6003601581111561042257610421611775565b5b81601581111561043557610434611775565b5b0361050d575f856104825760048081111561045357610452611775565b5b61045e8860096115f7565b61046891906118a3565b60ff16600481111561047d5761047c611775565b5b610485565b60045b905073__HeadwearPlants________________________63fa3acc18826040518263ffffffff1660e01b81526004016104be9190611c06565b5f60405180830381865af41580156104d8573d5f803e3d5ffd5b505050506040513d5f823e3d601f19601f820116820180604052508101906105009190611a96565b94509450945050506115bf565b6004601581111561052157610520611775565b5b81601581111561053457610533611775565b5b036105cb5773__HeadwearSparkles______________________63dce553cf8661055e575f610561565b60015b6040518263ffffffff1660e01b815260040161057d9190611c65565b5f60405180830381865af4158015610597573d5f803e3d5ffd5b505050506040513d5f823e3d601f19601f820116820180604052508101906105bf9190611a96565b935093509350506115bf565b600560158111156105df576105de611775565b5b8160158111156105f2576105f1611775565b5b036106ca575f8561063f576004808111156106105761060f611775565b5b61061b8860096115f7565b61062591906118a3565b60ff16600481111561063a57610639611775565b5b610642565b60045b905073__HeadwearCrown_________________________63882c9a43826040518263ffffffff1660e01b815260040161067b9190611cc4565b5f60405180830381865af4158015610695573d5f803e3d5ffd5b505050506040513d5f823e3d601f19601f820116820180604052508101906106bd9190611a96565b94509450945050506115bf565b600660158111156106de576106dd611775565b5b8160158111156106f1576106f0611775565b5b036107c9575f8561073e5760048081111561070f5761070e611775565b5b61071a8860096115f7565b61072491906118a3565b60ff16600481111561073957610738611775565b5b610741565b60045b905073__HeadwearFloral________________________630f19270e826040518263ffffffff1660e01b815260040161077a9190611d23565b5f60405180830381865af4158015610794573d5f803e3d5ffd5b505050506040513d5f823e3d601f19601f820116820180604052508101906107bc9190611a96565b94509450945050506115bf565b600760158111156107dd576107dc611775565b5b8160158111156107f0576107ef611775565b5b036108c8575f8561083d5760048081111561080e5761080d611775565b5b6108198860096115f7565b61082391906118a3565b60ff16600481111561083857610837611775565b5b610840565b60045b905073__HeadwearGlasses_______________________6398508b75826040518263ffffffff1660e01b81526004016108799190611d82565b5f60405180830381865af4158015610893573d5f803e3d5ffd5b505050506040513d5f823e3d601f19601f820116820180604052508101906108bb9190611a96565b94509450945050506115bf565b600860158111156108dc576108db611775565b5b8160158111156108ef576108ee611775565b5b036109c7575f8561093c5760048081111561090d5761090c611775565b5b6109188860096115f7565b61092291906118a3565b60ff16600481111561093757610936611775565b5b61093f565b60045b905073__HeadwearMushroom______________________6345e2836f826040518263ffffffff1660e01b81526004016109789190611de1565b5f60405180830381865af4158015610992573d5f803e3d5ffd5b505050506040513d5f823e3d601f19601f820116820180604052508101906109ba9190611a96565b94509450945050506115bf565b600960158111156109db576109da611775565b5b8160158111156109ee576109ed611775565b5b03610ac6575f85610a3b57600480811115610a0c57610a0b611775565b5b610a178860096115f7565b610a2191906118a3565b60ff166004811115610a3657610a35611775565b5b610a3e565b60045b905073__HeadwearNightcap______________________6373a0e635826040518263ffffffff1660e01b8152600401610a779190611e40565b5f60405180830381865af4158015610a91573d5f803e3d5ffd5b505050506040513d5f823e3d601f19601f82011682018060405250810190610ab99190611a96565b94509450945050506115bf565b600a6015811115610ada57610ad9611775565b5b816015811115610aed57610aec611775565b5b03610bc5575f85610b3a57600480811115610b0b57610b0a611775565b5b610b168860096115f7565b610b2091906118a3565b60ff166004811115610b3557610b34611775565b5b610b3d565b60045b905073__HeadwearPartyhat______________________635c2b6797826040518263ffffffff1660e01b8152600401610b769190611e9f565b5f60405180830381865af4158015610b90573d5f803e3d5ffd5b505050506040513d5f823e3d601f19601f82011682018060405250810190610bb89190611a96565b94509450945050506115bf565b600b6015811115610bd957610bd8611775565b5b816015811115610bec57610beb611775565b5b03610cc4575f85610c3957600480811115610c0a57610c09611775565b5b610c158860096115f7565b610c1f91906118a3565b60ff166004811115610c3457610c33611775565b5b610c3c565b60045b905073__HeadwearBear__________________________638bec0473826040518263ffffffff1660e01b8152600401610c759190611efe565b5f60405180830381865af4158015610c8f573d5f803e3d5ffd5b505050506040513d5f823e3d601f19601f82011682018060405250810190610cb79190611a96565b94509450945050506115bf565b600c6015811115610cd857610cd7611775565b5b816015811115610ceb57610cea611775565b5b03610dc3575f85610d3857600480811115610d0957610d08611775565b5b610d148860096115f7565b610d1e91906118a3565b60ff166004811115610d3357610d32611775565b5b610d3b565b60045b905073__HeadwearBee___________________________6384dc7c74826040518263ffffffff1660e01b8152600401610d749190611f5d565b5f60405180830381865af4158015610d8e573d5f803e3d5ffd5b505050506040513d5f823e3d601f19601f82011682018060405250810190610db69190611a96565b94509450945050506115bf565b600d6015811115610dd757610dd6611775565b5b816015811115610dea57610de9611775565b5b03610ec2575f85610e3757600480811115610e0857610e07611775565b5b610e138860096115f7565b610e1d91906118a3565b60ff166004811115610e3257610e31611775565b5b610e3a565b60045b905073__HeadwearBirdie________________________6324ee6a4d826040518263ffffffff1660e01b8152600401610e739190611fbc565b5f60405180830381865af4158015610e8d573d5f803e3d5ffd5b505050506040513d5f823e3d601f19601f82011682018060405250810190610eb59190611a96565b94509450945050506115bf565b600e6015811115610ed657610ed5611775565b5b816015811115610ee957610ee8611775565b5b03610fc1575f85610f3657600480811115610f0757610f06611775565b5b610f128860096115f7565b610f1c91906118a3565b60ff166004811115610f3157610f30611775565b5b610f39565b60045b905073__HeadwearBrains________________________637821fe15826040518263ffffffff1660e01b8152600401610f72919061201b565b5f60405180830381865af4158015610f8c573d5f803e3d5ffd5b505050506040513d5f823e3d601f19601f82011682018060405250810190610fb49190611a96565b94509450945050506115bf565b600f6015811115610fd557610fd4611775565b5b816015811115610fe857610fe7611775565b5b036110c0575f856110355760048081111561100657611005611775565b5b6110118860096115f7565b61101b91906118a3565b60ff1660048111156110305761102f611775565b5b611038565b60045b905073__HeadwearBull__________________________63c529f16c826040518263ffffffff1660e01b8152600401611071919061207a565b5f60405180830381865af415801561108b573d5f803e3d5ffd5b505050506040513d5f823e3d601f19601f820116820180604052508101906110b39190611a96565b94509450945050506115bf565b601060158111156110d4576110d3611775565b5b8160158111156110e7576110e6611775565b5b036111bf575f856111345760048081111561110557611104611775565b5b6111108860096115f7565b61111a91906118a3565b60ff16600481111561112f5761112e611775565b5b611137565b60045b905073__HeadwearEarrings______________________634241a9b4826040518263ffffffff1660e01b815260040161117091906120d9565b5f60405180830381865af415801561118a573d5f803e3d5ffd5b505050506040513d5f823e3d601f19601f820116820180604052508101906111b29190611a96565b94509450945050506115bf565b601160158111156111d3576111d2611775565b5b8160158111156111e6576111e5611775565b5b036112be575f856112335760048081111561120457611203611775565b5b61120f8860096115f7565b61121991906118a3565b60ff16600481111561122e5761122d611775565b5b611236565b60045b905073__HeadwearLotus_________________________63b35d4fc2826040518263ffffffff1660e01b815260040161126f9190612138565b5f60405180830381865af4158015611289573d5f803e3d5ffd5b505050506040513d5f823e3d601f19601f820116820180604052508101906112b19190611a96565b94509450945050506115bf565b601260158111156112d2576112d1611775565b5b8160158111156112e5576112e4611775565b5b036113bd575f856113325760048081111561130357611302611775565b5b61130e8860096115f7565b61131891906118a3565b60ff16600481111561132d5761132c611775565b5b611335565b60045b905073__HeadwearMajor_________________________637c260cb1826040518263ffffffff1660e01b815260040161136e9190612197565b5f60405180830381865af4158015611388573d5f803e3d5ffd5b505050506040513d5f823e3d601f19601f820116820180604052508101906113b09190611a96565b94509450945050506115bf565b601360158111156113d1576113d0611775565b5b8160158111156113e4576113e3611775565b5b036114bc575f856114315760048081111561140257611401611775565b5b61140d8860096115f7565b61141791906118a3565b60ff16600481111561142c5761142b611775565b5b611434565b60045b905073__HeadwearScout_________________________630817c0ef826040518263ffffffff1660e01b815260040161146d91906121f6565b5f60405180830381865af4158015611487573d5f803e3d5ffd5b505050506040513d5f823e3d601f19601f820116820180604052508101906114af9190611a96565b94509450945050506115bf565b601460158111156114d0576114cf611775565b5b8160158111156114e3576114e2611775565b5b036115bb575f856115305760048081111561150157611500611775565b5b61150c8860096115f7565b61151691906118a3565b60ff16600481111561152b5761152a611775565b5b611533565b60045b905073__HeadwearShaman________________________634b92faf1826040518263ffffffff1660e01b815260040161156c9190612255565b5f60405180830381865af4158015611586573d5f803e3d5ffd5b505050506040513d5f823e3d601f19601f820116820180604052508101906115ae9190611a96565b94509450945050506115bf565b5f80fd5b9250925092565b5f60ff60088360098111156115de576115dd611775565b5b6115e8919061229b565b60ff1684901c16905092915050565b5f60ff600883600981111561160f5761160e611775565b5b601f61161b91906122d7565b611625919061229b565b60ff1684901c16905092915050565b5f604051905090565b5f80fd5b5f80fd5b5f819050919050565b61165781611645565b8114611661575f80fd5b50565b5f813590506116728161164e565b92915050565b5f8115159050919050565b61168c81611678565b8114611696575f80fd5b50565b5f813590506116a781611683565b92915050565b5f80604083850312156116c3576116c261163d565b5b5f6116d085828601611664565b92505060206116e185828601611699565b9150509250929050565b5f81519050919050565b5f82825260208201905092915050565b5f5b83811015611722578082015181840152602081019050611707565b5f8484015250505050565b5f601f19601f8301169050919050565b5f611747826116eb565b61175181856116f5565b9350611761818560208601611705565b61176a8161172d565b840191505092915050565b7f4e487b71000000000000000000000000000000000000000000000000000000005f52602160045260245ffd5b601681106117b3576117b2611775565b5b50565b5f8190506117c3826117a2565b919050565b5f6117d2826117b6565b9050919050565b6117e2816117c8565b82525050565b600681106117f9576117f8611775565b5b50565b5f819050611809826117e8565b919050565b5f611818826117fc565b9050919050565b6118288161180e565b82525050565b5f6060820190508181035f830152611846818661173d565b905061185560208301856117d9565b611862604083018461181f565b949350505050565b5f60ff82169050919050565b7f4e487b71000000000000000000000000000000000000000000000000000000005f52601260045260245ffd5b5f6118ad8261186a565b91506118b88361186a565b9250826118c8576118c7611876565b5b828206905092915050565b600581106118e4576118e3611775565b5b50565b5f8190506118f4826118d3565b919050565b5f611903826118e7565b9050919050565b611913816118f9565b82525050565b5f60208201905061192c5f83018461190a565b92915050565b5f80fd5b5f80fd5b7f4e487b71000000000000000000000000000000000000000000000000000000005f52604160045260245ffd5b6119708261172d565b810181811067ffffffffffffffff8211171561198f5761198e61193a565b5b80604052505050565b5f6119a1611634565b90506119ad8282611967565b919050565b5f67ffffffffffffffff8211156119cc576119cb61193a565b5b6119d58261172d565b9050602081019050919050565b5f6119f46119ef846119b2565b611998565b905082815260208101848484011115611a1057611a0f611936565b5b611a1b848285611705565b509392505050565b5f82601f830112611a3757611a36611932565b5b8151611a478482602086016119e2565b91505092915050565b60168110611a5c575f80fd5b50565b5f81519050611a6d81611a50565b92915050565b60068110611a7f575f80fd5b50565b5f81519050611a9081611a73565b92915050565b5f805f60608486031215611aad57611aac61163d565b5b5f84015167ffffffffffffffff811115611aca57611ac9611641565b5b611ad686828701611a23565b9350506020611ae786828701611a5f565b9250506040611af886828701611a82565b9150509250925092565b60058110611b1357611b12611775565b5b50565b5f819050611b2382611b02565b919050565b5f611b3282611b16565b9050919050565b611b4281611b28565b82525050565b5f602082019050611b5b5f830184611b39565b92915050565b60058110611b7257611b71611775565b5b50565b5f819050611b8282611b61565b919050565b5f611b9182611b75565b9050919050565b611ba181611b87565b82525050565b5f602082019050611bba5f830184611b98565b92915050565b60058110611bd157611bd0611775565b5b50565b5f819050611be182611bc0565b919050565b5f611bf082611bd4565b9050919050565b611c0081611be6565b82525050565b5f602082019050611c195f830184611bf7565b92915050565b60028110611c3057611c2f611775565b5b50565b5f819050611c4082611c1f565b919050565b5f611c4f82611c33565b9050919050565b611c5f81611c45565b82525050565b5f602082019050611c785f830184611c56565b92915050565b60058110611c8f57611c8e611775565b5b50565b5f819050611c9f82611c7e565b919050565b5f611cae82611c92565b9050919050565b611cbe81611ca4565b82525050565b5f602082019050611cd75f830184611cb5565b92915050565b60058110611cee57611ced611775565b5b50565b5f819050611cfe82611cdd565b919050565b5f611d0d82611cf1565b9050919050565b611d1d81611d03565b82525050565b5f602082019050611d365f830184611d14565b92915050565b60058110611d4d57611d4c611775565b5b50565b5f819050611d5d82611d3c565b919050565b5f611d6c82611d50565b9050919050565b611d7c81611d62565b82525050565b5f602082019050611d955f830184611d73565b92915050565b60058110611dac57611dab611775565b5b50565b5f819050611dbc82611d9b565b919050565b5f611dcb82611daf565b9050919050565b611ddb81611dc1565b82525050565b5f602082019050611df45f830184611dd2565b92915050565b60058110611e0b57611e0a611775565b5b50565b5f819050611e1b82611dfa565b919050565b5f611e2a82611e0e565b9050919050565b611e3a81611e20565b82525050565b5f602082019050611e535f830184611e31565b92915050565b60058110611e6a57611e69611775565b5b50565b5f819050611e7a82611e59565b919050565b5f611e8982611e6d565b9050919050565b611e9981611e7f565b82525050565b5f602082019050611eb25f830184611e90565b92915050565b60058110611ec957611ec8611775565b5b50565b5f819050611ed982611eb8565b919050565b5f611ee882611ecc565b9050919050565b611ef881611ede565b82525050565b5f602082019050611f115f830184611eef565b92915050565b60058110611f2857611f27611775565b5b50565b5f819050611f3882611f17565b919050565b5f611f4782611f2b565b9050919050565b611f5781611f3d565b82525050565b5f602082019050611f705f830184611f4e565b92915050565b60058110611f8757611f86611775565b5b50565b5f819050611f9782611f76565b919050565b5f611fa682611f8a565b9050919050565b611fb681611f9c565b82525050565b5f602082019050611fcf5f830184611fad565b92915050565b60058110611fe657611fe5611775565b5b50565b5f819050611ff682611fd5565b919050565b5f61200582611fe9565b9050919050565b61201581611ffb565b82525050565b5f60208201905061202e5f83018461200c565b92915050565b6005811061204557612044611775565b5b50565b5f81905061205582612034565b919050565b5f61206482612048565b9050919050565b6120748161205a565b82525050565b5f60208201905061208d5f83018461206b565b92915050565b600581106120a4576120a3611775565b5b50565b5f8190506120b482612093565b919050565b5f6120c3826120a7565b9050919050565b6120d3816120b9565b82525050565b5f6020820190506120ec5f8301846120ca565b92915050565b6005811061210357612102611775565b5b50565b5f819050612113826120f2565b919050565b5f61212282612106565b9050919050565b61213281612118565b82525050565b5f60208201905061214b5f830184612129565b92915050565b6005811061216257612161611775565b5b50565b5f81905061217282612151565b919050565b5f61218182612165565b9050919050565b61219181612177565b82525050565b5f6020820190506121aa5f830184612188565b92915050565b600581106121c1576121c0611775565b5b50565b5f8190506121d1826121b0565b919050565b5f6121e0826121c4565b9050919050565b6121f0816121d6565b82525050565b5f6020820190506122095f8301846121e7565b92915050565b600581106122205761221f611775565b5b50565b5f8190506122308261220f565b919050565b5f61223f82612223565b9050919050565b61224f81612235565b82525050565b5f6020820190506122685f830184612246565b92915050565b7f4e487b71000000000000000000000000000000000000000000000000000000005f52601160045260245ffd5b5f6122a58261186a565b91506122b08361186a565b92508282026122be8161186a565b91508082146122d0576122cf61226e565b5b5092915050565b5f6122e18261186a565b91506122ec8361186a565b9250828203905060ff8111156123055761230461226e565b5b9291505056fea2646970667358221220af2b77393df3600abb07ddb28cdfce64b51493f4008c44ec019d2733cae9150d64736f6c63430008140033",
  "immutableReferences": {},
  "source": "// SPDX-License-Identifier: MIT\npragma solidity ^0.8.0;\n\nimport {Helpers} from './Helpers.sol';\nimport {HeadwearBeanie} from './Headwear/HeadwearBeanie.sol';\nimport {HeadwearHat} from './Headwear/HeadwearHat.sol';\nimport {HeadwearIcecream} from './Headwear/HeadwearIcecream.sol';\nimport {HeadwearPlants} from './Headwear/HeadwearPlants.sol';\nimport {HeadwearSparkles} from './Headwear/HeadwearSparkles.sol';\nimport {HeadwearCrown} from './Headwear/HeadwearCrown.sol';\nimport {HeadwearFloral} from './Headwear/HeadwearFloral.sol';\nimport {HeadwearGlasses} from './Headwear/HeadwearGlasses.sol';\nimport {HeadwearMushroom} from './Headwear/HeadwearMushroom.sol';\nimport {HeadwearNightcap} from './Headwear/HeadwearNightcap.sol';\nimport {HeadwearPartyhat} from './Headwear/HeadwearPartyhat.sol';\nimport {HeadwearBear} from './Headwear/HeadwearBear.sol';\nimport {HeadwearBee} from './Headwear/HeadwearBee.sol';\nimport {HeadwearBirdie} from './Headwear/HeadwearBirdie.sol';\nimport {HeadwearBrains} from './Headwear/HeadwearBrains.sol';\nimport {HeadwearBull} from './Headwear/HeadwearBull.sol';\nimport {HeadwearEarrings} from './Headwear/HeadwearEarrings.sol';\nimport {HeadwearLotus} from './Headwear/HeadwearLotus.sol';\nimport {HeadwearMajor} from './Headwear/HeadwearMajor.sol';\nimport {HeadwearScout} from './Headwear/HeadwearScout.sol';\nimport {HeadwearShaman} from './Headwear/HeadwearShaman.sol';\n\nlibrary Headwear {\n    enum HeadwearVariants {\n        NONE,\n        BEANIE,\n        HAT,\n        PLANTS,\n        SPARKLES,\n        CROWN,\n        FLORAL,\n        GLASSES,\n        MUSHROOM,\n        NIGHTCAP,\n        PARTYHAT,\n        BEAR,\n        BEE,\n        BIRDIE,\n        BRAINS,\n        BULL,\n        EARRINGS,\n        LOTUS,\n        MAJOR,\n        SCOUT,\n        SHAMAN,\n        ICECREAM\n    }\n\n    enum HeadwearColors {\n        NONE,\n        GREEN,\n        PURPLE,\n        BLUE,\n        PINK,\n        GOLD\n    }\n\n    function getHeadwear(\n        uint256 seed,\n        bool isGold\n    ) public pure returns (string memory, HeadwearVariants, HeadwearColors) {\n        // We don't do +1 here to make icecream rare\n        HeadwearVariants variant = HeadwearVariants(\n            Helpers.getVariant(seed, Helpers.ComponentBytes.HEADWEAR) % (uint8(type(HeadwearVariants).max))\n        );\n\n        if (Helpers.getVariant(seed, Helpers.ComponentBytes.HEADWEAR) == 69) {\n            // lucky guy\n            variant = HeadwearVariants.ICECREAM;\n        }\n\n        if (variant == HeadwearVariants.NONE) {\n            return ('', HeadwearVariants.NONE, HeadwearColors.NONE);\n        } else if (variant == HeadwearVariants.BEANIE) {\n            HeadwearBeanie.BeanieColors beanieColor = isGold\n                ? HeadwearBeanie.BeanieColors.GOLD\n                : HeadwearBeanie.BeanieColors(\n                    Helpers.getColor(seed, Helpers.ComponentBytes.HEADWEAR) %\n                        uint8(type(HeadwearBeanie.BeanieColors).max)\n                );\n            return HeadwearBeanie.getBeanie(beanieColor);\n        } else if (variant == HeadwearVariants.HAT) {\n            HeadwearHat.HatColors hatColor = isGold\n                ? HeadwearHat.HatColors.GOLD\n                : HeadwearHat.HatColors(\n                    Helpers.getColor(seed, Helpers.ComponentBytes.HEADWEAR) % uint8(type(HeadwearHat.HatColors).max)\n                );\n            return HeadwearHat.getHat(hatColor);\n        } else if (variant == HeadwearVariants.ICECREAM) {\n            HeadwearIcecream.IcecreamColors icecreamColor = isGold\n                ? HeadwearIcecream.IcecreamColors.GOLD\n                : HeadwearIcecream.IcecreamColors(\n                    Helpers.getColor(seed, Helpers.ComponentBytes.HEADWEAR) %\n                        uint8(type(HeadwearIcecream.IcecreamColors).max)\n                );\n            return HeadwearIcecream.getIcecream(icecreamColor);\n        } else if (variant == HeadwearVariants.PLANTS) {\n            HeadwearPlants.PlantsColors plantsColor = isGold\n                ? HeadwearPlants.PlantsColors.GOLD\n                : HeadwearPlants.PlantsColors(\n                    Helpers.getColor(seed, Helpers.ComponentBytes.HEADWEAR) %\n                        uint8(type(HeadwearPlants.PlantsColors).max)\n                );\n            return HeadwearPlants.getPlants(plantsColor);\n        } else if (variant == HeadwearVariants.SPARKLES) {\n            return\n                HeadwearSparkles.getSparkles(\n                    isGold ? HeadwearSparkles.SparklesColors.GOLD : HeadwearSparkles.SparklesColors.NONE\n                );\n        } else if (variant == HeadwearVariants.CROWN) {\n            HeadwearCrown.CrownColors crownColor = isGold\n                ? HeadwearCrown.CrownColors.GOLD\n                : HeadwearCrown.CrownColors(\n                    Helpers.getColor(seed, Helpers.ComponentBytes.HEADWEAR) % uint8(type(HeadwearCrown.CrownColors).max)\n                );\n            return HeadwearCrown.getCrown(crownColor);\n        } else if (variant == HeadwearVariants.FLORAL) {\n            HeadwearFloral.FloralColors floralColor = isGold\n                ? HeadwearFloral.FloralColors.GOLD\n                : HeadwearFloral.FloralColors(\n                    Helpers.getColor(seed, Helpers.ComponentBytes.HEADWEAR) %\n                        uint8(type(HeadwearFloral.FloralColors).max)\n                );\n            return HeadwearFloral.getFloral(floralColor);\n        } else if (variant == HeadwearVariants.GLASSES) {\n            HeadwearGlasses.GlassesColors glassesColor = isGold\n                ? HeadwearGlasses.GlassesColors.GOLD\n                : HeadwearGlasses.GlassesColors(\n                    Helpers.getColor(seed, Helpers.ComponentBytes.HEADWEAR) %\n                        uint8(type(HeadwearGlasses.GlassesColors).max)\n                );\n            return HeadwearGlasses.getGlasses(glassesColor);\n        } else if (variant == HeadwearVariants.MUSHROOM) {\n            HeadwearMushroom.MushroomColors mushroomColor = isGold\n                ? HeadwearMushroom.MushroomColors.GOLD\n                : HeadwearMushroom.MushroomColors(\n                    Helpers.getColor(seed, Helpers.ComponentBytes.HEADWEAR) %\n                        uint8(type(HeadwearMushroom.MushroomColors).max)\n                );\n            return HeadwearMushroom.getMushroom(mushroomColor);\n        } else if (variant == HeadwearVariants.NIGHTCAP) {\n            HeadwearNightcap.NightcapColors nightcapColor = isGold\n                ? HeadwearNightcap.NightcapColors.GOLD\n                : HeadwearNightcap.NightcapColors(\n                    Helpers.getColor(seed, Helpers.ComponentBytes.HEADWEAR) %\n                        uint8(type(HeadwearNightcap.NightcapColors).max)\n                );\n            return HeadwearNightcap.getNightcap(nightcapColor);\n        } else if (variant == HeadwearVariants.PARTYHAT) {\n            HeadwearPartyhat.PartyhatColors partyhatColor = isGold\n                ? HeadwearPartyhat.PartyhatColors.GOLD\n                : HeadwearPartyhat.PartyhatColors(\n                    Helpers.getColor(seed, Helpers.ComponentBytes.HEADWEAR) %\n                        uint8(type(HeadwearPartyhat.PartyhatColors).max)\n                );\n            return HeadwearPartyhat.getPartyhat(partyhatColor);\n        } else if (variant == HeadwearVariants.BEAR) {\n            HeadwearBear.BearColors bearColor = isGold\n                ? HeadwearBear.BearColors.GOLD\n                : HeadwearBear.BearColors(\n                    Helpers.getColor(seed, Helpers.ComponentBytes.HEADWEAR) % uint8(type(HeadwearBear.BearColors).max)\n                );\n            return HeadwearBear.getBear(bearColor);\n        } else if (variant == HeadwearVariants.BEE) {\n            HeadwearBee.BeeColors beeColor = isGold\n                ? HeadwearBee.BeeColors.GOLD\n                : HeadwearBee.BeeColors(\n                    Helpers.getColor(seed, Helpers.ComponentBytes.HEADWEAR) % uint8(type(HeadwearBee.BeeColors).max)\n                );\n            return HeadwearBee.getBee(beeColor);\n        } else if (variant == HeadwearVariants.BIRDIE) {\n            HeadwearBirdie.BirdieColors birdieColor = isGold\n                ? HeadwearBirdie.BirdieColors.GOLD\n                : HeadwearBirdie.BirdieColors(\n                    Helpers.getColor(seed, Helpers.ComponentBytes.HEADWEAR) %\n                        uint8(type(HeadwearBirdie.BirdieColors).max)\n                );\n            return HeadwearBirdie.getBirdie(birdieColor);\n        } else if (variant == HeadwearVariants.BRAINS) {\n            HeadwearBrains.BrainsColors brainsColor = isGold\n                ? HeadwearBrains.BrainsColors.GOLD\n                : HeadwearBrains.BrainsColors(\n                    Helpers.getColor(seed, Helpers.ComponentBytes.HEADWEAR) %\n                        uint8(type(HeadwearBrains.BrainsColors).max)\n                );\n            return HeadwearBrains.getBrains(brainsColor);\n        } else if (variant == HeadwearVariants.BULL) {\n            HeadwearBull.BullColors bullColor = isGold\n                ? HeadwearBull.BullColors.GOLD\n                : HeadwearBull.BullColors(\n                    Helpers.getColor(seed, Helpers.ComponentBytes.HEADWEAR) % uint8(type(HeadwearBull.BullColors).max)\n                );\n            return HeadwearBull.getBull(bullColor);\n        } else if (variant == HeadwearVariants.EARRINGS) {\n            HeadwearEarrings.EarringsColors earringsColor = isGold\n                ? HeadwearEarrings.EarringsColors.GOLD\n                : HeadwearEarrings.EarringsColors(\n                    Helpers.getColor(seed, Helpers.ComponentBytes.HEADWEAR) %\n                        uint8(type(HeadwearEarrings.EarringsColors).max)\n                );\n            return HeadwearEarrings.getEarrings(earringsColor);\n        } else if (variant == HeadwearVariants.LOTUS) {\n            HeadwearLotus.LotusColors lotusColor = isGold\n                ? HeadwearLotus.LotusColors.GOLD\n                : HeadwearLotus.LotusColors(\n                    Helpers.getColor(seed, Helpers.ComponentBytes.HEADWEAR) % uint8(type(HeadwearLotus.LotusColors).max)\n                );\n            return HeadwearLotus.getLotus(lotusColor);\n        } else if (variant == HeadwearVariants.MAJOR) {\n            HeadwearMajor.MajorColors majorColor = isGold\n                ? HeadwearMajor.MajorColors.GOLD\n                : HeadwearMajor.MajorColors(\n                    Helpers.getColor(seed, Helpers.ComponentBytes.HEADWEAR) % uint8(type(HeadwearMajor.MajorColors).max)\n                );\n            return HeadwearMajor.getMajor(majorColor);\n        } else if (variant == HeadwearVariants.SCOUT) {\n            HeadwearScout.ScoutColors scoutColor = isGold\n                ? HeadwearScout.ScoutColors.GOLD\n                : HeadwearScout.ScoutColors(\n                    Helpers.getColor(seed, Helpers.ComponentBytes.HEADWEAR) % uint8(type(HeadwearScout.ScoutColors).max)\n                );\n            return HeadwearScout.getScout(scoutColor);\n        } else if (variant == HeadwearVariants.SHAMAN) {\n            HeadwearShaman.ShamanColors shamanColor = isGold\n                ? HeadwearShaman.ShamanColors.GOLD\n                : HeadwearShaman.ShamanColors(\n                    Helpers.getColor(seed, Helpers.ComponentBytes.HEADWEAR) %\n                        uint8(type(HeadwearShaman.ShamanColors).max)\n                );\n            return HeadwearShaman.getShaman(shamanColor);\n        } else {\n            revert(); // Avoid warnings.\n        }\n    }\n}\n",
  "sourcePath": "E:\\Blockchain\\EDUIndex\\EduxContract\\contracts\\libraries\\svgs\\Profile\\Headwear.sol",
  "compiler": {
    "name": "solc",
    "version": "0.8.20+commit.a1b79de6.Emscripten.clang"
  },
  "schemaVersion": "3.4.3",
  "updatedAt": "2024-08-25T13:13:21.667Z",
  "devdoc": {
    "kind": "dev",
    "methods": {},
    "version": 1
  },
  "userdoc": {
    "kind": "user",
    "methods": {},
    "version": 1
  }
}