{
  "contractName": "HeadwearBee",
  "abi": [
    {
      "inputs": [
        {
          "internalType": "enum HeadwearBee.BeeColors",
          "name": "beeColor",
          "type": "HeadwearBee.BeeColors"
        }
      ],
      "name": "getBee",
      "outputs": [
        {
          "internalType": "string",
          "name": "",
          "type": "string"
        },
        {
          "internalType": "enum Headwear.HeadwearVariants",
          "name": "",
          "type": "Headwear.HeadwearVariants"
        },
        {
          "internalType": "enum Headwear.HeadwearColors",
          "name": "",
          "type": "Headwear.HeadwearColors"
        }
      ],
      "stateMutability": "pure",
      "type": "function"
    }
  ],
  "bytecode": "0x61158261004e600b8282823980515f1a607314610042577f4e487b71000000000000000000000000000000000000000000000000000000005f525f60045260245ffd5b305f52607381538281f3fe7300000000000000000000000000000000000000003014608060405260043610610034575f3560e01c806384dc7c7414610038575b5f80fd5b610052600480360381019061004d9190610551565b61006a565b604051610061939291906106bf565b60405180910390f35b60605f80610077846100ae565b60405160200161008791906113f2565b604051602081830303815290604052600c6100a1866100ea565b9250925092509193909250565b60605f806100bb846101fb565b9150915081816040516020016100d2929190611500565b60405160208183030381529060405292505050919050565b5f8060048111156100fe576100fd610606565b5b82600481111561011157610110610606565b5b0361011f57600190506101f6565b6002600481111561013357610132610606565b5b82600481111561014657610145610606565b5b0361015457600290506101f6565b6003600481111561016857610167610606565b5b82600481111561017b5761017a610606565b5b0361018957600390506101f6565b6001600481111561019d5761019c610606565b5b8260048111156101b0576101af610606565b5b036101be57600490506101f6565b6004808111156101d1576101d0610606565b5b8260048111156101e4576101e3610606565b5b036101f257600590506101f6565b5f80fd5b919050565b6060805f600481111561021157610210610606565b5b83600481111561022457610223610606565b5b0361029e576040518060400160405280600781526020017f23463446464443000000000000000000000000000000000000000000000000008152506040518060400160405280600781526020017f234130443137300000000000000000000000000000000000000000000000000081525091509150610525565b600260048111156102b2576102b1610606565b5b8360048111156102c5576102c4610606565b5b0361033f576040518060400160405280600781526020017f23463345414646000000000000000000000000000000000000000000000000008152506040518060400160405280600781526020017f234541443746460000000000000000000000000000000000000000000000000081525091509150610525565b6003600481111561035357610352610606565b5b83600481111561036657610365610606565b5b036103e0576040518060400160405280600781526020017f23454346304646000000000000000000000000000000000000000000000000008152506040518060400160405280600781526020017f234439453046460000000000000000000000000000000000000000000000000081525091509150610525565b600160048111156103f4576103f3610606565b5b83600481111561040757610406610606565b5b03610481576040518060400160405280600781526020017f23464645374630000000000000000000000000000000000000000000000000008152506040518060400160405280600781526020017f234646443244440000000000000000000000000000000000000000000000000081525091509150610525565b60048081111561049457610493610606565b5b8360048111156104a7576104a6610606565b5b03610521576040518060400160405280600781526020017f23464645453933000000000000000000000000000000000000000000000000008152506040518060400160405280600781526020017f234638433934340000000000000000000000000000000000000000000000000081525091509150610525565b5f80fd5b915091565b5f80fd5b6005811061053a575f80fd5b50565b5f8135905061054b8161052e565b92915050565b5f602082840312156105665761056561052a565b5b5f6105738482850161053d565b91505092915050565b5f81519050919050565b5f82825260208201905092915050565b5f5b838110156105b3578082015181840152602081019050610598565b5f8484015250505050565b5f601f19601f8301169050919050565b5f6105d88261057c565b6105e28185610586565b93506105f2818560208601610596565b6105fb816105be565b840191505092915050565b7f4e487b71000000000000000000000000000000000000000000000000000000005f52602160045260245ffd5b6016811061064457610643610606565b5b50565b5f81905061065482610633565b919050565b5f61066382610647565b9050919050565b61067381610659565b82525050565b6006811061068a57610689610606565b5b50565b5f81905061069a82610679565b919050565b5f6106a98261068d565b9050919050565b6106b98161069f565b82525050565b5f6060820190508181035f8301526106d781866105ce565b90506106e6602083018561066a565b6106f360408301846106b0565b949350505050565b5f81905092915050565b7f3c73766720786d6c6e733d22687474703a2f2f7777772e77332e6f72672f32305f8201527f30302f737667222077696474683d2232313022206865696768743d223333352260208201527f2066696c6c3d226e6f6e65223e00000000000000000000000000000000000000604082015250565b5f610785604d836106fb565b915061079082610705565b604d82019050919050565b5f6107a58261057c565b6107af81856106fb565b93506107bf818560208601610596565b80840191505092915050565b7f3c7061746820636c6173733d226865616477656172436f6c6f72422220643d225f8201527f6d3135382e37203737202e332e336133352e362033352e362030203020312d3860208201527f20352e366c2d2e312d2e3963302d372d322e332d31342d362e362d31392e357660408201527f2d2e3263322e352d2e3720342e392d312e3820372d332e3320342e3320342e3860608201527f20372031302e3320372e342031385a222f3e3c7061746820636c6173733d226860808201527f65616477656172436f6c6f724c2220643d224d3135312038322e39613337203360a08201527f372030203020312d392e3120336c2d2e322d312e3363302d382d332d31362e3160c08201527f2d382e322d32322e326c2d2e372d2e3361323120323120302030203120382d3260e08201527f2e36682e366132372032372030203020312d2e3620332e3463312e322d2e31206101008201527f322e332d2e3320332e342d2e36762e324133312e382033312e382030203020316101208201527f20313531203832762e395a222f3e3c7061746820636c6173733d2268656164776101408201527f656172436f6c6f72422220643d226d3134312e372038342e362e3220312e33636101608201527f2d32202e332d34202e332d3620306131362031362030203020312d352e342d316101808201527f2e396c312e382d2e32632e372d352e392d312d31322d342e362d31362e366c2d6101a08201527f2e342d2e3361323120323120302030203120352e352d342e386c2e372e3361336101c08201527f342e322033342e3220302030203120382e322032322e325a222f3e3c706174686101e08201527f20636c6173733d226865616477656172436f6c6f724c2220643d224d3133302e6102008201527f35203834632d322e322d312e322d342d332d352e322d352e316131312e3220316102208201527f312e322030203020312d312e312d372e37682e356131392031392030203020316102408201527f20322e362d342e336c2e342e336132322e362032322e3620302030203120342e6102608201527f362031362e366c2d312e382e325a222f3e3c706174682066696c6c3d222366666102808201527f662220643d224d3134302e392035392e356131392e362031392e3620302030206102a08201527f302d31332e3620372e342031392031392030203020302d322e3620342e33682d6102c08201527f2e3561392e3220392e3220302030203120322e332d342e3520382e3420382e346102e08201527f2030203020312d332d392e3720313020313020302030203120372e382d362e336103008201527f20313320313320302030203120313020322e3963302d342e322e312d382e34206103208201527f322e352d31312e346c312e342d312e342e332e326131382031382030203020306103408201527f2d332e362031302e34632d2e3220322e372d2e3220352e342d2e3520382e32686103608201527f2d2e355a222f3e3c706174682066696c6c3d22236666662220643d226d3134306103808201527f2e382036322e392e362d332e33632e332d322e382e332d352e352e352d382e326103a08201527f61313820313820302030203120332e362d31302e346c2d2e332d2e3261392e326103c08201527f20392e3220302030203120392e372d3163332e3320312e38203520352e3620346103e08201527f2e3520392e32682d2e336132312e372032312e372030203020312d31382e33206104008201527f31332e395a222f3e3c7061746820636c6173733d226865616477656172436f6c6104208201527f6f724c2220643d224d3135392035302e3563332e332e37203620322e3520372e6104408201527f3520352e3120312e3520322e3620312e3720352e37203120382e362d2e3620326104608201527f2e382d3220352e352d332e3820372e396133352033352030203020312d342e376104808201527f20352e326c2d2e332d2e34632d2e342d372e362d332d31332e312d372e342d316104a08201527f3861323120323120302030203020372e382d31306c2e332e312d2e3320312e356104c08201527f5a6d322e3720382e39632e312d2e352d2e362d312e342d312e312d312d2e352e6104e08201527f322d2e3620312d2e3220312e332e332e3420312e312e3220312e332d2e335a226105008201527f2f3e3c7061746820636c6173733d2268775374723122207374726f6b652d77696105208201527f6474683d22342220643d224d34392e392038362e346131352e322031352e32206105408201527f3020302031202e342d352e336d322e372d352e3320322e342d332e386d352e326105608201527f2d3463312d3120322e342d312e3820332e382d322e336d372d312e3263312e336105808201527f2d2e3420322e382d2e3320342e3120306d372e3320322e3520332e3520322e316105a08201527f6d372034203420326d372e3520312e3363312e382e3420332e362e3620352e346105c08201527f2e356d34382e382e3461333520333520302030203020342e372d352e3263312e6105e08201527f372d322e3420332e322d3520332e382d38202e372d322e382e352d362d312d386106008201527f2e356131312031312030203020302d372e342d352e316c2e332d312e3561392e6106208201527f3220392e322030203020302d342e352d392e3220392e3220392e3220302030206106408201527f302d31312e3120322e34632d322e3420332d322e3520372e322d322e352031316106608201527f2e346131332031332030203020302d31302d322e39632d332e352e362d362e376106808201527f20332d372e3920362e3361382e3420382e3420302030203020332e3120392e376106a08201527f20392e3220392e322030203020302d322e3320342e35632d2e3620322e352d2e6106c08201527f3220352e34203120372e3720312e3320322e3220332e3120332e3920352e33206106e08201527f352e3161313620313620302030203020352e3420312e396332202e332034202e6107008201527f33203620306132382e322032382e3220302030203020392d3363332d312e35206107208201527f352e372d332e3420382e312d352e365a222f3e3c7061746820636c6173733d226107408201527f68775374723122207374726f6b652d77696474683d22332220643d226d3134356107608201527f2e362034302e382d2e312e326131382031382030203020302d332e362031302e6107808201527f34632d2e3220322e372d2e3220352e342d2e3520382e326132372032372030206107a08201527f3020312d2e3620332e332032312e392032312e392030203020302031382e332d6107c08201527f31346d2d33342e342032322e336132302e342032302e342030203020312031366107e08201527f2e322d31312e37222f3e3c7061746820636c6173733d226877537472312220736108008201527f74726f6b652d77696474683d22332220643d224d3134322036312e3363332e366108208201527f2d332e3220362e342d372e3220382e342d31312e354d3133312e3220353863316108408201527f2e35203120332e3220312e37203520322e316d2d382e3520372e316132322e366108608201527f2032322e3620302030203120342e362031362e366d312e322d32312e346133346108808201527f2e322033342e3220302030203120382e322032322e326d322e362d32322e31616108a08201527f33312e382033312e3820302030203120362e362031392e356d2e342d323373306108c08201527f20302030203063342e3320342e3820372031302e3320372e34203138222f3e3c6108e08201527f706174682066696c6c3d22233030302220643d224d3136302e362035382e33636109008201527f2d2e352e332d2e3620312d2e3220312e342e332e3420312e312e3220312e332d6109208201527f2e332e312d2e352d2e362d312e342d312e312d315a222f3e3c7061746820636c6109408201527f6173733d2268775374723122207374726f6b652d77696474683d22332220643d6109608201527f224d3136302e362035382e33632d2e352e332d2e3620312d2e3220312e342e336109808201527f2e3420312e312e3220312e332d2e332e312d2e352d2e362d312e342d312e312d6109a08201527f315a222f3e3c2f7376673e0000000000000000000000000000000000000000006109c082015250565b5f6113db6109cb836106fb565b91506113e6826107cb565b6109cb82019050919050565b5f6113fc82610779565b9150611408828461079b565b9150611413826113ce565b915081905092915050565b7f3c7374796c653e2e6865616477656172436f6c6f724c207b2066696c6c3a0000815250565b7f7d2e6865616477656172436f6c6f7242207b2066696c6c3a0000000000000000815250565b7f7d2e687753747231207b7374726f6b653a20233030303b7374726f6b652d6c695f8201527f6e656361703a20726f756e643b7374726f6b652d6c696e656a6f696e3a20726f60208201527f756e643b7d3c2f7374796c653e00000000000000000000000000000000000000604082015250565b5f6114ea604d836106fb565b91506114f58261146a565b604d82019050919050565b5f61150a8261141e565b601e8201915061151a828561079b565b915061152582611444565b601882019150611535828461079b565b9150611540826114de565b9150819050939250505056fea2646970667358221220d6da8e608ba0b8511d5c3e208c32970be333a691fed72b1d7822747a36687ab464736f6c63430008140033",
  "immutableReferences": {},
  "source": "// SPDX-License-Identifier: MIT\npragma solidity ^0.8.0;\n\nimport {Headwear} from '../Headwear.sol';\nimport {EduxColors} from '../EduxColors.sol';\n\nlibrary HeadwearBee {\n    enum BeeColors {\n        GREEN,\n        PINK,\n        PURPLE,\n        BLUE,\n        GOLD\n    }\n\n    function getBee(\n        BeeColors beeColor\n    ) external pure returns (string memory, Headwear.HeadwearVariants, Headwear.HeadwearColors) {\n        return (\n            string.concat(\n                '<svg xmlns=\"http://www.w3.org/2000/svg\" width=\"210\" height=\"335\" fill=\"none\">',\n                _getBeeStyle(beeColor),\n                '<path class=\"headwearColorB\" d=\"m158.7 77 .3.3a35.6 35.6 0 0 1-8 5.6l-.1-.9c0-7-2.3-14-6.6-19.5v-.2c2.5-.7 4.9-1.8 7-3.3 4.3 4.8 7 10.3 7.4 18Z\"/><path class=\"headwearColorL\" d=\"M151 82.9a37 37 0 0 1-9.1 3l-.2-1.3c0-8-3-16.1-8.2-22.2l-.7-.3a21 21 0 0 1 8-2.6h.6a27 27 0 0 1-.6 3.4c1.2-.1 2.3-.3 3.4-.6v.2A31.8 31.8 0 0 1 151 82v.9Z\"/><path class=\"headwearColorB\" d=\"m141.7 84.6.2 1.3c-2 .3-4 .3-6 0a16 16 0 0 1-5.4-1.9l1.8-.2c.7-5.9-1-12-4.6-16.6l-.4-.3a21 21 0 0 1 5.5-4.8l.7.3a34.2 34.2 0 0 1 8.2 22.2Z\"/><path class=\"headwearColorL\" d=\"M130.5 84c-2.2-1.2-4-3-5.2-5.1a11.2 11.2 0 0 1-1.1-7.7h.5a19 19 0 0 1 2.6-4.3l.4.3a22.6 22.6 0 0 1 4.6 16.6l-1.8.2Z\"/><path fill=\"#fff\" d=\"M140.9 59.5a19.6 19.6 0 0 0-13.6 7.4 19 19 0 0 0-2.6 4.3h-.5a9.2 9.2 0 0 1 2.3-4.5 8.4 8.4 0 0 1-3-9.7 10 10 0 0 1 7.8-6.3 13 13 0 0 1 10 2.9c0-4.2.1-8.4 2.5-11.4l1.4-1.4.3.2a18 18 0 0 0-3.6 10.4c-.2 2.7-.2 5.4-.5 8.2h-.5Z\"/><path fill=\"#fff\" d=\"m140.8 62.9.6-3.3c.3-2.8.3-5.5.5-8.2a18 18 0 0 1 3.6-10.4l-.3-.2a9.2 9.2 0 0 1 9.7-1c3.3 1.8 5 5.6 4.5 9.2h-.3a21.7 21.7 0 0 1-18.3 13.9Z\"/><path class=\"headwearColorL\" d=\"M159 50.5c3.3.7 6 2.5 7.5 5.1 1.5 2.6 1.7 5.7 1 8.6-.6 2.8-2 5.5-3.8 7.9a35 35 0 0 1-4.7 5.2l-.3-.4c-.4-7.6-3-13.1-7.4-18a21 21 0 0 0 7.8-10l.3.1-.3 1.5Zm2.7 8.9c.1-.5-.6-1.4-1.1-1-.5.2-.6 1-.2 1.3.3.4 1.1.2 1.3-.3Z\"/><path class=\"hwStr1\" stroke-width=\"4\" d=\"M49.9 86.4a15.2 15.2 0 0 1 .4-5.3m2.7-5.3 2.4-3.8m5.2-4c1-1 2.4-1.8 3.8-2.3m7-1.2c1.3-.4 2.8-.3 4.1 0m7.3 2.5 3.5 2.1m7 4 4 2m7.5 1.3c1.8.4 3.6.6 5.4.5m48.8.4a35 35 0 0 0 4.7-5.2c1.7-2.4 3.2-5 3.8-8 .7-2.8.5-6-1-8.5a11 11 0 0 0-7.4-5.1l.3-1.5a9.2 9.2 0 0 0-4.5-9.2 9.2 9.2 0 0 0-11.1 2.4c-2.4 3-2.5 7.2-2.5 11.4a13 13 0 0 0-10-2.9c-3.5.6-6.7 3-7.9 6.3a8.4 8.4 0 0 0 3.1 9.7 9.2 9.2 0 0 0-2.3 4.5c-.6 2.5-.2 5.4 1 7.7 1.3 2.2 3.1 3.9 5.3 5.1a16 16 0 0 0 5.4 1.9c2 .3 4 .3 6 0a28.2 28.2 0 0 0 9-3c3-1.5 5.7-3.4 8.1-5.6Z\"/><path class=\"hwStr1\" stroke-width=\"3\" d=\"m145.6 40.8-.1.2a18 18 0 0 0-3.6 10.4c-.2 2.7-.2 5.4-.5 8.2a27 27 0 0 1-.6 3.3 21.9 21.9 0 0 0 18.3-14m-34.4 22.3a20.4 20.4 0 0 1 16.2-11.7\"/><path class=\"hwStr1\" stroke-width=\"3\" d=\"M142 61.3c3.6-3.2 6.4-7.2 8.4-11.5M131.2 58c1.5 1 3.2 1.7 5 2.1m-8.5 7.1a22.6 22.6 0 0 1 4.6 16.6m1.2-21.4a34.2 34.2 0 0 1 8.2 22.2m2.6-22.1a31.8 31.8 0 0 1 6.6 19.5m.4-23s0 0 0 0c4.3 4.8 7 10.3 7.4 18\"/><path fill=\"#000\" d=\"M160.6 58.3c-.5.3-.6 1-.2 1.4.3.4 1.1.2 1.3-.3.1-.5-.6-1.4-1.1-1Z\"/><path class=\"hwStr1\" stroke-width=\"3\" d=\"M160.6 58.3c-.5.3-.6 1-.2 1.4.3.4 1.1.2 1.3-.3.1-.5-.6-1.4-1.1-1Z\"/></svg>'\n            ),\n            Headwear.HeadwearVariants.BEE,\n            _getHeadwearColor(beeColor)\n        );\n    }\n\n    function _getBeeStyle(BeeColors beeColor) internal pure returns (string memory) {\n        (string memory lightColor, string memory baseColor) = _getBeeColor(beeColor);\n        return\n            string.concat(\n                '<style>.headwearColorL { fill:',\n                lightColor,\n                '}.headwearColorB { fill:',\n                baseColor,\n                '}.hwStr1 {stroke: #000;stroke-linecap: round;stroke-linejoin: round;}</style>'\n            );\n    }\n\n    function _getBeeColor(BeeColors beeColor) internal pure returns (string memory, string memory) {\n        if (beeColor == BeeColors.GREEN) {\n            return (EduxColors.lightGreen, EduxColors.baseGreen);\n        } else if (beeColor == BeeColors.PURPLE) {\n            return (EduxColors.lightPurple, EduxColors.basePurple);\n        } else if (beeColor == BeeColors.BLUE) {\n            return (EduxColors.lightBlue, EduxColors.baseBlue);\n        } else if (beeColor == BeeColors.PINK) {\n            return (EduxColors.lightPink, EduxColors.basePink);\n        } else if (beeColor == BeeColors.GOLD) {\n            return (EduxColors.lightGold, EduxColors.baseGold);\n        } else {\n            revert(); // Avoid warnings.\n        }\n    }\n\n    function _getHeadwearColor(BeeColors beeColor) internal pure returns (Headwear.HeadwearColors) {\n        if (beeColor == BeeColors.GREEN) {\n            return Headwear.HeadwearColors.GREEN;\n        } else if (beeColor == BeeColors.PURPLE) {\n            return Headwear.HeadwearColors.PURPLE;\n        } else if (beeColor == BeeColors.BLUE) {\n            return Headwear.HeadwearColors.BLUE;\n        } else if (beeColor == BeeColors.PINK) {\n            return Headwear.HeadwearColors.PINK;\n        } else if (beeColor == BeeColors.GOLD) {\n            return Headwear.HeadwearColors.GOLD;\n        } else {\n            revert(); // Avoid warnings.\n        }\n    }\n}\n",
  "sourcePath": "E:\\Blockchain\\EDUIndex\\EduxContract\\contracts\\libraries\\svgs\\Profile\\Headwear\\HeadwearBee.sol",
  "compiler": {
    "name": "solc",
    "version": "0.8.20+commit.a1b79de6.Emscripten.clang"
  },
  "schemaVersion": "3.4.3",
  "updatedAt": "2024-08-25T13:13:21.731Z",
  "devdoc": {
    "kind": "dev",
    "methods": {},
    "version": 1
  },
  "userdoc": {
    "kind": "user",
    "methods": {},
    "version": 1
  }
}