{
  "contractName": "HeadwearCrown",
  "abi": [
    {
      "inputs": [
        {
          "internalType": "enum HeadwearCrown.CrownColors",
          "name": "crownColor",
          "type": "HeadwearCrown.CrownColors"
        }
      ],
      "name": "getCrown",
      "outputs": [
        {
          "internalType": "string",
          "name": "",
          "type": "string"
        },
        {
          "internalType": "enum Headwear.HeadwearVariants",
          "name": "",
          "type": "Headwear.HeadwearVariants"
        },
        {
          "internalType": "enum Headwear.HeadwearColors",
          "name": "",
          "type": "Headwear.HeadwearColors"
        }
      ],
      "stateMutability": "pure",
      "type": "function"
    }
  ],
  "bytecode": "0x6118e561004e600b8282823980515f1a607314610042577f4e487b71000000000000000000000000000000000000000000000000000000005f525f60045260245ffd5b305f52607381538281f3fe7300000000000000000000000000000000000000003014608060405260043610610034575f3560e01c8063882c9a4314610038575b5f80fd5b610052600480360381019061004d9190610551565b61006a565b604051610061939291906106bf565b60405180910390f35b60605f80610077846100ae565b60405160200161008791906117c1565b60405160208183030381529060405260056100a1866100ea565b9250925092509193909250565b60605f806100bb846101fb565b9150915081816040516020016100d292919061185f565b60405160208183030381529060405292505050919050565b5f8060048111156100fe576100fd610606565b5b82600481111561011157610110610606565b5b0361011f57600190506101f6565b6001600481111561013357610132610606565b5b82600481111561014657610145610606565b5b0361015457600290506101f6565b6002600481111561016857610167610606565b5b82600481111561017b5761017a610606565b5b0361018957600390506101f6565b6003600481111561019d5761019c610606565b5b8260048111156101b0576101af610606565b5b036101be57600490506101f6565b6004808111156101d1576101d0610606565b5b8260048111156101e4576101e3610606565b5b036101f257600590506101f6565b5f80fd5b919050565b6060805f600481111561021157610210610606565b5b83600481111561022457610223610606565b5b0361029e576040518060400160405280600781526020017f23463446464443000000000000000000000000000000000000000000000000008152506040518060400160405280600781526020017f234130443137300000000000000000000000000000000000000000000000000081525091509150610525565b600160048111156102b2576102b1610606565b5b8360048111156102c5576102c4610606565b5b0361033f576040518060400160405280600781526020017f23463345414646000000000000000000000000000000000000000000000000008152506040518060400160405280600781526020017f234541443746460000000000000000000000000000000000000000000000000081525091509150610525565b6002600481111561035357610352610606565b5b83600481111561036657610365610606565b5b036103e0576040518060400160405280600781526020017f23454346304646000000000000000000000000000000000000000000000000008152506040518060400160405280600781526020017f234439453046460000000000000000000000000000000000000000000000000081525091509150610525565b600360048111156103f4576103f3610606565b5b83600481111561040757610406610606565b5b03610481576040518060400160405280600781526020017f23464645374630000000000000000000000000000000000000000000000000008152506040518060400160405280600781526020017f234646443244440000000000000000000000000000000000000000000000000081525091509150610525565b60048081111561049457610493610606565b5b8360048111156104a7576104a6610606565b5b03610521576040518060400160405280600781526020017f23464645453933000000000000000000000000000000000000000000000000008152506040518060400160405280600781526020017f234638433934340000000000000000000000000000000000000000000000000081525091509150610525565b5f80fd5b915091565b5f80fd5b6005811061053a575f80fd5b50565b5f8135905061054b8161052e565b92915050565b5f602082840312156105665761056561052a565b5b5f6105738482850161053d565b91505092915050565b5f81519050919050565b5f82825260208201905092915050565b5f5b838110156105b3578082015181840152602081019050610598565b5f8484015250505050565b5f601f19601f8301169050919050565b5f6105d88261057c565b6105e28185610586565b93506105f2818560208601610596565b6105fb816105be565b840191505092915050565b7f4e487b71000000000000000000000000000000000000000000000000000000005f52602160045260245ffd5b6016811061064457610643610606565b5b50565b5f81905061065482610633565b919050565b5f61066382610647565b9050919050565b61067381610659565b82525050565b6006811061068a57610689610606565b5b50565b5f81905061069a82610679565b919050565b5f6106a98261068d565b9050919050565b6106b98161069f565b82525050565b5f6060820190508181035f8301526106d781866105ce565b90506106e6602083018561066a565b6106f360408301846106b0565b949350505050565b5f81905092915050565b7f3c73766720786d6c6e733d22687474703a2f2f7777772e77332e6f72672f32305f8201527f30302f737667222077696474683d2232313022206865696768743d223333352260208201527f2066696c6c3d226e6f6e65223e00000000000000000000000000000000000000604082015250565b5f610785604d836106fb565b915061079082610705565b604d82019050919050565b5f6107a58261057c565b6107af81856106fb565b93506107bf818560208601610596565b80840191505092915050565b7f3c7061746820636c6173733d2263726f776e436f6c6f72312220643d224d35345f8201527f2e342035362e34613620362030203020312d332e34203820362036203020302060208201527f312d372e322d332e352036203620302030203120332d372e332036203620302060408201527f30203120372e3620322e385a6d32382e3920342e37762e31632d312e382e372d60608201527f34202e322d352e342d312e32613520352030203020312d2e392d352e3620352060808201527f3520302030203120352d322e372035203520302030203120342e3120332e386360a08201527f2e3420322d2e3320342e372d322e3720352e375a6d32352e362d32302e33613660c08201527f2e3920362e3920302030203120322e3520372e33632d2e3720322e342d33203460e08201527f2e322d3620342e366c2d2e392e3161362e3920362e392030203020312d362d346101008201527f2e39632d2e372d322e362e342d352e3720322e372d372e3261362e3820362e386101208201527f20302030203120372e3720305a6d31372e372032302e34632d322e342d312d336101408201527f2e312d332e372d322e372d352e376135203520302030203120342e312d332e386101608201527f63322d2e3220342031203520322e37613520352030203020312d2e3920352e366101808201527f20352e3120352e312030203020312d352e3420312e32682d2e315a6d33362e356101a08201527f2d372e366136203620302030203120332e3120372e33203620362030203020316101c08201527f2d372e3220332e3420352e3820352e382030203020312d332e342d372e3920366101e08201527f203620302030203120372e352d322e385a222f3e3c706174682066696c6c3d226102008201527f236666662220643d224d3133312e332039342e37613520352030203020312d326102208201527f2e3720352e32203520352030203020312d352e382d312e3220352e3220352e326102408201527f2030203020312d2e372d352e39632e382d312e3520322e362d322e3520352d326102608201527f2e3220322e312e322034203220342e3220345a222f3e3c7061746820636c61736102808201527f733d2263726f776e436f6c6f72322220643d224d3131322e38203931632d322e6102a08201527f3420322e362d352e3220342e382d372e3820372e312d322e362d322e332d352e6102c08201527f342d342e352d372e382d372e3120322e332d332e3620352e332d362e3820372e6102e08201527f382d31302e3220322e3520332e3420352e3520362e3620372e382031302e325a6103008201527f222f3e3c706174682066696c6c3d22236666662220643d224d38372e392039326103208201527f2e38633120312e382e3820342e332d2e3620352e3961352e3220352e322030206103408201527f3020312d352e3920312e32203520352030203020312d322e372d352e322035206103608201527f3520302030203120342e322d342e3163322e342d2e3320342e322e37203520326103808201527f2e325a222f3e3c7061746820636c6173733d2263726f776e436f6c6f723122206103a08201527f643d224d3130352e362035332e366139372e372039372e3720302030203020396103c08201527f2e362032322e3563312e3220322e3120322e3620342e3320342e3620352e38206103e08201527f3220312e3520342e3620322e3220372e3120322e332034202e3220372e382d316104008201527f2031312e322d3320332e342d312e3920362e352d342e3420392e352d362e38206104208201527f332e372d332e3120372e352d362e322031312d392e362d342031342d392e32206104408201527f32372e352d31352e392034302e36613138372e32203138372e322030203020316104608201527f2d33372e3120322e35682d312e32632d31332e3320302d32342e3720302d33376104808201527f2e312d322e35613232392e34203232392e342030203020312d31362d34302e366104a08201527f63332e3620332e3420372e3420362e352031312e3120392e36203320322e34206104c08201527f36203520392e3520362e3820332e34203220372e3320332e322031312e3220336104e08201527f20322e35203020352d2e3820372d322e3320322d312e3520332e352d332e37206105008201527f342e372d352e3820342d3720372e322d313420392e362d32322e356c2e312d2e6105208201527f386831762e385a6d32332034362e336135203520302030203020322e372d352e6105408201527f32203520352030203020302d342e322d342e31632d322e342d2e332d342e322e6105608201527f372d3520322e322d3120312e382d2e3820342e332e3720352e3920312e3420316105808201527f2e3620332e38203220352e3820312e325a4d31303520393863322e362d322e336105a08201527f20352e342d342e3520372e382d372e312d322e332d332e362d352e332d362e386105c08201527f2d372e382d31302e322d322e3520332e342d352e3520362e362d372e382031306105e08201527f2e3220322e3420322e3620352e3220342e3820372e3820372e315a6d2d31372e6106008201527f372e3663312e342d312e3620312e362d34202e362d352e392d2e382d312e352d6106208201527f322e362d322e352d352d322e32613520352030203020302d342e3220342035206106408201527f3520302030203020322e3720352e336332202e3920342e342e3420352e392d316106608201527f2e325a222f3e3c70617468207374726f6b653d222330303022207374726f6b656106808201527f2d6c696e656361703d22726f756e6422207374726f6b652d6c696e656a6f696e6106a08201527f3d22726f756e6422207374726f6b652d77696474683d22342220643d224d31306106c08201527f342e342035332e366139382e322039382e322030203020312d392e362032322e6106e08201527f352031382e342031382e342030203020312d342e3620352e38632d3220312e356107008201527f2d342e3620322e322d372e3120322e332d34202e322d372e382d312d31312e326107208201527f2d332d332e342d312e392d362e352d342e342d392e352d362e382d332e372d336107408201527f2e312d372e352d362e322d31312d392e36203420313420392e322032372e35206107608201527f31352e392034302e364337392e372031303820393120313038203130342e34206107808201527f313038222f3e3c70617468207374726f6b653d222330303022207374726f6b656107a08201527f2d6c696e656361703d22726f756e6422207374726f6b652d6c696e656a6f696e6107c08201527f3d22726f756e6422207374726f6b652d77696474683d22342220643d224d38336107e08201527f2e312037312e3761363220363220302030203020312e322d382e3573302030206108008201527f302030682e3163322e3420312e36203620332e3620382e3820342e336d2d392e6108208201527f392d352e33632d312e382e372d34202e322d352e342d312e32613520352030206108408201527f3020312d2e392d352e362035203520302030203120352d322e372035203520306108608201527f2030203120342e3120332e38632e3420322d2e3320342e372d322e3720352e376108808201527f20302030203020302030203068305a4d35312036342e336136203620302030206108a08201527f312d372e322d332e342036203620302030203120332d372e33203620362030206108c08201527f30203120372e3620322e38203620362030203020312d332e3420385a6d35332e6108e08201527f352d31312e3561362e3920362e392030203020312d362d342e39632d2e372d326109008201527f2e362e342d352e3720322e372d372e3261362e3820362e3820302030203120376109208201527f2e37203020362e3920362e3920302030203120322e3520372e34632d2e3720326109408201527f2e342d3320342e322d3620342e366c2d2e392e315a4d38322e392039302e36616109608201527f3520352030203020302d342e3220342035203520302030203020322e3720352e6109808201527f336332202e3920342e342e3420352e392d312e3220312e342d312e3620312e366109a08201527f2d34202e362d352e392d2e382d312e352d322e362d322e352d352d322e325a6d6109c08201527f32322e312d392e38632d322e3520332e342d352e3520362e362d372e382031306109e08201527f2e3220322e3420322e3620352e3220342e3820372e3820372e316d2e362d3434610a008201527f2e356139372e372039372e3720302030203020392e362032322e3563312e3220610a208201527f322e3120322e3620342e3320342e3620352e38203220312e3520342e3620322e610a408201527f3220372e3120322e332034202e3220372e382d312031312e322d3320332e342d610a608201527f312e3920362e352d342e3420392e352d362e3820332e372d332e3120372e352d610a808201527f362e322031312d392e362d342031342d392e322032372e352d31352e39203430610aa08201527f2e36613138372e32203138372e322030203020312d33372e3120322e35222f3e610ac08201527f3c70617468207374726f6b653d222330303022207374726f6b652d6c696e6563610ae08201527f61703d22726f756e6422207374726f6b652d6c696e656a6f696e3d22726f756e610b008201527f6422207374726f6b652d77696474683d22342220643d224d3132352e36203633610b208201527f2e326133302033302030203020312d382e3720342e326d313020342e33613632610b408201527f2036322030203020312d312e322d382e357330203020302030682d2e316d312e610b608201527f312d3163312e382e372034202e3220352e342d312e3261352035203020302030610b808201527f202e392d352e36203520352030203020302d352d322e37203520352030203020610ba08201527f302d342e3120332e38632d2e342032202e3320342e3720322e3720352e376830610bc08201527f7630733020302030203068305a6d33322e3320322e3161362036203020302030610be08201527f20372e322d332e34203620362030203020302d332d372e332036203620302030610c008201527f20302d372e3620322e3820352e3820352e3820302030203020332e3420385a6d610c208201527f2d33312e392032362e3363322e312e322034203220342e322034613520352030610c408201527f203020312d322e3720352e33203520352030203020312d352e382d312e322035610c608201527f2e3220352e322030203020312d2e372d352e39632e382d312e3520322e362d32610c808201527f2e3520352d322e325a4d3130352038302e3863322e3520332e3420352e352036610ca08201527f2e3620372e382031302e322d322e3420322e362d352e3220342e382d372e3820610cc08201527f372e31222f3e3c2f7376673e0000000000000000000000000000000000000000610ce082015250565b5f6117aa610cec836106fb565b91506117b5826107cb565b610cec82019050919050565b5f6117cb82610779565b91506117d7828461079b565b91506117e28261179d565b915081905092915050565b7f3c7374796c653e2e63726f776e436f6c6f7231207b2066696c6c3a0000000000815250565b7f7d2e63726f776e436f6c6f7232207b2066696c6c3a0000000000000000000000815250565b7f7d3c2f7374796c653e0000000000000000000000000000000000000000000000815250565b5f611869826117ed565b601b82019150611879828561079b565b915061188482611813565b601582019150611894828461079b565b915061189f82611839565b600982019150819050939250505056fea2646970667358221220bbb2b3026fe90e5ca7282f7d3a5e558f1d50609eb0a9eb26f1ae032a813f509564736f6c63430008140033",
  "immutableReferences": {},
  "source": "// SPDX-License-Identifier: MIT\npragma solidity ^0.8.0;\n\nimport {Headwear} from '../Headwear.sol';\nimport {EduxColors} from '../EduxColors.sol';\n\nlibrary HeadwearCrown {\n    enum CrownColors {\n        GREEN,\n        PURPLE,\n        BLUE,\n        PINK,\n        GOLD\n    }\n\n    function getCrown(\n        CrownColors crownColor\n    ) external pure returns (string memory, Headwear.HeadwearVariants, Headwear.HeadwearColors) {\n        return (\n            string.concat(\n                '<svg xmlns=\"http://www.w3.org/2000/svg\" width=\"210\" height=\"335\" fill=\"none\">',\n                _getCrownStyle(crownColor),\n                '<path class=\"crownColor1\" d=\"M54.4 56.4a6 6 0 0 1-3.4 8 6 6 0 0 1-7.2-3.5 6 6 0 0 1 3-7.3 6 6 0 0 1 7.6 2.8Zm28.9 4.7v.1c-1.8.7-4 .2-5.4-1.2a5 5 0 0 1-.9-5.6 5 5 0 0 1 5-2.7 5 5 0 0 1 4.1 3.8c.4 2-.3 4.7-2.7 5.7Zm25.6-20.3a6.9 6.9 0 0 1 2.5 7.3c-.7 2.4-3 4.2-6 4.6l-.9.1a6.9 6.9 0 0 1-6-4.9c-.7-2.6.4-5.7 2.7-7.2a6.8 6.8 0 0 1 7.7 0Zm17.7 20.4c-2.4-1-3.1-3.7-2.7-5.7a5 5 0 0 1 4.1-3.8c2-.2 4 1 5 2.7a5 5 0 0 1-.9 5.6 5.1 5.1 0 0 1-5.4 1.2h-.1Zm36.5-7.6a6 6 0 0 1 3.1 7.3 6 6 0 0 1-7.2 3.4 5.8 5.8 0 0 1-3.4-7.9 6 6 0 0 1 7.5-2.8Z\"/><path fill=\"#fff\" d=\"M131.3 94.7a5 5 0 0 1-2.7 5.2 5 5 0 0 1-5.8-1.2 5.2 5.2 0 0 1-.7-5.9c.8-1.5 2.6-2.5 5-2.2 2.1.2 4 2 4.2 4Z\"/><path class=\"crownColor2\" d=\"M112.8 91c-2.4 2.6-5.2 4.8-7.8 7.1-2.6-2.3-5.4-4.5-7.8-7.1 2.3-3.6 5.3-6.8 7.8-10.2 2.5 3.4 5.5 6.6 7.8 10.2Z\"/><path fill=\"#fff\" d=\"M87.9 92.8c1 1.8.8 4.3-.6 5.9a5.2 5.2 0 0 1-5.9 1.2 5 5 0 0 1-2.7-5.2 5 5 0 0 1 4.2-4.1c2.4-.3 4.2.7 5 2.2Z\"/><path class=\"crownColor1\" d=\"M105.6 53.6a97.7 97.7 0 0 0 9.6 22.5c1.2 2.1 2.6 4.3 4.6 5.8 2 1.5 4.6 2.2 7.1 2.3 4 .2 7.8-1 11.2-3 3.4-1.9 6.5-4.4 9.5-6.8 3.7-3.1 7.5-6.2 11-9.6-4 14-9.2 27.5-15.9 40.6a187.2 187.2 0 0 1-37.1 2.5h-1.2c-13.3 0-24.7 0-37.1-2.5a229.4 229.4 0 0 1-16-40.6c3.6 3.4 7.4 6.5 11.1 9.6 3 2.4 6 5 9.5 6.8 3.4 2 7.3 3.2 11.2 3 2.5 0 5-.8 7-2.3 2-1.5 3.5-3.7 4.7-5.8 4-7 7.2-14 9.6-22.5l.1-.8h1v.8Zm23 46.3a5 5 0 0 0 2.7-5.2 5 5 0 0 0-4.2-4.1c-2.4-.3-4.2.7-5 2.2-1 1.8-.8 4.3.7 5.9 1.4 1.6 3.8 2 5.8 1.2ZM105 98c2.6-2.3 5.4-4.5 7.8-7.1-2.3-3.6-5.3-6.8-7.8-10.2-2.5 3.4-5.5 6.6-7.8 10.2 2.4 2.6 5.2 4.8 7.8 7.1Zm-17.7.6c1.4-1.6 1.6-4 .6-5.9-.8-1.5-2.6-2.5-5-2.2a5 5 0 0 0-4.2 4 5 5 0 0 0 2.7 5.3c2 .9 4.4.4 5.9-1.2Z\"/><path stroke=\"#000\" stroke-linecap=\"round\" stroke-linejoin=\"round\" stroke-width=\"4\" d=\"M104.4 53.6a98.2 98.2 0 0 1-9.6 22.5 18.4 18.4 0 0 1-4.6 5.8c-2 1.5-4.6 2.2-7.1 2.3-4 .2-7.8-1-11.2-3-3.4-1.9-6.5-4.4-9.5-6.8-3.7-3.1-7.5-6.2-11-9.6 4 14 9.2 27.5 15.9 40.6C79.7 108 91 108 104.4 108\"/><path stroke=\"#000\" stroke-linecap=\"round\" stroke-linejoin=\"round\" stroke-width=\"4\" d=\"M83.1 71.7a62 62 0 0 0 1.2-8.5s0 0 0 0h.1c2.4 1.6 6 3.6 8.8 4.3m-9.9-5.3c-1.8.7-4 .2-5.4-1.2a5 5 0 0 1-.9-5.6 5 5 0 0 1 5-2.7 5 5 0 0 1 4.1 3.8c.4 2-.3 4.7-2.7 5.7 0 0 0 0 0 0h0ZM51 64.3a6 6 0 0 1-7.2-3.4 6 6 0 0 1 3-7.3 6 6 0 0 1 7.6 2.8 6 6 0 0 1-3.4 8Zm53.5-11.5a6.9 6.9 0 0 1-6-4.9c-.7-2.6.4-5.7 2.7-7.2a6.8 6.8 0 0 1 7.7 0 6.9 6.9 0 0 1 2.5 7.4c-.7 2.4-3 4.2-6 4.6l-.9.1ZM82.9 90.6a5 5 0 0 0-4.2 4 5 5 0 0 0 2.7 5.3c2 .9 4.4.4 5.9-1.2 1.4-1.6 1.6-4 .6-5.9-.8-1.5-2.6-2.5-5-2.2Zm22.1-9.8c-2.5 3.4-5.5 6.6-7.8 10.2 2.4 2.6 5.2 4.8 7.8 7.1m.6-44.5a97.7 97.7 0 0 0 9.6 22.5c1.2 2.1 2.6 4.3 4.6 5.8 2 1.5 4.6 2.2 7.1 2.3 4 .2 7.8-1 11.2-3 3.4-1.9 6.5-4.4 9.5-6.8 3.7-3.1 7.5-6.2 11-9.6-4 14-9.2 27.5-15.9 40.6a187.2 187.2 0 0 1-37.1 2.5\"/><path stroke=\"#000\" stroke-linecap=\"round\" stroke-linejoin=\"round\" stroke-width=\"4\" d=\"M125.6 63.2a30 30 0 0 1-8.7 4.2m10 4.3a62 62 0 0 1-1.2-8.5s0 0 0 0h-.1m1.1-1c1.8.7 4 .2 5.4-1.2a5 5 0 0 0 .9-5.6 5 5 0 0 0-5-2.7 5 5 0 0 0-4.1 3.8c-.4 2 .3 4.7 2.7 5.7h0v0s0 0 0 0h0Zm32.3 2.1a6 6 0 0 0 7.2-3.4 6 6 0 0 0-3-7.3 6 6 0 0 0-7.6 2.8 5.8 5.8 0 0 0 3.4 8Zm-31.9 26.3c2.1.2 4 2 4.2 4a5 5 0 0 1-2.7 5.3 5 5 0 0 1-5.8-1.2 5.2 5.2 0 0 1-.7-5.9c.8-1.5 2.6-2.5 5-2.2ZM105 80.8c2.5 3.4 5.5 6.6 7.8 10.2-2.4 2.6-5.2 4.8-7.8 7.1\"/></svg>'\n            ),\n            Headwear.HeadwearVariants.CROWN,\n            _getHeadwearColor(crownColor)\n        );\n    }\n\n    function _getCrownStyle(CrownColors crownColor) internal pure returns (string memory) {\n        (string memory primaryColor, string memory secondaryColor) = _getCrownColor(crownColor);\n        return\n            string.concat(\n                '<style>.crownColor1 { fill:',\n                primaryColor,\n                '}.crownColor2 { fill:',\n                secondaryColor,\n                '}</style>'\n            );\n    }\n\n    function _getCrownColor(CrownColors crownColor) internal pure returns (string memory, string memory) {\n        if (crownColor == CrownColors.GREEN) {\n            return (EduxColors.lightGreen, EduxColors.baseGreen);\n        } else if (crownColor == CrownColors.PURPLE) {\n            return (EduxColors.lightPurple, EduxColors.basePurple);\n        } else if (crownColor == CrownColors.BLUE) {\n            return (EduxColors.lightBlue, EduxColors.baseBlue);\n        } else if (crownColor == CrownColors.PINK) {\n            return (EduxColors.lightPink, EduxColors.basePink);\n        } else if (crownColor == CrownColors.GOLD) {\n            return (EduxColors.lightGold, EduxColors.baseGold);\n        } else {\n            revert(); // Avoid warnings.\n        }\n    }\n\n    function _getHeadwearColor(CrownColors crownColor) internal pure returns (Headwear.HeadwearColors) {\n        if (crownColor == CrownColors.GREEN) {\n            return Headwear.HeadwearColors.GREEN;\n        } else if (crownColor == CrownColors.PURPLE) {\n            return Headwear.HeadwearColors.PURPLE;\n        } else if (crownColor == CrownColors.BLUE) {\n            return Headwear.HeadwearColors.BLUE;\n        } else if (crownColor == CrownColors.PINK) {\n            return Headwear.HeadwearColors.PINK;\n        } else if (crownColor == CrownColors.GOLD) {\n            return Headwear.HeadwearColors.GOLD;\n        } else {\n            revert(); // Avoid warnings.\n        }\n    }\n}\n",
  "sourcePath": "E:\\Blockchain\\EDUIndex\\EduxContract\\contracts\\libraries\\svgs\\Profile\\Headwear\\HeadwearCrown.sol",
  "compiler": {
    "name": "solc",
    "version": "0.8.20+commit.a1b79de6.Emscripten.clang"
  },
  "schemaVersion": "3.4.3",
  "updatedAt": "2024-08-25T13:13:21.790Z",
  "devdoc": {
    "kind": "dev",
    "methods": {},
    "version": 1
  },
  "userdoc": {
    "kind": "user",
    "methods": {},
    "version": 1
  }
}