{
  "contractName": "HeadwearIcecream",
  "abi": [
    {
      "inputs": [
        {
          "internalType": "enum HeadwearIcecream.IcecreamColors",
          "name": "iceCreamColor",
          "type": "HeadwearIcecream.IcecreamColors"
        }
      ],
      "name": "getIcecream",
      "outputs": [
        {
          "internalType": "string",
          "name": "",
          "type": "string"
        },
        {
          "internalType": "enum Headwear.HeadwearVariants",
          "name": "",
          "type": "Headwear.HeadwearVariants"
        },
        {
          "internalType": "enum Headwear.HeadwearColors",
          "name": "",
          "type": "Headwear.HeadwearColors"
        }
      ],
      "stateMutability": "pure",
      "type": "function"
    }
  ],
  "bytecode": "0x611a0061004e600b8282823980515f1a607314610042577f4e487b71000000000000000000000000000000000000000000000000000000005f525f60045260245ffd5b305f52607381538281f3fe7300000000000000000000000000000000000000003014608060405260043610610034575f3560e01c80630709e24c14610038575b5f80fd5b610052600480360381019061004d91906103fc565b61006a565b6040516100619392919061056a565b60405180910390f35b60605f80610077846100ae565b604051602001610087919061199e565b60405160208183030381529060405260156100a1866102c4565b9250925092509193909250565b60605f60048111156100c3576100c26104b1565b5b8260048111156100d6576100d56104b1565b5b03610118576040518060400160405280600781526020017f234130443137300000000000000000000000000000000000000000000000000081525090506102bf565b6001600481111561012c5761012b6104b1565b5b82600481111561013f5761013e6104b1565b5b03610181576040518060400160405280600781526020017f234646443244440000000000000000000000000000000000000000000000000081525090506102bf565b60036004811115610195576101946104b1565b5b8260048111156101a8576101a76104b1565b5b036101ea576040518060400160405280600781526020017f234541443746460000000000000000000000000000000000000000000000000081525090506102bf565b600260048111156101fe576101fd6104b1565b5b826004811115610211576102106104b1565b5b03610253576040518060400160405280600781526020017f234439453046460000000000000000000000000000000000000000000000000081525090506102bf565b600480811115610266576102656104b1565b5b826004811115610279576102786104b1565b5b036102bb576040518060400160405280600781526020017f234638433934340000000000000000000000000000000000000000000000000081525090506102bf565b5f80fd5b919050565b5f8060048111156102d8576102d76104b1565b5b8260048111156102eb576102ea6104b1565b5b036102f957600190506103d0565b6001600481111561030d5761030c6104b1565b5b8260048111156103205761031f6104b1565b5b0361032e57600490506103d0565b60036004811115610342576103416104b1565b5b826004811115610355576103546104b1565b5b0361036357600290506103d0565b60026004811115610377576103766104b1565b5b82600481111561038a576103896104b1565b5b0361039857600390506103d0565b6004808111156103ab576103aa6104b1565b5b8260048111156103be576103bd6104b1565b5b036103cc57600590506103d0565b5f80fd5b919050565b5f80fd5b600581106103e5575f80fd5b50565b5f813590506103f6816103d9565b92915050565b5f60208284031215610411576104106103d5565b5b5f61041e848285016103e8565b91505092915050565b5f81519050919050565b5f82825260208201905092915050565b5f5b8381101561045e578082015181840152602081019050610443565b5f8484015250505050565b5f601f19601f8301169050919050565b5f61048382610427565b61048d8185610431565b935061049d818560208601610441565b6104a681610469565b840191505092915050565b7f4e487b71000000000000000000000000000000000000000000000000000000005f52602160045260245ffd5b601681106104ef576104ee6104b1565b5b50565b5f8190506104ff826104de565b919050565b5f61050e826104f2565b9050919050565b61051e81610504565b82525050565b60068110610535576105346104b1565b5b50565b5f81905061054582610524565b919050565b5f61055482610538565b9050919050565b6105648161054a565b82525050565b5f6060820190508181035f8301526105828186610479565b90506105916020830185610515565b61059e604083018461055b565b949350505050565b5f81905092915050565b7f3c73766720786d6c6e733d22687474703a2f2f7777772e77332e6f72672f32305f8201527f30302f737667222077696474683d2232313022206865696768743d223333352260208201527f2066696c6c3d226e6f6e65223e3c7374796c653e2e696365436f6c6f72207b6660408201527f696c6c3a00000000000000000000000000000000000000000000000000000000606082015250565b5f6106566064836105a6565b9150610661826105b0565b606482019050919050565b5f61067682610427565b61068081856105a6565b9350610690818560208601610441565b80840191505092915050565b7f7d3c2f7374796c653e3c70617468207374726f6b653d222330303022207374725f8201527f6f6b652d6c696e656361703d22726f756e6422207374726f6b652d6c696e656a60208201527f6f696e3d22726f756e6422207374726f6b652d77696474683d22342220643d2260408201527f4d39382036362e3573342e322d2e3520372d2e3563322e36203020362e382e3560608201527f20362e382e35222f3e3c706174682066696c6c3d22233733354334432220643d60808201527f224d39312e322031392e3663372e3120312e3920313320382e362031342e322060a08201527f31362d342d342e392d31302d382e392d31362d313120302d322e342e372d332e60c08201527f3820312e382d355a222f3e3c706174682066696c6c3d22236666662220643d2260e08201527f4d3134362e382039312e396331332e332d362033302e352d342e362034322e346101008201527f20332e396134332034332030203020312031372032362e37632d2e352d322d316101208201527f2e322d342e312d322e322d366132302e332032302e332030203020302d31332e6101408201527f332d31302e36632d362e362d312e342d31332e3320312d31392e3320342d362e6101608201527f3120322e382d31322e3220362e322d31382e3920362e362d382e312e362d31366101808201527f2d332e322d32332e342d362e372d372e342d332e352d31362d352e312d32342e6101a08201527f312d352e31682d312e366135372035372030203020302d32322e352035632d376101c08201527f2e3520332e352d31352e3320372e342d32332e3420362e382d362e372d2e342d6101e08201527f31322e382d332e382d31382e392d362e372d362d322e382d31322e372d352e336102008201527f2d31392e332d344132302e332032302e332030203020302036203131362e36636102208201527f2d3120312e392d312e3720332e392d322e3220366134332034332030203020316102408201527f2031372d32362e374134342e312034342e312030203020312036332e332039326102608201527f2033322e392033322e392030203020312038302037312e386c32202e376135206102808201527f3520302030203120332e362d2e3863322e352e3420342e3520322e33203720326102a08201527f2e3520322e312e3220342e312d2e3920362d312e3820312e372d2e3820342d316102c08201527f2e3120352e382d312e32682e386332203020342e322e3320362e3120312e32206102e08201527f32203120342032203620312e3820322e362d2e3220342e362d3220372e312d326103008201527f2e346136203620302030203120342e3920312e366c2e372d312e366133312e336103208201527f2033312e332030203020312031362e382032305a222f3e3c7061746820636c616103408201527f73733d22696365436f6c6f722220643d224d3130342e342037312e32613135206103608201527f31352030203020302d352e3720312e32632d3220312d3420322d3620312e382d6103808201527f322e362d2e322d342e362d322e312d372e312d322e352d312e332d2e312d322e6103a08201527f352e312d332e372e386c2d322d2e3720312e322d2e356132362e312032362e316103c08201527f20302030203120322d32342e344132362e372032362e372030203020312031306103e08201527f352033352e36203237203237203020302031203132372034376132362e3120326104008201527f362e3120302030203120322032342e336c31202e352d2e3720312e36613620366104208201527f2030203020302d342e392d312e36632d322e352e332d342e3520322e322d37206104408201527f322e342d322e312e322d342e312d2e392d362d312e382d322d312d342e322d316104608201527f2e312d362e322d312e31682d2e385a222f3e3c636972636c652063783d22322e6104808201527f35222063793d22322e352220723d22322e35222066696c6c3d222366666622206104a08201527f66696c6c2d6f7061636974793d222e3522207472616e73666f726d3d226d61746104c08201527f726978282d31203020302031203132362e3220353929222f3e3c7061746820666104e08201527f696c6c3d2223666666222066696c6c2d6f7061636974793d222e352220643d226105008201527f4d3132332e382035332e3661332e3120332e312030203020312d352e3720322e6105208201527f365635366131342e382031342e382030203020302d312d312e37632d2e362d316105408201527f2d312e352d322e322d322e332d322e392d312d2e372d312e372d312e322d322e6105608201527f342d312e356c2d312d2e36632d312d2e352d312e342d312e362d312d322e356c6105808201527f2e322d2e32632e342d3120302d322d312d322e322d312e322d2e322d322e322d6105a08201527f2e322d332e322d2e3161312e3120312e312030203020312d2e332d322e3320316105c08201527f352031352030203020312031302e3620336c322e3120312e366131382e3620316105e08201527f382e3620302030203120342e3920362e37762e32222f3e3c70617468207374726106008201527f6f6b653d222330303022207374726f6b652d6c696e656361703d22726f756e646106208201527f22207374726f6b652d6c696e656a6f696e3d22726f756e6422207374726f6b656106408201527f2d77696474683d22342220643d224d36332e332039324133322e392033322e396106608201527f2030203020312038302037312e396c312d2e354d36312e392039392e386133336106808201527f20333320302030203120312e342d372e374d332e38203132322e35632e352d326106a08201527f2e3120312e322d342e3120322e322d3620322e372d352e3220372e362d392e346106c08201527f2031332e332d31302e3620362e362d312e342031332e3320312031392e3320346106e08201527f20362e3120322e382031322e3220362e322031382e3920362e3620382e312e366107008201527f2031362d332e332032332e342d362e376135372035372030203020312032342d6107208201527f352e314d332e38203132322e36762d2e31222f3e3c70617468207374726f6b656107408201527f3d222330303022207374726f6b652d6c696e656361703d22726f756e642220736107608201527f74726f6b652d6c696e656a6f696e3d22726f756e6422207374726f6b652d77696107808201527f6474683d22342220643d224d36332e3320393268306134342e352034342e35206107a08201527f30203020302d34322e3520332e382034332034332030203020302d31372032366107c08201527f2e37222f3e3c70617468207374726f6b653d222330303022207374726f6b652d6107e08201527f6c696e656361703d22726f756e6422207374726f6b652d6c696e656a6f696e3d6108008201527f22726f756e6422207374726f6b652d77696474683d22332e322220643d224d376108208201527f392e352037322e3463322e352d312e3320342e382d2e3820362e312d2e3720326108408201527f2e352e3420342e3520322e33203720322e3520322e312e3220342e312d2e39206108608201527f362d312e3820312e372d2e3820342d312e3120352e382d312e32682e38222f3e6108808201527f3c70617468207374726f6b653d222330303022207374726f6b652d6c696e65636108a08201527f61703d22726f756e6422207374726f6b652d6c696e656a6f696e3d22726f756e6108c08201527f6422207374726f6b652d77696474683d22342220643d224d3130352033352e366108e08201527f632d382e3520302d31372e3320342e322d32322031312e336132362e312032366109008201527f2e312030203020302d322032342e34222f3e3c70617468207374726f6b653d226109208201527f2330303022207374726f6b652d6c696e656361703d22726f756e6422207374726109408201527f6f6b652d6c696e656a6f696e3d22726f756e6422207374726f6b652d776964746109608201527f683d22332e322220643d224d3130352e342033352e36632d312e322d372e342d6109808201527f372d31342e312d31342e322d313661372e3220372e322030203020302d312e396109a08201527f203563362e3120322e3120313220362e312031362e312031315a222f3e3c70616109c08201527f7468207374726f6b653d222330303022207374726f6b652d6c696e656361703d6109e08201527f22726f756e6422207374726f6b652d6c696e656a6f696e3d22726f756e642220610a008201527f7374726f6b652d77696474683d22342220643d224d3134382e312039392e3861610a208201527f33372033372030203020302d312e332d382033312e332033312e332030203020610a408201527f302d31362e382d32306c2d312d2e356d37372e322035312e32632d2e352d322d610a608201527f312e322d342e312d322e322d366132302e332032302e332030203020302d3133610a808201527f2e332d31302e36632d362e362d312e342d31332e3320312d31392e3320342d36610aa08201527f2e3120322e382d31322e3220362e322d31382e3920362e362d382e312e362d31610ac08201527f362d332e322d32332e342d362e372d372e342d332e352d31362d352e312d3234610ae08201527f2e312d352e316d3130312e322031372e397330203020302030222f3e3c706174610b008201527f68207374726f6b653d222330303022207374726f6b652d6c696e656361703d22610b208201527f726f756e6422207374726f6b652d6c696e656a6f696e3d22726f756e64222073610b408201527f74726f6b652d77696474683d22342220643d224d3134362e382039312e396331610b608201527f332e332d362033302e352d342e362034322e3420332e39613433203433203020610b808201527f3020312031372032362e37222f3e3c70617468207374726f6b653d2223303030610ba08201527f22207374726f6b652d6c696e656361703d22726f756e6422207374726f6b652d610bc08201527f6c696e656a6f696e3d22726f756e6422207374726f6b652d77696474683d2233610be08201527f2e322220643d224d3133322037332e316131312e312031312e31203020302030610c008201527f2d372e362d312e33632d322e352e332d342e3520322e322d3720322e342d322e610c208201527f312e322d342e312d2e392d362d312e382d322d312d342e322d312e312d362e32610c408201527f2d312e31222f3e3c70617468207374726f6b653d222330303022207374726f6b610c608201527f652d6c696e656361703d22726f756e6422207374726f6b652d6c696e656a6f69610c808201527f6e3d22726f756e6422207374726f6b652d77696474683d22342220643d224d31610ca08201527f30352033352e36413237203237203020302031203132372034376132362e3120610cc08201527f32362e3120302030203120322032342e33222f3e3c7061746820636c6173733d610ce08201527f22696365436f6c6f7222207374726f6b653d222330303022207374726f6b652d610d008201527f6c696e656361703d22726f756e6422207374726f6b652d77696474683d22332e610d208201527f322220643d224d37342e362037372e3861332e3120332e312030203020302d35610d408201527f20332e386c322e3820332e3661332e3120332e3120302030203020342e392d33610d608201527f2e386c2d322e372d332e365a6d36332e342e3461332e3120332e312030203120610d808201527f302d352e342d332e316c2d322e3220332e3961332e3120332e31203020312030610da08201527f20352e3320336c322e332d332e385a6d2d35332e332032322e3661332e312033610dc08201527f2e312030203120302d3320352e346c3420322e3261332e3120332e3120302031610de08201527f203020332d352e346c2d342d322e325a6d32302e352d313361332e3120332e31610e008201527f20302030203020322d352e396c2d342e342d312e3461332e3120332e31203020610e208201527f3120302d312e3920366c342e3320312e335a6d2d363820342e3661332e312033610e408201527f2e312030203020302d322d352e394c33302e3820383861332e3120332e312030610e608201527f20312030203220352e386c342e332d312e345a6d3132362e382d3161332e3120610e808201527f332e3120302031203020342e3220342e366c332e332d3361332e3120332e3120610ea08201527f30203020302d342e312d342e366c2d332e3420335a4d35302e36203130306133610ec08201527f2e3120332e312030203120302d3320352e336c332e3920322e3261332e312033610ee08201527f2e3120302030203020332d352e346c2d342d322e325a6d38352d312e3561332e610f008201527f3120332e312030203120312d352e3820322e346c2d312e372d342e3161332e31610f208201527f20332e3120302030203120352e372d322e346c312e3820342e315a222f3e3c2f610f408201527f7376673e00000000000000000000000000000000000000000000000000000000610f6082015250565b5f611987610f64836105a6565b91506119928261069c565b610f6482019050919050565b5f6119a88261064a565b91506119b4828461066c565b91506119bf8261197a565b91508190509291505056fea264697066735822122006f48f5bcfe15587de1ee089bdfa86df2da8dbaa910d3a474161dbb9022b3b8264736f6c63430008140033",
  "immutableReferences": {},
  "source": "// SPDX-License-Identifier: MIT\npragma solidity ^0.8.0;\n\nimport {Headwear} from '../Headwear.sol';\nimport {EduxColors} from '../EduxColors.sol';\n\nlibrary HeadwearIcecream {\n    enum IcecreamColors {\n        GREEN,\n        PINK,\n        BLUE,\n        PURPLE,\n        GOLD\n    }\n\n    function getIcecream(\n        IcecreamColors iceCreamColor\n    ) external pure returns (string memory, Headwear.HeadwearVariants, Headwear.HeadwearColors) {\n        return (\n            string.concat(\n                '<svg xmlns=\"http://www.w3.org/2000/svg\" width=\"210\" height=\"335\" fill=\"none\"><style>.iceColor {fill:',\n                _getIcecreamColor(iceCreamColor),\n                '}</style><path stroke=\"#000\" stroke-linecap=\"round\" stroke-linejoin=\"round\" stroke-width=\"4\" d=\"M98 66.5s4.2-.5 7-.5c2.6 0 6.8.5 6.8.5\"/><path fill=\"#735C4C\" d=\"M91.2 19.6c7.1 1.9 13 8.6 14.2 16-4-4.9-10-8.9-16-11 0-2.4.7-3.8 1.8-5Z\"/><path fill=\"#fff\" d=\"M146.8 91.9c13.3-6 30.5-4.6 42.4 3.9a43 43 0 0 1 17 26.7c-.5-2-1.2-4.1-2.2-6a20.3 20.3 0 0 0-13.3-10.6c-6.6-1.4-13.3 1-19.3 4-6.1 2.8-12.2 6.2-18.9 6.6-8.1.6-16-3.2-23.4-6.7-7.4-3.5-16-5.1-24.1-5.1h-1.6a57 57 0 0 0-22.5 5c-7.5 3.5-15.3 7.4-23.4 6.8-6.7-.4-12.8-3.8-18.9-6.7-6-2.8-12.7-5.3-19.3-4A20.3 20.3 0 0 0 6 116.6c-1 1.9-1.7 3.9-2.2 6a43 43 0 0 1 17-26.7A44.1 44.1 0 0 1 63.3 92 32.9 32.9 0 0 1 80 71.8l2 .7a5 5 0 0 1 3.6-.8c2.5.4 4.5 2.3 7 2.5 2.1.2 4.1-.9 6-1.8 1.7-.8 4-1.1 5.8-1.2h.8c2 0 4.2.3 6.1 1.2 2 1 4 2 6 1.8 2.6-.2 4.6-2 7.1-2.4a6 6 0 0 1 4.9 1.6l.7-1.6a31.3 31.3 0 0 1 16.8 20Z\"/><path class=\"iceColor\" d=\"M104.4 71.2a15 15 0 0 0-5.7 1.2c-2 1-4 2-6 1.8-2.6-.2-4.6-2.1-7.1-2.5-1.3-.1-2.5.1-3.7.8l-2-.7 1.2-.5a26.1 26.1 0 0 1 2-24.4A26.7 26.7 0 0 1 105 35.6 27 27 0 0 1 127 47a26.1 26.1 0 0 1 2 24.3l1 .5-.7 1.6a6 6 0 0 0-4.9-1.6c-2.5.3-4.5 2.2-7 2.4-2.1.2-4.1-.9-6-1.8-2-1-4.2-1.1-6.2-1.1h-.8Z\"/><circle cx=\"2.5\" cy=\"2.5\" r=\"2.5\" fill=\"#fff\" fill-opacity=\".5\" transform=\"matrix(-1 0 0 1 126.2 59)\"/><path fill=\"#fff\" fill-opacity=\".5\" d=\"M123.8 53.6a3.1 3.1 0 0 1-5.7 2.6V56a14.8 14.8 0 0 0-1-1.7c-.6-1-1.5-2.2-2.3-2.9-1-.7-1.7-1.2-2.4-1.5l-1-.6c-1-.5-1.4-1.6-1-2.5l.2-.2c.4-1 0-2-1-2.2-1.2-.2-2.2-.2-3.2-.1a1.1 1.1 0 0 1-.3-2.3 15 15 0 0 1 10.6 3l2.1 1.6a18.6 18.6 0 0 1 4.9 6.7v.2\"/><path stroke=\"#000\" stroke-linecap=\"round\" stroke-linejoin=\"round\" stroke-width=\"4\" d=\"M63.3 92A32.9 32.9 0 0 1 80 71.9l1-.5M61.9 99.8a33 33 0 0 1 1.4-7.7M3.8 122.5c.5-2.1 1.2-4.1 2.2-6 2.7-5.2 7.6-9.4 13.3-10.6 6.6-1.4 13.3 1 19.3 4 6.1 2.8 12.2 6.2 18.9 6.6 8.1.6 16-3.3 23.4-6.7a57 57 0 0 1 24-5.1M3.8 122.6v-.1\"/><path stroke=\"#000\" stroke-linecap=\"round\" stroke-linejoin=\"round\" stroke-width=\"4\" d=\"M63.3 92h0a44.5 44.5 0 0 0-42.5 3.8 43 43 0 0 0-17 26.7\"/><path stroke=\"#000\" stroke-linecap=\"round\" stroke-linejoin=\"round\" stroke-width=\"3.2\" d=\"M79.5 72.4c2.5-1.3 4.8-.8 6.1-.7 2.5.4 4.5 2.3 7 2.5 2.1.2 4.1-.9 6-1.8 1.7-.8 4-1.1 5.8-1.2h.8\"/><path stroke=\"#000\" stroke-linecap=\"round\" stroke-linejoin=\"round\" stroke-width=\"4\" d=\"M105 35.6c-8.5 0-17.3 4.2-22 11.3a26.1 26.1 0 0 0-2 24.4\"/><path stroke=\"#000\" stroke-linecap=\"round\" stroke-linejoin=\"round\" stroke-width=\"3.2\" d=\"M105.4 35.6c-1.2-7.4-7-14.1-14.2-16a7.2 7.2 0 0 0-1.9 5c6.1 2.1 12 6.1 16.1 11Z\"/><path stroke=\"#000\" stroke-linecap=\"round\" stroke-linejoin=\"round\" stroke-width=\"4\" d=\"M148.1 99.8a37 37 0 0 0-1.3-8 31.3 31.3 0 0 0-16.8-20l-1-.5m77.2 51.2c-.5-2-1.2-4.1-2.2-6a20.3 20.3 0 0 0-13.3-10.6c-6.6-1.4-13.3 1-19.3 4-6.1 2.8-12.2 6.2-18.9 6.6-8.1.6-16-3.2-23.4-6.7-7.4-3.5-16-5.1-24.1-5.1m101.2 17.9s0 0 0 0\"/><path stroke=\"#000\" stroke-linecap=\"round\" stroke-linejoin=\"round\" stroke-width=\"4\" d=\"M146.8 91.9c13.3-6 30.5-4.6 42.4 3.9a43 43 0 0 1 17 26.7\"/><path stroke=\"#000\" stroke-linecap=\"round\" stroke-linejoin=\"round\" stroke-width=\"3.2\" d=\"M132 73.1a11.1 11.1 0 0 0-7.6-1.3c-2.5.3-4.5 2.2-7 2.4-2.1.2-4.1-.9-6-1.8-2-1-4.2-1.1-6.2-1.1\"/><path stroke=\"#000\" stroke-linecap=\"round\" stroke-linejoin=\"round\" stroke-width=\"4\" d=\"M105 35.6A27 27 0 0 1 127 47a26.1 26.1 0 0 1 2 24.3\"/><path class=\"iceColor\" stroke=\"#000\" stroke-linecap=\"round\" stroke-width=\"3.2\" d=\"M74.6 77.8a3.1 3.1 0 0 0-5 3.8l2.8 3.6a3.1 3.1 0 0 0 4.9-3.8l-2.7-3.6Zm63.4.4a3.1 3.1 0 1 0-5.4-3.1l-2.2 3.9a3.1 3.1 0 1 0 5.3 3l2.3-3.8Zm-53.3 22.6a3.1 3.1 0 1 0-3 5.4l4 2.2a3.1 3.1 0 1 0 3-5.4l-4-2.2Zm20.5-13a3.1 3.1 0 0 0 2-5.9l-4.4-1.4a3.1 3.1 0 1 0-1.9 6l4.3 1.3Zm-68 4.6a3.1 3.1 0 0 0-2-5.9L30.8 88a3.1 3.1 0 1 0 2 5.8l4.3-1.4Zm126.8-1a3.1 3.1 0 1 0 4.2 4.6l3.3-3a3.1 3.1 0 0 0-4.1-4.6l-3.4 3ZM50.6 100a3.1 3.1 0 1 0-3 5.3l3.9 2.2a3.1 3.1 0 0 0 3-5.4l-4-2.2Zm85-1.5a3.1 3.1 0 1 1-5.8 2.4l-1.7-4.1a3.1 3.1 0 0 1 5.7-2.4l1.8 4.1Z\"/></svg>'\n            ),\n            Headwear.HeadwearVariants.ICECREAM,\n            _getHeadwearColor(iceCreamColor)\n        );\n    }\n\n    function _getIcecreamColor(IcecreamColors icecreamColor) internal pure returns (string memory) {\n        if (icecreamColor == IcecreamColors.GREEN) {\n            return EduxColors.baseGreen;\n        } else if (icecreamColor == IcecreamColors.PINK) {\n            return EduxColors.basePink;\n        } else if (icecreamColor == IcecreamColors.PURPLE) {\n            return EduxColors.basePurple;\n        } else if (icecreamColor == IcecreamColors.BLUE) {\n            return EduxColors.baseBlue;\n        } else if (icecreamColor == IcecreamColors.GOLD) {\n            return EduxColors.baseGold;\n        } else {\n            revert(); // Avoid warnings.\n        }\n    }\n\n    function _getHeadwearColor(IcecreamColors icecreamColor) internal pure returns (Headwear.HeadwearColors) {\n        if (icecreamColor == IcecreamColors.GREEN) {\n            return Headwear.HeadwearColors.GREEN;\n        } else if (icecreamColor == IcecreamColors.PINK) {\n            return Headwear.HeadwearColors.PINK;\n        } else if (icecreamColor == IcecreamColors.PURPLE) {\n            return Headwear.HeadwearColors.PURPLE;\n        } else if (icecreamColor == IcecreamColors.BLUE) {\n            return Headwear.HeadwearColors.BLUE;\n        } else if (icecreamColor == IcecreamColors.GOLD) {\n            return Headwear.HeadwearColors.GOLD;\n        } else {\n            revert(); // Avoid warnings.\n        }\n    }\n}\n",
  "sourcePath": "E:\\Blockchain\\EDUIndex\\EduxContract\\contracts\\libraries\\svgs\\Profile\\Headwear\\HeadwearIcecream.sol",
  "compiler": {
    "name": "solc",
    "version": "0.8.20+commit.a1b79de6.Emscripten.clang"
  },
  "schemaVersion": "3.4.3",
  "updatedAt": "2024-08-25T13:13:21.860Z",
  "devdoc": {
    "kind": "dev",
    "methods": {},
    "version": 1
  },
  "userdoc": {
    "kind": "user",
    "methods": {},
    "version": 1
  }
}