{
  "contractName": "HeadwearGlasses",
  "abi": [
    {
      "inputs": [
        {
          "internalType": "enum HeadwearGlasses.GlassesColors",
          "name": "glassesColor",
          "type": "HeadwearGlasses.GlassesColors"
        }
      ],
      "name": "getGlasses",
      "outputs": [
        {
          "internalType": "string",
          "name": "",
          "type": "string"
        },
        {
          "internalType": "enum Headwear.HeadwearVariants",
          "name": "",
          "type": "Headwear.HeadwearVariants"
        },
        {
          "internalType": "enum Headwear.HeadwearColors",
          "name": "",
          "type": "Headwear.HeadwearColors"
        }
      ],
      "stateMutability": "pure",
      "type": "function"
    }
  ],
  "bytecode": "0x61122a61004e600b8282823980515f1a607314610042577f4e487b71000000000000000000000000000000000000000000000000000000005f525f60045260245ffd5b305f52607381538281f3fe7300000000000000000000000000000000000000003014608060405260043610610034575f3560e01c806398508b7514610038575b5f80fd5b610052600480360381019061004d919061042d565b61006a565b6040516100619392919061059b565b60405180910390f35b60605f80610077846100ae565b6040516020016100879190611148565b60405160208183030381529060405260076100a1866100df565b9250925092509193909250565b60606100b9826101f0565b6040516020016100c991906111c0565b6040516020818303038152906040529050919050565b5f8060048111156100f3576100f26104e2565b5b826004811115610106576101056104e2565b5b0361011457600190506101eb565b60026004811115610128576101276104e2565b5b82600481111561013b5761013a6104e2565b5b0361014957600290506101eb565b6003600481111561015d5761015c6104e2565b5b8260048111156101705761016f6104e2565b5b0361017e57600390506101eb565b60016004811115610192576101916104e2565b5b8260048111156101a5576101a46104e2565b5b036101b357600490506101eb565b6004808111156101c6576101c56104e2565b5b8260048111156101d9576101d86104e2565b5b036101e757600590506101eb565b5f80fd5b919050565b60605f6004811115610205576102046104e2565b5b826004811115610218576102176104e2565b5b0361025a576040518060400160405280600781526020017f23463446464443000000000000000000000000000000000000000000000000008152509050610401565b6002600481111561026e5761026d6104e2565b5b826004811115610281576102806104e2565b5b036102c3576040518060400160405280600781526020017f23463345414646000000000000000000000000000000000000000000000000008152509050610401565b600360048111156102d7576102d66104e2565b5b8260048111156102ea576102e96104e2565b5b0361032c576040518060400160405280600781526020017f23454346304646000000000000000000000000000000000000000000000000008152509050610401565b600160048111156103405761033f6104e2565b5b826004811115610353576103526104e2565b5b03610395576040518060400160405280600781526020017f23464645374630000000000000000000000000000000000000000000000000008152509050610401565b6004808111156103a8576103a76104e2565b5b8260048111156103bb576103ba6104e2565b5b036103fd576040518060400160405280600781526020017f23464645453933000000000000000000000000000000000000000000000000008152509050610401565b5f80fd5b919050565b5f80fd5b60058110610416575f80fd5b50565b5f813590506104278161040a565b92915050565b5f6020828403121561044257610441610406565b5b5f61044f84828501610419565b91505092915050565b5f81519050919050565b5f82825260208201905092915050565b5f5b8381101561048f578082015181840152602081019050610474565b5f8484015250505050565b5f601f19601f8301169050919050565b5f6104b482610458565b6104be8185610462565b93506104ce818560208601610472565b6104d78161049a565b840191505092915050565b7f4e487b71000000000000000000000000000000000000000000000000000000005f52602160045260245ffd5b601681106105205761051f6104e2565b5b50565b5f8190506105308261050f565b919050565b5f61053f82610523565b9050919050565b61054f81610535565b82525050565b60068110610566576105656104e2565b5b50565b5f81905061057682610555565b919050565b5f61058582610569565b9050919050565b6105958161057b565b82525050565b5f6060820190508181035f8301526105b381866104aa565b90506105c26020830185610546565b6105cf604083018461058c565b949350505050565b5f81905092915050565b7f3c73766720786d6c6e733d22687474703a2f2f7777772e77332e6f72672f32305f8201527f30302f737667222077696474683d2232313022206865696768743d223333352260208201527f2066696c6c3d226e6f6e65223e00000000000000000000000000000000000000604082015250565b5f610661604d836105d7565b915061066c826105e1565b604d82019050919050565b5f61068182610458565b61068b81856105d7565b935061069b818560208601610472565b80840191505092915050565b7f3c7061746820636c6173733d22676c6173736573436f6c6f72312220643d224d5f8201527f3136332e372038342e386135322e322035322e322030203020312d322031392e60208201527f35632d3120322e362d322e3120352e322d332e3620372e356133312e3520333160408201527f2e352030203020312d32322e332031342e36632d392e3120312e312d31392d3360608201527f2d32332e382d31302e382d312e392d332d332e342d372e372d372d372e37732d60808201527f352e3120342e362d3720372e376132352032352030203020312d32332e38203160a08201527f302e38632d392e312d312d31372e342d362e392d32322e332d31342e3661343260c08201527f2e382034322e382030203020312d352e342d3136632d2e352d332e372d2e352d60e08201527f372e342d2e322d3131683131372e345a4d313437203131312e3963352e312d356101008201527f20372e312d31322e3420372e392d31392e352d31342e342d2e342d32392d2e356101208201527f2d34332e352d2e356132342e332032342e332030203020302031312e342032326101408201527f2e3763372e3520342e3320313820332e342032342e322d322e375a6d2d3630206101608201527f322e3763372e362d342e332031322d31332e332031312e342d32322e372d31346101808201527f2e3520302d32392e3120302d34332e352e352e3820372e3120322e382031342e6101a08201527f3520382031392e3520362e3220362031362e3620372032342e3120322e375a226101c08201527f2f3e3c706174682066696c6c3d2223303030222066696c6c2d6f7061636974796101e08201527f3d222e352220643d224d3135352039322e346133312e332033312e33203020306102008201527f20312d382031392e35632d362e3220362d31362e3620372d32342e3120322e376102208201527f4132342e332032342e33203020302031203131312e352039326331342e3620306102408201527f2032392e3120302034332e352e355a6d2d35362e352d2e35632e3620392e342d6102608201527f332e382031382e342d31312e342032322e374132302e372032302e37203020306102808201527f203120363320313132632d352e312d352d372e312d31322e342d372e392d31396102a08201527f2e352031342e342d2e342032392d2e352034332e352d2e355a222f3e3c7061746102c08201527f6820636c6173733d22676c6173736573436f6c6f72312220643d226d34392e366102e08201527f203130312e332d2e392e362d33382e312031322e32632d312e332e352d322e366103008201527f2e392d34202e382d312e3320302d322e372d2e372d332e332d312e392d2e372d6103208201527f312e3420302d332e3220312d342e3361313320313320302030203120342e322d6103408201527f322e326331312e362d342e332032332e332d382e332033352d31322e316c312e6103608201527f382d2e3863312e3220322e3720322e3620352e3320342e3320372e375a222f3e6103808201527f3c70617468207374726f6b653d222330303022207374726f6b652d6c696e65636103a08201527f61703d22726f756e6422207374726f6b652d6c696e656a6f696e3d22726f756e6103c08201527f6422207374726f6b652d77696474683d22342220643d224d34362039332e38616103e08201527f3937312e38203937312e382030203020302d33372e352031322e37632d312e356104008201527f2e352d3320312e312d342e3120322e322d312e3120312e312d312e3820332d316104208201527f20342e332e3520312e32203220312e3820332e3320312e3920312e33203020326104408201527f2e362d2e3320332e392d2e386c33372e312d31312e38222f3e3c7061746820636104608201527f6c6173733d22676c6173736573436f6c6f72312220643d226d3136302e3420316104808201527f30312e332e392e362033382e312031322e3263312e332e3520322e362e3920346104a08201527f202e3820312e33203020322e372d2e3720332e332d312e392e372d312e3420306104c08201527f2d332e322d312d342e336131312e322031312e322030203020302d342e322d326104e08201527f2e32203933392e37203933392e372030203020302d33352d31322e316c2d312e6105008201527f382d2e386134322e382034322e382030203020312d342e3320372e375a222f3e6105208201527f3c70617468207374726f6b653d222330303022207374726f6b652d6c696e65636105408201527f61703d22726f756e6422207374726f6b652d6c696e656a6f696e3d22726f756e6105608201527f6422207374726f6b652d77696474683d22342220643d224d3136342039332e386105808201527f613130363920313036392030203020312033372e352031322e3763312e352e356105a08201527f203320312e3120342e3120322e3220312e3120312e3120312e382033203120346105c08201527f2e332d2e3520312e322d3220312e382d332e3320312e392d312e3320302d322e6105e08201527f362d2e332d332e392d2e386c2d33372e312d31312e384d3130352038342e38486106008201527f34362e336135322e322035322e3220302030203020322e312031392e352033316106208201527f2e342033312e342030203020302032352e382032322e3163392e3120312e31206106408201527f31392d332032332e382d31302e3820312e392d3320332e342d372e3720372d376106608201527f2e37222f3e3c70617468207374726f6b653d222330303022207374726f6b652d6106808201527f6c696e656361703d22726f756e6422207374726f6b652d6c696e656a6f696e3d6106a08201527f22726f756e6422207374726f6b652d77696474683d22342220643d224d39382e6106c08201527f352039312e39632d31342e3520302d32392e3120302d34332e352e352e3820376106e08201527f2e3120322e382031342e3520382031392e3520362e3220362031362e362037206107008201527f32342e3120322e3720372e362d342e332031322d31332e332031312e342d32326107208201527f2e375a6d362e352d372e316835382e376135322e322035322e322030203020316107408201527f2d322031392e35632d3120322e362d322e3120352e322d332e3620372e3561336107608201527f312e352033312e352030203020312d32322e332031342e36632d392e3120312e6107808201527f312d31392d332d32332e382d31302e382d312e392d332d332e342d372e372d376107a08201527f2d372e37222f3e3c70617468207374726f6b653d222330303022207374726f6b6107c08201527f652d6c696e656361703d22726f756e6422207374726f6b652d6c696e656a6f696107e08201527f6e3d22726f756e6422207374726f6b652d77696474683d22342220643d224d316108008201527f31312e352039312e396331342e3620302032392e3120302034332e352e3561336108208201527f312e332033312e332030203020312d382031392e35632d362e3220362d31362e6108408201527f3620372d32342e3120322e374132342e332032342e33203020302031203131316108608201527f2e352039325a222f3e3c2f7376673e000000000000000000000000000000000061088082015250565b5f61113161088f836105d7565b915061113c826106a7565b61088f82019050919050565b5f61115282610655565b915061115e8284610677565b915061116982611124565b915081905092915050565b7f3c7374796c653e2e676c6173736573436f6c6f7231207b2066696c6c3a000000815250565b7f7d3c2f7374796c653e0000000000000000000000000000000000000000000000815250565b5f6111ca82611174565b601d820191506111da8284610677565b91506111e58261119a565b6009820191508190509291505056fea264697066735822122093ce659dd604d8e481a772ba88a2f92e59ab893a37c3e509f4edee9e69505ebb64736f6c63430008140033",
  "immutableReferences": {},
  "source": "// SPDX-License-Identifier: MIT\npragma solidity ^0.8.0;\n\nimport {Headwear} from '../Headwear.sol';\nimport {EduxColors} from '../EduxColors.sol';\n\nlibrary HeadwearGlasses {\n    enum GlassesColors {\n        GREEN,\n        PINK,\n        PURPLE,\n        BLUE,\n        GOLD\n    }\n\n    function getGlasses(\n        GlassesColors glassesColor\n    ) external pure returns (string memory, Headwear.HeadwearVariants, Headwear.HeadwearColors) {\n        return (\n            string.concat(\n                '<svg xmlns=\"http://www.w3.org/2000/svg\" width=\"210\" height=\"335\" fill=\"none\">',\n                _getGlassesStyle(glassesColor),\n                '<path class=\"glassesColor1\" d=\"M163.7 84.8a52.2 52.2 0 0 1-2 19.5c-1 2.6-2.1 5.2-3.6 7.5a31.5 31.5 0 0 1-22.3 14.6c-9.1 1.1-19-3-23.8-10.8-1.9-3-3.4-7.7-7-7.7s-5.1 4.6-7 7.7a25 25 0 0 1-23.8 10.8c-9.1-1-17.4-6.9-22.3-14.6a42.8 42.8 0 0 1-5.4-16c-.5-3.7-.5-7.4-.2-11h117.4ZM147 111.9c5.1-5 7.1-12.4 7.9-19.5-14.4-.4-29-.5-43.5-.5a24.3 24.3 0 0 0 11.4 22.7c7.5 4.3 18 3.4 24.2-2.7Zm-60 2.7c7.6-4.3 12-13.3 11.4-22.7-14.5 0-29.1 0-43.5.5.8 7.1 2.8 14.5 8 19.5 6.2 6 16.6 7 24.1 2.7Z\"/><path fill=\"#000\" fill-opacity=\".5\" d=\"M155 92.4a31.3 31.3 0 0 1-8 19.5c-6.2 6-16.6 7-24.1 2.7A24.3 24.3 0 0 1 111.5 92c14.6 0 29.1 0 43.5.5Zm-56.5-.5c.6 9.4-3.8 18.4-11.4 22.7A20.7 20.7 0 0 1 63 112c-5.1-5-7.1-12.4-7.9-19.5 14.4-.4 29-.5 43.5-.5Z\"/><path class=\"glassesColor1\" d=\"m49.6 101.3-.9.6-38.1 12.2c-1.3.5-2.6.9-4 .8-1.3 0-2.7-.7-3.3-1.9-.7-1.4 0-3.2 1-4.3a13 13 0 0 1 4.2-2.2c11.6-4.3 23.3-8.3 35-12.1l1.8-.8c1.2 2.7 2.6 5.3 4.3 7.7Z\"/><path stroke=\"#000\" stroke-linecap=\"round\" stroke-linejoin=\"round\" stroke-width=\"4\" d=\"M46 93.8a971.8 971.8 0 0 0-37.5 12.7c-1.5.5-3 1.1-4.1 2.2-1.1 1.1-1.8 3-1 4.3.5 1.2 2 1.8 3.3 1.9 1.3 0 2.6-.3 3.9-.8l37.1-11.8\"/><path class=\"glassesColor1\" d=\"m160.4 101.3.9.6 38.1 12.2c1.3.5 2.6.9 4 .8 1.3 0 2.7-.7 3.3-1.9.7-1.4 0-3.2-1-4.3a11.2 11.2 0 0 0-4.2-2.2 939.7 939.7 0 0 0-35-12.1l-1.8-.8a42.8 42.8 0 0 1-4.3 7.7Z\"/><path stroke=\"#000\" stroke-linecap=\"round\" stroke-linejoin=\"round\" stroke-width=\"4\" d=\"M164 93.8a1069 1069 0 0 1 37.5 12.7c1.5.5 3 1.1 4.1 2.2 1.1 1.1 1.8 3 1 4.3-.5 1.2-2 1.8-3.3 1.9-1.3 0-2.6-.3-3.9-.8l-37.1-11.8M105 84.8H46.3a52.2 52.2 0 0 0 2.1 19.5 31.4 31.4 0 0 0 25.8 22.1c9.1 1.1 19-3 23.8-10.8 1.9-3 3.4-7.7 7-7.7\"/><path stroke=\"#000\" stroke-linecap=\"round\" stroke-linejoin=\"round\" stroke-width=\"4\" d=\"M98.5 91.9c-14.5 0-29.1 0-43.5.5.8 7.1 2.8 14.5 8 19.5 6.2 6 16.6 7 24.1 2.7 7.6-4.3 12-13.3 11.4-22.7Zm6.5-7.1h58.7a52.2 52.2 0 0 1-2 19.5c-1 2.6-2.1 5.2-3.6 7.5a31.5 31.5 0 0 1-22.3 14.6c-9.1 1.1-19-3-23.8-10.8-1.9-3-3.4-7.7-7-7.7\"/><path stroke=\"#000\" stroke-linecap=\"round\" stroke-linejoin=\"round\" stroke-width=\"4\" d=\"M111.5 91.9c14.6 0 29.1 0 43.5.5a31.3 31.3 0 0 1-8 19.5c-6.2 6-16.6 7-24.1 2.7A24.3 24.3 0 0 1 111.5 92Z\"/></svg>'\n            ),\n            Headwear.HeadwearVariants.GLASSES,\n            _getHeadwearColor(glassesColor)\n        );\n    }\n\n    function _getGlassesStyle(GlassesColors glassesColor) internal pure returns (string memory) {\n        return string.concat('<style>.glassesColor1 { fill:', _getGlassesColor(glassesColor), '}</style>');\n    }\n\n    function _getGlassesColor(GlassesColors glassesColor) internal pure returns (string memory) {\n        if (glassesColor == GlassesColors.GREEN) {\n            return EduxColors.lightGreen;\n        } else if (glassesColor == GlassesColors.PURPLE) {\n            return EduxColors.lightPurple;\n        } else if (glassesColor == GlassesColors.BLUE) {\n            return EduxColors.lightBlue;\n        } else if (glassesColor == GlassesColors.PINK) {\n            return EduxColors.lightPink;\n        } else if (glassesColor == GlassesColors.GOLD) {\n            return EduxColors.lightGold;\n        } else {\n            revert(); // Avoid warnings.\n        }\n    }\n\n    function _getHeadwearColor(GlassesColors glassesColor) internal pure returns (Headwear.HeadwearColors) {\n        if (glassesColor == GlassesColors.GREEN) {\n            return Headwear.HeadwearColors.GREEN;\n        } else if (glassesColor == GlassesColors.PURPLE) {\n            return Headwear.HeadwearColors.PURPLE;\n        } else if (glassesColor == GlassesColors.BLUE) {\n            return Headwear.HeadwearColors.BLUE;\n        } else if (glassesColor == GlassesColors.PINK) {\n            return Headwear.HeadwearColors.PINK;\n        } else if (glassesColor == GlassesColors.GOLD) {\n            return Headwear.HeadwearColors.GOLD;\n        } else {\n            revert(); // Avoid warnings.\n        }\n    }\n}\n",
  "sourcePath": "E:\\Blockchain\\EDUIndex\\EduxContract\\contracts\\libraries\\svgs\\Profile\\Headwear\\HeadwearGlasses.sol",
  "compiler": {
    "name": "solc",
    "version": "0.8.20+commit.a1b79de6.Emscripten.clang"
  },
  "schemaVersion": "3.4.3",
  "updatedAt": "2024-08-25T13:13:21.826Z",
  "devdoc": {
    "kind": "dev",
    "methods": {},
    "version": 1
  },
  "userdoc": {
    "kind": "user",
    "methods": {},
    "version": 1
  }
}