{
  "contractName": "HeadwearBull",
  "abi": [
    {
      "inputs": [
        {
          "internalType": "enum HeadwearBull.BullColors",
          "name": "bullColor",
          "type": "HeadwearBull.BullColors"
        }
      ],
      "name": "getBull",
      "outputs": [
        {
          "internalType": "string",
          "name": "",
          "type": "string"
        },
        {
          "internalType": "enum Headwear.HeadwearVariants",
          "name": "",
          "type": "Headwear.HeadwearVariants"
        },
        {
          "internalType": "enum Headwear.HeadwearColors",
          "name": "",
          "type": "Headwear.HeadwearColors"
        }
      ],
      "stateMutability": "pure",
      "type": "function"
    }
  ],
  "bytecode": "0x611f4261004e600b8282823980515f1a607314610042577f4e487b71000000000000000000000000000000000000000000000000000000005f525f60045260245ffd5b305f52607381538281f3fe7300000000000000000000000000000000000000003014608060405260043610610034575f3560e01c8063c529f16c14610038575b5f80fd5b610052600480360381019061004d9190610551565b61006a565b604051610061939291906106bf565b60405180910390f35b60605f80610077846100ae565b6040516020016100879190611db2565b604051602081830303815290604052600f6100a1866100ea565b9250925092509193909250565b60605f806100bb846101fb565b9150915081816040516020016100d2929190611ec0565b60405160208183030381529060405292505050919050565b5f8060048111156100fe576100fd610606565b5b82600481111561011157610110610606565b5b0361011f57600190506101f6565b6002600481111561013357610132610606565b5b82600481111561014657610145610606565b5b0361015457600290506101f6565b6003600481111561016857610167610606565b5b82600481111561017b5761017a610606565b5b0361018957600390506101f6565b6001600481111561019d5761019c610606565b5b8260048111156101b0576101af610606565b5b036101be57600490506101f6565b6004808111156101d1576101d0610606565b5b8260048111156101e4576101e3610606565b5b036101f257600590506101f6565b5f80fd5b919050565b6060805f600481111561021157610210610606565b5b83600481111561022457610223610606565b5b0361029e576040518060400160405280600781526020017f23463446464443000000000000000000000000000000000000000000000000008152506040518060400160405280600781526020017f234130443137300000000000000000000000000000000000000000000000000081525091509150610525565b600260048111156102b2576102b1610606565b5b8360048111156102c5576102c4610606565b5b0361033f576040518060400160405280600781526020017f23463345414646000000000000000000000000000000000000000000000000008152506040518060400160405280600781526020017f234541443746460000000000000000000000000000000000000000000000000081525091509150610525565b6003600481111561035357610352610606565b5b83600481111561036657610365610606565b5b036103e0576040518060400160405280600781526020017f23454346304646000000000000000000000000000000000000000000000000008152506040518060400160405280600781526020017f234439453046460000000000000000000000000000000000000000000000000081525091509150610525565b600160048111156103f4576103f3610606565b5b83600481111561040757610406610606565b5b03610481576040518060400160405280600781526020017f23464645374630000000000000000000000000000000000000000000000000008152506040518060400160405280600781526020017f234646443244440000000000000000000000000000000000000000000000000081525091509150610525565b60048081111561049457610493610606565b5b8360048111156104a7576104a6610606565b5b03610521576040518060400160405280600781526020017f23464645453933000000000000000000000000000000000000000000000000008152506040518060400160405280600781526020017f234638433934340000000000000000000000000000000000000000000000000081525091509150610525565b5f80fd5b915091565b5f80fd5b6005811061053a575f80fd5b50565b5f8135905061054b8161052e565b92915050565b5f602082840312156105665761056561052a565b5b5f6105738482850161053d565b91505092915050565b5f81519050919050565b5f82825260208201905092915050565b5f5b838110156105b3578082015181840152602081019050610598565b5f8484015250505050565b5f601f19601f8301169050919050565b5f6105d88261057c565b6105e28185610586565b93506105f2818560208601610596565b6105fb816105be565b840191505092915050565b7f4e487b71000000000000000000000000000000000000000000000000000000005f52602160045260245ffd5b6016811061064457610643610606565b5b50565b5f81905061065482610633565b919050565b5f61066382610647565b9050919050565b61067381610659565b82525050565b6006811061068a57610689610606565b5b50565b5f81905061069a82610679565b919050565b5f6106a98261068d565b9050919050565b6106b98161069f565b82525050565b5f6060820190508181035f8301526106d781866105ce565b90506106e6602083018561066a565b6106f360408301846106b0565b949350505050565b5f81905092915050565b7f3c73766720786d6c6e733d22687474703a2f2f7777772e77332e6f72672f32305f8201527f30302f737667222077696474683d2232353022206865696768743d223333352260208201527f20783d222d31382e36222066696c6c3d226e6f6e65223e000000000000000000604082015250565b5f6107856057836106fb565b915061079082610705565b605782019050919050565b5f6107a58261057c565b6107af81856106fb565b93506107bf818560208601610596565b80840191505092915050565b7f3c7061746820636c6173733d226865616477656172436f6c6f724c2220643d225f8201527f4d3230332e382038382e377331312e312031352031362e352031372e34632d3960208201527f2e362d332e362d32332d352e312d34312e342d382d31382d322e382d33362e3860408201527f2d332e372d35352e322d332e372d31382e3520302d33372e322e392d35352e3260608201527f20332e372d31382e3420322e392d33312e3820342e342d34312e35203820352e60808201527f342d322e342031362e372d31372e362031362e372d31372e365333352e32203760a08201527f362e3220343120363963362d372e362032302e372d322e392032302e372d322e60c08201527f395339312e382034392e36203130342e3920343861313431203134312030203060e08201527f20312033372e3520306331332e3120312e372034322031372e382034322031376101008201527f2e387331362e352d332e382032312e38203363362e3920382e362d322e3420326101208201527f302d322e342032305a222f3e3c7061746820636c6173733d22686561647765616101408201527f72436f6c6f724c2220643d224d3234312e32203131352e3763322e3620322e386101608201527f20342e3320362e3620332e362031302e342e352d332e332d322e372d352e382d6101808201527f352e372d372e332d382e372d342e362d31382e332d332e342d32372e392d352e6101a08201527f362d32382e382d362e352d36312d31302d38372e352d31302d32362e3620302d6101c08201527f35382e3820332e352d38372e362031302d392e3620322e322d31392e3320322e6101e08201527f362d323820372e312d3320312e352d3620322e362d352e3520352e382d2e382d6102008201527f332e372e372d372e3920332e332d31302e3620322e352d322e3620392d342e366102208201527f2032312d382e3720392e372d332e332032332e322d342e382034312e362d372e6102408201527f34613337342e37203337342e37203020302031203131302e3420306331382e336102608201527f20322e362033312e3920332e382034312e36203720313220342e322031382e326102808201527f20362e382032302e3720392e335a222f3e3c7061746820636c6173733d2268776102a08201527f5374723122207374726f6b652d77696474683d22342220643d224d3132332e376102c08201527f203130342e35632d32362e3620302d35382e3820322e392d38372e3620372e396102e08201527f61313430203134302030203020302d32372e3920372e31632d3320312e322d366103008201527f2e3120332e312d352e3620352e372e3320312e35203520352e332031392e32206103208201527f372e324d32372031303673302030203020306133342e342033342e34203020306103408201527f20302031362e352d31372e366d38302e322031362e316332362e3520302035386103608201527f2e3720322e392038372e3520372e3961313430203134302030203020312032386103808201527f20372e3163322e3920312e32203620332e3120352e3620352e372d2e3420312e6103a08201527f352d3520352e332d31392e3320372e32222f3e3c7061746820636c6173733d226103c08201527f68775374723122207374726f6b652d77696474683d22342220643d224d322e366103e08201527f203132332e317330203020302030632d2e382d3320312d362e3220332e362d386104008201527f2e3420322e352d3220382e372d352e332032302e382d382e366d3231372e38206104208201527f31377330203020302030632e372d332d312d362e322d332e362d382e342d322e6104408201527f352d322d382e372d352e332d32302e392d382e366d2e312d2e317330203020306104608201527f20304133342e342033342e34203020302031203230342038382e37222f3e3c706104808201527f61746820636c6173733d226865616477656172436f6c6f724c2220643d224d346104a08201527f2e35203132342e37632d322d322e362031372e342d372e342031372e342d372e6104c08201527f34732d312e3320342d312e3820362e38632d2e3320322e332d2e3420362d2e346104e08201527f2036732d31322d312e332d31352e322d352e345a6d3233382e34203063322d326105008201527f2e362d31372e342d372e342d31372e342d372e3473312e33203420312e3720366105208201527f2e38632e3420322e332e352036202e3520367331322d312e332031352e322d356105408201527f2e345a222f3e3c706174682066696c6c3d2223303030222066696c6c2d6f70616105608201527f636974793d222e332220643d224d342e35203132342e37632d322d322e3620316105808201527f372e342d372e342031372e342d372e34732d312e3320342d312e3820362e38636105a08201527f2d2e3320322e332d2e3420362d2e342036732d31322d312e332d31352e322d356105c08201527f2e345a6d3233382e34203063322d322e362d31372e342d372e342d31372e342d6105e08201527f372e3473312e33203420312e3720362e38632e3420322e332e352036202e35206106008201527f367331322d312e332031352e322d352e345a222f3e3c7061746820636c6173736106208201527f3d2268775374723122207374726f6b652d77696474683d22332220643d224d326106408201527f37203130362e3663392e372d322e372032332e312d352e342034312e352d372e6106608201527f356134373620343736203020302031203131302e3420306331382e3320322e316106808201527f2033312e3820342e382034312e3420372e35222f3e3c70617468207374726f6b6106a08201527f653d222330303022207374726f6b652d6461736861727261793d2239203922206106c08201527f7374726f6b652d6c696e656361703d22726f756e6422207374726f6b652d6c696106e08201527f6e656a6f696e3d22726f756e6422207374726f6b652d6f7061636974793d222e6107008201527f3222207374726f6b652d77696474683d22322e352220643d224d33372e3520396107208201527f382e3763382e332d312e382031382e352d332e352033312d35613437362034376107408201527f36203020302031203131302e3420306331322e3920312e352032332e3420332e6107608201527f332033312e3820352e31222f3e3c706174682066696c6c3d22236666662220646107808201527f3d226d3138342e342036362e322d2e342e37632d3520312e342d31302e372e376107a08201527f2d31352e322d312e396131392031392030203020312d392e332d31322e3520336107c08201527f342e332033342e332030203020302031362e392d3330203335203335203020306107e08201527f203120382034332e375a4d37312032322e356133342e342033342e34203020306108008201527f20302031362e382033304131392031392030203020312037382e3620363561326108208201527f302e342032302e342030203020312d31352e3220326c2d2e342d2e38632d342d6108408201527f372e312d352e332d31352e332d342d32332e31613335203335203020302031206108608201527f31322d32302e365a222f3e3c7061746820636c6173733d2268775374723122206108808201527f7374726f6b652d77696474683d22342220643d224d38382e372035312e3861396108a08201527f382039382030203020312033342e372d352e334d36332036362e326c2e342e376108c08201527f633520312e342031302e362e372031352e322d312e3920342e352d322e3620386108e08201527f2d3720392e322d31322e356c2d312d2e364133342e342033342e3420302030206109008201527f312037312032322e356133352033352030203020302d382034332e375a222f3e6109208201527f3c7061746820636c6173733d2268775374723122207374726f6b652d776964746109408201527f683d22332220643d224d37312e362035396132352032352030203020302031316109608201527f2e332d396d2d31322e322d362e3763312e37203020332e352d2e3420352d312e6109808201527f334d36342034332e3668312e37222f3e3c7061746820636c6173733d226877536109a08201527f74723122207374726f6b652d77696474683d22342220643d224d3135382e36206109c08201527f35312e386139382039382030203020302d33342e372d352e336d33352e3620366109e08201527f6133342e332033342e332030203020302031362e392d33302033352033352030610a008201527f2030203120372e362034342e34632d3520312e342d31302e372e372d31352e32610a208201527f2d312e396131392031392030203020312d392e332d31322e355a222f3e3c7061610a408201527f746820636c6173733d2268775374723122207374726f6b652d77696474683d22610a608201527f332220643d224d3137352e372035396132342e382032342e382030203020312d610a808201527f31312e332d396d31322e332d362e376131302031302030203020312d352e312d610aa08201527f312e336d31312e3720312e36682d312e36222f3e3c706174682066696c6c3d22610ac08201527f233030302220636c6173733d2268775374723122207374726f6b652d77696474610ae08201527f683d22342220643d224d39362e3720363461322e3120322e3120302031203120610b008201527f342e32203020322e3120322e312030203020312d342e3220305a6d3534203061610b208201527f322e3120322e312030203120302d342e32203020322e3120322e312030203020610b408201527f3020342e3220305a222f3e3c706174682066696c6c3d22236666662220643d22610b608201527f4d3133332e392036362e3963322e3220312e3220332e3220342e3120322e3620610b808201527f362e3661382e3420382e342030203020312d3520352e34632d322e3420312d35610ba08201527f2e322e372d372e382e372d322e3720302d352e352e332d372e382d2e372d322e610bc08201527f342d312d342e342d332d352d352e342d2e372d322e352e332d352e3420322e36610be08201527f2d362e3620312e352d2e3820332e332d2e3820352d2e3720312e372e3220332e610c008201527f332e332035202e33682e3361353020353020302030203020352d2e3363312e38610c208201527f2d2e3120332e362d2e312035202e375a6d2d342e3320372e35632e322d2e322e610c408201527f332d2e342e332d2e37613220322030203020302d2e322d2e376c2d2e352d3163610c608201527f2d2e332d2e322d2e362d2e332d312d2e332d2e3320302d2e352e332d2e362e35610c808201527f762e3761322032203020302030203120312e34632e322e322e372e3320312030610ca08201527f5a6d2d392e382d312e35762d2e37632d2e322d2e322d2e342d2e352d2e372d2e610cc08201527f352d2e3420302d2e372e312d31202e342d2e322e322d2e332e362d2e342e3961610ce08201527f3220322030203020302d2e322e376330202e332030202e352e322e372e332e32610d008201527f2e382e3120312e312030202e352d2e3420312d3120312d312e355a222f3e3c70610d208201527f61746820636c6173733d2268775374723122207374726f6b652d77696474683d610d408201527f22332220643d224d3132332e362036362e356135302035302030203020312d35610d608201527f2e312d2e3320382e3620382e362030203020302d35202e37632d322e3320312e610d808201527f322d332e3320342e312d322e3620362e3661382e3420382e3420302030203020610da08201527f3520352e3463322e33203120352e312e3720372e382e37222f3e3c7061746820610dc08201527f636c6173733d2268775374723122207374726f6b652d77696474683d22332220610de08201527f643d224d3131392037312e37613120312030203020302d2e382e34632d2e332e610e008201527f322d2e342e362d2e352e39613220322030203020302d2e322e376330202e3320610e208201527f30202e352e322e372e332e322e382e3120312e312030202e352d2e3420312d31610e408201527f20312d312e35762d2e37632d2e322d2e322d2e342d2e352d2e372d2e355a6d34610e608201527f2e382d352e3261353020353020302030203020352d2e3363312e382d2e312033610e808201527f2e362d2e312035202e3720322e3320312e3220332e3320342e3120322e372036610ea08201527f2e3661382e3420382e342030203020312d3520352e34632d322e3420312d352e610ec08201527f322e372d372e382e37222f3e3c7061746820636c6173733d2268775374723122610ee08201527f207374726f6b652d77696474683d22332220643d224d3132382e332037312e37610f008201527f632e332030202e362e312e392e346c2e352e392e322e376330202e332030202e610f208201527f352d2e332e372d2e332e322d2e382e312d3120302d2e362d2e342d312d312d31610f408201527f2d312e35762d2e37632e312d2e322e332d2e352e372d2e355a222f3e3c706174610f608201527f6820636c6173733d2268775374723122207374726f6b652d77696474683d2234610f808201527f2220643d224d34332e332038382e325333332037372e322034302e3820363963610fa08201527f372e362d382031352e322d322e342032312e322d336d3134322e332032322e31610fc08201527f7331302d313120322e332d3139632d372e362d382e322d31352e332d322e352d610fe08201527f32312e332d332e32222f3e3c7061746820636c6173733d2268656164776561726110008201527f436f6c6f72422220643d224d34362037322e386138203820302030203120382e6110208201527f362d322e34632d332e3720332e332d362e3720372d392031312e3361372e35206110408201527f372e35203020302031202e342d382e395a222f3e3c7061746820636c6173733d6110608201527f2268775374723122207374726f6b652d77696474683d22322e352220643d224d6110808201527f34352e372038312e3761343020343020302030203120382e392d31312e3320386110a08201527f20382030203020302d382e3620322e3420372e3420372e342030203020302d2e6110c08201527f3320382e395a222f3e3c7061746820636c6173733d226865616477656172436f6110e08201527f6c6f72422220643d224d3230312e332037322e38613820382030203020302d386111008201527f2e352d322e3463332e3620332e3320362e36203720382e392031312e3361372e6111208201527f3520372e352030203020302d2e342d382e395a222f3e3c7061746820636c61736111408201527f733d2268775374723122207374726f6b652d77696474683d22322e352220643d6111608201527f224d3230312e372038312e37632d322e332d342e322d352e332d382d392d31316111808201527f2e3320332d3120362e36203020382e3620322e3473322e3320362e322e3420386111a08201527f2e395a222f3e3c2f7376673e00000000000000000000000000000000000000006111c082015250565b5f611d9b6111cc836106fb565b9150611da6826107cb565b6111cc82019050919050565b5f611dbc82610779565b9150611dc8828461079b565b9150611dd382611d8e565b915081905092915050565b7f3c7374796c653e2e6865616477656172436f6c6f724c207b2066696c6c3a0000815250565b7f7d2e6865616477656172436f6c6f7242207b2066696c6c3a0000000000000000815250565b7f7d2e687753747231207b7374726f6b653a20233030303b7374726f6b652d6c695f8201527f6e656361703a20726f756e643b7374726f6b652d6c696e656a6f696e3a20726f60208201527f756e643b7d3c2f7374796c653e00000000000000000000000000000000000000604082015250565b5f611eaa604d836106fb565b9150611eb582611e2a565b604d82019050919050565b5f611eca82611dde565b601e82019150611eda828561079b565b9150611ee582611e04565b601882019150611ef5828461079b565b9150611f0082611e9e565b9150819050939250505056fea2646970667358221220d237574cb34abfbbfc4f1b17b3325dc3da34b8943724ef7b960d55d1ddcb5d3864736f6c63430008140033",
  "immutableReferences": {},
  "source": "// SPDX-License-Identifier: MIT\npragma solidity ^0.8.0;\n\nimport {Headwear} from '../Headwear.sol';\nimport {EduxColors} from '../EduxColors.sol';\n\nlibrary HeadwearBull {\n    enum BullColors {\n        GREEN,\n        PINK,\n        PURPLE,\n        BLUE,\n        GOLD\n    }\n\n    function getBull(\n        BullColors bullColor\n    ) external pure returns (string memory, Headwear.HeadwearVariants, Headwear.HeadwearColors) {\n        return (\n            string.concat(\n                '<svg xmlns=\"http://www.w3.org/2000/svg\" width=\"250\" height=\"335\" x=\"-18.6\" fill=\"none\">',\n                _getBullStyle(bullColor),\n                '<path class=\"headwearColorL\" d=\"M203.8 88.7s11.1 15 16.5 17.4c-9.6-3.6-23-5.1-41.4-8-18-2.8-36.8-3.7-55.2-3.7-18.5 0-37.2.9-55.2 3.7-18.4 2.9-31.8 4.4-41.5 8 5.4-2.4 16.7-17.6 16.7-17.6S35.2 76.2 41 69c6-7.6 20.7-2.9 20.7-2.9S91.8 49.6 104.9 48a141 141 0 0 1 37.5 0c13.1 1.7 42 17.8 42 17.8s16.5-3.8 21.8 3c6.9 8.6-2.4 20-2.4 20Z\"/><path class=\"headwearColorL\" d=\"M241.2 115.7c2.6 2.8 4.3 6.6 3.6 10.4.5-3.3-2.7-5.8-5.7-7.3-8.7-4.6-18.3-3.4-27.9-5.6-28.8-6.5-61-10-87.5-10-26.6 0-58.8 3.5-87.6 10-9.6 2.2-19.3 2.6-28 7.1-3 1.5-6 2.6-5.5 5.8-.8-3.7.7-7.9 3.3-10.6 2.5-2.6 9-4.6 21-8.7 9.7-3.3 23.2-4.8 41.6-7.4a374.7 374.7 0 0 1 110.4 0c18.3 2.6 31.9 3.8 41.6 7 12 4.2 18.2 6.8 20.7 9.3Z\"/><path class=\"hwStr1\" stroke-width=\"4\" d=\"M123.7 104.5c-26.6 0-58.8 2.9-87.6 7.9a140 140 0 0 0-27.9 7.1c-3 1.2-6.1 3.1-5.6 5.7.3 1.5 5 5.3 19.2 7.2M27 106s0 0 0 0a34.4 34.4 0 0 0 16.5-17.6m80.2 16.1c26.5 0 58.7 2.9 87.5 7.9a140 140 0 0 1 28 7.1c2.9 1.2 6 3.1 5.6 5.7-.4 1.5-5 5.3-19.3 7.2\"/><path class=\"hwStr1\" stroke-width=\"4\" d=\"M2.6 123.1s0 0 0 0c-.8-3 1-6.2 3.6-8.4 2.5-2 8.7-5.3 20.8-8.6m217.8 17s0 0 0 0c.7-3-1-6.2-3.6-8.4-2.5-2-8.7-5.3-20.9-8.6m.1-.1s0 0 0 0A34.4 34.4 0 0 1 204 88.7\"/><path class=\"headwearColorL\" d=\"M4.5 124.7c-2-2.6 17.4-7.4 17.4-7.4s-1.3 4-1.8 6.8c-.3 2.3-.4 6-.4 6s-12-1.3-15.2-5.4Zm238.4 0c2-2.6-17.4-7.4-17.4-7.4s1.3 4 1.7 6.8c.4 2.3.5 6 .5 6s12-1.3 15.2-5.4Z\"/><path fill=\"#000\" fill-opacity=\".3\" d=\"M4.5 124.7c-2-2.6 17.4-7.4 17.4-7.4s-1.3 4-1.8 6.8c-.3 2.3-.4 6-.4 6s-12-1.3-15.2-5.4Zm238.4 0c2-2.6-17.4-7.4-17.4-7.4s1.3 4 1.7 6.8c.4 2.3.5 6 .5 6s12-1.3 15.2-5.4Z\"/><path class=\"hwStr1\" stroke-width=\"3\" d=\"M27 106.6c9.7-2.7 23.1-5.4 41.5-7.5a476 476 0 0 1 110.4 0c18.3 2.1 31.8 4.8 41.4 7.5\"/><path stroke=\"#000\" stroke-dasharray=\"9 9\" stroke-linecap=\"round\" stroke-linejoin=\"round\" stroke-opacity=\".2\" stroke-width=\"2.5\" d=\"M37.5 98.7c8.3-1.8 18.5-3.5 31-5a476 476 0 0 1 110.4 0c12.9 1.5 23.4 3.3 31.8 5.1\"/><path fill=\"#fff\" d=\"m184.4 66.2-.4.7c-5 1.4-10.7.7-15.2-1.9a19 19 0 0 1-9.3-12.5 34.3 34.3 0 0 0 16.9-30 35 35 0 0 1 8 43.7ZM71 22.5a34.4 34.4 0 0 0 16.8 30A19 19 0 0 1 78.6 65a20.4 20.4 0 0 1-15.2 2l-.4-.8c-4-7.1-5.3-15.3-4-23.1a35 35 0 0 1 12-20.6Z\"/><path class=\"hwStr1\" stroke-width=\"4\" d=\"M88.7 51.8a98 98 0 0 1 34.7-5.3M63 66.2l.4.7c5 1.4 10.6.7 15.2-1.9 4.5-2.6 8-7 9.2-12.5l-1-.6A34.4 34.4 0 0 1 71 22.5a35 35 0 0 0-8 43.7Z\"/><path class=\"hwStr1\" stroke-width=\"3\" d=\"M71.6 59a25 25 0 0 0 11.3-9m-12.2-6.7c1.7 0 3.5-.4 5-1.3M64 43.6h1.7\"/><path class=\"hwStr1\" stroke-width=\"4\" d=\"M158.6 51.8a98 98 0 0 0-34.7-5.3m35.6 6a34.3 34.3 0 0 0 16.9-30 35 35 0 0 1 7.6 44.4c-5 1.4-10.7.7-15.2-1.9a19 19 0 0 1-9.3-12.5Z\"/><path class=\"hwStr1\" stroke-width=\"3\" d=\"M175.7 59a24.8 24.8 0 0 1-11.3-9m12.3-6.7a10 10 0 0 1-5.1-1.3m11.7 1.6h-1.6\"/><path fill=\"#000\" class=\"hwStr1\" stroke-width=\"4\" d=\"M96.7 64a2.1 2.1 0 1 1 4.2 0 2.1 2.1 0 0 1-4.2 0Zm54 0a2.1 2.1 0 1 0-4.2 0 2.1 2.1 0 0 0 4.2 0Z\"/><path fill=\"#fff\" d=\"M133.9 66.9c2.2 1.2 3.2 4.1 2.6 6.6a8.4 8.4 0 0 1-5 5.4c-2.4 1-5.2.7-7.8.7-2.7 0-5.5.3-7.8-.7-2.4-1-4.4-3-5-5.4-.7-2.5.3-5.4 2.6-6.6 1.5-.8 3.3-.8 5-.7 1.7.2 3.3.3 5 .3h.3a50 50 0 0 0 5-.3c1.8-.1 3.6-.1 5 .7Zm-4.3 7.5c.2-.2.3-.4.3-.7a2 2 0 0 0-.2-.7l-.5-1c-.3-.2-.6-.3-1-.3-.3 0-.5.3-.6.5v.7a2 2 0 0 0 1 1.4c.2.2.7.3 1 0Zm-9.8-1.5v-.7c-.2-.2-.4-.5-.7-.5-.4 0-.7.1-1 .4-.2.2-.3.6-.4.9a2 2 0 0 0-.2.7c0 .3 0 .5.2.7.3.2.8.1 1.1 0 .5-.4 1-1 1-1.5Z\"/><path class=\"hwStr1\" stroke-width=\"3\" d=\"M123.6 66.5a50 50 0 0 1-5.1-.3 8.6 8.6 0 0 0-5 .7c-2.3 1.2-3.3 4.1-2.6 6.6a8.4 8.4 0 0 0 5 5.4c2.3 1 5.1.7 7.8.7\"/><path class=\"hwStr1\" stroke-width=\"3\" d=\"M119 71.7a1 1 0 0 0-.8.4c-.3.2-.4.6-.5.9a2 2 0 0 0-.2.7c0 .3 0 .5.2.7.3.2.8.1 1.1 0 .5-.4 1-1 1-1.5v-.7c-.2-.2-.4-.5-.7-.5Zm4.8-5.2a50 50 0 0 0 5-.3c1.8-.1 3.6-.1 5 .7 2.3 1.2 3.3 4.1 2.7 6.6a8.4 8.4 0 0 1-5 5.4c-2.4 1-5.2.7-7.8.7\"/><path class=\"hwStr1\" stroke-width=\"3\" d=\"M128.3 71.7c.3 0 .6.1.9.4l.5.9.2.7c0 .3 0 .5-.3.7-.3.2-.8.1-1 0-.6-.4-1-1-1-1.5v-.7c.1-.2.3-.5.7-.5Z\"/><path class=\"hwStr1\" stroke-width=\"4\" d=\"M43.3 88.2S33 77.2 40.8 69c7.6-8 15.2-2.4 21.2-3m142.3 22.1s10-11 2.3-19c-7.6-8.2-15.3-2.5-21.3-3.2\"/><path class=\"headwearColorB\" d=\"M46 72.8a8 8 0 0 1 8.6-2.4c-3.7 3.3-6.7 7-9 11.3a7.5 7.5 0 0 1 .4-8.9Z\"/><path class=\"hwStr1\" stroke-width=\"2.5\" d=\"M45.7 81.7a40 40 0 0 1 8.9-11.3 8 8 0 0 0-8.6 2.4 7.4 7.4 0 0 0-.3 8.9Z\"/><path class=\"headwearColorB\" d=\"M201.3 72.8a8 8 0 0 0-8.5-2.4c3.6 3.3 6.6 7 8.9 11.3a7.5 7.5 0 0 0-.4-8.9Z\"/><path class=\"hwStr1\" stroke-width=\"2.5\" d=\"M201.7 81.7c-2.3-4.2-5.3-8-9-11.3 3-1 6.6 0 8.6 2.4s2.3 6.2.4 8.9Z\"/></svg>'\n            ),\n            Headwear.HeadwearVariants.BULL,\n            _getHeadwearColor(bullColor)\n        );\n    }\n\n    function _getBullStyle(BullColors bullColor) internal pure returns (string memory) {\n        (string memory lightColor, string memory baseColor) = _getBullColor(bullColor);\n        return\n            string.concat(\n                '<style>.headwearColorL { fill:',\n                lightColor,\n                '}.headwearColorB { fill:',\n                baseColor,\n                '}.hwStr1 {stroke: #000;stroke-linecap: round;stroke-linejoin: round;}</style>'\n            );\n    }\n\n    function _getBullColor(BullColors bullColor) internal pure returns (string memory, string memory) {\n        if (bullColor == BullColors.GREEN) {\n            return (EduxColors.lightGreen, EduxColors.baseGreen);\n        } else if (bullColor == BullColors.PURPLE) {\n            return (EduxColors.lightPurple, EduxColors.basePurple);\n        } else if (bullColor == BullColors.BLUE) {\n            return (EduxColors.lightBlue, EduxColors.baseBlue);\n        } else if (bullColor == BullColors.PINK) {\n            return (EduxColors.lightPink, EduxColors.basePink);\n        } else if (bullColor == BullColors.GOLD) {\n            return (EduxColors.lightGold, EduxColors.baseGold);\n        } else {\n            revert(); // Avoid warnings.\n        }\n    }\n\n    function _getHeadwearColor(BullColors bullColor) internal pure returns (Headwear.HeadwearColors) {\n        if (bullColor == BullColors.GREEN) {\n            return Headwear.HeadwearColors.GREEN;\n        } else if (bullColor == BullColors.PURPLE) {\n            return Headwear.HeadwearColors.PURPLE;\n        } else if (bullColor == BullColors.BLUE) {\n            return Headwear.HeadwearColors.BLUE;\n        } else if (bullColor == BullColors.PINK) {\n            return Headwear.HeadwearColors.PINK;\n        } else if (bullColor == BullColors.GOLD) {\n            return Headwear.HeadwearColors.GOLD;\n        } else {\n            revert(); // Avoid warnings.\n        }\n    }\n}\n",
  "sourcePath": "E:\\Blockchain\\EDUIndex\\EduxContract\\contracts\\libraries\\svgs\\Profile\\Headwear\\HeadwearBull.sol",
  "compiler": {
    "name": "solc",
    "version": "0.8.20+commit.a1b79de6.Emscripten.clang"
  },
  "schemaVersion": "3.4.3",
  "updatedAt": "2024-08-25T13:13:21.775Z",
  "devdoc": {
    "kind": "dev",
    "methods": {},
    "version": 1
  },
  "userdoc": {
    "kind": "user",
    "methods": {},
    "version": 1
  }
}