{
  "contractName": "HeadwearBrains",
  "abi": [
    {
      "inputs": [
        {
          "internalType": "enum HeadwearBrains.BrainsColors",
          "name": "brainsColor",
          "type": "HeadwearBrains.BrainsColors"
        }
      ],
      "name": "getBrains",
      "outputs": [
        {
          "internalType": "string",
          "name": "",
          "type": "string"
        },
        {
          "internalType": "enum Headwear.HeadwearVariants",
          "name": "",
          "type": "Headwear.HeadwearVariants"
        },
        {
          "internalType": "enum Headwear.HeadwearColors",
          "name": "",
          "type": "Headwear.HeadwearColors"
        }
      ],
      "stateMutability": "pure",
      "type": "function"
    }
  ],
  "bytecode": "0x61199861004e600b8282823980515f1a607314610042577f4e487b71000000000000000000000000000000000000000000000000000000005f525f60045260245ffd5b305f52607381538281f3fe7300000000000000000000000000000000000000003014608060405260043610610034575f3560e01c80637821fe1514610038575b5f80fd5b610052600480360381019061004d919061042d565b61006a565b6040516100619392919061059b565b60405180910390f35b60605f80610077846100ae565b604051602001610087919061184a565b604051602081830303815290604052600e6100a1866100df565b9250925092509193909250565b60606100b9826101f0565b6040516020016100c99190611932565b6040516020818303038152906040529050919050565b5f8060048111156100f3576100f26104e2565b5b826004811115610106576101056104e2565b5b0361011457600190506101eb565b60026004811115610128576101276104e2565b5b82600481111561013b5761013a6104e2565b5b0361014957600290506101eb565b6003600481111561015d5761015c6104e2565b5b8260048111156101705761016f6104e2565b5b0361017e57600390506101eb565b60016004811115610192576101916104e2565b5b8260048111156101a5576101a46104e2565b5b036101b357600490506101eb565b6004808111156101c6576101c56104e2565b5b8260048111156101d9576101d86104e2565b5b036101e757600590506101eb565b5f80fd5b919050565b60605f6004811115610205576102046104e2565b5b826004811115610218576102176104e2565b5b0361025a576040518060400160405280600781526020017f23463446464443000000000000000000000000000000000000000000000000008152509050610401565b6002600481111561026e5761026d6104e2565b5b826004811115610281576102806104e2565b5b036102c3576040518060400160405280600781526020017f23463345414646000000000000000000000000000000000000000000000000008152509050610401565b600360048111156102d7576102d66104e2565b5b8260048111156102ea576102e96104e2565b5b0361032c576040518060400160405280600781526020017f23454346304646000000000000000000000000000000000000000000000000008152509050610401565b600160048111156103405761033f6104e2565b5b826004811115610353576103526104e2565b5b03610395576040518060400160405280600781526020017f23464645374630000000000000000000000000000000000000000000000000008152509050610401565b6004808111156103a8576103a76104e2565b5b8260048111156103bb576103ba6104e2565b5b036103fd576040518060400160405280600781526020017f23464645453933000000000000000000000000000000000000000000000000008152509050610401565b5f80fd5b919050565b5f80fd5b60058110610416575f80fd5b50565b5f813590506104278161040a565b92915050565b5f6020828403121561044257610441610406565b5b5f61044f84828501610419565b91505092915050565b5f81519050919050565b5f82825260208201905092915050565b5f5b8381101561048f578082015181840152602081019050610474565b5f8484015250505050565b5f601f19601f8301169050919050565b5f6104b482610458565b6104be8185610462565b93506104ce818560208601610472565b6104d78161049a565b840191505092915050565b7f4e487b71000000000000000000000000000000000000000000000000000000005f52602160045260245ffd5b601681106105205761051f6104e2565b5b50565b5f8190506105308261050f565b919050565b5f61053f82610523565b9050919050565b61054f81610535565b82525050565b60068110610566576105656104e2565b5b50565b5f81905061057682610555565b919050565b5f61058582610569565b9050919050565b6105958161057b565b82525050565b5f6060820190508181035f8301526105b381866104aa565b90506105c26020830185610546565b6105cf604083018461058c565b949350505050565b5f81905092915050565b7f3c73766720786d6c6e733d22687474703a2f2f7777772e77332e6f72672f32305f8201527f30302f737667222077696474683d2232313022206865696768743d223333352260208201527f2066696c6c3d226e6f6e65223e00000000000000000000000000000000000000604082015250565b5f610661604d836105d7565b915061066c826105e1565b604d82019050919050565b5f61068182610458565b61068b81856105d7565b935061069b818560208601610472565b80840191505092915050565b7f3c706174682066696c6c3d22236666662220643d224d3135302e332039352e335f8201527f632e3520332e332d2e3620362e372d332e3220382e376131332031332030203060208201527f20312d332e34203220323133203231332030203020312d33382e3620332e366860408201527f2d2e32632d392e3720302d33332e382d312e372d33382e362d332e366131332060608201527f31332030203020312d332e342d3220392e3220392e322030203020312d332e3260808201527f2d382e376c2e362d33632e3320312e312032203220342e3520322e376136332060a08201527f363320302030203020392e3520312e36413430362e39203430362e392030203060c08201527f203020313035203938682e32613430372e33203430372e33203020302030203360e08201527f302e362d312e3363332e372d2e3420372d3120392e352d312e3620322e352d2e6101008201527f3720342e322d312e3620342e362d322e376c2e3520335a222f3e3c70617468206101208201527f636c6173733d226865616477656172436f6c6f724c2220643d224d31333820386101408201527f312e31633420332e3220362e36203820372031336c2e322e39613632203632206101608201527f30203020312d392e3520312e36762d2e386131392031392030203020302d342e6101808201527f392d382e366c2d31202e35632d332e3420312e392d362e3120352d372e3320386101a08201527f2e387631632d372e312e342d31332e382e342d31372e342e34682d2e32632d336101c08201527f2e3620302d31302e3320302d31372e352d2e33762d312e3161313520313520306101e08201527f203020302d372e322d382e386c2d312d2e356131392031392030203020302d346102008201527f2e3820382e36762e38632d332e382d2e342d372e322d312d392e362d312e366c6102208201527f2e322d31632e342d3520332d392e3720372d31322e396131332e352031332e356102408201527f2030203020312031312e372d3135762e33632e3320312e382e3220332e372d2e6102608201527f3220352e37682e3461313720313720302030203120372e3720392e34682e32616102808201527f32312032312030203020312031322e312d2e3268322e326132312032312030206102a08201527f3020312031322e312e31682e3263312e332d332e3820342d372e3320372e372d6102c08201527f392e33682e34632d2e342d322d2e352d332e392d2e332d352e37762d2e3363336102e08201527f2e372e3620362e3920322e342039203561313420313420302030203120322e396103008201527f2031305a222f3e3c7061746820636c6173733d226865616477656172436f6c6f6103208201527f724c2220643d226d3133352e362039352e382e312e38632d34202e352d382e376103408201527f2e382d31332e312031762d312e3161313520313520302030203120372e322d386103608201527f2e386c312d2e3561313920313920302030203120342e3820382e365a6d2d33306103808201527f2e372d3333682e326132302e372032302e372030203020312032302e3820332e6103a08201527f33682e34762e33632d2e3320312e382d2e3220332e372e3220352e37682d2e346103c08201527f6131372031372030203020302d372e3720392e34682d2e3261323120323120306103e08201527f203020302d31322e312d2e32682d322e326132312032312030203020302d31326104008201527f2e312e31682d2e32632d312e332d332e382d342d372e332d372e372d392e33686104208201527f2d2e34632e342d32202e352d332e392e332d352e37762d2e33682e3363352e346104408201527f2d342e392031342e312d362032302e382d332e335a4d38372e352039362e35766104608201527f31632d342e352d2e312d392d2e342d31332e322d2e39762d2e386131392031396104808201527f20302030203120342e392d382e366c31202e3563332e3420312e3920362035206104a08201527f372e3320382e385a222f3e3c7061746820636c6173733d2268775374723122206104c08201527f7374726f6b652d77696474683d22342220643d224d36352039346131382e35206104e08201527f31382e3520302030203120392e352d31342e36222f3e3c7061746820636c61736105008201527f733d2268775374723122207374726f6b652d77696474683d22342220643d224d6105208201527f37322038312e316131332e352031332e352030203020312031312e372d3135686105408201527f2e3463352e342d342e392031342e312d362032302e382d332e33682d2e326d2d6105608201527f392e3820372e3461313620313620302030203020313020332e31222f3e3c70616105808201527f746820636c6173733d2268775374723122207374726f6b652d77696474683d226105a08201527f342220643d224d38332e382036362e34632e3220312e382e3120332e372d2e336105c08201527f20352e376c2d332e3320332e324d38342037326131372e322031372e322030206105e08201527f30203120382e352031332e35222f3e3c7061746820636c6173733d22687753746106008201527f723122207374726f6b652d77696474683d22342220643d224d39312e382038316106208201527f2e346132312032312030203020312031322e3120304d39372039302e326131326106408201527f2031322030203020302d332e3420362e356d2d362e312d2e32632d312e322d336106608201527f2e372d332e392d372d372e332d382e38222f3e3c7061746820636c6173733d226106808201527f68775374723122207374726f6b652d77696474683d22342220643d224d38352e6106a08201527f352038322e386131392031392030203020302d31312e312031334d31343520396106c08201527f346131382e352031382e352030203020302d392e352d31342e36222f3e3c70616106e08201527f746820636c6173733d2268775374723122207374726f6b652d77696474683d226107008201527f342220643d224d3133382038312e316131332e362031332e362030203020302d6107208201527f31322e312d3135632d352e342d342e392d31342d362d32302e382d332e33682e6107408201527f326d392e3820372e346131362031362030203020312d313020332e31222f3e3c6107608201527f7061746820636c6173733d2268775374723122207374726f6b652d77696474686107808201527f3d22342220643d224d3132362e322036362e34632d2e3220312e382d2e3120336107a08201527f2e372e3320352e376c332e3320332e324d3132362037326131372e332031372e6107c08201527f332030203020302d382e352031332e35222f3e3c7061746820636c6173733d226107e08201527f68775374723122207374726f6b652d77696474683d22342220643d224d3131386108008201527f2e322038312e346132312032312030203020302d31322e3120306d362e3920386108208201527f2e3863312e3720312e372033203420332e3420362e356d362e312d2e3263312e6108408201527f322d332e3720332e392d3720372e332d382e38222f3e3c7061746820636c61736108608201527f733d2268775374723122207374726f6b652d77696474683d22342220643d224d6108808201527f3132342e352038322e386131392031392030203020312031312e312031336d2d6108a08201527f33302e352d3333563938222f3e3c706174682066696c6c3d22233030302220666108c08201527f696c6c2d72756c653d226576656e6f64642220643d224d3134392e382039302e6108e08201527f336132203220302030203120312e3920312e35762e34682e31762e34682e31766109008201527f2e336c2e312e312e312e33762e336c2e322e32632e3620342e322d2e3720382e6109208201527f352d332e382031312e336131342031342030203020312d3420322e35632d352e6109408201527f3220322e322d31342e3320342e352d33392e3420342e352d32352e3120302d336109608201527f342e342d322e332d33392e352d342e356131322e342031322e342030203020316109808201527f2d372e342d31352e326c2e312d2e356132203220302030203120332e382d2e326109a08201527f6c2e362e3520322e36203163322e332e3620352e3620312e3120392e3220312e6109c08201527f35613431332e35203431332e352030203020302034382031203137312e3820316109e08201527f37312e382030203020302032322e322d322e356c322e362d31202e362d2e3561610a008201527f32203220302030203120312e392d312e335a4d36312e3620393661382e332038610a208201527f2e3320302030203020352e3520372e3963342e3420312e3820313320342e3120610a408201527f333820342e317333332e342d322e332033372e382d342e3163312d2e3520322d610a608201527f312e3120332d312e3961382e3320382e3320302030203020322e352d366c2d32610a808201527f2e362e392d2e362d32202e362032632d322e372e372d362e3120312e332d392e610aa08201527f3820312e372d342e322e352d382e392e382d31332e3320316c2d2e312d327632610ac08201527f613430392e32203430392e322030203020312d33352e322030762d322032632d610ae08201527f342e352d2e322d392e312d2e352d31332e332d316c2e322d322d2e3220324136610b008201527f342e382036342e382030203020312036312e362039365a2220636c69702d7275610b208201527f6c653d226576656e6f6464222f3e3c6720636c69702d706174683d2275726c28610b408201527f236129223e3c706174682066696c6c3d2223666666222066696c6c2d6f706163610b608201527f6974793d222e332220643d224d3130342e37203437632d323520302d34352e34610b808201527f2031372e372d34352e342033392e33203020322e332e332034202e372036202e610ba08201527f3320312e312032203220342e3520322e3761363320363320302030203020392e610bc08201527f3520312e36203431352e34203431352e342030203020302036312e3420306333610be08201527f2e382d2e3420372d3120392e362d312e3620322e352d2e3720342e312d312e36610c008201527f20342e352d322e372e342d32202e362d332e372e362d3620302d32312e362d32610c208201527f302e332d33392e322d34352e342d33392e325a222f3e3c2f673e3c7061746820610c408201527f7374726f6b653d222330303022207374726f6b652d77696474683d2234222064610c608201527f3d224d36302e322039322e39632d2e342d322e312d2e362d342e332d2e362d36610c808201527f2e3620302d32312e362032302e332d33392e322034352e342d33392e32203235610ca08201527f20302034352e342031372e362034352e342033392e32203020322e332d2e3220610cc08201527f342e352d2e3620362e36222f3e3c7061746820636c6173733d22687753747231610ce08201527f22207374726f6b652d77696474683d22342220643d224d36302e332039322e33610d008201527f632e3320312e312032203220342e3520322e3761363320363320302030203020610d208201527f392e3520312e36203431352e34203431352e342030203020302036312e342030610d408201527f63332e372d2e3420372d3120392e352d312e3620322e352d2e3720342e322d31610d608201527f2e3620342e362d322e37222f3e3c70617468207374726f6b653d222330303022610d808201527f207374726f6b652d6f7061636974793d222e3322207374726f6b652d77696474610da08201527f683d22322220643d224d36312e36203130312e327331362e3220332e34203433610dc08201527f2e3420332e342034332e342d332e342034332e342d332e34222f3e3c64656673610de08201527f3e3c636c6970506174682069643d2261223e3c706174682066696c6c3d222366610e008201527f66662220643d224d35392e332034376839302e387635314835392e337a222f3e610e208201527f3c2f636c6970506174683e3c2f646566733e3c2f7376673e0000000000000000610e4082015250565b5f611833610e58836105d7565b915061183e826106a7565b610e5882019050919050565b5f61185482610655565b91506118608284610677565b915061186b82611826565b915081905092915050565b7f3c7374796c653e2e6865616477656172436f6c6f724c207b2066696c6c3a0000815250565b7f7d2e687753747231207b7374726f6b653a20233030303b7374726f6b652d6c695f8201527f6e656361703a20726f756e643b7374726f6b652d6c696e656a6f696e3a20726f60208201527f756e643b7d3c2f7374796c653e00000000000000000000000000000000000000604082015250565b5f61191c604d836105d7565b91506119278261189c565b604d82019050919050565b5f61193c82611876565b601e8201915061194c8284610677565b915061195782611910565b91508190509291505056fea2646970667358221220a390ea6284f58440d6cab11eb175cd79104010f3075b2972d9e477fd149c1f1964736f6c63430008140033",
  "immutableReferences": {},
  "source": "// SPDX-License-Identifier: MIT\npragma solidity ^0.8.0;\n\nimport {Headwear} from '../Headwear.sol';\nimport {EduxColors} from '../EduxColors.sol';\n\nlibrary HeadwearBrains {\n    enum BrainsColors {\n        GREEN,\n        PINK,\n        PURPLE,\n        BLUE,\n        GOLD\n    }\n\n    function getBrains(\n        BrainsColors brainsColor\n    ) external pure returns (string memory, Headwear.HeadwearVariants, Headwear.HeadwearColors) {\n        return (\n            string.concat(\n                '<svg xmlns=\"http://www.w3.org/2000/svg\" width=\"210\" height=\"335\" fill=\"none\">',\n                _getBrainsStyle(brainsColor),\n                '<path fill=\"#fff\" d=\"M150.3 95.3c.5 3.3-.6 6.7-3.2 8.7a13 13 0 0 1-3.4 2 213 213 0 0 1-38.6 3.6h-.2c-9.7 0-33.8-1.7-38.6-3.6a13 13 0 0 1-3.4-2 9.2 9.2 0 0 1-3.2-8.7l.6-3c.3 1.1 2 2 4.5 2.7a63 63 0 0 0 9.5 1.6A406.9 406.9 0 0 0 105 98h.2a407.3 407.3 0 0 0 30.6-1.3c3.7-.4 7-1 9.5-1.6 2.5-.7 4.2-1.6 4.6-2.7l.5 3Z\"/><path class=\"headwearColorL\" d=\"M138 81.1c4 3.2 6.6 8 7 13l.2.9a62 62 0 0 1-9.5 1.6v-.8a19 19 0 0 0-4.9-8.6l-1 .5c-3.4 1.9-6.1 5-7.3 8.8v1c-7.1.4-13.8.4-17.4.4h-.2c-3.6 0-10.3 0-17.5-.3v-1.1a15 15 0 0 0-7.2-8.8l-1-.5a19 19 0 0 0-4.8 8.6v.8c-3.8-.4-7.2-1-9.6-1.6l.2-1c.4-5 3-9.7 7-12.9a13.5 13.5 0 0 1 11.7-15v.3c.3 1.8.2 3.7-.2 5.7h.4a17 17 0 0 1 7.7 9.4h.2a21 21 0 0 1 12.1-.2h2.2a21 21 0 0 1 12.1.1h.2c1.3-3.8 4-7.3 7.7-9.3h.4c-.4-2-.5-3.9-.3-5.7v-.3c3.7.6 6.9 2.4 9 5a14 14 0 0 1 2.9 10Z\"/><path class=\"headwearColorL\" d=\"m135.6 95.8.1.8c-4 .5-8.7.8-13.1 1v-1.1a15 15 0 0 1 7.2-8.8l1-.5a19 19 0 0 1 4.8 8.6Zm-30.7-33h.2a20.7 20.7 0 0 1 20.8 3.3h.4v.3c-.3 1.8-.2 3.7.2 5.7h-.4a17 17 0 0 0-7.7 9.4h-.2a21 21 0 0 0-12.1-.2h-2.2a21 21 0 0 0-12.1.1h-.2c-1.3-3.8-4-7.3-7.7-9.3h-.4c.4-2 .5-3.9.3-5.7v-.3h.3c5.4-4.9 14.1-6 20.8-3.3ZM87.5 96.5v1c-4.5-.1-9-.4-13.2-.9v-.8a19 19 0 0 1 4.9-8.6l1 .5c3.4 1.9 6 5 7.3 8.8Z\"/><path class=\"hwStr1\" stroke-width=\"4\" d=\"M65 94a18.5 18.5 0 0 1 9.5-14.6\"/><path class=\"hwStr1\" stroke-width=\"4\" d=\"M72 81.1a13.5 13.5 0 0 1 11.7-15h.4c5.4-4.9 14.1-6 20.8-3.3h-.2m-9.8 7.4a16 16 0 0 0 10 3.1\"/><path class=\"hwStr1\" stroke-width=\"4\" d=\"M83.8 66.4c.2 1.8.1 3.7-.3 5.7l-3.3 3.2M84 72a17.2 17.2 0 0 1 8.5 13.5\"/><path class=\"hwStr1\" stroke-width=\"4\" d=\"M91.8 81.4a21 21 0 0 1 12.1 0M97 90.2a12 12 0 0 0-3.4 6.5m-6.1-.2c-1.2-3.7-3.9-7-7.3-8.8\"/><path class=\"hwStr1\" stroke-width=\"4\" d=\"M85.5 82.8a19 19 0 0 0-11.1 13M145 94a18.5 18.5 0 0 0-9.5-14.6\"/><path class=\"hwStr1\" stroke-width=\"4\" d=\"M138 81.1a13.6 13.6 0 0 0-12.1-15c-5.4-4.9-14-6-20.8-3.3h.2m9.8 7.4a16 16 0 0 1-10 3.1\"/><path class=\"hwStr1\" stroke-width=\"4\" d=\"M126.2 66.4c-.2 1.8-.1 3.7.3 5.7l3.3 3.2M126 72a17.3 17.3 0 0 0-8.5 13.5\"/><path class=\"hwStr1\" stroke-width=\"4\" d=\"M118.2 81.4a21 21 0 0 0-12.1 0m6.9 8.8c1.7 1.7 3 4 3.4 6.5m6.1-.2c1.2-3.7 3.9-7 7.3-8.8\"/><path class=\"hwStr1\" stroke-width=\"4\" d=\"M124.5 82.8a19 19 0 0 1 11.1 13m-30.5-33V98\"/><path fill=\"#000\" fill-rule=\"evenodd\" d=\"M149.8 90.3a2 2 0 0 1 1.9 1.5v.4h.1v.4h.1v.3l.1.1.1.3v.3l.2.2c.6 4.2-.7 8.5-3.8 11.3a14 14 0 0 1-4 2.5c-5.2 2.2-14.3 4.5-39.4 4.5-25.1 0-34.4-2.3-39.5-4.5a12.4 12.4 0 0 1-7.4-15.2l.1-.5a2 2 0 0 1 3.8-.2l.6.5 2.6 1c2.3.6 5.6 1.1 9.2 1.5a413.5 413.5 0 0 0 48 1 171.8 171.8 0 0 0 22.2-2.5l2.6-1 .6-.5a2 2 0 0 1 1.9-1.3ZM61.6 96a8.3 8.3 0 0 0 5.5 7.9c4.4 1.8 13 4.1 38 4.1s33.4-2.3 37.8-4.1c1-.5 2-1.1 3-1.9a8.3 8.3 0 0 0 2.5-6l-2.6.9-.6-2 .6 2c-2.7.7-6.1 1.3-9.8 1.7-4.2.5-8.9.8-13.3 1l-.1-2v2a409.2 409.2 0 0 1-35.2 0v-2 2c-4.5-.2-9.1-.5-13.3-1l.2-2-.2 2A64.8 64.8 0 0 1 61.6 96Z\" clip-rule=\"evenodd\"/><g clip-path=\"url(#a)\"><path fill=\"#fff\" fill-opacity=\".3\" d=\"M104.7 47c-25 0-45.4 17.7-45.4 39.3 0 2.3.3 4 .7 6 .3 1.1 2 2 4.5 2.7a63 63 0 0 0 9.5 1.6 415.4 415.4 0 0 0 61.4 0c3.8-.4 7-1 9.6-1.6 2.5-.7 4.1-1.6 4.5-2.7.4-2 .6-3.7.6-6 0-21.6-20.3-39.2-45.4-39.2Z\"/></g><path stroke=\"#000\" stroke-width=\"4\" d=\"M60.2 92.9c-.4-2.1-.6-4.3-.6-6.6 0-21.6 20.3-39.2 45.4-39.2 25 0 45.4 17.6 45.4 39.2 0 2.3-.2 4.5-.6 6.6\"/><path class=\"hwStr1\" stroke-width=\"4\" d=\"M60.3 92.3c.3 1.1 2 2 4.5 2.7a63 63 0 0 0 9.5 1.6 415.4 415.4 0 0 0 61.4 0c3.7-.4 7-1 9.5-1.6 2.5-.7 4.2-1.6 4.6-2.7\"/><path stroke=\"#000\" stroke-opacity=\".3\" stroke-width=\"2\" d=\"M61.6 101.2s16.2 3.4 43.4 3.4 43.4-3.4 43.4-3.4\"/><defs><clipPath id=\"a\"><path fill=\"#fff\" d=\"M59.3 47h90.8v51H59.3z\"/></clipPath></defs></svg>'\n            ),\n            Headwear.HeadwearVariants.BRAINS,\n            _getHeadwearColor(brainsColor)\n        );\n    }\n\n    function _getBrainsStyle(BrainsColors brainsColor) internal pure returns (string memory) {\n        return\n            string.concat(\n                '<style>.headwearColorL { fill:',\n                _getBrainsColor(brainsColor),\n                '}.hwStr1 {stroke: #000;stroke-linecap: round;stroke-linejoin: round;}</style>'\n            );\n    }\n\n    function _getBrainsColor(BrainsColors brainsColor) internal pure returns (string memory) {\n        if (brainsColor == BrainsColors.GREEN) {\n            return EduxColors.lightGreen;\n        } else if (brainsColor == BrainsColors.PURPLE) {\n            return EduxColors.lightPurple;\n        } else if (brainsColor == BrainsColors.BLUE) {\n            return EduxColors.lightBlue;\n        } else if (brainsColor == BrainsColors.PINK) {\n            return EduxColors.lightPink;\n        } else if (brainsColor == BrainsColors.GOLD) {\n            return EduxColors.lightGold;\n        } else {\n            revert(); // Avoid warnings.\n        }\n    }\n\n    function _getHeadwearColor(BrainsColors brainsColor) internal pure returns (Headwear.HeadwearColors) {\n        if (brainsColor == BrainsColors.GREEN) {\n            return Headwear.HeadwearColors.GREEN;\n        } else if (brainsColor == BrainsColors.PURPLE) {\n            return Headwear.HeadwearColors.PURPLE;\n        } else if (brainsColor == BrainsColors.BLUE) {\n            return Headwear.HeadwearColors.BLUE;\n        } else if (brainsColor == BrainsColors.PINK) {\n            return Headwear.HeadwearColors.PINK;\n        } else if (brainsColor == BrainsColors.GOLD) {\n            return Headwear.HeadwearColors.GOLD;\n        } else {\n            revert(); // Avoid warnings.\n        }\n    }\n}\n",
  "sourcePath": "E:\\Blockchain\\EDUIndex\\EduxContract\\contracts\\libraries\\svgs\\Profile\\Headwear\\HeadwearBrains.sol",
  "compiler": {
    "name": "solc",
    "version": "0.8.20+commit.a1b79de6.Emscripten.clang"
  },
  "schemaVersion": "3.4.3",
  "updatedAt": "2024-08-25T13:13:21.760Z",
  "devdoc": {
    "kind": "dev",
    "methods": {},
    "version": 1
  },
  "userdoc": {
    "kind": "user",
    "methods": {},
    "version": 1
  }
}