{
  "contractName": "HeadwearPartyhat",
  "abi": [
    {
      "inputs": [
        {
          "internalType": "enum HeadwearPartyhat.PartyhatColors",
          "name": "partyhatColor",
          "type": "HeadwearPartyhat.PartyhatColors"
        }
      ],
      "name": "getPartyhat",
      "outputs": [
        {
          "internalType": "string",
          "name": "",
          "type": "string"
        },
        {
          "internalType": "enum Headwear.HeadwearVariants",
          "name": "",
          "type": "Headwear.HeadwearVariants"
        },
        {
          "internalType": "enum Headwear.HeadwearColors",
          "name": "",
          "type": "Headwear.HeadwearColors"
        }
      ],
      "stateMutability": "pure",
      "type": "function"
    }
  ],
  "bytecode": "0x61155161004e600b8282823980515f1a607314610042577f4e487b71000000000000000000000000000000000000000000000000000000005f525f60045260245ffd5b305f52607381538281f3fe7300000000000000000000000000000000000000003014608060405260043610610034575f3560e01c80635c2b679714610038575b5f80fd5b610052600480360381019061004d91906105ef565b61006a565b6040516100619392919061075d565b60405180910390f35b60605f80610077846100ae565b604051602001610087919061137f565b604051602081830303815290604052600a6100a186610188565b9250925092509193909250565b60605f806100bb84610299565b9150915081816004808111156100d4576100d36106a4565b5b8660048111156100e7576100e66106a4565b5b14610127576040518060400160405280600481526020017f233030300000000000000000000000000000000000000000000000000000000081525061015e565b6040518060400160405280600781526020017f23423936333236000000000000000000000000000000000000000000000000008152505b604051602001610170939291906114b3565b60405160208183030381529060405292505050919050565b5f80600481111561019c5761019b6106a4565b5b8260048111156101af576101ae6106a4565b5b036101bd5760019050610294565b600160048111156101d1576101d06106a4565b5b8260048111156101e4576101e36106a4565b5b036101f25760029050610294565b60026004811115610206576102056106a4565b5b826004811115610219576102186106a4565b5b036102275760039050610294565b6003600481111561023b5761023a6106a4565b5b82600481111561024e5761024d6106a4565b5b0361025c5760049050610294565b60048081111561026f5761026e6106a4565b5b826004811115610282576102816106a4565b5b036102905760059050610294565b5f80fd5b919050565b6060805f60048111156102af576102ae6106a4565b5b8360048111156102c2576102c16106a4565b5b0361033c576040518060400160405280600781526020017f23463446464443000000000000000000000000000000000000000000000000008152506040518060400160405280600781526020017f2341304431373000000000000000000000000000000000000000000000000000815250915091506105c3565b600160048111156103505761034f6106a4565b5b836004811115610363576103626106a4565b5b036103dd576040518060400160405280600781526020017f23463345414646000000000000000000000000000000000000000000000000008152506040518060400160405280600781526020017f2345414437464600000000000000000000000000000000000000000000000000815250915091506105c3565b600260048111156103f1576103f06106a4565b5b836004811115610404576104036106a4565b5b0361047e576040518060400160405280600781526020017f23454346304646000000000000000000000000000000000000000000000000008152506040518060400160405280600781526020017f2344394530464600000000000000000000000000000000000000000000000000815250915091506105c3565b60036004811115610492576104916106a4565b5b8360048111156104a5576104a46106a4565b5b0361051f576040518060400160405280600781526020017f23464645374630000000000000000000000000000000000000000000000000008152506040518060400160405280600781526020017f2346464432444400000000000000000000000000000000000000000000000000815250915091506105c3565b600480811115610532576105316106a4565b5b836004811115610545576105446106a4565b5b036105bf576040518060400160405280600781526020017f23464645453933000000000000000000000000000000000000000000000000008152506040518060400160405280600781526020017f2346384339343400000000000000000000000000000000000000000000000000815250915091506105c3565b5f80fd5b915091565b5f80fd5b600581106105d8575f80fd5b50565b5f813590506105e9816105cc565b92915050565b5f60208284031215610604576106036105c8565b5b5f610611848285016105db565b91505092915050565b5f81519050919050565b5f82825260208201905092915050565b5f5b83811015610651578082015181840152602081019050610636565b5f8484015250505050565b5f601f19601f8301169050919050565b5f6106768261061a565b6106808185610624565b9350610690818560208601610634565b6106998161065c565b840191505092915050565b7f4e487b71000000000000000000000000000000000000000000000000000000005f52602160045260245ffd5b601681106106e2576106e16106a4565b5b50565b5f8190506106f2826106d1565b919050565b5f610701826106e5565b9050919050565b610711816106f7565b82525050565b60068110610728576107276106a4565b5b50565b5f81905061073882610717565b919050565b5f6107478261072b565b9050919050565b6107578161073d565b82525050565b5f6060820190508181035f830152610775818661066c565b90506107846020830185610708565b610791604083018461074e565b949350505050565b5f81905092915050565b7f3c73766720786d6c6e733d22687474703a2f2f7777772e77332e6f72672f32305f8201527f30302f737667222077696474683d2232313122206865696768743d223333352260208201527f2066696c6c3d226e6f6e65223e00000000000000000000000000000000000000604082015250565b5f610823604d83610799565b915061082e826107a3565b604d82019050919050565b5f6108438261061a565b61084d8185610799565b935061085d818560208601610634565b80840191505092915050565b7f3c7061746820636c6173733d227061727479686174436f6c6f72322220643d225f8201527f4d39392e372033342e3963332e31203220372e3320322e322031302e372e386c60208201527f322e322e3620392e342031362e39632d392e322d322e332d31382e342d372d3260408201527f342e382d31346c312e372d33202e382d312e335a222f3e3c706174682066696c60608201527f6c3d22236666662220643d224d39392e372033342e39632d342d322e352d362d60808201527f372e372d342e372d31322e3220312e312d342e3620352e352d382e312031302e60a08201527f312d382e3420342e382d2e3220392e3420322e382031312e3120372e3220312e60c08201527f3720342e342e3320392e372d332e342031322e372d2e372e362d312e3520312d60e08201527f322e3420312e356131312e352031312e352030203020312d31302e372d2e385a6101008201527f222f3e3c7061746820636c6173733d227061727479686174436f6c6f723122206101208201527f643d224d3134322039302e35613130382e37203130382e372030203020312d356101408201527f362d33316c31312e322d32302e3263362e3420372031352e362031312e3620326101608201527f342e382031332e3920362e382031322e322031332e342032342e3620323020336101808201527f372e335a222f3e3c7061746820636c6173733d227061727479686174436f6c6f6101a08201527f72322220643d224d37332038332e3363342e332d3820382e362d31362031332d6101c08201527f32332e38613130382e37203130382e372030203020302035362033316c362e336101e08201527f2031322e326135372e352035372e352030203020312d32312e332031302e32206102008201527f39352e312039352e312030203020312d35342d32392e365a222f3e3c706174686102208201527f20636c6173733d227061727479686174436f6c6f72312220643d226d363320316102408201527f30322e372031302d31392e346139352039352030203020302035342032392e366102608201527f2039332e352039332e352030203020312d32312e3220312e39632d32302e33206102808201527f302d32392e372d332d34322e372d31322e315a222f3e3c70617468207374726f6102a08201527f6b653d222330303022207374726f6b652d6c696e656361703d22726f756e64226102c08201527f207374726f6b652d6c696e656a6f696e3d22726f756e6422207374726f6b652d6102e08201527f77696474683d22342220643d226d39392033362e332d312e38203361313634386103008201527f2e3820313634382e382030203020302d33342e312036332e3463313320392e326103208201527f2032322e342031322e312034322e372031322e314d3134322039302e356c362e6103408201527f332031322e326135372e352035372e352030203020312d32312e332031302e326103608201527f2039332e352039332e352030203020312d32312e3220312e396d362e382d37386103808201527f2e3541313934382e3720313934382e37203020302031203134322039302e356d6103a08201527f2d33312e362d35342e38632e392d2e3420312e372d3120322e342d312e3520336103c08201527f2e372d3320352e312d382e3320332e342d31322e376131312e352031312e35206103e08201527f30203020302d31312d372e32632d342e372e332d3920332e382d31302e3220386104008201527f2e342d312e3220342e352e3820392e3720342e372031322e3220332e312032206104208201527f372e3320322e322031302e372e385a222f3e3c70617468207374726f6b653d226104408201527f2330303022207374726f6b652d6c696e656361703d22726f756e6422207374726104608201527f6f6b652d6c696e656a6f696e3d22726f756e6422207374726f6b652d776964746104808201527f683d22342220643d224d39372e322033392e3363362e3420372031352e3620316104a08201527f312e362032342e382031332e396d2d333620362e33613130382e37203130382e6104c08201527f3720302030203020353620333168306d2d36392d372e326139352039352030206104e08201527f3020302035342032392e366830222f3e3c706174682066696c6c3d22236666666105008201527f2220643d224d35362e342032332e3663342e362d3120382e342d342e3720392e6105208201527f332d392e3361313820313820302030203020392e3820392e392031342e3520316105408201527f342e352030203020302d392e382031302e37632d2e382d352d342e352d392e366105608201527f2d392e332d31312e335a222f3e3c7061746820636c6173733d227061727479686105808201527f6174537061726b6c65732220643d224d36352e372031342e33632d3120342e366105a08201527f2d342e3720382e342d392e3320392e3320342e3820312e3720382e3520362e326105c08201527f20392e332031312e3320312d3520352d392e3320392e382d31302e37613138206105e08201527f31382030203020312d392e382d392e395a222f3e3c706174682066696c6c3d226106008201527f236666662220643d224d3135322e332035302e326134203420302031203020306106208201527f2d3820342034203020302030203020385a222f3e3c7061746820636c6173733d6106408201527f227061727479686174537061726b6c65732220643d224d3135322e332035302e6106608201527f326134203420302031203020302d3820342034203020302030203020385a222f6106808201527f3e3c706174682066696c6c3d22236666662220643d224d35362e342036382e396106a08201527f61362e3720362e3720302031203020302d31332e3420362e3720362e372030206106c08201527f30203020302031332e345a222f3e3c7061746820636c6173733d2270617274796106e08201527f686174537061726b6c65732220643d224d35362e342036382e3961362e3720366107008201527f2e3720302031203020302d31332e3420362e3720362e372030203020302030206107208201527f31332e345a222f3e3c706174682066696c6c3d22236666662220643d224d31376107408201527f332e352037312e32632d2e322d342e372d342d392d382e372d392e3720342e336107608201527f2d2e3320382e312d3420382e352d382e3361313120313120302030203020382e6107808201527f3720382e33632d342e372e362d382e3420352d382e3520392e375a222f3e3c706107a08201527f61746820636c6173733d227061727479686174537061726b6c65732220643d226107c08201527f4d3137332e332035332e32632d2e3420342e332d342e3220382d382e3520382e6107e08201527f3320342e372e3720382e35203520382e3720392e372e312d342e3720332e382d6108008201527f3920382e352d392e376131312031312030203020312d382e372d382e335a222f6108208201527f3e3c706174682066696c6c3d22236666662220643d224d32332e392034322e326108408201527f61342e3420342e3420302031203120382e37203020342e3420342e34203020306108608201527f20312d382e3720305a222f3e3c7061746820636c6173733d22706172747968616108808201527f74537061726b6c65732220643d224d32332e392034322e3261342e3420342e346108a08201527f20302031203120382e37203020342e3420342e342030203020312d382e3720306108c08201527f5a222f3e3c2f7376673e000000000000000000000000000000000000000000006108e082015250565b5f6113686108ea83610799565b915061137382610869565b6108ea82019050919050565b5f61138982610817565b91506113958284610839565b91506113a08261135b565b915081905092915050565b7f3c7374796c653e2e7061727479686174436f6c6f7231207b2066696c6c3a0000815250565b7f7d2e7061727479686174436f6c6f7232207b2066696c6c3a0000000000000000815250565b7f7d2e7061727479686174537061726b6c6573207b207374726f6b653a00000000815250565b7f3b7374726f6b652d6c696e656361703a20726f756e643b7374726f6b652d6c695f8201527f6e656a6f696e3a20726f756e643b7374726f6b652d77696474683a20347d3c2f60208201527f7374796c653e0000000000000000000000000000000000000000000000000000604082015250565b5f61149d604683610799565b91506114a88261141d565b604682019050919050565b5f6114bd826113ab565b601e820191506114cd8286610839565b91506114d8826113d1565b6018820191506114e88285610839565b91506114f3826113f7565b601c820191506115038284610839565b915061150e82611491565b915081905094935050505056fea2646970667358221220035a86ab9c81a27ba2540026c0f5b09441bd85a4ab971da541e01cfd373d9b6664736f6c63430008140033",
  "immutableReferences": {},
  "source": "// SPDX-License-Identifier: MIT\npragma solidity ^0.8.0;\n\nimport {Headwear} from '../Headwear.sol';\nimport {EduxColors} from '../EduxColors.sol';\n\nlibrary HeadwearPartyhat {\n    enum PartyhatColors {\n        GREEN,\n        PURPLE,\n        BLUE,\n        PINK,\n        GOLD\n    }\n\n    function getPartyhat(\n        PartyhatColors partyhatColor\n    ) external pure returns (string memory, Headwear.HeadwearVariants, Headwear.HeadwearColors) {\n        return (\n            string.concat(\n                '<svg xmlns=\"http://www.w3.org/2000/svg\" width=\"211\" height=\"335\" fill=\"none\">',\n                _getPartyhatStyle(partyhatColor),\n                '<path class=\"partyhatColor2\" d=\"M99.7 34.9c3.1 2 7.3 2.2 10.7.8l2.2.6 9.4 16.9c-9.2-2.3-18.4-7-24.8-14l1.7-3 .8-1.3Z\"/><path fill=\"#fff\" d=\"M99.7 34.9c-4-2.5-6-7.7-4.7-12.2 1.1-4.6 5.5-8.1 10.1-8.4 4.8-.2 9.4 2.8 11.1 7.2 1.7 4.4.3 9.7-3.4 12.7-.7.6-1.5 1-2.4 1.5a11.5 11.5 0 0 1-10.7-.8Z\"/><path class=\"partyhatColor1\" d=\"M142 90.5a108.7 108.7 0 0 1-56-31l11.2-20.2c6.4 7 15.6 11.6 24.8 13.9 6.8 12.2 13.4 24.6 20 37.3Z\"/><path class=\"partyhatColor2\" d=\"M73 83.3c4.3-8 8.6-16 13-23.8a108.7 108.7 0 0 0 56 31l6.3 12.2a57.5 57.5 0 0 1-21.3 10.2 95.1 95.1 0 0 1-54-29.6Z\"/><path class=\"partyhatColor1\" d=\"m63 102.7 10-19.4a95 95 0 0 0 54 29.6 93.5 93.5 0 0 1-21.2 1.9c-20.3 0-29.7-3-42.7-12.1Z\"/><path stroke=\"#000\" stroke-linecap=\"round\" stroke-linejoin=\"round\" stroke-width=\"4\" d=\"m99 36.3-1.8 3a1648.8 1648.8 0 0 0-34.1 63.4c13 9.2 22.4 12.1 42.7 12.1M142 90.5l6.3 12.2a57.5 57.5 0 0 1-21.3 10.2 93.5 93.5 0 0 1-21.2 1.9m6.8-78.5A1948.7 1948.7 0 0 1 142 90.5m-31.6-54.8c.9-.4 1.7-1 2.4-1.5 3.7-3 5.1-8.3 3.4-12.7a11.5 11.5 0 0 0-11-7.2c-4.7.3-9 3.8-10.2 8.4-1.2 4.5.8 9.7 4.7 12.2 3.1 2 7.3 2.2 10.7.8Z\"/><path stroke=\"#000\" stroke-linecap=\"round\" stroke-linejoin=\"round\" stroke-width=\"4\" d=\"M97.2 39.3c6.4 7 15.6 11.6 24.8 13.9m-36 6.3a108.7 108.7 0 0 0 56 31h0m-69-7.2a95 95 0 0 0 54 29.6h0\"/><path fill=\"#fff\" d=\"M56.4 23.6c4.6-1 8.4-4.7 9.3-9.3a18 18 0 0 0 9.8 9.9 14.5 14.5 0 0 0-9.8 10.7c-.8-5-4.5-9.6-9.3-11.3Z\"/><path class=\"partyhatSparkles\" d=\"M65.7 14.3c-1 4.6-4.7 8.4-9.3 9.3 4.8 1.7 8.5 6.2 9.3 11.3 1-5 5-9.3 9.8-10.7a18 18 0 0 1-9.8-9.9Z\"/><path fill=\"#fff\" d=\"M152.3 50.2a4 4 0 1 0 0-8 4 4 0 0 0 0 8Z\"/><path class=\"partyhatSparkles\" d=\"M152.3 50.2a4 4 0 1 0 0-8 4 4 0 0 0 0 8Z\"/><path fill=\"#fff\" d=\"M56.4 68.9a6.7 6.7 0 1 0 0-13.4 6.7 6.7 0 0 0 0 13.4Z\"/><path class=\"partyhatSparkles\" d=\"M56.4 68.9a6.7 6.7 0 1 0 0-13.4 6.7 6.7 0 0 0 0 13.4Z\"/><path fill=\"#fff\" d=\"M173.5 71.2c-.2-4.7-4-9-8.7-9.7 4.3-.3 8.1-4 8.5-8.3a11 11 0 0 0 8.7 8.3c-4.7.6-8.4 5-8.5 9.7Z\"/><path class=\"partyhatSparkles\" d=\"M173.3 53.2c-.4 4.3-4.2 8-8.5 8.3 4.7.7 8.5 5 8.7 9.7.1-4.7 3.8-9 8.5-9.7a11 11 0 0 1-8.7-8.3Z\"/><path fill=\"#fff\" d=\"M23.9 42.2a4.4 4.4 0 1 1 8.7 0 4.4 4.4 0 0 1-8.7 0Z\"/><path class=\"partyhatSparkles\" d=\"M23.9 42.2a4.4 4.4 0 1 1 8.7 0 4.4 4.4 0 0 1-8.7 0Z\"/></svg>'\n            ),\n            Headwear.HeadwearVariants.PARTYHAT,\n            _getHeadwearColor(partyhatColor)\n        );\n    }\n\n    function _getPartyhatStyle(PartyhatColors partyhatColor) internal pure returns (string memory) {\n        (string memory primaryColor, string memory secondaryColor) = _getPartyhatColor(partyhatColor);\n        return\n            string.concat(\n                '<style>.partyhatColor1 { fill:',\n                primaryColor,\n                '}.partyhatColor2 { fill:',\n                secondaryColor,\n                '}.partyhatSparkles { stroke:',\n                partyhatColor == PartyhatColors.GOLD ? EduxColors.darkGold : EduxColors.black,\n                ';stroke-linecap: round;stroke-linejoin: round;stroke-width: 4}</style>'\n            );\n    }\n\n    function _getPartyhatColor(PartyhatColors partyhatColor) internal pure returns (string memory, string memory) {\n        if (partyhatColor == PartyhatColors.GREEN) {\n            return (EduxColors.lightGreen, EduxColors.baseGreen);\n        } else if (partyhatColor == PartyhatColors.PURPLE) {\n            return (EduxColors.lightPurple, EduxColors.basePurple);\n        } else if (partyhatColor == PartyhatColors.BLUE) {\n            return (EduxColors.lightBlue, EduxColors.baseBlue);\n        } else if (partyhatColor == PartyhatColors.PINK) {\n            return (EduxColors.lightPink, EduxColors.basePink);\n        } else if (partyhatColor == PartyhatColors.GOLD) {\n            return (EduxColors.lightGold, EduxColors.baseGold);\n        } else {\n            revert(); // Avoid warnings.\n        }\n    }\n\n    function _getHeadwearColor(PartyhatColors partyhatColor) internal pure returns (Headwear.HeadwearColors) {\n        if (partyhatColor == PartyhatColors.GREEN) {\n            return Headwear.HeadwearColors.GREEN;\n        } else if (partyhatColor == PartyhatColors.PURPLE) {\n            return Headwear.HeadwearColors.PURPLE;\n        } else if (partyhatColor == PartyhatColors.BLUE) {\n            return Headwear.HeadwearColors.BLUE;\n        } else if (partyhatColor == PartyhatColors.PINK) {\n            return Headwear.HeadwearColors.PINK;\n        } else if (partyhatColor == PartyhatColors.GOLD) {\n            return Headwear.HeadwearColors.GOLD;\n        } else {\n            revert(); // Avoid warnings.\n        }\n    }\n}\n",
  "sourcePath": "E:\\Blockchain\\EDUIndex\\EduxContract\\contracts\\libraries\\svgs\\Profile\\Headwear\\HeadwearPartyhat.sol",
  "compiler": {
    "name": "solc",
    "version": "0.8.20+commit.a1b79de6.Emscripten.clang"
  },
  "schemaVersion": "3.4.3",
  "updatedAt": "2024-08-25T13:13:21.931Z",
  "devdoc": {
    "kind": "dev",
    "methods": {},
    "version": 1
  },
  "userdoc": {
    "kind": "user",
    "methods": {},
    "version": 1
  }
}