{
  "contractName": "HeadwearBeanie",
  "abi": [
    {
      "inputs": [
        {
          "internalType": "enum HeadwearBeanie.BeanieColors",
          "name": "beanieColor",
          "type": "HeadwearBeanie.BeanieColors"
        }
      ],
      "name": "getBeanie",
      "outputs": [
        {
          "internalType": "string",
          "name": "",
          "type": "string"
        },
        {
          "internalType": "enum Headwear.HeadwearVariants",
          "name": "",
          "type": "Headwear.HeadwearVariants"
        },
        {
          "internalType": "enum Headwear.HeadwearColors",
          "name": "",
          "type": "Headwear.HeadwearColors"
        }
      ],
      "stateMutability": "pure",
      "type": "function"
    }
  ],
  "bytecode": "0x61199161004e600b8282823980515f1a607314610042577f4e487b71000000000000000000000000000000000000000000000000000000005f525f60045260245ffd5b305f52607381538281f3fe7300000000000000000000000000000000000000003014608060405260043610610034575f3560e01c80635054f66f14610038575b5f80fd5b610052600480360381019061004d919061042d565b61006a565b6040516100619392919061059b565b60405180910390f35b60605f80610077846100ae565b60405160200161008791906117d1565b60405160208183030381529060405260016100a1866100df565b9250925092509193909250565b60606100b9826101f0565b6040516020016100c9919061192b565b6040516020818303038152906040529050919050565b5f8060048111156100f3576100f26104e2565b5b826004811115610106576101056104e2565b5b0361011457600190506101eb565b60016004811115610128576101276104e2565b5b82600481111561013b5761013a6104e2565b5b0361014957600490506101eb565b6003600481111561015d5761015c6104e2565b5b8260048111156101705761016f6104e2565b5b0361017e57600390506101eb565b60026004811115610192576101916104e2565b5b8260048111156101a5576101a46104e2565b5b036101b357600290506101eb565b6004808111156101c6576101c56104e2565b5b8260048111156101d9576101d86104e2565b5b036101e757600590506101eb565b5f80fd5b919050565b60605f6004811115610205576102046104e2565b5b826004811115610218576102176104e2565b5b0361025a576040518060400160405280600781526020017f23463446464443000000000000000000000000000000000000000000000000008152509050610401565b6001600481111561026e5761026d6104e2565b5b826004811115610281576102806104e2565b5b036102c3576040518060400160405280600781526020017f23464645374630000000000000000000000000000000000000000000000000008152509050610401565b600360048111156102d7576102d66104e2565b5b8260048111156102ea576102e96104e2565b5b0361032c576040518060400160405280600781526020017f23454346304646000000000000000000000000000000000000000000000000008152509050610401565b600260048111156103405761033f6104e2565b5b826004811115610353576103526104e2565b5b03610395576040518060400160405280600781526020017f23463345414646000000000000000000000000000000000000000000000000008152509050610401565b6004808111156103a8576103a76104e2565b5b8260048111156103bb576103ba6104e2565b5b036103fd576040518060400160405280600781526020017f23464645453933000000000000000000000000000000000000000000000000008152509050610401565b5f80fd5b919050565b5f80fd5b60058110610416575f80fd5b50565b5f813590506104278161040a565b92915050565b5f6020828403121561044257610441610406565b5b5f61044f84828501610419565b91505092915050565b5f81519050919050565b5f82825260208201905092915050565b5f5b8381101561048f578082015181840152602081019050610474565b5f8484015250505050565b5f601f19601f8301169050919050565b5f6104b482610458565b6104be8185610462565b93506104ce818560208601610472565b6104d78161049a565b840191505092915050565b7f4e487b71000000000000000000000000000000000000000000000000000000005f52602160045260245ffd5b601681106105205761051f6104e2565b5b50565b5f8190506105308261050f565b919050565b5f61053f82610523565b9050919050565b61054f81610535565b82525050565b60068110610566576105656104e2565b5b50565b5f81905061057682610555565b919050565b5f61058582610569565b9050919050565b6105958161057b565b82525050565b5f6060820190508181035f8301526105b381866104aa565b90506105c26020830185610546565b6105cf604083018461058c565b949350505050565b5f81905092915050565b7f3c73766720786d6c6e733d22687474703a2f2f7777772e77332e6f72672f32305f8201527f30302f737667222077696474683d2232313022206865696768743d223333352260208201527f2066696c6c3d226e6f6e65223e3c70617468207374726f6b653d22233030302260408201527f207374726f6b652d6c696e656361703d22726f756e6422207374726f6b652d6c60608201527f696e656a6f696e3d22726f756e6422207374726f6b652d77696474683d22342260808201527f20643d224d39382036362e3573342e322d2e3520372d2e3563322e362030203660a08201527f2e382e3520362e382e35222f3e0000000000000000000000000000000000000060c082015250565b5f6106f960cd836105d7565b9150610704826105e1565b60cd82019050919050565b5f61071982610458565b61072381856105d7565b9350610733818560208601610472565b80840191505092915050565b7f3c7061746820636c6173733d226265616e6965436f6c6f722220643d224d37305f8201527f2e36203933632e322030202e332030202e342e326c2d2e332e376131302e362060208201527f31302e362030203020302d332e352031302e316c2d2e332e38632d322e342d3160408201527f2e342d342e372d332d362e382d342e372d2e352d342e3420312d382e3820342d60608201527f31312e336c2e322e33633220312e3520342e3120322e3720362e3320332e395a60808201527f222f3e3c7061746820636c6173733d226265616e6965436f6c6f722220643d2260a08201527f4d38312039372e33632d3220332e342d3320372e342d332031312e346c2d2e3260c08201527f2031632d332e382d312e332d372e342d332d31302e382d356c2e332d2e38613160e08201527f3120313120302030203120332e352d31302e336c2e332d2e3863332e3220312e6101008201527f3620362e35203320392e392034762e355a222f3e3c7061746820636c6173733d6101208201527f226265616e6965436f6c6f722220643d226d38312e322039362e3820322e372e6101408201527f3761373220373220302030203020382e3120312e366c2d2e3120312e342d31206101608201527f31312e35762e386137332037332030203020312d31322e392d332e336c2e332d6101808201527f3163302d3420312d3820322e382d31312e32762d2e355a4d313035203130302e6101a08201527f367631332e32632d342e3620302d392e332d2e332d31342d316c2e312d2e38206101c08201527f312d3131202e312d312e3263342e322e3520382e352e382031322e382e385a4d6101e08201527f31313920313132762e37632d342e372e372d392e3420312d31342031762d31336102008201527f63342e33203020382e362d2e332031322e382d316c2e3220312e3420312031316102208201527f5a4d3133312e37203130382e356c2e3320316137332e322037332e32203020306102408201527f20312d31322e3820332e336c2d2e312d2e372d312d31312e362d2e312d312e346102608201527f6137372037372030203020302031302e382d322e33762e35633220332e3320336102808201527f20372e3220332031312e325a222f3e3c7061746820636c6173733d226265616e6102a08201527f6965436f6c6f722220643d224d313433203130342e37613630203630203020306102c08201527f20312d31302e3720356c2d2e332d3163302d342d312d382d322e392d31312e336102e08201527f6c2d2e312d2e3663332e342d3120362e382d322e342031302d346c2e332e38616103008201527f313120313120302030203120332e342031302e346c2e332e375a222f3e3c70616103208201527f746820636c6173733d226265616e6965436f6c6f722220643d224d31343620386103408201527f382e3863322e3920322e3520342e3420362e3920342031312e336135312e38206103608201527f35312e382030203020312d3720342e376c2d2e322d2e37632e372d332e382d2e6103808201527f372d382d332e352d31302e326c2d2e332d2e372e332d2e3263322e332d312e326103a08201527f20342e342d322e3420362e342d332e396c2e332d2e335a222f3e3c70617468206103c08201527f636c6173733d226265616e6965436f6c6f722220643d224d3134352e362038396103e08201527f2e32632d3220312e332d342e3220322e342d362e3420332e346c2d2e342d2e396104008201527f632e332d372e382d322d31352e372d362e372d32326133342e352033342e35206104208201527f30203020302d31362e352d31322e342034302e322034302e32203020302031206104408201527f313720372e38633720362031312e382031342e382031332e322032332e396c2d6104608201527f2e322e325a222f3e3c7061746820636c6173733d226265616e6965436f6c6f726104808201527f2220643d226d3133382e382039312e372e342031682d2e336136362e382036366104a08201527f2e382030203020312d31322e3820342e316c2d2e312d2e36632e362d31342e336104c08201527f2d352d32382e362d31342e332d33392e366134342e372034342e3720302030206104e08201527f312034202e3763362e3520322031322e3720372e322031362e342031322e33206105008201527f342e3620362e3420372031342e3320362e372032322e315a222f3e3c706174686105208201527f20636c6173733d226265616e6965436f6c6f722220643d224d3130342e3720356105408201527f362e3263322e34203020342e372e322037202e3420392e3320313120313520326105608201527f352e332031342e332033392e36762e366139312e322039312e322030203020316105808201527f2d32312e3320322e325635362e325a4d3130342e37203939613130352e3120316105a08201527f30352e312030203020312d32312d322e316c2e322d2e37632d2e372d31342e346105c08201527f20352d32382e362031342e332d33392e3620322e312d2e3320342e332d2e34206105e08201527f362e352d2e345639395a222f3e3c7061746820636c6173733d226265616e69656106008201527f436f6c6f722220643d226d38332e372039362e392d322e372d2e37632d332e356106208201527f2d2e392d362e382d322d31302d332e346c2d2e342d2e322e352d2e39632d2e336106408201527f2d372e3820322d31352e3720362e362d323241333420333420302030203120396106608201527f352035376c332e332d2e35632d392e332031312d31352032352e322d31342e336106808201527f2033392e366c2d2e322e375a222f3e3c7061746820636c6173733d226265616e6106a08201527f6965436f6c6f722220643d224d37372e372036392e36632d342e3620362e342d6106c08201527f372031342e332d362e362032322e316c2d2e352031632d322e322d312d342e336106e08201527f2d322e322d362e332d332e354c36342038394133392e382033392e38203020306107008201527f20312037372e332036356133342e362033342e362030203020312031372e362d6107208201527f382033342033342030203020302d31372e322031322e355a222f3e3c706174686107408201527f20636c6173733d2268776c696e65342220643d224d38352e372035392e37632d6107608201527f3320312e342d352e3720332e322d382e3320352e356134322e372034322e37206107808201527f30203020302d31332e332032352e322031312e372031312e372030203020302d6107a08201527f342031302e352035372e342035372e342030203020302031372e3820382e38206107c08201527f38312e332038312e332030203020302032372e3120342039362e322039362e326107e08201527f2030203020302032372e312d344136352e312036352e312030203020302031356108008201527f3020313031632e352d342e312d312d382e322d342d31302e356134322e3720346108208201527f322e372030203020302d31332e332d32352e32632d322e362d322e332d352e336108408201527f2d342d382e332d352e35222f3e3c7061746820636c6173733d2268776c696e656108608201527f342220643d224d36342e332038392e32633220312e3320342e3120322e3420366108808201527f2e3320332e346c2e342e326136362e352036362e3520302030203020323120356108a08201527f2e3563342e322e3520382e352e372031322e372e37222f3e3c7061746820636c6108c08201527f6173733d2268776c696e65332220643d224d37312039332e3861392e3920392e6108e08201527f392030203020302d332e382031304d38312039362e38632d3220332e322d33206109008201527f372e312d332031314d39322039392e386c2d312031314d39382e342035362e346109208201527f73302030203020306c2d2e322e32632d392e332031312d31352032352e322d316109408201527f342e332033392e36222f3e3c7061746820636c6173733d2268776c696e6533226109608201527f20643d224d37312039312e37632d2e332d372e3820322e312d31352e3720362e6109808201527f372d323241333420333420302030203120393520353763312e322d2e3420322e6109a08201527f332d2e3620332e352d2e37222f3e3c7061746820636c6173733d2268776c696e6109c08201527f65342220643d224d3134352e362038392e32632d3220312e332d342e3220322e6109e08201527f342d362e3420332e346c2d2e332e326136362e382036362e382030203020312d610a008201527f323120352e34632d342e352e362d382e392e382d31332e322e386830222f3e3c610a208201527f7061746820636c6173733d2268776c696e65332220643d224d3133392039332e610a408201527f38633320322e3120342e3620362e3320332e382031304d3132392039362e3863610a608201527f3220332e32203320372e3120332031314d3131382039392e386c312031314d31610a808201527f31312e342035362e3473302030203020306c2e332e3263392e33203131203135610aa08201527f2032352e332031342e332033392e36222f3e3c7061746820636c6173733d2268610ac08201527f776c696e65332220643d224d3133382e382039312e37632e332d372e382d322d610ae08201527f31352e372d362e372d32326133342e352033342e352030203020302d31362e35610b008201527f2d31322e347330203020302030632d312e342d2e352d322e382d2e382d342e31610b208201527f2d2e394d3130352035352e38763537222f3e3c706174682066696c6c3d227768610b408201527f6974652220643d226d3131362e352036322e332d31312e352e352d31302e352d610b608201527f2e35732d362d332e372d392d322e346c2d2e322d2e3561352035203020302031610b808201527f20322e362d362e3920372037203020302031202e342d372e3520372e3420372e610ba08201527f3420302030203120372e342d322e3563312e312d332e3220352e382d342e3720610bc08201527f392e332d342e3720332e342030203820312e3520392e3120342e3720322e392d610be08201527f2e3620352e382e3420372e3420322e3561372037203020302031202e3520372e610c008201527f352035203520302030203120322e3520376c2d2e322e35632d322e372d312e32610c208201527f2d372e3820322e332d372e3820322e335a222f3e3c7061746820636c6173733d610c408201527f2268776c696e65342220643d224d38352e332035392e34613520352030203020610c608201527f3120322e362d362e3920372037203020302031202e342d372e3520372e342037610c808201527f2e3420302030203120372e342d322e3563312e312d332e3220352e382d342e37610ca08201527f20392e332d342e3720332e342030203820312e3520392e3120342e3720322e39610cc08201527f2d2e3620352e382e3420372e3420322e3561372037203020302031202e352037610ce08201527f2e352035203520302030203120322e352037222f3e3c7061746820636c617373610d008201527f3d2268776c696e65332220643d224d38352e332035392e3473352e3120332e34610d208201527f2031392e3720332e346331342e3520302031392e352d332e342031392e352d33610d408201527f2e34222f3e3c2f7376673e000000000000000000000000000000000000000000610d6082015250565b5f6117ba610d6b836105d7565b91506117c58261073f565b610d6b82019050919050565b5f6117db826106ed565b91506117e7828461070f565b91506117f2826117ad565b915081905092915050565b7f3c7374796c653e2e6265616e6965436f6c6f72207b2066696c6c3a2000000000815250565b7f207d2e68776c696e6533207b7374726f6b653a20626c61636b3b207374726f6b5f8201527f652d6c696e656361703a20726f756e643b207374726f6b652d6c696e656a6f6960208201527f6e3a20726f756e643b207374726f6b652d77696474683a20337d2e68776c696e60408201527f6534207b7374726f6b653a20626c61636b3b207374726f6b652d6c696e65636160608201527f703a20726f756e643b207374726f6b652d6c696e656a6f696e3a20726f756e6460808201527f3b207374726f6b652d77696474683a20347d3c2f7374796c653e00000000000060a082015250565b5f61191560ba836105d7565b915061192082611823565b60ba82019050919050565b5f611935826117fd565b601c82019150611945828461070f565b915061195082611909565b91508190509291505056fea2646970667358221220ee13e7d23c053faea55510e1abc10b4f8541ce6f977d5bee77cd4f3fabcde5ab64736f6c63430008140033",
  "immutableReferences": {},
  "source": "// SPDX-License-Identifier: MIT\npragma solidity ^0.8.0;\n\nimport {Headwear} from '../Headwear.sol';\nimport {EduxColors} from '../EduxColors.sol';\n\nlibrary HeadwearBeanie {\n    enum BeanieColors {\n        GREEN,\n        PINK,\n        PURPLE,\n        BLUE,\n        GOLD\n    }\n\n    // // we take the 12th byte from the left for beanie color\n    // uint8 color = uint8((seed >> 160) & 0xFF) % 4;\n    function getBeanie(\n        BeanieColors beanieColor\n    ) external pure returns (string memory, Headwear.HeadwearVariants, Headwear.HeadwearColors) {\n        return (\n            string.concat(\n                '<svg xmlns=\"http://www.w3.org/2000/svg\" width=\"210\" height=\"335\" fill=\"none\"><path stroke=\"#000\" stroke-linecap=\"round\" stroke-linejoin=\"round\" stroke-width=\"4\" d=\"M98 66.5s4.2-.5 7-.5c2.6 0 6.8.5 6.8.5\"/>',\n                _getBeanieStyle(beanieColor),\n                '<path class=\"beanieColor\" d=\"M70.6 93c.2 0 .3 0 .4.2l-.3.7a10.6 10.6 0 0 0-3.5 10.1l-.3.8c-2.4-1.4-4.7-3-6.8-4.7-.5-4.4 1-8.8 4-11.3l.2.3c2 1.5 4.1 2.7 6.3 3.9Z\"/><path class=\"beanieColor\" d=\"M81 97.3c-2 3.4-3 7.4-3 11.4l-.2 1c-3.8-1.3-7.4-3-10.8-5l.3-.8a11 11 0 0 1 3.5-10.3l.3-.8c3.2 1.6 6.5 3 9.9 4v.5Z\"/><path class=\"beanieColor\" d=\"m81.2 96.8 2.7.7a72 72 0 0 0 8.1 1.6l-.1 1.4-1 11.5v.8a73 73 0 0 1-12.9-3.3l.3-1c0-4 1-8 2.8-11.2v-.5ZM105 100.6v13.2c-4.6 0-9.3-.3-14-1l.1-.8 1-11 .1-1.2c4.2.5 8.5.8 12.8.8ZM119 112v.7c-4.7.7-9.4 1-14 1v-13c4.3 0 8.6-.3 12.8-1l.2 1.4 1 11ZM131.7 108.5l.3 1a73.2 73.2 0 0 1-12.8 3.3l-.1-.7-1-11.6-.1-1.4a77 77 0 0 0 10.8-2.3v.5c2 3.3 3 7.2 3 11.2Z\"/><path class=\"beanieColor\" d=\"M143 104.7a60 60 0 0 1-10.7 5l-.3-1c0-4-1-8-2.9-11.3l-.1-.6c3.4-1 6.8-2.4 10-4l.3.8a11 11 0 0 1 3.4 10.4l.3.7Z\"/><path class=\"beanieColor\" d=\"M146 88.8c2.9 2.5 4.4 6.9 4 11.3a51.8 51.8 0 0 1-7 4.7l-.2-.7c.7-3.8-.7-8-3.5-10.2l-.3-.7.3-.2c2.3-1.2 4.4-2.4 6.4-3.9l.3-.3Z\"/><path class=\"beanieColor\" d=\"M145.6 89.2c-2 1.3-4.2 2.4-6.4 3.4l-.4-.9c.3-7.8-2-15.7-6.7-22a34.5 34.5 0 0 0-16.5-12.4 40.2 40.2 0 0 1 17 7.8c7 6 11.8 14.8 13.2 23.9l-.2.2Z\"/><path class=\"beanieColor\" d=\"m138.8 91.7.4 1h-.3a66.8 66.8 0 0 1-12.8 4.1l-.1-.6c.6-14.3-5-28.6-14.3-39.6a44.7 44.7 0 0 1 4 .7c6.5 2 12.7 7.2 16.4 12.3 4.6 6.4 7 14.3 6.7 22.1Z\"/><path class=\"beanieColor\" d=\"M104.7 56.2c2.4 0 4.7.2 7 .4 9.3 11 15 25.3 14.3 39.6v.6a91.2 91.2 0 0 1-21.3 2.2V56.2ZM104.7 99a105.1 105.1 0 0 1-21-2.1l.2-.7c-.7-14.4 5-28.6 14.3-39.6 2.1-.3 4.3-.4 6.5-.4V99Z\"/><path class=\"beanieColor\" d=\"m83.7 96.9-2.7-.7c-3.5-.9-6.8-2-10-3.4l-.4-.2.5-.9c-.3-7.8 2-15.7 6.6-22A34 34 0 0 1 95 57l3.3-.5c-9.3 11-15 25.2-14.3 39.6l-.2.7Z\"/><path class=\"beanieColor\" d=\"M77.7 69.6c-4.6 6.4-7 14.3-6.6 22.1l-.5 1c-2.2-1-4.3-2.2-6.3-3.5L64 89A39.8 39.8 0 0 1 77.3 65a34.6 34.6 0 0 1 17.6-8 34 34 0 0 0-17.2 12.5Z\"/><path class=\"hwline4\" d=\"M85.7 59.7c-3 1.4-5.7 3.2-8.3 5.5a42.7 42.7 0 0 0-13.3 25.2 11.7 11.7 0 0 0-4 10.5 57.4 57.4 0 0 0 17.8 8.8 81.3 81.3 0 0 0 27.1 4 96.2 96.2 0 0 0 27.1-4A65.1 65.1 0 0 0 150 101c.5-4.1-1-8.2-4-10.5a42.7 42.7 0 0 0-13.3-25.2c-2.6-2.3-5.3-4-8.3-5.5\"/><path class=\"hwline4\" d=\"M64.3 89.2c2 1.3 4.1 2.4 6.3 3.4l.4.2a66.5 66.5 0 0 0 21 5.5c4.2.5 8.5.7 12.7.7\"/><path class=\"hwline3\" d=\"M71 93.8a9.9 9.9 0 0 0-3.8 10M81 96.8c-2 3.2-3 7.1-3 11M92 99.8l-1 11M98.4 56.4s0 0 0 0l-.2.2c-9.3 11-15 25.2-14.3 39.6\"/><path class=\"hwline3\" d=\"M71 91.7c-.3-7.8 2.1-15.7 6.7-22A34 34 0 0 1 95 57c1.2-.4 2.3-.6 3.5-.7\"/><path class=\"hwline4\" d=\"M145.6 89.2c-2 1.3-4.2 2.4-6.4 3.4l-.3.2a66.8 66.8 0 0 1-21 5.4c-4.5.6-8.9.8-13.2.8h0\"/><path class=\"hwline3\" d=\"M139 93.8c3 2.1 4.6 6.3 3.8 10M129 96.8c2 3.2 3 7.1 3 11M118 99.8l1 11M111.4 56.4s0 0 0 0l.3.2c9.3 11 15 25.3 14.3 39.6\"/><path class=\"hwline3\" d=\"M138.8 91.7c.3-7.8-2-15.7-6.7-22a34.5 34.5 0 0 0-16.5-12.4s0 0 0 0c-1.4-.5-2.8-.8-4.1-.9M105 55.8v57\"/><path fill=\"white\" d=\"m116.5 62.3-11.5.5-10.5-.5s-6-3.7-9-2.4l-.2-.5a5 5 0 0 1 2.6-6.9 7 7 0 0 1 .4-7.5 7.4 7.4 0 0 1 7.4-2.5c1.1-3.2 5.8-4.7 9.3-4.7 3.4 0 8 1.5 9.1 4.7 2.9-.6 5.8.4 7.4 2.5a7 7 0 0 1 .5 7.5 5 5 0 0 1 2.5 7l-.2.5c-2.7-1.2-7.8 2.3-7.8 2.3Z\"/><path class=\"hwline4\" d=\"M85.3 59.4a5 5 0 0 1 2.6-6.9 7 7 0 0 1 .4-7.5 7.4 7.4 0 0 1 7.4-2.5c1.1-3.2 5.8-4.7 9.3-4.7 3.4 0 8 1.5 9.1 4.7 2.9-.6 5.8.4 7.4 2.5a7 7 0 0 1 .5 7.5 5 5 0 0 1 2.5 7\"/><path class=\"hwline3\" d=\"M85.3 59.4s5.1 3.4 19.7 3.4c14.5 0 19.5-3.4 19.5-3.4\"/></svg>'\n            ),\n            Headwear.HeadwearVariants.BEANIE,\n            _getHeadwearColor(beanieColor)\n        );\n    }\n\n    function _getBeanieStyle(BeanieColors beanieColor) internal pure returns (string memory) {\n        return\n            string.concat(\n                '<style>.beanieColor { fill: ',\n                _getBeanieColor(beanieColor),\n                ' }.hwline3 {stroke: black; stroke-linecap: round; stroke-linejoin: round; stroke-width: 3}.hwline4 {stroke: black; stroke-linecap: round; stroke-linejoin: round; stroke-width: 4}</style>'\n            );\n    }\n\n    function _getBeanieColor(BeanieColors beanieColor) internal pure returns (string memory) {\n        if (beanieColor == BeanieColors.GREEN) {\n            return EduxColors.lightGreen;\n        } else if (beanieColor == BeanieColors.PINK) {\n            return EduxColors.lightPink;\n        } else if (beanieColor == BeanieColors.BLUE) {\n            return EduxColors.lightBlue;\n        } else if (beanieColor == BeanieColors.PURPLE) {\n            return EduxColors.lightPurple;\n        } else if (beanieColor == BeanieColors.GOLD) {\n            return EduxColors.lightGold;\n        } else {\n            revert(); // Avoid warnings.\n        }\n    }\n\n    function _getHeadwearColor(BeanieColors beanieColor) internal pure returns (Headwear.HeadwearColors) {\n        if (beanieColor == BeanieColors.GREEN) {\n            return Headwear.HeadwearColors.GREEN;\n        } else if (beanieColor == BeanieColors.PINK) {\n            return Headwear.HeadwearColors.PINK;\n        } else if (beanieColor == BeanieColors.BLUE) {\n            return Headwear.HeadwearColors.BLUE;\n        } else if (beanieColor == BeanieColors.PURPLE) {\n            return Headwear.HeadwearColors.PURPLE;\n        } else if (beanieColor == BeanieColors.GOLD) {\n            return Headwear.HeadwearColors.GOLD;\n        } else {\n            revert(); // Avoid warnings.\n        }\n    }\n}\n",
  "sourcePath": "E:\\Blockchain\\EDUIndex\\EduxContract\\contracts\\libraries\\svgs\\Profile\\Headwear\\HeadwearBeanie.sol",
  "compiler": {
    "name": "solc",
    "version": "0.8.20+commit.a1b79de6.Emscripten.clang"
  },
  "schemaVersion": "3.4.3",
  "updatedAt": "2024-08-25T13:13:21.699Z",
  "devdoc": {
    "kind": "dev",
    "methods": {},
    "version": 1
  },
  "userdoc": {
    "kind": "user",
    "methods": {},
    "version": 1
  }
}