{
  "contractName": "HeadwearEarrings",
  "abi": [
    {
      "inputs": [
        {
          "internalType": "enum HeadwearEarrings.EarringsColors",
          "name": "earringsColor",
          "type": "HeadwearEarrings.EarringsColors"
        }
      ],
      "name": "getEarrings",
      "outputs": [
        {
          "internalType": "string",
          "name": "",
          "type": "string"
        },
        {
          "internalType": "enum Headwear.HeadwearVariants",
          "name": "",
          "type": "Headwear.HeadwearVariants"
        },
        {
          "internalType": "enum Headwear.HeadwearColors",
          "name": "",
          "type": "Headwear.HeadwearColors"
        }
      ],
      "stateMutability": "pure",
      "type": "function"
    }
  ],
  "bytecode": "0x610fd861004e600b8282823980515f1a607314610042577f4e487b71000000000000000000000000000000000000000000000000000000005f525f60045260245ffd5b305f52607381538281f3fe7300000000000000000000000000000000000000003014608060405260043610610034575f3560e01c80634241a9b414610038575b5f80fd5b610052600480360381019061004d919061042d565b61006a565b6040516100619392919061059b565b60405180910390f35b60605f80610077846100ae565b6040516020016100879190610e8a565b60405160208183030381529060405260106100a1866100df565b9250925092509193909250565b60606100b9826101f0565b6040516020016100c99190610f72565b6040516020818303038152906040529050919050565b5f8060048111156100f3576100f26104e2565b5b826004811115610106576101056104e2565b5b0361011457600190506101eb565b60026004811115610128576101276104e2565b5b82600481111561013b5761013a6104e2565b5b0361014957600290506101eb565b6003600481111561015d5761015c6104e2565b5b8260048111156101705761016f6104e2565b5b0361017e57600390506101eb565b60016004811115610192576101916104e2565b5b8260048111156101a5576101a46104e2565b5b036101b357600490506101eb565b6004808111156101c6576101c56104e2565b5b8260048111156101d9576101d86104e2565b5b036101e757600590506101eb565b5f80fd5b919050565b60605f6004811115610205576102046104e2565b5b826004811115610218576102176104e2565b5b0361025a576040518060400160405280600781526020017f23463446464443000000000000000000000000000000000000000000000000008152509050610401565b6002600481111561026e5761026d6104e2565b5b826004811115610281576102806104e2565b5b036102c3576040518060400160405280600781526020017f23463345414646000000000000000000000000000000000000000000000000008152509050610401565b600360048111156102d7576102d66104e2565b5b8260048111156102ea576102e96104e2565b5b0361032c576040518060400160405280600781526020017f23454346304646000000000000000000000000000000000000000000000000008152509050610401565b600160048111156103405761033f6104e2565b5b826004811115610353576103526104e2565b5b03610395576040518060400160405280600781526020017f23464645374630000000000000000000000000000000000000000000000000008152509050610401565b6004808111156103a8576103a76104e2565b5b8260048111156103bb576103ba6104e2565b5b036103fd576040518060400160405280600781526020017f23464645453933000000000000000000000000000000000000000000000000008152509050610401565b5f80fd5b919050565b5f80fd5b60058110610416575f80fd5b50565b5f813590506104278161040a565b92915050565b5f6020828403121561044257610441610406565b5b5f61044f84828501610419565b91505092915050565b5f81519050919050565b5f82825260208201905092915050565b5f5b8381101561048f578082015181840152602081019050610474565b5f8484015250505050565b5f601f19601f8301169050919050565b5f6104b482610458565b6104be8185610462565b93506104ce818560208601610472565b6104d78161049a565b840191505092915050565b7f4e487b71000000000000000000000000000000000000000000000000000000005f52602160045260245ffd5b601681106105205761051f6104e2565b5b50565b5f8190506105308261050f565b919050565b5f61053f82610523565b9050919050565b61054f81610535565b82525050565b60068110610566576105656104e2565b5b50565b5f81905061057682610555565b919050565b5f61058582610569565b9050919050565b6105958161057b565b82525050565b5f6060820190508181035f8301526105b381866104aa565b90506105c26020830185610546565b6105cf604083018461058c565b949350505050565b5f81905092915050565b7f3c73766720786d6c6e733d22687474703a2f2f7777772e77332e6f72672f32305f8201527f30302f737667222077696474683d2232353022206865696768743d223333352260208201527f20783d222d312e35222066696c6c3d226e6f6e65223e00000000000000000000604082015250565b5f6106616056836105d7565b915061066c826105e1565b605682019050919050565b5f61068182610458565b61068b81856105d7565b935061069b818560208601610472565b80840191505092915050565b7f3c7061746820636c6173733d226865616477656172436f6c6f724c2220643d225f8201527f6d3236203136352e352e352e39632d3520342e392d392031302d31332e37203160208201527f342e354c312e37203136332e366c2e332d2e3463332e352032203820342e312060408201527f313220352e3420352d2e3720382e322d322e322031322d335a222f3e3c70617460608201527f682066696c6c3d2223303030222066696c6c2d6f7061636974793d222e32222060808201527f643d226d3236203136352e352e352e39632d3520342e392d392031302d31332e60a08201527f372031342e354c312e37203136332e366c2e332d2e3463332e3520322038203460c08201527f2e3120313220352e3420352d2e3720382e322d322e322031322d335a222f3e3c60e08201527f7061746820636c6173733d226865616477656172436f6c6f724c2220643d224d6101008201527f31352e34203134382e3163352e31203820362e352031302e342031302e3620316101208201527f372e342d332e3820312d3720322e342d313220332e31613732203732203020306101408201527f20312d31322d352e3463342e362d352e3320392d31302e322031332e342d31356101608201527f5a222f3e3c706174682066696c6c3d22233030302220643d224d31352e3720316101808201527f34392e3361322e3620322e3620302031203020302d352e3220322e3620322e366101a08201527f203020302030203020352e325a222f3e3c7061746820636c6173733d226877536101c08201527f74723122207374726f6b652d77696474683d22322220643d224d31352e3720316101e08201527f34392e3361322e3620322e3620302031203020302d352e3220322e3620322e366102008201527f203020302030203020352e325a222f3e3c7061746820636c6173733d226877536102208201527f74723122207374726f6b652d77696474683d22332220643d224d31352e3420316102408201527f34382e312032203136332e326c2d2e332e342031312031372e3363342e382d346102608201527f2e3520382e382d392e362031332e382d31342e356c2d2e352d2e39632d342d376102808201527f2d352e352d392e342d31302e362d31372e345a222f3e3c7061746820636c61736102a08201527f733d2268775374723122207374726f6b652d77696474683d22322e352220643d6102c08201527f224d32203136332e3263332e352032203820342e3120313220352e3420352d2e6102e08201527f3720382e322d322e322031322d33222f3e3c7061746820636c6173733d2268656103008201527f616477656172436f6c6f724c2220643d226d3138372e34203136352e352d2e356103208201527f2e39633520342e3920392031302031332e372031342e356c31312d31372e332d6103408201527f2e322d2e34632d332e3520322d3820342e312d31322e3120352e342d352d2e376103608201527f2d382e312d322e322d31322d335a222f3e3c706174682066696c6c3d222330306103808201527f30222066696c6c2d6f7061636974793d222e322220643d226d3138372e3420316103a08201527f36352e352d2e352e39633520342e3920392031302031332e372031342e356c316103c08201527f312d31372e332d2e322d2e34632d332e3520322d3820342e312d31322e3120356103e08201527f2e342d352d2e372d382e312d322e322d31322d335a222f3e3c7061746820636c6104008201527f6173733d226865616477656172436f6c6f724c2220643d224d3139372e3920316104208201527f34382e31632d3520382d362e352031302e342d31302e352031372e3420332e386104408201527f2031203720322e342031312e3920332e316137322037322030203020302031326104608201527f2d352e34632d342e362d352e332d392d31302e322d31332e342d31355a222f3e6104808201527f3c706174682066696c6c3d22233030302220643d224d3139372e37203134392e6104a08201527f3361322e3620322e3620302031203120302d352e3220322e3620322e362030206104c08201527f302031203020352e325a222f3e3c7061746820636c6173733d226877537472316104e08201527f22207374726f6b652d77696474683d22322220643d224d3139372e37203134396105008201527f2e3361322e3620322e3620302031203120302d352e3220322e3620322e3620306105208201527f20302031203020352e325a222f3e3c7061746820636c6173733d2268775374726105408201527f3122207374726f6b652d77696474683d22332220643d226d3139372e392031346105608201527f382e312031332e352031352e316330202e322e322e332e332e346c2d31312e316105808201527f2031372e33632d342e372d342e352d382e372d392e362d31332e372d31342e356105a08201527f6c2e352d2e3963342d3720352e342d392e342031302e352d31372e345a222f3e6105c08201527f3c7061746820636c6173733d2268775374723122207374726f6b652d776964746105e08201527f683d22322e352220643d224d3231312e34203136332e32632d332e3520322d386106008201527f20342e312d31322e3120352e342d352d2e372d382e312d322e322d31322d33226106208201527f2f3e3c2f7376673e00000000000000000000000000000000000000000000000061064082015250565b5f610e73610648836105d7565b9150610e7e826106a7565b61064882019050919050565b5f610e9482610655565b9150610ea08284610677565b9150610eab82610e66565b915081905092915050565b7f3c7374796c653e2e6865616477656172436f6c6f724c207b2066696c6c3a0000815250565b7f7d2e687753747231207b7374726f6b653a20233030303b7374726f6b652d6c695f8201527f6e656361703a20726f756e643b7374726f6b652d6c696e656a6f696e3a20726f60208201527f756e643b7d3c2f7374796c653e00000000000000000000000000000000000000604082015250565b5f610f5c604d836105d7565b9150610f6782610edc565b604d82019050919050565b5f610f7c82610eb6565b601e82019150610f8c8284610677565b9150610f9782610f50565b91508190509291505056fea26469706673582212201a57a9fce4e8b29f712012257e629ab3cc7b7620b86ea632ff0b582efaeb38cb64736f6c63430008140033",
  "immutableReferences": {},
  "source": "// SPDX-License-Identifier: MIT\npragma solidity ^0.8.0;\n\nimport {Headwear} from '../Headwear.sol';\nimport {EduxColors} from '../EduxColors.sol';\n\nlibrary HeadwearEarrings {\n    enum EarringsColors {\n        GREEN,\n        PINK,\n        PURPLE,\n        BLUE,\n        GOLD\n    }\n\n    function getEarrings(\n        EarringsColors earringsColor\n    ) external pure returns (string memory, Headwear.HeadwearVariants, Headwear.HeadwearColors) {\n        return (\n            string.concat(\n                '<svg xmlns=\"http://www.w3.org/2000/svg\" width=\"250\" height=\"335\" x=\"-1.5\" fill=\"none\">',\n                _getEarringsStyle(earringsColor),\n                '<path class=\"headwearColorL\" d=\"m26 165.5.5.9c-5 4.9-9 10-13.7 14.5L1.7 163.6l.3-.4c3.5 2 8 4.1 12 5.4 5-.7 8.2-2.2 12-3Z\"/><path fill=\"#000\" fill-opacity=\".2\" d=\"m26 165.5.5.9c-5 4.9-9 10-13.7 14.5L1.7 163.6l.3-.4c3.5 2 8 4.1 12 5.4 5-.7 8.2-2.2 12-3Z\"/><path class=\"headwearColorL\" d=\"M15.4 148.1c5.1 8 6.5 10.4 10.6 17.4-3.8 1-7 2.4-12 3.1a72 72 0 0 1-12-5.4c4.6-5.3 9-10.2 13.4-15Z\"/><path fill=\"#000\" d=\"M15.7 149.3a2.6 2.6 0 1 0 0-5.2 2.6 2.6 0 0 0 0 5.2Z\"/><path class=\"hwStr1\" stroke-width=\"2\" d=\"M15.7 149.3a2.6 2.6 0 1 0 0-5.2 2.6 2.6 0 0 0 0 5.2Z\"/><path class=\"hwStr1\" stroke-width=\"3\" d=\"M15.4 148.1 2 163.2l-.3.4 11 17.3c4.8-4.5 8.8-9.6 13.8-14.5l-.5-.9c-4-7-5.5-9.4-10.6-17.4Z\"/><path class=\"hwStr1\" stroke-width=\"2.5\" d=\"M2 163.2c3.5 2 8 4.1 12 5.4 5-.7 8.2-2.2 12-3\"/><path class=\"headwearColorL\" d=\"m187.4 165.5-.5.9c5 4.9 9 10 13.7 14.5l11-17.3-.2-.4c-3.5 2-8 4.1-12.1 5.4-5-.7-8.1-2.2-12-3Z\"/><path fill=\"#000\" fill-opacity=\".2\" d=\"m187.4 165.5-.5.9c5 4.9 9 10 13.7 14.5l11-17.3-.2-.4c-3.5 2-8 4.1-12.1 5.4-5-.7-8.1-2.2-12-3Z\"/><path class=\"headwearColorL\" d=\"M197.9 148.1c-5 8-6.5 10.4-10.5 17.4 3.8 1 7 2.4 11.9 3.1a72 72 0 0 0 12-5.4c-4.6-5.3-9-10.2-13.4-15Z\"/><path fill=\"#000\" d=\"M197.7 149.3a2.6 2.6 0 1 1 0-5.2 2.6 2.6 0 0 1 0 5.2Z\"/><path class=\"hwStr1\" stroke-width=\"2\" d=\"M197.7 149.3a2.6 2.6 0 1 1 0-5.2 2.6 2.6 0 0 1 0 5.2Z\"/><path class=\"hwStr1\" stroke-width=\"3\" d=\"m197.9 148.1 13.5 15.1c0 .2.2.3.3.4l-11.1 17.3c-4.7-4.5-8.7-9.6-13.7-14.5l.5-.9c4-7 5.4-9.4 10.5-17.4Z\"/><path class=\"hwStr1\" stroke-width=\"2.5\" d=\"M211.4 163.2c-3.5 2-8 4.1-12.1 5.4-5-.7-8.1-2.2-12-3\"/></svg>'\n            ),\n            Headwear.HeadwearVariants.EARRINGS,\n            _getHeadwearColor(earringsColor)\n        );\n    }\n\n    function _getEarringsStyle(EarringsColors earringsColor) internal pure returns (string memory) {\n        return\n            string.concat(\n                '<style>.headwearColorL { fill:',\n                _getEarringsColor(earringsColor),\n                '}.hwStr1 {stroke: #000;stroke-linecap: round;stroke-linejoin: round;}</style>'\n            );\n    }\n\n    function _getEarringsColor(EarringsColors earringsColor) internal pure returns (string memory) {\n        if (earringsColor == EarringsColors.GREEN) {\n            return EduxColors.lightGreen;\n        } else if (earringsColor == EarringsColors.PURPLE) {\n            return EduxColors.lightPurple;\n        } else if (earringsColor == EarringsColors.BLUE) {\n            return EduxColors.lightBlue;\n        } else if (earringsColor == EarringsColors.PINK) {\n            return EduxColors.lightPink;\n        } else if (earringsColor == EarringsColors.GOLD) {\n            return EduxColors.lightGold;\n        } else {\n            revert(); // Avoid warnings.\n        }\n    }\n\n    function _getHeadwearColor(EarringsColors earringsColor) internal pure returns (Headwear.HeadwearColors) {\n        if (earringsColor == EarringsColors.GREEN) {\n            return Headwear.HeadwearColors.GREEN;\n        } else if (earringsColor == EarringsColors.PURPLE) {\n            return Headwear.HeadwearColors.PURPLE;\n        } else if (earringsColor == EarringsColors.BLUE) {\n            return Headwear.HeadwearColors.BLUE;\n        } else if (earringsColor == EarringsColors.PINK) {\n            return Headwear.HeadwearColors.PINK;\n        } else if (earringsColor == EarringsColors.GOLD) {\n            return Headwear.HeadwearColors.GOLD;\n        } else {\n            revert(); // Avoid warnings.\n        }\n    }\n}\n",
  "sourcePath": "E:\\Blockchain\\EDUIndex\\EduxContract\\contracts\\libraries\\svgs\\Profile\\Headwear\\HeadwearEarrings.sol",
  "compiler": {
    "name": "solc",
    "version": "0.8.20+commit.a1b79de6.Emscripten.clang"
  },
  "schemaVersion": "3.4.3",
  "updatedAt": "2024-08-25T13:13:21.802Z",
  "devdoc": {
    "kind": "dev",
    "methods": {},
    "version": 1
  },
  "userdoc": {
    "kind": "user",
    "methods": {},
    "version": 1
  }
}