{
  "contractName": "Legs",
  "abi": [
    {
      "inputs": [
        {
          "internalType": "enum Legs.LegColors",
          "name": "legColor",
          "type": "Legs.LegColors"
        }
      ],
      "name": "getLegs",
      "outputs": [
        {
          "internalType": "string",
          "name": "",
          "type": "string"
        }
      ],
      "stateMutability": "pure",
      "type": "function"
    }
  ],
  "bytecode": "0x610d4b61004e600b8282823980515f1a607314610042577f4e487b71000000000000000000000000000000000000000000000000000000005f525f60045260245ffd5b305f52607381538281f3fe7300000000000000000000000000000000000000003014608060405260043610610034575f3560e01c80635600a86314610038575b5f80fd5b610052600480360381019061004d919061053c565b610068565b60405161005f91906105f1565b60405180910390f35b60605f80610075846100a4565b91509150818160405160200161008c929190610ca0565b60405160208183030381529060405292505050919050565b6060805f60068111156100ba576100b9610ce8565b5b8360068111156100cd576100cc610ce8565b5b03610147576040518060400160405280600781526020017f23393341393744000000000000000000000000000000000000000000000000008152506040518060400160405280600781526020017f234634464644430000000000000000000000000000000000000000000000000081525091509150610510565b6002600681111561015b5761015a610ce8565b5b83600681111561016e5761016d610ce8565b5b036101e8576040518060400160405280600781526020017f23433342334435000000000000000000000000000000000000000000000000008152506040518060400160405280600781526020017f234633454146460000000000000000000000000000000000000000000000000081525091509150610510565b600360068111156101fc576101fb610ce8565b5b83600681111561020f5761020e610ce8565b5b03610289576040518060400160405280600781526020017f23414342354444000000000000000000000000000000000000000000000000008152506040518060400160405280600781526020017f234543463046460000000000000000000000000000000000000000000000000081525091509150610510565b6001600681111561029d5761029c610ce8565b5b8360068111156102b0576102af610ce8565b5b0361032a576040518060400160405280600781526020017f23454141454337000000000000000000000000000000000000000000000000008152506040518060400160405280600781526020017f234646453746300000000000000000000000000000000000000000000000000081525091509150610510565b6004600681111561033e5761033d610ce8565b5b83600681111561035157610350610ce8565b5b036103cb576040518060400160405280600781526020017f23353735373537000000000000000000000000000000000000000000000000008152506040518060400160405280600781526020017f234442444244420000000000000000000000000000000000000000000000000081525091509150610510565b600560068111156103df576103de610ce8565b5b8360068111156103f2576103f1610ce8565b5b0361046c576040518060400160405280600781526020017f23454145414541000000000000000000000000000000000000000000000000008152506040518060400160405280600481526020017f234646460000000000000000000000000000000000000000000000000000000081525091509150610510565b60068081111561047f5761047e610ce8565b5b83600681111561049257610491610ce8565b5b0361050c576040518060400160405280600781526020017f23463843393434000000000000000000000000000000000000000000000000008152506040518060400160405280600781526020017f234646454539330000000000000000000000000000000000000000000000000081525091509150610510565b5f80fd5b915091565b5f80fd5b60078110610525575f80fd5b50565b5f8135905061053681610519565b92915050565b5f6020828403121561055157610550610515565b5b5f61055e84828501610528565b91505092915050565b5f81519050919050565b5f82825260208201905092915050565b5f5b8381101561059e578082015181840152602081019050610583565b5f8484015250505050565b5f601f19601f8301169050919050565b5f6105c382610567565b6105cd8185610571565b93506105dd818560208601610581565b6105e6816105a9565b840191505092915050565b5f6020820190508181035f83015261060981846105b9565b905092915050565b5f81905092915050565b7f3c73766720786d6c6e733d22687474703a2f2f7777772e77332e6f72672f32305f8201527f30302f737667222077696474683d2232313022206865696768743d223333352260208201527f2066696c6c3d226e6f6e65223e3c7374796c653e2e6c6567436f6c6f7231207b60408201527f66696c6c3a000000000000000000000000000000000000000000000000000000606082015250565b5f6106c1606583610611565b91506106cc8261061b565b606582019050919050565b5f6106e182610567565b6106eb8185610611565b93506106fb818560208601610581565b80840191505092915050565b7f3b7d2e6c6567436f6c6f7232207b66696c6c3a00000000000000000000000000815250565b7f3b7d2e6c65675374726f6b65207b7374726f6b653a233030303b7374726f6b655f8201527f2d6c696e656361703a726f756e643b7374726f6b652d6d697465726c696d697460208201527f3a31303b7d3c2f7374796c653e3c7061746820636c6173733d226c6567436f6c60408201527f6f72312220643d226d37322e37203234392e382031362e3320352e342031362060608201527f312e332031362d312e332031362e332d352e347633302e376c2d372e3520332e60808201527f342d3820322e342d31362e382d342e342d31352e3420342e342d392e342d322e60a08201527f342d372e352d332e34762d33302e375a222f3e3c70617468207374726f6b653d60c08201527f222330303022207374726f6b652d6c696e656361703d22726f756e642220737460e08201527f726f6b652d6c696e656a6f696e3d22726f756e6422207374726f6b652d6461736101008201527f6861727261793d22332e393720332e393722207374726f6b652d77696474683d6101208201527f22312e382220643d224d373920323738762d32322e334d3133312e35203237386101408201527f762d32322e33222f3e3c7061746820636c6173733d226c6567436f6c6f7232226101608201527f20643d226d37332e37203237362e372031352e3420342e382031352e392d342e6101808201527f382031352e3420342e382031352e392d342e3876352e376c2d313620332e392d6101a08201527f31352e332d342e342d31352e3920342e392d31352e342d342e34762d352e375a6101c08201527f222f3e3c7061746820636c6173733d226c65675374726f6b6522207374726f6b6101e08201527f652d77696474683d22322e352220643d224d37342e37203238312e37613234206102008201527f32342030203020302032392e382d2e37222f3e3c7061746820636c6173733d226102208201527f6c65675374726f6b6522207374726f6b652d77696474683d22332220643d224d6102408201527f313035203238302e38762d31362e36222f3e3c7061746820636c6173733d226c6102608201527f65675374726f6b6522207374726f6b652d77696474683d22342220643d224d376102808201527f342e312032353063302031302e3220302032302e342d2e322033302e396d36326102a08201527f2d33302e382e312033302e38222f3e3c7061746820636c6173733d226c6567536102c08201527f74726f6b6522207374726f6b652d77696474683d22332220643d224d37342e336102e08201527f203234392e326135372e382035372e382030203020302033302e3220372e38636103008201527f31302e3720302032312e372d322e342033312d372e38222f3e3c7061746820636103208201527f6c6173733d226c65675374726f6b6522207374726f6b652d77696474683d22316103408201527f2e382220643d224d31303920323633732d322e342e342d34202e342d342d2e346103608201527f2d342d2e34222f3e3c7061746820636c6173733d226c65675374726f6b6522206103808201527f7374726f6b652d77696474683d22322e352220643d224d3133352e33203238316103a08201527f2e376132342e372032342e372030203020312d33302e332d2e374d37342e37206103c08201527f3237362e346132342032342030203020302032392e382d2e37222f3e3c7061746103e08201527f6820636c6173733d226c65675374726f6b6522207374726f6b652d77696474686104008201527f3d22322e352220643d224d3133352e33203237362e346132342e372032342e376104208201527f2030203020312d33302e332d2e37222f3e3c2f7376673e00000000000000000061044082015250565b5f610c8961045783610611565b9150610c948261072d565b61045782019050919050565b5f610caa826106b5565b9150610cb682856106d7565b9150610cc182610707565b601382019150610cd182846106d7565b9150610cdc82610c7c565b91508190509392505050565b7f4e487b71000000000000000000000000000000000000000000000000000000005f52602160045260245ffdfea26469706673582212205bb02e3210eadff32382244edcd7297c73b203583191f6f52063698c8db5a05e64736f6c63430008140033",
  "immutableReferences": {},
  "source": "// SPDX-License-Identifier: MIT\npragma solidity ^0.8.0;\n\nimport {EduxColors} from './EduxColors.sol';\n\nlibrary Legs {\n    enum LegColors {\n        GREEN,\n        PINK,\n        PURPLE,\n        BLUE,\n        DARK,\n        LIGHT,\n        GOLD\n    }\n\n    // // we take the 6th byte from the left for leg color\n    // uint8 color = uint8((seed >> 208) & 0xFF) % 3;\n    function getLegs(LegColors legColor) external pure returns (string memory) {\n        (string memory legColorHex1, string memory legColorHex2) = _getLegColorHex(legColor);\n\n        return\n            string.concat(\n                '<svg xmlns=\"http://www.w3.org/2000/svg\" width=\"210\" height=\"335\" fill=\"none\"><style>.legColor1 {fill:',\n                legColorHex1,\n                ';}.legColor2 {fill:',\n                legColorHex2,\n                ';}.legStroke {stroke:#000;stroke-linecap:round;stroke-miterlimit:10;}</style><path class=\"legColor1\" d=\"m72.7 249.8 16.3 5.4 16 1.3 16-1.3 16.3-5.4v30.7l-7.5 3.4-8 2.4-16.8-4.4-15.4 4.4-9.4-2.4-7.5-3.4v-30.7Z\"/><path stroke=\"#000\" stroke-linecap=\"round\" stroke-linejoin=\"round\" stroke-dasharray=\"3.97 3.97\" stroke-width=\"1.8\" d=\"M79 278v-22.3M131.5 278v-22.3\"/><path class=\"legColor2\" d=\"m73.7 276.7 15.4 4.8 15.9-4.8 15.4 4.8 15.9-4.8v5.7l-16 3.9-15.3-4.4-15.9 4.9-15.4-4.4v-5.7Z\"/><path class=\"legStroke\" stroke-width=\"2.5\" d=\"M74.7 281.7a24 24 0 0 0 29.8-.7\"/><path class=\"legStroke\" stroke-width=\"3\" d=\"M105 280.8v-16.6\"/><path class=\"legStroke\" stroke-width=\"4\" d=\"M74.1 250c0 10.2 0 20.4-.2 30.9m62-30.8.1 30.8\"/><path class=\"legStroke\" stroke-width=\"3\" d=\"M74.3 249.2a57.8 57.8 0 0 0 30.2 7.8c10.7 0 21.7-2.4 31-7.8\"/><path class=\"legStroke\" stroke-width=\"1.8\" d=\"M109 263s-2.4.4-4 .4-4-.4-4-.4\"/><path class=\"legStroke\" stroke-width=\"2.5\" d=\"M135.3 281.7a24.7 24.7 0 0 1-30.3-.7M74.7 276.4a24 24 0 0 0 29.8-.7\"/><path class=\"legStroke\" stroke-width=\"2.5\" d=\"M135.3 276.4a24.7 24.7 0 0 1-30.3-.7\"/></svg>'\n            );\n    }\n\n    function _getLegColorHex(LegColors legColor) internal pure returns (string memory, string memory) {\n        if (legColor == LegColors.GREEN) {\n            return (EduxColors.darkGreen, EduxColors.lightGreen);\n        } else if (legColor == LegColors.PURPLE) {\n            return (EduxColors.darkPurple, EduxColors.lightPurple);\n        } else if (legColor == LegColors.BLUE) {\n            return (EduxColors.darkBlue, EduxColors.lightBlue);\n        } else if (legColor == LegColors.PINK) {\n            return (EduxColors.darkPink, EduxColors.lightPink);\n        } else if (legColor == LegColors.DARK) {\n            return (EduxColors.dark, EduxColors.gray);\n        } else if (legColor == LegColors.LIGHT) {\n            return (EduxColors.lightGray, EduxColors.white);\n        } else if (legColor == LegColors.GOLD) {\n            return (EduxColors.baseGold, EduxColors.lightGold);\n        } else {\n            revert(); // Avoid warnings.\n        }\n    }\n}\n",
  "sourcePath": "E:\\Blockchain\\EDUIndex\\EduxContract\\contracts\\libraries\\svgs\\Profile\\Legs.sol",
  "compiler": {
    "name": "solc",
    "version": "0.8.20+commit.a1b79de6.Emscripten.clang"
  },
  "schemaVersion": "3.4.3",
  "updatedAt": "2024-08-25T13:13:22.035Z",
  "devdoc": {
    "kind": "dev",
    "methods": {},
    "version": 1
  },
  "userdoc": {
    "kind": "user",
    "methods": {},
    "version": 1
  }
}