{
  "contractName": "Logo",
  "abi": [
    {
      "inputs": [
        {
          "internalType": "enum Logo.LogoVariants",
          "name": "logoVariant",
          "type": "Logo.LogoVariants"
        },
        {
          "internalType": "enum Logo.LogoColors",
          "name": "logoColor",
          "type": "Logo.LogoColors"
        },
        {
          "internalType": "enum Body.BodyVariants",
          "name": "bodyVariant",
          "type": "Body.BodyVariants"
        },
        {
          "internalType": "enum Body.BodyColors",
          "name": "bodyColor",
          "type": "Body.BodyColors"
        }
      ],
      "name": "getLogo",
      "outputs": [
        {
          "internalType": "string",
          "name": "",
          "type": "string"
        }
      ],
      "stateMutability": "pure",
      "type": "function"
    },
    {
      "inputs": [
        {
          "internalType": "enum Logo.LogoVariants",
          "name": "logoVariant",
          "type": "Logo.LogoVariants"
        },
        {
          "internalType": "enum Logo.LogoColors",
          "name": "logoColor",
          "type": "Logo.LogoColors"
        }
      ],
      "name": "getLogoHoodie",
      "outputs": [
        {
          "internalType": "string",
          "name": "",
          "type": "string"
        }
      ],
      "stateMutability": "pure",
      "type": "function"
    },
    {
      "inputs": [
        {
          "internalType": "enum Logo.LogoVariants",
          "name": "logoVariant",
          "type": "Logo.LogoVariants"
        },
        {
          "internalType": "enum Logo.LogoColors",
          "name": "logoColor",
          "type": "Logo.LogoColors"
        }
      ],
      "name": "getLogoTshirtTanktop",
      "outputs": [
        {
          "internalType": "string",
          "name": "",
          "type": "string"
        }
      ],
      "stateMutability": "pure",
      "type": "function"
    },
    {
      "inputs": [
        {
          "internalType": "enum Logo.LogoVariants",
          "name": "logoVariant",
          "type": "Logo.LogoVariants"
        },
        {
          "internalType": "enum Logo.LogoColors",
          "name": "logoColor",
          "type": "Logo.LogoColors"
        }
      ],
      "name": "getLogoJacket",
      "outputs": [
        {
          "internalType": "string",
          "name": "",
          "type": "string"
        }
      ],
      "stateMutability": "pure",
      "type": "function"
    }
  ],
  "bytecode": "0x61218d61004e600b8282823980515f1a607314610042577f4e487b71000000000000000000000000000000000000000000000000000000005f525f60045260245ffd5b305f52607381538281f3fe7300000000000000000000000000000000000000003014608060405260043610610055575f3560e01c806307986eb5146100595780631d39f2711461008957806327a46dd0146100b957806380b97eea146100e9575b5f80fd5b610073600480360381019061006e9190610a5c565b610119565b6040516100809190610b24565b60405180910390f35b6100a3600480360381019061009e9190610a5c565b610290565b6040516100b09190610b24565b60405180910390f35b6100d360048036038101906100ce9190610b8a565b610407565b6040516100e09190610b24565b60405180910390f35b61010360048036038101906100fe9190610a5c565b61061b565b6040516101109190610b24565b60405180910390f35b60606001600481111561012f5761012e610bee565b5b83600481111561014257610141610bee565b5b036101765761015082610792565b6040516020016101609190610eb5565b604051602081830303815290604052905061028a565b6002600481111561018a57610189610bee565b5b83600481111561019d5761019c610bee565b5b036101d1576101ab82610792565b6040516020016101bb91906110a5565b604051602081830303815290604052905061028a565b600360048111156101e5576101e4610bee565b5b8360048111156101f8576101f7610bee565b5b0361022c5761020682610792565b6040516020016102169190611225565b604051602081830303815290604052905061028a565b60048081111561023f5761023e610bee565b5b83600481111561025257610251610bee565b5b036102865761026082610792565b60405160200161027091906113a5565b604051602081830303815290604052905061028a565b5f80fd5b92915050565b6060600160048111156102a6576102a5610bee565b5b8360048111156102b9576102b8610bee565b5b036102ed576102c782610792565b6040516020016102d79190611631565b6040516020818303038152906040529050610401565b6002600481111561030157610300610bee565b5b83600481111561031457610313610bee565b5b036103485761032282610792565b604051602001610332919061178b565b6040516020818303038152906040529050610401565b6003600481111561035c5761035b610bee565b5b83600481111561036f5761036e610bee565b5b036103a35761037d82610792565b60405160200161038d9190611934565b6040516020818303038152906040529050610401565b6004808111156103b6576103b5610bee565b5b8360048111156103c9576103c8610bee565b5b036103fd576103d782610792565b6040516020016103e79190611a68565b6040516020818303038152906040529050610401565b5f80fd5b92915050565b60605f600481111561041c5761041b610bee565b5b85600481111561042f5761042e610bee565b5b0361044a5760405180602001604052805f8152509050610613565b6001600681111561045e5761045d610bee565b5b82600681111561047157610470610bee565b5b141580156104a457506002600681111561048e5761048d610bee565b5b8260068111156104a1576104a0610bee565b5b14155b156104db57600460068111156104bd576104bc610bee565b5b8460068111156104d0576104cf610bee565b5b036104da57600393505b5b5f60048111156104ee576104ed610bee565b5b83600481111561050157610500610bee565b5b0361051757610510858561061b565b9050610613565b6002600481111561052b5761052a610bee565b5b83600481111561053e5761053d610bee565b5b036105545761054d8585610290565b9050610613565b6003600481111561056857610567610bee565b5b83600481111561057b5761057a610bee565b5b036105915761058a8585610290565b9050610613565b600160048111156105a5576105a4610bee565b5b8360048111156105b8576105b7610bee565b5b036105ce576105c78585610119565b9050610613565b6004808111156105e1576105e0610bee565b5b8360048111156105f4576105f3610bee565b5b0361060f5760405180602001604052805f8152509050610613565b5f80fd5b949350505050565b60606001600481111561063157610630610bee565b5b83600481111561064457610643610bee565b5b036106785761065282610792565b6040516020016106629190611cf4565b604051602081830303815290604052905061078c565b6002600481111561068c5761068b610bee565b5b83600481111561069f5761069e610bee565b5b036106d3576106ad82610792565b6040516020016106bd9190611e4e565b604051602081830303815290604052905061078c565b600360048111156106e7576106e6610bee565b5b8360048111156106fa576106f9610bee565b5b0361072e5761070882610792565b6040516020016107189190611ff7565b604051602081830303815290604052905061078c565b60048081111561074157610740610bee565b5b83600481111561075457610753610bee565b5b036107885761076282610792565b604051602001610772919061212b565b604051602081830303815290604052905061078c565b5f80fd5b92915050565b60605f60068111156107a7576107a6610bee565b5b8260068111156107ba576107b9610bee565b5b036107fc576040518060400160405280600781526020017f23413044313730000000000000000000000000000000000000000000000000008152509050610a0d565b600160068111156108105761080f610bee565b5b82600681111561082357610822610bee565b5b03610865576040518060400160405280600781526020017f23464644324444000000000000000000000000000000000000000000000000008152509050610a0d565b6002600681111561087957610878610bee565b5b82600681111561088c5761088b610bee565b5b036108ce576040518060400160405280600781526020017f23454144374646000000000000000000000000000000000000000000000000008152509050610a0d565b600360068111156108e2576108e1610bee565b5b8260068111156108f5576108f4610bee565b5b03610937576040518060400160405280600781526020017f23443945304646000000000000000000000000000000000000000000000000008152509050610a0d565b6004600681111561094b5761094a610bee565b5b82600681111561095e5761095d610bee565b5b036109a0576040518060400160405280600781526020017f23454145414541000000000000000000000000000000000000000000000000008152509050610a0d565b600560068111156109b4576109b3610bee565b5b8260068111156109c7576109c6610bee565b5b03610a09576040518060400160405280600781526020017f23463843393434000000000000000000000000000000000000000000000000008152509050610a0d565b5f80fd5b919050565b5f80fd5b60058110610a22575f80fd5b50565b5f81359050610a3381610a16565b92915050565b60078110610a45575f80fd5b50565b5f81359050610a5681610a39565b92915050565b5f8060408385031215610a7257610a71610a12565b5b5f610a7f85828601610a25565b9250506020610a9085828601610a48565b9150509250929050565b5f81519050919050565b5f82825260208201905092915050565b5f5b83811015610ad1578082015181840152602081019050610ab6565b5f8484015250505050565b5f601f19601f8301169050919050565b5f610af682610a9a565b610b008185610aa4565b9350610b10818560208601610ab4565b610b1981610adc565b840191505092915050565b5f6020820190508181035f830152610b3c8184610aec565b905092915050565b60058110610b50575f80fd5b50565b5f81359050610b6181610b44565b92915050565b60078110610b73575f80fd5b50565b5f81359050610b8481610b67565b92915050565b5f805f8060808587031215610ba257610ba1610a12565b5b5f610baf87828801610a25565b9450506020610bc087828801610a48565b9350506040610bd187828801610b53565b9250506060610be287828801610b76565b91505092959194509250565b7f4e487b71000000000000000000000000000000000000000000000000000000005f52602160045260245ffd5b5f81905092915050565b7f3c73766720786d6c6e733d22687474703a2f2f7777772e77332e6f72672f32305f8201527f30302f737667222077696474683d2232313022206865696768743d223333352260208201527f2066696c6c3d226e6f6e65223e3c636972636c652063783d223132372e39393360408201527f222063793d223231312e3439342220723d2235222066696c6c3d220000000000606082015250565b5f610ccb607b83610c1b565b9150610cd682610c25565b607b82019050919050565b5f610ceb82610a9a565b610cf58185610c1b565b9350610d05818560208601610ab4565b80840191505092915050565b7f22207374726f6b653d222330303022207374726f6b652d6c696e656361703d225f8201527f726f756e6422207374726f6b652d6c696e656a6f696e3d22726f756e6422207360208201527f74726f6b652d77696474683d22312e373532222f3e3c636972636c652063783d60408201527f223132362e343933222063793d223231302e3939342220723d222e352220666960608201527f6c6c3d2223303030222f3e3c636972636c652063783d223132392e343933222060808201527f63793d223231302e3939342220723d222e35222066696c6c3d2223303030222f60a08201527f3e3c70617468207374726f6b653d222330303022207374726f6b652d6c696e6560c08201527f6361703d22726f756e6422207374726f6b652d77696474683d222e373522206460e08201527f3d224d3132362e35203231322e35732e352e3720312e352e3720312e352d2e376101008201527f20312e352d2e37222f3e3c2f7376673e0000000000000000000000000000000061012082015250565b5f610e9e61013083610c1b565b9150610ea982610d11565b61013082019050919050565b5f610ebf82610cbf565b9150610ecb8284610ce1565b9150610ed682610e91565b915081905092915050565b7f3c73766720786d6c6e733d22687474703a2f2f7777772e77332e6f72672f32305f8201527f30302f737667222077696474683d2232313022206865696768743d223333352260208201527f2066696c6c3d226e6f6e65223e3c706174682066696c6c3d2200000000000000604082015250565b5f610f61605983610c1b565b9150610f6c82610ee1565b605982019050919050565b7f22207374726f6b653d222330303022207374726f6b652d6c696e656361703d225f8201527f726f756e6422207374726f6b652d6c696e656a6f696e3d22726f756e6422207360208201527f74726f6b652d77696474683d22312e3735322220643d224d3132382e3520323060408201527f3863342e342d342e362031302e352e3820362e3220352e37613920392030203060608201527f20312d362e392033203920392030203020312d362e372d33632d342e322d342e60808201527f3920322d31302e3320362e342d352e362e342e342e362e34203120305a222f3e60a08201527f3c2f7376673e000000000000000000000000000000000000000000000000000060c082015250565b5f61108f60c683610c1b565b915061109a82610f77565b60c682019050919050565b5f6110af82610f55565b91506110bb8284610ce1565b91506110c682611083565b915081905092915050565b7f22207374726f6b653d222330303022207374726f6b652d6c696e656361703d225f8201527f726f756e6422207374726f6b652d6c696e656a6f696e3d22726f756e6422207360208201527f74726f6b652d77696474683d22312e3735322220643d224d313331203230392e60408201527f31762e322d2e35632d2e322d332e372d352e382d332e372d362030762e356c2d60608201527f2e312d2e322d2e322d2e32632d322e372d322e352d362e3720312e342d342e3160808201527f20342e316c2e322e32633320332e3120372e3220332e3120372e3220332e317360a08201527f342e31203020372e322d336c2e322d2e3363322e362d322e372d312e342d362e60c08201527f362d342e312d346c2d2e322e315a222f3e3c2f7376673e00000000000000000060e082015250565b5f61120f60f783610c1b565b915061121a826110d1565b60f782019050919050565b5f61122f82610f55565b915061123b8284610ce1565b915061124682611203565b915081905092915050565b7f22207374726f6b653d222330303022207374726f6b652d6c696e656361703d225f8201527f726f756e6422207374726f6b652d6c696e656a6f696e3d22726f756e6422207360208201527f74726f6b652d77696474683d22312e373532222f3e3c706174682066696c6c3d60408201527f2223303030222066696c6c2d72756c653d226576656e6f64642220643d224d3160608201527f32372e35203231322e32762d352e37683176352e376c332e3520322d2e352e3860808201527f2d332d312e3876332e33682d31762d332e336c2d3320312e382d2e352d2e382060a08201527f332e352d325a2220636c69702d72756c653d226576656e6f6464222f3e3c2f7360c08201527f76673e000000000000000000000000000000000000000000000000000000000060e082015250565b5f61138f60e383610c1b565b915061139a82611251565b60e382019050919050565b5f6113af82610cbf565b91506113bb8284610ce1565b91506113c682611383565b915081905092915050565b7f3c73766720786d6c6e733d22687474703a2f2f7777772e77332e6f72672f32305f8201527f30302f737667222077696474683d2232313022206865696768743d223333352260208201527f2066696c6c3d226e6f6e65223e3c636972636c652063783d223130352220637960408201527f3d223232372e31392220723d2238222066696c6c3d2200000000000000000000606082015250565b5f611477607683610c1b565b9150611482826113d1565b607682019050919050565b7f22207374726f6b653d222330303022207374726f6b652d6c696e656361703d225f8201527f726f756e6422207374726f6b652d6c696e656a6f696e3d22726f756e6422207360208201527f74726f6b652d77696474683d22312e373532222f3e3c636972636c652063783d60408201527f22313032222063793d223232362e31392220723d2231222066696c6c3d22233060608201527f3030222f3e3c636972636c652063783d22313038222063793d223232362e313960808201527f2220723d2231222066696c6c3d2223303030222f3e3c70617468207374726f6b60a08201527f653d222330303022207374726f6b652d6c696e656361703d22726f756e64222060c08201527f7374726f6b652d77696474683d22312e352220643d224d313032203232392e3260e08201527f733120312e35203320312e3520332d312e3520332d312e35222f3e3c2f7376676101008201527f3e0000000000000000000000000000000000000000000000000000000000000061012082015250565b5f61161a61012183610c1b565b91506116258261148d565b61012182019050919050565b5f61163b8261146b565b91506116478284610ce1565b91506116528261160d565b915081905092915050565b7f22207374726f6b653d222330303022207374726f6b652d6c696e656361703d225f8201527f726f756e6422207374726f6b652d6c696e656a6f696e3d22726f756e6422207360208201527f74726f6b652d77696474683d22312e3735322220643d224d3130352e3820323260408201527f322e3263362e352d362e372031352e342031203920382e316131332e3620313360608201527f2e362030203020312d313020342e35632d332e372d2e312d372e342d312e362d60808201527f392e382d342e352d362d3720332d31342e3820392e342d38202e352e352e382e60a08201527f3520312e3420305a222f3e3c2f7376673e00000000000000000000000000000060c082015250565b5f61177560d183610c1b565b91506117808261165d565b60d182019050919050565b5f61179582610f55565b91506117a18284610ce1565b91506117ac82611769565b915081905092915050565b7f22207374726f6b653d222330303022207374726f6b652d6c696e656361703d225f8201527f726f756e6422207374726f6b652d6c696e656a6f696e3d22726f756e6422207360208201527f74726f6b652d77696474683d22312e3735322220643d226d3130392e3520323260408201527f332e372d2e332e33762d2e38632d2e312d352e342d382e332d352e342d382e3460608201527f2030762e386c2d2e332d2e336131302e362031302e362030203020302d2e332d60808201527f2e32632d342d332e372d392e3720322d3620366c2e332e3263342e3520342e3560a08201527f2031302e3520342e352031302e3520342e35733620302031302e352d342e356c60c08201527f2e332d2e3363332e372d332e392d322d392e362d362d366c2d2e332e335a222f60e08201527f3e3c2f7376673e0000000000000000000000000000000000000000000000000061010082015250565b5f61191d61010783610c1b565b9150611928826117b7565b61010782019050919050565b5f61193e82610f55565b915061194a8284610ce1565b915061195582611910565b915081905092915050565b7f22207374726f6b653d222330303022207374726f6b652d6c696e656361703d225f8201527f726f756e6422207374726f6b652d6c696e656a6f696e3d22726f756e6422207360208201527f74726f6b652d77696474683d22312e373532222f3e3c70617468207374726f6b60408201527f653d222330303022207374726f6b652d77696474683d22312e352220643d224d60608201527f313035203231392e327631366d302d362e352d3620332e356d362d332e35203660808201527f20332e35222f3e3c2f7376673e0000000000000000000000000000000000000060a082015250565b5f611a5260ad83610c1b565b9150611a5d82611960565b60ad82019050919050565b5f611a728261146b565b9150611a7e8284610ce1565b9150611a8982611a46565b915081905092915050565b7f3c73766720786d6c6e733d22687474703a2f2f7777772e77332e6f72672f32305f8201527f30302f737667222077696474683d2232313022206865696768743d223333352260208201527f2066696c6c3d226e6f6e65223e3c636972636c652063783d223130352220637960408201527f3d223231302e3137362220723d2236222066696c6c3d22000000000000000000606082015250565b5f611b3a607783610c1b565b9150611b4582611a94565b607782019050919050565b7f22207374726f6b653d222330303022207374726f6b652d6c696e656361703d225f8201527f726f756e6422207374726f6b652d6c696e656a6f696e3d22726f756e6422207360208201527f74726f6b652d77696474683d22312e373532222f3e3c636972636c652063783d60408201527f223130322e3735222063793d223230392e3432362220723d222e37352220666960608201527f6c6c3d2223303030222f3e3c636972636c652063783d223130372e323522206360808201527f793d223230392e3432362220723d222e3735222066696c6c3d2223303030222f60a08201527f3e3c70617468207374726f6b653d222330303022207374726f6b652d6c696e6560c08201527f6361703d22726f756e6422207374726f6b652d77696474683d22312e3522206460e08201527f3d224d3130322e38203231312e37732e3720312e3120322e3220312e3120322e6101008201527f332d312e3120322e332d312e31222f3e3c2f7376673e0000000000000000000061012082015250565b5f611cdd61013683610c1b565b9150611ce882611b50565b61013682019050919050565b5f611cfe82611b2e565b9150611d0a8284610ce1565b9150611d1582611cd0565b915081905092915050565b7f22207374726f6b653d222330303022207374726f6b652d6c696e656361703d225f8201527f726f756e6422207374726f6b652d6c696e656a6f696e3d22726f756e6422207360208201527f74726f6b652d77696474683d22312e3735322220643d224d3130352e3620323060408201527f3663352e342d352e352031322e38203120372e3520362e392d3220322e332d3560608201527f2e3220332e362d382e3320332e366131312031312030203020312d382e322d3360808201527f2e36632d352d3620322e352d31322e3420372e382d362e382e342e352e372e3560a08201527f20312e3220305a222f3e3c2f7376673e0000000000000000000000000000000060c082015250565b5f611e3860d083610c1b565b9150611e4382611d20565b60d082019050919050565b5f611e5882610f55565b9150611e648284610ce1565b9150611e6f82611e2c565b915081905092915050565b7f22207374726f6b653d222330303022207374726f6b652d6c696e656361703d225f8201527f726f756e6422207374726f6b652d6c696e656a6f696e3d22726f756e6422207360208201527f74726f6b652d77696474683d22312e3735322220643d226d3130382e3820323060408201527f372e372d2e332e32762d2e3663302d342e352d372d342e352d372030762e366c60608201527f2d2e332d2e3261382e3520382e352030203020302d2e322d2e32632d332e332d60808201527f332e312d382e3120312e372d3520356c2e322e3263332e3820332e3720382e3860a08201527f20332e3720382e3820332e377335203020382e382d332e376c2e322d2e32633360c08201527f2e312d332e332d312e372d382e312d352d356c2d2e322e325a222f3e3c2f737660e08201527f673e00000000000000000000000000000000000000000000000000000000000061010082015250565b5f611fe061010283610c1b565b9150611feb82611e7a565b61010282019050919050565b5f61200182610f55565b915061200d8284610ce1565b915061201882611fd3565b915081905092915050565b7f22207374726f6b653d222330303022207374726f6b652d6c696e656361703d225f8201527f726f756e6422207374726f6b652d6c696e656a6f696e3d22726f756e6422207360208201527f74726f6b652d77696474683d22312e373532222f3e3c70617468207374726f6b60408201527f653d222330303022207374726f6b652d77696474683d22312e352220643d224d60608201527f313035203230342e327631326d302d342e392d342e3520322e366d342e352d3260808201527f2e3620342e3520322e36222f3e3c2f7376673e0000000000000000000000000060a082015250565b5f61211560b383610c1b565b915061212082612023565b60b382019050919050565b5f61213582611b2e565b91506121418284610ce1565b915061214c82612109565b91508190509291505056fea2646970667358221220ac60313fc9754f4a894da8993f7032b1ef136c030fb653e873bf5a3f3279e8d964736f6c63430008140033",
  "immutableReferences": {},
  "source": "// SPDX-License-Identifier: MIT\npragma solidity ^0.8.0;\n\nimport {Body} from './Body.sol';\n\nimport {EduxColors} from './EduxColors.sol';\n\nlibrary Logo {\n    enum LogoVariants {\n        NONE,\n        HAPPY,\n        HEART,\n        Edux,\n        PEACE\n    }\n\n    enum LogoColors {\n        GREEN,\n        PINK,\n        PURPLE,\n        BLUE,\n        LIGHT,\n        GOLD,\n        NONE\n    }\n\n    function getLogo(\n        LogoVariants logoVariant,\n        LogoColors logoColor,\n        Body.BodyVariants bodyVariant,\n        Body.BodyColors bodyColor\n    ) public pure returns (string memory) {\n        if (logoVariant == LogoVariants.NONE) {\n            return '';\n        }\n\n        // Don't display Light & Dark Logos on non-Light & non-Dark bodies\n        if (bodyColor != Body.BodyColors.LIGHT && bodyColor != Body.BodyColors.DARK) {\n            if (logoColor == LogoColors.LIGHT) {\n                logoColor = LogoColors.BLUE;\n            }\n        }\n\n        if (bodyVariant == Body.BodyVariants.HOODIE) {\n            return getLogoHoodie(logoVariant, logoColor);\n        } else if (bodyVariant == Body.BodyVariants.TANKTOP) {\n            return getLogoTshirtTanktop(logoVariant, logoColor);\n        } else if (bodyVariant == Body.BodyVariants.TSHIRT) {\n            return getLogoTshirtTanktop(logoVariant, logoColor);\n        } else if (bodyVariant == Body.BodyVariants.JACKET) {\n            return getLogoJacket(logoVariant, logoColor);\n        } else if (bodyVariant == Body.BodyVariants.SHIBUYA) {\n            return ''; // No logo for Shibuya\n        } else {\n            revert(); // Avoid warnings.\n        }\n    }\n\n    function getLogoHoodie(LogoVariants logoVariant, LogoColors logoColor) public pure returns (string memory) {\n        if (logoVariant == LogoVariants.HAPPY) {\n            return\n                string.concat(\n                    '<svg xmlns=\"http://www.w3.org/2000/svg\" width=\"210\" height=\"335\" fill=\"none\"><circle cx=\"105\" cy=\"210.176\" r=\"6\" fill=\"',\n                    _getLogoColor(logoColor),\n                    '\" stroke=\"#000\" stroke-linecap=\"round\" stroke-linejoin=\"round\" stroke-width=\"1.752\"/><circle cx=\"102.75\" cy=\"209.426\" r=\".75\" fill=\"#000\"/><circle cx=\"107.25\" cy=\"209.426\" r=\".75\" fill=\"#000\"/><path stroke=\"#000\" stroke-linecap=\"round\" stroke-width=\"1.5\" d=\"M102.8 211.7s.7 1.1 2.2 1.1 2.3-1.1 2.3-1.1\"/></svg>'\n                );\n        } else if (logoVariant == LogoVariants.HEART) {\n            return\n                string.concat(\n                    '<svg xmlns=\"http://www.w3.org/2000/svg\" width=\"210\" height=\"335\" fill=\"none\"><path fill=\"',\n                    _getLogoColor(logoColor),\n                    '\" stroke=\"#000\" stroke-linecap=\"round\" stroke-linejoin=\"round\" stroke-width=\"1.752\" d=\"M105.6 206c5.4-5.5 12.8 1 7.5 6.9-2 2.3-5.2 3.6-8.3 3.6a11 11 0 0 1-8.2-3.6c-5-6 2.5-12.4 7.8-6.8.4.5.7.5 1.2 0Z\"/></svg>'\n                );\n        } else if (logoVariant == LogoVariants.Edux) {\n            return\n                string.concat(\n                    '<svg xmlns=\"http://www.w3.org/2000/svg\" width=\"210\" height=\"335\" fill=\"none\"><path fill=\"',\n                    _getLogoColor(logoColor),\n                    '\" stroke=\"#000\" stroke-linecap=\"round\" stroke-linejoin=\"round\" stroke-width=\"1.752\" d=\"m108.8 207.7-.3.2v-.6c0-4.5-7-4.5-7 0v.6l-.3-.2a8.5 8.5 0 0 0-.2-.2c-3.3-3.1-8.1 1.7-5 5l.2.2c3.8 3.7 8.8 3.7 8.8 3.7s5 0 8.8-3.7l.2-.2c3.1-3.3-1.7-8.1-5-5l-.2.2Z\"/></svg>'\n                );\n        } else if (logoVariant == LogoVariants.PEACE) {\n            return\n                string.concat(\n                    '<svg xmlns=\"http://www.w3.org/2000/svg\" width=\"210\" height=\"335\" fill=\"none\"><circle cx=\"105\" cy=\"210.176\" r=\"6\" fill=\"',\n                    _getLogoColor(logoColor),\n                    '\" stroke=\"#000\" stroke-linecap=\"round\" stroke-linejoin=\"round\" stroke-width=\"1.752\"/><path stroke=\"#000\" stroke-width=\"1.5\" d=\"M105 204.2v12m0-4.9-4.5 2.6m4.5-2.6 4.5 2.6\"/></svg>'\n                );\n        } else {\n            revert(); // Avoid warnings.\n        }\n    }\n\n    function getLogoTshirtTanktop(LogoVariants logoVariant, LogoColors logoColor) public pure returns (string memory) {\n        if (logoVariant == LogoVariants.HAPPY) {\n            return\n                string.concat(\n                    '<svg xmlns=\"http://www.w3.org/2000/svg\" width=\"210\" height=\"335\" fill=\"none\"><circle cx=\"105\" cy=\"227.19\" r=\"8\" fill=\"',\n                    _getLogoColor(logoColor),\n                    '\" stroke=\"#000\" stroke-linecap=\"round\" stroke-linejoin=\"round\" stroke-width=\"1.752\"/><circle cx=\"102\" cy=\"226.19\" r=\"1\" fill=\"#000\"/><circle cx=\"108\" cy=\"226.19\" r=\"1\" fill=\"#000\"/><path stroke=\"#000\" stroke-linecap=\"round\" stroke-width=\"1.5\" d=\"M102 229.2s1 1.5 3 1.5 3-1.5 3-1.5\"/></svg>'\n                );\n        } else if (logoVariant == LogoVariants.HEART) {\n            return\n                string.concat(\n                    '<svg xmlns=\"http://www.w3.org/2000/svg\" width=\"210\" height=\"335\" fill=\"none\"><path fill=\"',\n                    _getLogoColor(logoColor),\n                    '\" stroke=\"#000\" stroke-linecap=\"round\" stroke-linejoin=\"round\" stroke-width=\"1.752\" d=\"M105.8 222.2c6.5-6.7 15.4 1 9 8.1a13.6 13.6 0 0 1-10 4.5c-3.7-.1-7.4-1.6-9.8-4.5-6-7 3-14.8 9.4-8 .5.5.8.5 1.4 0Z\"/></svg>'\n                );\n        } else if (logoVariant == LogoVariants.Edux) {\n            return\n                string.concat(\n                    '<svg xmlns=\"http://www.w3.org/2000/svg\" width=\"210\" height=\"335\" fill=\"none\"><path fill=\"',\n                    _getLogoColor(logoColor),\n                    '\" stroke=\"#000\" stroke-linecap=\"round\" stroke-linejoin=\"round\" stroke-width=\"1.752\" d=\"m109.5 223.7-.3.3v-.8c-.1-5.4-8.3-5.4-8.4 0v.8l-.3-.3a10.6 10.6 0 0 0-.3-.2c-4-3.7-9.7 2-6 6l.3.2c4.5 4.5 10.5 4.5 10.5 4.5s6 0 10.5-4.5l.3-.3c3.7-3.9-2-9.6-6-6l-.3.3Z\"/></svg>'\n                );\n        } else if (logoVariant == LogoVariants.PEACE) {\n            return\n                string.concat(\n                    '<svg xmlns=\"http://www.w3.org/2000/svg\" width=\"210\" height=\"335\" fill=\"none\"><circle cx=\"105\" cy=\"227.19\" r=\"8\" fill=\"',\n                    _getLogoColor(logoColor),\n                    '\" stroke=\"#000\" stroke-linecap=\"round\" stroke-linejoin=\"round\" stroke-width=\"1.752\"/><path stroke=\"#000\" stroke-width=\"1.5\" d=\"M105 219.2v16m0-6.5-6 3.5m6-3.5 6 3.5\"/></svg>'\n                );\n        } else {\n            revert(); // Avoid warnings.\n        }\n    }\n\n    function getLogoJacket(LogoVariants logoVariant, LogoColors logoColor) public pure returns (string memory) {\n        if (logoVariant == LogoVariants.HAPPY) {\n            return\n                string.concat(\n                    '<svg xmlns=\"http://www.w3.org/2000/svg\" width=\"210\" height=\"335\" fill=\"none\"><circle cx=\"127.993\" cy=\"211.494\" r=\"5\" fill=\"',\n                    _getLogoColor(logoColor),\n                    '\" stroke=\"#000\" stroke-linecap=\"round\" stroke-linejoin=\"round\" stroke-width=\"1.752\"/><circle cx=\"126.493\" cy=\"210.994\" r=\".5\" fill=\"#000\"/><circle cx=\"129.493\" cy=\"210.994\" r=\".5\" fill=\"#000\"/><path stroke=\"#000\" stroke-linecap=\"round\" stroke-width=\".75\" d=\"M126.5 212.5s.5.7 1.5.7 1.5-.7 1.5-.7\"/></svg>'\n                );\n        } else if (logoVariant == LogoVariants.HEART) {\n            return\n                string.concat(\n                    '<svg xmlns=\"http://www.w3.org/2000/svg\" width=\"210\" height=\"335\" fill=\"none\"><path fill=\"',\n                    _getLogoColor(logoColor),\n                    '\" stroke=\"#000\" stroke-linecap=\"round\" stroke-linejoin=\"round\" stroke-width=\"1.752\" d=\"M128.5 208c4.4-4.6 10.5.8 6.2 5.7a9 9 0 0 1-6.9 3 9 9 0 0 1-6.7-3c-4.2-4.9 2-10.3 6.4-5.6.4.4.6.4 1 0Z\"/></svg>'\n                );\n        } else if (logoVariant == LogoVariants.Edux) {\n            return\n                string.concat(\n                    '<svg xmlns=\"http://www.w3.org/2000/svg\" width=\"210\" height=\"335\" fill=\"none\"><path fill=\"',\n                    _getLogoColor(logoColor),\n                    '\" stroke=\"#000\" stroke-linecap=\"round\" stroke-linejoin=\"round\" stroke-width=\"1.752\" d=\"M131 209.1v.2-.5c-.2-3.7-5.8-3.7-6 0v.5l-.1-.2-.2-.2c-2.7-2.5-6.7 1.4-4.1 4.1l.2.2c3 3.1 7.2 3.1 7.2 3.1s4.1 0 7.2-3l.2-.3c2.6-2.7-1.4-6.6-4.1-4l-.2.1Z\"/></svg>'\n                );\n        } else if (logoVariant == LogoVariants.PEACE) {\n            return\n                string.concat(\n                    '<svg xmlns=\"http://www.w3.org/2000/svg\" width=\"210\" height=\"335\" fill=\"none\"><circle cx=\"127.993\" cy=\"211.494\" r=\"5\" fill=\"',\n                    _getLogoColor(logoColor),\n                    '\" stroke=\"#000\" stroke-linecap=\"round\" stroke-linejoin=\"round\" stroke-width=\"1.752\"/><path fill=\"#000\" fill-rule=\"evenodd\" d=\"M127.5 212.2v-5.7h1v5.7l3.5 2-.5.8-3-1.8v3.3h-1v-3.3l-3 1.8-.5-.8 3.5-2Z\" clip-rule=\"evenodd\"/></svg>'\n                );\n        } else {\n            revert(); // Avoid warnings.\n        }\n    }\n\n    function _getLogoColor(LogoColors logoColor) internal pure returns (string memory) {\n        if (logoColor == LogoColors.GREEN) {\n            return EduxColors.baseGreen;\n        } else if (logoColor == LogoColors.PINK) {\n            return EduxColors.basePink;\n        } else if (logoColor == LogoColors.PURPLE) {\n            return EduxColors.basePurple;\n        } else if (logoColor == LogoColors.BLUE) {\n            return EduxColors.baseBlue;\n        } else if (logoColor == LogoColors.LIGHT) {\n            return EduxColors.lightGray;\n        } else if (logoColor == LogoColors.GOLD) {\n            return EduxColors.baseGold;\n        } else {\n            revert(); // Avoid warnings.\n        }\n    }\n}\n",
  "sourcePath": "E:\\Blockchain\\EDUIndex\\EduxContract\\contracts\\libraries\\svgs\\Profile\\Logo.sol",
  "compiler": {
    "name": "solc",
    "version": "0.8.20+commit.a1b79de6.Emscripten.clang"
  },
  "schemaVersion": "3.4.3",
  "updatedAt": "2024-08-25T13:13:22.050Z",
  "devdoc": {
    "kind": "dev",
    "methods": {},
    "version": 1
  },
  "userdoc": {
    "kind": "user",
    "methods": {},
    "version": 1
  }
}