{
  "contractName": "ModuleRegistry",
  "abi": [
    {
      "inputs": [],
      "stateMutability": "nonpayable",
      "type": "constructor"
    },
    {
      "inputs": [
        {
          "internalType": "uint256",
          "name": "moduleType",
          "type": "uint256"
        }
      ],
      "name": "ModuleDoesNotSupportType",
      "type": "error"
    },
    {
      "inputs": [],
      "name": "ModuleNotRegistered",
      "type": "error"
    },
    {
      "inputs": [],
      "name": "NotEduxModule",
      "type": "error"
    },
    {
      "anonymous": false,
      "inputs": [
        {
          "indexed": true,
          "internalType": "address",
          "name": "moduleAddress",
          "type": "address"
        },
        {
          "indexed": false,
          "internalType": "string",
          "name": "metadata",
          "type": "string"
        },
        {
          "indexed": false,
          "internalType": "uint256",
          "name": "timestamp",
          "type": "uint256"
        }
      ],
      "name": "ModuleMetadataRefreshed",
      "type": "event"
    },
    {
      "anonymous": false,
      "inputs": [
        {
          "indexed": true,
          "internalType": "address",
          "name": "moduleAddress",
          "type": "address"
        },
        {
          "indexed": true,
          "internalType": "uint256",
          "name": "moduleType",
          "type": "uint256"
        },
        {
          "indexed": false,
          "internalType": "string",
          "name": "metadata",
          "type": "string"
        },
        {
          "indexed": false,
          "internalType": "uint256",
          "name": "timestamp",
          "type": "uint256"
        }
      ],
      "name": "ModuleRegistered",
      "type": "event"
    },
    {
      "anonymous": false,
      "inputs": [
        {
          "indexed": true,
          "internalType": "address",
          "name": "erc20CurrencyAddress",
          "type": "address"
        },
        {
          "indexed": false,
          "internalType": "string",
          "name": "name",
          "type": "string"
        },
        {
          "indexed": false,
          "internalType": "string",
          "name": "symbol",
          "type": "string"
        },
        {
          "indexed": false,
          "internalType": "uint8",
          "name": "decimals",
          "type": "uint8"
        },
        {
          "indexed": false,
          "internalType": "uint256",
          "name": "timestamp",
          "type": "uint256"
        }
      ],
      "name": "erc20CurrencyRegistered",
      "type": "event"
    },
    {
      "inputs": [
        {
          "internalType": "address",
          "name": "moduleAddress",
          "type": "address"
        },
        {
          "internalType": "uint256",
          "name": "moduleType",
          "type": "uint256"
        }
      ],
      "name": "verifyModule",
      "outputs": [
        {
          "internalType": "bool",
          "name": "",
          "type": "bool"
        }
      ],
      "stateMutability": "nonpayable",
      "type": "function"
    },
    {
      "inputs": [
        {
          "internalType": "address",
          "name": "moduleAddress",
          "type": "address"
        },
        {
          "internalType": "uint256",
          "name": "moduleType",
          "type": "uint256"
        }
      ],
      "name": "registerModule",
      "outputs": [
        {
          "internalType": "bool",
          "name": "registrationWasPerformed",
          "type": "bool"
        }
      ],
      "stateMutability": "nonpayable",
      "type": "function"
    },
    {
      "inputs": [
        {
          "internalType": "address",
          "name": "moduleAddress",
          "type": "address"
        }
      ],
      "name": "getModuleTypes",
      "outputs": [
        {
          "internalType": "uint256",
          "name": "",
          "type": "uint256"
        }
      ],
      "stateMutability": "view",
      "type": "function",
      "constant": true
    },
    {
      "inputs": [
        {
          "internalType": "address",
          "name": "moduleAddress",
          "type": "address"
        }
      ],
      "name": "isModuleRegistered",
      "outputs": [
        {
          "internalType": "bool",
          "name": "",
          "type": "bool"
        }
      ],
      "stateMutability": "view",
      "type": "function",
      "constant": true
    },
    {
      "inputs": [
        {
          "internalType": "address",
          "name": "moduleAddress",
          "type": "address"
        },
        {
          "internalType": "uint256",
          "name": "moduleType",
          "type": "uint256"
        }
      ],
      "name": "isModuleRegisteredAs",
      "outputs": [
        {
          "internalType": "bool",
          "name": "",
          "type": "bool"
        }
      ],
      "stateMutability": "view",
      "type": "function",
      "constant": true
    },
    {
      "inputs": [
        {
          "internalType": "address",
          "name": "currencyAddress",
          "type": "address"
        }
      ],
      "name": "verifyErc20Currency",
      "outputs": [
        {
          "internalType": "bool",
          "name": "",
          "type": "bool"
        }
      ],
      "stateMutability": "nonpayable",
      "type": "function"
    },
    {
      "inputs": [
        {
          "internalType": "address",
          "name": "currencyAddress",
          "type": "address"
        }
      ],
      "name": "registerErc20Currency",
      "outputs": [
        {
          "internalType": "bool",
          "name": "registrationWasPerformed",
          "type": "bool"
        }
      ],
      "stateMutability": "nonpayable",
      "type": "function"
    },
    {
      "inputs": [
        {
          "internalType": "address",
          "name": "currencyAddress",
          "type": "address"
        }
      ],
      "name": "isErc20CurrencyRegistered",
      "outputs": [
        {
          "internalType": "bool",
          "name": "",
          "type": "bool"
        }
      ],
      "stateMutability": "view",
      "type": "function",
      "constant": true
    },
    {
      "inputs": [
        {
          "internalType": "address",
          "name": "moduleAddress",
          "type": "address"
        }
      ],
      "name": "emitModuleMetadataRefresh",
      "outputs": [],
      "stateMutability": "nonpayable",
      "type": "function"
    }
  ],
  "bytecode": "0x608060405234801561000f575f80fd5b506111bc8061001d5f395ff3fe608060405234801561000f575f80fd5b5060043610610091575f3560e01c8063acc3315511610064578063acc3315514610141578063c2b62fdd14610171578063c5dcd896146101a1578063f21b24d7146101d1578063fe3b3f4c1461020157610091565b80631c5ebe2f1461009557806341ab44ee146100c55780638ad88294146100f5578063a2a6181c14610125575b5f80fd5b6100af60048036038101906100aa9190610c0c565b610231565b6040516100bc9190610c51565b60405180910390f35b6100df60048036038101906100da9190610c9d565b610279565b6040516100ec9190610c51565b60405180910390f35b61010f600480360381019061010a9190610c9d565b61052c565b60405161011c9190610c51565b60405180910390f35b61013f600480360381019061013a9190610c0c565b610542565b005b61015b60048036038101906101569190610c0c565b610679565b6040516101689190610c51565b60405180910390f35b61018b60048036038101906101869190610c9d565b6108e2565b6040516101989190610c51565b60405180910390f35b6101bb60048036038101906101b69190610c0c565b610940565b6040516101c89190610cea565b60405180910390f35b6101eb60048036038101906101e69190610c0c565b610985565b6040516101f89190610c51565b60405180910390f35b61021b60048036038101906102169190610c0c565b6109d7565b6040516102289190610c51565b60405180910390f35b5f805f808473ffffffffffffffffffffffffffffffffffffffff1673ffffffffffffffffffffffffffffffffffffffff1681526020019081526020015f205414159050919050565b5f808211801561029b575060028081111561029757610296610d03565b5b8211155b6102da576040517f08c379a00000000000000000000000000000000000000000000000000000000081526004016102d190610d8a565b60405180910390fd5b5f80836001901b5f808773ffffffffffffffffffffffffffffffffffffffff1673ffffffffffffffffffffffffffffffffffffffff1681526020019081526020015f205416141590508015610332575f915050610526565b8373ffffffffffffffffffffffffffffffffffffffff166301ffc9a760405160200161035d90610dfc565b604051602081830303815290604052805190602001206040518263ffffffff1660e01b815260040161038f9190610e4a565b602060405180830381865afa1580156103aa573d5f803e3d5ffd5b505050506040513d601f19601f820116820180604052508101906103ce9190610e8d565b610404576040517f4aff7b3200000000000000000000000000000000000000000000000000000000815260040160405180910390fd5b61040e84846109eb565b5f8473ffffffffffffffffffffffffffffffffffffffff1663ce90d52e6040518163ffffffff1660e01b81526004015f60405180830381865afa158015610457573d5f803e3d5ffd5b505050506040513d5f823e3d601f19601f8201168201806040525081019061047f919061100e565b9050838573ffffffffffffffffffffffffffffffffffffffff167ff595de18d97eadc684658016ec895a8c06f151bc6e842edd3b1c37ad47e275e683426040516104ca929190611097565b60405180910390a3836001901b5f808773ffffffffffffffffffffffffffffffffffffffff1673ffffffffffffffffffffffffffffffffffffffff1681526020019081526020015f205f82825417925050819055506001925050505b92915050565b5f6105378383610279565b506001905092915050565b5f805f8373ffffffffffffffffffffffffffffffffffffffff1673ffffffffffffffffffffffffffffffffffffffff1681526020019081526020015f2054036105b7576040517f9c4aee9e00000000000000000000000000000000000000000000000000000000815260040160405180910390fd5b8073ffffffffffffffffffffffffffffffffffffffff167f0e09f8b22588b26bb1da39052e084c8efb1be2ffe0425ad3f86443ff1a8421078273ffffffffffffffffffffffffffffffffffffffff1663ce90d52e6040518163ffffffff1660e01b81526004015f60405180830381865afa158015610637573d5f803e3d5ffd5b505050506040513d5f823e3d601f19601f8201168201806040525081019061065f919061100e565b4260405161066e929190611097565b60405180910390a250565b5f8060015f8473ffffffffffffffffffffffffffffffffffffffff1673ffffffffffffffffffffffffffffffffffffffff1681526020019081526020015f205f9054906101000a900460ff16905080156106d6575f9150506108dd565b5f8373ffffffffffffffffffffffffffffffffffffffff1663313ce5676040518163ffffffff1660e01b8152600401602060405180830381865afa158015610720573d5f803e3d5ffd5b505050506040513d601f19601f8201168201806040525081019061074491906110fb565b90505f8473ffffffffffffffffffffffffffffffffffffffff166306fdde036040518163ffffffff1660e01b81526004015f60405180830381865afa15801561078f573d5f803e3d5ffd5b505050506040513d5f823e3d601f19601f820116820180604052508101906107b7919061100e565b90505f8573ffffffffffffffffffffffffffffffffffffffff166395d89b416040518163ffffffff1660e01b81526004015f60405180830381865afa158015610802573d5f803e3d5ffd5b505050506040513d5f823e3d601f19601f8201168201806040525081019061082a919061100e565b90508573ffffffffffffffffffffffffffffffffffffffff167fd5149e9e0f36d4466fc875166f5e6650d9eb26d6326e05838e68351c58d9738c838386426040516108789493929190611135565b60405180910390a26001805f8873ffffffffffffffffffffffffffffffffffffffff1673ffffffffffffffffffffffffffffffffffffffff1681526020019081526020015f205f6101000a81548160ff02191690831515021790555060019450505050505b919050565b5f60ff80168211156108f2575f80fd5b5f826001901b5f808673ffffffffffffffffffffffffffffffffffffffff1673ffffffffffffffffffffffffffffffffffffffff1681526020019081526020015f2054161415905092915050565b5f805f8373ffffffffffffffffffffffffffffffffffffffff1673ffffffffffffffffffffffffffffffffffffffff1681526020019081526020015f20549050919050565b5f60015f8373ffffffffffffffffffffffffffffffffffffffff1673ffffffffffffffffffffffffffffffffffffffff1681526020019081526020015f205f9054906101000a900460ff169050919050565b5f6109e182610679565b5060019050919050565b5f60016002811115610a00576109ff610d03565b5b8203610aa5578273ffffffffffffffffffffffffffffffffffffffff166301ffc9a77f0a099f57000000000000000000000000000000000000000000000000000000006040518263ffffffff1660e01b8152600401610a5f9190610e4a565b602060405180830381865afa158015610a7a573d5f803e3d5ffd5b505050506040513d601f19601f82011682018060405250810190610a9e9190610e8d565b9050610b5a565b600280811115610ab857610ab7610d03565b5b8203610b59578273ffffffffffffffffffffffffffffffffffffffff166301ffc9a77f3d3a44df000000000000000000000000000000000000000000000000000000006040518263ffffffff1660e01b8152600401610b179190610e4a565b602060405180830381865afa158015610b32573d5f803e3d5ffd5b505050506040513d601f19601f82011682018060405250810190610b569190610e8d565b90505b5b80610b9c57816040517ff465cafb000000000000000000000000000000000000000000000000000000008152600401610b939190610cea565b60405180910390fd5b505050565b5f604051905090565b5f80fd5b5f80fd5b5f73ffffffffffffffffffffffffffffffffffffffff82169050919050565b5f610bdb82610bb2565b9050919050565b610beb81610bd1565b8114610bf5575f80fd5b50565b5f81359050610c0681610be2565b92915050565b5f60208284031215610c2157610c20610baa565b5b5f610c2e84828501610bf8565b91505092915050565b5f8115159050919050565b610c4b81610c37565b82525050565b5f602082019050610c645f830184610c42565b92915050565b5f819050919050565b610c7c81610c6a565b8114610c86575f80fd5b50565b5f81359050610c9781610c73565b92915050565b5f8060408385031215610cb357610cb2610baa565b5b5f610cc085828601610bf8565b9250506020610cd185828601610c89565b9150509250929050565b610ce481610c6a565b82525050565b5f602082019050610cfd5f830184610cdb565b92915050565b7f4e487b71000000000000000000000000000000000000000000000000000000005f52602160045260245ffd5b5f82825260208201905092915050565b7f4d6f64756c652054797065206f7574206f6620626f756e6473000000000000005f82015250565b5f610d74601983610d30565b9150610d7f82610d40565b602082019050919050565b5f6020820190508181035f830152610da181610d68565b9050919050565b5f81905092915050565b7f456475785f4d4f44554c450000000000000000000000000000000000000000005f82015250565b5f610de6600b83610da8565b9150610df182610db2565b600b82019050919050565b5f610e0682610dda565b9150819050919050565b5f7fffffffff0000000000000000000000000000000000000000000000000000000082169050919050565b610e4481610e10565b82525050565b5f602082019050610e5d5f830184610e3b565b92915050565b610e6c81610c37565b8114610e76575f80fd5b50565b5f81519050610e8781610e63565b92915050565b5f60208284031215610ea257610ea1610baa565b5b5f610eaf84828501610e79565b91505092915050565b5f80fd5b5f80fd5b5f601f19601f8301169050919050565b7f4e487b71000000000000000000000000000000000000000000000000000000005f52604160045260245ffd5b610f0682610ec0565b810181811067ffffffffffffffff82111715610f2557610f24610ed0565b5b80604052505050565b5f610f37610ba1565b9050610f438282610efd565b919050565b5f67ffffffffffffffff821115610f6257610f61610ed0565b5b610f6b82610ec0565b9050602081019050919050565b5f5b83811015610f95578082015181840152602081019050610f7a565b5f8484015250505050565b5f610fb2610fad84610f48565b610f2e565b905082815260208101848484011115610fce57610fcd610ebc565b5b610fd9848285610f78565b509392505050565b5f82601f830112610ff557610ff4610eb8565b5b8151611005848260208601610fa0565b91505092915050565b5f6020828403121561102357611022610baa565b5b5f82015167ffffffffffffffff8111156110405761103f610bae565b5b61104c84828501610fe1565b91505092915050565b5f81519050919050565b5f61106982611055565b6110738185610d30565b9350611083818560208601610f78565b61108c81610ec0565b840191505092915050565b5f6040820190508181035f8301526110af818561105f565b90506110be6020830184610cdb565b9392505050565b5f60ff82169050919050565b6110da816110c5565b81146110e4575f80fd5b50565b5f815190506110f5816110d1565b92915050565b5f602082840312156111105761110f610baa565b5b5f61111d848285016110e7565b91505092915050565b61112f816110c5565b82525050565b5f6080820190508181035f83015261114d818761105f565b90508181036020830152611161818661105f565b90506111706040830185611126565b61117d6060830184610cdb565b9594505050505056fea26469706673582212205164faf381e4b81cefa22d04cf1ae4f5a09040da51a4ed50d192b84a12330f6864736f6c63430008140033",
  "immutableReferences": {},
  "source": "// SPDX-License-Identifier: MIT\r\n\r\npragma solidity ^0.8.15;\r\n\r\nimport {IModuleRegistry} from '../interfaces/IModuleRegistry.sol';\r\nimport {IERC20Metadata} from '@openzeppelin/contracts/token/ERC20/extensions/IERC20Metadata.sol';\r\nimport {IEduxModule} from '../modules/interfaces/IEduxModule.sol';\r\n\r\nimport {IPublicationActionModule} from '../interfaces/IPublicationActionModule.sol';\r\nimport {IPublicationCollectModule} from '../interfaces/IPublicationCollectModule.sol';\r\n\r\n/**\r\n * @title ModuleRegistry\r\n * @author Edux Protocol\r\n * @notice A registry for modules and currencies\r\n */\r\ncontract ModuleRegistry is IModuleRegistry {\r\n    bytes4 private constant Edux_MODULE_INTERFACE_ID = bytes4(keccak256(abi.encodePacked('Edux_MODULE')));\r\n\r\n    event ModuleRegistered(\r\n        address indexed moduleAddress,\r\n        uint256 indexed moduleType,\r\n        string metadata,\r\n        uint256 timestamp\r\n    );\r\n\r\n    event erc20CurrencyRegistered(\r\n        address indexed erc20CurrencyAddress,\r\n        string name,\r\n        string symbol,\r\n        uint8 decimals,\r\n        uint256 timestamp\r\n    );\r\n\r\n    event ModuleMetadataRefreshed(address indexed moduleAddress, string metadata, uint256 timestamp);\r\n\r\n    error NotEduxModule();\r\n    error ModuleDoesNotSupportType(uint256 moduleType);\r\n    error ModuleNotRegistered();\r\n\r\n    mapping(address moduleAddress => uint256 moduleTypesBitmap) internal _registeredModules;\r\n\r\n    mapping(address erc20CurrencyAddress => bool) internal _registeredErc20Currencies;\r\n\r\n    constructor() {}\r\n\r\n    // Modules\r\n\r\n    function verifyModule(address moduleAddress, uint256 moduleType) external returns (bool) {\r\n        registerModule(moduleAddress, moduleType);\r\n        return true;\r\n    }\r\n\r\n    function registerModule(address moduleAddress, uint256 moduleType) public returns (bool registrationWasPerformed) {\r\n        // This will fail if moduleType is out of range for `IModuleRegistry.ModuleType`\r\n        require(\r\n            moduleType > 0 && moduleType <= uint256(type(IModuleRegistry.ModuleType).max),\r\n            'Module Type out of bounds'\r\n        );\r\n\r\n        bool isAlreadyRegisteredAsThatType = _registeredModules[moduleAddress] & (1 << moduleType) != 0;\r\n        if (isAlreadyRegisteredAsThatType) {\r\n            return false;\r\n        } else {\r\n            if (!IEduxModule(moduleAddress).supportsInterface(Edux_MODULE_INTERFACE_ID)) {\r\n                revert NotEduxModule();\r\n            }\r\n\r\n            validateModuleSupportsType(moduleAddress, moduleType);\r\n\r\n            string memory metadata = IEduxModule(moduleAddress).getModuleMetadataURI();\r\n            emit ModuleRegistered(moduleAddress, moduleType, metadata, block.timestamp);\r\n            _registeredModules[moduleAddress] |= (1 << moduleType);\r\n            return true;\r\n        }\r\n    }\r\n\r\n    function validateModuleSupportsType(address moduleAddress, uint256 moduleType) internal view {\r\n        bool supportsInterface;\r\n        if (moduleType == uint256(IModuleRegistry.ModuleType.PUBLICATION_ACTION_MODULE)) {\r\n            supportsInterface = IEduxModule(moduleAddress).supportsInterface(\r\n                type(IPublicationActionModule).interfaceId\r\n            );\r\n        } else if (moduleType == uint256(IModuleRegistry.ModuleType.PUBLICATION_COLLECT_MODULE)) {\r\n            supportsInterface = IEduxModule(moduleAddress).supportsInterface(type(IPublicationCollectModule).interfaceId);\r\n        }\r\n\r\n        if (!supportsInterface) {\r\n            revert ModuleDoesNotSupportType(moduleType);\r\n        }\r\n    }\r\n\r\n    function getModuleTypes(address moduleAddress) public view returns (uint256) {\r\n        return _registeredModules[moduleAddress];\r\n    }\r\n\r\n    function isModuleRegistered(address moduleAddress) external view returns (bool) {\r\n        return _registeredModules[moduleAddress] != 0;\r\n    }\r\n\r\n    function isModuleRegisteredAs(address moduleAddress, uint256 moduleType) public view returns (bool) {\r\n        require(moduleType <= type(uint8).max);\r\n        return _registeredModules[moduleAddress] & (1 << moduleType) != 0;\r\n    }\r\n\r\n    // Currencies\r\n\r\n    function verifyErc20Currency(address currencyAddress) external returns (bool) {\r\n        registerErc20Currency(currencyAddress);\r\n        return true;\r\n    }\r\n\r\n    function registerErc20Currency(address currencyAddress) public returns (bool registrationWasPerformed) {\r\n        bool isAlreadyRegistered = _registeredErc20Currencies[currencyAddress];\r\n        if (isAlreadyRegistered) {\r\n            return false;\r\n        } else {\r\n            uint8 decimals = IERC20Metadata(currencyAddress).decimals();\r\n            string memory name = IERC20Metadata(currencyAddress).name();\r\n            string memory symbol = IERC20Metadata(currencyAddress).symbol();\r\n\r\n            emit erc20CurrencyRegistered(currencyAddress, name, symbol, decimals, block.timestamp);\r\n            _registeredErc20Currencies[currencyAddress] = true;\r\n            return true;\r\n        }\r\n    }\r\n\r\n    function isErc20CurrencyRegistered(address currencyAddress) external view returns (bool) {\r\n        return _registeredErc20Currencies[currencyAddress];\r\n    }\r\n\r\n    function emitModuleMetadataRefresh(address moduleAddress) external {\r\n        if (_registeredModules[moduleAddress] == 0) {\r\n            revert ModuleNotRegistered();\r\n        }\r\n        emit ModuleMetadataRefreshed(moduleAddress, IEduxModule(moduleAddress).getModuleMetadataURI(), block.timestamp);\r\n    }\r\n}",
  "sourcePath": "E:\\Blockchain\\EDUIndex\\EduxContract\\contracts\\misc\\ModuleRegistry.sol",
  "compiler": {
    "name": "solc",
    "version": "0.8.20+commit.a1b79de6.Emscripten.clang"
  },
  "schemaVersion": "3.4.3",
  "updatedAt": "2024-08-25T13:14:53.578Z",
  "networkType": "ethereum",
  "devdoc": {
    "author": "Edux Protocol",
    "kind": "dev",
    "methods": {},
    "title": "ModuleRegistry",
    "version": 1
  },
  "userdoc": {
    "kind": "user",
    "methods": {},
    "notice": "A registry for modules and currencies",
    "version": 1
  }
}