{
  "contractName": "ProfileTokenURI",
  "abi": [
    {
      "inputs": [],
      "stateMutability": "nonpayable",
      "type": "constructor"
    },
    {
      "inputs": [],
      "name": "blockSeed",
      "outputs": [
        {
          "internalType": "bytes32",
          "name": "",
          "type": "bytes32"
        }
      ],
      "stateMutability": "view",
      "type": "function"
    },
    {
      "inputs": [
        {
          "internalType": "uint256",
          "name": "profileId",
          "type": "uint256"
        },
        {
          "internalType": "uint256",
          "name": "mintTimestamp",
          "type": "uint256"
        }
      ],
      "name": "getTokenURI",
      "outputs": [
        {
          "internalType": "string",
          "name": "",
          "type": "string"
        }
      ],
      "stateMutability": "view",
      "type": "function"
    }
  ],
  "bytecode": "0x60a060405234801561000f575f80fd5b5060014361001d9190610060565b4060808181525050610093565b5f819050919050565b7f4e487b71000000000000000000000000000000000000000000000000000000005f52601160045260245ffd5b5f61006a8261002a565b91506100758361002a565b925082820390508181111561008d5761008c610033565b5b92915050565b60805161126e6100b05f395f81816088015260d7015261126e5ff3fe608060405234801561000f575f80fd5b5060043610610034575f3560e01c8063430e9e1a14610038578063ad22a3f214610056575b5f80fd5b610040610086565b60405161004d919061086d565b60405180910390f35b610070600480360381019061006b91906108ca565b6100aa565b60405161007d9190610992565b60405180910390f35b7f000000000000000000000000000000000000000000000000000000000000000081565b60605f6100b6846101ff565b90505f8073__ProfileSVG____________________________63806c6aeb877f00000000000000000000000000000000000000000000000000000000000000006040518363ffffffff1660e01b81526004016101139291906109d0565b5f60405180830381865af415801561012d573d5f803e3d5ffd5b505050506040513d5f823e3d601f19601f820116820180604052508101906101559190610b15565b9150915060608384610166856102c9565b60405160200161017893929190610ccb565b60405160208183030381529060405290506101d481856101978a610428565b6101a188516101ff565b6101aa8b6101ff565b876040516020016101c096959493929190610f52565b6040516020818303038152906040526102c9565b6040516020016101e49190611019565b60405160208183030381529060405294505050505092915050565b60605f600161020d84610446565b0190505f8167ffffffffffffffff81111561022b5761022a6109ff565b5b6040519080825280601f01601f19166020018201604052801561025d5781602001600182028036833780820191505090505b5090505f82602001820190505b6001156102be578080600190039150507f3031323334353637383961626364656600000000000000000000000000000000600a86061a8153600a85816102b3576102b261103e565b5b0494505f850361026a575b819350505050919050565b60605f8251036102e95760405180602001604052805f8152509050610423565b5f6040518060600160405280604081526020016111f96040913990505f6003600285516103169190611098565b61032091906110cb565b600461032c91906110fb565b67ffffffffffffffff811115610345576103446109ff565b5b6040519080825280601f01601f1916602001820160405280156103775781602001600182028036833780820191505090505b509050600182016020820185865187015b808210156103e3576003820191508151603f8160121c168501518453600184019350603f81600c1c168501518453600184019350603f8160061c168501518453600184019350603f8116850151845360018401935050610388565b50506003865106600181146103ff57600281146104125761041a565b603d6001830353603d600283035361041a565b603d60018303535b50505080925050505b919050565b606061043f82600161043985610597565b01610620565b9050919050565b5f805f90507a184f03e93ff9f4daa797ed6e38ed64bf6a1f01000000000000000083106104a2577a184f03e93ff9f4daa797ed6e38ed64bf6a1f01000000000000000083816104985761049761103e565b5b0492506040810190505b6d04ee2d6d415b85acef810000000083106104df576d04ee2d6d415b85acef810000000083816104d5576104d461103e565b5b0492506020810190505b662386f26fc10000831061050e57662386f26fc1000083816105045761050361103e565b5b0492506010810190505b6305f5e1008310610537576305f5e100838161052d5761052c61103e565b5b0492506008810190505b612710831061055c5761271083816105525761055161103e565b5b0492506004810190505b6064831061057f57606483816105755761057461103e565b5b0492506002810190505b600a831061058e576001810190505b80915050919050565b5f805f90505f608084901c11156105b657608083901c92506010810190505b5f604084901c11156105d057604083901c92506008810190505b5f602084901c11156105ea57602083901c92506004810190505b5f601084901c111561060457601083901c92506002810190505b5f600884901c1115610617576001810190505b80915050919050565b60605f600283600261063291906110fb565b61063c9190611098565b67ffffffffffffffff811115610655576106546109ff565b5b6040519080825280601f01601f1916602001820160405280156106875781602001600182028036833780820191505090505b5090507f3000000000000000000000000000000000000000000000000000000000000000815f815181106106be576106bd61113c565b5b60200101907effffffffffffffffffffffffffffffffffffffffffffffffffffffffffffff191690815f1a9053507f7800000000000000000000000000000000000000000000000000000000000000816001815181106107215761072061113c565b5b60200101907effffffffffffffffffffffffffffffffffffffffffffffffffffffffffffff191690815f1a9053505f600184600261075f91906110fb565b6107699190611098565b90505b6001811115610808577f3031323334353637383961626364656600000000000000000000000000000000600f8616601081106107ab576107aa61113c565b5b1a60f81b8282815181106107c2576107c161113c565b5b60200101907effffffffffffffffffffffffffffffffffffffffffffffffffffffffffffff191690815f1a905350600485901c94508061080190611169565b905061076c565b505f841461084b576040517f08c379a0000000000000000000000000000000000000000000000000000000008152600401610842906111da565b60405180910390fd5b8091505092915050565b5f819050919050565b61086781610855565b82525050565b5f6020820190506108805f83018461085e565b92915050565b5f604051905090565b5f80fd5b5f80fd5b5f819050919050565b6108a981610897565b81146108b3575f80fd5b50565b5f813590506108c4816108a0565b92915050565b5f80604083850312156108e0576108df61088f565b5b5f6108ed858286016108b6565b92505060206108fe858286016108b6565b9150509250929050565b5f81519050919050565b5f82825260208201905092915050565b5f5b8381101561093f578082015181840152602081019050610924565b5f8484015250505050565b5f601f19601f8301169050919050565b5f61096482610908565b61096e8185610912565b935061097e818560208601610922565b6109878161094a565b840191505092915050565b5f6020820190508181035f8301526109aa818461095a565b905092915050565b6109bb81610897565b82525050565b6109ca81610855565b82525050565b5f6040820190506109e35f8301856109b2565b6109f060208301846109c1565b9392505050565b5f80fd5b5f80fd5b7f4e487b71000000000000000000000000000000000000000000000000000000005f52604160045260245ffd5b610a358261094a565b810181811067ffffffffffffffff82111715610a5457610a536109ff565b5b80604052505050565b5f610a66610886565b9050610a728282610a2c565b919050565b5f67ffffffffffffffff821115610a9157610a906109ff565b5b610a9a8261094a565b9050602081019050919050565b5f610ab9610ab484610a77565b610a5d565b905082815260208101848484011115610ad557610ad46109fb565b5b610ae0848285610922565b509392505050565b5f82601f830112610afc57610afb6109f7565b5b8151610b0c848260208601610aa7565b91505092915050565b5f8060408385031215610b2b57610b2a61088f565b5b5f83015167ffffffffffffffff811115610b4857610b47610893565b5b610b5485828601610ae8565b925050602083015167ffffffffffffffff811115610b7557610b74610893565b5b610b8185828601610ae8565b9150509250929050565b7f7b226e616d65223a2250726f66696c6520230000000000000000000000000000815250565b5f81905092915050565b5f610bc582610908565b610bcf8185610bb1565b9350610bdf818560208601610922565b80840191505092915050565b7f222c226465736372697074696f6e223a22456475782050726f746f636f6c202d5f8201527f2050726f66696c65202300000000000000000000000000000000000000000000602082015250565b5f610c45602a83610bb1565b9150610c5082610beb565b602a82019050919050565b7f222c22696d616765223a22646174613a696d6167652f7376672b786d6c3b62615f8201527f736536342c000000000000000000000000000000000000000000000000000000602082015250565b5f610cb5602583610bb1565b9150610cc082610c5b565b602582019050919050565b5f610cd582610b8b565b601282019150610ce58286610bbb565b9150610cf082610c39565b9150610cfc8285610bbb565b9150610d0782610ca9565b9150610d138284610bbb565b9150819050949350505050565b7f222c2261747472696275746573223a5b7b22646973706c61795f74797065223a5f8201527f226e756d626572222c2274726169745f74797065223a224944222c2276616c7560208201527f65223a2200000000000000000000000000000000000000000000000000000000604082015250565b5f610da0604483610bb1565b9150610dab82610d20565b604482019050919050565b7f227d2c7b2274726169745f74797065223a22484558204944222c2276616c75655f8201527f223a220000000000000000000000000000000000000000000000000000000000602082015250565b5f610e10602383610bb1565b9150610e1b82610db6565b602382019050919050565b7f227d2c7b2274726169745f74797065223a22444947495453222c2276616c75655f8201527f223a220000000000000000000000000000000000000000000000000000000000602082015250565b5f610e80602383610bb1565b9150610e8b82610e26565b602382019050919050565b7f227d2c7b22646973706c61795f74797065223a2264617465222c2274726169745f8201527f5f74797065223a224d494e544544204154222c2276616c7565223a2200000000602082015250565b5f610ef0603c83610bb1565b9150610efb82610e96565b603c82019050919050565b7f227d2c0000000000000000000000000000000000000000000000000000000000815250565b7f5d7d000000000000000000000000000000000000000000000000000000000000815250565b5f610f5d8289610bbb565b9150610f6882610d94565b9150610f748288610bbb565b9150610f7f82610e04565b9150610f8b8287610bbb565b9150610f9682610e74565b9150610fa28286610bbb565b9150610fad82610ee4565b9150610fb98285610bbb565b9150610fc482610f06565b600382019150610fd48284610bbb565b9150610fdf82610f2c565b600282019150819050979650505050505050565b7f646174613a6170706c69636174696f6e2f6a736f6e3b6261736536342c000000815250565b5f61102382610ff3565b601d820191506110338284610bbb565b915081905092915050565b7f4e487b71000000000000000000000000000000000000000000000000000000005f52601260045260245ffd5b7f4e487b71000000000000000000000000000000000000000000000000000000005f52601160045260245ffd5b5f6110a282610897565b91506110ad83610897565b92508282019050808211156110c5576110c461106b565b5b92915050565b5f6110d582610897565b91506110e083610897565b9250826110f0576110ef61103e565b5b828204905092915050565b5f61110582610897565b915061111083610897565b925082820261111e81610897565b915082820484148315176111355761113461106b565b5b5092915050565b7f4e487b71000000000000000000000000000000000000000000000000000000005f52603260045260245ffd5b5f61117382610897565b91505f82036111855761118461106b565b5b600182039050919050565b7f537472696e67733a20686578206c656e67746820696e73756666696369656e745f82015250565b5f6111c4602083610912565b91506111cf82611190565b602082019050919050565b5f6020820190508181035f8301526111f1816111b8565b905091905056fe4142434445464748494a4b4c4d4e4f505152535455565758595a6162636465666768696a6b6c6d6e6f707172737475767778797a303132333435363738392b2fa2646970667358221220a2a569c2d8bca066565e3a5e0bcb2a76d3ee78b35dee5379422134034e9c6b3864736f6c63430008140033",
  "immutableReferences": {
    "19619": [
      {
        "length": 32,
        "start": 136
      },
      {
        "length": 32,
        "start": 215
      }
    ]
  },
  "source": "// SPDX-License-Identifier: MIT\r\n\r\npragma solidity ^0.8.15;\r\n\r\nimport {Base64} from '@openzeppelin/contracts/utils/Base64.sol';\r\nimport {Strings} from '@openzeppelin/contracts/utils/Strings.sol';\r\nimport {ProfileSVG} from '../../libraries/svgs/Profile/ProfileSVG.sol';\r\nimport {IProfileTokenURI} from '../../interfaces/IProfileTokenURI.sol';\r\n\r\ncontract ProfileTokenURI is IProfileTokenURI {\r\n    using Strings for uint96;\r\n    using Strings for uint256;\r\n\r\n    bytes32 public immutable blockSeed;\r\n\r\n    constructor() {\r\n        blockSeed = blockhash(block.number - 1);\r\n    }\r\n\r\n    function getTokenURI(uint256 profileId, uint256 mintTimestamp) public view override returns (string memory) {\r\n        string memory profileIdAsString = profileId.toString();\r\n        (string memory profileSvg, string memory traits) = ProfileSVG.getProfileSVG(profileId, blockSeed);\r\n        string memory json;\r\n        {\r\n            json = string.concat(\r\n                '{\"name\":\"Profile #',\r\n                profileIdAsString,\r\n                '\",\"description\":\"Edux Protocol - Profile #',\r\n                profileIdAsString,\r\n                '\",\"image\":\"data:image/svg+xml;base64,',\r\n                Base64.encode(bytes(profileSvg))\r\n            );\r\n        }\r\n        return\r\n            string.concat(\r\n                'data:application/json;base64,',\r\n                Base64.encode(\r\n                    bytes(\r\n                        string.concat(\r\n                            json,\r\n                            '\",\"attributes\":[{\"display_type\":\"number\",\"trait_type\":\"ID\",\"value\":\"',\r\n                            profileIdAsString,\r\n                            '\"},{\"trait_type\":\"HEX ID\",\"value\":\"',\r\n                            profileId.toHexString(),\r\n                            '\"},{\"trait_type\":\"DIGITS\",\"value\":\"',\r\n                            bytes(profileIdAsString).length.toString(),\r\n                            '\"},{\"display_type\":\"date\",\"trait_type\":\"MINTED AT\",\"value\":\"',\r\n                            mintTimestamp.toString(),\r\n                            '\"},',\r\n                            traits,\r\n                            ']}'\r\n                        )\r\n                    )\r\n                )\r\n            );\r\n    }\r\n}",
  "sourcePath": "E:\\Blockchain\\EDUIndex\\EduxContract\\contracts\\misc\\token-uris\\ProfileTokenURI.sol",
  "compiler": {
    "name": "solc",
    "version": "0.8.20+commit.a1b79de6.Emscripten.clang"
  },
  "schemaVersion": "3.4.3",
  "updatedAt": "2024-08-25T13:13:22.188Z",
  "devdoc": {
    "kind": "dev",
    "methods": {},
    "version": 1
  },
  "userdoc": {
    "kind": "user",
    "methods": {},
    "version": 1
  }
}