{
  "contractName": "ProfileSVG",
  "abi": [
    {
      "inputs": [
        {
          "internalType": "uint256",
          "name": "profileId",
          "type": "uint256"
        },
        {
          "internalType": "bytes32",
          "name": "blockSeed",
          "type": "bytes32"
        }
      ],
      "name": "getProfileSVG",
      "outputs": [
        {
          "internalType": "string",
          "name": "",
          "type": "string"
        },
        {
          "internalType": "string",
          "name": "",
          "type": "string"
        }
      ],
      "stateMutability": "pure",
      "type": "function"
    }
  ],
  "bytecode": "0x6157806200004f600b8282823980515f1a607314610043577f4e487b71000000000000000000000000000000000000000000000000000000005f525f60045260245ffd5b305f52607381538281f3fe7300000000000000000000000000000000000000003014608060405260043610610034575f3560e01c8063806c6aeb14610038575b5f80fd5b610052600480360381019061004d9190613baa565b610069565b604051610060929190613c72565b60405180910390f35b6060805f8484604051602001610080929190613ce7565b604051602081830303815290604052805190602001205f1c90505f6103e886111590505f806100af84846100d5565b915091506100bd8282610726565b6100c683610766565b95509550505050509250929050565b6100dd6139e6565b606082610125576004808111156100f7576100f6613d12565b5b610101855f61085c565b61010b9190613d78565b60ff1660048111156101205761011f613d12565b5b610128565b60045b825f0190600481111561013e5761013d613d12565b5b9081600481111561015257610151613d12565b5b815250508261019d5760048081111561016e5761016d613d12565b5b61017985600161085c565b6101839190613d78565b60ff16600481111561019857610197613d12565b5b6101a0565b60045b826020019060048111156101b7576101b6613d12565b5b908160048111156101cb576101ca613d12565b5b8152505082610216576006808111156101e7576101e6613d12565b5b6101f285600661085c565b6101fc9190613d78565b60ff16600681111561021157610210613d12565b5b610219565b60065b826040019060068111156102305761022f613d12565b5b9081600681111561024457610243613d12565b5b815250508261028f576006808111156102605761025f613d12565b5b61026b85600761085c565b6102759190613d78565b60ff16600681111561028a57610289613d12565b5b610292565b60065b826060019060068111156102a9576102a8613d12565b5b908160068111156102bd576102bc613d12565b5b8152505060016002808111156102d6576102d5613d12565b5b6102e09190613dd5565b6102eb856005610899565b6102f59190613d78565b60ff16600281111561030a57610309613d12565b5b8260800190600281111561032157610320613d12565b5b9081600281111561033557610334613d12565b5b81525050600160048081111561034e5761034d613d12565b5b6103589190613dd5565b610363856004610899565b61036d9190613d78565b60ff16600481111561038257610381613d12565b5b8260a00190600481111561039957610398613d12565b5b908160048111156103ad576103ac613d12565b5b81525050826103f8576006808111156103c9576103c8613d12565b5b6103d485600461085c565b6103de9190613d78565b60ff1660068111156103f3576103f2613d12565b5b6103fb565b60065b8260c00190600681111561041257610411613d12565b5b9081600681111561042657610425613d12565b5b8152505060048081111561043d5761043c613d12565b5b8260a00151600481111561045457610453613d12565b5b146104a757600160048081111561046e5761046d613d12565b5b6104789190613dd5565b610483856008610899565b61048d9190613d78565b60ff1660048111156104a2576104a1613d12565b5b6104a9565b5f5b8260e0019060048111156104c0576104bf613d12565b5b908160048111156104d4576104d3613d12565b5b815250505f60048111156104eb576104ea613d12565b5b8260e00151600481111561050257610501613d12565b5b0361053e576006826101000190600681111561052157610520613d12565b5b9081600681111561053557610534613d12565b5b815250506105ba565b82610586576005600681111561055757610556613d12565b5b61056285600861085c565b61056c9190613d78565b60ff16600681111561058157610580613d12565b5b610589565b60055b82610100019060068111156105a1576105a0613d12565b5b908160068111156105b5576105b4613d12565b5b815250505b60016012808111156105cf576105ce613d12565b5b6105d99190613dd5565b6105e4856002610899565b6105ee9190613d78565b60ff16601281111561060357610602613d12565b5b826101800190601281111561061b5761061a613d12565b5b9081601281111561062f5761062e613d12565b5b8152505082826101a001901515908115158152505073__Headwear______________________________6342d3b46885856040518363ffffffff1660e01b815260040161067d929190613e32565b5f60405180830381865af4158015610697573d5f803e3d5ffd5b505050506040513d5f823e3d601f19601f820116820180604052508101906106bf9190613fbd565b846101400185610160018260058111156106dc576106db613d12565b5b60058111156106ee576106ed613d12565b5b81525082601581111561070457610703613d12565b5b601581111561071657610715613d12565b5b8152508293505050509250929050565b6060610734835f01516108ca565b61073e8484610ae0565b60405160200161074f92919061474d565b604051602081830303815290604052905092915050565b606080610775835f0151610f6b565b61078284602001516111a9565b61078f85604001516113e7565b61079c86606001516116f9565b6107a98760800151611a0b565b6107b68860a00151611b75565b6107c38960c00151611db3565b6040516020016107d997969594939291906147af565b6040516020818303038152906040529050806107f98461018001516120c5565b6108068560e001516128cf565b610814866101000151612b0d565b610822876101400151612df9565b610830886101600151613741565b60405160200161084596959493929190614813565b604051602081830303815290604052915050919050565b5f60ff600883600981111561087457610873613d12565b5b601f610880919061486a565b61088a919061489e565b60ff1684901c16905092915050565b5f60ff60088360098111156108b1576108b0613d12565b5b6108bb919061489e565b60ff1684901c16905092915050565b60605f60048111156108df576108de613d12565b5b8260048111156108f2576108f1613d12565b5b03610934576040518060400160405280600681526020017f23677265656e00000000000000000000000000000000000000000000000000008152509050610adb565b6001600481111561094857610947613d12565b5b82600481111561095b5761095a613d12565b5b0361099d576040518060400160405280600581526020017f2370696e6b0000000000000000000000000000000000000000000000000000008152509050610adb565b600260048111156109b1576109b0613d12565b5b8260048111156109c4576109c3613d12565b5b03610a06576040518060400160405280600781526020017f23707572706c65000000000000000000000000000000000000000000000000008152509050610adb565b60036004811115610a1a57610a19613d12565b5b826004811115610a2d57610a2c613d12565b5b03610a6f576040518060400160405280600581526020017f23626c75650000000000000000000000000000000000000000000000000000008152509050610adb565b600480811115610a8257610a81613d12565b5b826004811115610a9557610a94613d12565b5b03610ad7576040518060400160405280600781526020017f2379656c6c6f77000000000000000000000000000000000000000000000000008152509050610adb565b5f80fd5b919050565b606073__Legs__________________________________635600a86384604001516040518263ffffffff1660e01b8152600401610b1d9190614920565b5f60405180830381865af4158015610b37573d5f803e3d5ffd5b505050506040513d5f823e3d601f19601f82011682018060405250810190610b5f9190614939565b73__Shoes_________________________________634c43655885606001516040518263ffffffff1660e01b8152600401610b9a91906149c6565b5f60405180830381865af4158015610bb4573d5f803e3d5ffd5b505050506040513d5f823e3d601f19601f82011682018060405250810190610bdc9190614939565b73__Body__________________________________630fc1a3138660a001518760c00151886080015189602001516004811115610c1c57610c1b613d12565b5b60ff166004811115610c3157610c30613d12565b5b6040518563ffffffff1660e01b8152600401610c509493929190614af7565b5f60405180830381865af4158015610c6a573d5f803e3d5ffd5b505050506040513d5f823e3d601f19601f82011682018060405250810190610c929190614939565b73__Logo__________________________________6327a46dd08760e001518861010001518960a001518a60c001516040518563ffffffff1660e01b8152600401610ce09493929190614bc6565b5f60405180830381865af4158015610cfa573d5f803e3d5ffd5b505050506040513d5f823e3d601f19601f82011682018060405250810190610d229190614939565b73__Head__________________________________639565513088602001516004811115610d5357610d52613d12565b5b60ff166004811115610d6857610d67613d12565b5b6040518263ffffffff1660e01b8152600401610d849190614c4f565b5f60405180830381865af4158015610d9e573d5f803e3d5ffd5b505050506040513d5f823e3d601f19601f82011682018060405250810190610dc69190614939565b73__Face__________________________________630cbd7e158961018001518a6101a00151610df6575f610df9565b60015b8b602001516040518463ffffffff1660e01b8152600401610e1c93929190614d3a565b5f60405180830381865af4158015610e36573d5f803e3d5ffd5b505050506040513d5f823e3d601f19601f82011682018060405250810190610e5e9190614939565b8773__Hands_________________________________63ffe6dec58b608001518c602001516004811115610e9557610e94613d12565b5b60ff166004811115610eaa57610ea9613d12565b5b8d60a001518e60c001516040518563ffffffff1660e01b8152600401610ed39493929190614d6f565b5f60405180830381865af4158015610eed573d5f803e3d5ffd5b505050506040513d5f823e3d601f19601f82011682018060405250810190610f159190614939565b8a6101a00151610f335760405180602001604052805f815250610f3c565b610f3b6139c3565b5b604051602001610f5499989796959493929190614db2565b604051602081830303815290604052905092915050565b6060805f6004811115610f8157610f80613d12565b5b836004811115610f9457610f93613d12565b5b03610fd6576040518060400160405280600581526020017f677265656e0000000000000000000000000000000000000000000000000000008152509050611181565b60016004811115610fea57610fe9613d12565b5b836004811115610ffd57610ffc613d12565b5b0361103f576040518060400160405280600481526020017f70696e6b000000000000000000000000000000000000000000000000000000008152509050611180565b6002600481111561105357611052613d12565b5b83600481111561106657611065613d12565b5b036110a8576040518060400160405280600681526020017f707572706c650000000000000000000000000000000000000000000000000000815250905061117f565b600360048111156110bc576110bb613d12565b5b8360048111156110cf576110ce613d12565b5b03611111576040518060400160405280600481526020017f626c756500000000000000000000000000000000000000000000000000000000815250905061117e565b60048081111561112457611123613d12565b5b83600481111561113757611136613d12565b5b03611179576040518060400160405280600481526020017f676f6c6400000000000000000000000000000000000000000000000000000000815250905061117d565b5f80fd5b5b5b5b5b806040516020016111929190614ec6565b604051602081830303815290604052915050919050565b6060805f60048111156111bf576111be613d12565b5b8360048111156111d2576111d1613d12565b5b03611214576040518060400160405280600681526020017f666f72657374000000000000000000000000000000000000000000000000000081525090506113bf565b6001600481111561122857611227613d12565b5b83600481111561123b5761123a613d12565b5b0361127d576040518060400160405280600581526020017f626c75736800000000000000000000000000000000000000000000000000000081525090506113be565b6002600481111561129157611290613d12565b5b8360048111156112a4576112a3613d12565b5b036112e6576040518060400160405280600581526020017f626572727900000000000000000000000000000000000000000000000000000081525090506113bd565b600360048111156112fa576112f9613d12565b5b83600481111561130d5761130c613d12565b5b0361134f576040518060400160405280600381526020017f696365000000000000000000000000000000000000000000000000000000000081525090506113bc565b60048081111561136257611361613d12565b5b83600481111561137557611374613d12565b5b036113b7576040518060400160405280600481526020017f676f6c640000000000000000000000000000000000000000000000000000000081525090506113bb565b5f80fd5b5b5b5b5b806040516020016113d09190614f1c565b604051602081830303815290604052915050919050565b6060805f60068111156113fd576113fc613d12565b5b8360068111156114105761140f613d12565b5b03611452576040518060400160405280600581526020017f677265656e00000000000000000000000000000000000000000000000000000081525090506116d1565b6004600681111561146657611465613d12565b5b83600681111561147957611478613d12565b5b036114bb576040518060400160405280600481526020017f6461726b0000000000000000000000000000000000000000000000000000000081525090506116d0565b600560068111156114cf576114ce613d12565b5b8360068111156114e2576114e1613d12565b5b03611524576040518060400160405280600581526020017f6c6967687400000000000000000000000000000000000000000000000000000081525090506116cf565b6002600681111561153857611537613d12565b5b83600681111561154b5761154a613d12565b5b0361158d576040518060400160405280600681526020017f707572706c65000000000000000000000000000000000000000000000000000081525090506116ce565b600360068111156115a1576115a0613d12565b5b8360068111156115b4576115b3613d12565b5b036115f6576040518060400160405280600481526020017f626c75650000000000000000000000000000000000000000000000000000000081525090506116cd565b6001600681111561160a57611609613d12565b5b83600681111561161d5761161c613d12565b5b0361165f576040518060400160405280600481526020017f70696e6b0000000000000000000000000000000000000000000000000000000081525090506116cc565b60068081111561167257611671613d12565b5b83600681111561168557611684613d12565b5b036116c7576040518060400160405280600481526020017f676f6c640000000000000000000000000000000000000000000000000000000081525090506116cb565b5f80fd5b5b5b5b5b5b5b806040516020016116e29190614f76565b604051602081830303815290604052915050919050565b6060805f600681111561170f5761170e613d12565b5b83600681111561172257611721613d12565b5b03611764576040518060400160405280600581526020017f677265656e00000000000000000000000000000000000000000000000000000081525090506119e3565b6004600681111561177857611777613d12565b5b83600681111561178b5761178a613d12565b5b036117cd576040518060400160405280600481526020017f6461726b0000000000000000000000000000000000000000000000000000000081525090506119e2565b600560068111156117e1576117e0613d12565b5b8360068111156117f4576117f3613d12565b5b03611836576040518060400160405280600581526020017f6c6967687400000000000000000000000000000000000000000000000000000081525090506119e1565b6002600681111561184a57611849613d12565b5b83600681111561185d5761185c613d12565b5b0361189f576040518060400160405280600681526020017f707572706c65000000000000000000000000000000000000000000000000000081525090506119e0565b600360068111156118b3576118b2613d12565b5b8360068111156118c6576118c5613d12565b5b03611908576040518060400160405280600481526020017f626c75650000000000000000000000000000000000000000000000000000000081525090506119df565b6001600681111561191c5761191b613d12565b5b83600681111561192f5761192e613d12565b5b03611971576040518060400160405280600481526020017f70696e6b0000000000000000000000000000000000000000000000000000000081525090506119de565b60068081111561198457611983613d12565b5b83600681111561199757611996613d12565b5b036119d9576040518060400160405280600481526020017f676f6c640000000000000000000000000000000000000000000000000000000081525090506119dd565b5f80fd5b5b5b5b5b5b5b806040516020016119f4919061501a565b604051602081830303815290604052915050919050565b6060805f6002811115611a2157611a20613d12565b5b836002811115611a3457611a33613d12565b5b03611a76576040518060400160405280600881526020017f6368696c6c696e670000000000000000000000000000000000000000000000008152509050611b4d565b60016002811115611a8a57611a89613d12565b5b836002811115611a9d57611a9c613d12565b5b03611adf576040518060400160405280600c81526020017f646f75626c6520706561636500000000000000000000000000000000000000008152509050611b4c565b600280811115611af257611af1613d12565b5b836002811115611b0557611b04613d12565b5b03611b47576040518060400160405280600581526020017f70656163650000000000000000000000000000000000000000000000000000008152509050611b4b565b5f80fd5b5b5b80604051602001611b5e9190615070565b604051602081830303815290604052915050919050565b6060805f6004811115611b8b57611b8a613d12565b5b836004811115611b9e57611b9d613d12565b5b03611be0576040518060400160405280600681526020017f686f6f64696500000000000000000000000000000000000000000000000000008152509050611d8b565b60016004811115611bf457611bf3613d12565b5b836004811115611c0757611c06613d12565b5b03611c49576040518060400160405280600781526020017f76617273697479000000000000000000000000000000000000000000000000008152509050611d8a565b60026004811115611c5d57611c5c613d12565b5b836004811115611c7057611c6f613d12565b5b03611cb2576040518060400160405280600481526020017f74616e6b000000000000000000000000000000000000000000000000000000008152509050611d89565b60036004811115611cc657611cc5613d12565b5b836004811115611cd957611cd8613d12565b5b03611d1b576040518060400160405280600381526020017f74656500000000000000000000000000000000000000000000000000000000008152509050611d88565b600480811115611d2e57611d2d613d12565b5b836004811115611d4157611d40613d12565b5b03611d83576040518060400160405280600781526020017f73686962757961000000000000000000000000000000000000000000000000008152509050611d87565b5f80fd5b5b5b5b5b80604051602001611d9c9190615114565b604051602081830303815290604052915050919050565b6060805f6006811115611dc957611dc8613d12565b5b836006811115611ddc57611ddb613d12565b5b03611e1e576040518060400160405280600581526020017f677265656e000000000000000000000000000000000000000000000000000000815250905061209d565b60016006811115611e3257611e31613d12565b5b836006811115611e4557611e44613d12565b5b03611e87576040518060400160405280600581526020017f6c69676874000000000000000000000000000000000000000000000000000000815250905061209c565b60026006811115611e9b57611e9a613d12565b5b836006811115611eae57611ead613d12565b5b03611ef0576040518060400160405280600481526020017f6461726b00000000000000000000000000000000000000000000000000000000815250905061209b565b60036006811115611f0457611f03613d12565b5b836006811115611f1757611f16613d12565b5b03611f59576040518060400160405280600681526020017f707572706c650000000000000000000000000000000000000000000000000000815250905061209a565b60046006811115611f6d57611f6c613d12565b5b836006811115611f8057611f7f613d12565b5b03611fc2576040518060400160405280600481526020017f626c7565000000000000000000000000000000000000000000000000000000008152509050612099565b60056006811115611fd657611fd5613d12565b5b836006811115611fe957611fe8613d12565b5b0361202b576040518060400160405280600481526020017f70696e6b000000000000000000000000000000000000000000000000000000008152509050612098565b60068081111561203e5761203d613d12565b5b83600681111561205157612050613d12565b5b03612093576040518060400160405280600481526020017f676f6c64000000000000000000000000000000000000000000000000000000008152509050612097565b5f80fd5b5b5b5b5b5b5b806040516020016120ae91906151b4565b604051602081830303815290604052915050919050565b6060805f60128111156120db576120da613d12565b5b8360128111156120ee576120ed613d12565b5b03612130576040518060400160405280600a81526020017f627562626c652067756d0000000000000000000000000000000000000000000081525090506128a7565b6001601281111561214457612143613d12565b5b83601281111561215757612156613d12565b5b03612199576040518060400160405280600581526020017f73696c6c7900000000000000000000000000000000000000000000000000000081525090506128a6565b600260128111156121ad576121ac613d12565b5b8360128111156121c0576121bf613d12565b5b03612202576040518060400160405280600581526020017f686170707900000000000000000000000000000000000000000000000000000081525090506128a5565b6003601281111561221657612215613d12565b5b83601281111561222957612228613d12565b5b0361226b576040518060400160405280600381526020017f6c6f6c000000000000000000000000000000000000000000000000000000000081525090506128a4565b6004601281111561227f5761227e613d12565b5b83601281111561229257612291613d12565b5b036122d4576040518060400160405280600781526020017f696e206c6f76650000000000000000000000000000000000000000000000000081525090506128a3565b600560128111156122e8576122e7613d12565b5b8360128111156122fb576122fa613d12565b5b0361233d576040518060400160405280600481526020017f6f6f70730000000000000000000000000000000000000000000000000000000081525090506128a2565b6006601281111561235157612350613d12565b5b83601281111561236457612363613d12565b5b036123a6576040518060400160405280600381526020017f7a7a7a000000000000000000000000000000000000000000000000000000000081525090506128a1565b600760128111156123ba576123b9613d12565b5b8360128111156123cd576123cc613d12565b5b0361240f576040518060400160405280600781526020017f6368656573696e0000000000000000000000000000000000000000000000000081525090506128a0565b6008601281111561242357612422613d12565b5b83601281111561243657612435613d12565b5b03612478576040518060400160405280600281526020017f4f47000000000000000000000000000000000000000000000000000000000000815250905061289f565b6009601281111561248c5761248b613d12565b5b83601281111561249f5761249e613d12565b5b036124e1576040518060400160405280600581526020017f736c69636b000000000000000000000000000000000000000000000000000000815250905061289e565b600a60128111156124f5576124f4613d12565b5b83601281111561250857612507613d12565b5b0361254a576040518060400160405280600781526020017f706c617966756c00000000000000000000000000000000000000000000000000815250905061289d565b600b601281111561255e5761255d613d12565b5b83601281111561257157612570613d12565b5b036125b3576040518060400160405280600481526020017f77696e6b00000000000000000000000000000000000000000000000000000000815250905061289c565b600c60128111156125c7576125c6613d12565b5b8360128111156125da576125d9613d12565b5b0361261c576040518060400160405280600781526020017f6578636974656400000000000000000000000000000000000000000000000000815250905061289b565b600d60128111156126305761262f613d12565b5b83601281111561264357612642613d12565b5b03612685576040518060400160405280600481526020017f6c75637900000000000000000000000000000000000000000000000000000000815250905061289a565b600e601281111561269957612698613d12565b5b8360128111156126ac576126ab613d12565b5b036126ee576040518060400160405280600481526020017f62616279000000000000000000000000000000000000000000000000000000008152509050612899565b600f601281111561270257612701613d12565b5b83601281111561271557612714613d12565b5b03612757576040518060400160405280600681526020017f6b617761696900000000000000000000000000000000000000000000000000008152509050612898565b6010601281111561276b5761276a613d12565b5b83601281111561277e5761277d613d12565b5b036127c0576040518060400160405280600581526020017f70697869650000000000000000000000000000000000000000000000000000008152509050612897565b601160128111156127d4576127d3613d12565b5b8360128111156127e7576127e6613d12565b5b03612829576040518060400160405280600781526020017f746f64646c6572000000000000000000000000000000000000000000000000008152509050612896565b60128081111561283c5761283b613d12565b5b83601281111561284f5761284e613d12565b5b03612891576040518060400160405280600481526020017f76616d70000000000000000000000000000000000000000000000000000000008152509050612895565b5f80fd5b5b5b5b5b5b5b5b5b5b5b5b5b5b5b5b5b5b5b806040516020016128b89190615230565b604051602081830303815290604052915050919050565b606080600160048111156128e6576128e5613d12565b5b8360048111156128f9576128f8613d12565b5b0361293b576040518060400160405280600581526020017f68617070790000000000000000000000000000000000000000000000000000008152509050612ae5565b6002600481111561294f5761294e613d12565b5b83600481111561296257612961613d12565b5b036129a4576040518060400160405280600581526020017f68656172740000000000000000000000000000000000000000000000000000008152509050612ae4565b600360048111156129b8576129b7613d12565b5b8360048111156129cb576129ca613d12565b5b03612a0d576040518060400160405280600481526020017f45647578000000000000000000000000000000000000000000000000000000008152509050612ae3565b600480811115612a2057612a1f613d12565b5b836004811115612a3357612a32613d12565b5b03612a75576040518060400160405280600581526020017f70656163650000000000000000000000000000000000000000000000000000008152509050612ae2565b5f6004811115612a8857612a87613d12565b5b836004811115612a9b57612a9a613d12565b5b03612add576040518060400160405280600481526020017f6e6f6e65000000000000000000000000000000000000000000000000000000008152509050612ae1565b5f80fd5b5b5b5b5b80604051602001612af691906152d4565b604051602081830303815290604052915050919050565b6060805f6006811115612b2357612b22613d12565b5b836006811115612b3657612b35613d12565b5b03612b78576040518060400160405280600581526020017f677265656e0000000000000000000000000000000000000000000000000000008152509050612dd0565b60016006811115612b8c57612b8b613d12565b5b836006811115612b9f57612b9e613d12565b5b03612be1576040518060400160405280600481526020017f70696e6b000000000000000000000000000000000000000000000000000000008152509050612dcf565b60026006811115612bf557612bf4613d12565b5b836006811115612c0857612c07613d12565b5b03612c4a576040518060400160405280600681526020017f707572706c6500000000000000000000000000000000000000000000000000008152509050612dce565b60036006811115612c5e57612c5d613d12565b5b836006811115612c7157612c70613d12565b5b03612cb3576040518060400160405280600481526020017f626c7565000000000000000000000000000000000000000000000000000000008152509050612dcd565b60046006811115612cc757612cc6613d12565b5b836006811115612cda57612cd9613d12565b5b03612d1c576040518060400160405280600581526020017f6c696768740000000000000000000000000000000000000000000000000000008152509050612dcc565b60056006811115612d3057612d2f613d12565b5b836006811115612d4357612d42613d12565b5b03612d85576040518060400160405280600481526020017f676f6c64000000000000000000000000000000000000000000000000000000008152509050612dcb565b600680811115612d9857612d97613d12565b5b836006811115612dab57612daa613d12565b5b03612dc75760405180602001604052805f815250915050612df4565b5f80fd5b5b5b5b5b5b80604051602001612de19190615374565b6040516020818303038152906040529150505b919050565b6060805f6015811115612e0f57612e0e613d12565b5b836015811115612e2257612e21613d12565b5b03612e64576040518060400160405280600481526020017f6e6f6e65000000000000000000000000000000000000000000000000000000008152509050613719565b60016015811115612e7857612e77613d12565b5b836015811115612e8b57612e8a613d12565b5b03612ecd576040518060400160405280600481526020017f62727272000000000000000000000000000000000000000000000000000000008152509050613718565b60026015811115612ee157612ee0613d12565b5b836015811115612ef457612ef3613d12565b5b03612f36576040518060400160405280600381526020017f63617000000000000000000000000000000000000000000000000000000000008152509050613717565b60036015811115612f4a57612f49613d12565b5b836015811115612f5d57612f5c613d12565b5b03612f9f576040518060400160405280600481526020017f6c696c79000000000000000000000000000000000000000000000000000000008152509050613716565b60046015811115612fb357612fb2613d12565b5b836015811115612fc657612fc5613d12565b5b03613008576040518060400160405280600781526020017f737061726b6c65000000000000000000000000000000000000000000000000008152509050613715565b6005601581111561301c5761301b613d12565b5b83601581111561302f5761302e613d12565b5b03613071576040518060400160405280600481526020017f6b696e67000000000000000000000000000000000000000000000000000000008152509050613714565b6006601581111561308557613084613d12565b5b83601581111561309857613097613d12565b5b036130da576040518060400160405280600581526020017f717565656e0000000000000000000000000000000000000000000000000000008152509050613713565b600760158111156130ee576130ed613d12565b5b83601581111561310157613100613d12565b5b03613143576040518060400160405280600581526020017f73686164790000000000000000000000000000000000000000000000000000008152509050613712565b6008601581111561315757613156613d12565b5b83601581111561316a57613169613d12565b5b036131ac576040518060400160405280600681526020017f6d757368696500000000000000000000000000000000000000000000000000008152509050613711565b600960158111156131c0576131bf613d12565b5b8360158111156131d3576131d2613d12565b5b03613215576040518060400160405280600281526020017f676e0000000000000000000000000000000000000000000000000000000000008152509050613710565b600a601581111561322957613228613d12565b5b83601581111561323c5761323b613d12565b5b0361327e576040518060400160405280600881526020017f6269727468646179000000000000000000000000000000000000000000000000815250905061370f565b60158081111561329157613290613d12565b5b8360158111156132a4576132a3613d12565b5b036132e6576040518060400160405280600581526020017f7377656574000000000000000000000000000000000000000000000000000000815250905061370e565b600b60158111156132fa576132f9613d12565b5b83601581111561330d5761330c613d12565b5b0361334f576040518060400160405280600481526020017f6265617200000000000000000000000000000000000000000000000000000000815250905061370d565b600c601581111561336357613362613d12565b5b83601581111561337657613375613d12565b5b036133b8576040518060400160405280600381526020017f6265650000000000000000000000000000000000000000000000000000000000815250905061370c565b600d60158111156133cc576133cb613d12565b5b8360158111156133df576133de613d12565b5b03613421576040518060400160405280600681526020017f6269726469650000000000000000000000000000000000000000000000000000815250905061370b565b600e601581111561343557613434613d12565b5b83601581111561344857613447613d12565b5b0361348a576040518060400160405280600681526020017f627261696e730000000000000000000000000000000000000000000000000000815250905061370a565b600f601581111561349e5761349d613d12565b5b8360158111156134b1576134b0613d12565b5b036134f3576040518060400160405280600481526020017f62756c6c000000000000000000000000000000000000000000000000000000008152509050613709565b6010601581111561350757613506613d12565b5b83601581111561351a57613519613d12565b5b0361355c576040518060400160405280600881526020017f65617272696e67730000000000000000000000000000000000000000000000008152509050613708565b601160158111156135705761356f613d12565b5b83601581111561358357613582613d12565b5b036135c5576040518060400160405280600581526020017f6c6f7475730000000000000000000000000000000000000000000000000000008152509050613707565b601260158111156135d9576135d8613d12565b5b8360158111156135ec576135eb613d12565b5b0361362e576040518060400160405280600b81526020017f6d616a6f72206c656e6e790000000000000000000000000000000000000000008152509050613706565b6013601581111561364257613641613d12565b5b83601581111561365557613654613d12565b5b03613697576040518060400160405280600581526020017f73636f75740000000000000000000000000000000000000000000000000000008152509050613705565b601460158111156136ab576136aa613d12565b5b8360158111156136be576136bd613d12565b5b03613700576040518060400160405280600681526020017f7368616d616e00000000000000000000000000000000000000000000000000008152509050613704565b5f80fd5b5b5b5b5b5b5b5b5b5b5b5b5b5b5b5b5b5b5b5b5b5b8060405160200161372a9190615414565b604051602081830303815290604052915050919050565b6060805f600581111561375757613756613d12565b5b83600581111561376a57613769613d12565b5b036137865760405180602001604052805f8152509150506139be565b6001600581111561379a57613799613d12565b5b8360058111156137ad576137ac613d12565b5b036137ef576040518060400160405280600581526020017f677265656e000000000000000000000000000000000000000000000000000000815250905061399a565b6002600581111561380357613802613d12565b5b83600581111561381657613815613d12565b5b03613858576040518060400160405280600681526020017f707572706c6500000000000000000000000000000000000000000000000000008152509050613999565b6003600581111561386c5761386b613d12565b5b83600581111561387f5761387e613d12565b5b036138c1576040518060400160405280600481526020017f626c7565000000000000000000000000000000000000000000000000000000008152509050613998565b600460058111156138d5576138d4613d12565b5b8360058111156138e8576138e7613d12565b5b0361392a576040518060400160405280600481526020017f70696e6b000000000000000000000000000000000000000000000000000000008152509050613997565b60058081111561393d5761393c613d12565b5b8360058111156139505761394f613d12565b5b03613992576040518060400160405280600481526020017f676f6c64000000000000000000000000000000000000000000000000000000008152509050613996565b5f80fd5b5b5b5b5b806040516020016139ab91906154b4565b6040516020818303038152906040529150505b919050565b6060604051806102a0016040528061026681526020016154e56102669139905090565b604051806101c001604052805f6004811115613a0557613a04613d12565b5b81526020015f6004811115613a1d57613a1c613d12565b5b81526020015f6006811115613a3557613a34613d12565b5b81526020015f6006811115613a4d57613a4c613d12565b5b81526020015f6002811115613a6557613a64613d12565b5b81526020015f6004811115613a7d57613a7c613d12565b5b81526020015f6006811115613a9557613a94613d12565b5b81526020015f6004811115613aad57613aac613d12565b5b81526020015f6006811115613ac557613ac4613d12565b5b81526020015f6004811115613add57613adc613d12565b5b81526020015f6015811115613af557613af4613d12565b5b81526020015f6005811115613b0d57613b0c613d12565b5b81526020015f6012811115613b2557613b24613d12565b5b81526020015f151581525090565b5f604051905090565b5f80fd5b5f80fd5b5f819050919050565b613b5681613b44565b8114613b60575f80fd5b50565b5f81359050613b7181613b4d565b92915050565b5f819050919050565b613b8981613b77565b8114613b93575f80fd5b50565b5f81359050613ba481613b80565b92915050565b5f8060408385031215613bc057613bbf613b3c565b5b5f613bcd85828601613b63565b9250506020613bde85828601613b96565b9150509250929050565b5f81519050919050565b5f82825260208201905092915050565b5f5b83811015613c1f578082015181840152602081019050613c04565b5f8484015250505050565b5f601f19601f8301169050919050565b5f613c4482613be8565b613c4e8185613bf2565b9350613c5e818560208601613c02565b613c6781613c2a565b840191505092915050565b5f6040820190508181035f830152613c8a8185613c3a565b90508181036020830152613c9e8184613c3a565b90509392505050565b5f819050919050565b613cc1613cbc82613b44565b613ca7565b82525050565b5f819050919050565b613ce1613cdc82613b77565b613cc7565b82525050565b5f613cf28285613cb0565b602082019150613d028284613cd0565b6020820191508190509392505050565b7f4e487b71000000000000000000000000000000000000000000000000000000005f52602160045260245ffd5b5f60ff82169050919050565b7f4e487b71000000000000000000000000000000000000000000000000000000005f52601260045260245ffd5b5f613d8282613d3f565b9150613d8d83613d3f565b925082613d9d57613d9c613d4b565b5b828206905092915050565b7f4e487b71000000000000000000000000000000000000000000000000000000005f52601160045260245ffd5b5f613ddf82613d3f565b9150613dea83613d3f565b9250828201905060ff811115613e0357613e02613da8565b5b92915050565b613e1281613b44565b82525050565b5f8115159050919050565b613e2c81613e18565b82525050565b5f604082019050613e455f830185613e09565b613e526020830184613e23565b9392505050565b5f80fd5b5f80fd5b7f4e487b71000000000000000000000000000000000000000000000000000000005f52604160045260245ffd5b613e9782613c2a565b810181811067ffffffffffffffff82111715613eb657613eb5613e61565b5b80604052505050565b5f613ec8613b33565b9050613ed48282613e8e565b919050565b5f67ffffffffffffffff821115613ef357613ef2613e61565b5b613efc82613c2a565b9050602081019050919050565b5f613f1b613f1684613ed9565b613ebf565b905082815260208101848484011115613f3757613f36613e5d565b5b613f42848285613c02565b509392505050565b5f82601f830112613f5e57613f5d613e59565b5b8151613f6e848260208601613f09565b91505092915050565b60168110613f83575f80fd5b50565b5f81519050613f9481613f77565b92915050565b60068110613fa6575f80fd5b50565b5f81519050613fb781613f9a565b92915050565b5f805f60608486031215613fd457613fd3613b3c565b5b5f84015167ffffffffffffffff811115613ff157613ff0613b40565b5b613ffd86828701613f4a565b935050602061400e86828701613f86565b925050604061401f86828701613fa9565b9150509250925092565b5f81905092915050565b7f3c73766720786d6c6e733d22687474703a2f2f7777772e77332e6f72672f32305f8201527f30302f737667222077696474683d2232373522206865696768743d223237352260208201527f2066696c6c3d226e6f6e65223e3c673e00000000000000000000000000000000604082015250565b5f6140b3605083614029565b91506140be82614033565b605082019050919050565b7f3c706174682066696c6c3d2275726c2800000000000000000000000000000000815250565b5f6140f982613be8565b6141038185614029565b9350614113818560208601613c02565b80840191505092915050565b7f292220643d224d302030683237357634313548307a222f3e3c2f673e00000000815250565b7f3c73766720786d6c6e733d22687474703a2f2f7777772e77332e6f72672f32305f8201527f30302f737667222077696474683d2232353022206865696768743d223333352260208201527f2066696c6c3d226e6f6e65222069643d22636f6e7461696e65722220783d223360408201527f32222076696577426f783d22302030203236302034313522203e000000000000606082015250565b5f6141eb607a83614029565b91506141f682614145565b607a82019050919050565b7f3c2f7376673e3c646566733e3c72616469616c4772616469656e742069643d225f8201527f677265656e222063783d2230222063793d22302220723d22312220677261646960208201527f656e745472616e73666f726d3d226d617472697828323735202d32373520333660408201527f32203336322030203237352922206772616469656e74556e6974733d2275736560608201527f7253706163654f6e557365223e3c73746f702073746f702d636f6c6f723d222360808201527f444646464246222f3e3c73746f70206f66667365743d2231222073746f702d6360a08201527f6f6c6f723d2223454644222f3e3c2f72616469616c4772616469656e743e3c7260c08201527f616469616c4772616469656e742069643d2270696e6b222063783d223022206360e08201527f793d22302220723d223122206772616469656e745472616e73666f726d3d226d6101008201527f617472697828323735202d3237352033363220333632203020323735292220676101208201527f72616469656e74556e6974733d227573657253706163654f6e557365223e3c736101408201527f746f702073746f702d636f6c6f723d2223464645374630222f3e3c73746f70206101608201527f6f66667365743d2231222073746f702d636f6c6f723d2223464646334638222f6101808201527f3e3c2f72616469616c4772616469656e743e3c72616469616c4772616469656e6101a08201527f742069643d22707572706c65222063783d2230222063793d22302220723d22316101c08201527f22206772616469656e745472616e73666f726d3d226d617472697828323735206101e08201527f2d32373520333632203336322030203237352922206772616469656e74556e696102008201527f74733d227573657253706163654f6e557365223e3c73746f702073746f702d636102208201527f6f6c6f723d2223463145344646222f3e3c73746f70206f66667365743d2231226102408201527f2073746f702d636f6c6f723d2223463846314646222f3e3c2f72616469616c476102608201527f72616469656e743e3c72616469616c4772616469656e742069643d22626c75656102808201527f222063783d2230222063793d22302220723d223122206772616469656e7454726102a08201527f616e73666f726d3d226d617472697828323735202d32373520333632203336326102c08201527f2030203237352922206772616469656e74556e6974733d2275736572537061636102e08201527f654f6e557365223e3c73746f702073746f702d636f6c6f723d222345364541466103008201527f46222f3e3c73746f70206f66667365743d2231222073746f702d636f6c6f723d6103208201527f2223454646324646222f3e3c2f72616469616c4772616469656e743e3c7261646103408201527f69616c4772616469656e742069643d2279656c6c6f77222063783d22302220636103608201527f793d22302220723d223122206772616469656e745472616e73666f726d3d226d6103808201527f617472697828323735202d3237352033363220333632203020323735292220676103a08201527f72616469656e74556e6974733d227573657253706163654f6e557365223e3c736103c08201527f746f702073746f702d636f6c6f723d2223464645374135222f3e3c73746f70206103e08201527f6f66667365743d2231222073746f702d636f6c6f723d2223464646324345222f6104008201527f3e3c2f72616469616c4772616469656e743e3c2f646566733e3c2f7376673e0061042082015250565b5f61473661043f83614029565b915061474182614201565b61043f82019050919050565b5f614757826140a7565b9150614762826140c9565b60108201915061477282856140ef565b915061477d8261411f565b601c8201915061478c826141df565b915061479882846140ef565b91506147a382614729565b91508190509392505050565b5f6147ba828a6140ef565b91506147c682896140ef565b91506147d282886140ef565b91506147de82876140ef565b91506147ea82866140ef565b91506147f682856140ef565b915061480282846140ef565b915081905098975050505050505050565b5f61481e82896140ef565b915061482a82886140ef565b915061483682876140ef565b915061484282866140ef565b915061484e82856140ef565b915061485a82846140ef565b9150819050979650505050505050565b5f61487482613d3f565b915061487f83613d3f565b9250828203905060ff81111561489857614897613da8565b5b92915050565b5f6148a882613d3f565b91506148b383613d3f565b92508282026148c181613d3f565b91508082146148d3576148d2613da8565b5b5092915050565b600781106148eb576148ea613d12565b5b50565b5f8190506148fb826148da565b919050565b5f61490a826148ee565b9050919050565b61491a81614900565b82525050565b5f6020820190506149335f830184614911565b92915050565b5f6020828403121561494e5761494d613b3c565b5b5f82015167ffffffffffffffff81111561496b5761496a613b40565b5b61497784828501613f4a565b91505092915050565b6007811061499157614990613d12565b5b50565b5f8190506149a182614980565b919050565b5f6149b082614994565b9050919050565b6149c0816149a6565b82525050565b5f6020820190506149d95f8301846149b7565b92915050565b600581106149f0576149ef613d12565b5b50565b5f819050614a00826149df565b919050565b5f614a0f826149f3565b9050919050565b614a1f81614a05565b82525050565b60078110614a3657614a35613d12565b5b50565b5f819050614a4682614a25565b919050565b5f614a5582614a39565b9050919050565b614a6581614a4b565b82525050565b60038110614a7c57614a7b613d12565b5b50565b5f819050614a8c82614a6b565b919050565b5f614a9b82614a7f565b9050919050565b614aab81614a91565b82525050565b60058110614ac257614ac1613d12565b5b50565b5f819050614ad282614ab1565b919050565b5f614ae182614ac5565b9050919050565b614af181614ad7565b82525050565b5f608082019050614b0a5f830187614a16565b614b176020830186614a5c565b614b246040830185614aa2565b614b316060830184614ae8565b95945050505050565b60058110614b4b57614b4a613d12565b5b50565b5f819050614b5b82614b3a565b919050565b5f614b6a82614b4e565b9050919050565b614b7a81614b60565b82525050565b60078110614b9157614b90613d12565b5b50565b5f819050614ba182614b80565b919050565b5f614bb082614b94565b9050919050565b614bc081614ba6565b82525050565b5f608082019050614bd95f830187614b71565b614be66020830186614bb7565b614bf36040830185614a16565b614c006060830184614a5c565b95945050505050565b60058110614c1a57614c19613d12565b5b50565b5f819050614c2a82614c09565b919050565b5f614c3982614c1d565b9050919050565b614c4981614c2f565b82525050565b5f602082019050614c625f830184614c40565b92915050565b60138110614c7957614c78613d12565b5b50565b5f819050614c8982614c68565b919050565b5f614c9882614c7c565b9050919050565b614ca881614c8e565b82525050565b60028110614cbf57614cbe613d12565b5b50565b5f819050614ccf82614cae565b919050565b5f614cde82614cc2565b9050919050565b614cee81614cd4565b82525050565b60058110614d0557614d04613d12565b5b50565b5f819050614d1582614cf4565b919050565b5f614d2482614d08565b9050919050565b614d3481614d1a565b82525050565b5f606082019050614d4d5f830186614c9f565b614d5a6020830185614ce5565b614d676040830184614d2b565b949350505050565b5f608082019050614d825f830187614aa2565b614d8f6020830186614ae8565b614d9c6040830185614a16565b614da96060830184614a5c565b95945050505050565b5f614dbd828c6140ef565b9150614dc9828b6140ef565b9150614dd5828a6140ef565b9150614de182896140ef565b9150614ded82886140ef565b9150614df982876140ef565b9150614e0582866140ef565b9150614e1182856140ef565b9150614e1d82846140ef565b91508190509a9950505050505050505050565b7f7b2274726169745f74797065223a224261636b67726f756e64222c2276616c755f8201527f65223a2200000000000000000000000000000000000000000000000000000000602082015250565b5f614e8a602483614029565b9150614e9582614e30565b602482019050919050565b7f227d2c0000000000000000000000000000000000000000000000000000000000815250565b5f614ed082614e7e565b9150614edc82846140ef565b9150614ee782614ea0565b60038201915081905092915050565b7f7b2274726169745f74797065223a22436f6c6f72222c2276616c7565223a2200815250565b5f614f2682614ef6565b601f82019150614f3682846140ef565b9150614f4182614ea0565b60038201915081905092915050565b7f7b2274726169745f74797065223a2250616e7473222c2276616c7565223a2200815250565b5f614f8082614f50565b601f82019150614f9082846140ef565b9150614f9b82614ea0565b60038201915081905092915050565b7f7b2274726169745f74797065223a22536e65616b657273222c2276616c7565225f8201527f3a22000000000000000000000000000000000000000000000000000000000000602082015250565b5f615004602283614029565b915061500f82614faa565b602282019050919050565b5f61502482614ff8565b915061503082846140ef565b915061503b82614ea0565b60038201915081905092915050565b7f7b2274726169745f74797065223a2248616e6473222c2276616c7565223a2200815250565b5f61507a8261504a565b601f8201915061508a82846140ef565b915061509582614ea0565b60038201915081905092915050565b7f7b2274726169745f74797065223a22436c6f7468696e67222c2276616c7565225f8201527f3a22000000000000000000000000000000000000000000000000000000000000602082015250565b5f6150fe602283614029565b9150615109826150a4565b602282019050919050565b5f61511e826150f2565b915061512a82846140ef565b915061513582614ea0565b60038201915081905092915050565b7f7b2274726169745f74797065223a22436c6f7468696e6720436f6c6f72222c225f8201527f76616c7565223a22000000000000000000000000000000000000000000000000602082015250565b5f61519e602883614029565b91506151a982615144565b602882019050919050565b5f6151be82615192565b91506151ca82846140ef565b91506151d582614ea0565b60038201915081905092915050565b7f7b2274726169745f74797065223a224d6f6f64222c2276616c7565223a220000815250565b7f227d000000000000000000000000000000000000000000000000000000000000815250565b5f61523a826151e4565b601e8201915061524a82846140ef565b91506152558261520a565b60028201915081905092915050565b7f2c7b2274726169745f74797065223a22436c6f7468696e67204c6f676f222c225f8201527f76616c7565223a22000000000000000000000000000000000000000000000000602082015250565b5f6152be602883614029565b91506152c982615264565b602882019050919050565b5f6152de826152b2565b91506152ea82846140ef565b91506152f58261520a565b60028201915081905092915050565b7f2c7b2274726169745f74797065223a22436c6f7468696e67204c6f676f20436f5f8201527f6c6f72222c2276616c7565223a22000000000000000000000000000000000000602082015250565b5f61535e602e83614029565b915061536982615304565b602e82019050919050565b5f61537e82615352565b915061538a82846140ef565b91506153958261520a565b60028201915081905092915050565b7f2c7b2274726169745f74797065223a224865616477656172222c2276616c75655f8201527f223a220000000000000000000000000000000000000000000000000000000000602082015250565b5f6153fe602383614029565b9150615409826153a4565b602382019050919050565b5f61541e826153f2565b915061542a82846140ef565b91506154358261520a565b60028201915081905092915050565b7f2c7b2274726169745f74797065223a22486561647765617220436f6c6f72222c5f8201527f2276616c7565223a220000000000000000000000000000000000000000000000602082015250565b5f61549e602983614029565b91506154a982615444565b602982019050919050565b5f6154be82615492565b91506154ca82846140ef565b91506154d58261520a565b6002820191508190509291505056fe3c73766720786d6c6e733d22687474703a2f2f7777772e77332e6f72672f323030302f737667222077696474683d2232313022206865696768743d22333335222066696c6c3d226e6f6e65223e3c706174682066696c6c3d222366666622207374726f6b653d222342393633323622207374726f6b652d6c696e656361703d2273717561726522207374726f6b652d6c696e656a6f696e3d22726f756e6422207374726f6b652d77696474683d22332e352220643d224d31332e33203839632e312d2e332e352d2e332e362030203220352e3520362031302031312e332031312e39762e316c2d2e352e32632d3520312e382d382e3920362d31302e362031312e33762e31632d2e312e322d2e352e322d2e35203076306131392031392030203020302d31312e342d31322e3176302d2e32682e3363352d312e3820392d362031302e382d31312e3476305a222f3e3c706174682066696c6c3d222366666622207374726f6b653d222342393633323622207374726f6b652d6c696e656361703d2273717561726522207374726f6b652d6c696e656a6f696e3d22726f756e6422207374726f6b652d77696474683d22332220643d224d31392e36203132302e3563302d2e322e332d2e322e342030613132203132203020302030203720372e357630632e312030202e312e312030202e316c2d2e332e316131312e312031312e312030203020302d362e3720372e3268306330202e322d2e322e322d2e33203076306131322e312031322e312030203020302d372e312d372e3676302d2e316c2e312d2e3161313120313120302030203020362e392d372e3176305a222f3e3c2f7376673ea2646970667358221220650f01803162903479e47c9a0799dff5d2698c9a2a9c687544c5532b43b9f3fa64736f6c63430008140033",
  "immutableReferences": {},
  "source": "// SPDX-License-Identifier: MIT\npragma solidity ^0.8.0;\n\nimport {Background, Skin, GoldSparkles, Helpers} from './Helpers.sol';\nimport {Headwear} from './Headwear.sol';\nimport {Face} from './Face.sol';\nimport {Head} from './Head.sol';\nimport {Legs} from './Legs.sol';\nimport {Shoes} from './Shoes.sol';\nimport {Body} from './Body.sol';\nimport {Hands} from './Hands.sol';\nimport {Logo} from './Logo.sol';\n\nlibrary ProfileSVG {\n    struct ChosenElements {\n        Background.BackgroundColors backgroundColor;\n        Skin.SkinColors skinColor;\n        Legs.LegColors legColor;\n        Shoes.ShoeColors shoeColor;\n        Hands.HandsVariants handsVariant;\n        Body.BodyVariants bodyVariant;\n        Body.BodyColors bodyColor;\n        Logo.LogoVariants logoVariant;\n        Logo.LogoColors logoColor;\n        Head.HeadColors headColor;\n        Headwear.HeadwearVariants headwearVariant;\n        Headwear.HeadwearColors headwearColor;\n        Face.FaceVariants faceVariant;\n        bool isGold;\n    }\n\n    function getProfileSVG(uint256 profileId, bytes32 blockSeed) public pure returns (string memory, string memory) {\n        uint256 seed = uint256(keccak256(abi.encodePacked(profileId, blockSeed)));\n        bool isGold = profileId <= 1000;\n        (ChosenElements memory chosenElements, string memory headwearSvg) = _chooseElements(seed, isGold);\n\n        return (_getSVG(chosenElements, headwearSvg), _getTraits(chosenElements));\n    }\n\n    function _getSVG(\n        ChosenElements memory chosenElements,\n        string memory headwearSvg\n    ) internal pure returns (string memory) {\n        return\n            string.concat(\n                '<svg xmlns=\"http://www.w3.org/2000/svg\" width=\"275\" height=\"275\" fill=\"none\"><g>',\n                '<path fill=\"url(',\n                Background.getBackgroundColor(chosenElements.backgroundColor),\n                ')\" d=\"M0 0h275v415H0z\"/></g>',\n                '<svg xmlns=\"http://www.w3.org/2000/svg\" width=\"250\" height=\"335\" fill=\"none\" id=\"container\" x=\"32\" viewBox=\"0 0 260 415\" >',\n                _generateSvgElements(chosenElements, headwearSvg),\n                '</svg><defs><radialGradient id=\"green\" cx=\"0\" cy=\"0\" r=\"1\" gradientTransform=\"matrix(275 -275 362 362 0 275)\" gradientUnits=\"userSpaceOnUse\"><stop stop-color=\"#DFFFBF\"/><stop offset=\"1\" stop-color=\"#EFD\"/></radialGradient><radialGradient id=\"pink\" cx=\"0\" cy=\"0\" r=\"1\" gradientTransform=\"matrix(275 -275 362 362 0 275)\" gradientUnits=\"userSpaceOnUse\"><stop stop-color=\"#FFE7F0\"/><stop offset=\"1\" stop-color=\"#FFF3F8\"/></radialGradient><radialGradient id=\"purple\" cx=\"0\" cy=\"0\" r=\"1\" gradientTransform=\"matrix(275 -275 362 362 0 275)\" gradientUnits=\"userSpaceOnUse\"><stop stop-color=\"#F1E4FF\"/><stop offset=\"1\" stop-color=\"#F8F1FF\"/></radialGradient><radialGradient id=\"blue\" cx=\"0\" cy=\"0\" r=\"1\" gradientTransform=\"matrix(275 -275 362 362 0 275)\" gradientUnits=\"userSpaceOnUse\"><stop stop-color=\"#E6EAFF\"/><stop offset=\"1\" stop-color=\"#EFF2FF\"/></radialGradient><radialGradient id=\"yellow\" cx=\"0\" cy=\"0\" r=\"1\" gradientTransform=\"matrix(275 -275 362 362 0 275)\" gradientUnits=\"userSpaceOnUse\"><stop stop-color=\"#FFE7A5\"/><stop offset=\"1\" stop-color=\"#FFF2CE\"/></radialGradient></defs></svg>'\n            );\n    }\n\n    function _getTraits(ChosenElements memory chosenElements) internal pure returns (string memory) {\n        string memory traits;\n        {\n            traits = string.concat(\n                _getTrait(chosenElements.backgroundColor), // Background\n                _getTrait(chosenElements.skinColor), // Color\n                _getTrait(chosenElements.legColor), // Pants\n                _getTrait(chosenElements.shoeColor), // Sneakers\n                _getTrait(chosenElements.handsVariant), // Hands\n                _getTrait(chosenElements.bodyVariant), // Clothing\n                _getTrait(chosenElements.bodyColor) // Clothing Color\n            );\n        }\n        return\n            string.concat(\n                traits,\n                _getTrait(chosenElements.faceVariant), // Mood - Doesn't have an ending comma\n                _getTrait(chosenElements.logoVariant), // Clothing Logo - Has comma at the beginning\n                _getTrait(chosenElements.logoColor), // Clothing Logo Color - Has comma at the beginning\n                _getTrait(chosenElements.headwearVariant), // Headwear - Has comma at the beginning\n                _getTrait(chosenElements.headwearColor) // Headwear Color - Has comma at the beginning\n            );\n    }\n\n    function _getTrait(Background.BackgroundColors backgroundColor) internal pure returns (string memory) {\n        string memory stringBackgroundColor;\n        if (backgroundColor == Background.BackgroundColors.GREEN) {\n            stringBackgroundColor = 'green';\n        } else if (backgroundColor == Background.BackgroundColors.PINK) {\n            stringBackgroundColor = 'pink';\n        } else if (backgroundColor == Background.BackgroundColors.PURPLE) {\n            stringBackgroundColor = 'purple';\n        } else if (backgroundColor == Background.BackgroundColors.BLUE) {\n            stringBackgroundColor = 'blue';\n        } else if (backgroundColor == Background.BackgroundColors.GOLD) {\n            stringBackgroundColor = 'gold';\n        } else {\n            revert();\n        }\n        return string.concat('{\"trait_type\":\"Background\",\"value\":\"', stringBackgroundColor, '\"},');\n    }\n\n    function _getTrait(Skin.SkinColors skinColor) internal pure returns (string memory) {\n        string memory stringSkinColor;\n        if (skinColor == Skin.SkinColors.GREEN) {\n            stringSkinColor = 'forest';\n        } else if (skinColor == Skin.SkinColors.PINK) {\n            stringSkinColor = 'blush';\n        } else if (skinColor == Skin.SkinColors.PURPLE) {\n            stringSkinColor = 'berry';\n        } else if (skinColor == Skin.SkinColors.BLUE) {\n            stringSkinColor = 'ice';\n        } else if (skinColor == Skin.SkinColors.GOLD) {\n            stringSkinColor = 'gold';\n        } else {\n            revert();\n        }\n        return string.concat('{\"trait_type\":\"Color\",\"value\":\"', stringSkinColor, '\"},');\n    }\n\n    function _getTrait(Legs.LegColors legColor) internal pure returns (string memory) {\n        string memory stringLegColor;\n        if (legColor == Legs.LegColors.GREEN) {\n            stringLegColor = 'green';\n        } else if (legColor == Legs.LegColors.DARK) {\n            stringLegColor = 'dark';\n        } else if (legColor == Legs.LegColors.LIGHT) {\n            stringLegColor = 'light';\n        } else if (legColor == Legs.LegColors.PURPLE) {\n            stringLegColor = 'purple';\n        } else if (legColor == Legs.LegColors.BLUE) {\n            stringLegColor = 'blue';\n        } else if (legColor == Legs.LegColors.PINK) {\n            stringLegColor = 'pink';\n        } else if (legColor == Legs.LegColors.GOLD) {\n            stringLegColor = 'gold';\n        } else {\n            revert();\n        }\n        return string.concat('{\"trait_type\":\"Pants\",\"value\":\"', stringLegColor, '\"},');\n    }\n\n    function _getTrait(Shoes.ShoeColors shoeColor) internal pure returns (string memory) {\n        string memory stringShoeColor;\n        if (shoeColor == Shoes.ShoeColors.GREEN) {\n            stringShoeColor = 'green';\n        } else if (shoeColor == Shoes.ShoeColors.DARK) {\n            stringShoeColor = 'dark';\n        } else if (shoeColor == Shoes.ShoeColors.LIGHT) {\n            stringShoeColor = 'light';\n        } else if (shoeColor == Shoes.ShoeColors.PURPLE) {\n            stringShoeColor = 'purple';\n        } else if (shoeColor == Shoes.ShoeColors.BLUE) {\n            stringShoeColor = 'blue';\n        } else if (shoeColor == Shoes.ShoeColors.PINK) {\n            stringShoeColor = 'pink';\n        } else if (shoeColor == Shoes.ShoeColors.GOLD) {\n            stringShoeColor = 'gold';\n        } else {\n            revert();\n        }\n        return string.concat('{\"trait_type\":\"Sneakers\",\"value\":\"', stringShoeColor, '\"},');\n    }\n\n    function _getTrait(Hands.HandsVariants handsVariant) internal pure returns (string memory) {\n        string memory stringHandsVariant;\n        if (handsVariant == Hands.HandsVariants.HANDSDOWN) {\n            stringHandsVariant = 'chilling';\n        } else if (handsVariant == Hands.HandsVariants.PEACEDOUBLE) {\n            stringHandsVariant = 'double peace';\n        } else if (handsVariant == Hands.HandsVariants.PEACESINGLE) {\n            stringHandsVariant = 'peace';\n        } else {\n            revert();\n        }\n        return string.concat('{\"trait_type\":\"Hands\",\"value\":\"', stringHandsVariant, '\"},');\n    }\n\n    function _getTrait(Body.BodyVariants bodyVariant) internal pure returns (string memory) {\n        string memory stringBodyVariant;\n        if (bodyVariant == Body.BodyVariants.HOODIE) {\n            stringBodyVariant = 'hoodie';\n        } else if (bodyVariant == Body.BodyVariants.JACKET) {\n            stringBodyVariant = 'varsity';\n        } else if (bodyVariant == Body.BodyVariants.TANKTOP) {\n            stringBodyVariant = 'tank';\n        } else if (bodyVariant == Body.BodyVariants.TSHIRT) {\n            stringBodyVariant = 'tee';\n        } else if (bodyVariant == Body.BodyVariants.SHIBUYA) {\n            stringBodyVariant = 'shibuya';\n        } else {\n            revert();\n        }\n        return string.concat('{\"trait_type\":\"Clothing\",\"value\":\"', stringBodyVariant, '\"},');\n    }\n\n    function _getTrait(Body.BodyColors bodyColor) internal pure returns (string memory) {\n        string memory stringBodyColor;\n        if (bodyColor == Body.BodyColors.GREEN) {\n            stringBodyColor = 'green';\n        } else if (bodyColor == Body.BodyColors.LIGHT) {\n            stringBodyColor = 'light';\n        } else if (bodyColor == Body.BodyColors.DARK) {\n            stringBodyColor = 'dark';\n        } else if (bodyColor == Body.BodyColors.PURPLE) {\n            stringBodyColor = 'purple';\n        } else if (bodyColor == Body.BodyColors.BLUE) {\n            stringBodyColor = 'blue';\n        } else if (bodyColor == Body.BodyColors.PINK) {\n            stringBodyColor = 'pink';\n        } else if (bodyColor == Body.BodyColors.GOLD) {\n            stringBodyColor = 'gold';\n        } else {\n            revert();\n        }\n        return string.concat('{\"trait_type\":\"Clothing Color\",\"value\":\"', stringBodyColor, '\"},');\n    }\n\n    function _getTrait(Logo.LogoVariants logoVariant) internal pure returns (string memory) {\n        string memory stringLogoVariant;\n        if (logoVariant == Logo.LogoVariants.HAPPY) {\n            stringLogoVariant = 'happy';\n        } else if (logoVariant == Logo.LogoVariants.HEART) {\n            stringLogoVariant = 'heart';\n        } else if (logoVariant == Logo.LogoVariants.Edux) {\n            stringLogoVariant = 'Edux';\n        } else if (logoVariant == Logo.LogoVariants.PEACE) {\n            stringLogoVariant = 'peace';\n        } else if (logoVariant == Logo.LogoVariants.NONE) {\n            stringLogoVariant = 'none';\n        } else {\n            revert();\n        }\n        return string.concat(',{\"trait_type\":\"Clothing Logo\",\"value\":\"', stringLogoVariant, '\"}');\n    }\n\n    function _getTrait(Logo.LogoColors logoColor) internal pure returns (string memory) {\n        string memory stringLogoColor;\n        if (logoColor == Logo.LogoColors.GREEN) {\n            stringLogoColor = 'green';\n        } else if (logoColor == Logo.LogoColors.PINK) {\n            stringLogoColor = 'pink';\n        } else if (logoColor == Logo.LogoColors.PURPLE) {\n            stringLogoColor = 'purple';\n        } else if (logoColor == Logo.LogoColors.BLUE) {\n            stringLogoColor = 'blue';\n        } else if (logoColor == Logo.LogoColors.LIGHT) {\n            stringLogoColor = 'light';\n        } else if (logoColor == Logo.LogoColors.GOLD) {\n            stringLogoColor = 'gold';\n        } else if (logoColor == Logo.LogoColors.NONE) {\n            return '';\n        } else {\n            revert();\n        }\n        return string.concat(',{\"trait_type\":\"Clothing Logo Color\",\"value\":\"', stringLogoColor, '\"}');\n    }\n\n    function _getTrait(Face.FaceVariants faceVariant) internal pure returns (string memory) {\n        string memory stringFaceVariant;\n        if (faceVariant == Face.FaceVariants.BUBBLEGUM) {\n            stringFaceVariant = 'bubble gum';\n        } else if (faceVariant == Face.FaceVariants.GRIN_TONGUE) {\n            stringFaceVariant = 'silly';\n        } else if (faceVariant == Face.FaceVariants.GRIN) {\n            stringFaceVariant = 'happy';\n        } else if (faceVariant == Face.FaceVariants.LAUGH) {\n            stringFaceVariant = 'lol';\n        } else if (faceVariant == Face.FaceVariants.LOVE) {\n            stringFaceVariant = 'in love';\n        } else if (faceVariant == Face.FaceVariants.OOPS) {\n            stringFaceVariant = 'oops';\n        } else if (faceVariant == Face.FaceVariants.SLEEPY) {\n            stringFaceVariant = 'zzz';\n        } else if (faceVariant == Face.FaceVariants.SMILE_TEETH) {\n            stringFaceVariant = 'cheesin';\n        } else if (faceVariant == Face.FaceVariants.SMILE) {\n            stringFaceVariant = 'OG';\n        } else if (faceVariant == Face.FaceVariants.SMIRK) {\n            stringFaceVariant = 'slick';\n        } else if (faceVariant == Face.FaceVariants.TONGUE) {\n            stringFaceVariant = 'playful';\n        } else if (faceVariant == Face.FaceVariants.WINK) {\n            stringFaceVariant = 'wink';\n        } else if (faceVariant == Face.FaceVariants.WOW_TONGUE) {\n            stringFaceVariant = 'excited';\n        } else if (faceVariant == Face.FaceVariants.WOW) {\n            stringFaceVariant = 'lucy';\n        } else if (faceVariant == Face.FaceVariants.BABY) {\n            stringFaceVariant = 'baby';\n        } else if (faceVariant == Face.FaceVariants.KAWAII) {\n            stringFaceVariant = 'kawaii';\n        } else if (faceVariant == Face.FaceVariants.PIXIE) {\n            stringFaceVariant = 'pixie';\n        } else if (faceVariant == Face.FaceVariants.TODDLER) {\n            stringFaceVariant = 'toddler';\n        } else if (faceVariant == Face.FaceVariants.VAMP) {\n            stringFaceVariant = 'vamp';\n        } else {\n            revert();\n        }\n        return string.concat('{\"trait_type\":\"Mood\",\"value\":\"', stringFaceVariant, '\"}');\n    }\n\n    function _getTrait(Headwear.HeadwearVariants headwearVariant) internal pure returns (string memory) {\n        string memory stringHeadwearVariant;\n        if (headwearVariant == Headwear.HeadwearVariants.NONE) {\n            stringHeadwearVariant = 'none';\n        } else if (headwearVariant == Headwear.HeadwearVariants.BEANIE) {\n            stringHeadwearVariant = 'brrr';\n        } else if (headwearVariant == Headwear.HeadwearVariants.HAT) {\n            stringHeadwearVariant = 'cap';\n        } else if (headwearVariant == Headwear.HeadwearVariants.PLANTS) {\n            stringHeadwearVariant = 'lily';\n        } else if (headwearVariant == Headwear.HeadwearVariants.SPARKLES) {\n            stringHeadwearVariant = 'sparkle';\n        } else if (headwearVariant == Headwear.HeadwearVariants.CROWN) {\n            stringHeadwearVariant = 'king';\n        } else if (headwearVariant == Headwear.HeadwearVariants.FLORAL) {\n            stringHeadwearVariant = 'queen';\n        } else if (headwearVariant == Headwear.HeadwearVariants.GLASSES) {\n            stringHeadwearVariant = 'shady';\n        } else if (headwearVariant == Headwear.HeadwearVariants.MUSHROOM) {\n            stringHeadwearVariant = 'mushie';\n        } else if (headwearVariant == Headwear.HeadwearVariants.NIGHTCAP) {\n            stringHeadwearVariant = 'gn';\n        } else if (headwearVariant == Headwear.HeadwearVariants.PARTYHAT) {\n            stringHeadwearVariant = 'birthday';\n        } else if (headwearVariant == Headwear.HeadwearVariants.ICECREAM) {\n            stringHeadwearVariant = 'sweet';\n        } else if (headwearVariant == Headwear.HeadwearVariants.BEAR) {\n            stringHeadwearVariant = 'bear';\n        } else if (headwearVariant == Headwear.HeadwearVariants.BEE) {\n            stringHeadwearVariant = 'bee';\n        } else if (headwearVariant == Headwear.HeadwearVariants.BIRDIE) {\n            stringHeadwearVariant = 'birdie';\n        } else if (headwearVariant == Headwear.HeadwearVariants.BRAINS) {\n            stringHeadwearVariant = 'brains';\n        } else if (headwearVariant == Headwear.HeadwearVariants.BULL) {\n            stringHeadwearVariant = 'bull';\n        } else if (headwearVariant == Headwear.HeadwearVariants.EARRINGS) {\n            stringHeadwearVariant = 'earrings';\n        } else if (headwearVariant == Headwear.HeadwearVariants.LOTUS) {\n            stringHeadwearVariant = 'lotus';\n        } else if (headwearVariant == Headwear.HeadwearVariants.MAJOR) {\n            stringHeadwearVariant = 'major lenny';\n        } else if (headwearVariant == Headwear.HeadwearVariants.SCOUT) {\n            stringHeadwearVariant = 'scout';\n        } else if (headwearVariant == Headwear.HeadwearVariants.SHAMAN) {\n            stringHeadwearVariant = 'shaman';\n        } else {\n            revert();\n        }\n        return string.concat(',{\"trait_type\":\"Headwear\",\"value\":\"', stringHeadwearVariant, '\"}');\n    }\n\n    function _getTrait(Headwear.HeadwearColors headwearColor) internal pure returns (string memory) {\n        string memory stringHeadwearColor;\n        if (headwearColor == Headwear.HeadwearColors.NONE) {\n            return '';\n        } else if (headwearColor == Headwear.HeadwearColors.GREEN) {\n            stringHeadwearColor = 'green';\n        } else if (headwearColor == Headwear.HeadwearColors.PURPLE) {\n            stringHeadwearColor = 'purple';\n        } else if (headwearColor == Headwear.HeadwearColors.BLUE) {\n            stringHeadwearColor = 'blue';\n        } else if (headwearColor == Headwear.HeadwearColors.PINK) {\n            stringHeadwearColor = 'pink';\n        } else if (headwearColor == Headwear.HeadwearColors.GOLD) {\n            stringHeadwearColor = 'gold';\n        } else {\n            revert();\n        }\n        return string.concat(',{\"trait_type\":\"Headwear Color\",\"value\":\"', stringHeadwearColor, '\"}');\n    }\n\n    function _chooseElements(\n        uint256 seed,\n        bool isGold\n    ) internal pure returns (ChosenElements memory chosenElements, string memory headwearSvg) {\n        chosenElements.backgroundColor = isGold\n            ? Background.BackgroundColors.GOLD\n            : Background.BackgroundColors(\n                uint8(Helpers.getColor(seed, Helpers.ComponentBytes.BACKGROUND)) %\n                    uint8(type(Background.BackgroundColors).max)\n            );\n\n        chosenElements.skinColor = isGold\n            ? Skin.SkinColors.GOLD\n            : Skin.SkinColors(\n                uint8(Helpers.getColor(seed, Helpers.ComponentBytes.SKIN)) % uint8(type(Skin.SkinColors).max)\n            );\n\n        chosenElements.legColor = isGold\n            ? Legs.LegColors.GOLD\n            : Legs.LegColors(\n                uint8(Helpers.getColor(seed, Helpers.ComponentBytes.LEGS)) % uint8(type(Legs.LegColors).max)\n            );\n\n        chosenElements.shoeColor = isGold\n            ? Shoes.ShoeColors.GOLD\n            : Shoes.ShoeColors(\n                uint8(Helpers.getColor(seed, Helpers.ComponentBytes.SHOES)) % uint8(type(Shoes.ShoeColors).max)\n            );\n\n        chosenElements.handsVariant = Hands.HandsVariants(\n            uint8(Helpers.getVariant(seed, Helpers.ComponentBytes.HANDS)) % (uint8(type(Hands.HandsVariants).max) + 1)\n        );\n\n        chosenElements.bodyVariant = Body.BodyVariants(\n            uint8(Helpers.getVariant(seed, Helpers.ComponentBytes.BODY)) % (uint8(type(Body.BodyVariants).max) + 1)\n        );\n\n        chosenElements.bodyColor = isGold\n            ? Body.BodyColors.GOLD\n            : Body.BodyColors(\n                uint8(Helpers.getColor(seed, Helpers.ComponentBytes.BODY)) % uint8(type(Body.BodyColors).max)\n            );\n\n        chosenElements.logoVariant = chosenElements.bodyVariant == Body.BodyVariants.SHIBUYA\n            ? Logo.LogoVariants.NONE\n            : Logo.LogoVariants(\n                uint8(Helpers.getVariant(seed, Helpers.ComponentBytes.LOGO)) % (uint8(type(Logo.LogoVariants).max) + 1)\n            );\n\n        if (chosenElements.logoVariant == Logo.LogoVariants.NONE) {\n            chosenElements.logoColor = Logo.LogoColors.NONE;\n        } else {\n            chosenElements.logoColor = isGold\n                ? Logo.LogoColors.GOLD\n                : Logo.LogoColors(\n                    uint8(Helpers.getColor(seed, Helpers.ComponentBytes.LOGO)) % uint8(Logo.LogoColors.GOLD)\n                );\n        }\n\n        chosenElements.faceVariant = Face.FaceVariants(\n            uint8(Helpers.getVariant(seed, Helpers.ComponentBytes.FACE)) % (uint8(type(Face.FaceVariants).max) + 1)\n        );\n\n        chosenElements.isGold = isGold;\n\n        (headwearSvg, chosenElements.headwearVariant, chosenElements.headwearColor) = Headwear.getHeadwear(\n            seed,\n            isGold\n        );\n\n        return (chosenElements, headwearSvg);\n    }\n\n    function _generateSvgElements(\n        ChosenElements memory chosenElements,\n        string memory headwearSvg\n    ) internal pure returns (string memory) {\n        return\n            string.concat(\n                Legs.getLegs(chosenElements.legColor),\n                Shoes.getShoes(chosenElements.shoeColor),\n                Body.getBody(\n                    chosenElements.bodyVariant,\n                    chosenElements.bodyColor,\n                    chosenElements.handsVariant,\n                    Hands.HandsColors(uint8(chosenElements.skinColor))\n                ),\n                Logo.getLogo(\n                    chosenElements.logoVariant,\n                    chosenElements.logoColor,\n                    chosenElements.bodyVariant,\n                    chosenElements.bodyColor\n                ),\n                Head.getHead(Head.HeadColors(uint8(chosenElements.skinColor))),\n                Face.getFace(\n                    chosenElements.faceVariant,\n                    chosenElements.isGold ? Face.FaceColors.GOLD : Face.FaceColors.NORMAL,\n                    chosenElements.skinColor\n                ),\n                headwearSvg,\n                Hands.getHands(\n                    chosenElements.handsVariant,\n                    Hands.HandsColors(uint8(chosenElements.skinColor)),\n                    chosenElements.bodyVariant,\n                    chosenElements.bodyColor\n                ),\n                chosenElements.isGold ? GoldSparkles.getGoldSparkles() : ''\n            );\n    }\n}\n",
  "sourcePath": "E:\\Blockchain\\EDUIndex\\EduxContract\\contracts\\libraries\\svgs\\Profile\\ProfileSVG.sol",
  "compiler": {
    "name": "solc",
    "version": "0.8.20+commit.a1b79de6.Emscripten.clang"
  },
  "schemaVersion": "3.4.3",
  "updatedAt": "2024-08-25T13:13:22.097Z",
  "devdoc": {
    "kind": "dev",
    "methods": {},
    "version": 1
  },
  "userdoc": {
    "kind": "user",
    "methods": {},
    "version": 1
  }
}