{
  "contractName": "PublicationLib",
  "abi": [
    {
      "inputs": [],
      "name": "ArrayMismatch",
      "type": "error"
    },
    {
      "inputs": [],
      "name": "CertificateModuleIsNotProvided",
      "type": "error"
    },
    {
      "inputs": [],
      "name": "CollectModuleIsNotProvided",
      "type": "error"
    },
    {
      "inputs": [],
      "name": "CourseIsAlreayRatedByProfile",
      "type": "error"
    },
    {
      "inputs": [],
      "name": "CourseIsNotCollectedByProfile",
      "type": "error"
    },
    {
      "inputs": [],
      "name": "InvalidPointedPub",
      "type": "error"
    },
    {
      "inputs": [],
      "name": "LessonIsAlreadyCompletedByProfile",
      "type": "error"
    },
    {
      "inputs": [],
      "name": "NotProfileOwner",
      "type": "error"
    },
    {
      "inputs": [],
      "name": "TokenDoesNotExist",
      "type": "error"
    },
    {
      "anonymous": false,
      "inputs": [
        {
          "components": [
            {
              "internalType": "uint256",
              "name": "profileId",
              "type": "uint256"
            },
            {
              "internalType": "string",
              "name": "contentURI",
              "type": "string"
            },
            {
              "internalType": "address",
              "name": "certificateModule",
              "type": "address"
            },
            {
              "internalType": "address",
              "name": "collectModule",
              "type": "address"
            },
            {
              "internalType": "bytes",
              "name": "collectModulesInitData",
              "type": "bytes"
            }
          ],
          "indexed": false,
          "internalType": "struct Types.CourseParams",
          "name": "courseParams",
          "type": "tuple"
        },
        {
          "indexed": true,
          "internalType": "uint256",
          "name": "pubId",
          "type": "uint256"
        },
        {
          "indexed": false,
          "internalType": "bytes",
          "name": "collectModulesInitReturnData",
          "type": "bytes"
        },
        {
          "indexed": false,
          "internalType": "address",
          "name": "transactionExecutor",
          "type": "address"
        },
        {
          "indexed": false,
          "internalType": "uint256",
          "name": "timestamp",
          "type": "uint256"
        }
      ],
      "name": "CourseCreated",
      "type": "event"
    },
    {
      "anonymous": false,
      "inputs": [
        {
          "components": [
            {
              "internalType": "uint256",
              "name": "profileId",
              "type": "uint256"
            },
            {
              "internalType": "string",
              "name": "contentURI",
              "type": "string"
            },
            {
              "internalType": "uint256",
              "name": "pointedProfileId",
              "type": "uint256"
            },
            {
              "internalType": "uint256",
              "name": "pointedPubId",
              "type": "uint256"
            },
            {
              "internalType": "address[]",
              "name": "actionModules",
              "type": "address[]"
            },
            {
              "internalType": "bytes[]",
              "name": "actionModulesInitDatas",
              "type": "bytes[]"
            }
          ],
          "indexed": false,
          "internalType": "struct Types.LessonParams",
          "name": "lessonParams",
          "type": "tuple"
        },
        {
          "indexed": true,
          "internalType": "uint256",
          "name": "pubId",
          "type": "uint256"
        },
        {
          "indexed": false,
          "internalType": "bytes[]",
          "name": "actionModulesInitReturnDatas",
          "type": "bytes[]"
        },
        {
          "indexed": false,
          "internalType": "address",
          "name": "transactionExecutor",
          "type": "address"
        },
        {
          "indexed": false,
          "internalType": "uint256",
          "name": "timestamp",
          "type": "uint256"
        }
      ],
      "name": "LessonCreated",
      "type": "event"
    },
    {
      "anonymous": false,
      "inputs": [
        {
          "components": [
            {
              "internalType": "uint256",
              "name": "profileId",
              "type": "uint256"
            },
            {
              "internalType": "string",
              "name": "metadataURI",
              "type": "string"
            },
            {
              "internalType": "uint256",
              "name": "pointedProfileId",
              "type": "uint256"
            },
            {
              "internalType": "uint256",
              "name": "pointedPubId",
              "type": "uint256"
            }
          ],
          "indexed": false,
          "internalType": "struct Types.ProgressParams",
          "name": "progressParams",
          "type": "tuple"
        },
        {
          "indexed": true,
          "internalType": "uint256",
          "name": "pubId",
          "type": "uint256"
        },
        {
          "indexed": false,
          "internalType": "address",
          "name": "transactionExecutor",
          "type": "address"
        },
        {
          "indexed": false,
          "internalType": "uint256",
          "name": "timestamp",
          "type": "uint256"
        }
      ],
      "name": "ProgressCreated",
      "type": "event"
    },
    {
      "anonymous": false,
      "inputs": [
        {
          "components": [
            {
              "internalType": "uint256",
              "name": "profileId",
              "type": "uint256"
            },
            {
              "internalType": "string",
              "name": "contentURI",
              "type": "string"
            },
            {
              "internalType": "uint256",
              "name": "pointedProfileId",
              "type": "uint256"
            },
            {
              "internalType": "uint256",
              "name": "pointedPubId",
              "type": "uint256"
            }
          ],
          "indexed": false,
          "internalType": "struct Types.RatingParams",
          "name": "ratingParams",
          "type": "tuple"
        },
        {
          "indexed": true,
          "internalType": "uint256",
          "name": "pubId",
          "type": "uint256"
        },
        {
          "indexed": false,
          "internalType": "address",
          "name": "transactionExecutor",
          "type": "address"
        },
        {
          "indexed": false,
          "internalType": "uint256",
          "name": "timestamp",
          "type": "uint256"
        }
      ],
      "name": "RatingCreated",
      "type": "event"
    },
    {
      "inputs": [
        {
          "internalType": "uint256",
          "name": "profileId",
          "type": "uint256"
        },
        {
          "internalType": "uint256",
          "name": "pointedPubId",
          "type": "uint256"
        }
      ],
      "name": "isLessonCompleted",
      "outputs": [
        {
          "internalType": "bool",
          "name": "",
          "type": "bool"
        }
      ],
      "stateMutability": "view",
      "type": "function",
      "constant": true
    },
    {
      "inputs": [
        {
          "internalType": "uint256",
          "name": "profileId",
          "type": "uint256"
        },
        {
          "internalType": "uint256",
          "name": "pointedProfile",
          "type": "uint256"
        },
        {
          "internalType": "uint256",
          "name": "pointedPubId",
          "type": "uint256"
        }
      ],
      "name": "isCourseCompleted",
      "outputs": [
        {
          "internalType": "bool",
          "name": "",
          "type": "bool"
        }
      ],
      "stateMutability": "view",
      "type": "function",
      "constant": true
    },
    {
      "inputs": [
        {
          "internalType": "uint256",
          "name": "profileId",
          "type": "uint256"
        },
        {
          "internalType": "uint256",
          "name": "pubId",
          "type": "uint256"
        }
      ],
      "name": "getContentURI",
      "outputs": [
        {
          "internalType": "string",
          "name": "",
          "type": "string"
        }
      ],
      "stateMutability": "view",
      "type": "function",
      "constant": true
    }
  ],
  "bytecode": "0x61308c61004e600b8282823980515f1a607314610042577f4e487b71000000000000000000000000000000000000000000000000000000005f525f60045260245ffd5b305f52607381538281f3fe730000000000000000000000000000000000000000301460806040526004361061009c575f3560e01c806356748b521161006f57806356748b52146101845780637cc38c87146101c0578063b5a31496146101fc578063dfc38cdf1461022c578063e57901ad1461025c5761009c565b8063261398da146100a05780632d2d826c146100dc578063371f2cf6146101185780633fdbc3c714610154575b5f80fd5b8180156100ab575f80fd5b506100c660048036038101906100c1919061189b565b610298565b6040516100d3919061190d565b60405180910390f35b8180156100e7575f80fd5b5061010260048036038101906100fd9190611944565b6104fe565b60405161010f919061190d565b60405180910390f35b818015610123575f80fd5b5061013e600480360381019061013991906119bc565b6106e8565b60405161014b919061190d565b60405180910390f35b61016e60048036038101906101699190611a40565b610700565b60405161017b9190611aaa565b60405180910390f35b81801561018f575f80fd5b506101aa60048036038101906101a59190611b24565b6107b0565b6040516101b79190611c38565b60405180910390f35b8180156101cb575f80fd5b506101e660048036038101906101e19190611c58565b6108a8565b6040516101f3919061190d565b60405180910390f35b61021660048036038101906102119190611cbc565b61093b565b6040516102239190611d84565b60405180910390f35b61024660048036038101906102419190611cbc565b610a34565b6040516102539190611aaa565b60405180910390f35b818015610267575f80fd5b50610282600480360381019061027d9190611dc2565b610a6a565b60405161028f919061190d565b60405180910390f35b5f6102c78360600160208101906102af9190611e1c565b8460400160208101906102c29190611e1c565b610bcb565b5f6102d4845f0135610c99565b5f015f81546102e290611e74565b91905081905590505f6102f8855f013583610cad565b905084806020019061030a9190611ec7565b82600301918261031b92919061215a565b506001816004015f6101000a81548160ff0219169083600481111561034357610342612227565b5b021790555084604001602081019061035b9190611e1c565b816008015f6101000a81548173ffffffffffffffffffffffffffffffffffffffff021916908373ffffffffffffffffffffffffffffffffffffffff1602179055508460600160208101906103af9190611e1c565b816007015f6101000a81548173ffffffffffffffffffffffffffffffffffffffff021916908373ffffffffffffffffffffffffffffffffffffffff1602179055505f6104b26040518060a00160405280885f013581526020018773ffffffffffffffffffffffffffffffffffffffff16815260200185815260200188606001602081019061043d9190611e1c565b73ffffffffffffffffffffffffffffffffffffffff1681526020018880608001906104689190612254565b8080601f0160208091040260200160405190810160405280939291908181526020018383808284375f81840152601f19601f82011690508083019250505050505050815250610ccc565b9050827fe2b3a793de192a7627aa03ff1394ba6523028beae416026c0527fbb444e830c3878388426040516104ea949392919061256c565b60405180910390a282935050505092915050565b5f61051183604001358460600135610e08565b610522835f01358460400135610e78565b5f61052f845f0135610c99565b5f015f815461053d90611e74565b91905081905590505f610553855f013583610cad565b90508480602001906105659190611ec7565b82600301918261057692919061215a565b506002816004015f6101000a81548160ff0219169083600481111561059e5761059d612227565b5b02179055505f6105b686604001358760600135610cad565b9050806002015f81546105c890611e74565b91905081905581600201819055506105e98287604001358860600135610eb5565b505f61069b6040518060a00160405280895f013581526020018873ffffffffffffffffffffffffffffffffffffffff16815260200186815260200189806080019061063491906125bd565b808060200260200160405190810160405280939291908181526020018383602002808284375f81840152601f19601f820116905080830192505050505050508152602001898060a00190610688919061261f565b90610693919061281f565b815250610f5a565b9050837f42a645ccc8431997f8a2ca37c6aae1b471b64fd88a4e0481431990a293678b85888389426040516106d39493929190612bf9565b60405180910390a28394505050505092915050565b5f806106f48484611239565b90508091505092915050565b5f8061070b85610c99565b90505f6107188585610cad565b90506001600481111561072e5761072d612227565b5b816004015f9054906101000a900460ff16600481111561075157610750612227565b5b14610788576040517ffc30e3cb00000000000000000000000000000000000000000000000000000000815260040160405180910390fd5b8060020154826002015f8681526020019081526020015f206001015414925050509392505050565b60605f8484905067ffffffffffffffff8111156107d0576107cf611f33565b5b6040519080825280602002602001820160405280156107fe5781602001602082028036833780820191505090505b5090505f5b8585905081101561089c5761083f8487878481811061082557610824612c4a565b5b90506020028101906108379190612c77565b5f01356113f7565b5f61086e87878481811061085657610855612c4a565b5b90506020028101906108689190612c77565b86611239565b90508083838151811061088457610883612c4a565b5b60200260200101818152505081600101915050610803565b81925050509392505050565b5f6108b38484611468565b73ffffffffffffffffffffffffffffffffffffffff166370dc48fa868686866040518563ffffffff1660e01b81526004016108f19493929190612c9e565b6020604051808303815f875af115801561090d573d5f803e3d5ffd5b505050506040513d601f19601f820116820180604052508101906109319190612cf5565b9050949350505050565b60605f6109488484610cad565b90505f816004015f9054906101000a900460ff1690505f600481111561097157610970612227565b5b81600481111561098457610983612227565b5b03610996576109938585611511565b90505b6109a08585610cad565b60030180546109ae90611f8d565b80601f01602080910402602001604051908101604052809291908181526020018280546109da90611f8d565b8015610a255780601f106109fc57610100808354040283529160200191610a25565b820191905f5260205f20905b815481529060010190602001808311610a0857829003601f168201915b50505050509250505092915050565b5f80610a3f84610c99565b9050806003015f8481526020019081526020015f205f9054906101000a900460ff1691505092915050565b5f610a7d83604001358460600135610e08565b610a8e835f0135846060013561153e565b610a9f835f013584606001356115a7565b5f610aac845f0135610c99565b90505f815f015f8154610abe90611e74565b91905081905590505f610ad4865f013583610cad565b90508560400135815f018190555085606001358160010181905550858060200190610aff9190611ec7565b826003019182610b1092919061215a565b506003816004015f6101000a81548160ff02191690836004811115610b3857610b37612227565b5b0217905550610b508187604001358860600135610eb5565b506001836002015f886060013581526020019081526020015f205f0160016101000a81548160ff021916908315150217905550817f86f1f2abf34c8d32d5186cf9befe0ae8dd4dfb35b8598421a7add93418bda87b878742604051610bb793929190612da2565b60405180910390a281935050505092915050565b5f73ffffffffffffffffffffffffffffffffffffffff168273ffffffffffffffffffffffffffffffffffffffff1603610c30576040517f60f5fb3400000000000000000000000000000000000000000000000000000000815260040160405180910390fd5b5f73ffffffffffffffffffffffffffffffffffffffff168173ffffffffffffffffffffffffffffffffffffffff1603610c95576040517f55d083d500000000000000000000000000000000000000000000000000000000815260040160405180910390fd5b5050565b5f815f52600560205260405f209050919050565b5f825f52600660205260405f20602052815f5260405f20905092915050565b606080610cd7611612565b73ffffffffffffffffffffffffffffffffffffffff16638ad882948460600151600280811115610d0a57610d09612227565b5b6040518363ffffffff1660e01b8152600401610d27929190612dde565b6020604051808303815f875af1158015610d43573d5f803e3d5ffd5b505050506040513d601f19601f82011682018060405250810190610d679190612e2f565b50826060015173ffffffffffffffffffffffffffffffffffffffff1663e08cf4e5845f01518560400151866020015187608001516040518563ffffffff1660e01b8152600401610dba9493929190612e5a565b5f604051808303815f875af1158015610dd5573d5f803e3d5ffd5b505050506040513d5f823e3d601f19601f82011682018060405250810190610dfd9190612f12565b905080915050919050565b5f610e138383611511565b905060016004811115610e2957610e28612227565b5b816004811115610e3c57610e3b612227565b5b14610e73576040517ffc30e3cb00000000000000000000000000000000000000000000000000000000815260040160405180910390fd5b505050565b818114610eb1576040517ff194fae500000000000000000000000000000000000000000000000000000000815260040160405180910390fd5b5050565b5f80610ec18484610cad565b90505f816004015f9054906101000a900460ff16905060016004811115610eeb57610eea612227565b5b816004811115610efe57610efd612227565b5b1480610f2e575060026004811115610f1957610f18612227565b5b816004811115610f2c57610f2b612227565b5b145b15610f4d57838660060181905550848660050181905592505050610f53565b5f925050505b9392505050565b606081608001515182606001515114610f9f576040517fb7c1140d00000000000000000000000000000000000000000000000000000000815260040160405180910390fd5b5f82606001515167ffffffffffffffff811115610fbf57610fbe611f33565b5b604051908082528060200260200182016040528015610ff257816020015b6060815260200190600190039081610fdd5790505b5090505f5b83606001515181101561122f5761100c611612565b73ffffffffffffffffffffffffffffffffffffffff16638ad882948560600151838151811061103e5761103d612c4a565b5b60200260200101516001600281111561105a57611059612227565b5b6040518363ffffffff1660e01b8152600401611077929190612dde565b6020604051808303815f875af1158015611093573d5f803e3d5ffd5b505050506040513d601f19601f820116820180604052508101906110b79190612e2f565b5060016110cb855f01518660400151610cad565b6009015f866060015184815181106110e6576110e5612c4a565b5b602002602001015173ffffffffffffffffffffffffffffffffffffffff1673ffffffffffffffffffffffffffffffffffffffff1681526020019081526020015f205f6101000a81548160ff0219169083151502179055508360600151818151811061115457611153612c4a565b5b602002602001015173ffffffffffffffffffffffffffffffffffffffff16630b960220855f0151866040015187602001518860800151868151811061119c5761119b612c4a565b5b60200260200101516040518563ffffffff1660e01b81526004016111c39493929190612e5a565b5f604051808303815f875af11580156111de573d5f803e3d5ffd5b505050506040513d5f823e3d601f19601f820116820180604052508101906112069190612f12565b82828151811061121957611218612c4a565b5b6020026020010181905250806001019050610ff7565b8192505050919050565b5f61124c83604001358460600135611685565b5f61125f84604001358560600135610cad565b9050611272845f0135826006015461153e565b611283845f013585606001356116f5565b5f611290855f0135610c99565b90505f815f015f81546112a290611e74565b91905081905590505f6112b8875f013583610cad565b90508660400135815f0181905550866060013581600101819055508680602001906112e39190611ec7565b8260030191826112f492919061215a565b506004816004015f6101000a81548160ff0219169083600481111561131c5761131b612227565b5b02179055506113348188604001358960600135610eb5565b506001836003015f896060013581526020019081526020015f205f6101000a81548160ff021916908315150217905550826002015f856006015481526020019081526020015f206001015f815461138a90611e74565b919050819055836002015f866006015481526020019081526020015f2060010181905550817f2a08a679825fd57e335b0e217c93e68027c278c2a79e0e88a922dda8f0bc702b8888426040516113e293929190612fdb565b60405180910390a28194505050505092915050565b6114008161175d565b73ffffffffffffffffffffffffffffffffffffffff168273ffffffffffffffffffffffffffffffffffffffff1614611464576040517ff194fae500000000000000000000000000000000000000000000000000000000815260040160405180910390fd5b5050565b5f806114748484610cad565b90506001600481111561148a57611489612227565b5b816004015f9054906101000a900460ff1660048111156114ad576114ac612227565b5b146114e4576040517ffc30e3cb00000000000000000000000000000000000000000000000000000000815260040160405180910390fd5b806008015f9054906101000a900473ffffffffffffffffffffffffffffffffffffffff1691505092915050565b5f8061151d8484610cad565b90505f816004015f9054906101000a900460ff169050809250505092915050565b5f61154883610c99565b9050806002015f8381526020019081526020015f205f015f9054906101000a900460ff166115a2576040517fb030d83e00000000000000000000000000000000000000000000000000000000815260040160405180910390fd5b505050565b5f6115b183610c99565b9050806002015f8381526020019081526020015f205f0160019054906101000a900460ff161561160d576040517fe8289ef600000000000000000000000000000000000000000000000000000000815260040160405180910390fd5b505050565b5f3073ffffffffffffffffffffffffffffffffffffffff1663edec79526040518163ffffffff1660e01b8152600401602060405180830381865afa15801561165c573d5f803e3d5ffd5b505050506040513d601f19601f82011682018060405250810190611680919061302b565b905090565b5f6116908383611511565b9050600260048111156116a6576116a5612227565b5b8160048111156116b9576116b8612227565b5b146116f0576040517ffc30e3cb00000000000000000000000000000000000000000000000000000000815260040160405180910390fd5b505050565b5f6116ff83610c99565b9050806003015f8381526020019081526020015f205f9054906101000a900460ff1615611758576040517fd144100600000000000000000000000000000000000000000000000000000000815260040160405180910390fd5b505050565b5f80611768836117fa565b5f015f9054906101000a900473ffffffffffffffffffffffffffffffffffffffff1690505f73ffffffffffffffffffffffffffffffffffffffff168173ffffffffffffffffffffffffffffffffffffffff16036117f1576040517fceea21b600000000000000000000000000000000000000000000000000000000815260040160405180910390fd5b80915050919050565b5f815f52600160205260405f209050919050565b5f604051905090565b5f80fd5b5f80fd5b5f80fd5b5f60a082840312156118385761183761181f565b5b81905092915050565b5f73ffffffffffffffffffffffffffffffffffffffff82169050919050565b5f61186a82611841565b9050919050565b61187a81611860565b8114611884575f80fd5b50565b5f8135905061189581611871565b92915050565b5f80604083850312156118b1576118b0611817565b5b5f83013567ffffffffffffffff8111156118ce576118cd61181b565b5b6118da85828601611823565b92505060206118eb85828601611887565b9150509250929050565b5f819050919050565b611907816118f5565b82525050565b5f6020820190506119205f8301846118fe565b92915050565b5f60c0828403121561193b5761193a61181f565b5b81905092915050565b5f806040838503121561195a57611959611817565b5b5f83013567ffffffffffffffff8111156119775761197661181b565b5b61198385828601611926565b925050602061199485828601611887565b9150509250929050565b5f608082840312156119b3576119b261181f565b5b81905092915050565b5f80604083850312156119d2576119d1611817565b5b5f83013567ffffffffffffffff8111156119ef576119ee61181b565b5b6119fb8582860161199e565b9250506020611a0c85828601611887565b9150509250929050565b611a1f816118f5565b8114611a29575f80fd5b50565b5f81359050611a3a81611a16565b92915050565b5f805f60608486031215611a5757611a56611817565b5b5f611a6486828701611a2c565b9350506020611a7586828701611a2c565b9250506040611a8686828701611a2c565b9150509250925092565b5f8115159050919050565b611aa481611a90565b82525050565b5f602082019050611abd5f830184611a9b565b92915050565b5f80fd5b5f80fd5b5f80fd5b5f8083601f840112611ae457611ae3611ac3565b5b8235905067ffffffffffffffff811115611b0157611b00611ac7565b5b602083019150836020820283011115611b1d57611b1c611acb565b5b9250929050565b5f805f60408486031215611b3b57611b3a611817565b5b5f84013567ffffffffffffffff811115611b5857611b5761181b565b5b611b6486828701611acf565b93509350506020611b7786828701611887565b9150509250925092565b5f81519050919050565b5f82825260208201905092915050565b5f819050602082019050919050565b611bb3816118f5565b82525050565b5f611bc48383611baa565b60208301905092915050565b5f602082019050919050565b5f611be682611b81565b611bf08185611b8b565b9350611bfb83611b9b565b805f5b83811015611c2b578151611c128882611bb9565b9750611c1d83611bd0565b925050600181019050611bfe565b5085935050505092915050565b5f6020820190508181035f830152611c508184611bdc565b905092915050565b5f805f8060808587031215611c7057611c6f611817565b5b5f611c7d87828801611a2c565b9450506020611c8e87828801611a2c565b9350506040611c9f87828801611a2c565b9250506060611cb087828801611887565b91505092959194509250565b5f8060408385031215611cd257611cd1611817565b5b5f611cdf85828601611a2c565b9250506020611cf085828601611a2c565b9150509250929050565b5f81519050919050565b5f82825260208201905092915050565b5f5b83811015611d31578082015181840152602081019050611d16565b5f8484015250505050565b5f601f19601f8301169050919050565b5f611d5682611cfa565b611d608185611d04565b9350611d70818560208601611d14565b611d7981611d3c565b840191505092915050565b5f6020820190508181035f830152611d9c8184611d4c565b905092915050565b5f60808284031215611db957611db861181f565b5b81905092915050565b5f8060408385031215611dd857611dd7611817565b5b5f83013567ffffffffffffffff811115611df557611df461181b565b5b611e0185828601611da4565b9250506020611e1285828601611887565b9150509250929050565b5f60208284031215611e3157611e30611817565b5b5f611e3e84828501611887565b91505092915050565b7f4e487b71000000000000000000000000000000000000000000000000000000005f52601160045260245ffd5b5f611e7e826118f5565b91507fffffffffffffffffffffffffffffffffffffffffffffffffffffffffffffffff8203611eb057611eaf611e47565b5b600182019050919050565b5f80fd5b5f80fd5b5f80fd5b5f8083356001602003843603038112611ee357611ee2611ebb565b5b80840192508235915067ffffffffffffffff821115611f0557611f04611ebf565b5b602083019250600182023603831315611f2157611f20611ec3565b5b509250929050565b5f82905092915050565b7f4e487b71000000000000000000000000000000000000000000000000000000005f52604160045260245ffd5b7f4e487b71000000000000000000000000000000000000000000000000000000005f52602260045260245ffd5b5f6002820490506001821680611fa457607f821691505b602082108103611fb757611fb6611f60565b5b50919050565b5f819050815f5260205f209050919050565b5f6020601f8301049050919050565b5f82821b905092915050565b5f600883026120197fffffffffffffffffffffffffffffffffffffffffffffffffffffffffffffffff82611fde565b6120238683611fde565b95508019841693508086168417925050509392505050565b5f819050919050565b5f61205e612059612054846118f5565b61203b565b6118f5565b9050919050565b5f819050919050565b61207783612044565b61208b61208382612065565b848454611fea565b825550505050565b5f90565b61209f612093565b6120aa81848461206e565b505050565b5b818110156120cd576120c25f82612097565b6001810190506120b0565b5050565b601f821115612112576120e381611fbd565b6120ec84611fcf565b810160208510156120fb578190505b61210f61210785611fcf565b8301826120af565b50505b505050565b5f82821c905092915050565b5f6121325f1984600802612117565b1980831691505092915050565b5f61214a8383612123565b9150826002028217905092915050565b6121648383611f29565b67ffffffffffffffff81111561217d5761217c611f33565b5b6121878254611f8d565b6121928282856120d1565b5f601f8311600181146121bf575f84156121ad578287013590505b6121b7858261213f565b86555061221e565b601f1984166121cd86611fbd565b5f5b828110156121f4578489013582556001820191506020850194506020810190506121cf565b86831015612211578489013561220d601f891682612123565b8355505b6001600288020188555050505b50505050505050565b7f4e487b71000000000000000000000000000000000000000000000000000000005f52602160045260245ffd5b5f80833560016020038436030381126122705761226f611ebb565b5b80840192508235915067ffffffffffffffff82111561229257612291611ebf565b5b6020830192506001820236038313156122ae576122ad611ec3565b5b509250929050565b5f6122c46020840184611a2c565b905092915050565b6122d5816118f5565b82525050565b5f80fd5b5f80fd5b5f80fd5b5f8083356001602003843603038112612303576123026122e3565b5b83810192508235915060208301925067ffffffffffffffff82111561232b5761232a6122db565b5b600182023603831315612341576123406122df565b5b509250929050565b5f82825260208201905092915050565b828183375f83830152505050565b5f6123728385612349565b935061237f838584612359565b61238883611d3c565b840190509392505050565b5f6123a16020840184611887565b905092915050565b6123b281611860565b82525050565b5f80833560016020038436030381126123d4576123d36122e3565b5b83810192508235915060208301925067ffffffffffffffff8211156123fc576123fb6122db565b5b600182023603831315612412576124116122df565b5b509250929050565b5f82825260208201905092915050565b5f612435838561241a565b9350612442838584612359565b61244b83611d3c565b840190509392505050565b5f60a083016124675f8401846122b6565b6124735f8601826122cc565b5061248160208401846122e7565b8583036020870152612494838284612367565b925050506124a56040840184612393565b6124b260408601826123a9565b506124c06060840184612393565b6124cd60608601826123a9565b506124db60808401846123b8565b85830360808701526124ee83828461242a565b925050508091505092915050565b5f81519050919050565b5f82825260208201905092915050565b5f612520826124fc565b61252a8185612506565b935061253a818560208601611d14565b61254381611d3c565b840191505092915050565b61255781611860565b82525050565b612566816118f5565b82525050565b5f6080820190508181035f8301526125848187612456565b905081810360208301526125988186612516565b90506125a7604083018561254e565b6125b4606083018461255d565b95945050505050565b5f80833560016020038436030381126125d9576125d8611ebb565b5b80840192508235915067ffffffffffffffff8211156125fb576125fa611ebf565b5b60208301925060208202360383131561261757612616611ec3565b5b509250929050565b5f808335600160200384360303811261263b5761263a611ebb565b5b80840192508235915067ffffffffffffffff82111561265d5761265c611ebf565b5b60208301925060208202360383131561267957612678611ec3565b5b509250929050565b61268a82611d3c565b810181811067ffffffffffffffff821117156126a9576126a8611f33565b5b80604052505050565b5f6126bb61180e565b90506126c78282612681565b919050565b5f67ffffffffffffffff8211156126e6576126e5611f33565b5b602082029050602081019050919050565b5f80fd5b5f67ffffffffffffffff82111561271557612714611f33565b5b61271e82611d3c565b9050602081019050919050565b5f61273d612738846126fb565b6126b2565b905082815260208101848484011115612759576127586126f7565b5b612764848285612359565b509392505050565b5f82601f8301126127805761277f611ac3565b5b813561279084826020860161272b565b91505092915050565b5f6127ab6127a6846126cc565b6126b2565b905080838252602082019050602084028301858111156127ce576127cd611acb565b5b835b8181101561281557803567ffffffffffffffff8111156127f3576127f2611ac3565b5b808601612800898261276c565b855260208501945050506020810190506127d0565b5050509392505050565b5f61282b368484612799565b905092915050565b5f808335600160200384360303811261284f5761284e6122e3565b5b83810192508235915060208301925067ffffffffffffffff821115612877576128766122db565b5b60208202360383131561288d5761288c6122df565b5b509250929050565b5f82825260208201905092915050565b5f819050919050565b5f6128b983836123a9565b60208301905092915050565b5f602082019050919050565b5f6128dc8385612895565b93506128e7826128a5565b805f5b8581101561291f576128fc8284612393565b61290688826128ae565b9750612911836128c5565b9250506001810190506128ea565b5085925050509392505050565b5f8083356001602003843603038112612948576129476122e3565b5b83810192508235915060208301925067ffffffffffffffff8211156129705761296f6122db565b5b602082023603831315612986576129856122df565b5b509250929050565b5f82825260208201905092915050565b5f819050919050565b5f6129b384848461242a565b90509392505050565b5f602082019050919050565b5f6129d3838561298e565b9350836020840285016129e58461299e565b805f5b87811015612a2a5784840389526129ff82846123b8565b612a0a8682846129a7565b9550612a15846129bc565b935060208b019a5050506001810190506129e8565b50829750879450505050509392505050565b5f60c08301612a4d5f8401846122b6565b612a595f8601826122cc565b50612a6760208401846122e7565b8583036020870152612a7a838284612367565b92505050612a8b60408401846122b6565b612a9860408601826122cc565b50612aa660608401846122b6565b612ab360608601826122cc565b50612ac16080840184612833565b8583036080870152612ad48382846128d1565b92505050612ae560a084018461292c565b85830360a0870152612af88382846129c8565b925050508091505092915050565b5f81519050919050565b5f82825260208201905092915050565b5f819050602082019050919050565b5f612b39826124fc565b612b43818561241a565b9350612b53818560208601611d14565b612b5c81611d3c565b840191505092915050565b5f612b728383612b2f565b905092915050565b5f602082019050919050565b5f612b9082612b06565b612b9a8185612b10565b935083602082028501612bac85612b20565b805f5b85811015612be75784840389528151612bc88582612b67565b9450612bd383612b7a565b925060208a01995050600181019050612baf565b50829750879550505050505092915050565b5f6080820190508181035f830152612c118187612a3c565b90508181036020830152612c258186612b86565b9050612c34604083018561254e565b612c41606083018461255d565b95945050505050565b7f4e487b71000000000000000000000000000000000000000000000000000000005f52603260045260245ffd5b5f82356001608003833603038112612c9257612c91611ebb565b5b80830191505092915050565b5f608082019050612cb15f83018761255d565b612cbe602083018661255d565b612ccb604083018561255d565b612cd8606083018461254e565b95945050505050565b5f81519050612cef81611a16565b92915050565b5f60208284031215612d0a57612d09611817565b5b5f612d1784828501612ce1565b91505092915050565b5f60808301612d315f8401846122b6565b612d3d5f8601826122cc565b50612d4b60208401846122e7565b8583036020870152612d5e838284612367565b92505050612d6f60408401846122b6565b612d7c60408601826122cc565b50612d8a60608401846122b6565b612d9760608601826122cc565b508091505092915050565b5f6060820190508181035f830152612dba8186612d20565b9050612dc9602083018561254e565b612dd6604083018461255d565b949350505050565b5f604082019050612df15f83018561254e565b612dfe602083018461255d565b9392505050565b612e0e81611a90565b8114612e18575f80fd5b50565b5f81519050612e2981612e05565b92915050565b5f60208284031215612e4457612e43611817565b5b5f612e5184828501612e1b565b91505092915050565b5f608082019050612e6d5f83018761255d565b612e7a602083018661255d565b612e87604083018561254e565b8181036060830152612e998184612516565b905095945050505050565b5f612eb6612eb1846126fb565b6126b2565b905082815260208101848484011115612ed257612ed16126f7565b5b612edd848285611d14565b509392505050565b5f82601f830112612ef957612ef8611ac3565b5b8151612f09848260208601612ea4565b91505092915050565b5f60208284031215612f2757612f26611817565b5b5f82015167ffffffffffffffff811115612f4457612f4361181b565b5b612f5084828501612ee5565b91505092915050565b5f60808301612f6a5f8401846122b6565b612f765f8601826122cc565b50612f8460208401846122e7565b8583036020870152612f97838284612367565b92505050612fa860408401846122b6565b612fb560408601826122cc565b50612fc360608401846122b6565b612fd060608601826122cc565b508091505092915050565b5f6060820190508181035f830152612ff38186612f59565b9050613002602083018561254e565b61300f604083018461255d565b949350505050565b5f8151905061302581611871565b92915050565b5f602082840312156130405761303f611817565b5b5f61304d84828501613017565b9150509291505056fea2646970667358221220de5f1110b5d8cd41401a575ac6de8767530ac27d3fdc7ff8868d3c7b0f4bc00d64736f6c63430008140033",
  "immutableReferences": {},
  "source": "// SPDX-License-Identifier: MIT\r\n\r\npragma solidity ^0.8.15;\r\n\r\nimport {ValidationLib} from '../libraries/ValidationLib.sol';\r\nimport {Types} from '../libraries/constants/Types.sol';\r\nimport {Events} from '../libraries/constants/Events.sol';\r\nimport {Errors} from '../libraries/constants/Errors.sol';\r\nimport {StorageLib} from '../libraries/StorageLib.sol';\r\nimport {IPublicationActionModule} from '../interfaces/IPublicationActionModule.sol';\r\nimport {IPublicationCollectModule} from '../interfaces/IPublicationCollectModule.sol';\r\nimport {IModuleRegistry} from '../interfaces/IModuleRegistry.sol';\r\nimport {INFTCertificate} from '../interfaces/INFTCertificate.sol';\r\nimport {IEduxHub} from '../interfaces/IEduxHub.sol';\r\n\r\nlibrary PublicationLib {\r\n    function MODULE_REGISTRY() internal view returns (IModuleRegistry) {\r\n        return IModuleRegistry(IEduxHub(address(this)).getModuleRegistry());\r\n    }\r\n\r\n    /**\r\n     * @notice Publishes a course to a given profile.\r\n     *\r\n     * @param courseParams The CourseParams struct.\r\n     *\r\n     * @return uint256 The created publication's pubId.\r\n     */\r\n    function course(Types.CourseParams calldata courseParams,address transactionExecutor) external returns (uint256) {\r\n        ValidationLib.validateCourseInitData(courseParams.collectModule , courseParams.certificateModule);\r\n        uint256 pubIdAssigned = ++StorageLib.getProfile(courseParams.profileId).pubCount;\r\n\r\n        Types.Publication storage _course = StorageLib.getPublication(courseParams.profileId, pubIdAssigned);\r\n        _course.contentURI = courseParams.contentURI;\r\n        _course.pubType = Types.PublicationType.Course;\r\n        _course.certificateModule = courseParams.certificateModule;\r\n        _course.collectModule = courseParams.collectModule;\r\n\r\n        bytes memory collectModulesReturnData = _initPubCollectModule(\r\n            InitCollectModuleParams(\r\n                courseParams.profileId,\r\n                transactionExecutor,\r\n                pubIdAssigned,\r\n                courseParams.collectModule,\r\n                courseParams.collectModulesInitData\r\n            )\r\n        );\r\n\r\n        emit Events.CourseCreated(\r\n            courseParams,\r\n            pubIdAssigned,\r\n            collectModulesReturnData,\r\n            transactionExecutor,\r\n            block.timestamp\r\n        );\r\n\r\n        return pubIdAssigned;\r\n    }\r\n\r\n    /**\r\n     * @notice Publishes a lesson to a given profile.\r\n     *\r\n     * @param lessonParams the LessonParams struct.\r\n     *\r\n     * @return uint256 The created publication's pubId.\r\n     */\r\n    function lesson(\r\n        Types.LessonParams calldata lessonParams,\r\n        address transactionExecutor\r\n    ) external returns (uint256) {\r\n        ValidationLib.validatePointedPubAsCourse(lessonParams.pointedProfileId,lessonParams.pointedPubId);\r\n        ValidationLib.validatePublisherIsOwnerOfCourse(lessonParams.profileId,lessonParams.pointedProfileId);\r\n\r\n        uint256 pubIdAssigned = ++StorageLib.getProfile(lessonParams.profileId).pubCount;\r\n\r\n        Types.Publication storage _lesson = StorageLib.getPublication(lessonParams.profileId, pubIdAssigned);\r\n        _lesson.contentURI = lessonParams.contentURI;\r\n        _lesson.pubType = Types.PublicationType.Lesson;\r\n\r\n        Types.Publication storage _course = StorageLib.getPublication(lessonParams.pointedProfileId, lessonParams.pointedPubId);\r\n        _course.totalLesson = ++_course.totalLesson;\r\n        _fillRootOfPublicationInStorage(_lesson, lessonParams.pointedProfileId, lessonParams.pointedPubId);\r\n\r\n        bytes[] memory actionModulesReturnDatas = _initPubActionModules(\r\n            InitActionModuleParams(\r\n                lessonParams.profileId,\r\n                transactionExecutor,\r\n                pubIdAssigned,\r\n                lessonParams.actionModules,\r\n                lessonParams.actionModulesInitDatas\r\n            )\r\n        );\r\n\r\n        emit Events.LessonCreated(\r\n            lessonParams,\r\n            pubIdAssigned,\r\n            actionModulesReturnDatas,\r\n            transactionExecutor,\r\n            block.timestamp\r\n        );\r\n\r\n        return pubIdAssigned;\r\n    }\r\n\r\n    /**\r\n     * @notice Publishes a rating to a given publication.\r\n     *\r\n     * @param ratingParams the RatingParams struct.\r\n     *\r\n     * @return uint256 The created publication's pubId.\r\n     */\r\n    function rating(Types.RatingParams calldata ratingParams, address transactionExecutor) external returns (uint256) {\r\n        ValidationLib.validatePointedPubAsCourse(ratingParams.pointedProfileId, ratingParams.pointedPubId);\r\n        ValidationLib.validateCourseIsCollectedByProfile(ratingParams.profileId, ratingParams.pointedPubId);\r\n        ValidationLib.validateCourseIsRatedByProfile(ratingParams.profileId, ratingParams.pointedPubId);\r\n        Types.Profile storage _profile = StorageLib.getProfile(ratingParams.profileId);\r\n        uint256 pubIdAssigned = ++_profile.pubCount;\r\n\r\n        Types.Publication storage _publication = StorageLib.getPublication(ratingParams.profileId, pubIdAssigned);\r\n        _publication.pointedProfileId = ratingParams.pointedProfileId;\r\n        _publication.pointedPubId = ratingParams.pointedPubId;\r\n        _publication.contentURI = ratingParams.contentURI;\r\n        _publication.pubType = Types.PublicationType.Rating;\r\n        _fillRootOfPublicationInStorage(_publication, ratingParams.pointedProfileId, ratingParams.pointedPubId);\r\n        _profile.courseData[ratingParams.pointedPubId].isRated = true;\r\n\r\n        emit Events.RatingCreated(\r\n            ratingParams,\r\n            pubIdAssigned,\r\n            transactionExecutor,\r\n            block.timestamp\r\n        );\r\n\r\n        return pubIdAssigned;\r\n    }\r\n\r\n    /**\r\n     * @notice Publishes a progress to a given publication.\r\n     *\r\n     * @param progressParams the ProgressParams struct.\r\n     *\r\n     * @return uint256 The created publication's pubId.\r\n     */\r\n    function progress(Types.ProgressParams calldata progressParams, address transactionExecutor) external returns (uint256) {\r\n        uint256 pubIdAssigned = _progress(progressParams,transactionExecutor);\r\n        return pubIdAssigned;\r\n    }\r\n\r\n    function bulkprogress(Types.ProgressParams[] calldata progressParams, address transactionExecutor) external returns (uint256[] memory) {\r\n        uint256[] memory pubIds = new uint256[](progressParams.length);\r\n        uint256 i;\r\n        while (i < progressParams.length) {\r\n            ValidationLib.validateAddressIsProfileOwner(transactionExecutor, progressParams[i].profileId);\r\n            uint256 pubIdAssigned = _progress(progressParams[i], transactionExecutor);\r\n            pubIds[i] = pubIdAssigned;\r\n            unchecked {\r\n                ++i;\r\n            }\r\n        }\r\n        return pubIds;\r\n    }\r\n\r\n    /**\r\n     * @notice completeCourse for completed course with the specified parameters.\r\n     *\r\n     * @param profileId The token ID of the profile.\r\n     *\r\n     * @param pointedProfileId The token ID of the publication's profile.\r\n     *\r\n     * @param pointedPublication The course publication id.\r\n     *\r\n     * @param transactionExecutor The owner of the profile.\r\n     *\r\n     * @return uint256 TokenId for received NFT certificate\r\n     */\r\n    function completeCourse(uint256 profileId, uint256 pointedProfileId, uint256 pointedPublication, address transactionExecutor) external returns (uint256){\r\n        return INFTCertificate(\r\n            _getCertificateNFTAddress(pointedProfileId, pointedPublication)\r\n            ).claimCertificate(profileId, pointedProfileId, pointedPublication, transactionExecutor);\r\n    }\r\n\r\n    function _progress(Types.ProgressParams calldata progressParams, address transactionExecutor) internal returns (uint256) {\r\n        ValidationLib.validatePointedPubAsLesson(progressParams.pointedProfileId, progressParams.pointedPubId);\r\n        Types.Publication storage _lesson = StorageLib.getPublication(progressParams.pointedProfileId, progressParams.pointedPubId);\r\n        ValidationLib.validateCourseIsCollectedByProfile(progressParams.profileId, _lesson.rootPubId);\r\n        ValidationLib.validateLessonIsCompletedByProfile(progressParams.profileId, progressParams.pointedPubId);\r\n        Types.Profile storage _profile = StorageLib.getProfile(progressParams.profileId);\r\n        uint256 pubIdAssigned = ++_profile.pubCount;\r\n\r\n        Types.Publication storage _publication = StorageLib.getPublication(progressParams.profileId, pubIdAssigned);\r\n        _publication.pointedProfileId = progressParams.pointedProfileId;\r\n        _publication.pointedPubId = progressParams.pointedPubId;\r\n        _publication.contentURI = progressParams.metadataURI;\r\n        _publication.pubType = Types.PublicationType.Progress;\r\n        _fillRootOfPublicationInStorage(_publication, progressParams.pointedProfileId, progressParams.pointedPubId);\r\n\r\n        _profile.lessonProgress[progressParams.pointedPubId] = true;\r\n        _profile.courseData[_lesson.rootPubId].progress = ++_profile.courseData[_lesson.rootPubId].progress;\r\n\r\n        \r\n        emit Events.ProgressCreated(\r\n            progressParams,\r\n            pubIdAssigned,\r\n            transactionExecutor,\r\n            block.timestamp\r\n        );\r\n\r\n        return pubIdAssigned;\r\n    }\r\n\r\n    function getPublicationType(uint256 profileId, uint256 pubId) internal view returns (Types.PublicationType) {\r\n        Types.Publication storage _publication = StorageLib.getPublication(profileId, pubId);\r\n        Types.PublicationType pubType = _publication.pubType;\r\n        return pubType;\r\n    }\r\n\r\n    function isLessonCompleted(uint256 profileId, uint256 pointedPubId) external view returns (bool) {\r\n        Types.Profile storage _profile = StorageLib.getProfile(profileId);\r\n        return _profile.lessonProgress[pointedPubId];\r\n    }\r\n\r\n    function isCourseCompleted(uint256 profileId, uint256 pointedProfile, uint256 pointedPubId) external view returns (bool) {\r\n        Types.Profile storage _profile = StorageLib.getProfile(profileId);\r\n        Types.Publication storage _coursePublication = StorageLib.getPublication(pointedProfile, pointedPubId);\r\n        if(_coursePublication.pubType != Types.PublicationType.Course){\r\n            revert Errors.InvalidPointedPub();\r\n        }\r\n\r\n        return _profile.courseData[pointedPubId].progress == _coursePublication.totalLesson;\r\n    }\r\n\r\n    function getContentURI(uint256 profileId, uint256 pubId) external view returns (string memory) {\r\n        Types.Publication storage _publication = StorageLib.getPublication(profileId, pubId);\r\n        Types.PublicationType pubType = _publication.pubType;\r\n        if (pubType == Types.PublicationType.Nonexistent) {\r\n            pubType = getPublicationType(profileId, pubId);\r\n        }\r\n\r\n        return StorageLib.getPublication(profileId, pubId).contentURI;\r\n\r\n    }\r\n\r\n    function _getCertificateNFTAddress(uint256 pointedProfileId, uint256 pointedPublication) internal view returns (address) {\r\n        Types.Publication storage _publication = StorageLib.getPublication(pointedProfileId, pointedPublication);\r\n        \r\n        if(_publication.pubType != Types.PublicationType.Course) {\r\n            revert Errors.InvalidPointedPub();\r\n        }\r\n        return _publication.certificateModule;\r\n    }\r\n\r\n    function _fillRootOfPublicationInStorage(\r\n        Types.Publication storage _publication,\r\n        uint256 pointedProfileId,\r\n        uint256 pointedPubId\r\n    ) internal returns (uint256) {\r\n        Types.Publication storage _pubPointed = StorageLib.getPublication(pointedProfileId, pointedPubId);\r\n        Types.PublicationType pubPointedType = _pubPointed.pubType;\r\n        if (pubPointedType == Types.PublicationType.Course || pubPointedType == Types.PublicationType.Lesson) {\r\n            // The publication pointed is a course or lesson.\r\n            _publication.rootPubId = pointedPubId;\r\n            return _publication.rootProfileId = pointedProfileId;\r\n        } \r\n        return 0;\r\n    }\r\n\r\n\r\n    // Needed to avoid 'stack too deep' issue.\r\n    struct InitActionModuleParams {\r\n        uint256 profileId;\r\n        address transactionExecutor;\r\n        uint256 pubId;\r\n        address[] actionModules;\r\n        bytes[] actionModulesInitDatas;\r\n    }\r\n\r\n    function _initPubActionModules(InitActionModuleParams memory params) private returns (bytes[] memory) {\r\n        if (params.actionModules.length != params.actionModulesInitDatas.length) {\r\n            revert Errors.ArrayMismatch();\r\n        }\r\n\r\n        bytes[] memory actionModuleInitResults = new bytes[](params.actionModules.length);\r\n\r\n        uint256 i;\r\n        while (i < params.actionModules.length) {\r\n            MODULE_REGISTRY().verifyModule(\r\n                params.actionModules[i],\r\n                uint256(IModuleRegistry.ModuleType.PUBLICATION_ACTION_MODULE)\r\n            );\r\n\r\n            StorageLib.getPublication(params.profileId, params.pubId).actionModuleEnabled[\r\n                params.actionModules[i]\r\n            ] = true;\r\n\r\n            actionModuleInitResults[i] = IPublicationActionModule(params.actionModules[i]).initializePublicationAction(\r\n                params.profileId,\r\n                params.pubId,\r\n                params.transactionExecutor,\r\n                params.actionModulesInitDatas[i]\r\n            );\r\n\r\n            unchecked {\r\n                ++i;\r\n            }\r\n        }\r\n\r\n        return actionModuleInitResults;\r\n    }\r\n\r\n    struct InitCollectModuleParams {\r\n        uint256 profileId;\r\n        address transactionExecutor;\r\n        uint256 pubId;\r\n        address collectModule;\r\n        bytes collectModulesInitData;\r\n    }\r\n\r\n    function _initPubCollectModule(InitCollectModuleParams memory params) private returns (bytes memory) {\r\n\r\n        bytes memory collectModuleInitResult;\r\n\r\n            MODULE_REGISTRY().verifyModule(\r\n                params.collectModule,\r\n                uint256(IModuleRegistry.ModuleType.PUBLICATION_COLLECT_MODULE)\r\n            );\r\n\r\n            collectModuleInitResult = IPublicationCollectModule(params.collectModule).initializePublicationCollect(\r\n                params.profileId,\r\n                params.pubId,\r\n                params.transactionExecutor,\r\n                params.collectModulesInitData\r\n            );\r\n\r\n        return collectModuleInitResult;\r\n    }\r\n}",
  "sourcePath": "E:\\Blockchain\\EDUIndex\\EduxContract\\contracts\\libraries\\PublicationLib.sol",
  "compiler": {
    "name": "solc",
    "version": "0.8.20+commit.a1b79de6.Emscripten.clang"
  },
  "schemaVersion": "3.4.3",
  "updatedAt": "2024-08-25T13:14:53.659Z",
  "networkType": "ethereum",
  "devdoc": {
    "events": {
      "CourseCreated((uint256,string,address,address,bytes),uint256,bytes,address,uint256)": {
        "details": "Emitted when a post is successfully published.",
        "params": {
          "collectModulesInitReturnData": "The data returned from the collect modules' initialization for this given publication. This is ABI-encoded and depends on the collect module chosen.",
          "courseParams": "The parameters passed to create the post publication.",
          "pubId": "The publication ID assigned to the created post.",
          "timestamp": "The current block timestamp.",
          "transactionExecutor": "The address of the account that executed this operation."
        }
      },
      "LessonCreated((uint256,string,uint256,uint256,address[],bytes[]),uint256,bytes[],address,uint256)": {
        "details": "Emitted when a lesson is successfully published.",
        "params": {
          "actionModulesInitReturnDatas": "The data returned from the action modules' initialization for this given publication. This is ABI-encoded and depends on the action module chosen.",
          "lessonParams": "The parameters passed to create the lesson publication.",
          "pubId": "The publication ID assigned to the created lesson.",
          "timestamp": "The current block timestamp.",
          "transactionExecutor": "The address of the account that executed this operation."
        }
      },
      "ProgressCreated((uint256,string,uint256,uint256),uint256,address,uint256)": {
        "details": "Emitted when a progress is successfully published.",
        "params": {
          "progressParams": "The parameters passed to create the progress publication.",
          "pubId": "The publication ID assigned to the created progress.",
          "timestamp": "The current block timestamp.",
          "transactionExecutor": "The address of the account that executed this operation."
        }
      },
      "RatingCreated((uint256,string,uint256,uint256),uint256,address,uint256)": {
        "details": "Emitted when a rating is successfully published.",
        "params": {
          "pubId": "The publication ID assigned to the created rating.",
          "ratingParams": "The parameters passed to create the rating publication.",
          "timestamp": "The current block timestamp.",
          "transactionExecutor": "The address of the account that executed this operation."
        }
      }
    },
    "kind": "dev",
    "methods": {
      "completeCourse(uint256,uint256,uint256,address)": {
        "params": {
          "pointedProfileId": "The token ID of the publication's profile.",
          "pointedPublication": "The course publication id.",
          "profileId": "The token ID of the profile.",
          "transactionExecutor": "The owner of the profile."
        },
        "returns": {
          "_0": "uint256 TokenId for received NFT certificate"
        }
      },
      "course(Types.CourseParams,address)": {
        "params": {
          "courseParams": "The CourseParams struct."
        },
        "returns": {
          "_0": "uint256 The created publication's pubId."
        }
      },
      "lesson(Types.LessonParams,address)": {
        "params": {
          "lessonParams": "the LessonParams struct."
        },
        "returns": {
          "_0": "uint256 The created publication's pubId."
        }
      },
      "progress(Types.ProgressParams,address)": {
        "params": {
          "progressParams": "the ProgressParams struct."
        },
        "returns": {
          "_0": "uint256 The created publication's pubId."
        }
      },
      "rating(Types.RatingParams,address)": {
        "params": {
          "ratingParams": "the RatingParams struct."
        },
        "returns": {
          "_0": "uint256 The created publication's pubId."
        }
      }
    },
    "version": 1
  },
  "userdoc": {
    "kind": "user",
    "methods": {
      "completeCourse(uint256,uint256,uint256,address)": {
        "notice": "completeCourse for completed course with the specified parameters."
      },
      "course(Types.CourseParams,address)": {
        "notice": "Publishes a course to a given profile."
      },
      "lesson(Types.LessonParams,address)": {
        "notice": "Publishes a lesson to a given profile."
      },
      "progress(Types.ProgressParams,address)": {
        "notice": "Publishes a progress to a given publication."
      },
      "rating(Types.RatingParams,address)": {
        "notice": "Publishes a rating to a given publication."
      }
    },
    "version": 1
  }
}