{
  "contractName": "RewardActionModule",
  "abi": [
    {
      "inputs": [
        {
          "internalType": "address",
          "name": "hub",
          "type": "address"
        },
        {
          "internalType": "address",
          "name": "moduleRegistry",
          "type": "address"
        },
        {
          "internalType": "address",
          "name": "moduleOwner",
          "type": "address"
        }
      ],
      "stateMutability": "nonpayable",
      "type": "constructor"
    },
    {
      "inputs": [],
      "name": "LessonIsNotCompletedByProfile",
      "type": "error"
    },
    {
      "inputs": [],
      "name": "NotHub",
      "type": "error"
    },
    {
      "inputs": [],
      "name": "ProfileIsAlreadyRewarded",
      "type": "error"
    },
    {
      "inputs": [],
      "name": "RewardAmountCannotBeZero",
      "type": "error"
    },
    {
      "inputs": [],
      "name": "TransferNotAllowed",
      "type": "error"
    },
    {
      "anonymous": false,
      "inputs": [
        {
          "indexed": true,
          "internalType": "address",
          "name": "owner",
          "type": "address"
        },
        {
          "indexed": true,
          "internalType": "address",
          "name": "spender",
          "type": "address"
        },
        {
          "indexed": false,
          "internalType": "uint256",
          "name": "value",
          "type": "uint256"
        }
      ],
      "name": "Approval",
      "type": "event"
    },
    {
      "anonymous": false,
      "inputs": [
        {
          "indexed": true,
          "internalType": "address",
          "name": "previousOwner",
          "type": "address"
        },
        {
          "indexed": true,
          "internalType": "address",
          "name": "newOwner",
          "type": "address"
        }
      ],
      "name": "OwnershipTransferred",
      "type": "event"
    },
    {
      "anonymous": false,
      "inputs": [
        {
          "indexed": false,
          "internalType": "uint256",
          "name": "publicationProfileId",
          "type": "uint256"
        },
        {
          "indexed": false,
          "internalType": "uint256",
          "name": "publicationId",
          "type": "uint256"
        },
        {
          "indexed": false,
          "internalType": "uint256",
          "name": "rewardAmount",
          "type": "uint256"
        }
      ],
      "name": "PublicationRewardRegistered",
      "type": "event"
    },
    {
      "anonymous": false,
      "inputs": [
        {
          "indexed": true,
          "internalType": "address",
          "name": "transactionExecutor",
          "type": "address"
        },
        {
          "indexed": true,
          "internalType": "uint256",
          "name": "publicationId",
          "type": "uint256"
        },
        {
          "indexed": false,
          "internalType": "uint256",
          "name": "rewardAmount",
          "type": "uint256"
        }
      ],
      "name": "RewardDistributed",
      "type": "event"
    },
    {
      "anonymous": false,
      "inputs": [
        {
          "indexed": true,
          "internalType": "address",
          "name": "from",
          "type": "address"
        },
        {
          "indexed": true,
          "internalType": "address",
          "name": "to",
          "type": "address"
        },
        {
          "indexed": false,
          "internalType": "uint256",
          "name": "value",
          "type": "uint256"
        }
      ],
      "name": "Transfer",
      "type": "event"
    },
    {
      "inputs": [],
      "name": "HUB",
      "outputs": [
        {
          "internalType": "address",
          "name": "",
          "type": "address"
        }
      ],
      "stateMutability": "view",
      "type": "function"
    },
    {
      "inputs": [
        {
          "internalType": "address",
          "name": "owner",
          "type": "address"
        },
        {
          "internalType": "address",
          "name": "spender",
          "type": "address"
        }
      ],
      "name": "allowance",
      "outputs": [
        {
          "internalType": "uint256",
          "name": "",
          "type": "uint256"
        }
      ],
      "stateMutability": "view",
      "type": "function"
    },
    {
      "inputs": [
        {
          "internalType": "address",
          "name": "spender",
          "type": "address"
        },
        {
          "internalType": "uint256",
          "name": "amount",
          "type": "uint256"
        }
      ],
      "name": "approve",
      "outputs": [
        {
          "internalType": "bool",
          "name": "",
          "type": "bool"
        }
      ],
      "stateMutability": "nonpayable",
      "type": "function"
    },
    {
      "inputs": [
        {
          "internalType": "address",
          "name": "spender",
          "type": "address"
        },
        {
          "internalType": "uint256",
          "name": "subtractedValue",
          "type": "uint256"
        }
      ],
      "name": "decreaseAllowance",
      "outputs": [
        {
          "internalType": "bool",
          "name": "",
          "type": "bool"
        }
      ],
      "stateMutability": "nonpayable",
      "type": "function"
    },
    {
      "inputs": [],
      "name": "getModuleMetadataURI",
      "outputs": [
        {
          "internalType": "string",
          "name": "",
          "type": "string"
        }
      ],
      "stateMutability": "view",
      "type": "function"
    },
    {
      "inputs": [
        {
          "internalType": "address",
          "name": "spender",
          "type": "address"
        },
        {
          "internalType": "uint256",
          "name": "addedValue",
          "type": "uint256"
        }
      ],
      "name": "increaseAllowance",
      "outputs": [
        {
          "internalType": "bool",
          "name": "",
          "type": "bool"
        }
      ],
      "stateMutability": "nonpayable",
      "type": "function"
    },
    {
      "inputs": [],
      "name": "metadataURI",
      "outputs": [
        {
          "internalType": "string",
          "name": "",
          "type": "string"
        }
      ],
      "stateMutability": "view",
      "type": "function"
    },
    {
      "inputs": [],
      "name": "name",
      "outputs": [
        {
          "internalType": "string",
          "name": "",
          "type": "string"
        }
      ],
      "stateMutability": "view",
      "type": "function"
    },
    {
      "inputs": [],
      "name": "owner",
      "outputs": [
        {
          "internalType": "address",
          "name": "",
          "type": "address"
        }
      ],
      "stateMutability": "view",
      "type": "function"
    },
    {
      "inputs": [],
      "name": "renounceOwnership",
      "outputs": [],
      "stateMutability": "nonpayable",
      "type": "function"
    },
    {
      "inputs": [
        {
          "internalType": "string",
          "name": "_metadataURI",
          "type": "string"
        }
      ],
      "name": "setModuleMetadataURI",
      "outputs": [],
      "stateMutability": "nonpayable",
      "type": "function"
    },
    {
      "inputs": [],
      "name": "symbol",
      "outputs": [
        {
          "internalType": "string",
          "name": "",
          "type": "string"
        }
      ],
      "stateMutability": "view",
      "type": "function"
    },
    {
      "inputs": [
        {
          "internalType": "address",
          "name": "newOwner",
          "type": "address"
        }
      ],
      "name": "transferOwnership",
      "outputs": [],
      "stateMutability": "nonpayable",
      "type": "function"
    },
    {
      "inputs": [
        {
          "internalType": "uint256",
          "name": "profileId",
          "type": "uint256"
        },
        {
          "internalType": "uint256",
          "name": "pubId",
          "type": "uint256"
        }
      ],
      "name": "getRewardReceiver",
      "outputs": [
        {
          "internalType": "address",
          "name": "",
          "type": "address"
        }
      ],
      "stateMutability": "view",
      "type": "function"
    },
    {
      "inputs": [
        {
          "internalType": "bytes4",
          "name": "interfaceID",
          "type": "bytes4"
        }
      ],
      "name": "supportsInterface",
      "outputs": [
        {
          "internalType": "bool",
          "name": "",
          "type": "bool"
        }
      ],
      "stateMutability": "pure",
      "type": "function"
    },
    {
      "inputs": [
        {
          "internalType": "uint256",
          "name": "profileId",
          "type": "uint256"
        },
        {
          "internalType": "uint256",
          "name": "pubId",
          "type": "uint256"
        },
        {
          "internalType": "address",
          "name": "",
          "type": "address"
        },
        {
          "internalType": "bytes",
          "name": "data",
          "type": "bytes"
        }
      ],
      "name": "initializePublicationAction",
      "outputs": [
        {
          "internalType": "bytes",
          "name": "",
          "type": "bytes"
        }
      ],
      "stateMutability": "nonpayable",
      "type": "function"
    },
    {
      "inputs": [
        {
          "components": [
            {
              "internalType": "uint256",
              "name": "publicationActedProfileId",
              "type": "uint256"
            },
            {
              "internalType": "uint256",
              "name": "publicationActedId",
              "type": "uint256"
            },
            {
              "internalType": "uint256",
              "name": "actorProfileId",
              "type": "uint256"
            },
            {
              "internalType": "address",
              "name": "actorProfileOwner",
              "type": "address"
            },
            {
              "internalType": "address",
              "name": "transactionExecutor",
              "type": "address"
            },
            {
              "internalType": "bytes",
              "name": "actionModuleData",
              "type": "bytes"
            }
          ],
          "internalType": "struct Types.ProcessActionParams",
          "name": "params",
          "type": "tuple"
        }
      ],
      "name": "processPublicationAction",
      "outputs": [
        {
          "internalType": "bytes",
          "name": "",
          "type": "bytes"
        }
      ],
      "stateMutability": "nonpayable",
      "type": "function"
    },
    {
      "inputs": [],
      "name": "decimals",
      "outputs": [
        {
          "internalType": "uint8",
          "name": "",
          "type": "uint8"
        }
      ],
      "stateMutability": "pure",
      "type": "function"
    },
    {
      "inputs": [],
      "name": "totalSupply",
      "outputs": [
        {
          "internalType": "uint256",
          "name": "",
          "type": "uint256"
        }
      ],
      "stateMutability": "view",
      "type": "function"
    },
    {
      "inputs": [
        {
          "internalType": "address",
          "name": "account",
          "type": "address"
        }
      ],
      "name": "balanceOf",
      "outputs": [
        {
          "internalType": "uint256",
          "name": "",
          "type": "uint256"
        }
      ],
      "stateMutability": "view",
      "type": "function"
    },
    {
      "inputs": [
        {
          "internalType": "address",
          "name": "recipient",
          "type": "address"
        },
        {
          "internalType": "uint256",
          "name": "amount",
          "type": "uint256"
        }
      ],
      "name": "transfer",
      "outputs": [
        {
          "internalType": "bool",
          "name": "",
          "type": "bool"
        }
      ],
      "stateMutability": "nonpayable",
      "type": "function"
    },
    {
      "inputs": [
        {
          "internalType": "address",
          "name": "sender",
          "type": "address"
        },
        {
          "internalType": "address",
          "name": "recipient",
          "type": "address"
        },
        {
          "internalType": "uint256",
          "name": "amount",
          "type": "uint256"
        }
      ],
      "name": "transferFrom",
      "outputs": [
        {
          "internalType": "bool",
          "name": "",
          "type": "bool"
        }
      ],
      "stateMutability": "nonpayable",
      "type": "function"
    }
  ],
  "bytecode": "0x60a060405234801562000010575f80fd5b506040516200293d3803806200293d833981810160405281019062000036919062000267565b6040518060400160405280600b81526020017f4564757820506f696e74730000000000000000000000000000000000000000008152506040518060400160405280600681526020017f454455585054000000000000000000000000000000000000000000000000000081525082858073ffffffffffffffffffffffffffffffffffffffff1660808173ffffffffffffffffffffffffffffffffffffffff168152505050620000f9620000ed6200013a60201b60201c565b6200014160201b60201c565b6200010a816200014160201b60201c565b5081600590816200011c919062000524565b5080600690816200012e919062000524565b50505050505062000608565b5f33905090565b5f805f9054906101000a900473ffffffffffffffffffffffffffffffffffffffff169050815f806101000a81548173ffffffffffffffffffffffffffffffffffffffff021916908373ffffffffffffffffffffffffffffffffffffffff1602179055508173ffffffffffffffffffffffffffffffffffffffff168173ffffffffffffffffffffffffffffffffffffffff167f8be0079c531659141344cd1fd0a4f28419497f9722a3daafe3b4186f6b6457e060405160405180910390a35050565b5f80fd5b5f73ffffffffffffffffffffffffffffffffffffffff82169050919050565b5f620002318262000206565b9050919050565b620002438162000225565b81146200024e575f80fd5b50565b5f81519050620002618162000238565b92915050565b5f805f6060848603121562000281576200028062000202565b5b5f620002908682870162000251565b9350506020620002a38682870162000251565b9250506040620002b68682870162000251565b9150509250925092565b5f81519050919050565b7f4e487b71000000000000000000000000000000000000000000000000000000005f52604160045260245ffd5b7f4e487b71000000000000000000000000000000000000000000000000000000005f52602260045260245ffd5b5f60028204905060018216806200033c57607f821691505b602082108103620003525762000351620002f7565b5b50919050565b5f819050815f5260205f209050919050565b5f6020601f8301049050919050565b5f82821b905092915050565b5f60088302620003b67fffffffffffffffffffffffffffffffffffffffffffffffffffffffffffffffff8262000379565b620003c2868362000379565b95508019841693508086168417925050509392505050565b5f819050919050565b5f819050919050565b5f6200040c620004066200040084620003da565b620003e3565b620003da565b9050919050565b5f819050919050565b6200042783620003ec565b6200043f620004368262000413565b84845462000385565b825550505050565b5f90565b6200045562000447565b620004628184846200041c565b505050565b5b8181101562000489576200047d5f826200044b565b60018101905062000468565b5050565b601f821115620004d857620004a28162000358565b620004ad846200036a565b81016020851015620004bd578190505b620004d5620004cc856200036a565b83018262000467565b50505b505050565b5f82821c905092915050565b5f620004fa5f1984600802620004dd565b1980831691505092915050565b5f620005148383620004e9565b9150826002028217905092915050565b6200052f82620002c0565b67ffffffffffffffff8111156200054b576200054a620002ca565b5b62000557825462000324565b620005648282856200048d565b5f60209050601f8311600181146200059a575f841562000585578287015190505b62000591858262000507565b86555062000600565b601f198416620005aa8662000358565b5f5b82811015620005d357848901518255600182019150602085019450602081019050620005ac565b86831015620005f35784890151620005ef601f891682620004e9565b8355505b6001600288020188555050505b505050505050565b608051612307620006365f395f818161048a0152818161050f01528181610b2a0152610f1201526123075ff3fe608060405234801561000f575f80fd5b5060043610610140575f3560e01c806370a08231116100b6578063a4c52b861161007a578063a4c52b861461039e578063a9059cbb146103bc578063ce90d52e146103ec578063d99710401461040a578063dd62ed3e1461043a578063f2fde38b1461046a57610140565b806370a08231146102f8578063715018a6146103285780638da5cb5b1461033257806395d89b4114610350578063a457c2d71461036e57610140565b80630b960220116101085780630b9602201461021057806318160ddd1461024057806323b872dd1461025e578063313ce5671461028e57806339509351146102ac578063681591c1146102dc57610140565b8063019f9d771461014457806301ffc9a71461017457806303ee438c146101a457806306fdde03146101c2578063095ea7b3146101e0575b5f80fd5b61015e600480360381019061015991906114ed565b610486565b60405161016b91906115be565b60405180910390f35b61018e60048036038101906101899190611633565b61096f565b60405161019b9190611678565b60405180910390f35b6101ac6109e8565b6040516101b991906116e3565b60405180910390f35b6101ca610a74565b6040516101d791906116e3565b60405180910390f35b6101fa60048036038101906101f59190611790565b610b04565b6040516102079190611678565b60405180910390f35b61022a6004803603810190610225919061182f565b610b26565b60405161023791906115be565b60405180910390f35b610248610cfa565b60405161025591906118c2565b60405180910390f35b610278600480360381019061027391906118db565b610d03565b6040516102859190611678565b60405180910390f35b610296610d36565b6040516102a39190611946565b60405180910390f35b6102c660048036038101906102c19190611790565b610d3a565b6040516102d39190611678565b60405180910390f35b6102f660048036038101906102f19190611a87565b610d70565b005b610312600480360381019061030d9190611ace565b610d8b565b60405161031f91906118c2565b60405180910390f35b610330610dd1565b005b61033a610de4565b6040516103479190611b08565b60405180910390f35b610358610e0b565b60405161036591906116e3565b60405180910390f35b61038860048036038101906103839190611790565b610e9b565b6040516103959190611678565b60405180910390f35b6103a6610f10565b6040516103b39190611b08565b60405180910390f35b6103d660048036038101906103d19190611790565b610f34565b6040516103e39190611678565b60405180910390f35b6103f4610f67565b60405161040191906116e3565b60405180910390f35b610424600480360381019061041f9190611b21565b610ff7565b6040516104319190611b08565b60405180910390f35b610454600480360381019061044f9190611b5f565b611040565b60405161046191906118c2565b60405180910390f35b610484600480360381019061047f9190611ace565b6110c2565b005b60607f000000000000000000000000000000000000000000000000000000000000000073ffffffffffffffffffffffffffffffffffffffff163373ffffffffffffffffffffffffffffffffffffffff161461050d576040517f9de9741800000000000000000000000000000000000000000000000000000000815260040160405180910390fd5b7f000000000000000000000000000000000000000000000000000000000000000073ffffffffffffffffffffffffffffffffffffffff1663dfc38cdf836040013584602001356040518363ffffffff1660e01b8152600401610570929190611b9d565b602060405180830381865afa15801561058b573d5f803e3d5ffd5b505050506040513d601f19601f820116820180604052508101906105af9190611bee565b6105e5576040517fd572d4f900000000000000000000000000000000000000000000000000000000815260040160405180910390fd5b5f73ffffffffffffffffffffffffffffffffffffffff1660095f846040013581526020019081526020015f205f846020013581526020019081526020015f205f9054906101000a900473ffffffffffffffffffffffffffffffffffffffff1673ffffffffffffffffffffffffffffffffffffffff1614610691576040517fb815361100000000000000000000000000000000000000000000000000000000815260040160405180910390fd5b8160600160208101906106a49190611ace565b60095f846040013581526020019081526020015f205f846020013581526020019081526020015f205f6101000a81548173ffffffffffffffffffffffffffffffffffffffff021916908373ffffffffffffffffffffffffffffffffffffffff160217905550600a5f835f013581526020019081526020015f205f836020013581526020019081526020015f206002015460085f84606001602081019061074a9190611ace565b73ffffffffffffffffffffffffffffffffffffffff1673ffffffffffffffffffffffffffffffffffffffff1681526020019081526020015f205f8282546107919190611c46565b92505081905550600a5f835f013581526020019081526020015f205f836020013581526020019081526020015f206002015460075f8282546107d39190611c46565b9250508190555081602001358260600160208101906107f29190611ace565b73ffffffffffffffffffffffffffffffffffffffff167f53118bff2fb56701752f5bf54053d24fb83cec92f9f6ce664b90c38a2991caa4600a5f865f013581526020019081526020015f205f866020013581526020019081526020015f206002015460405161086191906118c2565b60405180910390a381606001602081019061087c9190611ace565b73ffffffffffffffffffffffffffffffffffffffff165f73ffffffffffffffffffffffffffffffffffffffff167fddf252ad1be2c89b69c2b068fc378daa952ba7f163c4a11628f55a4df523b3ef600a5f865f013581526020019081526020015f205f866020013581526020019081526020015f206002015460405161090291906118c2565b60405180910390a381606001602081019061091d9190611ace565b600a5f845f013581526020019081526020015f205f846020013581526020019081526020015f2060020154604051602001610959929190611c79565b6040516020818303038152906040529050919050565b5f7f0a099f57000000000000000000000000000000000000000000000000000000007bffffffffffffffffffffffffffffffffffffffffffffffffffffffff1916827bffffffffffffffffffffffffffffffffffffffffffffffffffffffff191614806109e157506109e082611144565b5b9050919050565b600180546109f590611ccd565b80601f0160208091040260200160405190810160405280929190818152602001828054610a2190611ccd565b8015610a6c5780601f10610a4357610100808354040283529160200191610a6c565b820191905f5260205f20905b815481529060010190602001808311610a4f57829003601f168201915b505050505081565b606060058054610a8390611ccd565b80601f0160208091040260200160405190810160405280929190818152602001828054610aaf90611ccd565b8015610afa5780601f10610ad157610100808354040283529160200191610afa565b820191905f5260205f20905b815481529060010190602001808311610add57829003601f168201915b5050505050905090565b5f80610b0e6111b1565b9050610b1b8185856111b8565b600191505092915050565b60607f000000000000000000000000000000000000000000000000000000000000000073ffffffffffffffffffffffffffffffffffffffff163373ffffffffffffffffffffffffffffffffffffffff1614610bad576040517f9de9741800000000000000000000000000000000000000000000000000000000815260040160405180910390fd5b5f8383810190610bbd9190611cfd565b90505f8103610bf8576040517f2f007fe500000000000000000000000000000000000000000000000000000000815260040160405180910390fd5b80600a5f8981526020019081526020015f205f8881526020019081526020015f206002018190555086600a5f8981526020019081526020015f205f8881526020019081526020015f205f018190555085600a5f8981526020019081526020015f205f8881526020019081526020015f20600101819055507f025fbb53325fbeaf7eb617b2670419271892c2a5869ad2e37a09ae9d23d7a00b878783604051610ca293929190611d28565b60405180910390a183838080601f0160208091040260200160405190810160405280939291908181526020018383808284375f81840152601f19601f8201169050808301925050505050505091505095945050505050565b5f600754905090565b5f6040517f8cd22d1900000000000000000000000000000000000000000000000000000000815260040160405180910390fd5b5f90565b5f80610d446111b1565b9050610d65818585610d568589611040565b610d609190611c46565b6111b8565b600191505092915050565b610d7861137b565b8060019081610d879190611efa565b5050565b5f60085f8373ffffffffffffffffffffffffffffffffffffffff1673ffffffffffffffffffffffffffffffffffffffff1681526020019081526020015f20549050919050565b610dd961137b565b610de25f6113f9565b565b5f805f9054906101000a900473ffffffffffffffffffffffffffffffffffffffff16905090565b606060068054610e1a90611ccd565b80601f0160208091040260200160405190810160405280929190818152602001828054610e4690611ccd565b8015610e915780601f10610e6857610100808354040283529160200191610e91565b820191905f5260205f20905b815481529060010190602001808311610e7457829003601f168201915b5050505050905090565b5f80610ea56111b1565b90505f610eb28286611040565b905083811015610ef7576040517f08c379a0000000000000000000000000000000000000000000000000000000008152600401610eee90612039565b60405180910390fd5b610f0482868684036111b8565b60019250505092915050565b7f000000000000000000000000000000000000000000000000000000000000000081565b5f6040517f8cd22d1900000000000000000000000000000000000000000000000000000000815260040160405180910390fd5b606060018054610f7690611ccd565b80601f0160208091040260200160405190810160405280929190818152602001828054610fa290611ccd565b8015610fed5780601f10610fc457610100808354040283529160200191610fed565b820191905f5260205f20905b815481529060010190602001808311610fd057829003601f168201915b5050505050905090565b5f60095f8481526020019081526020015f205f8381526020019081526020015f205f9054906101000a900473ffffffffffffffffffffffffffffffffffffffff16905092915050565b5f60035f8473ffffffffffffffffffffffffffffffffffffffff1673ffffffffffffffffffffffffffffffffffffffff1681526020019081526020015f205f8373ffffffffffffffffffffffffffffffffffffffff1673ffffffffffffffffffffffffffffffffffffffff1681526020019081526020015f2054905092915050565b6110ca61137b565b5f73ffffffffffffffffffffffffffffffffffffffff168173ffffffffffffffffffffffffffffffffffffffff1603611138576040517f08c379a000000000000000000000000000000000000000000000000000000000815260040161112f906120c7565b60405180910390fd5b611141816113f9565b50565b5f60405160200161115490612139565b604051602081830303815290604052805190602001207bffffffffffffffffffffffffffffffffffffffffffffffffffffffff1916827bffffffffffffffffffffffffffffffffffffffffffffffffffffffff1916149050919050565b5f33905090565b5f73ffffffffffffffffffffffffffffffffffffffff168373ffffffffffffffffffffffffffffffffffffffff1603611226576040517f08c379a000000000000000000000000000000000000000000000000000000000815260040161121d906121bd565b60405180910390fd5b5f73ffffffffffffffffffffffffffffffffffffffff168273ffffffffffffffffffffffffffffffffffffffff1603611294576040517f08c379a000000000000000000000000000000000000000000000000000000000815260040161128b9061224b565b60405180910390fd5b8060035f8573ffffffffffffffffffffffffffffffffffffffff1673ffffffffffffffffffffffffffffffffffffffff1681526020019081526020015f205f8473ffffffffffffffffffffffffffffffffffffffff1673ffffffffffffffffffffffffffffffffffffffff1681526020019081526020015f20819055508173ffffffffffffffffffffffffffffffffffffffff168373ffffffffffffffffffffffffffffffffffffffff167f8c5be1e5ebec7d5bd14f71427d1e84f3dd0314c0f7b2291e5b200ac8c7c3b9258360405161136e91906118c2565b60405180910390a3505050565b6113836111b1565b73ffffffffffffffffffffffffffffffffffffffff166113a1610de4565b73ffffffffffffffffffffffffffffffffffffffff16146113f7576040517f08c379a00000000000000000000000000000000000000000000000000000000081526004016113ee906122b3565b60405180910390fd5b565b5f805f9054906101000a900473ffffffffffffffffffffffffffffffffffffffff169050815f806101000a81548173ffffffffffffffffffffffffffffffffffffffff021916908373ffffffffffffffffffffffffffffffffffffffff1602179055508173ffffffffffffffffffffffffffffffffffffffff168173ffffffffffffffffffffffffffffffffffffffff167f8be0079c531659141344cd1fd0a4f28419497f9722a3daafe3b4186f6b6457e060405160405180910390a35050565b5f604051905090565b5f80fd5b5f80fd5b5f80fd5b5f60c082840312156114e4576114e36114cb565b5b81905092915050565b5f60208284031215611502576115016114c3565b5b5f82013567ffffffffffffffff81111561151f5761151e6114c7565b5b61152b848285016114cf565b91505092915050565b5f81519050919050565b5f82825260208201905092915050565b5f5b8381101561156b578082015181840152602081019050611550565b5f8484015250505050565b5f601f19601f8301169050919050565b5f61159082611534565b61159a818561153e565b93506115aa81856020860161154e565b6115b381611576565b840191505092915050565b5f6020820190508181035f8301526115d68184611586565b905092915050565b5f7fffffffff0000000000000000000000000000000000000000000000000000000082169050919050565b611612816115de565b811461161c575f80fd5b50565b5f8135905061162d81611609565b92915050565b5f60208284031215611648576116476114c3565b5b5f6116558482850161161f565b91505092915050565b5f8115159050919050565b6116728161165e565b82525050565b5f60208201905061168b5f830184611669565b92915050565b5f81519050919050565b5f82825260208201905092915050565b5f6116b582611691565b6116bf818561169b565b93506116cf81856020860161154e565b6116d881611576565b840191505092915050565b5f6020820190508181035f8301526116fb81846116ab565b905092915050565b5f73ffffffffffffffffffffffffffffffffffffffff82169050919050565b5f61172c82611703565b9050919050565b61173c81611722565b8114611746575f80fd5b50565b5f8135905061175781611733565b92915050565b5f819050919050565b61176f8161175d565b8114611779575f80fd5b50565b5f8135905061178a81611766565b92915050565b5f80604083850312156117a6576117a56114c3565b5b5f6117b385828601611749565b92505060206117c48582860161177c565b9150509250929050565b5f80fd5b5f80fd5b5f80fd5b5f8083601f8401126117ef576117ee6117ce565b5b8235905067ffffffffffffffff81111561180c5761180b6117d2565b5b602083019150836001820283011115611828576118276117d6565b5b9250929050565b5f805f805f60808688031215611848576118476114c3565b5b5f6118558882890161177c565b95505060206118668882890161177c565b945050604061187788828901611749565b935050606086013567ffffffffffffffff811115611898576118976114c7565b5b6118a4888289016117da565b92509250509295509295909350565b6118bc8161175d565b82525050565b5f6020820190506118d55f8301846118b3565b92915050565b5f805f606084860312156118f2576118f16114c3565b5b5f6118ff86828701611749565b935050602061191086828701611749565b92505060406119218682870161177c565b9150509250925092565b5f60ff82169050919050565b6119408161192b565b82525050565b5f6020820190506119595f830184611937565b92915050565b5f80fd5b7f4e487b71000000000000000000000000000000000000000000000000000000005f52604160045260245ffd5b61199982611576565b810181811067ffffffffffffffff821117156119b8576119b7611963565b5b80604052505050565b5f6119ca6114ba565b90506119d68282611990565b919050565b5f67ffffffffffffffff8211156119f5576119f4611963565b5b6119fe82611576565b9050602081019050919050565b828183375f83830152505050565b5f611a2b611a26846119db565b6119c1565b905082815260208101848484011115611a4757611a4661195f565b5b611a52848285611a0b565b509392505050565b5f82601f830112611a6e57611a6d6117ce565b5b8135611a7e848260208601611a19565b91505092915050565b5f60208284031215611a9c57611a9b6114c3565b5b5f82013567ffffffffffffffff811115611ab957611ab86114c7565b5b611ac584828501611a5a565b91505092915050565b5f60208284031215611ae357611ae26114c3565b5b5f611af084828501611749565b91505092915050565b611b0281611722565b82525050565b5f602082019050611b1b5f830184611af9565b92915050565b5f8060408385031215611b3757611b366114c3565b5b5f611b448582860161177c565b9250506020611b558582860161177c565b9150509250929050565b5f8060408385031215611b7557611b746114c3565b5b5f611b8285828601611749565b9250506020611b9385828601611749565b9150509250929050565b5f604082019050611bb05f8301856118b3565b611bbd60208301846118b3565b9392505050565b611bcd8161165e565b8114611bd7575f80fd5b50565b5f81519050611be881611bc4565b92915050565b5f60208284031215611c0357611c026114c3565b5b5f611c1084828501611bda565b91505092915050565b7f4e487b71000000000000000000000000000000000000000000000000000000005f52601160045260245ffd5b5f611c508261175d565b9150611c5b8361175d565b9250828201905080821115611c7357611c72611c19565b5b92915050565b5f604082019050611c8c5f830185611af9565b611c9960208301846118b3565b9392505050565b7f4e487b71000000000000000000000000000000000000000000000000000000005f52602260045260245ffd5b5f6002820490506001821680611ce457607f821691505b602082108103611cf757611cf6611ca0565b5b50919050565b5f60208284031215611d1257611d116114c3565b5b5f611d1f8482850161177c565b91505092915050565b5f606082019050611d3b5f8301866118b3565b611d4860208301856118b3565b611d5560408301846118b3565b949350505050565b5f819050815f5260205f209050919050565b5f6020601f8301049050919050565b5f82821b905092915050565b5f60088302611db97fffffffffffffffffffffffffffffffffffffffffffffffffffffffffffffffff82611d7e565b611dc38683611d7e565b95508019841693508086168417925050509392505050565b5f819050919050565b5f611dfe611df9611df48461175d565b611ddb565b61175d565b9050919050565b5f819050919050565b611e1783611de4565b611e2b611e2382611e05565b848454611d8a565b825550505050565b5f90565b611e3f611e33565b611e4a818484611e0e565b505050565b5b81811015611e6d57611e625f82611e37565b600181019050611e50565b5050565b601f821115611eb257611e8381611d5d565b611e8c84611d6f565b81016020851015611e9b578190505b611eaf611ea785611d6f565b830182611e4f565b50505b505050565b5f82821c905092915050565b5f611ed25f1984600802611eb7565b1980831691505092915050565b5f611eea8383611ec3565b9150826002028217905092915050565b611f0382611691565b67ffffffffffffffff811115611f1c57611f1b611963565b5b611f268254611ccd565b611f31828285611e71565b5f60209050601f831160018114611f62575f8415611f50578287015190505b611f5a8582611edf565b865550611fc1565b601f198416611f7086611d5d565b5f5b82811015611f9757848901518255600182019150602085019450602081019050611f72565b86831015611fb45784890151611fb0601f891682611ec3565b8355505b6001600288020188555050505b505050505050565b7f45524332303a2064656372656173656420616c6c6f77616e63652062656c6f775f8201527f207a65726f000000000000000000000000000000000000000000000000000000602082015250565b5f61202360258361169b565b915061202e82611fc9565b604082019050919050565b5f6020820190508181035f83015261205081612017565b9050919050565b7f4f776e61626c653a206e6577206f776e657220697320746865207a65726f20615f8201527f6464726573730000000000000000000000000000000000000000000000000000602082015250565b5f6120b160268361169b565b91506120bc82612057565b604082019050919050565b5f6020820190508181035f8301526120de816120a5565b9050919050565b5f81905092915050565b7f456475785f4d4f44554c450000000000000000000000000000000000000000005f82015250565b5f612123600b836120e5565b915061212e826120ef565b600b82019050919050565b5f61214382612117565b9150819050919050565b7f45524332303a20617070726f76652066726f6d20746865207a65726f206164645f8201527f7265737300000000000000000000000000000000000000000000000000000000602082015250565b5f6121a760248361169b565b91506121b28261214d565b604082019050919050565b5f6020820190508181035f8301526121d48161219b565b9050919050565b7f45524332303a20617070726f766520746f20746865207a65726f2061646472655f8201527f7373000000000000000000000000000000000000000000000000000000000000602082015250565b5f61223560228361169b565b9150612240826121db565b604082019050919050565b5f6020820190508181035f83015261226281612229565b9050919050565b7f4f776e61626c653a2063616c6c6572206973206e6f7420746865206f776e65725f82015250565b5f61229d60208361169b565b91506122a882612269565b602082019050919050565b5f6020820190508181035f8301526122ca81612291565b905091905056fea2646970667358221220188e7d45736e5ce47cae5242c6f352a88cbda3e0e4987b35a87c47d794a5755c64736f6c63430008140033",
  "immutableReferences": {
    "6051": [
      {
        "length": 32,
        "start": 1162
      },
      {
        "length": 32,
        "start": 1295
      },
      {
        "length": 32,
        "start": 2858
      },
      {
        "length": 32,
        "start": 3858
      }
    ]
  },
  "source": "// SPDX-License-Identifier: MIT\r\npragma solidity ^0.8.19;\r\n\r\nimport {IERC20} from '@openzeppelin/contracts/token/ERC20/IERC20.sol';\r\nimport { ERC20 } from '@openzeppelin/contracts/token/ERC20/ERC20.sol';\r\nimport {ModuleTypes} from '../../libraries/constants/ModuleTypes.sol';\r\nimport {Types} from '../../../libraries/constants/Types.sol';\r\nimport {ModuleErrors} from '../../libraries/constants/ModuleErrors.sol';\r\nimport {ModuleEvents} from '../../libraries/constants/ModuleEvents.sol';\r\nimport {IPublicationActionModule} from '../../../interfaces/IPublicationActionModule.sol';\r\nimport {IEduxHub} from '../../../interfaces/IEduxHub.sol';\r\nimport {HubRestricted} from '../../../base/HubRestricted.sol';\r\nimport {EduxModuleMetadata} from '../../EduxModuleMetadata.sol';\r\nimport {EduxModule} from '../../EduxModule.sol';\r\n\r\n/**\r\n * @title RewardActionModule\r\n * @dev Open Action Module for giving reward for completing lessons.\r\n */\r\ncontract RewardActionModule is\r\n    IPublicationActionModule,\r\n    HubRestricted,\r\n    EduxModuleMetadata,\r\n    ERC20\r\n{\r\n    uint256 private _totalPointSupply;\r\n    mapping(address => uint256) private EduxPointsBalances;\r\n\r\n    /**\r\n     * @dev Mapping of reward receivers for lesson.\r\n     */\r\n    mapping(uint256 profileId => mapping(uint256 pubId => address rewardReceiver))\r\n        internal _rewardReceivers;\r\n\r\n    /**\r\n     * @dev Mapping of reward init parameters.\r\n     */\r\n    mapping(uint256 pubProfileId => mapping(uint256 pubId => ModuleTypes.RewardModuleInitParams)) internal _rewardInitParams;\r\n\r\n    /**\r\n     * @dev Initializes the RewardActionModule contract.\r\n     * @param hub Address of the EduxHub contract.\r\n     * @param moduleRegistry Address of the ModuleRegistry contract.\r\n     */\r\n    constructor(\r\n        address hub,\r\n        address moduleRegistry,\r\n        address moduleOwner\r\n    )\r\n        HubRestricted(hub)\r\n        EduxModuleMetadata(moduleOwner)\r\n        ERC20(\"Edux Points\", \"EDUXPT\")\r\n    {}\r\n\r\n    /**\r\n     * @dev Returns the reward receiver for lesson.\r\n     * @param profileId ID of the profile.\r\n     * @param pubId ID of the publication.\r\n     * @return Address of the reward receiver.\r\n     */\r\n    function getRewardReceiver(\r\n        uint256 profileId,\r\n        uint256 pubId\r\n    ) public view returns (address) {\r\n        return _rewardReceivers[profileId][pubId];\r\n    }\r\n\r\n    function supportsInterface(\r\n        bytes4 interfaceID\r\n    ) public pure virtual override(EduxModule) returns (bool) {\r\n        return\r\n            interfaceID == type(IPublicationActionModule).interfaceId || EduxModule.supportsInterface(interfaceID);\r\n    }\r\n\r\n    function initializePublicationAction(\r\n        uint256 profileId,\r\n        uint256 pubId,\r\n        address /*transactionExecutor*/,\r\n        bytes calldata data\r\n    ) external override onlyHub returns (bytes memory) {\r\n        (uint256 rewardAmount) = abi.decode(data, (uint256));\r\n\r\n        if (rewardAmount == 0) {\r\n            revert ModuleErrors.RewardAmountCannotBeZero();\r\n        }\r\n\r\n        _rewardInitParams[profileId][pubId].rewardAmount = rewardAmount;\r\n        _rewardInitParams[profileId][pubId].publicationProfileId = profileId;\r\n        _rewardInitParams[profileId][pubId].publicationId = pubId;\r\n\r\n        emit ModuleEvents.PublicationRewardRegistered(profileId, pubId, rewardAmount);\r\n        return data;\r\n    }\r\n\r\n    function processPublicationAction(\r\n        Types.ProcessActionParams calldata params\r\n    ) external override onlyHub returns (bytes memory) {\r\n        \r\n        // check if lesson is completed by profile or not\r\n        if(!IEduxHub(HUB).isLessonCompleted(params.actorProfileId,params.publicationActedId)){\r\n            revert ModuleErrors.LessonIsNotCompletedByProfile();\r\n        }\r\n\r\n        // check if the reward is already distributed to profile or not\r\n        if(_rewardReceivers[params.actorProfileId][params.publicationActedId] != address(0)){\r\n            revert ModuleErrors.ProfileIsAlreadyRewarded();\r\n        }\r\n\r\n        _rewardReceivers[params.actorProfileId][params.publicationActedId] = params.actorProfileOwner;\r\n        EduxPointsBalances[params.actorProfileOwner] += _rewardInitParams[params.publicationActedProfileId][params.publicationActedId].rewardAmount;\r\n        _totalPointSupply += _rewardInitParams[params.publicationActedProfileId][params.publicationActedId].rewardAmount;\r\n\r\n        emit ModuleEvents.RewardDistributed(\r\n            params.actorProfileOwner,\r\n            params.publicationActedId,\r\n            _rewardInitParams[params.publicationActedProfileId][params.publicationActedId].rewardAmount\r\n        );\r\n\r\n        emit Transfer(address(0), params.actorProfileOwner, _rewardInitParams[params.publicationActedProfileId][params.publicationActedId].rewardAmount);\r\n\r\n        return abi.encode(params.actorProfileOwner, _rewardInitParams[params.publicationActedProfileId][params.publicationActedId].rewardAmount);\r\n    }\r\n\r\n    // *************************************** ERC20 compatibility & overrides ***************************************\r\n\r\n    /**\r\n     * @notice Retrieves the number of decimals for the Eduxp points.\r\n     * @dev This function is an override of the ERC20 function, so that we can pass the 0 value.\r\n     */\r\n    function decimals() public pure override returns (uint8) {\r\n        return 0;\r\n    }\r\n\r\n    /**\r\n     * @notice Retrieves the total supply of Eduxp points.\r\n     * @dev This overrides the ERC20 function because we don't have access to `_totalSupply` and we aren't using the\r\n     *  internal transfer method.\r\n     */\r\n    function totalSupply() public view override returns (uint256) {\r\n        return _totalPointSupply;\r\n    }\r\n\r\n    /**\r\n     * @notice Retrieves the Eduxp points balance of an account.\r\n     * @dev This overrides the ERC20 function because we don't have access to `_totalSupply` and we aren't using the\r\n     *  internal transfer method.\r\n     * @param account The account to retrieve the EDUXP points balance of\r\n     * @return The EDUXP points balance of the account\r\n     */\r\n    function balanceOf(address account) public view override returns (uint256) {\r\n        return EduxPointsBalances[account];\r\n    }\r\n\r\n    /**\r\n     * @notice The override of the transfer method to prevent the EDUXP token from being transferred.\r\n     * @dev This function will always revert as we don't allow EDUXP transfers.\r\n     * @param recipient The recipient of the EDUXP points\r\n     * @param amount The amount of EDUXP points to transfer\r\n     * @return A boolean indicating if the transfer was successful\r\n     */\r\n    function transfer(address recipient, uint256 amount) public override returns (bool) {\r\n        revert ModuleErrors.TransferNotAllowed();\r\n    }\r\n\r\n    /**\r\n     * @notice The override of the transferFrom method to prevent the EDUXP token from being transferred.\r\n     * @dev This function will always revert as we don't allow EDUXP transfers.\r\n     * @param sender The sender of the EDUXP points\r\n     * @param recipient The recipient of the EDUXP points\r\n     * @param amount The amount of EDUXP points to transfer\r\n     * @return A boolean indicating if the transfer was successful\r\n     */\r\n    function transferFrom(address sender, address recipient, uint256 amount) public override returns (bool) {\r\n        revert ModuleErrors.TransferNotAllowed();\r\n    }\r\n}",
  "sourcePath": "E:\\Blockchain\\EDUIndex\\EduxContract\\contracts\\modules\\act\\progress\\RewardActionModule.sol",
  "compiler": {
    "name": "solc",
    "version": "0.8.20+commit.a1b79de6.Emscripten.clang"
  },
  "schemaVersion": "3.4.3",
  "updatedAt": "2024-08-25T13:13:22.226Z",
  "devdoc": {
    "details": "Open Action Module for giving reward for completing lessons.",
    "events": {
      "Approval(address,address,uint256)": {
        "details": "Emitted when the allowance of a `spender` for an `owner` is set by a call to {approve}. `value` is the new allowance."
      },
      "Transfer(address,address,uint256)": {
        "details": "Emitted when `value` tokens are moved from one account (`from`) to another (`to`). Note that `value` may be zero."
      }
    },
    "kind": "dev",
    "methods": {
      "allowance(address,address)": {
        "details": "See {IERC20-allowance}."
      },
      "approve(address,uint256)": {
        "details": "See {IERC20-approve}. NOTE: If `amount` is the maximum `uint256`, the allowance is not updated on `transferFrom`. This is semantically equivalent to an infinite approval. Requirements: - `spender` cannot be the zero address."
      },
      "balanceOf(address)": {
        "details": "This overrides the ERC20 function because we don't have access to `_totalSupply` and we aren't using the  internal transfer method.",
        "params": {
          "account": "The account to retrieve the EDUXP points balance of"
        },
        "returns": {
          "_0": "The EDUXP points balance of the account"
        }
      },
      "constructor": {
        "details": "Initializes the RewardActionModule contract.",
        "params": {
          "hub": "Address of the EduxHub contract.",
          "moduleRegistry": "Address of the ModuleRegistry contract."
        }
      },
      "decimals()": {
        "details": "This function is an override of the ERC20 function, so that we can pass the 0 value."
      },
      "decreaseAllowance(address,uint256)": {
        "details": "Atomically decreases the allowance granted to `spender` by the caller. This is an alternative to {approve} that can be used as a mitigation for problems described in {IERC20-approve}. Emits an {Approval} event indicating the updated allowance. Requirements: - `spender` cannot be the zero address. - `spender` must have allowance for the caller of at least `subtractedValue`."
      },
      "getRewardReceiver(uint256,uint256)": {
        "details": "Returns the reward receiver for lesson.",
        "params": {
          "profileId": "ID of the profile.",
          "pubId": "ID of the publication."
        },
        "returns": {
          "_0": "Address of the reward receiver."
        }
      },
      "increaseAllowance(address,uint256)": {
        "details": "Atomically increases the allowance granted to `spender` by the caller. This is an alternative to {approve} that can be used as a mitigation for problems described in {IERC20-approve}. Emits an {Approval} event indicating the updated allowance. Requirements: - `spender` cannot be the zero address."
      },
      "name()": {
        "details": "Returns the name of the token."
      },
      "owner()": {
        "details": "Returns the address of the current owner."
      },
      "renounceOwnership()": {
        "details": "Leaves the contract without owner. It will not be possible to call `onlyOwner` functions anymore. Can only be called by the current owner. NOTE: Renouncing ownership will leave the contract without an owner, thereby removing any functionality that is only available to the owner."
      },
      "supportsInterface(bytes4)": {
        "details": "for now we check for keccak('EDUX_MODULE'); Override this and add the type(IModuleInterface).interfaceId for corresponding module type"
      },
      "symbol()": {
        "details": "Returns the symbol of the token, usually a shorter version of the name."
      },
      "totalSupply()": {
        "details": "This overrides the ERC20 function because we don't have access to `_totalSupply` and we aren't using the  internal transfer method."
      },
      "transfer(address,uint256)": {
        "details": "This function will always revert as we don't allow EDUXP transfers.",
        "params": {
          "amount": "The amount of EDUXP points to transfer",
          "recipient": "The recipient of the EDUXP points"
        },
        "returns": {
          "_0": "A boolean indicating if the transfer was successful"
        }
      },
      "transferFrom(address,address,uint256)": {
        "details": "This function will always revert as we don't allow EDUXP transfers.",
        "params": {
          "amount": "The amount of EDUXP points to transfer",
          "recipient": "The recipient of the EDUXP points",
          "sender": "The sender of the EDUXP points"
        },
        "returns": {
          "_0": "A boolean indicating if the transfer was successful"
        }
      },
      "transferOwnership(address)": {
        "details": "Transfers ownership of the contract to a new account (`newOwner`). Can only be called by the current owner."
      }
    },
    "stateVariables": {
      "_rewardInitParams": {
        "details": "Mapping of reward init parameters."
      },
      "_rewardReceivers": {
        "details": "Mapping of reward receivers for lesson."
      }
    },
    "title": "RewardActionModule",
    "version": 1
  },
  "userdoc": {
    "kind": "user",
    "methods": {
      "balanceOf(address)": {
        "notice": "Retrieves the Eduxp points balance of an account."
      },
      "decimals()": {
        "notice": "Retrieves the number of decimals for the Eduxp points."
      },
      "getModuleMetadataURI()": {
        "notice": "Human-readable description of the module"
      },
      "totalSupply()": {
        "notice": "Retrieves the total supply of Eduxp points."
      },
      "transfer(address,uint256)": {
        "notice": "The override of the transfer method to prevent the EDUXP token from being transferred."
      },
      "transferFrom(address,address,uint256)": {
        "notice": "The override of the transferFrom method to prevent the EDUXP token from being transferred."
      }
    },
    "version": 1
  }
}