{
  "contractName": "Shoes",
  "abi": [
    {
      "inputs": [
        {
          "internalType": "enum Shoes.ShoeColors",
          "name": "shoeColor",
          "type": "Shoes.ShoeColors"
        }
      ],
      "name": "getShoes",
      "outputs": [
        {
          "internalType": "string",
          "name": "",
          "type": "string"
        }
      ],
      "stateMutability": "pure",
      "type": "function"
    }
  ],
  "bytecode": "0x61163c61004e600b8282823980515f1a607314610042577f4e487b71000000000000000000000000000000000000000000000000000000005f525f60045260245ffd5b305f52607381538281f3fe7300000000000000000000000000000000000000003014608060405260043610610034575f3560e01c80634c43655814610038575b5f80fd5b610052600480360381019061004d9190610446565b610068565b60405161005f91906104fb565b60405180910390f35b606061007382610137565b6006808111156100865761008561051b565b5b8360068111156100995761009861051b565b5b146100d9576040518060400160405280600481526020017f2346464600000000000000000000000000000000000000000000000000000000815250610110565b6040518060400160405280600781526020017f23464645453933000000000000000000000000000000000000000000000000008152505b6040516020016101219291906115be565b6040516020818303038152906040529050919050565b60605f600681111561014c5761014b61051b565b5b82600681111561015f5761015e61051b565b5b036101a1576040518060400160405280600781526020017f2339334139374400000000000000000000000000000000000000000000000000815250905061041a565b600260068111156101b5576101b461051b565b5b8260068111156101c8576101c761051b565b5b0361020a576040518060400160405280600781526020017f2343334233443500000000000000000000000000000000000000000000000000815250905061041a565b6003600681111561021e5761021d61051b565b5b8260068111156102315761023061051b565b5b03610273576040518060400160405280600781526020017f2341434235444400000000000000000000000000000000000000000000000000815250905061041a565b600160068111156102875761028661051b565b5b82600681111561029a5761029961051b565b5b036102dc576040518060400160405280600781526020017f2345414145433700000000000000000000000000000000000000000000000000815250905061041a565b600460068111156102f0576102ef61051b565b5b8260068111156103035761030261051b565b5b03610345576040518060400160405280600781526020017f2335373537353700000000000000000000000000000000000000000000000000815250905061041a565b600560068111156103595761035861051b565b5b82600681111561036c5761036b61051b565b5b036103ae576040518060400160405280600781526020017f2345414541454100000000000000000000000000000000000000000000000000815250905061041a565b6006808111156103c1576103c061051b565b5b8260068111156103d4576103d361051b565b5b03610416576040518060400160405280600781526020017f2346384339343400000000000000000000000000000000000000000000000000815250905061041a565b5f80fd5b919050565b5f80fd5b6007811061042f575f80fd5b50565b5f8135905061044081610423565b92915050565b5f6020828403121561045b5761045a61041f565b5b5f61046884828501610432565b91505092915050565b5f81519050919050565b5f82825260208201905092915050565b5f5b838110156104a857808201518184015260208101905061048d565b5f8484015250505050565b5f601f19601f8301169050919050565b5f6104cd82610471565b6104d7818561047b565b93506104e781856020860161048b565b6104f0816104b3565b840191505092915050565b5f6020820190508181035f83015261051381846104c3565b905092915050565b7f4e487b71000000000000000000000000000000000000000000000000000000005f52602160045260245ffd5b5f81905092915050565b7f3c73766720786d6c6e733d22687474703a2f2f7777772e77332e6f72672f32305f8201527f30302f737667222077696474683d2232313022206865696768743d223333352260208201527f2066696c6c3d226e6f6e65223e3c7374796c653e2e7368436f6c6f72317b666960408201527f6c6c3a0000000000000000000000000000000000000000000000000000000000606082015250565b5f6105f8606383610548565b915061060382610552565b606382019050919050565b5f61061882610471565b6106228185610548565b935061063281856020860161048b565b80840191505092915050565b7f3b7d2e7368436f6c6f7232207b66696c6c3a0000000000000000000000000000815250565b7f3b7d2e73685374726f6b657b7374726f6b653a233030303b7374726f6b652d6c5f8201527f696e656361703a726f756e643b7374726f6b652d6d697465726c696d69743a3160208201527f303b7d3c2f7374796c653e3c7061746820636c6173733d227368436f6c6f723160408201527f2220643d224d37352e34203238312e3763312d2e3220332e3320332e3720313360608201527f2e38203420392e372e322031352e382d342e392031352e382d342e3973362e3160808201527f20352031352e3820342e396331302e352d2e332031322e372d342e322031332e60a08201527f362d3420322e392e3420372e322033203620362e3420332e372034203620382e60c08201527f3420372e342031342e326c2e312e342e32203263302d2e342d2e3520342e382d60e08201527f2e3820342e366131392e332031392e332030203020302d392d33632d362e382e6101008201527f372d31352e3720322d31382e3320372e382d312e3720332e362d322e3520342e6101208201527f322d3220352e372d342e362d312d362e332d322d392e382d352e312d2e352d2e6101408201527f352d322e382d322e352d332e322d332e362d2e3520312d322e3620332e312d336101608201527f2e3120332e362d332e3720332e312d342e3520342d392e3220352e312e342d316101808201527f2e352d312e342d322e312d332d352e372d322e372d352e382d31302e352d372d6101a08201527f31372e342d372e372d322e352d2e332d362e3720312e362d3920322e392d2e336101c08201527f2e322d312e342d352e312d312e342d342e3720302d2e382e312d312e362e332d6101e08201527f322e336132392e322032392e3220302030203120382e312d31342e32632d312e6102008201527f332d332e3320322e322d3620352e312d362e345a22202f3e3c7061746820636c6102208201527f6173733d227368436f6c6f72322220643d226d3134382e35203330342e3520326102408201527f2e32203131632e362032202e3620322e322d2e3820342e362d3120312e352d376102608201527f2e3120392d32312e3220392e342d31342e352e362d32312e382d352e362d32336102808201527f2d372e356c2d2e312d392e32632e34203120332e3420322e33203420322e37206102a08201527f332e3520332e3120362e3720352e322031312e3420362e336c32202e326336206102c08201527f312e322031312e362d312e352031362e382d342e3620322e392d312e3620352e6102e08201527f342d3220372d342e3620312d312e3920322d3420322d362e3420302d2e372d2e6103008201527f322d312e332d2e332d325a4d36312e35203330342e356c2d322e32203131632d6103208201527f2e3620322d2e3620322e322e3820342e36203120312e3520372e3120392032316103408201527f2e3220392e342031342e352e362032312e382d352e362032332d372e356c2e316103608201527f2d392e32632d2e3420312d332e3420322e332d3420322e372d332e3520332e316103808201527f2d362e3720352e322d31312e3420362e336c2d32202e32632d3620312e322d316103a08201527f312e362d312e352d31362e382d342e362d322e392d312e362d352e342d322d376103c08201527f2d342e362d312d312e392d322d342d322d362e3420302d2e372e322d312e332e6103e08201527f332d325a22202f3e3c7061746820636c6173733d227368436f6c6f72322220646104008201527f3d224d3134362e39203331302e3761392e3220392e322030203020312d332e316104208201527f20342e38632d3220322d3520342d3820342e382d352e3320312e352d31302e386104408201527f20322e392d31352e382e346c2d322e352d312e3363302d312e3520322e322d346104608201527f2e3320342e352d372e316131372e382031372e382030203020312031362e332d6104808201527f3663322e332e3520352e342e35203720322e312e322e3320312e3620312e39206104a08201527f312e3620322e335a4d36332e35203331302e3761392e3220392e3220302030206104c08201527f3020332e3120342e386332203220352034203820342e3820352e3320312e35206104e08201527f31302e3820322e392031352e382e346c322e352d312e3363302d312e352d322e6105008201527f322d342e332d342e352d372e316131372e382031372e382030203020302d31366105208201527f2e332d36632d322e332e352d352e342e352d3720322e312d2e322e332d312e366105408201527f20312e392d312e3620322e335a22202f3e3c7061746820636c6173733d2273686105608201527f5374726f6b6522207374726f6b652d77696474683d22332220643d224d3130356105808201527f203332312e38762d323522202f3e3c7061746820636c6173733d2273685374726105a08201527f6f6b6522207374726f6b652d77696474683d22322220643d224d3938203239336105c08201527f63322e352e3220352e322d2e3520372d3222202f3e3c7061746820636c6173736105e08201527f3d2273685374726f6b6522207374726f6b652d77696474683d22322e352220646106008201527f3d224d37342e38203238312e366132342032342030203020302032392e382d2e6106208201527f3722202f3e3c7061746820636c6173733d2273685374726f6b6522207374726f6106408201527f6b652d77696474683d22332220643d224d36322e36203331302e3463342e34206106608201527f362e372031322e342031312032302e352031312e3220382e322e312031362e336106808201527f2d332e382032312d31302e3322202f3e3c7061746820636c6173733d227368536106a08201527f74726f6b6522207374726f6b652d77696474683d22322220643d224d39322e346106c08201527f203331392e326131392e342031392e342030203020302d31322d31312e38632d6106e08201527f352e372d312e382d31322e312d312d313720322e3222202f3e3c7061746820636107008201527f6c6173733d2273685374726f6b6522207374726f6b652d77696474683d2234226107208201527f20643d224d3734203238302e3861392e3420392e342030203020302d3420392e6107408201527f34632d3520342e332d382031312d382031372e37203020312e342d2e3820322e6107608201527f382d312e3620342d2e362e392d3120322d3120336c2d2e3220312e37613920396107808201527f20302030203020322e3920372033312e332033312e332030203020302034312e6107a08201527f372d316d33322e332d34312e3861392e3520392e35203020302031203420392e6107c08201527f34633520342e33203820313120382031372e37203020312e342e3820322e38206107e08201527f312e352034202e362e392031203220312e3120336c2e3220312e3761392039206108008201527f30203020312d3320372033312e332033312e332030203020312d34312e362d316108208201527f22202f3e3c7061746820636c6173733d2273685374726f6b6522207374726f6b6108408201527f652d77696474683d22322220643d224d31313220323933632d322e352e322d356108608201527f2e322d2e352d372d3222202f3e3c7061746820636c6173733d2273685374726f6108808201527f6b6522207374726f6b652d77696474683d22322e352220643d224d3133352e336108a08201527f203238312e366132342e372032342e372030203020312d33302e322d2e3722206108c08201527f2f3e3c7061746820636c6173733d2273685374726f6b6522207374726f6b652d6108e08201527f77696474683d22332220643d224d3134372e34203331302e346132352e3620326109008201527f352e362030203020312d32302e352031312e32632d382e312e312d31362e332d6109208201527f332e382d32312d31302e3322202f3e3c7061746820636c6173733d22736853746109408201527f726f6b6522207374726f6b652d77696474683d22322220643d224d3131372e366109608201527f203331392e3263322d352e3520362e352d31302031322e312d31312e3820352e6109808201527f362d312e382031322d3120313720322e3222202f3e3c7061746820636c6173736109a08201527f3d227368436f6c6f72322220643d224d37362e36203239352e326134203420306109c08201527f2030203120342e332d3363332e342e3320362e3720312e3220392e3920322e366109e08201527f20312e372e3820322e3620322e3720322e3120342e366c2d2e3320312e32632d610a008201527f2e3620322d322e3920332e312d342e3820322e33613236203236203020302030610a208201527f2d382e352d322e3320332e3420332e342030203020312d332d342e326c2e332d610a408201527f312e325a4d3133332e35203239352e32613420342030203020302d342e332d33610a608201527f632d332e342e332d362e3720312e322d392e3920322e3661332e3920332e3920610a808201527f30203020302d322e3120342e366c2e3320312e32632e36203220322e3920332e610aa08201527f3120342e3820322e3361323620323620302030203120382e352d322e3320332e610ac08201527f3420332e3420302030203020332d342e326c2d2e332d312e325a22202f3e3c70610ae08201527f61746820636c6173733d2273685374726f6b6522207374726f6b652d77696474610b008201527f683d22322220643d224d37362e36203239352e32613420342030203020312034610b208201527f2e332d33763063332e342e3320362e3720312e3220392e3920322e3676306331610b408201527f2e372e3820322e3620322e3720322e3120342e366c2d2e3320312e32632d2e36610b608201527f20322d322e3920332e312d342e3820322e337630613236203236203020302030610b808201527f2d382e352d322e33763061332e3420332e342030203020312d332d342e326c2e610ba08201527f332d312e325a4d3133332e35203239352e32613420342030203020302d342e33610bc08201527f2d337630632d332e342e332d362e3720312e322d392e3920322e36763061332e610be08201527f3920332e392030203020302d322e3120342e366c2e3320312e32632e36203220610c008201527f322e3920332e3120342e3820322e33763061323620323620302030203120382e610c208201527f352d322e33763061332e3420332e3420302030203020332d342e326c2d2e332d610c408201527f312e325a22202f3e3c2f7376673e000000000000000000000000000000000000610c6082015250565b5f6115a7610c6e83610548565b91506115b282610664565b610c6e82019050919050565b5f6115c8826105ec565b91506115d4828561060e565b91506115df8261063e565b6012820191506115ef828461060e565b91506115fa8261159a565b9150819050939250505056fea26469706673582212209d050775ba4e269567197d200f31d12f13eb82f7d51c86617b43ee4c9167cc2f64736f6c63430008140033",
  "immutableReferences": {},
  "source": "// SPDX-License-Identifier: MIT\npragma solidity ^0.8.0;\n\nimport {EduxColors} from './EduxColors.sol';\n\nlibrary Shoes {\n    enum ShoeColors {\n        GREEN,\n        PINK,\n        PURPLE,\n        BLUE,\n        DARK,\n        LIGHT,\n        GOLD\n    }\n\n    // // we take the 7th byte from the left for shoes color\n    // uint8 color = uint8((seed >> 200) & 0xFF) % 3;\n    function getShoes(ShoeColors shoeColor) external pure returns (string memory) {\n        return\n            string.concat(\n                '<svg xmlns=\"http://www.w3.org/2000/svg\" width=\"210\" height=\"335\" fill=\"none\"><style>.shColor1{fill:',\n                _getShoeColorHex(shoeColor),\n                ';}.shColor2 {fill:',\n                shoeColor == ShoeColors.GOLD ? EduxColors.lightGold : EduxColors.white,\n                ';}.shStroke{stroke:#000;stroke-linecap:round;stroke-miterlimit:10;}</style><path class=\"shColor1\" d=\"M75.4 281.7c1-.2 3.3 3.7 13.8 4 9.7.2 15.8-4.9 15.8-4.9s6.1 5 15.8 4.9c10.5-.3 12.7-4.2 13.6-4 2.9.4 7.2 3 6 6.4 3.7 4 6 8.4 7.4 14.2l.1.4.2 2c0-.4-.5 4.8-.8 4.6a19.3 19.3 0 0 0-9-3c-6.8.7-15.7 2-18.3 7.8-1.7 3.6-2.5 4.2-2 5.7-4.6-1-6.3-2-9.8-5.1-.5-.5-2.8-2.5-3.2-3.6-.5 1-2.6 3.1-3.1 3.6-3.7 3.1-4.5 4-9.2 5.1.4-1.5-1.4-2.1-3-5.7-2.7-5.8-10.5-7-17.4-7.7-2.5-.3-6.7 1.6-9 2.9-.3.2-1.4-5.1-1.4-4.7 0-.8.1-1.6.3-2.3a29.2 29.2 0 0 1 8.1-14.2c-1.3-3.3 2.2-6 5.1-6.4Z\" /><path class=\"shColor2\" d=\"m148.5 304.5 2.2 11c.6 2 .6 2.2-.8 4.6-1 1.5-7.1 9-21.2 9.4-14.5.6-21.8-5.6-23-7.5l-.1-9.2c.4 1 3.4 2.3 4 2.7 3.5 3.1 6.7 5.2 11.4 6.3l2 .2c6 1.2 11.6-1.5 16.8-4.6 2.9-1.6 5.4-2 7-4.6 1-1.9 2-4 2-6.4 0-.7-.2-1.3-.3-2ZM61.5 304.5l-2.2 11c-.6 2-.6 2.2.8 4.6 1 1.5 7.1 9 21.2 9.4 14.5.6 21.8-5.6 23-7.5l.1-9.2c-.4 1-3.4 2.3-4 2.7-3.5 3.1-6.7 5.2-11.4 6.3l-2 .2c-6 1.2-11.6-1.5-16.8-4.6-2.9-1.6-5.4-2-7-4.6-1-1.9-2-4-2-6.4 0-.7.2-1.3.3-2Z\" /><path class=\"shColor2\" d=\"M146.9 310.7a9.2 9.2 0 0 1-3.1 4.8c-2 2-5 4-8 4.8-5.3 1.5-10.8 2.9-15.8.4l-2.5-1.3c0-1.5 2.2-4.3 4.5-7.1a17.8 17.8 0 0 1 16.3-6c2.3.5 5.4.5 7 2.1.2.3 1.6 1.9 1.6 2.3ZM63.5 310.7a9.2 9.2 0 0 0 3.1 4.8c2 2 5 4 8 4.8 5.3 1.5 10.8 2.9 15.8.4l2.5-1.3c0-1.5-2.2-4.3-4.5-7.1a17.8 17.8 0 0 0-16.3-6c-2.3.5-5.4.5-7 2.1-.2.3-1.6 1.9-1.6 2.3Z\" /><path class=\"shStroke\" stroke-width=\"3\" d=\"M105 321.8v-25\" /><path class=\"shStroke\" stroke-width=\"2\" d=\"M98 293c2.5.2 5.2-.5 7-2\" /><path class=\"shStroke\" stroke-width=\"2.5\" d=\"M74.8 281.6a24 24 0 0 0 29.8-.7\" /><path class=\"shStroke\" stroke-width=\"3\" d=\"M62.6 310.4c4.4 6.7 12.4 11 20.5 11.2 8.2.1 16.3-3.8 21-10.3\" /><path class=\"shStroke\" stroke-width=\"2\" d=\"M92.4 319.2a19.4 19.4 0 0 0-12-11.8c-5.7-1.8-12.1-1-17 2.2\" /><path class=\"shStroke\" stroke-width=\"4\" d=\"M74 280.8a9.4 9.4 0 0 0-4 9.4c-5 4.3-8 11-8 17.7 0 1.4-.8 2.8-1.6 4-.6.9-1 2-1 3l-.2 1.7a9 9 0 0 0 2.9 7 31.3 31.3 0 0 0 41.7-1m32.3-41.8a9.5 9.5 0 0 1 4 9.4c5 4.3 8 11 8 17.7 0 1.4.8 2.8 1.5 4 .6.9 1 2 1.1 3l.2 1.7a9 9 0 0 1-3 7 31.3 31.3 0 0 1-41.6-1\" /><path class=\"shStroke\" stroke-width=\"2\" d=\"M112 293c-2.5.2-5.2-.5-7-2\" /><path class=\"shStroke\" stroke-width=\"2.5\" d=\"M135.3 281.6a24.7 24.7 0 0 1-30.2-.7\" /><path class=\"shStroke\" stroke-width=\"3\" d=\"M147.4 310.4a25.6 25.6 0 0 1-20.5 11.2c-8.1.1-16.3-3.8-21-10.3\" /><path class=\"shStroke\" stroke-width=\"2\" d=\"M117.6 319.2c2-5.5 6.5-10 12.1-11.8 5.6-1.8 12-1 17 2.2\" /><path class=\"shColor2\" d=\"M76.6 295.2a4 4 0 0 1 4.3-3c3.4.3 6.7 1.2 9.9 2.6 1.7.8 2.6 2.7 2.1 4.6l-.3 1.2c-.6 2-2.9 3.1-4.8 2.3a26 26 0 0 0-8.5-2.3 3.4 3.4 0 0 1-3-4.2l.3-1.2ZM133.5 295.2a4 4 0 0 0-4.3-3c-3.4.3-6.7 1.2-9.9 2.6a3.9 3.9 0 0 0-2.1 4.6l.3 1.2c.6 2 2.9 3.1 4.8 2.3a26 26 0 0 1 8.5-2.3 3.4 3.4 0 0 0 3-4.2l-.3-1.2Z\" /><path class=\"shStroke\" stroke-width=\"2\" d=\"M76.6 295.2a4 4 0 0 1 4.3-3v0c3.4.3 6.7 1.2 9.9 2.6v0c1.7.8 2.6 2.7 2.1 4.6l-.3 1.2c-.6 2-2.9 3.1-4.8 2.3v0a26 26 0 0 0-8.5-2.3v0a3.4 3.4 0 0 1-3-4.2l.3-1.2ZM133.5 295.2a4 4 0 0 0-4.3-3v0c-3.4.3-6.7 1.2-9.9 2.6v0a3.9 3.9 0 0 0-2.1 4.6l.3 1.2c.6 2 2.9 3.1 4.8 2.3v0a26 26 0 0 1 8.5-2.3v0a3.4 3.4 0 0 0 3-4.2l-.3-1.2Z\" /></svg>'\n            );\n    }\n\n    function _getShoeColorHex(ShoeColors shoeColor) internal pure returns (string memory) {\n        if (shoeColor == ShoeColors.GREEN) {\n            return EduxColors.darkGreen;\n        } else if (shoeColor == ShoeColors.PURPLE) {\n            return EduxColors.darkPurple;\n        } else if (shoeColor == ShoeColors.BLUE) {\n            return EduxColors.darkBlue;\n        } else if (shoeColor == ShoeColors.PINK) {\n            return EduxColors.darkPink;\n        } else if (shoeColor == ShoeColors.DARK) {\n            return EduxColors.dark;\n        } else if (shoeColor == ShoeColors.LIGHT) {\n            return EduxColors.lightGray;\n        } else if (shoeColor == ShoeColors.GOLD) {\n            return EduxColors.baseGold;\n        } else {\n            revert(); // Avoid warnings.\n        }\n    }\n}\n",
  "sourcePath": "E:\\Blockchain\\EDUIndex\\EduxContract\\contracts\\libraries\\svgs\\Profile\\Shoes.sol",
  "compiler": {
    "name": "solc",
    "version": "0.8.20+commit.a1b79de6.Emscripten.clang"
  },
  "schemaVersion": "3.4.3",
  "updatedAt": "2024-08-25T13:13:22.141Z",
  "devdoc": {
    "kind": "dev",
    "methods": {},
    "version": 1
  },
  "userdoc": {
    "kind": "user",
    "methods": {},
    "version": 1
  }
}