{
  "contractName": "SimpleFeeCollectModule",
  "abi": [
    {
      "inputs": [
        {
          "internalType": "address",
          "name": "hub",
          "type": "address"
        },
        {
          "internalType": "address",
          "name": "moduleRegistry",
          "type": "address"
        },
        {
          "internalType": "address",
          "name": "moduleOwner",
          "type": "address"
        }
      ],
      "stateMutability": "nonpayable",
      "type": "constructor"
    },
    {
      "inputs": [],
      "name": "InitParamsInvalid",
      "type": "error"
    },
    {
      "inputs": [],
      "name": "ModuleDataMismatch",
      "type": "error"
    },
    {
      "inputs": [],
      "name": "NotHub",
      "type": "error"
    },
    {
      "anonymous": false,
      "inputs": [
        {
          "indexed": true,
          "internalType": "address",
          "name": "previousOwner",
          "type": "address"
        },
        {
          "indexed": true,
          "internalType": "address",
          "name": "newOwner",
          "type": "address"
        }
      ],
      "name": "OwnershipTransferred",
      "type": "event"
    },
    {
      "inputs": [],
      "name": "HUB",
      "outputs": [
        {
          "internalType": "address",
          "name": "",
          "type": "address"
        }
      ],
      "stateMutability": "view",
      "type": "function"
    },
    {
      "inputs": [],
      "name": "MODULE_REGISTRY",
      "outputs": [
        {
          "internalType": "contract IModuleRegistry",
          "name": "",
          "type": "address"
        }
      ],
      "stateMutability": "view",
      "type": "function"
    },
    {
      "inputs": [
        {
          "internalType": "uint256",
          "name": "profileId",
          "type": "uint256"
        },
        {
          "internalType": "uint256",
          "name": "pubId",
          "type": "uint256"
        }
      ],
      "name": "getBasePublicationData",
      "outputs": [
        {
          "components": [
            {
              "internalType": "uint160",
              "name": "amount",
              "type": "uint160"
            },
            {
              "internalType": "uint96",
              "name": "collectLimit",
              "type": "uint96"
            },
            {
              "internalType": "address",
              "name": "currency",
              "type": "address"
            },
            {
              "internalType": "uint72",
              "name": "endTimestamp",
              "type": "uint72"
            },
            {
              "internalType": "address",
              "name": "recipient",
              "type": "address"
            },
            {
              "internalType": "uint96",
              "name": "currentCollects",
              "type": "uint96"
            }
          ],
          "internalType": "struct ModuleTypes.BaseFeeCollectCourse",
          "name": "",
          "type": "tuple"
        }
      ],
      "stateMutability": "view",
      "type": "function"
    },
    {
      "inputs": [],
      "name": "getModuleMetadataURI",
      "outputs": [
        {
          "internalType": "string",
          "name": "",
          "type": "string"
        }
      ],
      "stateMutability": "view",
      "type": "function"
    },
    {
      "inputs": [],
      "name": "metadataURI",
      "outputs": [
        {
          "internalType": "string",
          "name": "",
          "type": "string"
        }
      ],
      "stateMutability": "view",
      "type": "function"
    },
    {
      "inputs": [],
      "name": "owner",
      "outputs": [
        {
          "internalType": "address",
          "name": "",
          "type": "address"
        }
      ],
      "stateMutability": "view",
      "type": "function"
    },
    {
      "inputs": [],
      "name": "renounceOwnership",
      "outputs": [],
      "stateMutability": "nonpayable",
      "type": "function"
    },
    {
      "inputs": [
        {
          "internalType": "string",
          "name": "_metadataURI",
          "type": "string"
        }
      ],
      "name": "setModuleMetadataURI",
      "outputs": [],
      "stateMutability": "nonpayable",
      "type": "function"
    },
    {
      "inputs": [
        {
          "internalType": "address",
          "name": "newOwner",
          "type": "address"
        }
      ],
      "name": "transferOwnership",
      "outputs": [],
      "stateMutability": "nonpayable",
      "type": "function"
    },
    {
      "inputs": [
        {
          "internalType": "uint256",
          "name": "profileId",
          "type": "uint256"
        },
        {
          "internalType": "uint256",
          "name": "pubId",
          "type": "uint256"
        },
        {
          "internalType": "address",
          "name": "",
          "type": "address"
        },
        {
          "internalType": "bytes",
          "name": "data",
          "type": "bytes"
        }
      ],
      "name": "initializePublicationCollect",
      "outputs": [
        {
          "internalType": "bytes",
          "name": "",
          "type": "bytes"
        }
      ],
      "stateMutability": "nonpayable",
      "type": "function"
    },
    {
      "inputs": [
        {
          "components": [
            {
              "internalType": "uint256",
              "name": "publicationCollectedProfileId",
              "type": "uint256"
            },
            {
              "internalType": "uint256",
              "name": "publicationCollectedId",
              "type": "uint256"
            },
            {
              "internalType": "uint256",
              "name": "collectorProfileId",
              "type": "uint256"
            },
            {
              "internalType": "address",
              "name": "collectorProfileOwner",
              "type": "address"
            },
            {
              "internalType": "address",
              "name": "transactionExecutor",
              "type": "address"
            },
            {
              "internalType": "bytes",
              "name": "collectModuleData",
              "type": "bytes"
            }
          ],
          "internalType": "struct Types.ProcessCollectParams",
          "name": "params",
          "type": "tuple"
        }
      ],
      "name": "processPublicationCollect",
      "outputs": [
        {
          "internalType": "bytes",
          "name": "",
          "type": "bytes"
        }
      ],
      "stateMutability": "nonpayable",
      "type": "function"
    },
    {
      "inputs": [
        {
          "internalType": "uint256",
          "name": "profileId",
          "type": "uint256"
        },
        {
          "internalType": "uint256",
          "name": "pubId",
          "type": "uint256"
        }
      ],
      "name": "getPublicationData",
      "outputs": [
        {
          "components": [
            {
              "internalType": "uint160",
              "name": "amount",
              "type": "uint160"
            },
            {
              "internalType": "uint96",
              "name": "collectLimit",
              "type": "uint96"
            },
            {
              "internalType": "address",
              "name": "currency",
              "type": "address"
            },
            {
              "internalType": "uint72",
              "name": "endTimestamp",
              "type": "uint72"
            },
            {
              "internalType": "address",
              "name": "recipient",
              "type": "address"
            },
            {
              "internalType": "uint96",
              "name": "currentCollects",
              "type": "uint96"
            }
          ],
          "internalType": "struct ModuleTypes.BaseFeeCollectCourse",
          "name": "",
          "type": "tuple"
        }
      ],
      "stateMutability": "view",
      "type": "function"
    },
    {
      "inputs": [
        {
          "internalType": "bytes4",
          "name": "interfaceID",
          "type": "bytes4"
        }
      ],
      "name": "supportsInterface",
      "outputs": [
        {
          "internalType": "bool",
          "name": "",
          "type": "bool"
        }
      ],
      "stateMutability": "pure",
      "type": "function"
    }
  ],
  "bytecode": "0x60e060405234801562000010575f80fd5b5060405162002ba538038062002ba5833981810160405281019062000036919062000247565b8281848481818173ffffffffffffffffffffffffffffffffffffffff1660808173ffffffffffffffffffffffffffffffffffffffff16815250508073ffffffffffffffffffffffffffffffffffffffff1660a08173ffffffffffffffffffffffffffffffffffffffff168152505050505050620000c8620000bc6200011860201b60201c565b6200011f60201b60201c565b620000d9816200011f60201b60201c565b508073ffffffffffffffffffffffffffffffffffffffff1660c08173ffffffffffffffffffffffffffffffffffffffff168152505050505050620002a0565b5f33905090565b5f60015f9054906101000a900473ffffffffffffffffffffffffffffffffffffffff1690508160015f6101000a81548173ffffffffffffffffffffffffffffffffffffffff021916908373ffffffffffffffffffffffffffffffffffffffff1602179055508173ffffffffffffffffffffffffffffffffffffffff168173ffffffffffffffffffffffffffffffffffffffff167f8be0079c531659141344cd1fd0a4f28419497f9722a3daafe3b4186f6b6457e060405160405180910390a35050565b5f80fd5b5f73ffffffffffffffffffffffffffffffffffffffff82169050919050565b5f6200021182620001e6565b9050919050565b620002238162000205565b81146200022e575f80fd5b50565b5f81519050620002418162000218565b92915050565b5f805f60608486031215620002615762000260620001e2565b5b5f620002708682870162000231565b9350506020620002838682870162000231565b9250506040620002968682870162000231565b9150509250925092565b60805160a05160c0516128c5620002e05f395f81816103b801528181610492015261052901525f81816103dc015261137901525f61118a01526128c55ff3fe608060405234801561000f575f80fd5b50600436106100cd575f3560e01c8063a4c52b861161008a578063ddb6b03a11610064578063ddb6b03a146101ed578063e08cf4e51461021d578063f2fde38b1461024d578063fcdd234714610269576100cd565b8063a4c52b8614610193578063b95ddb52146101b1578063ce90d52e146101cf576100cd565b806301ffc9a7146100d157806303ee438c146101015780633f5038921461011f578063681591c11461014f578063715018a61461016b5780638da5cb5b14610175575b5f80fd5b6100eb60048036038101906100e6919061179e565b610299565b6040516100f891906117e3565b60405180910390f35b6101096102ba565b6040516101169190611886565b60405180910390f35b610139600480360381019061013491906118d9565b610346565b6040516101469190611a27565b60405180910390f35b61016960048036038101906101649190611b6c565b610360565b005b61017361037b565b005b61017d61038e565b60405161018a9190611bc2565b60405180910390f35b61019b6103b6565b6040516101a89190611bc2565b60405180910390f35b6101b96103da565b6040516101c69190611c36565b60405180910390f35b6101d76103fe565b6040516101e49190611886565b60405180910390f35b61020760048036038101906102029190611c71565b61048e565b6040516102149190611d0a565b60405180910390f35b61023760048036038101906102329190611db1565b610525565b6040516102449190611d0a565b60405180910390f35b61026760048036038101906102629190611e35565b6105ed565b005b610283600480360381019061027e91906118d9565b61066f565b6040516102909190611a27565b60405180910390f35b5f6102a382610857565b806102b357506102b2826108c0565b5b9050919050565b600280546102c790611e8d565b80601f01602080910402602001604051908101604052809291908181526020018280546102f390611e8d565b801561033e5780601f106103155761010080835404028352916020019161033e565b820191905f5260205f20905b81548152906001019060200180831161032157829003601f168201915b505050505081565b61034e61169f565b610358838361066f565b905092915050565b61036861092d565b80600290816103779190612051565b5050565b61038361092d565b61038c5f6109ab565b565b5f60015f9054906101000a900473ffffffffffffffffffffffffffffffffffffffff16905090565b7f000000000000000000000000000000000000000000000000000000000000000081565b7f000000000000000000000000000000000000000000000000000000000000000081565b60606002805461040d90611e8d565b80601f016020809104026020016040519081016040528092919081815260200182805461043990611e8d565b80156104845780601f1061045b57610100808354040283529160200191610484565b820191905f5260205f20905b81548152906001019060200180831161046757829003601f168201915b5050505050905090565b60607f000000000000000000000000000000000000000000000000000000000000000073ffffffffffffffffffffffffffffffffffffffff163373ffffffffffffffffffffffffffffffffffffffff1614610515576040517f9de9741800000000000000000000000000000000000000000000000000000000815260040160405180910390fd5b61051e82610a6e565b9050919050565b60607f000000000000000000000000000000000000000000000000000000000000000073ffffffffffffffffffffffffffffffffffffffff163373ffffffffffffffffffffffffffffffffffffffff16146105ac576040517f9de9741800000000000000000000000000000000000000000000000000000000815260040160405180910390fd5b5f83838101906105bc919061222b565b90506105c781610bfd565b6105d2878783610d2f565b60405180602001604052805f81525091505095945050505050565b6105f561092d565b5f73ffffffffffffffffffffffffffffffffffffffff168173ffffffffffffffffffffffffffffffffffffffff1603610663576040517f08c379a000000000000000000000000000000000000000000000000000000000815260040161065a906122c6565b60405180910390fd5b61066c816109ab565b50565b61067761169f565b5f808481526020019081526020015f205f8381526020019081526020015f206040518060c00160405290815f82015f9054906101000a900473ffffffffffffffffffffffffffffffffffffffff1673ffffffffffffffffffffffffffffffffffffffff1673ffffffffffffffffffffffffffffffffffffffff1681526020015f820160149054906101000a90046bffffffffffffffffffffffff166bffffffffffffffffffffffff166bffffffffffffffffffffffff168152602001600182015f9054906101000a900473ffffffffffffffffffffffffffffffffffffffff1673ffffffffffffffffffffffffffffffffffffffff1673ffffffffffffffffffffffffffffffffffffffff1681526020016001820160149054906101000a900468ffffffffffffffffff1668ffffffffffffffffff1668ffffffffffffffffff168152602001600282015f9054906101000a900473ffffffffffffffffffffffffffffffffffffffff1673ffffffffffffffffffffffffffffffffffffffff1673ffffffffffffffffffffffffffffffffffffffff1681526020016002820160149054906101000a90046bffffffffffffffffffffffff166bffffffffffffffffffffffff166bffffffffffffffffffffffff1681525050905092915050565b5f7f3d3a44df000000000000000000000000000000000000000000000000000000007bffffffffffffffffffffffffffffffffffffffffffffffffffffffff1916827bffffffffffffffffffffffffffffffffffffffffffffffffffffffff1916149050919050565b5f6040516020016108d090612338565b604051602081830303815290604052805190602001207bffffffffffffffffffffffffffffffffffffffffffffffffffffffff1916827bffffffffffffffffffffffffffffffffffffffffffffffffffffffff1916149050919050565b610935610f01565b73ffffffffffffffffffffffffffffffffffffffff1661095361038e565b73ffffffffffffffffffffffffffffffffffffffff16146109a9576040517f08c379a00000000000000000000000000000000000000000000000000000000081526004016109a090612396565b60405180910390fd5b565b5f60015f9054906101000a900473ffffffffffffffffffffffffffffffffffffffff1690508160015f6101000a81548173ffffffffffffffffffffffffffffffffffffffff021916908373ffffffffffffffffffffffffffffffffffffffff1602179055508173ffffffffffffffffffffffffffffffffffffffff168173ffffffffffffffffffffffffffffffffffffffff167f8be0079c531659141344cd1fd0a4f28419497f9722a3daafe3b4186f6b6457e060405160405180910390a35050565b60605f805f845f013581526020019081526020015f205f846020013581526020019081526020015f2090505f610aa384610f08565b73ffffffffffffffffffffffffffffffffffffffff1690505f826001015f9054906101000a900473ffffffffffffffffffffffffffffffffffffffff169050610afc858060a00190610af591906123c0565b83856110f7565b5f80610b06611186565b915091505f61271061ffff168261ffff1686610b22919061244f565b610b2c91906124bd565b90505f811115610b7657610b75886080016020810190610b4c9190611e35565b84838773ffffffffffffffffffffffffffffffffffffffff1661121c909392919063ffffffff16565b5b610b8c88858388610b8791906124ed565b6112a5565b876060016020810190610b9f9190611e35565b866002015f9054906101000a900473ffffffffffffffffffffffffffffffffffffffff168287610bcf91906124ed565b604051602001610be19392919061252f565b6040516020818303038152906040529650505050505050919050565b5f815f015173ffffffffffffffffffffffffffffffffffffffff16148015610c5557505f73ffffffffffffffffffffffffffffffffffffffff16816040015173ffffffffffffffffffffffffffffffffffffffff1614155b80610cb457505f815f015173ffffffffffffffffffffffffffffffffffffffff1614158015610cb357505f73ffffffffffffffffffffffffffffffffffffffff16816040015173ffffffffffffffffffffffffffffffffffffffff16145b5b80610ce857505f816060015168ffffffffffffffffff1614158015610ce7575042816060015168ffffffffffffffffff16105b5b15610d1f576040517f48be0eb300000000000000000000000000000000000000000000000000000000815260040160405180910390fd5b610d2c8160400151611344565b50565b805f01515f808581526020019081526020015f205f8481526020019081526020015f205f015f6101000a81548173ffffffffffffffffffffffffffffffffffffffff021916908373ffffffffffffffffffffffffffffffffffffffff16021790555080602001515f808581526020019081526020015f205f8481526020019081526020015f205f0160146101000a8154816bffffffffffffffffffffffff02191690836bffffffffffffffffffffffff16021790555080604001515f808581526020019081526020015f205f8481526020019081526020015f206001015f6101000a81548173ffffffffffffffffffffffffffffffffffffffff021916908373ffffffffffffffffffffffffffffffffffffffff16021790555080608001515f808581526020019081526020015f205f8481526020019081526020015f206002015f6101000a81548173ffffffffffffffffffffffffffffffffffffffff021916908373ffffffffffffffffffffffffffffffffffffffff16021790555080606001515f808581526020019081526020015f205f8481526020019081526020015f2060010160146101000a81548168ffffffffffffffffff021916908368ffffffffffffffffff160217905550505050565b5f33905090565b5f805f80845f013581526020019081526020015f205f846020013581526020019081526020015f206040518060c00160405290815f82015f9054906101000a900473ffffffffffffffffffffffffffffffffffffffff1673ffffffffffffffffffffffffffffffffffffffff1673ffffffffffffffffffffffffffffffffffffffff1681526020015f820160149054906101000a90046bffffffffffffffffffffffff166bffffffffffffffffffffffff166bffffffffffffffffffffffff168152602001600182015f9054906101000a900473ffffffffffffffffffffffffffffffffffffffff1673ffffffffffffffffffffffffffffffffffffffff1673ffffffffffffffffffffffffffffffffffffffff1681526020016001820160149054906101000a900468ffffffffffffffffff1668ffffffffffffffffff1668ffffffffffffffffff168152602001600282015f9054906101000a900473ffffffffffffffffffffffffffffffffffffffff1673ffffffffffffffffffffffffffffffffffffffff1673ffffffffffffffffffffffffffffffffffffffff1681526020016002820160149054906101000a90046bffffffffffffffffffffffff166bffffffffffffffffffffffff166bffffffffffffffffffffffff16815250509050805f0151915050919050565b5f808585810190611108919061259f565b91509150828114158061114757508373ffffffffffffffffffffffffffffffffffffffff168273ffffffffffffffffffffffffffffffffffffffff1614155b1561117e576040517f46308bd500000000000000000000000000000000000000000000000000000000815260040160405180910390fd5b505050505050565b5f807f000000000000000000000000000000000000000000000000000000000000000073ffffffffffffffffffffffffffffffffffffffff166398f965d16040518163ffffffff1660e01b81526004016040805180830381865afa1580156111f0573d5f803e3d5ffd5b505050506040513d601f19601f820116820180604052508101906112149190612628565b915091509091565b61129f846323b872dd60e01b85858560405160240161123d9392919061252f565b604051602081830303815290604052907bffffffffffffffffffffffffffffffffffffffffffffffffffffffff19166020820180517bffffffffffffffffffffffffffffffffffffffffffffffffffffffff8381831617835250505050611415565b50505050565b5f805f855f013581526020019081526020015f205f856020013581526020019081526020015f2090505f816002015f9054906101000a900473ffffffffffffffffffffffffffffffffffffffff1690505f83111561133d5761133c8560600160208101906113139190611e35565b82858773ffffffffffffffffffffffffffffffffffffffff1661121c909392919063ffffffff16565b5b5050505050565b5f73ffffffffffffffffffffffffffffffffffffffff168173ffffffffffffffffffffffffffffffffffffffff1614611412577f000000000000000000000000000000000000000000000000000000000000000073ffffffffffffffffffffffffffffffffffffffff1663fe3b3f4c826040518263ffffffff1660e01b81526004016113d09190611bc2565b6020604051808303815f875af11580156113ec573d5f803e3d5ffd5b505050506040513d601f19601f820116820180604052508101906114109190612690565b505b50565b5f611476826040518060400160405280602081526020017f5361666545524332303a206c6f772d6c6576656c2063616c6c206661696c65648152508573ffffffffffffffffffffffffffffffffffffffff166114da9092919063ffffffff16565b90505f815111156114d557808060200190518101906114959190612690565b6114d4576040517f08c379a00000000000000000000000000000000000000000000000000000000081526004016114cb9061272b565b60405180910390fd5b5b505050565b60606114e884845f856114f1565b90509392505050565b606082471015611536576040517f08c379a000000000000000000000000000000000000000000000000000000000815260040161152d906127b9565b60405180910390fd5b5f808673ffffffffffffffffffffffffffffffffffffffff16858760405161155e9190612811565b5f6040518083038185875af1925050503d805f8114611598576040519150601f19603f3d011682016040523d82523d5f602084013e61159d565b606091505b50915091506115ae878383876115ba565b92505050949350505050565b6060831561161b575f835103611613576115d38561162e565b611612576040517f08c379a000000000000000000000000000000000000000000000000000000000815260040161160990612871565b60405180910390fd5b5b829050611626565b6116258383611650565b5b949350505050565b5f808273ffffffffffffffffffffffffffffffffffffffff163b119050919050565b5f825111156116625781518083602001fd5b806040517f08c379a00000000000000000000000000000000000000000000000000000000081526004016116969190611886565b60405180910390fd5b6040518060c001604052805f73ffffffffffffffffffffffffffffffffffffffff1681526020015f6bffffffffffffffffffffffff1681526020015f73ffffffffffffffffffffffffffffffffffffffff1681526020015f68ffffffffffffffffff1681526020015f73ffffffffffffffffffffffffffffffffffffffff1681526020015f6bffffffffffffffffffffffff1681525090565b5f604051905090565b5f80fd5b5f80fd5b5f7fffffffff0000000000000000000000000000000000000000000000000000000082169050919050565b61177d81611749565b8114611787575f80fd5b50565b5f8135905061179881611774565b92915050565b5f602082840312156117b3576117b2611741565b5b5f6117c08482850161178a565b91505092915050565b5f8115159050919050565b6117dd816117c9565b82525050565b5f6020820190506117f65f8301846117d4565b92915050565b5f81519050919050565b5f82825260208201905092915050565b5f5b83811015611833578082015181840152602081019050611818565b5f8484015250505050565b5f601f19601f8301169050919050565b5f611858826117fc565b6118628185611806565b9350611872818560208601611816565b61187b8161183e565b840191505092915050565b5f6020820190508181035f83015261189e818461184e565b905092915050565b5f819050919050565b6118b8816118a6565b81146118c2575f80fd5b50565b5f813590506118d3816118af565b92915050565b5f80604083850312156118ef576118ee611741565b5b5f6118fc858286016118c5565b925050602061190d858286016118c5565b9150509250929050565b5f73ffffffffffffffffffffffffffffffffffffffff82169050919050565b61193f81611917565b82525050565b5f6bffffffffffffffffffffffff82169050919050565b61196581611945565b82525050565b5f61197582611917565b9050919050565b6119858161196b565b82525050565b5f68ffffffffffffffffff82169050919050565b6119a88161198b565b82525050565b60c082015f8201516119c25f850182611936565b5060208201516119d5602085018261195c565b5060408201516119e8604085018261197c565b5060608201516119fb606085018261199f565b506080820151611a0e608085018261197c565b5060a0820151611a2160a085018261195c565b50505050565b5f60c082019050611a3a5f8301846119ae565b92915050565b5f80fd5b5f80fd5b7f4e487b71000000000000000000000000000000000000000000000000000000005f52604160045260245ffd5b611a7e8261183e565b810181811067ffffffffffffffff82111715611a9d57611a9c611a48565b5b80604052505050565b5f611aaf611738565b9050611abb8282611a75565b919050565b5f67ffffffffffffffff821115611ada57611ad9611a48565b5b611ae38261183e565b9050602081019050919050565b828183375f83830152505050565b5f611b10611b0b84611ac0565b611aa6565b905082815260208101848484011115611b2c57611b2b611a44565b5b611b37848285611af0565b509392505050565b5f82601f830112611b5357611b52611a40565b5b8135611b63848260208601611afe565b91505092915050565b5f60208284031215611b8157611b80611741565b5b5f82013567ffffffffffffffff811115611b9e57611b9d611745565b5b611baa84828501611b3f565b91505092915050565b611bbc8161196b565b82525050565b5f602082019050611bd55f830184611bb3565b92915050565b5f819050919050565b5f611bfe611bf9611bf484611917565b611bdb565b611917565b9050919050565b5f611c0f82611be4565b9050919050565b5f611c2082611c05565b9050919050565b611c3081611c16565b82525050565b5f602082019050611c495f830184611c27565b92915050565b5f80fd5b5f60c08284031215611c6857611c67611c4f565b5b81905092915050565b5f60208284031215611c8657611c85611741565b5b5f82013567ffffffffffffffff811115611ca357611ca2611745565b5b611caf84828501611c53565b91505092915050565b5f81519050919050565b5f82825260208201905092915050565b5f611cdc82611cb8565b611ce68185611cc2565b9350611cf6818560208601611816565b611cff8161183e565b840191505092915050565b5f6020820190508181035f830152611d228184611cd2565b905092915050565b611d338161196b565b8114611d3d575f80fd5b50565b5f81359050611d4e81611d2a565b92915050565b5f80fd5b5f80fd5b5f8083601f840112611d7157611d70611a40565b5b8235905067ffffffffffffffff811115611d8e57611d8d611d54565b5b602083019150836001820283011115611daa57611da9611d58565b5b9250929050565b5f805f805f60808688031215611dca57611dc9611741565b5b5f611dd7888289016118c5565b9550506020611de8888289016118c5565b9450506040611df988828901611d40565b935050606086013567ffffffffffffffff811115611e1a57611e19611745565b5b611e2688828901611d5c565b92509250509295509295909350565b5f60208284031215611e4a57611e49611741565b5b5f611e5784828501611d40565b91505092915050565b7f4e487b71000000000000000000000000000000000000000000000000000000005f52602260045260245ffd5b5f6002820490506001821680611ea457607f821691505b602082108103611eb757611eb6611e60565b5b50919050565b5f819050815f5260205f209050919050565b5f6020601f8301049050919050565b5f82821b905092915050565b5f60088302611f197fffffffffffffffffffffffffffffffffffffffffffffffffffffffffffffffff82611ede565b611f238683611ede565b95508019841693508086168417925050509392505050565b5f611f55611f50611f4b846118a6565b611bdb565b6118a6565b9050919050565b5f819050919050565b611f6e83611f3b565b611f82611f7a82611f5c565b848454611eea565b825550505050565b5f90565b611f96611f8a565b611fa1818484611f65565b505050565b5b81811015611fc457611fb95f82611f8e565b600181019050611fa7565b5050565b601f82111561200957611fda81611ebd565b611fe384611ecf565b81016020851015611ff2578190505b612006611ffe85611ecf565b830182611fa6565b50505b505050565b5f82821c905092915050565b5f6120295f198460080261200e565b1980831691505092915050565b5f612041838361201a565b9150826002028217905092915050565b61205a826117fc565b67ffffffffffffffff81111561207357612072611a48565b5b61207d8254611e8d565b612088828285611fc8565b5f60209050601f8311600181146120b9575f84156120a7578287015190505b6120b18582612036565b865550612118565b601f1984166120c786611ebd565b5f5b828110156120ee578489015182556001820191506020850194506020810190506120c9565b8683101561210b5784890151612107601f89168261201a565b8355505b6001600288020188555050505b505050505050565b5f80fd5b61212d81611917565b8114612137575f80fd5b50565b5f8135905061214881612124565b92915050565b61215781611945565b8114612161575f80fd5b50565b5f813590506121728161214e565b92915050565b6121818161198b565b811461218b575f80fd5b50565b5f8135905061219c81612178565b92915050565b5f60a082840312156121b7576121b6612120565b5b6121c160a0611aa6565b90505f6121d08482850161213a565b5f8301525060206121e384828501612164565b60208301525060406121f784828501611d40565b604083015250606061220b8482850161218e565b606083015250608061221f84828501611d40565b60808301525092915050565b5f60a082840312156122405761223f611741565b5b5f61224d848285016121a2565b91505092915050565b7f4f776e61626c653a206e6577206f776e657220697320746865207a65726f20615f8201527f6464726573730000000000000000000000000000000000000000000000000000602082015250565b5f6122b0602683611806565b91506122bb82612256565b604082019050919050565b5f6020820190508181035f8301526122dd816122a4565b9050919050565b5f81905092915050565b7f456475785f4d4f44554c450000000000000000000000000000000000000000005f82015250565b5f612322600b836122e4565b915061232d826122ee565b600b82019050919050565b5f61234282612316565b9150819050919050565b7f4f776e61626c653a2063616c6c6572206973206e6f7420746865206f776e65725f82015250565b5f612380602083611806565b915061238b8261234c565b602082019050919050565b5f6020820190508181035f8301526123ad81612374565b9050919050565b5f80fd5b5f80fd5b5f80fd5b5f80833560016020038436030381126123dc576123db6123b4565b5b80840192508235915067ffffffffffffffff8211156123fe576123fd6123b8565b5b60208301925060018202360383131561241a576124196123bc565b5b509250929050565b7f4e487b71000000000000000000000000000000000000000000000000000000005f52601160045260245ffd5b5f612459826118a6565b9150612464836118a6565b9250828202612472816118a6565b9150828204841483151761248957612488612422565b5b5092915050565b7f4e487b71000000000000000000000000000000000000000000000000000000005f52601260045260245ffd5b5f6124c7826118a6565b91506124d2836118a6565b9250826124e2576124e1612490565b5b828204905092915050565b5f6124f7826118a6565b9150612502836118a6565b925082820390508181111561251a57612519612422565b5b92915050565b612529816118a6565b82525050565b5f6060820190506125425f830186611bb3565b61254f6020830185611bb3565b61255c6040830184612520565b949350505050565b5f61256e82611917565b9050919050565b61257e81612564565b8114612588575f80fd5b50565b5f8135905061259981612575565b92915050565b5f80604083850312156125b5576125b4611741565b5b5f6125c28582860161258b565b92505060206125d3858286016118c5565b9150509250929050565b5f815190506125eb81611d2a565b92915050565b5f61ffff82169050919050565b612607816125f1565b8114612611575f80fd5b50565b5f81519050612622816125fe565b92915050565b5f806040838503121561263e5761263d611741565b5b5f61264b858286016125dd565b925050602061265c85828601612614565b9150509250929050565b61266f816117c9565b8114612679575f80fd5b50565b5f8151905061268a81612666565b92915050565b5f602082840312156126a5576126a4611741565b5b5f6126b28482850161267c565b91505092915050565b7f5361666545524332303a204552433230206f7065726174696f6e20646964206e5f8201527f6f74207375636365656400000000000000000000000000000000000000000000602082015250565b5f612715602a83611806565b9150612720826126bb565b604082019050919050565b5f6020820190508181035f83015261274281612709565b9050919050565b7f416464726573733a20696e73756666696369656e742062616c616e636520666f5f8201527f722063616c6c0000000000000000000000000000000000000000000000000000602082015250565b5f6127a3602683611806565b91506127ae82612749565b604082019050919050565b5f6020820190508181035f8301526127d081612797565b9050919050565b5f81905092915050565b5f6127eb82611cb8565b6127f581856127d7565b9350612805818560208601611816565b80840191505092915050565b5f61281c82846127e1565b915081905092915050565b7f416464726573733a2063616c6c20746f206e6f6e2d636f6e74726163740000005f82015250565b5f61285b601d83611806565b915061286682612827565b602082019050919050565b5f6020820190508181035f8301526128888161284f565b905091905056fea26469706673582212208c10a77c39021e8abe644e8900686be5f107c9b3da3e69ec85ecf840d73177f964736f6c63430008140033",
  "immutableReferences": {
    "6051": [
      {
        "length": 32,
        "start": 952
      },
      {
        "length": 32,
        "start": 1170
      },
      {
        "length": 32,
        "start": 1321
      }
    ],
    "19810": [
      {
        "length": 32,
        "start": 4490
      }
    ],
    "19813": [
      {
        "length": 32,
        "start": 988
      },
      {
        "length": 32,
        "start": 4985
      }
    ]
  },
  "source": "// SPDX-License-Identifier: MIT\r\npragma solidity ^0.8.10;\r\n\r\nimport {BaseFeeCollectModule} from '../collect/base/BaseFeeCollectModule.sol';\r\nimport {IPublicationCollectModule} from '../../interfaces/IPublicationCollectModule.sol';\r\nimport {EduxModuleMetadata} from '../EduxModuleMetadata.sol';\r\nimport {EduxModule} from '../EduxModule.sol';\r\nimport {ModuleTypes} from '../libraries/constants/ModuleTypes.sol';\r\nimport {Types} from '../../libraries/constants/Types.sol';\r\nimport {HubRestricted} from '../../base/HubRestricted.sol';\r\n\r\n/**\r\n * @title SimpleFeeCollectModule\r\n * @author Edux Protocol\r\n *\r\n * @notice This is a simple Edux CollectModule implementation, allowing customization of time to collect and\r\n * number of collects.\r\n *\r\n * You can build your own collect modules by inheriting from BaseFeeCollectModule and adding your\r\n * functionality along with getPublicationData function.\r\n */\r\ncontract SimpleFeeCollectModule is BaseFeeCollectModule, EduxModuleMetadata, HubRestricted, IPublicationCollectModule {\r\n    constructor(\r\n        address hub,\r\n        address moduleRegistry,\r\n        address moduleOwner\r\n    ) BaseFeeCollectModule(hub, moduleRegistry) EduxModuleMetadata(moduleOwner) HubRestricted(hub) {}\r\n\r\n    /**\r\n     * @inheritdoc IPublicationCollectModule\r\n     * @notice This collect module levies a fee on collects. Thus, we need to decode data.\r\n     * @param data The arbitrary data parameter, decoded into BaseFeeCollectModuleInitData struct:\r\n     *        amount: The collecting cost associated with this publication. 0 for free collect.\r\n     *        collectLimit: The maximum number of collects for this publication. 0 for no limit.\r\n     *        currency: The currency associated with this publication.\r\n     *        endTimestamp: The end timestamp after which collecting is impossible. 0 for no expiry.\r\n     *        recipient: Recipient of collect fees.\r\n     *\r\n     * @return An abi encoded bytes parameter, which is the same as the passed data parameter.\r\n     */\r\n    function initializePublicationCollect(\r\n        uint256 profileId,\r\n        uint256 pubId,\r\n        address /* transactionExecutor */,\r\n        bytes calldata data\r\n    ) external override onlyHub returns (bytes memory) {\r\n        ModuleTypes.BaseFeeCollectCourseInitData memory baseInitData = abi.decode(data, (ModuleTypes.BaseFeeCollectCourseInitData));\r\n        _validateBaseInitData(baseInitData);\r\n        _storeBasePublicationCollectParameters(profileId, pubId, baseInitData);\r\n        return '';\r\n    }\r\n\r\n    function processPublicationCollect(\r\n        Types.ProcessCollectParams calldata params\r\n    ) external override onlyHub returns (bytes memory) {\r\n        \r\n        return _processCollect(params);\r\n    }\r\n\r\n    /**\r\n     * @notice Returns the publication data for a given publication, or an empty struct if that publication was not\r\n     * initialized with this module.\r\n     *\r\n     * @param profileId The token ID of the profile mapped to the publication to query.\r\n     * @param pubId The publication ID of the publication to query.\r\n     *\r\n     * @return The BaseFeeCollectCourse struct mapped to that publication.\r\n     */\r\n    function getPublicationData(\r\n        uint256 profileId,\r\n        uint256 pubId\r\n    ) external view virtual returns (ModuleTypes.BaseFeeCollectCourse memory) {\r\n        return getBasePublicationData(profileId, pubId);\r\n    }\r\n\r\n    function supportsInterface(\r\n        bytes4 interfaceID\r\n    ) public pure override(BaseFeeCollectModule, EduxModule) returns (bool) {\r\n       return BaseFeeCollectModule.supportsInterface(interfaceID) || EduxModule.supportsInterface(interfaceID);\r\n    }\r\n}",
  "sourcePath": "E:\\Blockchain\\EDUIndex\\EduxContract\\contracts\\modules\\collect\\SimpleFeeCollectModule.sol",
  "compiler": {
    "name": "solc",
    "version": "0.8.20+commit.a1b79de6.Emscripten.clang"
  },
  "schemaVersion": "3.4.3",
  "updatedAt": "2024-08-25T13:13:22.275Z",
  "devdoc": {
    "author": "Edux Protocol",
    "kind": "dev",
    "methods": {
      "getPublicationData(uint256,uint256)": {
        "params": {
          "profileId": "The token ID of the profile mapped to the publication to query.",
          "pubId": "The publication ID of the publication to query."
        },
        "returns": {
          "_0": "The BaseFeeCollectCourse struct mapped to that publication."
        }
      },
      "initializePublicationCollect(uint256,uint256,address,bytes)": {
        "params": {
          "data": "The arbitrary data parameter, decoded into BaseFeeCollectModuleInitData struct:        amount: The collecting cost associated with this publication. 0 for free collect.        collectLimit: The maximum number of collects for this publication. 0 for no limit.        currency: The currency associated with this publication.        endTimestamp: The end timestamp after which collecting is impossible. 0 for no expiry.        recipient: Recipient of collect fees."
        },
        "returns": {
          "_0": "An abi encoded bytes parameter, which is the same as the passed data parameter."
        }
      },
      "owner()": {
        "details": "Returns the address of the current owner."
      },
      "renounceOwnership()": {
        "details": "Leaves the contract without owner. It will not be possible to call `onlyOwner` functions anymore. Can only be called by the current owner. NOTE: Renouncing ownership will leave the contract without an owner, thereby removing any functionality that is only available to the owner."
      },
      "transferOwnership(address)": {
        "details": "Transfers ownership of the contract to a new account (`newOwner`). Can only be called by the current owner."
      }
    },
    "title": "SimpleFeeCollectModule",
    "version": 1
  },
  "userdoc": {
    "kind": "user",
    "methods": {
      "getModuleMetadataURI()": {
        "notice": "Human-readable description of the module"
      },
      "getPublicationData(uint256,uint256)": {
        "notice": "Returns the publication data for a given publication, or an empty struct if that publication was not initialized with this module."
      },
      "initializePublicationCollect(uint256,uint256,address,bytes)": {
        "notice": "This collect module levies a fee on collects. Thus, we need to decode data."
      }
    },
    "notice": "This is a simple Edux CollectModule implementation, allowing customization of time to collect and number of collects. You can build your own collect modules by inheriting from BaseFeeCollectModule and adding your functionality along with getPublicationData function.",
    "version": 1
  }
}